:100000000C94F8050C943F060C943F060C943F06A4
:100010000C943F060C943F060C943F060C943F064C
:100020000C943F060C943F060C9418250C94EA257A
:100030000C94871B0C943F060C943F060C943F06CF
:100040000C943F060C943F060C943F060C943F061C
:100050000C943F060C94EF1B0C943F060C943F0647
:100060000C943F060C943F060C943F060C943F06FC
:100070000C943F060C943F060C943F060C943F06EC
:100080000C943F060C943F060C943F060C943F06DC
:100090000C943F060C943F060C943F060C943F06CC
:1000A0000C943F060C943F060C943F0669096B09BB
:1000B00076096D096F0971097309750978097A095B
:1000C0007C0987097E0980098209840986098909D2
:1000D000ED11ED11271227125C127C12A713E31306
:1000E0008712E313371337139F13E313E313DE135E
:1000F0004413441344134413441344134413441348
:100100004413441344134413441344134413441337
:10011000561363136A1371137B135E145E14701409
:10012000701467147014701470145E145E146C14E0
:10013000701470146C145726792667277926672760
:10014000BE26E12667273627492723202D2A2D2082
:10015000636F64696E673A207574662D38202D2AA6
:100160002D200A2727270A0A4372656174656420D7
:100170006F6E200A0A40617574686F723A20596F79
:10018000756E67204A75204B696D0A2727270A007C
:1001900023202D2A2D20636F64696E673A207574C1
:1001A000662D38202D2A2D200A2727270A0A437278
:1001B0006561746564206F6E200A0A406175746819
:1001C0006F723A20596F756E67204A75204B696DC2
:1001D0000A2727270A0001E40119021902E4000195
:1001E000E40106020602E40001E4011B021B02E432
:1001F0000001E10134023402E1004A756C2031351E
:1002000020323031372030323A31363A3233003012
:10021000323A31363A3233004A756C203135203269
:100220003031370070697020696E7374616C6C20B6
:100230002D2D636572743D633A2F73736C70726F0A
:1002400078792E637274200053454C4543540D0A4F
:100250002020202020412E2A0D0A202020202C4260
:100260002E2A0D0A46524F4D0D0A20202020612EC5
:10027000616120410D0A202020204C454654204F2A
:1002800055544552204A4F494E0D0A202020202027
:10029000202020280D0A2020202020202020534527
:1002A0004C4543540D0A20202020202020202020CF
:1002B000202020432E636F6C0D0A20202020202058
:1002C000202046524F4D0D0A2020202020202020A3
:1002D00020202020632E636320430D0A202020204D
:1002E0002020202057484552450D0A20202020205C
:1002F00020202020202020432E636F6C203D204EA4
:10030000554C4C0D0A20202020202020202920425E
:100310000D0A202020204F4E0D0A202020202020D2
:100320002020422E636F6C203D20412E636F6C2095
:100330002D2D4E554C4C0D0A20202020414E44209E
:10034000422E636F6C203D20412E636F6C202D2D5B
:100350004E554C4C0D0A57484552450D0A20202059
:1003600020422E636F6C203D204E554C4C0D0A41AF
:100370004E4420412E636F6C203C3E20310D0A41DB
:100380004E4420412E636F6C204245545745454EE4
:10039000202730312720414E4420273032270D0AB4
:1003A0000053454C4543540D0A2020202020412E67
:1003B0002A0D0A202020202C422E2A0D0A46524FB8
:1003C0004D0D0A20202020612E616120410D0A2060
:1003D0002020204C454654204F55544552204A4F2A
:1003E000494E20622E626220420D0A202020204FBA
:1003F0004E0D0A2020202020202020422E636F6CEA
:10040000203D20412E636F6C202D2D4E554C4C0D00
:100410000A20202020414E4420422E636F6C203D54
:1004200020412E636F6C202D2D4E554C4C0D0A57DC
:10043000484552450D0A20202020422E636F6C2033
:100440003D204E554C4C0D0A414E4420412E636FC9
:100450006C203C3E20310D0A414E4420412E636FFA
:100460006C204245545745454E20273031272041C6
:100470004E4420273032270D0A0053454C45435443
:100480000D0A2020202020412E636F6C0D0A2020B1
:1004900020202C412E2A0D0A46524F4D0D0A2020B5
:1004A0002020612E616120410D0A57484552450DBB
:1004B0000A20202020412E636F6C203D204E554C99
:1004C0004C0D0A414E4420412E636F6C203C3E206F
:1004D000310D0A414E4420412E636F6C2042455439
:1004E0005745454E202730312720414E44202730A4
:1004F00032270D0A0001E101200220012C022C010B
:100500002202220122022202E100272559256D251F
:10051000642548254D25532566270001E101360253
:100520003602E1012D022D006572676F646F782F2E
:10053000707964656D696120402061383732636687
:100540002D64697274790029002B0035420D71E029
:100550006100000171140004001D00C2004D000282
:10056000711A0016001B00E3002A0003710800073F
:1005700000060065002C000471150009001900E256
:10058000644A00057117000A000500000012713E60
:100590000100710000C100000013710671013000FC
:1005A0000028010000500007711C000B0011000022
:1005B000004F00087118000D001000E600520009FD
:1005C000710C000E003600E40028000A7112000FC2
:1005D0000037002F004C000B71130033003800303F
:1005E0000051000C7131001171E500C300000000E2
:1005F00030010001000100010000000100010001C4
:1006000000073001004D0201000A300830093001B6
:10061000002A00010002300A300100010028000118
:100620000026022F002F0201004A02033027023069
:100630000030020000500001000130000001000005
:10064000004F0001003502000001000000500101D0
:1006500000240021001E0000004F0101002500229F
:10066000001F0027004B0001002600230020003758
:10067000002C0001002E022502360050004C000123
:10068000002D003800520051004E00010001000111
:100690000001004F00000064300100010001000172
:1006A000000000010023000830043001004E00016A
:1006B0000024000930053001002A00010025000A4D
:1006C00030063001002C000100260001000100016D
:1006D000004B00010027000100010000004A020158
:1006E0000001000000010000004D020100010000B7
:1006F00000010000005000010001000100010000A5
:10070000004F000100010001000100010052000142
:1007100000010001000100010028000100010001AA
:1007200000010036004C0001000100010001000141
:100730000051000100010001000100010000000063
:10074000712B0035003962E06100001E00140004C6
:10075000001D00C2004D001F001A0016001B00E320
:10076000002A00200008000700060065002C002178
:1007700000150009001900E2644A00220017000A6F
:1007800000050000004B003E0101300000C10000E8
:10079000004E002300280100003E0100005000240C
:1007A000001C000B00110000004F00250018000D78
:1007B000001000E600520026000C000E003600E497
:1007C000002800270012000F0037002F004C002DDA
:1007D00000130033003800300051002E0231003485
:1007E00000E500C300000029002B003500E100E017
:1007F0000000001E00140004001D00E2014E001F56
:10080000001A0016001B00E3004C0020000800073F
:1008100000060065002C002100150009001900E207
:10082000004B00220017000A00050000004A0004E7
:10083000532E000000015300004D00230001300042
:10084000003E0100004A0024001C000B00110000C3
:10085000004D00250018000D001000E6004B00269A
:10086000000C000E0036002C022800270012000F9A
:100870000037002F004C002D0013003300380030EB
:10088000004E002E02310034000157C10000002943
:10089000002B003500E100E00000001E0014000401
:1008A000001D00E2014E001F001A0016001B00E3AD
:1008B000002A00200008000700060065002C002127
:1008C00000150009001900E2004B00220017000A81
:1008D00000050000004A0004532E000000015300F0
:1008E000004D002300013000003E010000500024B4
:1008F000001C000B00110000004F00250018000D27
:10090000001000E600520026000C000E0036002CFD
:10091000022800270012000F0037002F004C002D86
:1009200000130033003800300051002E0231003433
:1009300000E500C10000000000F0A1F0A2F0A3F06B
:10094000A400000000000000002A2B280000000086
:10095000000000000000000000000000290000006E
:10096000002C1E3420212224342627252E362D3714
:1009700038271E1F202122232425263333362E37E5
:10098000381F0405060708090A0B0C0D0E0F10117D
:1009900012131415161718191A1B1C1D2F3130238A
:1009A0002D350405060708090A0B0C0D0E0F101152
:1009B00012131415161718191A1B1C1D2F31303558
:1009C0004C000000000000000000000000000000DB
:1009D0000000000000000000000000000000000017
:1009E00000000101010101010001010101000000FD
:1009F00000000000000000000000000100010001F4
:100A000001010101010101010101010101010101D6
:100A100001010101010101010101010100000001C9
:100A200001000000000000000000000000000000C5
:100A300000000000000000000000000001010101B2
:100A40000016034500720067006F0044006F0078D5
:100A500000200045005A00000016034500720067A0
:100A6000006F0044006F007800200045005A00002D
:100A7000000403090409026D00040100A0FA09043E
:100A800000000103010100092111010001224000C1
:100A90000705810308000A0904010001030102009F
:100AA000092111010001224D000705820308000AF7
:100AB00009040200010300000009211101000122C4
:100AC00036000705830308000A0904030001030038
:100AD00000000921110100012239000705840320CB
:100AE00000011201100100000008EDFE07130100D3
:100AF0000102000105010906A101050719E029E726
:100B000015002501950875018102050819012905BF
:100B1000950575019102950175039101050719006D
:100B200029F71500250195F875018102C005010915
:100B300080A101850216810026B7001A81002AB71C
:100B400000751095018100C0050C0901A101850304
:100B5000160100269C021A01002A9C0275109501BC
:100B60008100C005010902A1010901A100050919BF
:100B7000012905150025019505750181029501756D
:100B80000381010501093009311581257F95027521
:100B900008810609381581257F95017508810605AC
:100BA0000C0A38021581257F950175088106C0C0A1
:100BB00005010906A101050719E029E7150025012E
:100BC00095087501810295017508810105081901D3
:100BD0002905950575019102950175039101050798
:100BE000190029FF150026FF00950675088100C031
:100BF00011241FBECFEFDAE0DEBFCDBF04B603FE87
:100C000027C08091680490916904A0916A04B09112
:100C10006B048730904BA740B04BD1F4109268041E
:100C20001092690410926A0410926B0414BE84B787
:100C3000877F84BF0FB6F894A89580916000886183
:100C400080936000109260000FBEE0E0FFE3099522
:100C500013E0A0E0B1E0E4E6F2E502C005900D92F9
:100C6000AC36B107D9F724E0ACE6B3E001C01D9281
:100C7000A836B207E1F70E945F220C9430290C9449
:100C800000001092B9008AE08093B800089594EAB9
:100C90009093BC009091BC0097FFFCCF9091B9005D
:100CA000987F983021F0903111F081E00895809381
:100CB000BB0084E88093BC008091BC0087FFFCCF20
:100CC0008091B900887F883111F0803471F780E01D
:100CD000089584E98093BC008091BC0084FDFCCF22
:100CE00008958093BB0084E88093BC008091BC0091
:100CF00087FFFCCF9091B900987F81E0983209F48A
:100D000080E0089584E88093BC008091BC0087FF58
:100D1000FCCF8091BB00089580B38C7080BB81B301
:100D2000836F81BB089580919102811115C080E489
:100D30000E9447068093910281110CC082E10E94BB
:100D4000710680939102811105C08FEF0E94710698
:100D5000809391020E94690684B1807F84B985B135
:100D6000807F85B98AB1837F8AB98BB1837F8BB944
:100D70003E98469808950C9473080E94070D80933E
:100D800091020E9493060E948C06ADE6B3E0EBE769
:100D9000F3E08EE08E0F11921D928E13FCCF0C9417
:100DA000F10C0E94070D809391020E9493060E940D
:100DB0008C06ADE6B3E0EBE7F3E08EE08E0F119228
:100DC0001D928E13FCCF0895BF92CF92DF92EF92C7
:100DD000FF920F931F93CF93DF938091910288230B
:100DE00079F080916C038F5F80936C03811108C050
:100DF0000E94070D80939102811102C00E94990CFC
:100E00000DE613E0C0E0D0E0EE24E394F12CDD2405
:100E1000D39495E0C92EC730D10500F58091910299
:100E200081113CC080E40E944706809391028111A9
:100E300012C082E10E9471068093910281110BC061
:100E4000C7010C2E01C0880F0A94EAF780950E9412
:100E50007106809391020E94690620C0CA30A1F0F9
:100E600028F4C83059F0C93061F005C0CC3089F0A1
:100E700070F0CD3089F0209A289810C0219A2998D6
:100E80000DC0229A2A980AC0239A2B9807C0529A1A
:100E900001C0539A5B9802C03E9A469880EA8A95B0
:100EA000F1F7C730D10518F580919102811144C046
:100EB00080E40E94470680939102882311F0B12CB0
:100EC00012C083E10E947106809391028111F7CFD5
:100ED00081E40E944706809391028111F0CF0E9425
:100EE0008206B82EB0940E9469068B2D26C08FB161
:100EF00081708D25799902C092E001C090E0892B24
:100F00007C9902C024E001C020E0822B7D9902C0C0
:100F100028E001C020E0822B7E9902C090E101C050
:100F200090E0892B9FB19095991F9927991F9295D1
:100F3000990F907E892B01C080E0F801908198176D
:100F400019F08083C09200010E94930621960F5FE2
:100F50001F4FCE30D10509F05ECF8091000188236C
:100F6000A1F0815080930001882329F0F5E0FA95E3
:100F7000F1F700000AC0ABE7B3E0EDE6F3E0CF0124
:100F8000825F91919D938E13FCCF0E94210A81E094
:100F9000DF91CF911F910F91FF90EF90DF90CF9055
:100FA000BF900895E82FF0E0E558FC4F8081089548
:100FB0000895FC01683009F45EC098F46330D1F103
:100FC00028F48281613051F118F12EC0653009F4A6
:100FD0003FC0B8F1663009F442C0673009F445C03B
:100FE0007EC06C3009F45CC038F482816A3009F448
:100FF0004DC008F446C04FC06E3009F45DC008F41F
:1010000055C0633609F45EC0643609F461C067C038
:10101000882309F464C088E295E05FC0882309F45E
:101020005EC08BE195E00895882309F458C08AE0FA
:1010300095E053C08281882309F451C085EF94E084
:1010400008958281882309F44AC08AE794E045C064
:101050008281882309F443C081EA93E03EC0828103
:101060008823E9F188E492E038C082818823B9F1CD
:1010700084E292E032C08281882389F188E192E0A3
:101080002CC0882361F18FE092E027C0882339F1DA
:101090008AEF91E022C0882311F181EF91E0089559
:1010A00082818823E1F088EE91E00895828188238F
:1010B000B1F08FED91E008958281882381F086ED73
:1010C00091E008958281882351F080E991E005C084
:1010D0008281882321F08AE491E00E94F60980E071
:1010E00090E0089508956091F9037091FA0380915A
:1010F000FB039091FC030E94BA1A56985E982598BB
:101100002D9826982E9827982F98823089F018F4D9
:10111000813031F00895833031F0843039F0089512
:10112000259A2D9A0895279A2F9A0895259A2D9AEF
:10113000269A2E9A08950F931F93CF93DF939C01C5
:101140003A9521153F41C8F58B01EC0190FF03C092
:1011500080EEFB010995D1FF03C081EEF8010995EE
:10116000D2FF03C082EEF8010995D3FF03C083EEDE
:10117000F8010995CE0188279171892B19F084EE29
:10118000F8010995CE0188279271892B19F085EE17
:10119000F8010995CE0188279471892B19F086EE04
:1011A000F8010995CC27D871CD2B39F087EEF801DD
:1011B000DF91CF911F910F910994DF91CF911F91F2
:1011C0000F910895CF93C82F62E870E10E949B08A9
:1011D0008C2FCF910C9482101F93CF93DF931F928B
:1011E000CDB7DEB7182F99830E94551165E571E1DF
:1011F000812F99810F90DF91CF911F910C949B08C3
:1012000081E0089581E008950C9402090E944C1435
:101210002FEF84E39CE0215080409040E1F700C034
:1012200000000C94141C0F931F93CF93DF938C0139
:10123000FC01C081D181CE010E943F19BE010E94F4
:10124000BA0BEC01B8010E940409882309F4C8C054
:10125000B801CE010E943E0E882309F4C1C0B80136
:10126000CE010E944A0C882309F4BAC0B801CE010D
:101270000E94C50D882309F4B3C0C531F0E7DF072C
:1012800008F07CC0C23080E7D80708F452C0F801EB
:101290008281882309F459C00E94241B811102C055
:1012A0000E940A1B0E94371B90E090935A0480937F
:1012B0005904FE01E350F047E231F10530F4EA5AF7
:1012C000FF4F809159040C94E0288091590481606B
:1012D00027C0826025C0846023C0806121C08062F5
:1012E0001FC080641DC080681BC08460886018C0F7
:1012F0008E7F16C08D7F14C08B7F12C08F7E10C072
:101300008F7D0EC08F7B0CC08F770AC08B7F877F4D
:1013100007C087FB222720F991E0922790FB87F9ED
:1013200080935904809159040E943B1B0E944C14E5
:1013300057C0C115E0E7DE0779F0C130D047A1F012
:1013400081E08093890380938A03C801DF91CF9164
:101350001F910F910C940009F8018281882309F4F0
:101360003FC00E9406093CC0F80182818823C1F178
:101370008091260481608093260432C0CC3380E7BC
:10138000D807A1F4F8018281882321F01092890303
:1013900082E016C080918903811106C086E20E9416
:1013A000821086E20E94551182E018C0CD33D047EA
:1013B00039F6F8018281882331F010928A0380E2A5
:1013C0000E94A4110DC080918A03811106C087E29A
:1013D0000E94821087E20E94551180E20E94AB11A8
:1013E00080E0DF91CF911F910F9108950F931F938C
:1013F000CF938C01F80124912223F9F030E0F90118
:10140000EF5BF64FC491F901EF53F64F249122237D
:1014100059F081EE0E9482108C2F0E9482108C2F36
:101420000E94551181EE04C08C2F0E9482108C2FD7
:101430000E9455110F5F1F4FDDCFCF911F910F916C
:1014400008950E94DC0E0C94BB0608950C94250AA6
:101450000C94260A26E0729FF001112444E5849F33
:10146000E00DF11D1124E60FF11DEE0FFF1FE95BEA
:10147000FA4F859194910E94CC0B811560E49607F8
:10148000B0F5811570E3970708F0E6C0803E91053E
:10149000D8F4803C910508F06CC0883A910578F446
:1014A000853A910508F06BC08130910509F460C15F
:1014B00008F417C18430910508F05AC112C18D3B60
:1014C000910508F467C00DC18F3F910509F048F4FC
:1014D000803F910508F0B5C0883E910508F448C1E9
:1014E00000C1811520E2920708F0ADC00895811572
:1014F00043E5940790F4811562E5960708F0D0C0A3
:10150000811571E5970708F0C6C0811520E592079F
:1015100008F0A5C09F70906A0895811545E594076D
:10152000D8F4811564E5960708F0D0C0482F469599
:10153000469570E2479FA00111248370992721E00E
:1015400030E0B90102C0660F771F8A95E2F7CB0140
:10155000842B952B9A680895811576E5970708F4F2
:10156000BAC09C0130562115304108F0BAC09F70B6
:10157000B6C0FC01EE0FFF1FE954F84F6AC0853A70
:10158000910509F4B1C0863A910509F0B0C082E82E
:1015900090E40895883A910509F4ACC0893A910520
:1015A00009F4ABC08A3A910509F4AAC08B3A9105B7
:1015B00009F4A9C08C3A910509F4A8C08B3B9105A8
:1015C00009F4A7C08C3B910509F4A6C08D3A91059A
:1015D00009F4A5C0803B910509F4A4C08E3A910599
:1015E00009F4A3C08F3A910509F4A2C0813B91058B
:1015F00009F4A1C0823B910509F4A0C0833B910589
:1016000009F49FC0843B910509F49EC0853B910578
:1016100009F49DC0863B910509F49CC0873B910568
:1016200009F49BC0883B910509F49AC0893B910558
:1016300009F499C08A3B910509F498C080E094E4CC
:10164000089590650895FC01FF70EE0FFF1FE95C9F
:10165000F64F8591949108959927906C0895482F9D
:10166000437021E030E002C0220F331F4A95E2F7B9
:101670003C68AC0164E0569547956A95E1F7437084
:10168000342B8F708695869560E2869FC001112469
:10169000822B932B0895982F8827816F906A089545
:1016A000482F4695469570E2479FA001112483700C
:1016B000992721E030E0B90102C0660F771F8A95B3
:1016C000E2F7CB01842B952B9C680895982F8827EF
:1016D000846F906A08958F719927982F8827906258
:1016E000089580E090E0089581E890E4089583E80B
:1016F00090E4089582EE94E4089589EE94E40895C8
:101700008AEE94E4089585EB94E4089586EB94E4DE
:10171000089583EB94E4089584EB94E4089587EBB3
:1017200094E408958CEC94E408958DEC94E4089589
:1017300083E895E408958AE895E4089582E995E4BC
:10174000089584E995E4089581E296E4089583E29A
:1017500096E4089584E296E4089585E296E4089577
:1017600086E296E4089587E296E408958AE296E494
:101770000895089596E0799FF001112494E5899FDA
:10178000E00DF11D1124E60FF11DEE0FFF1FE95BC7
:10179000FA4F8591949108958238910549F1B0F4FA
:1017A0008133910509F458C048F48932910509F450
:1017B0004EC08A32910509F454C0089585339105CD
:1017C00009F440C08933910599F00895833E91054D
:1017D00029F138F4803E910591F0823E9105A1F007
:1017E0000895863E9105F9F0873E910531F10895FF
:1017F0002091590420FD3AC021FD38C00895809100
:10180000590480FD35C032C08091590482FF32C036
:101810008091590484FD30C083EE39C08091590411
:1018200082FD28C0F5CF8091590483FF27C08091A5
:10183000590484FD21C087EE2AC08091590483FD9C
:101840001DC0F5CF8091590485FD1AC01BC0809141
:10185000590485FD17C014C08091590486FD14C039
:1018600015C08091590486FD11C00EC080EE0FC0D6
:1018700089E30DC082EE0BC080E009C086EE07C090
:1018800089E205C085E303C08AE201C081E390E0FC
:10189000089508950F931F93CF93FB012281211187
:1018A00002C0C1E041C08C01C0919803C11125C0A4
:1018B00085319047B1F70E94490C81E080939803ED
:1018C0000E94B91B909397038093960310928B0309
:1018D00010928D0310928C0310928F0310928E033E
:1018E000109291031092900310929303109292031E
:1018F000109295031092940317C0809196039091D3
:1019000097030E94C51B883C910558F690918B0364
:10191000E92FF0E0EE0FFF1FE457FC4F1183008327
:101920009F5F90938B03C0E08C2FCF911F910F91FD
:10193000089556985E9825982D9826982E98279861
:101940002F988FEF90E09093890080938800909378
:101950008B0080938A0090938D0080938C00259A51
:101960002D9A2FEF80E792E0215080409040E1F7E0
:1019700000C00000269A2E9A2FEF80E792E02150B7
:1019800080409040E1F700C00000279A2F9A2FEF87
:1019900080E792E0215080409040E1F700C00000D5
:1019A00025982D982FEF80E792E0215080409040BD
:1019B000E1F700C0000026982E982FEF80E792E014
:1019C000215080409040E1F700C0000027982F98F8
:1019D00056985E9825982D9826982E9827982F9897
:1019E000089589EA8093800089E08093810024989B
:1019F0002C983F988AB18F748AB96E98479A8BB1A8
:101A0000806B8BB9769A0E94990C0C94720880E2D4
:101A1000809391028091990381110EC00E9441062A
:101A200081E0809399032FEF83ED90E32150804074
:101A30009040E1F700C0000080E40E9447068093D8
:101A4000910281112EC00E94710680939102811132
:101A500028C00E94710680939102811122C08FE3F9
:101A60000E9471068093910281111BC00E94690639
:101A700080E40E94470680939102811112C08CE09D
:101A80000E9471068093910281110BC00E94710621
:101A900080939102811105C08FE30E9471068093AB
:101AA00091020E946906809191020895282F88234F
:101AB00039F090E02A3010F44D9608950697089575
:101AC00087E290E0089580919A03813079F050F098
:101AD0008230F1F482EE0E94821087E50E9482102B
:101AE00087E514C082EE0E94821012C080EE0E9430
:101AF000821081EE0E94821088E10E94821088E1AB
:101B00000E94551181EE0E94551180EE0E945511E0
:101B10008FE39CE90197F1F700C0000008958091E0
:101B20009A03813029F010F0823041F482EE04C033
:101B30008CE20E9482108CE20C9455110895EF9271
:101B4000FF921F93CF93DF937C01CCE0D0E097010D
:101B50000C2E02C0369527950A94E2F7122F1F70BB
:101B6000812F0E94560D0E948210812F0E94560DD7
:101B70000E9455112497CC3F8FEFD80741F7DF9192
:101B8000CF911F91FF90EF900895CF93DF93813015
:101B900020E8920768F0FB012281222349F0EC0142
:101BA0000E94630DCE019F770E949F0D0E948F0DB2
:101BB00081E0DF91CF910895DC011D968C911D97F6
:101BC000811111C081E01D968C931D971296ED91A5
:101BD000FC9113971E966D917C911F97CD010696EF
:101BE000309709F009940895FC018081813021F437
:101BF000FB018081918105C0823029F4FB01828143
:101C000093810C94E2080895FC018081813021F4D5
:101C1000FB018081918105C0823029F4FB01828122
:101C200093810C94EC080895CF93DF93FC012681F7
:101C3000211121C0EC0121813281C901915724E099
:101C4000880F991F2A95E1F7DC01AF5FBE4F14960C
:101C5000ED91FC9115971E966D917C911F97895F70
:101C60009E4F309709F0099518821D821F821092AD
:101C70009C0310929B03DF91CF910895EF92FF9206
:101C80000F931F93CF93DF938C0120919B0330918F
:101C90009C032115310569F02817390751F044E0FC
:101CA000220F331F4A95E1F7F901EF5FFE4081E013
:101CB0008387C8019157FB0142818F3F910511F045
:101CC00008F04FC020919202022E000C330B28170F
:101CD000390714F4809392027C0194E0EE0CFF1C0F
:101CE0009A95E1F7E701CF5FDE4F4C87FB018281D8
:101CF000882309F459C018870F838E818F5F8E83E4
:101D00000E94B91B9A878987E881F9816E857F8552
:101D1000C701895F9E4F309709F0099520919B0379
:101D200030919C0321153105B9F020173107A1F03E
:101D3000E901D15784E0CC0FDD1F8A95E1F7CE0190
:101D40008F5F9E4F21E0FC0123870E94DC0DCE01B6
:101D5000895F9E4F0E94140E10939C0300939B0377
:101D600023C0442309F1809192028F3FE9F0C7E03C
:101D7000D1E000E010E0FF24F39480919202082E5D
:101D8000000C990B801791077CF08881882341F023
:101D9000FD82CE0106970E94DC0DCE010E94140E3A
:101DA0000F5F1F4F6096E9CF81E0DF91CF911F91C8
:101DB0000F91FF90EF9008950F931F93CF93DF93B0
:101DC000809192028F3F09F1C7E0D1E000E010E07E
:101DD00080919202082E000C990B80179107ACF0AD
:101DE0008881882371F08B819C810E94C51B873973
:101DF000910538F0CE0106970E94DC0DCE010E94BD
:101E0000140E0F5F1F4F6096E3CFDF91CF911F91AC
:101E10000F9108959093A2038093A1030895E091F8
:101E2000A103F091A203309721F00190F081E02D01
:101E3000099480E00895E091A103F091A203309706
:101E400021F00280F381E02D09940895E091A1032F
:101E5000F091A203309721F00480F581E02D0994E0
:101E6000089520919F033091A0038217930771F08A
:101E70009093A00380939F03E091A103F091A203AC
:101E8000309721F00680F781E02D09940895209184
:101E90009D0330919E038217930771F090939E03E8
:101EA00080939D03E091A103F091A203309721F06C
:101EB0000084F185E02D0994089508950C945D0F38
:101EC0000E94B01B0E94BD060C94361CCF92DF927C
:101ED000EF92FF920F931F93CF93DF93CDB7DEB7AF
:101EE0002B970FB6F894DEBF0FBECDBF0E94E4065D
:101EF00084EAC82E83E0D82E00E010E0E02E802F88
:101F00000E94D207F60141916F01F42EF826B1F438
:101F10000F5F1F4F0E30110589F78FEF89838A837A
:101F20001B820E94B91B8160782F9D838C8349811D
:101F30005A816B818D810E94451040C0909126048A
:101F400091FF04C08B870E94D8078B8520E030E08A
:101F50004F2D50E0922FBA01022E02C07595679561
:101F60000A94E2F760FF24C02E83EF8221E030E084
:101F7000690102C0CC0CDD1C9A95E2F790E08C213F
:101F80009D21892B09F420E028870E94B91B8160DC
:101F9000782F9A8789874E815F8168858A850E941C
:101FA0004510F801EC55FC4F8081C826C08206C060
:101FB0002F5F3F4F2630310569F6AACF0E94C91D19
:101FC0001091A3030E940F0F1817A1F00E940F0F8A
:101FD0008093A3032B960FB6F894DEBF0FBECDBF40
:101FE000DF91CF911F910F91FF90EF90DF90CF90F5
:101FF0000C94280A2B960FB6F894DEBF0FBECDBF07
:10200000DF91CF911F910F91FF90EF90DF90CF90D4
:102010000895DC0111962C9111978C91682F70E036
:1020200041E050E001C0440F8A95EAF712968C9186
:10203000129730E0882329F08091C0038823E9F0CB
:1020400006C0F901EE54FC4F90819423B1F086E074
:10205000829FF001839FF00D1124E60FF71FEE0F12
:10206000FF1FEA55FD4F808191818D939C93F9016B
:10207000EE54FC4F8081482B06C0F901EE54FC4F12
:1020800040958081482340830895CF93DF93CDB757
:10209000DEB72B970FB6F894DEBF0FBECDBF942FDF
:1020A0004F83252F588769877A878B874A855B8579
:1020B000452B21F02F3F09F59F3FF9F4DE011196E2
:1020C00086E0FD0111928A95E9F785E0FE013796D9
:1020D00001900D928A95E1F749815A816B817C814B
:1020E0008D819E810E94E4162B960FB6F894DEBF78
:1020F0000FBECDBFDF91CF910895CE0107960E940C
:102100000910DCCFCF93882309F4CDC0C82F8238C3
:1021100059F40E940F0F81FDC6C089E30E94BE19C9
:102120000E948B1A89E30CC0833879F40E940F0F48
:1021300080FDB9C083E50E94BE190E948B1A83E519
:102140000E94001ACF910C948B1A843859F40E9483
:102150000F0F82FDA8C087E40E94BE190E948B1A4F
:1021600087E4EECF8CEF8C0F813A48F48C2F0E94DD
:102170000B20811198C08C2F0E94BE19E3CF80E202
:102180008C0F883048F4C77081E001C0880FCA9571
:10219000EAF70E94441AD6CF8BE58C0F833078F48F
:1021A000C53A29F0C63A31F083E890E005C081E8ED
:1021B00090E002C082E890E0CF910C94310F88E566
:1021C0008C0F853108F06FC0C83A61F1C93A69F1E6
:1021D000CA3A71F1CB3A79F1CC3A81F1CB3B89F132
:1021E000CC3B91F1CD3A99F1C03BA1F1CE3AA9F1A6
:1021F000CF3AB1F1C13BB9F1C23BC1F1C33BC9F127
:10220000C43BD1F1C53BD9F1C63BE1F1C73BE9F194
:10221000C83BF1F1C93BF9F1CA3B09F43FC080E08A
:1022200090E03EC082EE90E03BC089EE90E038C086
:102230008AEE90E035C085EB90E032C086EB90E00E
:102240002FC083EB90E02CC084EB90E029C087EB9B
:1022500090E026C08CEC90E023C08DEC90E020C094
:1022600083E891E01DC08AE891E01AC082E991E01C
:1022700017C084E991E014C081E292E011C083E2CA
:1022800092E00EC084E292E00BC085E292E008C0CA
:1022900086E292E005C087E292E002C08AE292E024
:1022A000CF910C94470FCF910895882309F44BC028
:1022B000823859F40E940F0F81FF45C089E30E94C4
:1022C000BE190E948B1A89E30CC0833871F40E94F6
:1022D0000F0F80FF38C083E50E94BE190E948B1A41
:1022E00083E50E94001A0C948B1A843859F40E94DA
:1022F0000F0F82FF28C087E40E94BE190E948B1A2C
:1023000087E4EFCF9CEF980F913A58F390E2980F43
:10231000983050F4877091E001C0990F8A95EAF7E0
:10232000892F0E944A1ADFCF9BE5980F933020F443
:1023300080E090E00C94310F885A853120F480E0E1
:1023400090E00C94470F0895882321F00E94441ACE
:102350000C948B1A0895882321F00E944A1A0C9439
:102360008B1A08958F929F92AF92BF92CF92DF9275
:10237000EF92FF920F931F93CF93DF931F92CDB7EE
:10238000DEB77C01C72EFC01058102950F7012811A
:10239000112321F069830E94611A698169830E9477
:1023A000B7196981882381F0112371F080E2860FCB
:1023B000883050F082E00E94A0190E94B71991E085
:1023C000D82ED926698101C0D12CEC2DE295EF7071
:1023D000F0E0E859FF4F0C94E0288C2D807F0C2D05
:1023E0000F70882311F00295007F1123C1F00023A4
:1023F00009F49BC180E2860F883010F0611105C09E
:10240000802F69830E94441A04C0802F69830E9430
:10241000541A698169830E948B1A698186C1862F4B
:1024200069830E9455116981002309F4CCC180E2BF
:10243000860F883010F0611104C0802F0E944A1A64
:1024400003C0802F0E945A1A0E948B1ABCC19C2D77
:10245000907F8C2D8F70903211F08295807F662353
:1024600019F06130B1F01EC0112349F0002309F4C6
:1024700014C1013009F011C10E94741AA4C10023D3
:1024800019F0013009F49FC189830E94771A89816C
:102490000AC1112321F0023008F095C1FEC00111DC
:1024A00092C101C1112321F0002309F4F6C03DC1FE
:1024B000002309F4F8C03FC18C2D86958695837062
:1024C00090E0009719F0019761F07DC1112321F090
:1024D000862F9C2D937002C080E090E00E94310F07
:1024E00072C1112321F0862F9C2D937002C080E0D1
:1024F00090E00E94470F67C1862F112319F00E94B8
:10250000D11C02C00E94391D0E94BE1D5CC18C2DD1
:10251000837009F052C0111156C1862F829586959D
:102520008770880F880F962F9F70892E912CA12C71
:10253000B12C082E04C0880C991CAA1CBB1C0A9440
:10254000D2F764FF14C00FE010E020E030E0B901E2
:10255000A80104C0440F551F661F771F8A95D2F744
:10256000CB01BA01609570958095909503C060E0AD
:1025700070E0CB012C2D26952695237030E022307B
:10258000310569F02330310589F0682979298A29D4
:102590009B292130310571F00E942C1814C1682943
:1025A00079298A299B290E9448180DC10E942C185C
:1025B000C501B4010E94101806C1112319F08C2D19
:1025C000817001C08695882309F4FDC0862F82950D
:1025D00086958770880F880F962F9F70892E912C73
:1025E000A12CB12C082E04C0880C991CAA1CBB1C61
:1025F0000A94D2F764FF14C00FE010E020E030E04E
:10260000B901A80104C0440F551F661F771F8A95A2
:10261000D2F7CB01BA01609570958095909503C073
:1026200060E070E0CB012C2D269526952370422F7B
:1026300050E04230510569F04330510589F0682976
:1026400079298A299B294130510571F00E94061988
:10265000BAC0682979298A299B290E942219B3C006
:102660000E940619C501B4010E94EA18ACC0862F69
:1026700090E0FC01E05EF109E531F10508F051C0A0
:10268000E858FF4F0C94E028062F0F708C2D8F71A7
:10269000112331F00E948318802F0E94A41193C04F
:1026A0000E94A418802F0E94AB118DC0112339F015
:1026B000011189C08C2D8F710E94C91884C002300D
:1026C00008F081C0F7CF112339F08C2D8F710E9453
:1026D000831879C01123C9F38C2D8F710E94A4181F
:1026E00072C0112329F08C2D8F710E946E186BC05F
:1026F0000E94641868C0112351F01C2D1F71812F96
:102700000E94831863E0812F0E9497195CC081E0CA
:102710000E94A019023008F456C082E00E94A0195D
:1027200052C0112331F0002381F2862F0E948210C3
:102730004AC0002389F2862F0E94551144C04C2DB7
:102740004F70C7010E94D9070E9488173CC0623FA2
:1027500099F128F4603F49F0613FE1F020C0643F07
:10276000A1F050F0653F59F01AC0112339F1909152
:10277000C00381E0892706C081E018271DC0111120
:102780001DC081E08093C00319C0111117C01092C1
:10279000C00314C0002381F0111110C0E8CF002342
:1027A00059F0862F6983112319F00E94821002C00C
:1027B0000E945511698102C01093C0034C2D4F70C7
:1027C000C7010E94B90BDD20F1F00E94931980FD32
:1027D0001AC0F70112820E948D190E948318C70146
:1027E0000E9411140E948D190F90DF91CF911F91BB
:1027F0000F91FF90EF90DF90CF90BF90AF909F90A0
:102800008F900C94A4180F90DF91CF911F910F918E
:10281000FF90EF90DF90CF90BF90AF909F908F9000
:1028200008950F931F93CF93DF93EC0188819981D3
:102830002B813C81232BB9F09F3F11F48F3F99F0FE
:10284000CE010E941309882371F0688179818A8101
:102850000E9489198C010E943E190E940518B80136
:10286000CE010E94B211DF91CF911F910F91089577
:102870000E94611A0E94711A0E94361A0E948B1AD5
:102880000E946E1E0E94BE1D80E090E00E94310FEB
:1028900080E090E00C94470F0E94511A0C94381479
:1028A0000E947E19E92FE295EF70F0E03297EE304A
:1028B000F105B0F4E357FF4F0C94E028803F91F00E
:1028C00018F4803E68F40EC0843F51F40BC0803E83
:1028D00048F0813F29F406C093FB882780F90895CA
:1028E00080E0089581E00895CF93DF9300D000D079
:1028F0001F92CDB7DEB70F900F900F900F900F90F3
:10290000DF91CF910895CF93DF9300D000D000D016
:10291000CDB7DEB726960FB6F894DEBF0FBECDBF9B
:10292000DF91CF9108951F93CF93DF93C091C1039F
:1029300016E08091C203C81799F0D0E01C9FF00107
:102940001D9FF00D1124ED53FC4F40815181628198
:102950007381848195810E9483142196C770E9CF89
:10296000DF91CF911F9108954091F3035091F403AB
:102970006091F5037091F6038091F7039091F8034D
:102980000C9483148091F80382958F7009F054C0E1
:102990008091F503882309F44FC08091C103A09171
:1029A000C2036091F3037091F4034091F6035091D8
:1029B000F703B6E08A1709F43FC090E041155105CE
:1029C000C1F17F3F11F46F3FA1F1B89FF001B99FB2
:1029D000F00D1124ED53FC4F218172132AC0208188
:1029E000621327C02281211124C02381348124173E
:1029F000350710F421503109241B350B26393105D8
:102A0000C0F42091F8032F7020612093F80326E092
:102A1000289FF001299FF00D1124E853FC4F80817D
:102A20008F708061808383EF93E00E9411140C9477
:102A3000931401968770BECF0895CF92DF92EF92E4
:102A4000FF920F931F93CF93DF93CDB7DEB76297BB
:102A50000FB6F894DEBF0FBECDBF8C0185E0F80144
:102A6000DE011D9601900D928A95E1F7D8014C91F7
:102A700011965C91119712966C9112971396CD90C6
:102A8000DC9014973091F3037091F4038091F60376
:102A90009091F703009709F46BC17F3F19F43F3F12
:102AA00009F466C1E090F503EE2009F4C0C020915E
:102AB000F803C816D90628F0F601E81BF90BCF0178
:102AC00004C0809590958C0D9D1DFF24F39486394C
:102AD000910578F0F12C207F09F0C6C07C2DD98AB1
:102AE000C88A89890E94741483EF93E00E941114AC
:102AF000B1C0822F807F09F046C0751314C0341313
:102B000012C0611110C02F7020612093F8030E9441
:102B1000B41483EF93E00E9411148091F803D8015C
:102B200015968C932EC0CD2819F15F3F11F44F3FBD
:102B3000F9F0F62E61111CC08091C1032091C203EF
:102B400036E0821709F45AC090E0389FF001399FAF
:102B5000F00D1124ED53FC4F7181571306C07081A5
:102B6000471303C07281711103C001968770E9CFCA
:102B7000F62E662309F418C18091F80381608093D2
:102B8000F803F12C11C1751308C0341306C061118C
:102B900004C08091F803D801C3C04D875E878D853E
:102BA0009E856A8B0E9450146A898823E1F166230E
:102BB000D1F12091F803822F82958F7090E00297D7
:102BC00074F08091F3039091F40398878F831986B2
:102BD000DB86CA862C87CE0107960E94111486E0F8
:102BE000F801A3EFB3E001900D928A95E1F70E94FE
:102BF000C2140E94B414FF24F394D6C04D875E879C
:102C00008D859E850E947E19292F22952F7030E098
:102C1000223031050CF0BCC09F7009F0B6C0805E58
:102C2000883008F4C1C0C8010E941114E4CFC8164E
:102C3000D90608F453C0F601E81BF90BCF01863919
:102C4000910508F450C0F12C7C2DD98AC88A898955
:102C50000E947414E3EFF3E086E0DF011D928A9591
:102C6000E9F70E94B414A0C0751314C0341312C045
:102C7000611110C08091F803F8018583C8010E949A
:102C8000111486E0E3EFF3E0DF011D928A95E9F786
:102C9000FE2C8AC04D875E878D859E856A8B0E943B
:102CA00050146A89882309F4BECF662309F4BBCF88
:102CB0002091F803822F82958F7090E002970CF498
:102CC0008ECF8091F3039091F4039A8389831B82C2
:102CD000DD82CC822E83CE0101967FCF80959095A8
:102CE0008C0D9D1DACCFF62E662309F49CCF751379
:102CF0002EC034132CC02091F80320FD1FC0822F5A
:102D000082958F70D9F0D80115962C9315978F3036
:102D100049F08F5F982F9295907F822F8F70892B2B
:102D200015968C93C8010E94111486E0F801A3EF58
:102D3000B3E001900D928A95E1F793CF86E0F80118
:102D4000A3EFB3E001900D928A95E1F72DC04D8776
:102D50005E878D859E850E945014811140CF8091A1
:102D6000F80381608093F803C8010E9411141CC00D
:102D7000662309F458CF4D875E878D859E850E9416
:102D80005014882309F44FCF2ACF811148CF0CC0AB
:102D9000243031050CF047CF9F7009F440CFF80183
:102DA0009581907F09F03BCF8F2D62960FB6F894F6
:102DB000DEBF0FBECDBFDF91CF911F910F91FF906E
:102DC000EF90DF90CF9008951F93CF93DF93CDB70F
:102DD000DEB72C970FB6F894DEBF0FBECDBF4F8382
:102DE000588769877A878B879C87CE0107960E94D0
:102DF0001D15882369F08F8198852A853B85232BB3
:102E0000F1F19F3F09F063C08F3F09F060C037C008
:102E100086E0FE013796DE01119601900D928A95AB
:102E2000E1F76F817885EA85FB85309741F17F3F37
:102E300011F46F3F21F12091C20330E0C9010196E6
:102E4000877099274091C10350E08417950709F4D2
:102E500047C069837A83FD83EC8396E0929FD0011B
:102E6000939FB00D1124AD53BC4FFE0131960190DC
:102E70000D929A95E1F78093C2030E94931416E095
:102E80008091C1039091C2038917C1F1189FC001BD
:102E900011248D539C4F0E941D15882379F1E091D8
:102EA000C1031E9FF0011124ED53FC4F408151815D
:102EB00062817381848195810E9483148091C10312
:102EC00090E00196877099278093C103D9CF4F81F5
:102ED000588569857A858B859C850E948314CFCF20
:102EE0000E944C141092C2031092C103E3EFF3E06E
:102EF00086E0DF011D928A95E9F7C1CF2C960FB6C7
:102F0000F894DEBF0FBECDBFDF91CF911F91089522
:102F1000EF92FF920F931F93CF93DF938C01892B36
:102F200009F46CC0F12CEE24E394E8012196F80139
:102F30008491843740F4843008F051C0813081F0AE
:102F4000823019F15BC0853709F444C0A8F19CE7D1
:102F5000980F903708F052C08F770E94551141C0EA
:102F60000E5F1F4FFE01C49180E28C0F883048F441
:102F7000C7708E2D01C0880FCA95EAF70E94641AA7
:102F800014C08C2F0E9482102DC00E5F1F4FFE01B7
:102F9000C49180E28C0F883058F4C7708E2D01C028
:102FA000880FCA95EAF70E946A1A0E948B1A1AC003
:102FB0008C2F0E94551116C00E5F1F4FFE01C49149
:102FC000CC2381F08FE99FE00197F1F700C000006A
:102FD000C150F6CF0E5F1F4FFE01F49003C00E9458
:102FE00082108E018F2D882309F49FCFEFE9FFE037
:102FF0003197F1F700C000008150F5CFDF91CF91FC
:103000001F910F91FF90EF90089508956093FD0335
:103010007093FE038093FF03909300040C94381484
:103020000F931F930091FD031091FE032091FF0366
:1030300030910004DC01CB01802B912BA22BB32B10
:103040008093FD039093FE03A093FF03B0930004CD
:103050001F910F910C9438140F931F930091FD034F
:103060001091FE032091FF0330910004DC01CB019D
:1030700080239123A223B3238093FD039093FE0327
:10308000A093FF03B09300041F910F910C94381488
:103090000F931F930091FD031091FE032091FF03F6
:1030A00030910004DC01CB0180279127A227B327B0
:1030B0008093FD039093FE03A093FF03B09300045D
:1030C0001F910F910C9438141092F9031092FA0387
:1030D0001092FB031092FC030C94381441E050E072
:1030E00060E070E004C0440F551F661F771F8A958B
:1030F000D2F74093F9035093FA036093FB03709364
:10310000FC030C94381441E050E060E070E004C02F
:10311000440F551F661F771F8A95D2F78091F903D8
:103120009091FA03A091FB03B091FC03482B592B1B
:103130006A2B7B2B4093F9035093FA036093FB03B4
:103140007093FC030C94381441E050E060E070E0B0
:1031500004C0440F551F661F771F8A95D2F740950C
:103160005095609570958091F9039091FA03A09124
:10317000FB03B091FC03482359236A237B2340932C
:10318000F9035093FA036093FB037093FC030C94D0
:10319000381441E050E060E070E004C0440F551F77
:1031A000661F771F8A95D2F78091F9039091FA03F1
:1031B000A091FB03B091FC03482759276A277B277E
:1031C0004093F9035093FA036093FB037093FC035D
:1031D0000C9438140F931F930091F9031091FA0384
:1031E0002091FB033091FC03DC01CB01802B912B60
:1031F000A22BB32B8093F9039093FA03A093FB03C4
:10320000B093FC031F910F910C9438140F931F93EC
:103210000091F9031091FA032091FB033091FC0314
:10322000DC01CB0180239123A223B3238093F903F4
:103230009093FA03A093FB03B093FC031F910F91AB
:103240000C9438140F931F930091F9031091FA0313
:103250002091FB033091FC03DC01CB0180279127F7
:10326000A227B3278093F9039093FA03A093FB035B
:10327000B093FC031F910F910C9438140895CF92D2
:10328000DF92EF92FF920F931F93CF93DF938C0106
:10329000C090FD03D090FE03E090FF03F090000487
:1032A0008091F9039091FA03A091FB03B091FC0384
:1032B000C82AD92AEA2AFB2ACFE1D0E0D701C601E1
:1032C0000C2E04C0B695A795979587950A94D2F7CA
:1032D00080FF06C0B8018C2F0E942A0A019721F4B2
:1032E000219760F780E001C08C2FDF91CF911F9173
:1032F0000F91FF90EF90DF90CF900895CF93DF93E1
:10330000EC010E943F19BE010E942A0ADF91CF9171
:103310000895CB010E947E1908958091010485953E
:10332000859585950895809101048770089598E0AA
:10333000899F90011124262B209301040C9483185B
:10334000209101048095822380930104982F977027
:1033500069F430E0482F082E000C550B2417350770
:1033600029F08595859585950C94A41808959091DC
:103370000104977081E009F480E008959091A5021E
:10338000992321F09091590497FD09C0209193024F
:1033900030919402F90132969FEF40E01FC0982FC0
:1033A0009695969596959F3150F5E0919302F09100
:1033B0009402E90FF11D877021E030E0A90102C0FD
:1033C000440F551F8A95E2F7CA019181892B8183A9
:1033D00008959F3F39F04F5F4E3141F0519158139E
:1033E000F8CF0DC05111F7CF942FF5CF9F3F39F093
:1033F000F901E90FF11D97FDFA958283089508956B
:103400009091A502992321F09091590497FD09C04C
:103410002091930230919402F9013296205E3F4F41
:103420001FC0982F9695969596959F31F0F4E09150
:103430009302F0919402E90FF11D877021E030E0D2
:10344000A90102C0440F551F8A95E2F7CA01809571
:1034500091818923818308953196E217F30729F03A
:1034600090819813F9CF1082F7CF089581E090E012
:10347000E0919302F0919402E80FF91F10820196F7
:1034800080329105A9F7089590912504892B8093A6
:10349000250408958095909125048923809325041F
:1034A000089510922504089590912404892B809307
:1034B0002404089580959091240489238093240402
:1034C000089510922404089590912304892B8093E9
:1034D00023040895809590912304892380932304E5
:1034E0000895109223040895809302040895109281
:1034F000020408958091930290919402FC01319608
:103500009C01205E3F4F80E0919191118F5FE21707
:10351000F307D1F70895E0919302F091940280911E
:1035200025048083E0919302F09194029081809130
:103530002404892B8083E0919302F091940290817E
:1035400080912304892B808380910204882361F079
:10355000E0919302F09194029081892B80830E94E4
:103560007A1A811110920204809193029091940230
:103570000C941B0FCF92DF92EF92FF926C01EE241E
:10358000FF24C114D104E104F10421F0C701B60104
:1035900020E101C020E0C72ED82EE92EFF24C1145F
:1035A000D104E104F10419F0285FC701B6016B01F1
:1035B0007C0154E0F694E794D794C7945A95D1F7D8
:1035C000C114D104E104F10419F02C5FC701B60164
:1035D0006B017C0142E0F694E794D794C7944A9536
:1035E000D1F7C114D104E104F10419F02E5FC70131
:1035F000B601DC01CB01B695A79597958795892BE8
:103600008A2B8B2B09F02F5F822FFF90EF90DF909A
:10361000CF9008956DEE7EEF80E090E00E941A2931
:1036200060E082E090E00E94082960E083E090E0A2
:103630000E94082960E084E090E00E94082960E090
:1036400085E090E00C94082980E090E00E94022937
:1036500021E08D3E9E4F09F020E0822F089582E008
:1036600090E00C94FA2883E090E00C94FA2884E02F
:1036700090E00C94FA28682F84E090E00C940829DC
:1036800080915F04843039F11092270420E488E1AE
:1036900090E00FB6F894A895809360000FBE209339
:1036A000600080E00E94280A83B7817F846083BF26
:1036B00083B7816083BF7894889583B78E7F83BFFB
:1036C0000FB6F894A895809160008861809360009F
:1036D000109260000FBE08950895CF930E94D10606
:1036E0000E94E4060E946C1BC0E08C2F0E94D2074F
:1036F000811104C0CF5FCE30C1F701C081E0CF910E
:1037000008950E944C140E940F0F0C94280A1F92D7
:103710000F920FB60F9211248F939F93AF93BF9385
:1037200080912704811113C080912804909129046D
:10373000A0912A04B0912B044196A11DB11D809344
:10374000280490932904A0932A04B0932B04BF91DA
:10375000AF919F918F910F900FBE0F901F90189572
:1037600082E084BD93E095BD9AEF97BD80936E0093
:1037700008952FB7F8948091280490912904A0917E
:103780002A04B0912B042FBF0895CF92DF92EF92BD
:10379000FF920F931F932FB7F894409128045091F4
:1037A000290460912A0470912B042FBF6A017B01C8
:1037B000EE24FF248C0120E030E0C016D106E206A2
:1037C000F30610F4415051099A01281B390BC90125
:1037D0001F910F91FF90EF90DF90CF9008951F926F
:1037E0000F920FB60F9211248F939F93AF93BF93B5
:1037F0008091280490912904A0912A04B0912B046F
:103800000196A11DB11D8093280490932904A093D3
:103810002A04B0932B04BF91AF919F918F910F9089
:103820000FBE0F901F9018950E949D24F8942FEFC3
:1038300087EA91E6215080409040E1F700C0000007
:1038400087E090EBDC018093680490936904A09377
:103850006A04B0936B049CE088E10FB6F894A895D5
:10386000809360000FBE90936000FFCF0E94241BE6
:10387000811102C00E940A1B0E942F1B8093260404
:103880000E94371B90E090935A04809359040E9441
:10389000331B682F70E080E090E00C940618809154
:1038A0002E0480FF0BC06091980285E0689FB001F4
:1038B000112475956795759567952BC081FF09C093
:1038C0006091980285E0689FB00111247595679515
:1038D00020C082FF07C06091980285E0689FB00118
:1038E000112417C090912F049923D1F06091970271
:1038F000961788F72091980285E0289F900111245F
:10390000929FA001939F500D112470E0CA010E9464
:10391000CC286038710540F46115710539F002C09A
:1039200065E070E0862F08958FE7089581E008959F
:1039300080912E0480FF08C06091960270E075951A
:1039400067957595679521C081FF06C060919602C5
:1039500070E07595679519C082FF04C0609196026A
:1039600070E010C090912F049923C1F060919502EE
:103970009617A0F780919602899FC001112470E0EC
:103980000E94CC286038710528F46115710521F07A
:10399000862F08958FE7089581E0089561E070E033
:1039A000F4CF803F21F40E944F1C819504C0813FD9
:1039B00029F40E944F1C809332040895823F21F421
:1039C0000E944F1C819504C0833F29F40E944F1C24
:1039D000809331040895893F19F40E94981C05C012
:1039E0008A3F31F40E94981C819580933304089596
:1039F0008B3F21F40E94981C819504C08C3F29F4D0
:103A00000E94981C809334040895843F21F480918F
:103A10003004816017C0853F21F4809130048260BA
:103A200011C0863F21F48091300484600BC0873F31
:103A300021F480913004886005C0883F31F4809182
:103A4000300480618093300408958D3F21F480918B
:103A50002E0481600BC08E3F21F480912E04826081
:103A600005C08F3F29F480912E04846080932E043A
:103A70000895803F39F48091320487FF6CC0109222
:103A8000320469C0813F29F4809132041816BCF3D6
:103A900062C090913104823F29F497FF5CC010927C
:103AA000310459C0833F19F41916CCF354C0893F2F
:103AB00041F48091330418160CF04DC01092330479
:103AC0004AC08A3F29F48091330487FF44C0F6CF6F
:103AD0008B3F39F48091340487FF3DC01092340449
:103AE0003AC08C3F29F4809134041816BCF333C0DB
:103AF000843F21F4809130048E7F17C0853F21F4EC
:103B0000809130048D7F11C0863F21F48091300474
:103B10008B7F0BC0873F21F480913004877F05C0E5
:103B2000883F31F4809130048F7E8093300413C03D
:103B30008D3F21F480912E048E7F0BC08E3F21F4A7
:103B400080912E048D7F05C08F3F29F480912E0433
:103B50008B7F80932E048091310481110EC080915F
:103B6000320481110AC080913304811106C0809112
:103B70003404811102C010922F04089580E394E070
:103B80000E94260F0E94B91B90932D0480932C0451
:103B900008951F93CF93DF9380912C0490912D046F
:103BA0000E94C51BAC0190912F04992321F0209114
:103BB000990230E006C020919A028AE0289F900185
:103BC00011244217530708F485C080913104C09135
:103BD0003204D091330410913404811107C0C11113
:103BE00075C0D11173C0111171C074C09F3F19F01D
:103BF0009F5F90932F04181624F40E944F1C80930B
:103C000031048091310487FF05C00E944F1C8195CB
:103C1000809331041C1624F40E944F1C80933204BC
:103C20008091320487FF05C00E944F1C81958093CC
:103C3000320460913104662331F1C0913204CC2307
:103C400011F1062E000C770B880B990B0E94D327DD
:103C500023E333E343E35FE30E9437280E949B277B
:103C6000609331046C2FCC0F770B880B990B0E945B
:103C7000D32723E333E343E35FE30E9437280E9423
:103C80009B27609332041D1624F40E94981C809395
:103C900033048091330487FF05C00E94981C8195EE
:103CA00080933304111624F40E94981C80933404EA
:103CB0008091340487FF05C00E94981C81958093F1
:103CC0003404DF91CF911F910C94BE1D9F3F09F0EA
:103CD0008FCF97CFDF91CF911F910895E0E3F4E06C
:103CE00085E0DF011D928A95E9F710922F0410926A
:103CF0002E040895833081F128F4813059F0823008
:103D0000D1F00895853009F449C0B8F1863009F43E
:103D100056C0089580919A02262F30E0280F311D59
:103D20002F3F310524F4680F60939A0208958FEFB6
:103D300080939A02089580919902262F30E0280FEF
:103D4000311D2F3F310524F4680F609399020895C7
:103D50008FEF80939902089580919802262F30E08A
:103D6000280F311D2F3F310524F4680F609398020E
:103D700008958FEF80939802089580919702262FDF
:103D800030E0280F311D2F3F310524F4680F609378
:103D9000970208958FEF809397020895809196027D
:103DA000262F30E0280F311D2F3F310524F4680FF6
:103DB0006093960208958FEF809396020895809104
:103DC0009502262F30E0280F311D2F3F310524F4B6
:103DD000680F6093950208958FEF80939502089580
:103DE000833011F128F4813049F0823091F0089548
:103DF000853081F120F18630C1F1089580919A02D9
:103E0000681720F4861B80939A02089510929A02F4
:103E1000089580919902681720F4861B8093990277
:103E2000089510929902089580919802681720F4DD
:103E3000861B8093980208951092980208958091AD
:103E40009702681720F4861B8093970208951092BA
:103E50009702089580919602681720F4861B80933C
:103E6000960208951092960208958091950268171F
:103E700020F4861B80939502089510929502089570
:103E80000F931F93873208F04DC08E3108F095C014
:103E9000803109F47FC008F5873009F46BC068F4FD
:103EA000863009F0A5C080912604817F8E7F8093A3
:103EB000260481E0809336049CC08B3009F491C0C5
:103EC0008E3009F095C08091260482FB222720F9CC
:103ED00091E0922790FB82F966C0863109F481C097
:103EE00088F4813109F084C00E944C1480915904F7
:103EF00087FB222720F991E0922790FB87F9809396
:103F000059046FC0893109F46CC08B3109F070C05D
:103F10008091260481FB222720F991E0922790FBD3
:103F200081F941C0883309F45CC050F4893209F446
:103F30005AC0853309F457C0873209F454C058C0B9
:103F4000833409F450C028F48A3308F451C08953EB
:103F500035C0883409F04CC00E944C140FEF13EDAB
:103F600020E3015010402040E1F700C000000E9413
:103F7000141C37C090912604892F8095817080FB96
:103F800090F990932604882361F19660986090934D
:103F900026042FC08091260483FB222720F991E07C
:103FA000922790FB83F9809326049923D1F0809186
:103FB000260481608093260414C08D5141E050E0B6
:103FC00060E070E08A019B0104C0000F111F221FF6
:103FD000331F8A95D2F7C901B8010E9406180E94C2
:103FE0004C1481E006C061E070E080E090E0F5CF25
:103FF00080E01F910F91089580E0089580E008957A
:104000008E518A3030F4E82FF0E0E25BFC4F808183
:10401000089580E00895CF93C82F809136048130B1
:1040200079F018F08230E9F186C0E0919302F091C6
:1040300094028081813169F0823209F07EC009C02A
:10404000E0919302F09194028081813111F08232EB
:1040500061F48C2F0E94FC1F811104C08C2F0E94E0
:10406000401F1DC081E090E01AC08C2F0E94FE1FEF
:10407000811114C0C43179F048F4CB3079F0C031EB
:1040800009F05FC082E08093360408C0C93219F09D
:10409000C83321F056C01092360453C081E08170BD
:1040A00052C0C93281F110F5C43169F1A8F4C730AA
:1040B00009F045C08AE080939A0294E190939902B6
:1040C00093E0909398028093970288E08093960201
:1040D00088E28093950233C082EE8C0F863078F5AB
:1040E0008C2F0E9400208093350429C0CE34E9F043
:1040F00020F4CB3421F56AE013C0C13579F0C23524
:10410000F1F461E00DC080913504882319F010921C
:10411000350415C081E08093360415C061E006C007
:10412000809135040E947A1E0AC06AE080913504AD
:104130000E94F01E04C01092360480E004C081E0AA
:1041400002C080E0ACCFCF910895809157040895CC
:10415000CF93DF9300D01F92CDB7DEB79C01809143
:104160005F04843019F593E099833B832A8390930D
:10417000E9008FEF9091E800815095FD06C095ED24
:104180009A95F1F700008111F5CF8091E80085FF45
:104190000DC040E050E063E070E0CE0101960E9467
:1041A00008238091E8008E778093E8000F900F90AD
:1041B0000F90DF91CF910895CF93DF9300D01F929E
:1041C000CDB7DEB720915F04243021F522E02983AA
:1041D0009B838A8383E08093E9008FEF9091E800CE
:1041E000815095FD06C095ED9A95F1F7000081117B
:1041F000F5CF8091E80085FF0DC040E050E063E01E
:1042000070E0CE0101960E9408238091E8008E772D
:104210008093E8000F900F900F90DF91CF91089559
:1042200020915F042430F1F422E02093E9002FEF85
:104230003091E800215035FD06C035ED3A95F1F793
:1042400000002111F5CF2091E80025FF0BC040E0D0
:1042500050E065E070E00E9408238091E8008E77CE
:104260008093E8000895CF93DF93EC0190915F0471
:10427000943009F046C08091A5028823D9F080913E
:10428000590487FF17C09093E9008FEF9091E800E1
:10429000815095FD06C095E19A95F1F700008111D6
:1042A000F5CF8091E80085FF2CC040E050E060E24F
:1042B00070E017C081E08093E9008FEF9091E800F3
:1042C000815095FD06C095ED9A95F1F7000081119A
:1042D000F5CF8091E80085FF14C040E050E068E031
:1042E00070E0CE010E9408238091E8008E778093D1
:1042F000E80080E2FE01A7E3B4E001900D928A9508
:10430000E1F7DF91CF91089580915E04811109C09A
:104310000E949D240E94FA248091E2008460809390
:10432000E200089510925E040895089508950C9493
:10433000811B42E061EC81E00E94172442E061ECC5
:1043400082E00E94172442E061EC83E00E9417247F
:1043500042E261EC84E00C94172480916104833084
:1043600009F455C030F4813071F0823009F48EC008
:1043700008958A3009F47AC08B3009F460C089301E
:1043800009F09CC020C080916004813A09F096C079
:104390008091E800877F8093E80080916404909189
:1043A0006504892B21F460E287E394E003C060E0B8
:1043B00080E090E070E00E9453238091E8008B77CA
:1043C0008093E800089580916004813209F076C0FE
:1043D0008091640490916504009719F0039709F0A7
:1043E0006DC08091E800877F8093E8008091E800AD
:1043F00082FD05C080915F048111F8CF5FC080917C
:10440000F100809357048091E8008B7753C080912E
:104410006004813A09F052C080916404909165046F
:10442000892B09F04BC08091E800877F8093E800DA
:104430008091E80080FFFCCF8091A50236C080917A
:1044400060048132D9F58091640490916504892BD0
:10445000A9F58091E800877F8093E8000E944C24B2
:10446000809162048093A5020C944C1480916004A6
:10447000813221F58091E800877F8093E8000E94D7
:104480004C248091630480935804089580916004C3
:10449000813AA1F48091E800877F8093E8008091C1
:1044A000E80080FFFCCF809158048093F100809158
:1044B000E8008E778093E8000C944C24089584B72C
:1044C000877F84BF0FB6F894A895809160008861BB
:1044D00080936000109260000FBE80E880936100BE
:1044E000109261000E945E0F0E949D240E94FA2497
:1044F0008091E20084608093E20078940E9480279B
:104500000E94600F8BE992E00E940A0F80915F0485
:10451000853069F40E94401B80915D048823B1F3CB
:104520000E946D1B882391F30E94F222EFCF0E941C
:10453000660FECCF292F332723303105C9F064F4FF
:104540002130310581F02230310509F043C08DE67C
:1045500090E025E73AE042C021323105F1F0223205
:10456000310541F137C082E190E022EE3AE036C0F9
:1045700099278130910541F08230910541F0892BD6
:1045800049F5E1E7FAE005C0E9E5FAE002C0E1E457
:10459000FAE0849190E09F0121C06430D8F4E62FC6
:1045A000F0E0EE0FFF1FEC59FC4F2081318189E0D4
:1045B00090E014C0643070F470E0FB01EE0FFF1F58
:1045C000E45AFC4F20813181FB01E85AFC4F808185
:1045D00090E004C080E090E020E030E0FA01318318
:1045E0002083089580E189BD82E189BD09B400FE80
:1045F000FDCF8091D8008F7D8093D8008091E0001E
:1046000082608093E0008091E00081FDFCCF0895FE
:10461000CF92DF92EF92FF920F931F93CF93DF938E
:10462000EC018B016A010E946B24811133C0C1141B
:10463000D10439F0F60180819181081B190BC80F54
:10464000D91FE12CF12C0115110519F18091E80019
:1046500085FD16C08091E8008E778093E800C11434
:10466000D10449F0F60180819181E80EF91EF182B2
:10467000E08285E00FC00E946B24882321F30AC0EA
:1046800089918093F10001501109FFEFEF1AFF0AA1
:10469000DACF80E0DF91CF911F910F91FF90EF90E3
:1046A000DF90CF900895209166043091670426171B
:1046B000370748F06115710539F42091E8002E772D
:1046C0002093E80001C0B90140E061157105A9F12E
:1046D00020915F04222309F443C0253009F442C02D
:1046E0002091E80023FD40C02091E80022FD32C067
:1046F0002091E80020FFE9CF4091F3002091F200E3
:1047000030E0342BFC01CF016115710559F02830E0
:10471000310540F481918093F100615071092F5F60
:104720003F4FF1CF41E02830310509F040E02091C2
:10473000E8002E772093E800C8CF4111C9CF0AC006
:1047400080915F04882361F0853061F08091E800FA
:1047500083FD0AC08091E80082FFF2CF80E00895D7
:1047600082E0089583E0089581E008952091660431
:10477000309167042617370748F06115710539F441
:104780002091E8002E772093E80001C0B901FC01D8
:1047900020E06115710591F180915F04882309F48F
:1047A00040C0853009F43FC08091E80083FD3DC0E2
:1047B0008091E80082FD2FC08091E80080FFE9CF62
:1047C0002091F3008091F20090E0922B6115710529
:1047D00059F08830910540F424912093F1003196EE
:1047E000615071090196F2CF21E0089709F020E0AD
:1047F0008091E8008E778093E800CBCF2111CCCF59
:104800000AC080915F04882361F0853061F0809157
:10481000E80083FD0AC08091E80082FFF2CF80E0CB
:10482000089582E0089583E0089581E00895982F27
:10483000973058F59093E900981739F07091EC0093
:104840002091ED005091F00003C0242F762F50E00E
:1048500021FF19C03091EB003E7F3093EB00309187
:10486000ED003D7F3093ED003091EB0031603093EF
:10487000EB007093EC002093ED005093F00020913A
:10488000EE0027FF07C09F5FD3CF8F708093E900B2
:1048900081E0089580E008958091600487FF11C051
:1048A0008091E80082FD05C080915F048111F8CFFE
:1048B00011C08091E8008B770BC080915F04882342
:1048C00049F08091E80080FFF8CF8091E8008E7772
:1048D0008093E80008952091E4003091E50095E68A
:1048E0004091EC00842F817040FF22C08091E8004D
:1048F00080FD1CC080915F04882391F0853091F089
:104900008091EB0085FD10C04091E4005091E500DE
:104910004217530729F39A01915011F784E0089543
:1049200082E0089583E0089581E0089580E008958D
:104930004091E80042FFDECF08950E940B250E94BF
:104940001325E0EEF0E0808181608083E8EDF0E007
:1049500080818F77808319BCA7EDB0E08C918E7F2A
:104960008C9380818F7E808310925E0408950F93D4
:104970001F93CF93DF930E940B250E941325C8ED50
:10498000D0E088818F778883888180688883888158
:104990008F7D888319BC10925F0410925B04109283
:1049A0005D0410925C0400EE10E0F80180818B7FC2
:1049B000808388818160888342E060E080E00E949B
:1049C0001724E1EEF0E080818E7F8083E2EEF0E05C
:1049D000808181608083808188608083F80180810C
:1049E0008E7F8083888180618883DF91CF911F9142
:1049F0000F910895E8EDF0E080818F7E8083E7EDF0
:104A0000F0E080818160808384E082BF81E08093D8
:104A10005E040C94B724E8EDF0E080818E7F808303
:104A20001092E20008951092DA001092E1000895C9
:104A30001F920F920FB60F9211242F933F934F9313
:104A40005F936F937F938F939F93AF93BF93EF93F6
:104A5000FF938091E10082FF0BC08091E20082FF12
:104A600007C08091E1008B7F8093E1000E947F2747
:104A70008091DA0080FF1FC08091D80080FF1BC0AA
:104A80008091DA008E7F8093DA008091D90080FFD8
:104A90000DC080E189BD82E189BD09B400FEFDCF72
:104AA00081E080935F040E94842105C019BC1092AC
:104AB0005F040E9492218091E10080FF19C08091E3
:104AC000E20080FF15C08091E2008E7F8093E200BB
:104AD0008091E20080618093E2008091D800806242
:104AE0008093D80019BC85E080935F040E949621D2
:104AF0008091E10084FF30C08091E20084FF2CC0EF
:104B000080E189BD82E189BD09B400FEFDCF8091BD
:104B1000D8008F7D8093D8008091E1008F7E8093B4
:104B2000E1008091E2008F7E8093E2008091E200BC
:104B300081608093E20080915B04882311F084E01F
:104B400007C08091E30087FD02C081E001C083E0DF
:104B500080935F040E9497218091E10083FF29C028
:104B60008091E20083FF25C08091E100877F8093E0
:104B7000E10082E080935F0410925B048091E10089
:104B80008E7F8093E1008091E2008E7F8093E2002F
:104B90008091E20080618093E20042E060E080E08A
:104BA0000E9417248091F00088608093F0000E949A
:104BB0009521FF91EF91BF91AF919F918F917F913F
:104BC0006F915F914F913F912F910F900FBE0F907A
:104BD0001F9018951F920F920FB60F9211242F93CA
:104BE0003F934F935F936F937F938F939F93AF9375
:104BF000BF93CF93DF93EF93FF93C091E900CF7002
:104C00008091EC00D82FD17080FDD0E81092E9009F
:104C10008091F000877F8093F00078940E942E2688
:104C20001092E9008091F00088608093F000CD2B15
:104C3000CF70C093E900FF91EF91DF91CF91BF91C9
:104C4000AF919F918F917F916F915F914F913F9124
:104C50002F910F900FBE0F901F9018951F93CF9319
:104C6000DF93CDB7DEB7AA970FB6F894DEBF0FBEBD
:104C7000CDBFE0E6F4E088E08E0F9091F1009193D3
:104C80008E13FBCF0E94AD218091E80083FF1FC1EE
:104C90008091600490916104492F50E04A305105A1
:104CA00008F015C1FA01E556FF4F0C94E028803852
:104CB00081F0823809F00BC1809164048F70809379
:104CC000E9008091EB0085FB882780F91092E900CC
:104CD00006C080915C0490915D0491118260909176
:104CE000E800977F9093E8008093F1001092F10024
:104CF000C8C0282F2D7F09F0EAC0882319F0823020
:104D000061F0E5C080916204813009F0E0C0933029
:104D100009F080E080935D042BC0809162048111D2
:104D200027C0809164048F7009F4D1C08093E9009A
:104D30002091EB0020FF1CC0933021F48091EB0008
:104D4000806214C09091EB0090619093EB0021E0A1
:104D500030E0A90102C0440F551F8A95E2F7409345
:104D6000EA001092EA008091EB0088608093EB00EB
:104D70001092E9008091E800877F86C08111A7C06A
:104D8000109162041F778091E3008078812B8093DB
:104D9000E3008091E800877F8093E8000E944C2424
:104DA0008091E80080FFFCCF8091E30080688093D1
:104DB000E300111102C082E001C083E080935F0430
:104DC00086C08058823008F082C080916204909141
:104DD00063048C3D53E0950779F583E08A838AE28A
:104DE00089834FB7F894DE01139620E03EE051E24C
:104DF000E32FF0E050935700E49120FF03C0E295C9
:104E0000EF703F5FEF708E2F90E0EA3010F0C796A2
:104E100001C0C0968D939D932F5F243149F74FBFFA
:104E20008091E800877F8093E8006AE270E0CE011D
:104E300001960E94532314C0AE014F5F5F4F6091F3
:104E400064040E949A22BC01892B09F440C090910D
:104E5000E800977F9093E80089819A810E94B623A9
:104E60008091E8008B778093E80031C0803879F535
:104E70008091E800877F8093E80080915B048093B5
:104E8000F1008091E8008E778093E8000E944C2426
:104E90001EC081111CC0909162049230C0F48091B8
:104EA000E800877F8093E80090935B040E944C2485
:104EB00080915B04811106C08091E30087FD02C0F0
:104EC00081E001C084E080935F040E949921809179
:104ED000E80083FF0AC08091E800877F8093E800A4
:104EE0008091EB0080628093EB00AA960FB6F89455
:104EF000DEBF0FBECDBFDF91CF911F910895089502
:104F0000CF9380915F048823A1F0C091E900CF7016
:104F10009091EC00892F817090FD80E8C82B109251
:104F2000E9008091E80083FD0E942E26CF70C09397
:104F3000E900CF9108950E94A2276894B1110C94C2
:104F4000312808950E94162888F09F5798F0B92FAD
:104F50009927B751B0F0E1F0660F771F881F991FAE
:104F60001AF0BA95C9F714C0B13091F00E943028F8
:104F7000B1E008950C943028672F782F8827B85F08
:104F800039F0B93FCCF3869577956795B395D9F706
:104F90003EF490958095709561957F4F8F4F9F4F10
:104FA0000895E89409C097FB3EF49095809570951C
:104FB00061957F4F8F4F9F4F9923A9F0F92F96E965
:104FC000BB279395F695879577956795B795F111DA
:104FD000F8CFFAF4BB0F11F460FF1BC06F5F7F4F77
:104FE0008F4F9F4F16C0882311F096E911C0772389
:104FF00021F09EE8872F762F05C0662371F096E892
:10500000862F70E060E02AF09A95660F771F881F60
:10501000DAF7880F9695879597F9089557FD905878
:10502000440F551F59F05F3F71F04795880F97FB6C
:10503000991F61F09F3F79F0879508951216130626
:105040001406551FF2CF4695F1DF08C01616170655
:105050001806991FF1CF869571056105089408958A
:10506000E894BB2766277727CB0197F908950E941C
:105070004A280C94BB280E94AD2838F00E94B4281E
:1050800020F0952311F00C94A4280C94AA28112444
:105090000C9431280E940E2870F3959FC1F3950F50
:1050A00050E0551F629FF001729FBB27F00DB11DAC
:1050B000639FAA27F00DB11DAA1F649F6627B00D3C
:1050C000A11D661F829F2227B00DA11D621F739F25
:1050D000B00DA11D621F839FA00D611D221F749F33
:1050E0003327A00D611D231F849F600D211D822F7A
:1050F000762F6A2F11249F5750409AF0F1F08823A1
:105100004AF0EE0FFF1FBB1F661F771F881F9150CD
:105110005040A9F79E3F510580F00C94A4280C94B0
:1051200031285F3FE4F3983ED4F3869577956795F1
:10513000B795F795E7959F5FC1F7FE2B880F911DF7
:105140009695879597F9089597F99F6780E870E09D
:1051500060E008959FEF80EC089500240A941616ED
:10516000170618060906089500240A941216130655
:10517000140605060895092E0394000C11F48823E3
:1051800052F0BB0F40F4BF2B11F460FF04C06F5FFF
:105190007F4F8F4F9F4F089597FB072E16F4009473
:1051A00007D077FD09D00E94E62807FC05D03EF421
:1051B000909581959F4F0895709561957F4F0895C3
:1051C000EE0FFF1F0590F491E02D0994AA1BBB1B65
:1051D00051E107C0AA1FBB1FA617B70710F0A61BF7
:1051E000B70B881F991F5A95A9F780959095BC0118
:1051F000CD010895F999FECF92BD81BDF89A992706
:1052000080B50895A8E1B0E042E050E00C94222976
:10521000262FF999FECF92BD81BDF89A019700B46F
:10522000021639F01FBA20BD0FB6F894FA9AF99A0F
:105230000FBE08950196272F0E9409290C94082972
:10524000DC01CB01FC01F999FECF06C0F2BDE1BD46
:10525000F89A319600B40D9241505040B8F7089535
:04526000F894FFCFF0
:10526400050000F40D040E00000000000000008D95
:10527400020000F40D040E0000000000000000898C
:10528400020000F40D040E00000000000000008580
:10529400020000F40D040E00000000000000008174
:1052A400020000F40D040E00000000000000007D68
:1052B400020000F40D040E0000000000000000795C
:1052C400020000F40D040E00000000000000007550
:1052D400020000F40D040E00000000000000007144
:1052E400020000F40D040E00000000000000006D38
:1052F400020000F40D040E0000000000000000692C
:10530400020000F40D040E0000000000000000651F
:10531400020000F40D040E00000000000000006113
:10532400020000F40D040E00000000000000005D07
:10533400020000F40D040E000000000000000059FB
:10534400020000F40D040E000000000000000055EF
:10535400020000F40D040E000000000000000051E3
:10536400020000F40D040E00000000000000004DD7
:10537400020000F40D040E000000000000000049CB
:10538400020000F40D040E000000000000000045BF
:10539400020000F40D040E000000000000000041B3
:1053A400024E004F044B0050043400340219000E26
:1053B4003006000D301B000C30E10039002E024590
:1053C400002D004400270043002600420025004130
:1053D400002400400023003F0022003E0021003D45
:1053E4000020003C001F003B001E003A002E00017C
:1053F4003020FF030428080A03140AA520332110CF
:1054040021DC20A82001000D010D020D030D040D67
:10541400050D000C010C020C030C040C050C000B14
:10542400010B020B030B040B050B000A010A020A11
:10543400030A040A050A0009010902090309040907
:105444000509000801080208030804080508000704
:105454000107020703070407050700060106020601
:1054640003060406050600050105020503050405F7
:1054740005050004010402040304040405040003F4
:1054840001030203030304030503000201020202F1
:1054940003020402050200010101020103010401E7
:1054A40005010000010002000300040005000102E0
:1054B4000304050607080900404D3639B00B630B99
:0C54C4002D0BF40A870AA00AB90AD20ACC
:00000001FF
