:100000000C940E030C9455030C9455030C94550357
:100010000C9455030C9455030C9455030C94550300
:100020000C9455030C9455030C94F01C0C94C21DB5
:100030000C9470160C9455030C9455030C945503B2
:100040000C9455030C9455030C9455030C945503D0
:100050000C9455030C94D8160C9455030C9455032A
:100060000C9455030C9455030C9455030C945503B0
:100070000C9455030C9455030C9455030C945503A0
:100080000C9455030C9455030C9455030C94550390
:100090000C9455030C9455030C9455030C94550380
:1000A0000C9455030C9455030C945503B605B805F0
:1000B000C305BA05BC05BE05C005C205C505C70513
:1000C000C905D405CB05CD05CF05D105D305D6058A
:1000D000D30CD30C050D050D380DA10E660EA10E27
:1000E000560DA10EF90DF90D5D0EA10EA10E9B0E80
:1000F000060E060E060E060E060E060E060E060E60
:10010000060E060E060E060E060E060E060E060E4F
:10011000150E220E290E300E3A0E1D0F1D0F2F0F39
:100120002F0F260F2F0F2F0F2F0F1D0F1D0F2B0F10
:100130002F0F2F0F2B0F2F1E511E441F511E441F18
:10014000961EB91E441F0E1F211F0000F0A12E0095
:100150004C002A00E100354100001E00140004009C
:100160001D6134004D001F001A0016001B00E10441
:100170002A00200008000700060050002C00210083
:100180001500090019004F004A00220017000A005C
:10019000050000006564500001530000006F00007E
:1001A000E3004F000353000000670000E20023005B
:1001B0001C000B00110000002961240018000D0034
:1001C000100052004B0025000C000E0036005100BC
:1001D0002800260012000F0037002F002B002700F8
:1001E00013003342386130004E002D003100346876
:1001F000E500C10000000030010001000100010025
:1002000000003A001E0220022202010001003B0011
:100210001F0221022302010001003C002F022602DE
:100220002F00010001003D003002270230000100D4
:1002300001003E00310235003502000001000100DE
:1002400001000000010000000100010001000000A9
:100250000100000001003F00520051002402000094
:1002600001004000240021001E00010001004100A7
:10027000250022001F003700010042002600230055
:10028000200027000100430025022E0231002E002D
:100290000100440045000100010001000000007061
:1002A0000100010001000100000001000100010047
:1002B00001000100010001000100F2000100010045
:1002C00001000100F000F1000100F4000100010054
:1002D0000100F3000100F500010001000100010030
:1002E0000100000001000100010000000100000009
:1002F00001000100010000000100000001000100F8
:1003000001000100010000000100010001000100E6
:100310000100A9000100010001000100AC00AA00D9
:10032000B600010001000100AB00A80001000100BF
:100330000100010001000100010001000100AE0008
:100340000100010000002A00000000000000000081
:1003500000000000D030013001300000000000003B
:10036000D03002300430000044300000D03008307B
:100370001030000042300000D0302030413000000A
:1003800000000000D030483048300000000000007D
:10039000000000000000000000000000010000005C
:1003A0000000000000000000D0304830483000005D
:1003B00000000000D03081308230000000000000DA
:1003C000D03084308830000060300000D030903071
:1003D000A030000050300000D030C130C2300000EA
:1003E00000000000D030C430C83000000000000021
:1003F00000000000000000000000D030013001309B
:10040000000000000000D030023004300000000086
:100410000000D03008301030000042300000D030F2
:1004200020304130000044300000D03048304830A7
:1004300000000000000000000000000000000000BC
:100440000000000001000000000000000000D030AB
:1004500048304830000000000000D0308130823049
:10046000000050300000D030843088300000603010
:100470000000D0309030A030000000000000D030EC
:10048000C130C230000000000000D030C430C8309D
:1004900000000000000016034500720067006F00B6
:1004A00044006F007800200045005A000000160349
:1004B0004500720067006F0044006F007800200064
:1004C00045005A00000004030904090291000501D7
:1004D00000A0FA0904000001030101000921110133
:1004E00000012240000705810308000A09040100F9
:1004F0000103000000092111010001223600070557
:10050000820308000A090402000103000000092117
:100510001101000122390007058303200001080BA7
:1005200003020202010009040300010202010005A6
:100530002400100104240202052406030407058494
:10054000030800FF09040400020A00000007050672
:10055000021000050705850210000512011001EFC9
:10056000020108EDFE071301000102000105010967
:1005700006A101050719E029E71500250195087571
:10058000018102050819012905950575019102955A
:1005900001750391010507190029F715002501953B
:1005A000F875018102C005010980A101850216814B
:1005B0000026B7001A81002AB70075109501810046
:1005C000C0050C0901A1018503160100269C021A31
:1005D00001002A9C02751095018100C005010906E1
:1005E000A101050719E029E7150025019508750106
:1005F00081029501750881010508190129059505F4
:10060000750191029501750391010507190029FFF4
:10061000150026FF00950675088100C011241FBE35
:10062000CFEFDAE0DEBFCDBF04B603FE27C0809176
:10063000DF029091E002A091E102B091E2028730E6
:10064000904BA740B04BD1F41092DF021092E00221
:100650001092E1021092E20214BE84B7877F84BF39
:100660000FB6F894A895809160008861809360002F
:10067000109260000FBEE0E0FFE3099511E0A0E0FA
:10068000B1E0EAEBF2E402C005900D92AA3EB10798
:10069000D9F722E0AAEEB1E001C01D92AF3DB2074A
:1006A000E1F70E94351A0C945B210C940000109223
:1006B000B9008AE08093B800089594EA9093BC0052
:1006C0009091BC0097FFFCCF9091B900987F983033
:1006D00021F0903111F081E008958093BB0084E80F
:1006E0008093BC008091BC0087FFFCCF8091B90053
:1006F000887F883111F0803471F780E0089584E9B3
:100700008093BC008091BC0084FDFCCF0895809351
:10071000BB0084E88093BC008091BC0087FFFCCFC5
:100720009091B900987F81E0983209F480E00895B3
:1007300084E88093BC008091BC0087FFFCCF80914F
:10074000BB00089580B38C7080BB81B3836F81BB85
:10075000089580910101811115C080E40E945D031C
:100760008093010181110CC082E10E948703809374
:100770000101811105C08FEF0E9487038093010161
:100780000E947F0384B1807F84B985B1807F85B961
:100790008AB1837F8AB98BB1837F8BB93E984698A3
:1007A00008950C9439050E942909809301010E9443
:1007B000A9030E94A203E9EFF1E0ABEEB1E01192D0
:1007C0001D9282E0E730F807D1F70C9413090E94DC
:1007D0002909809301010E94A9030E94A203E9EF65
:1007E000F1E0ABEEB1E011921D9282E0E730F80744
:1007F000D1F708956F927F929F92AF92BF92CF925E
:10080000DF92EF92FF921F93CF93DF9380910101CC
:10081000882379F08091EA018F5F8093EA0181114A
:1008200008C00E94290980930101811102C00E9421
:10083000BB088BEEE82E81E0F82E3701C0E0D0E057
:10084000CC24C394D12CAA24A39425E0922E1C2F4F
:10085000C73000F58091010181113CC080E40E9405
:100860005D0380930101811112C082E10E94870320
:100870008093010181110BC0C6010C2E01C0880FAD
:100880000A94EAF780950E948703809301010E94F1
:100890007F0320C0CA30A1F028F4C83059F0C93015
:1008A00061F005C0CC3089F070F0CD3089F0209A2D
:1008B000289810C0219A29980DC0229A2A980AC017
:1008C000239A2B9807C0529A01C0539A5B9802C092
:1008D0003E9A469880EA8A95F1F7173018F580918C
:1008E0000101811144C080E40E945D0380930101F5
:1008F000882311F0B12C12C083E10E9487038093FA
:1009000001018111F7CF81E40E945D038093010111
:100910008111F0CF0E949803B82EB0940E947F03FB
:100920008B2D26C08FB181708A25799902C032E063
:1009300001C030E0832B7C9902C034E001C030E07C
:10094000832B7D9902C028E001C020E0822B7E9994
:1009500002C090E101C090E0892B9FB19095991F52
:100960009927991F9295990F907E892B01C080E05D
:10097000D3019C91981719F08C93909200010E94DA
:10098000A9032196BFEF6B1A7B0ACE30D10509F07F
:100990005ECF809100018823A9F0815080930001EF
:1009A000882329F0E5E0EA95F1F700000BC0E9EFB4
:1009B000F1E0D7018D917D018193B9EFEB16B1E0A4
:1009C000FB06B9F70E94430681E0DF91CF911F91AA
:1009D000FF90EF90DF90CF90BF90AF909F907F906F
:1009E0006F900895E82FF0E0E750FE4F8081089562
:1009F0000895CF93DF93C8E0D2E0899181110E94DE
:100A0000F91982E0CC30D807C1F780E0DF91CF91AF
:100A10000C94F919FB01928180910702992311F03E
:100A20008F5F01C081508093070281E00895FC012F
:100A30008281882361F0E62FE295E695E695E370E2
:100A4000F0E0E85FFD4F8081682B60830EC08091ED
:100A5000070281110AC00E94F90410920B02109241
:100A60000A02109209021092080280E090E00895B4
:100A7000089560917A0270917B0280917C0290913E
:100A80007D020E94A31556985E9825982D98269869
:100A90002E9827982F98813019F0823021F00895F0
:100AA000259A2D9A0895269A2E9A089581E0089500
:100AB0000C940A050E94090F2FEF84E39CE021505B
:100AC00080409040E1F700C000000C94FD160F93A9
:100AD0001F93CF93DF938C01FC01C081D181CE01A4
:100AE0000E942E14BE010E94DC07EC01B8010E9496
:100AF0005805882309F4C1C0B801CE010E946C08D2
:100B0000882309F4BAC0B801CE010E94E6098823FF
:100B100009F4B3C0C531F0E7DF0708F07CC0C2308C
:100B200080E7D80708F452C0F8018281882309F4CD
:100B300059C00E940D16811102C00E94F3150E9437
:100B4000201690E09093D1028093D002FE01E350F2
:100B5000F047E231F10530F4EA5AFF4F8091D002BC
:100B60000C941F218091D002816027C0826025C033
:100B7000846023C0806121C080621FC080641DC06A
:100B800080681BC08460886018C08E7F16C08D7F0F
:100B900014C08B7F12C08F7E10C08F7D0EC08F7BE4
:100BA0000CC08F770AC08B7F877F07C087FB222707
:100BB00020F991E0922790FB87F98093D0028091F1
:100BC000D0020E9424160E94090F57C0C115E0E709
:100BD000DE0779F0C130D047A1F081E080930C02AC
:100BE00080930D02C801DF91CF911F910F910C945A
:100BF0005605F8018281882309F43FC00E945A05F6
:100C00003CC0F80182818823C1F18091A7028160F4
:100C10008093A70232C0CC3380E7D807A1F4F80153
:100C20008281882321F010920C0282E016C080910C
:100C30000C02811106C086E20E946F0B86E20E94C0
:100C4000420C82E018C0CD33D04739F6F8018281DA
:100C5000882331F010920D0280E20E94910C0DC0A9
:100C600080910D02811106C087E20E946F0B87E21E
:100C70000E94420C80E20E94980C80E0DF91CF91AC
:100C80001F910F9108950C94D10308950C9445067B
:100C90000C94460624E5829FC0011124FC0146E025
:100CA000749FE00DF11D1124E60FF11DEE0FFF1FE3
:100CB000E25BFE4F859194910E94EF07811520E43D
:100CC0009207B0F5811540E3940708F0E6C0803E36
:100CD0009105D8F4803C910508F06CC0883A9105E4
:100CE00078F4853A910508F06BC08130910509F4DC
:100CF00061C108F418C18430910508F05BC113C1CB
:100D00008D3B910508F467C00EC18F3F910509F036
:100D100048F4803F910508F0B5C0883E910508F47D
:100D200049C101C1811520E2920708F0ADC00895C4
:100D3000811543E5940790F4811522E5920708F0A8
:100D4000D1C0811541E5940708F0C7C0811520E5A1
:100D5000920708F0A5C09F70906A0895811545E537
:100D60009407D8F4811524E5920708F0D1C09C01BE
:100D700023703327E1E0F0E002C0EE0FFF1F2A9559
:100D8000E2F7282F2695269540E2249F9001112412
:100D9000CF01822B932B9A680895811546E594071D
:100DA00008F4BBC09C0130562115304108F0BBC08F
:100DB0009F70B7C0FC01EE0FFF1FE653F0406AC002
:100DC000853A910509F4B2C0863A910509F0B1C09F
:100DD00082E890E40895883A910509F4ADC0893A13
:100DE000910509F4ACC08A3A910509F4ABC08B3A7D
:100DF000910509F4AAC08C3A910509F4A9C08B3B6E
:100E0000910509F4A8C08C3B910509F4A7C08D3A5F
:100E1000910509F4A6C0803B910509F4A5C08E3A5E
:100E2000910509F4A4C08F3A910509F4A3C0813B50
:100E3000910509F4A2C0823B910509F4A1C0833B4E
:100E4000910509F4A0C0843B910509F49FC0853B3E
:100E5000910509F49EC0863B910509F49DC0873B2E
:100E6000910509F49CC0883B910509F49BC0893B1E
:100E7000910509F49AC08A3B910509F499C080E074
:100E800094E4089590650895FC01FF70EE0FFF1F34
:100E9000E65BFE4F8591949108959927906C089593
:100EA0009C0154E0369527955A95E1F7922F93705F
:100EB000482F437021E030E002C0220F331F4A95D3
:100EC000E2F73C68392B8F708695869540E2849FC7
:100ED000C0011124822B932B0895982F8827816FAE
:100EE000906A08959C0123703327E1E0F0E002C08E
:100EF000EE0FFF1F2A95E2F7282F2695269580E210
:100F0000289F90011124CF01822B932B9C68089578
:100F1000982F8827846F906A08958F719927982F4A
:100F200088279062089580E090E0089581E890E439
:100F3000089583E890E4089582EE94E4089589EE9C
:100F400094E408958AEE94E4089585EB94E408957A
:100F500086EB94E4089583EB94E4089584EB94E4A1
:100F6000089587EB94E408958CEC94E408958DEC57
:100F700094E4089583E895E408958AE895E4089553
:100F800082E995E4089584E995E4089581E296E480
:100F9000089583E296E4089584E296E4089585E254
:100FA00096E4089586E296E4089587E296E408952B
:100FB0008AE296E40895089524E5829FC0011124F1
:100FC000FC0126E0729FE00DF11D1124E60FF11DDA
:100FD000EE0FFF1FE25BFE4F8591949108958238DA
:100FE000910549F1B0F48133910509F459C048F4F1
:100FF0008932910509F44FC08A32910509F455C030
:1010000008958533910509F441C08933910599F01C
:101010000895833E910531F138F4803E910591F0B9
:10102000823E9105A9F00895863E910501F1873E23
:10103000910539F108952091D00220FD3BC021FD9A
:1010400039C008958091D00280FF34C089E341C047
:101050008091D00282FF30C08091D00284FD2EC0EA
:1010600083EE37C08091D00282FD26C0F5CF8091FB
:10107000D00283FF25C08091D00284FD1FC087EE7F
:1010800028C08091D00283FD1BC0F5CF8091D00293
:1010900085FD18C019C08091D00285FD15C012C011
:1010A0008091D00286FD12C013C08091D00286FDCF
:1010B0000FC00CC080EE0DC082EE0BC080E009C0F6
:1010C00086EE07C089E205C085E303C08AE201C05D
:1010D00081E390E0089508950F931F93CF93FB0150
:1010E0002281211102C0C1E041C08C01C0911B02CC
:1010F000C11125C085319047B1F70E946B0881E08E
:1011000080931B020E94A21690931A0280931902E8
:1011100010920E021092100210920F021092120200
:1011200010921102109214021092130210921602E1
:1011300010921502109218021092170217C0809197
:10114000190290911A020E94AE16883C910558F639
:1011500090910E02E92FF0E0EE0FFF1FE15FFD4FCF
:10116000118300839F5F90930E02C0E08C2FCF917C
:101170001F910F91089556985E9825982D9826985E
:101180002E9827982F988FEF90E090938900809366
:10119000880090938B0080938A0090938D008093B9
:1011A0008C00259A2D9A2FEF80E792E02150804005
:1011B0009040E1F700C00000269A2E9A2FEF80E7BA
:1011C00092E0215080409040E1F700C00000279A53
:1011D0002F9A2FEF80E792E0215080409040E1F776
:1011E00000C0000025982D982FEF80E792E0215055
:1011F00080409040E1F700C0000026982E982FEF25
:1012000080E792E0215080409040E1F700C000006C
:1012100027982F9856985E9825982D9826982E985E
:1012200027982F98089589EA8093800089E0809319
:10123000810024982C983F988AB18F748AB96E984F
:10124000479A8BB1806B8BB9769A0E94BB080C943D
:10125000380580E28093010180911C0281110EC04B
:101260000E94570381E080931C022FEF83ED90E3EF
:10127000215080409040E1F700C0000080E40E94CF
:101280005D038093010181112EC00E94870380932A
:101290000101811128C00E948703809301018111FF
:1012A00022C08FE30E9487038093010181111BC03C
:1012B0000E947F0380E40E945D03809301018111FD
:1012C00012C08CE00E9487038093010181110BC042
:1012D0000E94870380930101811105C08FE30E9462
:1012E0008703809301010E947F038091010108958B
:1012F000882339F090E08A3010F44D9608950697CF
:10130000089587E290E0089580911D02813079F080
:1013100050F08230F1F482EE0E946F0B87E50E945C
:101320006F0B87E514C082EE0E946F0B12C080EE37
:101330000E946F0B81EE0E946F0B88E10E946F0B81
:1013400088E10E94420C81EE0E94420C80EE0E94D5
:10135000420C8FE39CE90197F1F700C0000008956B
:1013600080911D02813029F010F0823041F482EE2C
:1013700004C08CE20E946F0B8CE20C94420C089526
:10138000EF92FF921F93CF93DF937C01CCE0D0E0EC
:10139000C7010C2E02C0969587950A94E2F7182F84
:1013A0001F70812F0E9478090E946F0B812F0E946D
:1013B00078090E94420C2497CC3F8FEFD80741F761
:1013C000DF91CF911F91FF90EF900895CF93DF931E
:1013D000813020E8920768F0FB012281222349F046
:1013E000EC010E948409CE019F770E94C0090E94EF
:1013F000B00981E0DF91CF9108959093230280930B
:1014000022020895E0912202F0912302309721F008
:101410000190F081E02D099480E00895E09122028E
:10142000F0912302309721F00280F381E02D09949E
:10143000089520912002309121022817390771F078
:101440009093210280932002E0912202F0912302E6
:10145000309721F00680F781E02D099408952091BE
:101460001E0230911F022817390771F090931F0256
:1014700080931E02E0912202F0912302309721F026
:101480000084F185E02D0994089508950C94450A8F
:101490000E9499160E94D3030C941F17BF92CF92FB
:1014A000DF92EF92FF920F931F93CF93DF93CDB70D
:1014B000DEB72A970FB6F894DEBF0FBECDBF0E94ED
:1014C000FA0385E2C82E82E0D82E00E010E0B02EAC
:1014D000802F0E94F204E82EF60121916F01F82E70
:1014E000F226B1F40F5F1F4F0E30110581F78FEF19
:1014F00089838A831B820E94A2168160782F9D8334
:101500008C8349815A816B818D810E942C0B3DC057
:101510008091A70281FD0E94F80480E090E02F2DC9
:1015200030E0482FB901082E02C0759567950A94DE
:10153000E2F760FF25C08E83BF8281E090E06C01FE
:1015400002C0CC0CDD1C4A95E2F72E2D30E02C2198
:101550003D21232B09F480E088870E94A216816038
:10156000782F9A8789874E815F8168858A850E9456
:101570002C0BF801EB5DFD4F80818C25808305C02D
:1015800001968630910569F6ADCF0E94020A9091CE
:1015900024028917A9F00E94020A809324022A9645
:1015A0000FB6F894DEBF0FBECDBFDF91CF911F9174
:1015B0000F91FF90EF90DF90CF90BF900C94480672
:1015C0002A960FB6F894DEBF0FBECDBFDF91CF9144
:1015D0001F910F91FF90EF90DF90CF90BF900895F3
:1015E000DC0111962C9111978C91682F70E041E0ED
:1015F00050E001C0440F8A95EAF712968C91129739
:1016000030E0882329F0809141028823E9F006C068
:10161000F901ED5CFD4F90819423B1F086E0829F4B
:10162000F001839FF00D1124E60FF71FEE0FFF1F4F
:10163000EE5CFE4F808191818D939C93F901ED5C6E
:10164000FD4F8081482B06C0F901ED5CFD4F4095B0
:101650008081482340830895CF93DF93CDB7DEB7D1
:101660002B970FB6F894DEBF0FBECDBF942F4F83DC
:10167000252F588769877A878B874A855B85452B15
:1016800031F02F3F31F481E09F3F19F403C081E036
:1016900001C080E080FD04C0CE0107960E94F00AE0
:1016A000DE01119686E0FD0111928A95E9F785E049
:1016B000FE01379601900D928A95E1F749815A8192
:1016C0006B817C818D819E810E94C9112B960FB602
:1016D000F894DEBF0FBECDBFDF91CF910895CF93B9
:1016E000882309F4CDC0C82F823859F40E94020A19
:1016F00081FDC6C089E30E94AD140E94741589E380
:101700000CC0833879F40E94020A80FDB9C083E5D9
:101710000E94AD140E94741583E50E94EC14CF91D1
:101720000C947415843859F40E94020A82FDA8C0F2
:1017300087E40E94AD140E94741587E4EECF8CEF0D
:101740008C0F813A48F48C2F0E94F417811198C0B5
:101750008C2F0E94AD14E3CF80E28C0F883048F4C8
:10176000C77081E001C0880FCA95EAF70E942D1565
:10177000D6CF8BE58C0F833078F4C53A29F0C63A82
:1017800031F083E890E005C081E890E002C082E893
:1017900090E0CF910C94190A88E58C0F853108F000
:1017A0006FC0C83A61F1C93A69F1CA3A71F1CB3AEE
:1017B00079F1CC3A81F1CB3B89F1CC3B91F1CD3A37
:1017C00099F1C03BA1F1CE3AA9F1CF3AB1F1C13BB9
:1017D000B9F1C23BC1F1C33BC9F1C43BD1F1C53B37
:1017E000D9F1C63BE1F1C73BE9F1C83BF1F1C93B97
:1017F000F9F1CA3B09F43FC080E090E03EC082EEC0
:1018000090E03BC089EE90E038C08AEE90E035C0B1
:1018100085EB90E032C086EB90E02FC083EB90E048
:101820002CC084EB90E029C087EB90E026C08CECC4
:1018300090E023C08DEC90E020C083E891E01DC0D3
:101840008AE891E01AC082E991E017C084E991E04A
:1018500014C081E292E011C083E292E00EC084E203
:1018600092E00BC085E292E008C086E292E005C0FB
:1018700087E292E002C08AE292E0CF910C942F0AB4
:10188000CF910895882309F44BC0823859F40E94FF
:10189000020A81FF45C089E30E94AD140E947415BD
:1018A00089E30CC0833871F40E94020A80FF38C0BB
:1018B00083E50E94AD140E94741583E50E94EC1428
:1018C0000C947415843859F40E94020A82FF28C0CF
:1018D00087E40E94AD140E94741587E4EFCF9CEF5B
:1018E000980F913A58F390E2980F983050F487701F
:1018F00091E001C0990F8A95EAF7892F0E9433156C
:10190000DFCF9BE5980F933020F480E090E00C94BB
:10191000190A885A853120F480E090E00C942F0A4F
:101920000895882321F00E942D150C9474150895B4
:10193000882321F00E9433150C94741508958F921A
:101940009F92AF92BF92DF92EF92FF920F931F93FD
:10195000CF93DF937C01D62FC72FFC010581029521
:101960000F70128111110E944A150E94A61488233B
:1019700079F0112369F080E28D0F883048F082E021
:101980000E948F140E94A61491E0D82ED92601C07F
:10199000D12CEC2FE295EF708E2F90E0FC01E859EE
:1019A000FF4F0C941F218C2F807FCF70882311F064
:1019B000C295C07F112399F0CC2309F474C180E251
:1019C0008D0F883010F0D11104C08C2F0E942D157E
:1019D00003C08C2F0E943D150E94741564C18D2F89
:1019E0000E94420CCC2309F4ACC180E28D0F8830F8
:1019F00010F0D11104C08C2F0E94331503C08C2F1E
:101A00000E9443150E9474159CC18C2F807FCF705B
:101A1000803211F0C295C07FDD2319F0D13099F0EA
:101A20001EC0112341F0002399F08C2F013089F45E
:101A30000E945D1586C1002319F0013009F481C1AF
:101A40000E94601513C0112339F0023008F079C1EB
:101A50008C2F0E94910C75C1011173C107C0112315
:101A600019F00023A9F31FC1011123C18C2FDAC083
:101A70008C2F86958695837019F0813061F061C155
:101A8000112321F08D2F9C2F937002C080E090E0F5
:101A90000E94190A56C1112321F08D2F9C2F93709B
:101AA00002C080E090E00E942F0A4BC18C2F83700F
:101AB00009F04CC0111145C12D2F22952695277094
:101AC000220F220F6D2F6F70862F90E0A0E0B0E004
:101AD0004C015D01022E04C0880C991CAA1CBB1C81
:101AE0000A94D2F7D4FF12C08FE090E0A0E0B0E0FB
:101AF00004C0880F991FAA1FBB1F2A95D2F7BC01EB
:101B0000CD01609570958095909503C060E070E080
:101B1000CB01C695C695C370C23051F080F46829D8
:101B200079298A299B29C13071F00E941B1309C1B0
:101B3000682979298A299B290E94371302C10E94AA
:101B40001B13C501B4010E94FF12FBC0112319F041
:101B50008C2F817001C08695882309F4F2C02D2F47
:101B6000229526952770220F220F6D2F6F70862FDA
:101B700090E0A0E0B0E04C015D01022E04C0880CB2
:101B8000991CAA1CBB1C0A94D2F7D4FF12C08FE088
:101B900090E0A0E0B0E004C0880F991FAA1FBB1F0F
:101BA0002A95D2F7BC01CD016095709580959095EE
:101BB00003C060E070E0CB01C695C695C370C2302B
:101BC00051F080F4682979298A299B29C13071F064
:101BD0000E94F513B6C0682979298A299B290E9499
:101BE0001114AFC00E94F513C501B4010E94D913AE
:101BF000A8C08D2F90E0FC01E05EF109E531F10510
:101C000008F04DC0E858FF4F0C941F21DF708C2F57
:101C10008F71112321F00E9472138D2F1ACF0E9411
:101C200093138D2F0E94980C8CC0112339F0011151
:101C300088C08C2F8F710E94B81383C0023008F0C7
:101C400080C0F7CF112339F08C2F8F710E9472134F
:101C500078C01123C9F38C2F8F710E94931371C028
:101C6000112329F08C2F8F710E945D136AC00E948E
:101C7000531367C0112349F0CF718C2F0E94721348
:101C800063E08C2F0E9486145CC081E00E948F1458
:101C9000023008F456C082E00E948F1452C0112313
:101CA00031F0002389F28D2F0E946F0B4AC0002370
:101CB00091F28D2F0E94420C44C04C2F4F706D2F1B
:101CC000C7010E9417050E9477123BC0D23F89F1DD
:101CD00028F4D03F49F0D13FE1F020C0D43FA1F03B
:101CE00050F0D53F59F01AC0112329F190914102CB
:101CF00081E0892706C081E018271BC011111BC095
:101D000081E08093410217C0111115C01092410269
:101D100012C0002371F011110EC0E8CF002349F06A
:101D20008D2F112319F00E946F0B05C00E94420CE9
:101D300002C0109341024C2F4F706D2FC7010E94BB
:101D4000DB07DD20E1F00E94821480FD18C0F7015E
:101D500012820E947C140E947213C7010E94CB0E53
:101D60000E947C14DF91CF911F910F91FF90EF9013
:101D7000DF90BF90AF909F908F900C949313DF9162
:101D8000CF911F910F91FF90EF90DF90BF90AF9098
:101D90009F908F9008950F931F93CF93DF93EC0143
:101DA000988189812B813C81232B31F08F3F31F445
:101DB00081E09F3F19F403C081E001C080E080FD15
:101DC00013C0CE010E946705882371F06881798174
:101DD0008A810E9478148C010E942D140E94F412B2
:101DE000B801CE010E949F0CDF91CF911F910F91FE
:101DF00008950E944A150E945A150E941F150E94BC
:101E0000741580E090E00E94190A80E090E00C9444
:101E10002F0A0E943A150C94F90E0E946D14E92FB6
:101E2000E295EF704E2F50E0FA013297EE30F10557
:101E3000B0F4E357FF4F0C941F21803F91F018F44A
:101E4000803E68F40EC0843F51F40BC0803E48F0E1
:101E5000813F29F406C093FB882780F9089580E02C
:101E6000089581E00895CF93DF9300D000D01F92B2
:101E7000CDB7DEB70F900F900F900F900F90DF91BE
:101E8000CF910895CF93DF9300D000D000D0CDB78D
:101E9000DEB726960FB6F894DEBF0FBECDBFDF913A
:101EA000CF9108951F93CF93DF93C091420216E024
:101EB00080914302C81799F0D0E01C9FF0011D9F4C
:101EC000F00D1124EC5BFD4F4081518162817381E3
:101ED000848195810E94420F2196C770E9CFDF91DE
:101EE000CF911F91089540917402509175026091B5
:101EF00076027091770280917802909179020C9429
:101F0000420FCF938091790282958F7009F05FC064
:101F100080917602882309F45AC080914202B091E0
:101F2000430270917402A091750240917702509122
:101F3000780291E07F3F09F090E0692FC6E08B17AF
:101F400009F445C04115510521F0AF3F21F020E0D3
:101F500003C021E001C0262F90E020FD35C0C89FBE
:101F6000F001C99FF00D1124EC5BFD4F21812A1374
:101F70002BC02081271328C02281211125C0238155
:101F800034812417350710F421503109241B350BF7
:101F900026393105C8F4209179022F7020612093F1
:101FA000790226E0289FF001299FF00D1124E75BBC
:101FB000FD4F80818F708061808384E792E00E9472
:101FC000CB0ECF910C94520F01968770B8CFCF9162
:101FD0000895AF92BF92CF92DF92EF92FF920F934C
:101FE0001F93CF93DF93CDB7DEB761970FB6F89409
:101FF000DEBF0FBECDBF8C0185E0F801DE011D966E
:1020000001900D928A95E1F7D8014C9111965C915F
:1020100011971296EC903091740260917502809144
:10202000770290917802009731F06F3F31F421E010
:102030003F3F19F403C021E001C020E0B22FB1708E
:10204000BB2E20FD64C1F801C380D480A09076022D
:10205000AA2009F4C3C020917902C816D90628F035
:10206000D601A81BB90BCD0104C0809590958C0DAD
:102070009D1DFF24F3948639910580F0F12C207F7B
:1020800009F09CC07C2DD98AC88A6E2D89890E944E
:10209000330F84E792E00E94CB0EB4C0822F807F82
:1020A00009F054C0561314C0431312C0FE2CE110A3
:1020B0000FC02F702061209379020E94730F84E774
:1020C00092E00E94CB0E80917902F80185834FC186
:1020D000CD2831F05F3F31F481E04F3F19F403C068
:1020E00081E001C080E080FD03C081E08E2502C058
:1020F00080E090E0F82FF170FF2E80FF1CC08091EF
:1021000042022091430236E0821709F40DC190E0AB
:10211000389FF001399FF00D1124EC5BFD4F618178
:10212000561306C06081461303C06281E61203C0E5
:1021300001968770E9CFFE2CEE2009F418C180913A
:102140007902816080937902F12C11C1561309C084
:10215000431307C0E11005C080917902F80185831F
:10216000B0C04D875E878D859E850E940D0F8823A8
:1021700079F1EE2069F120917902822F82958F709A
:1021800090E0029774F080917402909175029887A4
:102190008F831986DB86CA862C87CE0107960E941C
:1021A000CB0E86E0F801A4E7B2E001900D928A958B
:1021B000E1F70E94810F0E94730F0DC0561761F165
:1021C0004D875E878D859E850E940D0F811138C0D9
:1021D000C8010E94CB0EFF24F394C9C0C816D906CB
:1021E00008F446C0F601E81BF90BCF0186399105CA
:1021F00008F443C0F12C7C2DD98AC88A6E2D8989B8
:102200000E94330FE4E7F2E086E0DF011D928A9539
:10221000E9F70E94730FABC04313D2CFE110D0CFC8
:1022200080917902F8018583C8010E94CB0E86E077
:10223000E4E7F2E0DF011D928A95E9F7FA2C97C0F6
:10224000EE2031F220917902822F82958F7090E0FA
:1022500002970CF4A6CF80917402909175029A8334
:1022600089831B82DD82CC822E83CE01019697CF9B
:10227000809590958C0D9D1DB9CFFE2CEE2009F414
:10228000A7CF561333C0431331C02091790220FDEC
:1022900024C0822F82958F70482F50E04115510540
:1022A000E1F0D80115962C9315974F30510549F060
:1022B0008F5F982F9295907F822F8F70892B159624
:1022C0008C93C8010E94CB0E86E0F801A4E7B2E02F
:1022D00001900D928A95E1F79CCF86E0F801A4E782
:1022E000B2E001900D928A95E1F741C04D875E877B
:1022F0008D859E850E940D0F811153CF80917902AB
:10230000816080937902C8010E94CB0E30C0EE201C
:1023100009F45ECF4D875E878D859E850E940D0FE7
:10232000882309F455CF3DCF4D875E878D859E85E7
:102330000E946D14292F22952F70223028F49F704F
:1023400039F0811105C00BC0243028F49F7049F486
:10235000805E883020F0C8010E94CB0EBF2CFB2C81
:1023600006C0D80115969C91907F91F7F8CF8F2DDC
:1023700061960FB6F894DEBF0FBECDBFDF91CF914F
:102380001F910F91FF90EF90DF90CF90BF90AF9093
:1023900008951F93CF93DF93CDB7DEB72C970FB679
:1023A000F894DEBF0FBECDBF4F83588769877A8709
:1023B0008B879C87CE0107960E94E90F8823D1F076
:1023C0009F8188852A853B85232B31F08F3F31F40F
:1023D00081E09F3F19F403C081E001C080E080FDEF
:1023E00047C04F81588569857A858B859C850E9479
:1023F000420F3EC086E0FE013796DE011196019045
:102400000D928A95E1F7FF81E8856A857B856115E4
:10241000710531F0EF3F31F481E0FF3F19F403C063
:1024200081E001C080E080FD23C02091430230E0C4
:10243000C9010196877099274091420250E08417A4
:102440009507F1F1F983EA837D836C8396E0929F8F
:10245000D001939FB00D1124AC5BBD4FFE013196AE
:1024600001900D929A95E1F7809343020E94520FDA
:1024700016E08091420290914302891771F1189FF2
:10248000C00111248C5B9D4F0E94E90F882329F124
:10249000E09142021E9FF0011124EC5BFD4F408150
:1024A000518162817381848195810E94420F809164
:1024B000420290E001968770992780934202D9CF1B
:1024C0000E94090F1092430210924202E4E7F2E0E8
:1024D00086E0DF011D928A95E9F72C960FB6F894F5
:1024E000DEBF0FBECDBFDF91CF911F910895EF9258
:1024F000FF920F931F93CF93DF938C01892B09F4E5
:102500006CC0F12CEE24E394E8012196F80184914B
:10251000843740F4843008F051C0813081F082303B
:1025200019F15BC0853709F444C0A8F19CE7980F06
:10253000903708F052C08F770E94420C41C00E5F66
:102540001F4FFE01849190E2980F983050F48770ED
:10255000FE2D01C0FF0F8A95EAF78F2F0E944D15BF
:1025600014C00E946F0B2DC00E5F1F4FFE0184919F
:1025700090E2980F983060F48770FE2D01C0FF0F35
:102580008A95EAF78F2F0E9453150E94741519C07F
:102590000E94420C16C00E5F1F4FFE01C491CC2357
:1025A00081F08FE99FE00197F1F700C00000C15072
:1025B000F6CF0E5F1F4FFE01F49003C00E946F0B19
:1025C0008E018F2D882309F49FCFEFE9FFE031972B
:1025D000F1F700C000008150F5CFDF91CF911F913E
:1025E0000F91FF90EF900895089560937E0270938D
:1025F0007F0280938002909381020C94F90E0F93D6
:102600001F9300917E0210917F02209180023091F1
:102610008102DC01CB01802B912BA22BB32B809369
:102620007E0290937F02A0938002B09381021F915B
:102630000F910C94F90E0F931F9300917E0210914D
:102640007F022091800230918102DC01CB01802346
:102650009123A223B32380937E0290937F02A093C1
:102660008002B09381021F910F910C94F90E0F9389
:102670001F9300917E0210917F0220918002309181
:102680008102DC01CB0180279127A227B327809309
:102690007E0290937F02A0938002B09381021F91EB
:1026A0000F910C94F90E10927A0210927B02109204
:1026B0007C0210927D020C94F90E41E050E060E043
:1026C00070E004C0440F551F661F771F8A95D2F72C
:1026D00040937A0250937B0260937C0270937D0258
:1026E0000C94F90E41E050E060E070E004C0440F4B
:1026F000551F661F771F8A95D2F780917A029091B5
:102700007B02A0917C02B0917D02482B592B6A2B51
:102710007B2B40937A0250937B0260937C027093F0
:102720007D020C94F90E41E050E060E070E004C0DE
:10273000440F551F661F771F8A95D2F74095509515
:102740006095709580917A0290917B02A0917C02B5
:10275000B0917D02482359236A237B2340937A0258
:1027600050937B0260937C0270937D020C94F90E6F
:1027700041E050E060E070E004C0440F551F661F68
:10278000771F8A95D2F780917A0290917B02A0916F
:102790007C02B0917D02482759276A277B27409306
:1027A0007A0250937B0260937C0270937D020C94BA
:1027B000F90E0F931F9300917A0210917B022091E2
:1027C0007C0230917D02DC01CB01802B912BA22B6E
:1027D000B32B80937A0290937B02A0937C02B093F8
:1027E0007D021F910F910C94F90E0F931F9300918E
:1027F0007A0210917B0220917C0230917D02DC01F3
:10280000CB0180239123A223B32380937A02909358
:102810007B02A0937C02B0937D021F910F910C94D8
:10282000F90E0F931F9300917A0210917B02209171
:102830007C0230917D02DC01CB0180279127A22709
:10284000B32780937A0290937B02A0937C02B0938B
:102850007D021F910F910C94F90E0895CF92DF9293
:10286000EF92FF920F931F93CF93DF938C01C09051
:102870007A02D0907B02E0907C02F0907D02809101
:102880007E0290917F02A0918002B0918102C82ABD
:10289000D92AEA2AFB2ACFE1D0E0D701C6010C2EC3
:1028A00004C0B695A795979587950A94D2F780FDB1
:1028B00004C0219790F780E007C0B8018C2F0E94D8
:1028C0004A060197B1F38C2FDF91CF911F910F91A1
:1028D000FF90EF90DF90CF900895CF93DF93EC01BE
:1028E0000E942E14BE010E944A06DF91CF910895E6
:1028F000CB010E946D140895809182028595859583
:1029000085950895809182028770089598E0899F47
:1029100090011124262B209382020C947213209193
:1029200082028095822380938202982F977069F4A7
:1029300030E0482F082E000C550B2417350729F0DE
:102940008595859585950C949313089590918202B1
:10295000977081E009F480E008959091290199230E
:10296000F1F09091D00297FF1AC0982F9695969506
:1029700096959F3181F1E0910201F0910301E90FF9
:10298000F11D877021E030E0A90102C0440F551FFE
:102990008A95E2F7CA019181892B8183089520915C
:1029A000020130910301F90132969FEF40E051910D
:1029B000851789F09F3F19F4511101C0942F4F5F83
:1029C0004E31A9F79F3F39F0F901E90FF11D97FD4D
:1029D000FA95828308950895909129019923F9F039
:1029E0009091D00297FF1BC0982F9695969596953B
:1029F0009F3121F1E0910201F0910301E90FF11DF6
:102A0000877021E030E0A90102C0440F551F8A956C
:102A1000E2F7CA0180959181892381830895E0912D
:102A20000201F09103019F01225E3F4F92818913C1
:102A300001C012823196E217F307C1F7089581E0D1
:102A400090E0E0910201F0910301E80FF91F10827C
:102A5000019680329105A9F708959091A602892BDD
:102A60008093A602089580959091A6028923809371
:102A7000A60208951092A60208959091A502892BAE
:102A80008093A502089580959091A5028923809353
:102A9000A50208951092A50208959091A402892B91
:102AA0008093A402089580959091A4028923809335
:102AB000A40208951092A4020895809383020895B9
:102AC0001092830208958091020190910301FC010C
:102AD00031969C01205E3F4F80E0919191118F5F74
:102AE000E217F307D1F70895E0910201F091030195
:102AF0008091A6028083E0910201F0910301908110
:102B00008091A502892B8083E0910201F09103015D
:102B100090818091A402892B8083809183028823F5
:102B200061F0E0910201F09103019081892B808393
:102B30000E9463158111109283028091020190918D
:102B400003010C940E0ACF92DF92EF92FF926C0178
:102B5000EE24FF24C114D104E104F10421F0C701E3
:102B6000B60120E101C020E0C72ED82EE92EFF24B7
:102B7000C114D104E104F10419F0285FC701B601C2
:102B80006B017C0154E0F694E794D794C7945A956E
:102B9000D1F7C114D104E104F10419F02C5FC7018D
:102BA000B6016B017C0142E0F694E794D794C79498
:102BB0004A95D1F7C114D104E104F10419F02E5F54
:102BC000C701B601DC01CB01B695A795979587950E
:102BD000892B8A2B8B2B09F02F5F822FFF90EF9090
:102BE000DF90CF9008956DEE7EEF80E090E00E9440
:102BF000452160E082E090E00E94332160E083E0C4
:102C000090E00E94332160E084E090E00E94332154
:102C100060E085E090E00C94332180E090E00E9439
:102C20002D2121E08D3E9E4F09F020E0822F089556
:102C300082E090E00C94252183E090E00C94252123
:102C400084E090E00C942521682F84E090E00C94BF
:102C500033218091D602843039F11092A80220E409
:102C600088E190E00FB6F894A895809360000FBEBD
:102C70002093600080E00E94480683B7817F8460D3
:102C800083BF83B7816083BF7894889583B78E7F35
:102C900083BF0FB6F894A8958091600088618093F7
:102CA0006000109260000FBE08950895CF930E94B7
:102CB000E7030E94FA030E945516C0E08C2F0E9481
:102CC000F204811104C0CF5FCE30C1F701C081E0B2
:102CD000CF9108950E94090F0E94020A0C944806A1
:102CE0001F920F920FB60F9211248F939F93AF9361
:102CF000BF938091A802811113C08091A902909185
:102D0000AA02A091AB02B091AC024196A11DB11DE7
:102D10008093A9029093AA02A093AB02B093AC0255
:102D2000BF91AF919F918F910F900FBE0F901F9009
:102D3000189582E084BD93E095BD9AEF97BD80938E
:102D40006E0008952FB7F8948091A9029091AA027D
:102D5000A091AB02B091AC022FBF0895CF92DF9249
:102D6000EF92FF920F931F932FB7F8944091A9020F
:102D70005091AA026091AB027091AC022FBF6A0120
:102D80007B01EE24FF248C0120E030E0C016D10648
:102D9000E206F30610F4415051099A01281B390B41
:102DA000C9011F910F91FF90EF90DF90CF90089590
:102DB0001F920F920FB60F9211248F939F93AF9390
:102DC000BF938091A9029091AA02A091AB02B09109
:102DD000AC020196A11DB11D8093A9029093AA0295
:102DE000A093AB02B093AC02BF91AF919F918F9132
:102DF0000F900FBE0F901F9018950E94751CF894AD
:102E00002FEF87EA91E6215080409040E1F700C023
:102E1000000087E090EBDC018093DF029093E002FA
:102E2000A093E102B093E2029CE088E10FB6F8942F
:102E3000A895809360000FBE90936000FFCF0E9422
:102E40000D16811102C00E94F3150E94181680937E
:102E5000A7020E94201690E09093D1028093D002A6
:102E60000E941C16682F70E080E090E00C94F51230
:102E70000F931F9341E050E060E070E08A019B01F6
:102E800004C0000F111F221F331F8A95D2F7C901FA
:102E9000B8010E94F5121F910F910C94090F87320F
:102EA00008F04DC08E3108F092C0803109F47CC02A
:102EB00008F5873009F468C068F4863009F08EC0E0
:102EC0008091A702817F8E7F8093A70281E080930B
:102ED000AD0208958B3009F47DC08E3009F07EC0BC
:102EE0008091A70282FB222720F991E0922790FB94
:102EF00082F963C0863109F46DC088F4813109F02C
:102F00006DC00E94090F8091D00287FB222720F913
:102F100091E0922790FB87F98093D0025BC08931C2
:102F200009F458C08B3109F059C08091A70281FB88
:102F3000222720F991E0922790FB81F93EC0883347
:102F400009F448C050F4893209F446C0853309F4C5
:102F500043C0873209F440C041C08334E9F120F412
:102F60008A33E0F1895334C08834C1F50E94090FD7
:102F70002FEF83ED90E3215080409040E1F700C0B7
:102F800000000E94FD1626C09091A702892F80950F
:102F9000817080FB90F99093A7028823D9F0966006
:102FA00098609093A70208958091A70283FB22273F
:102FB00020F991E0922790FB83F98093A70299234F
:102FC00049F08091A70281608093A70203C08D51D0
:102FD0000E94381781E0089580E0FACF80E00895DC
:102FE00080E008950C94F017CF93C82F8091AD0224
:102FF000882319F0813059F035C0E0910201F09139
:1030000003018081813161F0823271F509C0E09164
:103010000201F09103018081813111F0823261F46B
:103020008C2F0E94F217811104C08C2F0E944F1721
:1030300017C081E090E014C08C2F0E94F01781111E
:103040000EC0C43149F018F4CB3049F00FC0C9327A
:1030500019F0C83321F00AC01092AD0207C081E018
:10306000817006C01092AD0280E002C080E0F8CF0F
:10307000CF9108958091CE0208950895CF93DF9364
:1030800000D01F92CDB7DEB72091D602243021F5B3
:1030900023E029839B838A8382E08093E9008FEF7A
:1030A0009091E800815095FD06C095ED9A95F1F755
:1030B00000008111F5CF8091E80085FF0DC040E050
:1030C00050E063E070E0CE0101960E94E41A809126
:1030D000E8008E778093E8000F900F900F90DF91BB
:1030E000CF910895CF93DF9300D01F92CDB7DEB775
:1030F0009C018091D602843019F592E099833B833C
:103100002A839093E9008FEF9091E800815095FD1C
:1031100006C095ED9A95F1F700008111F5CF8091E9
:10312000E80085FF0DC040E050E063E070E0CE01B4
:1031300001960E94E41A8091E8008E778093E8005F
:103140000F900F900F90DF91CF910895CF93DF9361
:103150002091D602243009F048C0EC018091290169
:103160008823E1F08091D00287FF18C083E080932C
:10317000E9008FEF9091E800815095FD06C095E140
:103180009A95F1F700008111F5CF8091E80085FF55
:103190002CC040E050E060E270E017C081E0809316
:1031A000E9008FEF9091E800815095FD06C095ED04
:1031B0009A95F1F700008111F5CF8091E80085FF25
:1031C00014C040E050E068E070E0CE010E94E41AD4
:1031D0008091E8008E778093E80080E2FE01AEEAFD
:1031E000B2E001900D928A95E1F7DF91CF910895B9
:1031F0008091D502811109C00E94751C0E94D21CC9
:103200008091E20084608093E20008951092D502DC
:103210000895089508950C946A1642E061EC81E0E7
:103220000E94EE1B42E061EC82E00E94EE1B42E253
:1032300061EC83E00E94EE1B42E061EC84E00E94BE
:10324000EE1B42E160E886E00E94EE1B42E161E88D
:1032500085E00C94EE1B8091D802833009F455C0B0
:1032600030F4813071F0823009F48FC0A6C08A300A
:1032700009F47BC08B3009F460C0893009F09DC02F
:1032800020C08091D702813A09F097C08091E80070
:10329000877F8093E8008091DB029091DC02892B8C
:1032A00021F460E28EEA92E003C060E080E090E00A
:1032B00070E00E942F1B8091E8008B778093E800DC
:1032C0007CC08091D702813209F077C08091DB0207
:1032D0009091DC02009719F0029709F06EC080917E
:1032E000E800877F8093E8008091E80082FD05C0B8
:1032F0008091D6028111F8CF08958091F1008093DA
:10330000CE028091E8008B7754C08091D702813A39
:1033100009F053C08091DB029091DC02892B09F007
:103320004CC08091E800877F8093E8008091E8009E
:1033300080FFFCCF8091290137C08091D702813274
:10334000E1F58091DB029091DC02892BB1F580914F
:10335000E800877F8093E8000E94231C8091D902B7
:10336000809329010E94090F28C08091D7028132E1
:1033700021F58091E800877F8093E8000E94231C5C
:103380008091DA028093CF0218C08091D702813AEF
:10339000A1F48091E800877F8093E8008091E800A5
:1033A00080FFFCCF8091CF028093F1008091E800F4
:1033B0008E778093E8000E94231C84E091E00C94B7
:1033C000682082E090E0909317018093160184E0DA
:1033D00091E00C942020089584E091E00E94BE1FAB
:1033E000892B31F084E091E00E94EB1F0C94EB19E3
:1033F0000895CF93C091E9002091EC00922F917035
:1034000020FD90E82091140120FF2DC0CF70C92B22
:10341000909105019F709093E9009091EB0090FFCF
:103420001FC09091EE0097FF1BC09FEF2091E80016
:10343000915025FD06C025ED2A95F1F70000911168
:10344000F5CF8093F10084E091E00E94781F809195
:10345000E80080FF05C08091E8008E778093E80047
:10346000CF70C093E900CF91089584B7877F84BF60
:103470000FB6F894A89580916000886180936000F1
:10348000109260000FBE80E880936100109261008E
:103490000E94460A0E94751C0E94D21C8091E20084
:1034A00084608093E20078940E945D1F0E94480A25
:1034B0008FE191E00E94FD090E94E1198091D602FE
:1034C000853069F40E9429168091D4028823B1F3D3
:1034D0000E945616882391F30E94CE1AEFCF0E94C5
:1034E0004E0A0E94EC1984E091E00E94A71FE6CFEB
:1034F000292F332723303105C9F060F421303105FD
:1035000081F02230310509F041C081E990E02AECD8
:1035100034E040C021323105E1F02232310531F191
:1035200035C082E190E02BE535E034C09927813049
:10353000910549F028F0029749F5E6E9F4E005C065
:10354000E6ECF4E002C0EEEAF4E0849190E09F0142
:1035500021C06330D8F4E62FF0E0EE0FFF1FED51ED
:10356000FE4F2081318189E090E014C0633070F417
:1035700070E0FB01EE0FFF1FE352FE4F208131810F
:10358000FB01E652FE4F808190E004C080E090E0B5
:1035900020E030E0FA0131832083089580E189BD85
:1035A00082E189BD09B400FEFDCF8091D8008F7DF6
:1035B0008093D8008091E00082608093E000809149
:1035C000E00081FDFCCF0895CF92DF92EF92FF9251
:1035D0000F931F93CF93DF93EC018B017A010E942D
:1035E000421C811133C0E114F10439F0F7018081EC
:1035F0009181081B190BC80FD91FC12CD12C0115A3
:10360000110519F18091E80085FD16C08091E80050
:103610008E778093E800E114F10449F0F70180818E
:103620009181C80ED91ED182C08285E00FC00E9450
:10363000421C882321F30AC089918093F100015034
:103640001109FFEFCF1ADF0ADACF80E0DF91CF91C7
:103650001F910F91FF90EF90DF90CF9008952091F0
:10366000DD023091DE022617370748F0611571053B
:1036700039F42091E8002E772093E80001C0B901C9
:10368000FC0120E06115710579F18091D602882353
:10369000F1F18530F1F18091E80083FD3CC080912B
:1036A000E80082FD2EC08091E80080FFEBCF2091E2
:1036B000F3008091F20090E0922B6115710551F0BA
:1036C0008830910538F421912093F10061507109FF
:1036D0000196F3CF21E0089709F020E08091E800FF
:1036E0008E778093E800CECF2111CFCF0AC0809192
:1036F000D602882361F0853061F08091E80083FD77
:103700000AC08091E80082FFF2CF80E0089582E055
:10371000089583E0089581E008952091DD023091BD
:10372000DE022617370748F06115710539F420913C
:10373000E8002E772093E80001C0B901FC0120E0E9
:103740006115710591F18091D602882309F440C07A
:10375000853009F43FC08091E80083FD3DC0809131
:10376000E80082FD2FC08091E80080FFE9CF209122
:10377000F3008091F20090E0922B6115710559F0F1
:103780008830910540F424912093F10031966150E6
:1037900071090196F2CF21E0089709F020E08091AD
:1037A000E8008E778093E800CBCF2111CCCF0AC000
:1037B0008091D602882361F0853061F08091E80025
:1037C00083FD0AC08091E80082FFF2CF80E0089577
:1037D00082E0089583E0089581E00895982F97305E
:1037E00068F59093E900981739F07091EC002091FA
:1037F000ED005091F00003C0242F762F50E021FD02
:1038000002C09F5FECCF3091EB003E7F3093EB0026
:103810003091ED003D7F3093ED003091EB00316051
:103820003093EB007093EC002093ED005093F00088
:103830002091EE0027FDE5CF80E008958F70809302
:10384000E90081E008958091D70287FF11C080913F
:10385000E80082FD05C08091D6028111F8CF11C029
:103860008091E8008B770BC08091D602882349F0C5
:103870008091E80080FFF8CF8091E8008E778093F8
:10388000E80008952091E4003091E50095E640912C
:10389000EC00842F817040FF23C08091E80080FD00
:1038A0001DC08091D602882399F0853099F08091CF
:1038B000EB0085FD11C04091E4005091E500241714
:1038C000350729F3915011F09A01E1CF84E0089572
:1038D00082E0089583E0089581E0089580E00895EE
:1038E0004091E80042FFDDCF08950E94E31C0E9452
:1038F000EB1CE0EEF0E0808181608083E8EDF0E099
:1039000080818F77808319BCA7EDB0E08C918E7F8A
:103910008C9380818F7E80831092D50208950F93BF
:103920001F93CF93DF930E94E31C0E94EB1CC8ED12
:10393000D0E088818F7788838881806888838881B8
:103940008F7D888319BC1092D6021092D2021092F9
:10395000D4021092D30200EE10E0F80180818B7F38
:10396000808388818160888342E060E080E00E94FB
:10397000EE1BE1EEF0E080818E7F8083E2EEF0E0EE
:10398000808181608083808188608083F80180816C
:103990008E7F8083888180618883DF91CF911F91A2
:1039A0000F910895E8EDF0E080818F7E8083E7ED50
:1039B000F0E080818160808384E082BF81E0809339
:1039C000D5020C948F1CE8EDF0E080818E7F80831F
:1039D0001092E20008951092DA001092E10008952A
:1039E0001F920F920FB60F9211242F933F934F9374
:1039F0005F936F937F938F939F93AF93BF93EF9357
:103A0000FF938091E10082FF0BC08091E20082FF72
:103A100007C08091E1008B7F8093E1000E945C1FD2
:103A20008091DA0080FF1FC08091D80080FF1BC00A
:103A30008091DA008E7F8093DA008091D90080FF38
:103A40000DC080E189BD82E189BD09B400FEFDCFD2
:103A500081E08093D6020E94F81805C019BC10922C
:103A6000D6020E9406198091E10080FF19C0809162
:103A7000E20080FF15C08091E2008E7F8093E2001B
:103A80008091E20080618093E2008091D8008062A2
:103A90008093D80019BC85E08093D6020E940A1951
:103AA0008091E10084FF30C08091E20084FF2CC04F
:103AB00080E189BD82E189BD09B400FEFDCF80911E
:103AC000D8008F7D8093D8008091E1008F7E809315
:103AD000E1008091E2008F7E8093E2008091E2001D
:103AE00081608093E2008091D202882311F084E00B
:103AF00007C08091E30087FD02C081E001C083E040
:103B00008093D6020E940B198091E10083FF29C0A7
:103B10008091E20083FF25C08091E100877F809340
:103B2000E10082E08093D6021092D2028091E100FF
:103B30008E7F8093E1008091E2008E7F8093E2008F
:103B40008091E20080618093E20042E060E080E0EA
:103B50000E94EE1B8091F00088608093F0000E942C
:103B60000919FF91EF91BF91AF919F918F917F9133
:103B70006F915F914F913F912F910F900FBE0F90DA
:103B80001F9018951F920F920FB60F9211242F932A
:103B90003F934F935F936F937F938F939F93AF93D5
:103BA000BF93CF93DF93EF93FF93C091E900CF7062
:103BB0008091EC00D82FD17080FDD0E81092E90000
:103BC0008091F000877F8093F00078940E94061E19
:103BD0001092E9008091F00088608093F000CD2B76
:103BE000CF70C093E900FF91EF91DF91CF91BF912A
:103BF000AF919F918F917F916F915F914F913F9185
:103C00002F910F900FBE0F901F9018951F93CF9379
:103C1000DF93CDB7DEB7AA970FB6F894DEBF0FBE1D
:103C2000CDBFE7EDF2E08091F100819322E0EF3D1E
:103C3000F207C9F70E942B198091E80083FF24C185
:103C40008091D7029091D802492F50E04A30510517
:103C500008F01AC1FA01E556FF4F0C941F21803875
:103C600081F0823809F010C18091DB028F7080935F
:103C7000E9008091EB0085FB882780F91092E9002C
:103C800006C08091D3029091D402911182609091EC
:103C9000E800977F9093E8008093F1001092F10084
:103CA000C8C0282F2D7F09F0EFC0882319F082307B
:103CB00061F0EAC08091D902813009F0E5C093300B
:103CC00009F080E08093D4022BC08091D902811149
:103CD00027C08091DB028F7009F4D6C08093E90081
:103CE0002091EB0020FF1CC0933021F48091EB0069
:103CF000806214C09091EB0090619093EB0021E002
:103D000030E0A90102C0440F551F8A95E2F74093A5
:103D1000EA001092EA008091EB0088608093EB004B
:103D20001092E9008091E800877F86C08111ACC0C5
:103D30001091D9021F778091E3008078812B8093C6
:103D4000E3008091E800877F8093E8000E94231CB5
:103D50008091E80080FFFCCF8091E3008068809331
:103D6000E300111102C082E001C083E08093D6021B
:103D70008BC08058823008F087C08091D902909122
:103D8000DA028C3D53E0950779F583E08A838AE275
:103D900089834FB7F894DE01139620E03EE051E2AC
:103DA000E32FF0E050935700E49120FF03C0E29529
:103DB000EF703F5FEF708E2F90E0EA3010F0C79603
:103DC00001C0C0968D939D932F5F243149F74FBF5B
:103DD0008091E800877F8093E8006AE270E0CE017E
:103DE00001960E942F1B14C0AE014F5F5F4F609180
:103DF000DB020E94781ABC01892B09F445C090911E
:103E0000E800977F9093E80089819A810E948D1B3A
:103E10008091E8008B778093E80036C08038A1F568
:103E20008091E800877F8093E8008091D2028093A0
:103E3000F1008091E8008E778093E8000E94231CB7
:103E400023C0811121C08091D9029091DA02992773
:103E50000297D4F48091E800877F8093E8008091F6
:103E6000D9028093D2020E94231C8091D202811138
:103E700006C08091E30087FD02C081E001C084E0BC
:103E80008093D6020E940D198091E80083FF0AC03A
:103E90008091E800877F8093E8008091EB0080624A
:103EA0008093EB00AA960FB6F894DEBF0FBECDBF8D
:103EB000DF91CF911F9108950895CF938091D602FD
:103EC0008823A1F0C091E900CF709091EC00892F78
:103ED000817090FD80E8C82B1092E9008091E80085
:103EE00083FD0E94061ECF70C093E900CF91089514
:103EF0002091D602243049F5FC0144895589668910
:103F00007789452B462B472B01F181818F70809358
:103F1000E9002091F3008091F20090E0922B892B30
:103F200091F09091E8008091E8008E778093E8000E
:103F300095FD09C00E94421C811108C08091E800D3
:103F40008E778093E80080E0089582E008952091C4
:103F5000D602243091F4FC01448955896689778919
:103F6000452B462B472B49F021812F702093E900E8
:103F70002091E80020FD0C94781F08952091D6022E
:103F8000243019F080E090E00895FC0144895589BF
:103F900066897789452B462B472BA1F386818F7045
:103FA0008093E9008091E80082FFECCF2091F3003C
:103FB0008091F20090E0922B009731F42091E8007C
:103FC0002B772093E80008952091F3008091F20070
:103FD00090E0922B08952091D602243019F08FEFB3
:103FE0009FEF0895FC014489558966897789452B9F
:103FF000462B472BA1F386818F708093E900809137
:10400000E80082FFECCF2091F3008091F20090E075
:10401000922B892B21F02091F10030E002C02FEF8C
:104020003FEF4091F3008091F20090E0942B892BB8
:1040300029F48091E8008B778093E800C901089506
:104040000F931F93CF93DF93CDB7DEB728970FB6AB
:10405000F894DEBF0FBECDBF2091D602243061F5AB
:10406000FC014489558966897789452B462B472B66
:1040700019F18C0183858F708093E90088E0EAE272
:10408000F1E0DE01119601900D928A95E1F740E092
:1040900050E068E070E0CE0101960E94E41A40E032
:1040A00050E062E070E0C80142960E94E41A8091FC
:1040B000E8008E778093E80028960FB6F894DEBF6C
:1040C0000FBECDBFDF91CF911F910F91089508953D
:1040D000CF93DF93EC018091E80083FFADC088812E
:1040E00090E02091DB023091DC022817390709F0BB
:1040F000A3C08091D802813261F020F4803209F4AB
:104100003FC09AC0823209F46FC0833209F482C082
:1041100093C08091D702813A09F08EC08091E80067
:10412000877F8093E8008091E80080FFFCCF8C8936
:104130009D89AE89BF898093F100492F5A2F6B2F3B
:1041400077274093F100AD01662777274093F10070
:104150008B2F9927AA27BB278093F100888D809306
:10416000F100898D8093F1008A8D8093F100809118
:10417000E8008E778093E800DF91CF910C94231CA8
:104180008091D702813209F057C08091E800877F83
:104190008093E8008091E80082FD05C08091D602FE
:1041A0008111F8CF49C03091F1002091F100909138
:1041B000F1008091F1003C8B2D8B9E8B8F8B809139
:1041C000F100888F8091F100898F8091F1008A8FB2
:1041D0008091E8008B778093E8000E94231CCE0139
:1041E000DF91CF910C9467208091D702813221F525
:1041F0008091E800877F8093E8000E94231C8091D3
:10420000D9029091DA02998B888BCE01DF91CF9100
:104210000C9467208091D702813271F48091E8007C
:10422000877F8093E8000E94231C6091D902CE0111
:10423000DF91CF910C946720DF91CF910895EE0F1D
:10424000FF1F0590F491E02D0994F999FECF92BDDE
:1042500081BDF89A992780B50895A8E1B0E042E0C1
:1042600050E00C944D21262FF999FECF92BD81BDCF
:10427000F89A019700B4021639F01FBA20BD0FB6A4
:10428000F894FA9AF99A0FBE08950196272F0E9482
:1042900034210C943321DC01CB01FC01F999FECFD0
:1042A00006C0F2BDE1BDF89A319600B40D924150BE
:0A42B0005040B8F70895F894FFCFCE
:1042BA000520840203851000000106100000018415
:1042CA000800000100000000000000000000003AA1
:1042DA0018A6183D1872183E1801A1200000000007
:1042EA000200000D010D020D030D040D050D000C59
:1042FA00010C020C030C040C050C000B010B020B45
:10430A00030B040B050B000A010A020A030A040A3A
:10431A00050A000901090209030904090509000837
:10432A000108020803080408050800070107020734
:10433A00030704070507000601060206030604062A
:10434A000506000501050205030504050505000427
:10435A000104020403040404050400030103020324
:10436A00030304030503000201020202030204021A
:10437A000502000101010201030104010501000017
:10438A0001000200030004000500403639DC05A6DE
:0A439A00056D05DC04F5040E0500B6
:00000001FF
