:100000000C940B030C9452030C9452030C94520363
:100010000C9452030C9452030C9452030C9452030C
:100020000C9452030C9452030C940B200C94DD207E
:100030000C9484160C9452030C9452030C945203A7
:100040000C9452030C9452030C9452030C945203DC
:100050000C9452030C94EC160C9452030C9452031F
:100060000C9452030C9452030C9452030C945203BC
:100070000C9452030C9452030C9452030C945203AC
:100080000C9452030C9452030C9452030C9452039C
:100090000C9452030C9452030C9452030C9452038C
:1000A0000C9452030C9452030C945203830585055F
:1000B0009005870589058B058D058F0592059405AB
:1000C0009605A10598059A059C059E05A005A30522
:1000D000D80CD80C0A0D0A0D3D0D5B0D760EB10E35
:1000E000660DB10E090E090E6D0EB10EB10EAB0EFE
:1000F000160E160E160E160E160E160E160E160EE0
:10010000160E160E160E160E160E160E160E160ECF
:10011000250E320E390E400E4A0E310F310F430FAD
:10012000430F3A0F430F430F430F310F310F3F0F70
:10013000430F430F3F0F4A216C215F226C215F2246
:10014000B121D4215F2229223C226572676F646F3E
:10015000782F70726F6665745F383020402063318D
:10016000393263382D6469727479000000F0A12E71
:10017000004C002A00E100354100001E001400047C
:10018000001D6134004D001F001A0016001B00E125
:10019000042A00200008000700060050002C00215F
:1001A000001500090019004F004A00220017000A3C
:1001B0000005001E006564500001530000006F1F21
:1001C00000E3004F000153000000672000E200231D
:1001D000001C000B00110021002961240018000DF3
:1001E00000100052004B0025000C000E003600519C
:1001F000002800260012000F0037002F002B0027D8
:100200000013003342386130004E002D00310034BD
:1002100068E500C10000000030010001000100019C
:100220000000003A001E0220022202010001003BF1
:10023000001F0221022302010001003C002F0226C0
:10024000022F00010001003D0030022702300001B2
:100250000001003E003102350035020100010001BD
:100260000001000000010001000100010001000088
:10027000000100010001003F005200510024020172
:100280000001004000240021001E00010001004187
:1002900000250022001F0037000100420026002335
:1002A00000200027000100430025022E0231002E0D
:1002B00000010044004500010001000100000001B0
:1002C0000001000100010001000000010001000127
:1002D0000001000100010001000100F20001000125
:1002E0000001000100F000F1000100F40001000134
:1002F000000100F3000100F5000100010001000110
:1003000000010001000100010001000000010001E6
:1003100000010001000100000001000100010001D6
:1003200000010001000100010001000100010001C5
:10033000000100A9000100010001000100AC00AAB9
:1003400000B600010001000100AB00A8000100019F
:10035000000100010001000100010001000100AEE8
:100360000001000100000000000000000000002A61
:100370002B2800000000000000000000000000002A
:10038000000029000000002C1E34202122243426E5
:1003900027252E362D3738271E1F202122232425DE
:1003A000263333362E37381F0405060708090A0B93
:1003B0000C0D0E0F101112131415161718191A1B05
:1003C0001C1D2F3130232D350405060708090A0BA3
:1003D0000C0D0E0F101112131415161718191A1BE5
:1003E0001C1D2F3130354C000000000000000000C3
:1003F00000000000000000000000000000000000FD
:1004000000000000000000000101010101010001E5
:1004100001010100000000000000000000000000D9
:1004200000010001000101010101010101010101BF
:1004300001010101010101010101010101010101AC
:1004400001010000000101000000000000000000A8
:10045000000000000000000000000000000000009C
:100460000000010101010016034500720067006FE2
:100470000044006F007800200045005A000000167C
:10048000034500720067006F0044006F0078002091
:100490000045005A0000000403090409026D00042D
:1004A0000100A0FA09040000010301010009211163
:1004B0000100012240000705810308000A09040128
:1004C000000103010200092111010001224D000772
:1004D00005820308000A0904020001030000000964
:1004E00021110100012236000705830308000A09D3
:1004F0000403000103000000092111010001223959
:10050000000705840320000112011001000000080B
:10051000EDFE071301000102000105010906A1011A
:10052000050719E029E715002501950875018102E5
:1005300005081901290595057501910295017503B5
:1005400091010507190029F71500250195F8750196
:100550008102C005010980A101850216810026B72C
:10056000001A81002AB700751095018100C0050CA2
:100570000901A1018503160100269C021A01002A27
:100580009C02751095018100C005010902A10109B5
:1005900001A1000509190129051500250195057519
:1005A00001810295017503810105010930093115A9
:1005B00081257F95027508810609381581257F956B
:1005C0000175088106050C0A38021581257F950101
:1005D00075088106C0C005010906A101050719E0DB
:1005E00029E7150025019508750181029501750817
:1005F00081010508190129059505750191029501EB
:10060000750391010507190029FF150026FF0095C4
:100610000675088100C011241FBECFEFDAE0DEBFEF
:10062000CDBF04B603FE27C08091D6029091D702B9
:10063000A091D802B091D9028730904BA740B04B1F
:10064000D1F41092D6021092D7021092D8021092D2
:10065000D90214BE84B7877F84BF0FB6F894A895DB
:1006600080916000886180936000109260000FBEEE
:10067000E0E0FFE3099511E0A0E0B1E0E4E5F8E493
:1006800002C005900D92AC3DB107D9F722E0ACED68
:10069000B1E001C01D92A63DB207E1F70E94581DCE
:1006A0000C9428240C9400001092B9008AE08093E6
:1006B000B800089594EA9093BC009091BC0097FF15
:1006C000FCCF9091B900987F983021F0903111F0D3
:1006D00081E008958093BB0084E88093BC00809102
:1006E000BC0087FFFCCF8091B900887F883111F072
:1006F000803471F780E0089584E98093BC00809194
:10070000BC0084FDFCCF08958093BB0084E88093F7
:10071000BC008091BC0087FFFCCF9091B900987F0E
:1007200081E0983209F480E0089584E88093BC0069
:100730008091BC0087FFFCCF8091BB00089580B3FF
:100740008C7080BB81B3836F81BB08958091010160
:10075000811115C080E40E945A0380930101811128
:100760000CC082E10E94840380930101811105C0C5
:100770008FEF0E948403809301010E947C0384B167
:10078000807F84B985B1807F85B98AB1837F8AB93A
:100790008BB1837F8BB93E98469808950C940405DD
:1007A0000E942109809301010E94A6030E949F03D9
:1007B000EBEEF1E0ADEDB1E011921D9281E0E93F89
:1007C000F807D1F70C940B090E94210980930101CD
:1007D0000E94A6030E949F03EBEEF1E0ADEDB1E0B5
:1007E00011921D9281E0E93FF807D1F708956F92C9
:1007F0007F929F92AF92BF92CF92DF92EF92FF9241
:100800001F93CF93DF9380910101882379F080912A
:10081000DC018F5F8093DC01811108C00E942109F7
:1008200080930101811102C00E94B3088DEDE82E72
:1008300081E0F82E3701C0E0D0E0CC24C394D12C65
:10084000AA24A39425E0922E1C2FC73000F5809196
:10085000010181113CC080E40E945A038093010190
:10086000811112C082E10E948403809301018111F1
:100870000BC0C6010C2E01C0880F0A94EAF78095C0
:100880000E948403809301010E947C0320C0CA302F
:10089000A1F028F4C83059F0C93061F005C0CC305F
:1008A00089F070F0CD3089F0209A289810C0219AF4
:1008B00029980DC0229A2A980AC0239A2B9807C01B
:1008C000529A01C0539A5B9802C03E9A469880EAB9
:1008D0008A95F1F7173018F580910101811144C014
:1008E00080E40E945A0380930101882311F0B12C07
:1008F00012C083E10E948403809301018111F7CF2C
:1009000081E40E945A03809301018111F0CF0E947B
:100910009503B82EB0940E947C038B2D26C08FB116
:1009200081708A25799902C032E001C030E0832BC2
:100930007C9902C034E001C030E0832B7D9902C075
:1009400028E001C020E0822B7E9902C090E101C026
:1009500090E0892B9FB19095991F9927991F9295A7
:10096000990F907E892B01C080E0D3019C9198174C
:1009700019F08C93909200010E94A6032196BFEF7C
:100980006B1A7B0ACE30D10509F05ECF8091000151
:100990008823A9F0815080930001882329F0E5E0A5
:1009A000EA95F1F700000BC0EBEEF1E0D7018D9175
:1009B0007D018193BBEEEB16B1E0FB06B9F70E9417
:1009C0003B0681E0DF91CF911F91FF90EF90DF9088
:1009D000CF90BF90AF909F907F906F900895E82F39
:1009E000F0E0E551FE4F808108950895611108C03F
:1009F000FC018281882321F08AE491E00E941006A4
:100A000080E090E008950895609167027091680217
:100A10008091690290916A020E94B71556985E987B
:100A200025982D9826982E9827982F98813019F080
:100A3000823021F00895259A2D9A0895269A2E9AAB
:100A4000089581E0089581E008950C9423050E94A3
:100A50001D0F2FEF84E39CE0215080409040E1F790
:100A600000C000000C9411170F931F93CF93DF93D6
:100A70008C01FC01C081D181CE010E944214BE01D3
:100A80000E94D407EC01B8010E942505882309F4CF
:100A9000C1C0B801CE010E946408882309F4BAC01D
:100AA000B801CE010E94DE09882309F4B3C0C53124
:100AB000F0E7DF0708F07CC0C23080E7D80708F411
:100AC00052C0F8018281882309F459C00E9421167E
:100AD000811102C00E9407160E94341690E0909384
:100AE000C8028093C702FE01E350F047E231F105EE
:100AF00030F4EA5AFF4F8091C7020C94D8238091BA
:100B0000C702816027C0826025C0846023C08061E5
:100B100021C080621FC080641DC080681BC08460CB
:100B2000886018C08E7F16C08D7F14C08B7F12C066
:100B30008F7E10C08F7D0EC08F7B0CC08F770AC058
:100B40008B7F877F07C087FB222720F991E09227C0
:100B500090FB87F98093C7028091C7020E943816E4
:100B60000E941D0F57C0C115E0E7DE0779F0C130C4
:100B7000D047A1F081E08093F9018093FA01C80188
:100B8000DF91CF911F910F910C942105F801828183
:100B9000882309F43FC00E9427053CC0F8018281E8
:100BA0008823C1F18091940281608093940232C0C5
:100BB000CC3380E7D807A1F4F8018281882321F0A3
:100BC0001092F90182E016C08091F901811106C0EE
:100BD00086E20E94740B86E20E94470C82E018C0F5
:100BE000CD33D04739F6F8018281882331F0109255
:100BF000FA0180E20E94960C0DC08091FA018111E9
:100C000006C087E20E94740B87E20E94470C80E2D4
:100C10000E949D0C80E0DF91CF911F910F9108956C
:100C20000F931F93CF938C01F80124912223F9F0A5
:100C300030E0F901E959FC4FC491F901E951FC4F49
:100C40002491222359F081EE0E94740B8C2F0E9474
:100C5000740B8C2F0E94470C81EE04C08C2F0E94D5
:100C6000740B8C2F0E94470C0F5F1F4FDDCFCF916D
:100C70001F910F9108950C94CE0308950C943D0696
:100C80000C943E0624E5829FC0011124FC0146E03D
:100C9000749FE00DF11D1124E60FF11DEE0FFF1FF3
:100CA000E159FE4F859194910E94E707811520E458
:100CB0009207B0F5811540E3940708F0E6C0803E46
:100CC0009105D8F4803C910508F06CC0883A9105F4
:100CD00078F4853A910508F06BC08130910509F4EC
:100CE00061C108F418C18430910508F05BC113C1DB
:100CF0008D3B910508F467C00EC18F3F910509F047
:100D000048F4803F910508F0B5C0883E910508F48D
:100D100049C101C1811520E2920708F0ADC00895D4
:100D2000811543E5940790F4811522E5920708F0B8
:100D3000D1C0811541E5940708F0C7C0811520E5B1
:100D4000920708F0A5C09F70906A0895811545E547
:100D50009407D8F4811524E5920708F0D1C09C01CE
:100D600023703327E1E0F0E002C0EE0FFF1F2A9569
:100D7000E2F7282F2695269540E2249F9001112422
:100D8000CF01822B932B9A680895811546E594072D
:100D900008F4BBC09C0130562115304108F0BBC09F
:100DA0009F70B7C0FC01EE0FFF1FE551F0406AC015
:100DB000853A910509F4B2C0863A910509F0B1C0AF
:100DC00082E890E40895883A910509F4ADC0893A23
:100DD000910509F4ACC08A3A910509F4ABC08B3A8D
:100DE000910509F4AAC08C3A910509F4A9C08B3B7E
:100DF000910509F4A8C08C3B910509F4A7C08D3A70
:100E0000910509F4A6C0803B910509F4A5C08E3A6E
:100E1000910509F4A4C08F3A910509F4A3C0813B60
:100E2000910509F4A2C0823B910509F4A1C0833B5E
:100E3000910509F4A0C0843B910509F49FC0853B4E
:100E4000910509F49EC0863B910509F49DC0873B3E
:100E5000910509F49CC0883B910509F49BC0893B2E
:100E6000910509F49AC08A3B910509F499C080E084
:100E700094E4089590650895FC01FF70EE0FFF1F44
:100E8000E559FE4F8591949108959927906C0895A6
:100E90009C0154E0369527955A95E1F7922F93706F
:100EA000482F437021E030E002C0220F331F4A95E3
:100EB000E2F73C68392B8F708695869540E2849FD7
:100EC000C0011124822B932B0895982F8827816FBE
:100ED000906A08959C0123703327E1E0F0E002C09E
:100EE000EE0FFF1F2A95E2F7282F2695269580E220
:100EF000289F90011124CF01822B932B9C68089589
:100F0000982F8827846F906A08958F719927982F5A
:100F100088279062089580E090E0089581E890E449
:100F2000089583E890E4089582EE94E4089589EEAC
:100F300094E408958AEE94E4089585EB94E408958A
:100F400086EB94E4089583EB94E4089584EB94E4B1
:100F5000089587EB94E408958CEC94E408958DEC67
:100F600094E4089583E895E408958AE895E4089563
:100F700082E995E4089584E995E4089581E296E490
:100F8000089583E296E4089584E296E4089585E264
:100F900096E4089586E296E4089587E296E408953B
:100FA0008AE296E40895089524E5829FC001112401
:100FB000FC0126E0729FE00DF11D1124E60FF11DEA
:100FC000EE0FFF1FE159FE4F8591949108958238ED
:100FD000910549F1B0F48133910509F459C048F401
:100FE0008932910509F44FC08A32910509F455C040
:100FF00008958533910509F441C08933910599F02D
:101000000895833E910531F138F4803E910591F0C9
:10101000823E9105A9F00895863E910501F1873E33
:10102000910539F108952091C70220FD3BC021FDB3
:1010300039C008958091C70280FF34C089E341C060
:101040008091C70282FF30C08091C70284FD2EC00C
:1010500083EE37C08091C70282FD26C0F5CF809114
:10106000C70283FF25C08091C70284FD1FC087EEA1
:1010700028C08091C70283FD1BC0F5CF8091C702B5
:1010800085FD18C019C08091C70285FD15C012C02A
:101090008091C70286FD12C013C08091C70286FDF1
:1010A0000FC00CC080EE0DC082EE0BC080E009C006
:1010B00086EE07C089E205C085E303C08AE201C06D
:1010C00081E390E0089508950F931F93CF93FB0160
:1010D0002281211102C0C1E041C08C01C0910802EF
:1010E000C11125C085319047B1F70E94630881E0A6
:1010F000809308020E94B61690930702809306021E
:101100001092FB011092FD011092FC011092FF0160
:101110001092FE011092010210920002109203023E
:1011200010920202109205021092040217C08091E0
:101130000602909107020E94C216883C910558F65B
:101140009091FB01E92FF0E0EE0FFF1FE450FE4FFE
:10115000118300839F5F9093FB01C0E08C2FCF91A0
:101160001F910F91089556985E9825982D9826986E
:101170002E9827982F988FEF90E090938900809376
:10118000880090938B0080938A0090938D008093C9
:101190008C00259A2D9A2FEF80E792E02150804015
:1011A0009040E1F700C00000269A2E9A2FEF80E7CA
:1011B00092E0215080409040E1F700C00000279A63
:1011C0002F9A2FEF80E792E0215080409040E1F786
:1011D00000C0000025982D982FEF80E792E0215065
:1011E00080409040E1F700C0000026982E982FEF35
:1011F00080E792E0215080409040E1F700C000007D
:1012000027982F9856985E9825982D9826982E986E
:1012100027982F98089589EA8093800089E0809329
:10122000810024982C983F988AB18F748AB96E985F
:10123000479A8BB1806B8BB9769A0E94B3080C9455
:10124000030580E2809301018091090281110EC0A3
:101250000E94540381E0809309022FEF83ED90E315
:10126000215080409040E1F700C0000080E40E94DF
:101270005A038093010181112EC00E948403809340
:101280000101811128C00E94840380930101811112
:1012900022C08FE30E9484038093010181111BC04F
:1012A0000E947C0380E40E945A0380930101811113
:1012B00012C08CE00E9484038093010181110BC055
:1012C0000E94840380930101811105C08FE30E9475
:1012D0008403809301010E947C03809101010895A1
:1012E000882339F090E08A3010F44D9608950697DF
:1012F000089587E290E0089580910A02813079F0A4
:1013000050F08230F1F482EE0E94740B87E50E9467
:10131000740B87E514C082EE0E94740B12C080EE3D
:101320000E94740B81EE0E94740B88E10E94740B82
:1013300088E10E94470C81EE0E94470C80EE0E94DB
:10134000470C8FE39CE90197F1F700C00000089576
:1013500080910A02813029F010F0823041F482EE4F
:1013600004C08CE20E94740B8CE20C94470C08952C
:10137000EF92FF921F93CF93DF937C01CCE0D0E0FC
:10138000C7010C2E02C0969587950A94E2F7182F94
:101390001F70812F0E9470090E94740B812F0E9480
:1013A00070090E94470C2497CC3F8FEFD80741F774
:1013B000DF91CF911F91FF90EF900895CF93DF932E
:1013C000813020E8920768F0FB012281222349F056
:1013D000EC010E947C09CE019F770E94B8090E940F
:1013E000A80981E0DF91CF91089590931002809336
:1013F0000F020895E0910F02F0911002309721F052
:101400000190F081E02D099480E00895E0910F02B1
:10141000F0911002309721F00280F381E02D0994C1
:101420000895E0910F02F0911002309721F00480AE
:10143000F581E02D0994089520910D0230910E025E
:101440002817390771F090930E0280930D02E091F6
:101450000F02F0911002309721F00680F781E02D05
:101460000994089520910B0230910C022817390736
:1014700071F090930C0280930B02E0910F02F091B7
:101480001002309721F00084F185E02D0994089531
:1014900008950C94480A0E94AD160E94D0030C9443
:1014A0003317BF92CF92DF92EF92FF920F931F9369
:1014B000CF93DF93CDB7DEB72A970FB6F894DEBF90
:1014C0000FBECDBF0E94F70382E1C82E82E0D82E66
:1014D00000E010E0B02E802F0E94EF04E82EF6010D
:1014E00021916F01F82EF226B1F40F5F1F4F0E30DD
:1014F000110581F78FEF89838A831B820E94B616BC
:101500008160782F9D838C8349815A816B818D8185
:101510000E94310B3DC08091940281FD0E94F50430
:1015200080E090E02F2D30E0482FB901082E02C056
:10153000759567950A94E2F760FF25C08E83BF8298
:1015400081E090E06C0102C0CC0CDD1C4A95E2F712
:101550002E2D30E02C213D21232B09F480E08887BB
:101560000E94B6168160782F9A8789874E815F81A5
:1015700068858A850E94310BF801EE5EFD4F8081FF
:101580008C25808305C001968630910569F6ADCF24
:101590000E94C6180E94FA09909111028917A9F0B9
:1015A0000E94FA09809311022A960FB6F894DEBFC2
:1015B0000FBECDBFDF91CF911F910F91FF90EF90A4
:1015C000DF90CF90BF900C9440062A960FB6F89407
:1015D000DEBF0FBECDBFDF91CF911F910F91FF9066
:1015E000EF90DF90CF90BF900895DC0111962C9181
:1015F00011978C91682F70E041E050E001C0440FDA
:101600008A95EAF712968C91129730E0882329F098
:1016100080912E028823E9F006C0F901E05EFD4FBB
:1016200090819423B1F086E0829FF001839FF00DBA
:101630001124E60FF71FEE0FFF1FEB5EFE4F8081B8
:1016400091818D939C93F901E05EFD4F8081482B41
:1016500006C0F901E05EFD4F40958081482340833C
:101660000895CF93DF93CDB7DEB72B970FB6F894DD
:10167000DEBF0FBECDBF942F4F83252F58876987BC
:101680007A878B874A855B85452B31F02F3F31F474
:1016900081E09F3F19F403C081E001C080E080FD3C
:1016A00004C0CE0107960E94F50ADE01119686E07D
:1016B000FD0111928A95E9F785E0FE0137960190C8
:1016C0000D928A95E1F749815A816B817C818D81E8
:1016D0009E810E94DD112B960FB6F894DEBF0FBEDF
:1016E000CDBFDF91CF910895CF93882309F4CDC06A
:1016F000C82F823859F40E94FA0981FDC6C089E3D7
:101700000E94C1140E94881589E30CC0833879F4C3
:101710000E94FA0980FDB9C083E50E94C1140E94AD
:10172000881583E50E940015CF910C9488158438A4
:1017300059F40E94FA0982FDA8C087E40E94C114EE
:101740000E94881587E4EECF8CEF8C0F813A48F425
:101750008C2F0E94041B811198C08C2F0E94C114F1
:10176000E3CF80E28C0F883048F4C77081E001C07D
:10177000880FCA95EAF70E944115D6CF8BE58C0FEA
:10178000833078F4C53A29F0C63A31F083E890E026
:1017900005C081E890E002C082E890E0CF910C940F
:1017A0001C0A88E58C0F853108F06FC0C83A61F1DA
:1017B000C93A69F1CA3A71F1CB3A79F1CC3A81F17F
:1017C000CB3B89F1CC3B91F1CD3A99F1C03BA1F1F2
:1017D000CE3AA9F1CF3AB1F1C13BB9F1C23BC1F167
:1017E000C33BC9F1C43BD1F1C53BD9F1C63BE1F1E3
:1017F000C73BE9F1C83BF1F1C93BF9F1CA3B09F438
:101800003FC080E090E03EC082EE90E03BC089EEB9
:1018100090E038C08AEE90E035C085EB90E032C0B1
:1018200086EB90E02FC083EB90E02CC084EB90E03F
:1018300029C087EB90E026C08CEC90E023C08DECB3
:1018400090E020C083E891E01DC08AE891E01AC0D2
:1018500082E991E017C084E991E014C081E292E04E
:1018600011C083E292E00EC084E292E00BC085E2F8
:1018700092E008C086E292E005C087E292E002C0F2
:101880008AE292E0CF910C94320ACF910895882396
:1018900009F44BC0823859F40E94FA0981FF45C00F
:1018A00089E30E94C1140E94881589E30CC0833823
:1018B00071F40E94FA0980FF38C083E50E94C114C8
:1018C0000E94881583E50E9400150C9488158438C1
:1018D00059F40E94FA0982FF28C087E40E94C114CB
:1018E0000E94881587E4EFCF9CEF980F913A58F348
:1018F00090E2980F983050F4877091E001C0990FF2
:101900008A95EAF7892F0E944715DFCF9BE5980F4C
:10191000933020F480E090E00C941C0A885A8531C2
:1019200020F480E090E00C94320A0895882321F09E
:101930000E9441150C9488150895882321F00E9477
:1019400047150C94881508958F929F92AF92BF927D
:10195000DF92EF92FF920F931F93CF93DF937C015F
:10196000D62FC72FFC01058102950F70128111112E
:101970000E945E150E94BA14882379F0112369F041
:1019800080E28D0F883048F082E00E94A3140E940C
:10199000BA1491E0D82ED92601C0D12CEC2FE295B3
:1019A000EF708E2F90E0FC01E859FF4F0C94D82384
:1019B0008C2F807FCF70882311F0C295C07F1123B8
:1019C00099F0CC2309F47FC180E28D0F883010F0AC
:1019D000D11104C08C2F0E94411503C08C2F0E948E
:1019E00051150E9488156FC18D2F0E94470CCC2382
:1019F00009F4B7C180E28D0F883010F0D11104C016
:101A00008C2F0E94471503C08C2F0E9457150E94EF
:101A10008815A7C18C2F807FCF70803211F0C295BE
:101A2000C07FDD2319F0D13099F01EC0112341F0A1
:101A3000002399F08C2F013089F40E94711591C117
:101A4000002319F0013009F48CC10E94741513C0F1
:101A5000112339F0023008F084C18C2F0E94960CBB
:101A600080C101117EC107C0112319F00023A9F321
:101A70002AC101112EC18C2FE5C08C2F8695869529
:101A8000837019F0813061F06CC1112321F08D2F2A
:101A90009C2F937002C080E090E00E941C0A61C1FC
:101AA000112321F08D2F9C2F937002C080E090E0D5
:101AB0000E94320A56C18D2F112319F00E94CE17B1
:101AC00002C00E9436180E94BB184BC18C2F837035
:101AD00009F04CC0111145C12D2F22952695277074
:101AE000220F220F6D2F6F70862F90E0A0E0B0E0E4
:101AF0004C015D01022E04C0880C991CAA1CBB1C61
:101B00000A94D2F7D4FF12C08FE090E0A0E0B0E0DA
:101B100004C0880F991FAA1FBB1F2A95D2F7BC01CA
:101B2000CD01609570958095909503C060E070E060
:101B3000CB01C695C695C370C23051F080F46829B8
:101B400079298A299B29C13071F00E942F1309C17C
:101B5000682979298A299B290E944B1302C10E9476
:101B60002F13C501B4010E941313FBC0112319F0F8
:101B70008C2F817001C08695882309F4F2C02D2F27
:101B8000229526952770220F220F6D2F6F70862FBA
:101B900090E0A0E0B0E04C015D01022E04C0880C92
:101BA000991CAA1CBB1C0A94D2F7D4FF12C08FE068
:101BB00090E0A0E0B0E004C0880F991FAA1FBB1FEF
:101BC0002A95D2F7BC01CD016095709580959095CE
:101BD00003C060E070E0CB01C695C695C370C2300B
:101BE00051F080F4682979298A299B29C13071F044
:101BF0000E940914B6C0682979298A299B290E9464
:101C00002514AFC00E940914C501B4010E94ED1350
:101C1000A8C08D2F90E0FC01E05EF109E531F105EF
:101C200008F04DC0E858FF4F0C94D823DF708C2F7C
:101C30008F71112321F00E9486138D2F0FCF0E94E8
:101C4000A7138D2F0E949D0C8CC0112339F0011118
:101C500088C08C2F8F710E94CC1383C0023008F093
:101C600080C0F7CF112339F08C2F8F710E9486131B
:101C700078C01123C9F38C2F8F710E94A71371C0F4
:101C8000112329F08C2F8F710E9471136AC00E945A
:101C9000671367C0112349F0CF718C2F0E94861300
:101CA00063E08C2F0E949A145CC081E00E94A31410
:101CB000023008F456C082E00E94A31452C01123DF
:101CC00031F0002389F28D2F0E94740B4AC000234B
:101CD00091F28D2F0E94470C44C04C2F4F706D2FF6
:101CE000C7010E94F6040E948B123BC0D23F89F1CB
:101CF00028F4D03F49F0D13FE1F020C0D43FA1F01B
:101D000050F0D53F59F01AC0112329F190912E02BD
:101D100081E0892706C081E018271BC011111BC074
:101D200081E080932E0217C0111115C010922E026F
:101D300012C0002371F011110EC0E8CF002349F04A
:101D40008D2F112319F00E94740B05C00E94470CBF
:101D500002C010932E024C2F4F706D2FC7010E94AE
:101D6000D307DD20E1F00E94961480FD18C0F70132
:101D700012820E9490140E948613C7010E94DB0EFB
:101D80000E949014DF91CF911F910F91FF90EF90DF
:101D9000DF90BF90AF909F908F900C94A713DF912E
:101DA000CF911F910F91FF90EF90DF90BF90AF9078
:101DB0009F908F9008950F931F93CF93DF93EC0123
:101DC000988189812B813C81232B31F08F3F31F425
:101DD00081E09F3F19F403C081E001C080E080FDF5
:101DE00013C0CE010E943405882371F06881798187
:101DF0008A810E948C148C010E9441140E94081355
:101E0000B801CE010E94A40CDF91CF911F910F91D8
:101E100008950E945E150E946E150E9433150E945F
:101E200088150E946B190E94BB1880E090E00E9408
:101E30001C0A80E090E00C94320A0E944E150C942B
:101E4000090F0E948114E92FE295EF704E2F50E0A8
:101E5000FA013297EE30F105B0F4E357FF4F0C94DE
:101E6000D823803F91F018F4803E68F40EC0843F80
:101E700051F40BC0803E48F0813F29F406C093FB2B
:101E8000882780F9089580E0089581E00895CF9330
:101E9000DF9300D000D01F92CDB7DEB70F900F9028
:101EA0000F900F900F90DF91CF910895CF93DF9314
:101EB00000D000D000D0CDB7DEB726960FB6F8948C
:101EC000DEBF0FBECDBFDF91CF9108951F93CF939B
:101ED000DF93C0912F0216E080913002C81799F06D
:101EE000D0E01C9FF0011D9FF00D1124EF5CFD4F11
:101EF0004081518162817381848195810E94560F56
:101F00002196C770E9CFDF91CF911F91089540913D
:101F1000610250916202609163027091640280914B
:101F20006502909166020C94560FCF9380916602E1
:101F300082958F7009F05FC080916302882309F455
:101F40005AC080912F02B091300270916102A0912D
:101F50006202409164025091650291E07F3F09F076
:101F600090E0692FC6E08B1709F445C04115510573
:101F700021F0AF3F21F020E003C021E001C0262F77
:101F800090E020FD35C0C89FF001C99FF00D1124DD
:101F9000EF5CFD4F21812A132BC02081271328C01D
:101FA0002281211125C0238134812417350710F4A3
:101FB00021503109241B350B26393105C8F42091F5
:101FC00066022F7020612093660226E0289FF001B0
:101FD000299FF00D1124EA5CFD4F80818F70806194
:101FE000808381E692E00E94DB0ECF910C94660F15
:101FF00001968770B8CFCF910895AF92BF92CF92DC
:10200000DF92EF92FF920F931F93CF93DF93CDB7A1
:10201000DEB761970FB6F894DEBF0FBECDBF8C015F
:1020200085E0F801DE011D9601900D928A95E1F799
:10203000D8014C9111965C9111971296EC903091C9
:102040006102609162028091640290916502009742
:1020500031F06F3F31F421E03F3F19F403C021E03C
:1020600001C020E0B22FB170BB2E20FD64C1F80189
:10207000C380D480A0906302AA2009F4C3C0209139
:102080006602C816D90628F0D601A81BB90BCD01E7
:1020900004C0809590958C0D9D1DFF24F394863986
:1020A000910580F0F12C207F09F09CC07C2DD98A0D
:1020B000C88A6E2D89890E94470F81E692E00E94AE
:1020C000DB0EB4C0822F807F09F054C0561314C0B9
:1020D000431312C0FE2CE1100FC02F70206120931B
:1020E00066020E94870F81E692E00E94DB0E8091DB
:1020F0006602F80185834FC1CD2831F05F3F31F48E
:1021000081E04F3F19F403C081E001C080E080FD11
:1021100003C081E08E2502C080E090E0F82FF170CE
:10212000FF2E80FF1CC080912F022091300236E0EC
:10213000821709F40DC190E0389FF001399FF00D2E
:102140001124EF5CFD4F6181561306C06081461378
:1021500003C06281E61203C001968770E9CFFE2CAE
:10216000EE2009F418C180916602816080936602B6
:10217000F12C11C1561309C0431307C0E11005C06B
:1021800080916602F8018583B0C04D875E878D859A
:102190009E850E94210F882379F1EE2069F120911C
:1021A0006602822F82958F7090E0029774F0809182
:1021B00061029091620298878F831986DB86CA86B6
:1021C0002C87CE0107960E94DB0E86E0F801A1E67F
:1021D000B2E001900D928A95E1F70E94950F0E945E
:1021E000870F0DC0561761F14D875E878D859E85DF
:1021F0000E94210F811138C0C8010E94DB0EFF240C
:10220000F394C9C0C816D90608F446C0F601E81B05
:10221000F90BCF018639910508F443C0F12C7C2DD0
:10222000D98AC88A6E2D89890E94470FE1E6F2E0BB
:1022300086E0DF011D928A95E9F70E94870FABC007
:102240004313D2CFE110D0CF80916602F80185838D
:10225000C8010E94DB0E86E0E1E6F2E0DF011D929C
:102260008A95E9F7FA2C97C0EE2031F220916602A8
:10227000822F82958F7090E002970CF4A6CF809108
:102280006102909162029A8389831B82DD82CC82F3
:102290002E83CE01019697CF809590958C0D9D1D34
:1022A000B9CFFE2CEE2009F4A7CF561333C0431349
:1022B00031C02091660220FD24C0822F82958F704C
:1022C000482F50E041155105E1F0D80115962C93A7
:1022D00015974F30510549F08F5F982F9295907F59
:1022E000822F8F70892B15968C93C8010E94DB0E6C
:1022F00086E0F801A1E6B2E001900D928A95E1F73F
:102300009CCF86E0F801A1E6B2E001900D928A959B
:10231000E1F741C04D875E878D859E850E94210F24
:10232000811153CF80916602816080936602C8015B
:102330000E94DB0E30C0EE2009F45ECF4D875E8731
:102340008D859E850E94210F882309F455CF3DCFAE
:102350004D875E878D859E850E948114292F229549
:102360002F70223028F49F7039F0811105C00BC006
:10237000243028F49F7049F4805E883020F0C80132
:102380000E94DB0EBF2CFB2C06C0D80115969C9139
:10239000907F91F7F8CF8F2D61960FB6F894DEBF3E
:1023A0000FBECDBFDF91CF911F910F91FF90EF90A6
:1023B000DF90CF90BF90AF9008951F93CF93DF939E
:1023C000CDB7DEB72C970FB6F894DEBF0FBECDBFEA
:1023D0004F83588769877A878B879C87CE010796BA
:1023E0000E94FD0F8823D1F09F8188852A853B8537
:1023F000232B31F08F3F31F481E09F3F19F403C06C
:1024000081E001C080E080FD47C04F81588569852B
:102410007A858B859C850E94560F3EC086E0FE0122
:102420003796DE01119601900D928A95E1F7FF81B2
:10243000E8856A857B856115710531F0EF3F31F4E0
:1024400081E0FF3F19F403C081E001C080E080FD1E
:1024500023C02091300230E0C9010196877099278E
:1024600040912F0250E084179507F1F1F983EA8338
:102470007D836C8396E0929FD001939FB00D1124D1
:10248000AF5CBD4FFE01319601900D929A95E1F738
:10249000809330020E94660F16E080912F02909187
:1024A0003002891771F1189FC00111248F5C9D4F74
:1024B0000E94FD0F882329F1E0912F021E9FF00159
:1024C0001124EF5CFD4F40815181628173818481D1
:1024D00095810E94560F80912F0290E0019687709F
:1024E000992780932F02D9CF0E941D0F109230029E
:1024F00010922F02E1E6F2E086E0DF011D928A955C
:10250000E9F72C960FB6F894DEBF0FBECDBFDF9172
:10251000CF911F910895EF92FF920F931F93CF9346
:10252000DF938C01892B09F46CC0F12CEE24E39429
:10253000E8012196F8018491843740F4843008F052
:1025400051C0813081F0823019F15BC0853709F4C8
:1025500044C0A8F19CE7980F903708F052C08F77DD
:102560000E94470C41C00E5F1F4FFE01849190E214
:10257000980F983050F48770FE2D01C0FF0F8A9598
:10258000EAF78F2F0E94611514C00E94740B2DC0B2
:102590000E5F1F4FFE01849190E2980F983060F417
:1025A0008770FE2D01C0FF0F8A95EAF78F2F0E94DA
:1025B00067150E94881519C00E94470C16C00E5F4F
:1025C0001F4FFE01C491CC2381F08FE99FE001975A
:1025D000F1F700C00000C150F6CF0E5F1F4FFE01A3
:1025E000F49003C00E94740B8E018F2D882309F490
:1025F0009FCFEFE9FFE03197F1F700C00000815075
:10260000F5CFDF91CF911F910F91FF90EF9008953B
:10261000089560936B0270936C0280936D029093A7
:102620006E020C94090F0F931F9300916B0210918F
:102630006C0220916D0230916E02DC01CB01802B87
:10264000912BA22BB32B80936B0290936C02A093DF
:102650006D02B0936E021F910F910C94090F0F93AE
:102660001F9300916B0210916C0220916D023091CA
:102670006E02DC01CB0180239123A223B32380933C
:102680006B0290936C02A0936D02B0936E021F9147
:102690000F910C94090F0F931F9300916B021091EF
:1026A0006C0220916D0230916E02DC01CB0180271B
:1026B0009127A227B32780936B0290936C02A0937B
:1026C0006D02B0936E021F910F910C94090F10923E
:1026D0006702109268021092690210926A020C94CA
:1026E000090F41E050E060E070E004C0440F551F66
:1026F000661F771F8A95D2F740936702509368024E
:102700006093690270936A020C94090F41E050E0F3
:1027100060E070E004C0440F551F661F771F8A9564
:10272000D2F78091670290916802A0916902B091FE
:102730006A02482B592B6A2B7B2B409367025093DC
:1027400068026093690270936A020C94090F41E079
:1027500050E060E070E004C0440F551F661F771F13
:102760008A95D2F740955095609570958091670253
:1027700090916802A0916902B0916A02482359239E
:102780006A237B2340936702509368026093690237
:1027900070936A020C94090F41E050E060E070E031
:1027A00004C0440F551F661F771F8A95D2F780918A
:1027B000670290916802A0916902B0916A0248276D
:1027C00059276A277B2740936702509368026093DA
:1027D000690270936A020C94090F0F931F93009182
:1027E0006702109168022091690230916A02DC014F
:1027F000CB01802B912BA22BB32B8093670290935C
:102800006802A0936902B0936A021F910F910C9421
:10281000090F0F931F930091670210916802209196
:10282000690230916A02DC01CB0180239123A2234B
:10283000B3238093670290936802A0936902B093D8
:102840006A021F910F910C94090F0F931F9300912F
:102850006702109168022091690230916A02DC01DE
:10286000CB0180279127A227B327809367029093FB
:102870006802A0936902B0936A021F910F910C94B1
:10288000090F0895CF92DF92EF92FF920F931F935B
:10289000CF93DF938C01C0906702D0906802E090E4
:1028A0006902F0906A0280916B0290916C02A09193
:1028B0006D02B0916E02C82AD92AEA2AFB2ACFE11A
:1028C000D0E0D701C6010C2E04C0B695A795979508
:1028D00087950A94D2F780FD04C0219790F780E095
:1028E00007C0B8018C2F0E9442060197B1F38C2FCC
:1028F000DF91CF911F910F91FF90EF90DF90CF90DC
:102900000895CF93DF93EC010E944214BE010E9410
:102910004206DF91CF910895CB010E948114089562
:1029200080916F02859585958595089580916F02B8
:102930008770089598E0899F90011124262B209399
:102940006F020C94861320916F02809582238093EE
:102950006F02982F977069F430E0482F082E000C12
:10296000550B2417350729F08595859585950C9489
:10297000A713089590916F02977081E009F480E0A9
:102980000895909114019923F1F09091C70297FF57
:102990001AC0982F9695969596959F3181F1E09162
:1029A0000201F0910301E90FF11D877021E030E091
:1029B000A90102C0440F551F8A95E2F7CA0191810F
:1029C000892B818308952091020130910301F9013F
:1029D00032969FEF40E05191851789F09F3F19F49F
:1029E000511101C0942F4F5F4E31A9F79F3F39F02D
:1029F000F901E90FF11D97FDFA9582830895089575
:102A0000909114019923F9F09091C70297FF1BC090
:102A1000982F9695969596959F3121F1E091020118
:102A2000F0910301E90FF11D877021E030E0A90169
:102A300002C0440F551F8A95E2F7CA018095918123
:102A4000892381830895E0910201F09103019F01A0
:102A5000225E3F4F9281891301C012823196E217A4
:102A6000F307C1F7089581E090E0E0910201F09151
:102A70000301E80FF91F1082019680329105A9F732
:102A8000089590919302892B8093930208958095E5
:102A90009091930289238093930208951092930258
:102AA000089590919202892B8093920208958095C7
:102AB000909192028923809392020895109292023B
:102AC000089590919102892B8093910208958095A9
:102AD000909191028923809391020895109291021E
:102AE0000895809370020895109270020895809165
:102AF000020190910301FC0131969C01205E3F4F41
:102B000080E0919191118F5FE217F307D1F708955B
:102B1000E0910201F0910301809193028083E091A2
:102B20000201F0910301908180919202892B8083B0
:102B3000E0910201F0910301908180919102892B33
:102B4000808380917002882361F0E0910201F0910E
:102B500003019081892B80830E9477158111109247
:102B6000700280910201909103010C94060ACF92A9
:102B7000DF92EF92FF926C01EE24FF24C114D10486
:102B8000E104F10421F0C701B60120E101C020E019
:102B9000C72ED82EE92EFF24C114D104E104F1047C
:102BA00019F0285FC701B6016B017C0154E0F6946F
:102BB000E794D794C7945A95D1F7C114D104E1048E
:102BC000F10419F02C5FC701B6016B017C0142E0F2
:102BD000F694E794D794C7944A95D1F7C114D104D9
:102BE000E104F10419F02E5FC701B601DC01CB014D
:102BF000B695A79597958795892B8A2B8B2B09F0EE
:102C00002F5F822FFF90EF90DF90CF9008956DEEB1
:102C10007EEF80E090E00E94122460E082E090E08D
:102C20000E94002460E083E090E00E94002460E0C5
:102C300084E090E00E94002460E085E090E00C9445
:102C4000002480E090E00E94FA2321E08D3E9E4F18
:102C500009F020E0822F089582E090E00C94F223A6
:102C600083E090E00C94F22384E090E00C94F22353
:102C7000682F84E090E00C9400248091CD02843091
:102C800039F11092950220E488E190E00FB6F894B3
:102C9000A895809360000FBE2093600080E00E94A2
:102CA000400683B7817F846083BF83B7816083BF21
:102CB0007894889583B78E7F83BF0FB6F894A895D4
:102CC00080916000886180936000109260000FBE68
:102CD00008950895CF930E94E4030E94F7030E9491
:102CE0006916C0E08C2F0E94EF04811104C0CF5FF1
:102CF000CE30C1F701C081E0CF9108950E941D0F31
:102D00000E94FA090C9440061F920F920FB60F9280
:102D100011248F939F93AF93BF938091950281115C
:102D200013C08091960290919702A0919802B09161
:102D300099024196A11DB11D80939602909397022E
:102D4000A0939802B0939902BF91AF919F918F91F8
:102D50000F900FBE0F901F90189582E084BD93E0F6
:102D600095BD9AEF97BD80936E0008952FB7F894A4
:102D70008091960290919702A0919802B091990249
:102D80002FBF0895CF92DF92EF92FF920F931F9380
:102D90002FB7F89440919602509197026091980253
:102DA000709199022FBF6A017B01EE24FF248C01F0
:102DB00020E030E0C016D106E206F30610F44150E0
:102DC00051099A01281B390BC9011F910F91FF90DE
:102DD000EF90DF90CF9008951F920F920FB60F9251
:102DE00011248F939F93AF93BF93809196029091FC
:102DF0009702A0919802B09199020196A11DB11D70
:102E00008093960290939702A0939802B0939902B0
:102E1000BF91AF919F918F910F900FBE0F901F9018
:102E200018950E94901FF8942FEF87EA91E62150A1
:102E300080409040E1F700C0000087E090EBDC01AB
:102E40008093D6029093D702A093D802B093D90270
:102E50009CE088E10FB6F894A895809360000FBEBF
:102E600090936000FFCF0E942116811102C00E9442
:102E700007160E942C16809394020E94341690E04C
:102E80009093C8028093C7020E943016682F70E0AA
:102E900080E090E00C94091380919C0280FF0BC0AD
:102EA0006091070185E0689FB001112475956795D1
:102EB000759567952BC081FF09C06091070185E07A
:102EC000689FB00111247595679520C082FF07C0E7
:102ED0006091070185E0689FB001112417C09091AF
:102EE0009D029923D1F060910601961788F72091F1
:102EF000070185E0289F90011124929FA001939FD4
:102F0000500D112470E0CA010E94C423603871057D
:102F100040F46115710519F406C065E070E0862F74
:102F200008958FE7089581E0089580919C0280FFC5
:102F300008C06091050170E0759567957595679576
:102F400021C081FF06C06091050170E0759567950D
:102F500019C082FF04C06091050170E010C090911B
:102F60009D02992399F0609104019617A0F7809132
:102F70000501899FC001112470E00E94C4236038BC
:102F8000710540F46115710519F406C061E070E047
:102F9000862F08958FE7089581E00895803F21F4FA
:102FA0000E944C17819504C0813F29F40E944C1760
:102FB0008093A0020895823F21F40E944C178195CE
:102FC00004C0833F29F40E944C1780939F02089508
:102FD000893F19F40E94951705C08A3F31F40E9479
:102FE000951781958093A10208958B3F21F40E944B
:102FF0009517819504C08C3F29F40E949517809302
:10300000A2020895843F21F480919E02816017C03E
:10301000853F21F480919E02826011C0863F21F499
:1030200080919E0284600BC0873F21F480919E02B4
:10303000886005C0883F31F480919E028061809352
:103040009E0208958D3F21F480919C0281600BC007
:103050008E3F21F480919C02826005C08F3F29F44D
:1030600080919C02846080939C020895803F39F493
:103070008091A00287FF6CC01092A00269C0813FBE
:1030800029F48091A0021816BCF362C090919F02AF
:10309000823F29F497FF5CC010929F0259C0833F82
:1030A00019F41916CCF354C0893F41F48091A10260
:1030B00018160CF04DC01092A1024AC08A3F29F4A4
:1030C0008091A10287FF44C0F6CF8B3F39F48091F5
:1030D000A20287FF3DC01092A2023AC08C3F29F4A1
:1030E0008091A2021816BCF333C0843F21F4809172
:1030F0009E028E7F17C0853F21F480919E028D7FB6
:1031000011C0863F21F480919E028B7F0BC0873FC8
:1031100021F480919E02877F05C0883F31F4809121
:103120009E028F7E80939E0213C08D3F21F480917A
:103130009C028E7F0BC08E3F21F480919C028D7F7C
:1031400005C08F3F29F480919C028B7F80939C0265
:1031500080919F0281110EC08091A00281110AC04E
:103160008091A102811106C08091A202811102C04A
:1031700010929D0208958EE992E00E94110A0E9429
:10318000B61690939B0280939A0208951F93CF9353
:10319000DF9380919A0290919B020E94C216AC012B
:1031A00090919D02992321F02091080130E006C002
:1031B000209109018AE0289F9001112442175307AA
:1031C00008F485C080919F02C091A002D091A10215
:1031D0001091A202811107C0C11175C0D11173C035
:1031E000111171C074C09F3F19F09F5F90939D02B1
:1031F000181624F40E944C1780939F0280919F021E
:1032000087FF05C00E944C17819580939F021C1672
:1032100024F40E944C178093A0028091A00287FFA3
:1032200005C00E944C1781958093A00260919F0277
:10323000662331F1C091A002CC2311F1062E000CBF
:10324000770B880B990B0E94CB2223E333E343E3F4
:103250005FE30E942F230E94932260939F026C2FB2
:10326000CC0F770B880B990B0E94CB2223E333E31F
:1032700043E35FE30E942F230E9493226093A00206
:103280001D1624F40E9495178093A1028091A1023B
:1032900087FF05C00E94951781958093A1021116A2
:1032A00024F40E9495178093A2028091A20287FFC6
:1032B00005C00E94951781958093A202DF91CF915E
:1032C0001F910C94BB189F3F09F08FCFA0CFDF91C7
:1032D000CF911F910895EEE9F2E085E0DF011D92A4
:1032E0008A95E9F710929D0210929C02089583300E
:1032F00081F128F4813059F08230D1F00895853081
:1033000009F449C0B8F1863009F456C00895809197
:103310000901262F30E0280F311D2F3F310524F4FD
:10332000680F6093090108958FEF80930901089554
:1033300080910801262F30E0280F311D2F3F3105E5
:1033400024F4680F6093080108958FEF80930801BB
:10335000089580910701262F30E0280F311D2F3F5F
:10336000310524F4680F6093070108958FEF80936F
:103370000701089580910601262F30E0280F311DA6
:103380002F3F310524F4680F6093060108958FEFF5
:1033900080930601089580910501262F30E0280FC3
:1033A000311D2F3F310524F4680F60930501089506
:1033B0008FEF80930501089580910401262F30E05E
:1033C000280F311D2F3F310524F4680F609304014D
:1033D00008958FEF809304010895833011F128F44C
:1033E000813049F0823091F00895853081F120F1EB
:1033F0008630C1F1089580910901681720F4861B79
:10340000809309010895109209010895809108019F
:10341000681720F4861B8093080108951092080114
:10342000089580910701681720F4861B8093070197
:10343000089510920701089580910601681720F4FD
:10344000861B8093060108951092060108958091CD
:103450000501681720F4861B8093050108951092DA
:103460000501089580910401681720F4861B80935C
:10347000040108951092040108950F931F9341E0F1
:1034800050E060E070E08A019B0104C0000F111F52
:10349000221F331F8A95D2F7C901B8010E94091370
:1034A0001F910F910C941D0F873208F04DC08E3183
:1034B00008F092C0803109F47CC008F5873009F427
:1034C00068C068F4863009F08EC080919402817FD4
:1034D0008E7F8093940281E08093A40208958B30C4
:1034E00009F47DC08E3009F07EC08091940282FB89
:1034F000222720F991E0922790FB82F963C0863160
:1035000009F46DC088F4813109F06DC00E941D0F6F
:103510008091C70287FB222720F991E0922790FB38
:1035200087F98093C7025BC0893109F458C08B3199
:1035300009F059C08091940281FB222720F991E083
:10354000922790FB81F93EC0883309F448C050F4BB
:10355000893209F446C0853309F443C0873209F43F
:1035600040C041C08334E9F120F48A33E0F189534B
:1035700034C08834C1F50E941D0F2FEF83ED90E316
:10358000215080409040E1F700C000000E941117D8
:1035900026C090919402892F8095817080FB90F9CC
:1035A000909394028823D9F0966098609093940247
:1035B00008958091940283FB222720F991E09227BD
:1035C00090FB83F980939402992349F080919402AF
:1035D00081608093940203C08D510E943D1A81E066
:1035E000089580E0FACF80E0089580E008950C947B
:1035F000F51A8E518A3030F4E82FF0E0E354FE4F94
:103600008081089580E00895CF93C82F8091A4020F
:10361000813079F018F08230E9F186C0E091020142
:10362000F09103018081813169F0823209F07EC01E
:1036300009C0E0910201F09103018081813111F014
:10364000823261F48C2F0E94F71A811104C08C2FF2
:103650000E94541A1DC081E090E01AC08C2F0E9475
:10366000F51A811114C0C43179F048F4CB3079F0E7
:10367000C03109F05FC082E08093A40208C0C93263
:1036800019F0C83321F056C01092A40253C081E053
:10369000817052C0C93281F110F5C43169F1A8F4CA
:1036A000C73009F045C08AE08093090194E1909306
:1036B000080193E0909307018093060188E08093CE
:1036C000050188E28093040133C082EE8C0F8630BE
:1036D00078F58C2F0E94F91A8093A30229C0CE346A
:1036E000E9F020F4CB3421F56AE013C0C13579F05C
:1036F000C235F1F461E00DC08091A302882319F076
:103700001092A30215C081E08093A40215C061E06D
:1037100006C08091A3020E9477190AC06AE08091D6
:10372000A3020E94ED1904C01092A40280E004C01C
:1037300081E002C080E0ACCFCF9108958091C502B6
:103740000895CF93DF9300D01F92CDB7DEB79C01D1
:103750008091CD02843019F593E099833B832A83CD
:103760009093E9008FEF9091E800815095FD06C09D
:1037700095ED9A95F1F700008111F5CF8091E80061
:1037800085FF0DC040E050E063E070E0CE0101969F
:103790000E94FF1D8091E8008E778093E8000F90D3
:1037A0000F900F90DF91CF910895CF93DF9300D0CA
:1037B0001F92CDB7DEB72091CD02243021F522E053
:1037C00029839B838A8383E08093E9008FEF909124
:1037D000E800815095FD06C095ED9A95F1F700003F
:1037E0008111F5CF8091E80085FF0DC040E050E0E9
:1037F00063E070E0CE0101960E94FF1D8091E80019
:103800008E778093E8000F900F900F90DF91CF910B
:1038100008952091CD022430F1F422E02093E900B4
:103820002FEF3091E800215035FD06C035ED3A9577
:10383000F1F700002111F5CF2091E80025FF0BC022
:1038400040E050E065E070E00E94FF1D8091E800DC
:103850008E778093E8000895CF93DF93EC019091E9
:10386000CD02943009F046C0809114018823D9F02C
:103870008091C70287FF17C09093E9008FEF909166
:10388000E800815095FD06C095E19A95F1F700009A
:103890008111F5CF8091E80085FF2CC040E050E019
:1038A00060E270E017C081E08093E9008FEF9091B3
:1038B000E800815095FD06C095ED9A95F1F700005E
:1038C0008111F5CF8091E80085FF14C040E050E001
:1038D00068E070E0CE010E94FF1D8091E8008E77C5
:1038E0008093E80080E2FE01A5EAB2E001900D922B
:1038F0008A95E1F7DF91CF9108958091CC028111F3
:1039000009C00E94901F0E94ED1F8091E200846018
:103910008093E20008951092CC02089508950895CE
:103920000C947E1642E061EC81E00E94091F42E0A7
:1039300061EC82E00E94091F42E061EC83E00E949A
:10394000091F42E261EC84E00C94091F8091CF02D0
:10395000833009F455C030F4813071F0823009F4BD
:103960008EC008958A3009F47AC08B3009F460C0A3
:10397000893009F09CC020C08091CE02813A09F0C4
:1039800096C08091E800877F8093E8008091D20202
:103990009091D302892B21F460E285EA92E003C082
:1039A00060E080E090E070E00E944A1E8091E800B4
:1039B0008B778093E80008958091CE02813209F0E0
:1039C00076C08091D2029091D302009719F00397AC
:1039D00009F06DC08091E800877F8093E8008091B6
:1039E000E80082FD05C08091CD028111F8CF5FC053
:1039F0008091F1008093C5028091E8008B7753C0DD
:103A00008091CE02813A09F052C08091D202909109
:103A1000D302892B09F04BC08091E800877F809307
:103A2000E8008091E80080FFFCCF8091140136C04F
:103A30008091CE028132D9F58091D2029091D30249
:103A4000892BA9F58091E800877F8093E8000E9488
:103A50003E1F8091D002809314010C941D0F809121
:103A6000CE02813221F58091E800877F8093E800C3
:103A70000E943E1F8091D1028093C60208958091DA
:103A8000CE02813AA1F48091E800877F8093E8001C
:103A90008091E80080FFFCCF8091C6028093F10006
:103AA0008091E8008E778093E8000C943E1F089583
:103AB00084B7877F84BF0FB6F894A8958091600083
:103AC000886180936000109260000FBE80E8809350
:103AD0006100109261000E94490A0E94901F0E949A
:103AE000ED1F8091E20084608093E20078940E9450
:103AF00078220E944B0A8AE091E00E94F5098091A9
:103B0000CD02853069F40E943D168091CB02882356
:103B1000B1F30E946A16882391F30E94E91DEFCF4A
:103B20000E94510AECCF292F332723303105C9F0E9
:103B300060F42130310581F02230310509F041C0B7
:103B40008DE690E02BE934E040C021323105E1F010
:103B50002232310531F135C082E190E028E035E0D4
:103B600034C099278130910549F028F0029749F532
:103B7000E7E6F4E005C0E7E9F4E002C0EFE7F4E0CF
:103B8000849190E09F0121C06430D8F4E62FF0E0EA
:103B9000EE0FFF1FED52FE4F2081318189E090E052
:103BA00014C0643070F470E0FB01EE0FFF1FE553AA
:103BB000FE4F20813181FB01E953FE4F808190E06F
:103BC00004C080E090E020E030E0FA0131832083FF
:103BD000089580E189BD82E189BD09B400FEFDCF71
:103BE0008091D8008F7D8093D8008091E000826022
:103BF0008093E0008091E00081FDFCCF0895CF929A
:103C0000DF92EF92FF920F931F93CF93DF93EC011C
:103C10008B017A010E945D1F811133C0E114F10410
:103C200039F0F70180819181081B190BC80FD91F4A
:103C3000C12CD12C0115110519F18091E80085FDE9
:103C400016C08091E8008E778093E800E114F104BB
:103C500049F0F70180819181C80ED91ED182C082BE
:103C600085E00FC00E945D1F882321F30AC089915F
:103C70008093F10001501109FFEFCF1ADF0ADACF6C
:103C800080E0DF91CF911F910F91FF90EF90DF9037
:103C9000CF9008952091D4023091D502261737078E
:103CA00048F06115710539F42091E8002E772093D2
:103CB000E80001C0B901FC0120E06115710579F14E
:103CC0008091CD028823F1F18530F1F18091E800F7
:103CD00083FD3CC08091E80082FD2EC08091E80009
:103CE00080FFEBCF2091F3008091F20090E0922BC7
:103CF0006115710551F08830910538F421912093B8
:103D0000F100615071090196F3CF21E0089709F0A5
:103D100020E08091E8008E778093E800CECF2111DB
:103D2000CFCF0AC08091CD02882361F0853061F049
:103D30008091E80083FD0AC08091E80082FFF2CF05
:103D400080E0089582E0089583E0089581E0089579
:103D50002091D4023091D5022617370748F061151B
:103D6000710539F42091E8002E772093E80001C016
:103D7000B901FC0120E06115710591F18091CD023E
:103D8000882309F440C0853009F43FC08091E800E1
:103D900083FD3DC08091E80082FD2FC08091E80046
:103DA00080FFE9CF2091F3008091F20090E0922B08
:103DB0006115710559F08830910540F424912093E4
:103DC000F1003196615071090196F2CF21E0089718
:103DD00009F020E08091E8008E778093E800CBCF57
:103DE0002111CCCF0AC08091CD02882361F08530AB
:103DF00061F08091E80083FD0AC08091E80082FFB5
:103E0000F2CF80E0089582E0089583E0089581E094
:103E10000895982F973068F59093E900981739F036
:103E20007091EC002091ED005091F00003C0242F20
:103E3000762F50E021FD02C09F5FECCF3091EB0068
:103E40003E7F3093EB003091ED003D7F3093ED00ED
:103E50003091EB0031603093EB007093EC002093D5
:103E6000ED005093F0002091EE0027FDE5CF80E0BB
:103E700008958F708093E90081E008958091CE02CB
:103E800087FF11C08091E80082FD05C08091CD02BE
:103E90008111F8CF11C08091E8008B770BC0809121
:103EA000CD02882349F08091E80080FFF8CF80910F
:103EB000E8008E778093E80008952091E400309127
:103EC000E50095E64091EC00842F817040FF23C00F
:103ED0008091E80080FD1DC08091CD02882399F07B
:103EE000853099F08091EB0085FD11C04091E40090
:103EF0005091E5002417350729F3915011F09A01EC
:103F0000E1CF84E0089582E0089583E0089581E0A0
:103F1000089580E008954091E80042FFDDCF0895C4
:103F20000E94FE1F0E940620E0EEF0E0808181608A
:103F30008083E8EDF0E080818F77808319BCA7ED66
:103F4000B0E08C918E7F8C9380818F7E80831092E5
:103F5000CC0208950F931F93CF93DF930E94FE1F0F
:103F60000E940620C8EDD0E088818F778883888101
:103F70008068888388818F7D888319BC1092CD02E8
:103F80001092C9021092CB021092CA0200EE10E009
:103F9000F80180818B7F808388818160888342E003
:103FA00060E080E00E94091FE1EEF0E080818E7FFA
:103FB0008083E2EEF0E08081816080838081886090
:103FC0008083F80180818E7F8083888180618883EF
:103FD000DF91CF911F910F910895E8EDF0E080817E
:103FE0008F7E8083E7EDF0E080818160808384E0D4
:103FF00082BF81E08093CC020C94AA1FE8EDF0E030
:1040000080818E7F80831092E20008951092DA0002
:104010001092E10008951F920F920FB60F92112493
:104020002F933F934F935F936F937F938F939F93C0
:10403000AF93BF93EF93FF938091E10082FF0BC09A
:104040008091E20082FF07C08091E1008B7F809326
:10405000E1000E9477228091DA0080FF1FC08091EA
:10406000D80080FF1BC08091DA008E7F8093DA0039
:104070008091D90080FF0DC080E189BD82E189BDBA
:1040800009B400FEFDCF81E08093CD020E947D1C2B
:1040900005C019BC1092CD020E948B1C8091E100DA
:1040A00080FF19C08091E20080FF15C08091E2007E
:1040B0008E7F8093E2008091E20080618093E20035
:1040C0008091D80080628093D80019BC85E08093ED
:1040D000CD020E948F1C8091E10084FF30C080914E
:1040E000E20084FF2CC080E189BD82E189BD09B472
:1040F00000FEFDCF8091D8008F7D8093D800809105
:10410000E1008F7E8093E1008091E2008F7E8093BA
:10411000E2008091E20081608093E2008091C90218
:10412000882311F084E007C08091E30087FD02C07E
:1041300081E001C083E08093CD020E94901C8091B9
:10414000E10083FF29C08091E20083FF25C08091B8
:10415000E100877F8093E10082E08093CD0210929E
:10416000C9028091E1008E7F8093E1008091E2009E
:104170008E7F8093E2008091E20080618093E20074
:1041800042E060E080E00E94091F8091F0008860BA
:104190008093F0000E948E1CFF91EF91BF91AF9130
:1041A0009F918F917F916F915F914F913F912F914F
:1041B0000F900FBE0F901F9018951F920F920FB681
:1041C0000F9211242F933F934F935F936F937F939D
:1041D0008F939F93AF93BF93CF93DF93EF93FF930F
:1041E000C091E900CF708091EC00D82FD17080FD94
:1041F000D0E81092E9008091F000877F8093F00072
:1042000078940E9421211092E9008091F00088604A
:104210008093F000CD2BCF70C093E900FF91EF9118
:10422000DF91CF91BF91AF919F918F917F916F91CE
:104230005F914F913F912F910F900FBE0F901F9064
:1042400018951F93CF93DF93CDB7DEB7AA970FB61C
:10425000F894DEBF0FBECDBFEEECF2E08091F1002E
:10426000819322E0E63DF207C9F70E94A61C8091E7
:10427000E80083FF24C18091CE029091CF02492FA4
:1042800050E04A30510508F01AC1FA01E556FF4FD7
:104290000C94D823803881F0823809F010C18091C5
:1042A000D2028F708093E9008091EB0085FB882714
:1042B00080F91092E90006C08091CA029091CB0269
:1042C000911182609091E800977F9093E80080932D
:1042D000F1001092F100C8C0282F2D7F09F0EFC027
:1042E000882319F0823061F0EAC08091D0028130D9
:1042F00009F0E5C0933009F080E08093CB022BC039
:104300008091D002811127C08091D2028F7009F470
:10431000D6C08093E9002091EB0020FF1CC09330B1
:1043200021F48091EB00806214C09091EB009061C9
:104330009093EB0021E030E0A90102C0440F551F2B
:104340008A95E2F74093EA001092EA008091EB0030
:1043500088608093EB001092E9008091E800877FED
:1043600086C08111ACC01091D0021F778091E3000C
:104370008078812B8093E3008091E800877F809391
:10438000E8000E943E1F8091E80080FFFCCF8091F2
:10439000E30080688093E300111102C082E001C055
:1043A00083E08093CD028BC08058823008F087C0B4
:1043B0008091D0029091D1028C3D53E0950779F520
:1043C00083E08A838AE289834FB7F894DE011396EB
:1043D00020E03EE051E2E32FF0E050935700E491FB
:1043E00020FF03C0E295EF703F5FEF708E2F90E0EB
:1043F000EA3010F0C79601C0C0968D939D932F5F51
:10440000243149F74FBF8091E800877F8093E8000F
:104410006AE270E0CE0101960E944A1E14C0AE010D
:104420004F5F5F4F6091D2020E94931DBC01892BA8
:1044300009F445C09091E800977F9093E800898146
:104440009A810E94A81E8091E8008B778093E800F3
:1044500036C08038A1F58091E800877F8093E8001E
:104460008091C9028093F1008091E8008E7780935B
:10447000E8000E943E1F23C0811121C08091D0021C
:104480009091D10299270297D4F48091E800877F18
:104490008093E8008091D0028093C9020E943E1F61
:1044A0008091C902811106C08091E30087FD02C09E
:1044B00081E001C084E08093CD020E94921C809133
:1044C000E80083FF0AC08091E800877F8093E800BE
:1044D0008091EB0080628093EB00AA960FB6F8946F
:1044E000DEBF0FBECDBFDF91CF911F91089508951C
:1044F000CF938091CD028823A1F0C091E900CF70C5
:104500009091EC00892F817090FD80E8C82B10926B
:10451000E9008091E80083FD0E942121CF70C093C3
:10452000E900CF9108950E949A226894B1110C94E9
:10453000292308950E940E2388F09F5798F0B92FE1
:104540009927B751B0F0E1F0660F771F881F991FC8
:104550001AF0BA95C9F714C0B13091F00E9428231F
:10456000B1E008950C942823672F782F8827B85F2F
:1045700039F0B93FCCF3869577956795B395D9F720
:104580003EF490958095709561957F4F8F4F9F4F2A
:104590000895E89409C097FB3EF490958095709536
:1045A00061957F4F8F4F9F4F9923A9F0F92F96E97F
:1045B000BB279395F695879577956795B795F111F4
:1045C000F8CFFAF4BB0F11F460FF1BC06F5F7F4F91
:1045D0008F4F9F4F16C0882311F096E911C07723A3
:1045E00021F09EE8872F762F05C0662371F096E8AC
:1045F000862F70E060E02AF09A95660F771F881F7B
:10460000DAF7880F9695879597F9089557FD905892
:10461000440F551F59F05F3F71F04795880F97FB86
:10462000991F61F09F3F79F0879508951216130640
:104630001406551FF2CF4695F1DF08C0161617066F
:104640001806991FF1CF86957105610508940895A4
:10465000E894BB2766277727CB0197F908950E9436
:1046600042230C94B3230E94A52338F00E94AC236C
:1046700020F0952311F00C949C230C94A223112478
:104680000C9429230E94062370F3959FC1F3950F84
:1046900050E0551F629FF001729FBB27F00DB11DC6
:1046A000639FAA27F00DB11DAA1F649F6627B00D56
:1046B000A11D661F829F2227B00DA11D621F739F3F
:1046C000B00DA11D621F839FA00D611D221F749F4D
:1046D0003327A00D611D231F849F600D211D822F94
:1046E000762F6A2F11249F5750409AF0F1F08823BB
:1046F0004AF0EE0FFF1FBB1F661F771F881F9150E8
:104700005040A9F79E3F510580F00C949C230C94D7
:1047100029235F3FE4F3983ED4F386957795679518
:10472000B795F795E7959F5FC1F7FE2B880F911D11
:104730009695879597F9089597F99F6780E870E0B7
:1047400060E008959FEF80EC089500240A94161607
:10475000170618060906089500240A94121613066F
:10476000140605060895092E0394000C11F48823FD
:1047700052F0BB0F40F4BF2B11F460FF04C06F5F19
:104780007F4F8F4F9F4F089597FB072E16F400948D
:1047900007D077FD09D00E94DE2307FC05D03EF448
:1047A000909581959F4F0895709561957F4F0895DD
:1047B000EE0FFF1F0590F491E02D0994AA1BBB1B7F
:1047C00051E107C0AA1FBB1FA617B70710F0A61B11
:1047D000B70B881F991F5A95A9F780959095BC0132
:1047E000CD010895F999FECF92BD81BDF89A992720
:1047F00080B50895A8E1B0E042E050E00C941A249E
:10480000262FF999FECF92BD81BDF89A019700B489
:10481000021639F01FBA20BD0FB6F894FA9AF99A29
:104820000FBE08950196272F0E9401240C940024A6
:10483000DC01CB01FC01F999FECF06C0F2BDE1BD60
:10484000F89A319600B40D9241505040B8F708954F
:04485000F894FFCF0A
:104854000520710228080A03140A9E1B2C1C091C3B
:10486400D51BA11B01000D010D020D030D040D0547
:104874000D000C010C020C030C040C050C000B01C4
:104884000B020B030B040B050B000A010A020A03BB
:104894000A040A050A0009010902090309040905B1
:1048A40009000801080208030804080508000701B4
:1048B40007020703070407050700060106020603AB
:1048C40006040605060005010502050305040505A1
:1048D40005000401040204030404040504000301A4
:1048E400030203030304030503000201020202039B
:1048F4000204020502000101010201030104010591
:10490400010000010002000300040005000102038D
:1049140004050607080900404D3639D605890553B4
:0C492400051A05AD04C604DF04F8040009
:00000001FF
