:100000000C94ED060C9434070C9434070C943407CC
:100010000C9434070C9434070C9434070C94340774
:100020000C9434070C9434070C942E260C9400275F
:100030000C94A71C0C9434070C9434070C943407CC
:100040000C9434070C9434070C9434070C94340744
:100050000C9434070C940F1D0C9434070C94340743
:100060000C9434070C9434070C9434070C94340724
:100070000C9434070C9434070C9434070C94340714
:100080000C9434070C9434070C9434070C94340704
:100090000C9434070C9434070C9434070C943407F4
:1000A0000C9434070C9434070C9434070A09100993
:1000B00016091C0924092A09300936093C09410995
:1000C00046094B09500955095A095F09640969092C
:1000D0006E097309790A7B0A860A7D0A7F0A810AFA
:1000E000830A850A880A8A0A8C0A970A8E0A900A65
:1000F000920A940A960A990AFB12FB122D132D13E9
:1001000060137E139914D4148913D4142C142C1452
:100110009014D414D414CE14391439143914391455
:100120003914391439143914391439143914391467
:100130003914391439143914481455145C146314DF
:100140006D1454155415661566155D1566156615FE
:1001500066155415541562156615661562156D27DA
:100160008F2782288F278228D427F72782284C2898
:100170005F280138023801E10125022502E101284A
:1001800002280128022801E10125022502E10138A7
:100190000238015202520001E1014D024D02E1001C
:1001A00001E1014A024A02E10001E10126022601C1
:1001B00027022702E1015002500001E1012F022F26
:1001C0000130023002E10150025000012F022F01E4
:1001D000300230015002500001E10134023402E1EA
:1001E000004D617920313620323032322030313AC0
:1001F00033323A34310030313A33323A3431004D0F
:1002000061792031362032303232007069702069D5
:100210006E7374616C6C202D2D636572743D633A4E
:100220002F73736C70726F78792E63727420005321
:10023000454C4543540D0A2020202020412E2A0DF4
:100240000A202020202C422E2A0D0A46524F4D0D06
:100250000A20202020612E616120410D0A202020EB
:10026000204C454654204F55544552204A4F494E44
:100270000D0A2020202020202020280D0A202020C8
:10028000202020202053454C4543540D0A20202097
:1002900020202020202020202020432E636F6C0D62
:1002A0000A202020202020202046524F4D0D0A20D9
:1002B0002020202020202020202020632E63632067
:1002C000430D0A2020202020202020574845524559
:1002D0000D0A202020202020202020202020432E16
:1002E000636F6C203D204E554C4C0D0A2020202081
:1002F000202020202920420D0A202020204F4E0DB2
:100300000A2020202020202020422E636F6C203DD8
:1003100020412E636F6C202D2D4E554C4C0D0A2024
:10032000202020414E4420422E636F6C203D20410E
:100330002E636F6C202D2D4E554C4C0D0A574845A1
:1003400052450D0A20202020422E636F6C203D2054
:100350004E554C4C0D0A414E4420412E636F6C208B
:100360003C3E20310D0A414E4420412E636F6C20EB
:100370004245545745454E202730312720414E44B1
:1003800020273032270D0A0053454C4543540D0AAF
:100390002020202020412E2A0D0A202020202C421F
:1003A0002E2A0D0A46524F4D0D0A20202020612E84
:1003B000616120410D0A202020204C454654204FE9
:1003C00055544552204A4F494E20622E62622042C7
:1003D0000D0A202020204F4E0D0A20202020202012
:1003E0002020422E636F6C203D20412E636F6C20D5
:1003F0002D2D4E554C4C0D0A20202020414E4420DE
:10040000422E636F6C203D20412E636F6C202D2D9A
:100410004E554C4C0D0A57484552450D0A20202098
:1004200020422E636F6C203D204E554C4C0D0A41EE
:100430004E4420412E636F6C203C3E20310D0A411A
:100440004E4420412E636F6C204245545745454E23
:10045000202730312720414E4420273032270D0AF3
:100460000053454C4543540D0A2020202020412EA6
:10047000636F6C0D0A202020202C412E2A0D0A4685
:10048000524F4D0D0A20202020612E616120410D28
:100490000A57484552450D0A20202020412E636FFF
:1004A0006C203D204E554C4C0D0A414E4420412EAF
:1004B000636F6C203C3E20310D0A414E4420412E9A
:1004C000636F6C204245545745454E2027303127F5
:1004D00020414E4420273032270D0A0001E101203F
:1004E000022002E1012C022C012C022C012D022DF4
:1004F000012D022D012D022D012D022D0150025042
:10050000015002500150025001500250015002505F
:100510000001E101200220012C022C012202220113
:1005200022022202E100272559256D256425482550
:100530004D25532566270001E10136023602E1010F
:100540002D022D0023202D2A2D20636F64696E67F4
:100550003A207574662D38202D2A2D200A2727274A
:100560000A4372656174656420203A204D617920E8
:10057000313620323032322030313A33323A34316F
:100580000A4D6F646966696564203A204D6179207F
:10059000313620323032322030313A33323A34314F
:1005A0000A0A40617574686F723A20596F756E67F8
:1005B000204A75204B696D0A2727270A0065726754
:1005C0006F646F782F707964656D69612040206574
:1005D00030316462642D64697274790029002B00E3
:1005E0003500E100E06100001E00140004001D0061
:1005F00065004E001F001A0016001B00E3002A00D1
:100600002000080007000600C3002C002100150090
:1006100009001900E2644B00220017000A000500DF
:1006200000004A003E01C4000000C10000004D006F
:100630002300C200000000710000500024001C00D4
:100640000B00110000004F00250018000D001000E5
:10065000E600520026000C000E003600E4002800E0
:10066000270012000F0037002F004C002D00130050
:1006700033003800300051002E0231000D71E500CA
:100680001030000001000100010001000100000025
:10069000010001000100010001004D020100010004
:1006A0000100010001002A00033010300E300F302D
:1006B00001002C00053026022F002F0201004A0203
:1006C0000430270230003002000001000100010068
:1006D0000000010000002804B200023000002D00DC
:1006E000000050010100240021001E0000004F0105
:1006F0000100250022001F0027004B0001002600FA
:10070000230020003700280001002E0225023600B9
:1007100050004C0001002D003800520051004E00E6
:100720004600B300010001004F000000013001004D
:1007300001000100010000001E0023000100010073
:1007400001004E001F0024000100010001002A00EA
:10075000200025000100010001002C0021002600DE
:100760000100010001004B002200270001000100F0
:100770000000010001000100000001000000280449
:10078000B200010000000100000050000100240040
:1007900021001E0000004F000100250022001F0064
:1007A0002700520001002600230020003700280007
:1007B00001002D002E02360050004C0001003800D0
:1007C00025025200510051004600B3000100010013
:1007D0004F00000000300100010001000100000096
:1007E0003A003F0044006B0001004D003B00400018
:1007F00045006C00010028643C00410068006D0069
:10080000010028613D00420069006E0001004A00BD
:100810003E0043006A006F0000000100010001007B
:1008200000000100000001000100010000000100C3
:1008300000005000010001000100010000004F0015
:100840000100010001000100010052004800010008
:100850000100010001002800010001000100010069
:1008600036004C00010001000100010001005100B0
:1008700001000100010001000100000029002B001F
:100880003500E100E06100001E00140004001D00BE
:1008900001004D001F001A0016001B00E3002A0093
:1008A000200008000700060065002C00210015004C
:1008B00009001900E2644A00220017000A0005003E
:1008C0000000C300280200710000C10000002801E0
:1008D00023000100000001000000500024001C0063
:1008E0000B00110000004F00250018000D00100043
:1008F000E600520026000C000E003600E70028003B
:10090000270012000F0037002F004C002D001300AD
:1009100033003800300051002E0231000D71E50027
:100920001030000000712B0035003962E0610000DA
:100930001E00140004001D00C2004D001F001A001C
:1009400016001B00E3002A00200008000700060034
:1009500065002C002100150009001900E2644A001E
:10096000220017000A00050000004B003E01023083
:100970000000C10000004E002300280100003E01DD
:100980000000500024001C000B00110000004F006C
:10099000250018000D001000E600520026000C0093
:1009A0000E003600E4002800270012000F00370078
:1009B0002F004C002D001300330038003000510090
:1009C0002E0231003400E5001030000029002B0019
:1009D0003500E100E00000001E00140004001D00CE
:1009E000E2014E001F001A0016001B00E3004C003D
:1009F000200008000700060065002C0021001500FB
:100A000009001900E2004B00220017000A0005004F
:100A100000004A0006532E000000015300004D0064
:100A20002300023000003E0100004A0024001C00A8
:100A30000B00110000004D00250018000D001000F3
:100A4000E6004B0026000C000E0036002C022800A9
:100A5000270012000F0037002F004C002D0013005C
:100A60003300380030004E002E02310034000157B0
:100A7000C100000029002B003500E100E00000006B
:100A80001E00140004001D00E2014E001F001A00A9
:100A900016001B00E3002A002000080007000600E3
:100AA00065002C002100150009001900E2004B0030
:100AB000220017000A00050000004A0006532E001D
:100AC0000000015300004D002300023000003E01F1
:100AD0000000500024001C000B00110000004F001B
:100AE000250018000D001000E600520026000C0042
:100AF0000E0036002C022800270012000F003700DD
:100B00002F004C002D00130033003800300051003E
:100B10002E0231003400E500C10000000000F0A109
:100B2000F0A2F0A3F0A4F0A5F0A6000000000000E1
:100B300000002A2B28000000000000000000000038
:100B4000000000000029000000002C1E342021229B
:100B500024342627252E362D3738271E1F20212204
:100B6000232425263333362E37381F04050607087D
:100B7000090A0B0C0D0E0F1011121314151617186D
:100B8000191A1B1C1D2F3130232D350405060708AB
:100B9000090A0B0C0D0E0F1011121314151617184D
:100BA000191A1B1C1D2F3130354C000000000000AD
:100BB0000000000000000000000000000000000035
:100BC0000000000000000000000000010101010120
:100BD0000100010101010000000000000000000010
:100BE00000000000010001000101010101010101FB
:100BF00001010101010101010101010101010101E5
:100C000001010101010000000101000000000000DD
:100C100000000000000000000000000000000000D4
:100C200000000000000101010100160345007200F0
:100C300067006F0044006F007800200045005A00F4
:100C4000000016034500720067006F0044006F004B
:100C50007800200045005A0000000403090409023E
:100C60006D00040100A0FA09040000010301010065
:100C70000921110100012240000705810308000A33
:100C800009040100010301020009211101000122F0
:100C90004D000705820308000A0904020001030051
:100CA0000000092111010001223600070583030815
:100CB000000A0904030001030000000921110100DA
:100CC00001223900070584032000011201100100F0
:100CD000000008EDFE0713010001020001050109F3
:100CE00006A101050719E029E715002501950875FA
:100CF00001810205081901290595057501910295E3
:100D000001750391010507190029F71500250195C3
:100D1000F875018102C005010980A10185021681D3
:100D20000026B7001A81002AB700751095018100CE
:100D3000C0050C0901A1018503160100269C021AB9
:100D400001002A9C02751095018100C0050109026D
:100D5000A1010901A10005091901290515002501B5
:100D60009505750181029501750381010501093021
:100D700009311581257F950275088106093815818D
:100D8000257F950175088106050C0A380215812515
:100D90007F950175088106C0C005010906A10105FE
:100DA0000719E029E71500250195087501810295CD
:100DB000017508810105081901290595057501913D
:100DC000029501750391010507190029FF150026F9
:100DD000FF00950675088100C00011241FBECFEFEB
:100DE000DAE0DEBFCDBF04B603FE27C080917804F1
:100DF00090917904A0917A04B0917B048730904B54
:100E0000A740B04BD1F4109278041092790410925C
:100E10007A0410927B0414BE84B7877F84BF0FB618
:100E2000F894A8958091600088618093600010928A
:100E300060000FBEE0E0FFE3099513E0A0E0B1E041
:100E4000EAE9F4E502C005900D92AC37B107D9F795
:100E500024E0ACE7B3E001C01D92A837B207E1F788
:100E60000E947B230C944B2A0C9400001092B90032
:100E70008AE08093B800089594EA9093BC00909122
:100E8000BC0097FFFCCF9091B900987F983021F07B
:100E9000903111F081E008958093BB0084E8809345
:100EA000BC008091BC0087FFFCCF8091B900887F97
:100EB000883111F0803471F780E0089584E98093DF
:100EC000BC008091BC0084FDFCCF08958093BB00E2
:100ED00084E88093BC008091BC0087FFFCCF909198
:100EE000B900987F81E0983209F480E0089584E8A1
:100EF0008093BC008091BC0087FFFCCF8091BB0039
:100F0000089580B38C7080BB81B3836F81BB0895DB
:100F10008091A102811115C080E40E943C0780935A
:100F2000A10281110CC082E10E9466078093A10298
:100F3000811105C08FEF0E9466078093A1020E9475
:100F40005E0784B1807F84B985B1807F85B98AB11D
:100F5000837F8AB98BB1837F8BB93E984698089579
:100F60000C947C090E94190E8093A1020E948807AC
:100F70000E948107EBE8F3E0ADE7B3E011921D9228
:100F800083E0E939F807D1F70C94030E0E94190E9B
:100F90008093A1020E9488070E948107EBE8F3E09A
:100FA000ADE7B3E011921D9283E0E939F807D1F77C
:100FB00008956F927F929F92AF92BF92CF92DF92ED
:100FC000EF92FF921F93CF93DF938091A10288232A
:100FD00079F080917C038F5F80937C03811108C03E
:100FE0000E94190E8093A102811102C00E94AB0DD4
:100FF0008DE7E82E83E0F82E3701C0E0D0E0CC2466
:10100000C394D12CAA24A39425E0922E1C2FC73080
:1010100000F58091A10281113CC080E40E943C0750
:101020008093A102811112C082E10E946607809321
:10103000A10281110BC0C6010C2E01C0880F0A94B9
:10104000EAF780950E9466078093A1020E945E07DE
:1010500020C0CA30A1F028F4C83059F0C93061F07E
:1010600005C0CC3089F070F0CD3089F0209A2898F6
:1010700010C0219A29980DC0229A2A980AC0239A52
:101080002B9807C0529A01C0539A5B9802C03E9AAF
:10109000469880EA8A95F1F7173018F58091A102F9
:1010A000811144C080E40E943C078093A102882300
:1010B00011F0B12C12C083E10E9466078093A10257
:1010C0008111F7CF81E40E943C078093A102811136
:1010D000F0CF0E947707B82EB0940E945E078B2D48
:1010E00026C08FB181708A25799902C032E001C093
:1010F00030E0832B7C9902C034E001C030E0832BC8
:101100007D9902C028E001C020E0822B7E9902C0B8
:1011100090E101C090E0892B9FB19095991F99278C
:10112000991F9295990F907E892B01C080E0D30181
:101130009C91981719F08C93909200010E94880757
:101140002196BFEF6B1A7B0ACE30D10509F05ECF36
:10115000809100018823A9F08150809300018823A9
:1011600029F0E5E0EA95F1F700000BC0EBE8F3E0C9
:10117000D7018D917D018193BBE8EB16B3E0FB06AF
:10118000B9F70E94310B81E0DF91CF911F91FF9061
:10119000EF90DF90CF90BF90AF909F907F906F9037
:1011A0000895E82FF0E0E557FC4F808108950895F9
:1011B000FC018081813031F48EE20E9497118EE231
:1011C0000C946A120C942C15FC018081823091F4ED
:1011D00081EE0E94971186E30E94971186E30E9498
:1011E0006A1281EE0E946A128DE20E9497118DE2CE
:1011F0000C946A120C942C15462F50E04431510582
:1012000008F076C0DC01FA01EA5AFF4F12968C9181
:101210000C94FB29882309F46BC08DEB95E011C079
:10122000882309F465C084E495E00BC0882309F4A1
:101230005FC087E395E00895882309F459C086E2EA
:1012400095E00E94060B54C0882309F451C081E147
:1012500095E00895882309F44BC08CED94E008953F
:10126000882309F445C081E694E0EBCF882309F494
:101270003FC088E893E0E5CF8823D1F18FE292E088
:10128000E0CF8823A9F18BE092E0DBCF882381F1C6
:101290008FEF91E0D6CF882359F186EF91E0D1CF3F
:1012A000882331F181EE91E0CCCF882309F188EDDC
:1012B00091E008958823E1F08BEC91E00895882374
:1012C000B9F08AEB91E00895882391F089EA91E0E2
:1012D0000895882369F080EA91E00895882341F019
:1012E00087E991E00895882319F082E791E0089555
:1012F00080E090E0089508956091090470910A04D7
:1013000080910B0490910C040E94DA1B56985E9811
:1013100025982D9826982E9827982F98823081F01E
:1013200018F4813031F00895833079F08430A1F0E1
:10133000089526982E9827982F98259A2D9A0895E3
:1013400025982D9827982F980BC025982D9826988A
:101350002E98279A2F9A089527982F98259A2D9A94
:10136000269A2E9A08950F931F93CF93DF939C0193
:101370003A9521153F41C8F58B01EC0190FF03C060
:1013800080EEFB010995D1FF03C081EEF8010995BC
:10139000D2FF03C082EEF8010995D3FF03C083EEAC
:1013A000F8010995CE0188279171892B19F084EEF7
:1013B000F8010995CE0188279271892B19F085EEE5
:1013C000F8010995CE0188279471892B19F086EED2
:1013D000F8010995CC27D871CD2B39F087EEF801AB
:1013E000DF91CF911F910F910994DF91CF911F91C0
:1013F0000F910895CF93C82F67E971E10E94B30957
:101400008C2FCF910C949711CF93DF93EC010E9416
:101410006A126AE672E1CE01DF91CF910C94B309B2
:1014200081E0089581E008950C94120A0E9440150D
:101430002FEF84E39CE0215080409040E1F700C012
:1014400000000C94341D0F931F93CF93DF938C01F6
:10145000FC01C081D181CE010E94651ABE010E94AB
:10146000CC0CEC01B8010E94140A882309F4C8C00E
:10147000B801CE010E944E0F882309F4C1C0B80103
:10148000CE010E945C0D882309F4BAC0B801CE01D8
:101490000E94D60E882309F4B3C0C531F0E7DF07F8
:1014A00008F07CC0C23080E7D80708F452C0F801C9
:1014B0008281882309F459C00E94441C811102C012
:1014C0000E942A1C0E94571C90E090936A0480930B
:1014D0006904FE01E350F047E231F10530F4E659CA
:1014E000FF4F809169040C94FB298091690481600D
:1014F00027C0826025C0846023C0806121C08062D3
:101500001FC080641DC080681BC08460886018C0D4
:101510008E7F16C08D7F14C08B7F12C08F7E10C04F
:101520008F7D0EC08F7B0CC08F770AC08B7F877F2B
:1015300007C087FB222720F991E0922790FB87F9CB
:1015400080936904809169040E945B1C0E9440158D
:1015500057C0C115E0E7DE0779F0C130D047A1F0F0
:1015600081E08093990380939A03C801DF91CF9122
:101570001F910F910C94100AF8018281882309F4BD
:101580003FC00E94160A3CC0F80182818823C1F145
:101590008091360481608093360432C0CC3380E77A
:1015A000D807A1F4F8018281882321F010929903D1
:1015B00082E016C080919903811106C086E20E94E4
:1015C000971186E20E946A1282E018C0CD33D0479C
:1015D00039F6F8018281882331F010929A0380E273
:1015E0000E94B9120DC080919A03811106C087E252
:1015F0000E94971187E20E946A1280E20E94C01244
:1016000080E0DF91CF911F910F9108950F931F9369
:10161000CF938C01F80124912223F9F030E0F901F5
:10162000E65DF44FC491F901E655F44F249122236D
:1016300059F081EE0E9497118C2F0E9497118C2FE8
:101640000E946A1281EE04C08C2F0E9497118C2F89
:101650000E946A120F5F1F4FDDCFCF911F910F9134
:1016600008950E94EA0F0C94B00708950C94350B6E
:101670000C94360B24E5829FC0011124FC0146E046
:10168000749FE00DF11D1124E60FF11DEE0FFF1FF9
:10169000E452FA4F859194910E94DF0C811520E469
:1016A0009207B0F5811540E3940708F0E6C0803E4C
:1016B0009105D8F4803C910508F06CC0883A9105FA
:1016C00078F4853A910508F06BC08130910509F4F2
:1016D00061C108F418C18430910508F05BC113C1E1
:1016E0008D3B910508F467C00EC18F3F910509F04D
:1016F00048F4803F910508F0B5C0883E910508F494
:1017000049C101C1811520E2920708F0ADC00895DA
:10171000811543E5940790F4811522E5920708F0BE
:10172000D1C0811541E5940708F0C7C0811520E5B7
:10173000920708F0A5C09F70906A0895811545E54D
:101740009407D8F4811524E5920708F0D1C09C01D4
:1017500023703327E1E0F0E002C0EE0FFF1F2A956F
:10176000E2F7282F2695269540E2249F9001112428
:10177000CF01822B932B9A680895811546E5940733
:1017800008F4BBC09C0130562115304108F0BBC0A5
:101790009F70B7C0FC01EE0FFF1FE456F64F6AC002
:1017A000853A910509F4B2C0863A910509F0B1C0B5
:1017B00082E890E40895883A910509F4ADC0893A29
:1017C000910509F4ACC08A3A910509F4ABC08B3A93
:1017D000910509F4AAC08C3A910509F4A9C08B3B84
:1017E000910509F4A8C08C3B910509F4A7C08D3A76
:1017F000910509F4A6C0803B910509F4A5C08E3A75
:10180000910509F4A4C08F3A910509F4A3C0813B66
:10181000910509F4A2C0823B910509F4A1C0833B64
:10182000910509F4A0C0843B910509F49FC0853B54
:10183000910509F49EC0863B910509F49DC0873B44
:10184000910509F49CC0883B910509F49BC0893B34
:10185000910509F49AC08A3B910509F499C080E08A
:1018600094E4089590650895FC01FF70EE0FFF1F4A
:10187000E45EF44F8591949108959927906C0895B2
:101880009C0154E0369527955A95E1F7922F937075
:10189000482F437021E030E002C0220F331F4A95E9
:1018A000E2F73C68392B8F708695869540E2849FDD
:1018B000C0011124822B932B0895982F8827816FC4
:1018C000906A08959C0123703327E1E0F0E002C0A4
:1018D000EE0FFF1F2A95E2F7282F2695269580E226
:1018E000289F90011124CF01822B932B9C6808958F
:1018F000982F8827846F906A08958F719927982F61
:1019000088279062089580E090E0089581E890E44F
:10191000089583E890E4089582EE94E4089589EEB2
:1019200094E408958AEE94E4089585EB94E4089590
:1019300086EB94E4089583EB94E4089584EB94E4B7
:10194000089587EB94E408958CEC94E408958DEC6D
:1019500094E4089583E895E408958AE895E4089569
:1019600082E995E4089584E995E4089581E296E496
:10197000089583E296E4089584E296E4089585E26A
:1019800096E4089586E296E4089587E296E4089541
:101990008AE296E40895089524E5829FC001112407
:1019A000FC0126E0729FE00DF11D1124E60FF11DF0
:1019B000EE0FFF1FE452FA4F8591949108958238FB
:1019C000910549F1B0F48133910509F459C048F407
:1019D0008932910509F44FC08A32910509F455C046
:1019E00008958533910509F441C08933910599F033
:1019F0000895833E910531F138F4803E910591F0D0
:101A0000823E9105A9F00895863E910501F1873E39
:101A1000910539F108952091690420FD3BC021FD15
:101A200039C008958091690480FF34C089E341C0C2
:101A30008091690482FF30C08091690484FD2EC0CA
:101A400083EE37C08091690482FD26C0F5CF809176
:101A5000690483FF25C08091690484FD1FC087EE5F
:101A600028C08091690483FD1BC0F5CF8091690473
:101A700085FD18C019C08091690485FD15C012C08C
:101A80008091690486FD12C013C08091690486FDAF
:101A90000FC00CC080EE0DC082EE0BC080E009C00C
:101AA00086EE07C089E205C085E303C08AE201C073
:101AB00081E390E0089508950F931F93CF93FB0166
:101AC0002281211102C0C1E041C08C01C091A80354
:101AD000C11125C085319047B1F70E945B0D81E0AF
:101AE0008093A8030E94D91C9093A7038093A60318
:101AF00010929B0310929D0310929C0310929F03DF
:101B000010929E031092A1031092A0031092A303BF
:101B10001092A2031092A5031092A40317C0809103
:101B2000A6039091A7030E94E51C883C910558F6F6
:101B300090919B03E92FF0E0EE0FFF1FE456FC4F5E
:101B4000118300839F5F90939B03C0E08C2FCF9104
:101B50001F910F91089556985E9825982D98269874
:101B60002E9827982F988FEF90E09093890080937C
:101B7000880090938B0080938A0090938D008093CF
:101B80008C00259A2D9A2FEF80E792E0215080401B
:101B90009040E1F700C00000269A2E9A2FEF80E7D0
:101BA00092E0215080409040E1F700C00000279A69
:101BB0002F9A2FEF80E792E0215080409040E1F78C
:101BC00000C0000025982D982FEF80E792E021506B
:101BD00080409040E1F700C0000026982E982FEF3B
:101BE00080E792E0215080409040E1F700C0000083
:101BF00027982F9856985E9825982D9826982E9875
:101C000027982F98089589EA8093800089E080932F
:101C1000810024982C983F988AB18F748AB96E9865
:101C2000479A8BB1806B8BB9769A0E94AB0D0C945E
:101C30007B0980E28093A1028091A90381110EC0EB
:101C40000E94360781E08093A9032FEF83ED90E394
:101C5000215080409040E1F700C0000080E40E94E5
:101C60003C078093A10281112EC00E9466078093D9
:101C7000A102811128C00E9466078093A1028111F0
:101C800022C08FE30E9466078093A10281111BC0CE
:101C90000E945E0780E40E943C078093A1028111AC
:101CA00012C08CE00E9466078093A10281110BC0D4
:101CB0000E9466078093A102811105C08FE30E94F4
:101CC00066078093A1020E945E078091A102089599
:101CD000882339F090E08A3010F44D9608950697E5
:101CE000089587E290E008958091AA03813079F009
:101CF00050F08230F1F482EE0E94971187E50E9445
:101D0000971187E514C082EE0E94971112C080EEF1
:101D10000E94971181EE0E94971188E10E9497110D
:101D200088E10E946A1281EE0E946A1280EE0E948F
:101D30006A128FE39CE90197F1F700C00000089553
:101D40008091AA03813029F010F0823041F482EEB4
:101D500004C08CE20E9497118CE20C946A120895E0
:101D6000EF92FF921F93CF93DF937C01CCE0D0E002
:101D7000C7010C2E02C0969587950A94E2F7182F9A
:101D80001F70812F0E94680E0E949711812F0E9460
:101D9000680E0E946A122497CC3F8FEFD80741F754
:101DA000DF91CF911F91FF90EF900895CF93DF9334
:101DB000813020E8920768F0FB012281222349F05C
:101DC000EC010E94740ECE019F770E94B00E0E941B
:101DD000A00E81E0DF91CF910895DC011D968C91DA
:101DE0001D97811111C081E01D968C931D9712964D
:101DF000ED91FC911397CD010696309729F01E9630
:101E00006D917C911F9709940895FC018081813028
:101E100021F4FB018081918105C0823029F4FB010E
:101E2000828193810C94FA090895FC0180818130AC
:101E300021F4FB018081918105C0823029F4FB01EE
:101E4000828193810C94040A0895CF93DF93FC015F
:101E50002681211120C0EC0181819281915724E0DB
:101E6000880F991F2A95E1F7DC01AF5FBE4F1496EA
:101E7000ED91FC911597895F9E4F309729F01E9642
:101E80006D917C911F97099518821D821F82109277
:101E9000AC031092AB03DF91CF910895EF92FF92C4
:101EA0000F931F93CF93DF938C018091AB0390919D
:101EB000AC03009769F00817190751F024E0880F68
:101EC000991F2A95E1F7FC01EF5FFE4081E08387CF
:101ED000C8019157FB0142818F3F910511F008F035
:101EE0004EC02091A202022E000C330B2817390796
:101EF00014F48093A2027C0194E0EE0CFF1C9A95EE
:101F0000E1F7E701CF5FDE4F4C87FB018281882339
:101F100009F458C018870F838E818F5F8E830E94CB
:101F2000D91C9A878987E881F981C701895F9E4F0B
:101F3000309719F06E857F8509958091AB0390915C
:101F4000AC030097B9F008171907A1F09157EC01FD
:101F500084E0CC0FDD1F8A95E1F7CE018F5F9E4FA5
:101F600021E0FC0123870E94ED0ECE01895F9E4F88
:101F70000E94250F1093AC030093AB0323C04423AE
:101F800009F18091A2028F3FE9F0C1E0D1E000E0C9
:101F900010E0FF24F3948091A202082E000C990B0C
:101FA000801791077CF08E81882341F0FB86CE015B
:101FB0000E94ED0ECE0106960E94250F0F5F1F4F67
:101FC0006096E9CF81E0DF91CF911F910F91FF9053
:101FD000EF9008950F931F93CF93DF938091A20208
:101FE0008F3F09F1C1E0D1E000E010E08091A20252
:101FF000082E000C990B80179107ACF08E81882376
:1020000071F089859A850E94E51C8739910538F021
:10201000CE010E94ED0ECE0106960E94250F0F5FA5
:102020001F4F6096E3CFDF91CF911F910F910895DD
:102030009093B2038093B1030895E091B103F091BE
:10204000B203309721F00190F081E02D099480E0F7
:102050000895E091B103F091B203309721F002802E
:10206000F381E02D09940895E091B103F091B2035A
:10207000309721F00480F581E02D09940895209196
:10208000AF033091B0032817390771F09093B00374
:102090008093AF03E091B103F091B203309721F048
:1020A0000680F781E02D099408952091AD033091C9
:1020B000AE032817390771F09093AE038093AD03F8
:1020C000E091B103F091B203309721F00084F185E3
:1020D000E02D0994089508950C946B100E94D01C73
:1020E0000E94B2070C94561DBF92CF92DF92EF92DE
:1020F000FF920F931F93CF93DF93CDB7DEB72A974D
:102100000FB6F894DEBF0FBECDBF0E94D90784EB97
:10211000C82E83E0D82E00E010E0B02E802F0E9461
:10212000D108E82EF60121916F01F82EF226B1F4C4
:102130000F5F1F4F0E30110581F78FEF89838A8360
:102140001B820E94D91C8160782F9D838C834981DA
:102150005A816B818D810E9454113DC0809136045B
:1021600081FD0E94D70880E090E02F2D30E0482FBD
:10217000B901082E02C0759567950A94E2F760FFD1
:1021800025C08E83BF8281E090E06C0102C0CC0C40
:10219000DD1C4A95E2F72E2D30E02C213D21232B2A
:1021A00009F480E088870E94D91C8160782F9A8783
:1021B00089874E815F8168858A850E945411F80164
:1021C000EC54FC4F80818C25808305C001968630BD
:1021D000910569F6ADCF0E94E91E0E941D109091F5
:1021E000B3038917A9F00E941D108093B3032A96A8
:1021F0000FB6F894DEBF0FBECDBFDF91CF911F9118
:102200000F91FF90EF90DF90CF90BF900C94380B20
:102210002A960FB6F894DEBF0FBECDBFDF91CF91E7
:102220001F910F91FF90EF90DF90CF90BF90089596
:10223000DC0111962C9111978C91682F70E041E090
:1022400050E001C0440F8A95EAF712968C911297DC
:1022500030E0882329F08091D0038823E9F006C07C
:10226000F901EE53FC4F90819423B1F086E0829FF8
:10227000F001839FF00D1124E60FF71FEE0FFF1FF3
:10228000EA54FD4F808191818D939C93F901EE5327
:10229000FC4F8081482B06C0F901EE53FC4F40955E
:1022A0008081482340830895CF93DF93CDB7DEB775
:1022B0002B970FB6F894DEBF0FBECDBF942F4F8380
:1022C000252F588769877A878B874A855B85452BB9
:1022D00031F02F3F31F481E09F3F19F403C081E0DA
:1022E00001C080E080FD04C0CE0107960E94181155
:1022F000DE01119686E0FD0111928A95E9F785E0ED
:10230000FE01379601900D928A95E1F749815A8135
:102310006B817C818D819E810E9400182B960FB667
:10232000F894DEBF0FBECDBFDF91CF910895CF935C
:10233000882309F4CDC0C82F823859F40E941D109B
:1023400081FDC6C089E30E94E41A0E94AB1B89E3A9
:102350000CC0833879F40E941D1080FDB9C083E55C
:102360000E94E41A0E94AB1B83E50E94231BCF91BD
:102370000C94AB1B843859F40E941D1082FDA8C038
:1023800087E40E94E41A0E94AB1B87E4EECF8CEF37
:102390008C0F813A48F48C2F0E942721811198C01C
:1023A0008C2F0E94E41AE3CF80E28C0F883048F42F
:1023B000C77081E001C0880FCA95EAF70E94641BCC
:1023C000D6CF8BE58C0F833078F4C53A29F0C63A26
:1023D00031F083E890E005C081E890E002C082E837
:1023E00090E0CF910C943F1088E58C0F853108F078
:1023F0006FC0C83A61F1C93A69F1CA3A71F1CB3A92
:1024000079F1CC3A81F1CB3B89F1CC3B91F1CD3ADA
:1024100099F1C03BA1F1CE3AA9F1CF3AB1F1C13B5C
:10242000B9F1C23BC1F1C33BC9F1C43BD1F1C53BDA
:10243000D9F1C63BE1F1C73BE9F1C83BF1F1C93B3A
:10244000F9F1CA3B09F43FC080E090E03EC082EE63
:1024500090E03BC089EE90E038C08AEE90E035C055
:1024600085EB90E032C086EB90E02FC083EB90E0EC
:102470002CC084EB90E029C087EB90E026C08CEC68
:1024800090E023C08DEC90E020C083E891E01DC077
:102490008AE891E01AC082E991E017C084E991E0EE
:1024A00014C081E292E011C083E292E00EC084E2A7
:1024B00092E00BC085E292E008C086E292E005C09F
:1024C00087E292E002C08AE292E0CF910C9455102C
:1024D000CF910895882309F44BC0823859F40E94A3
:1024E0001D1081FF45C089E30E94E41A0E94AB1BC6
:1024F00089E30CC0833871F40E941D1080FF38C03E
:1025000083E50E94E41A0E94AB1B83E50E94231B13
:102510000C94AB1B843859F40E941D1082FF28C014
:1025200087E40E94E41A0E94AB1B87E4EFCF9CEF84
:10253000980F913A58F390E2980F983050F48770C2
:1025400091E001C0990F8A95EAF7892F0E946A1BD2
:10255000DFCF9BE5980F933020F480E090E00C945F
:102560003F10885A853120F480E090E00C9455109B
:102570000895882321F00E94641B0C94AB1B0895DE
:10258000882321F00E946A1B0C94AB1B08958F9244
:102590009F92AF92BF92DF92EF92FF920F931F93A1
:1025A000CF93DF937C01D62FC72FFC0105810295C5
:1025B0000F70128111110E94811B0E94DD1A882365
:1025C00079F0112369F080E28D0F883048F082E0C5
:1025D0000E94C61A0E94DD1A91E0D82ED92601C0A9
:1025E000D12CEC2FE295EF708E2F90E0FC01E45897
:1025F000FF4F0C94FB298C2F807FCF70882311F024
:10260000C295C07F112399F0CC2309F47FC180E2E9
:102610008D0F883010F0D11104C08C2F0E94641BE4
:1026200003C08C2F0E94741B0E94AB1B6FC18D2FA7
:102630000E946A12CC2309F4B7C180E28D0F883062
:1026400010F0D11104C08C2F0E946A1B03C08C2F84
:102650000E947A1B0E94AB1BA7C18C2F807FCF707A
:10266000803211F0C295C07FDD2319F0D13099F08E
:102670001EC0112341F0002399F08C2F013089F402
:102680000E94941B91C1002319F0013009F48CC100
:102690000E94971B13C0112339F0023008F084C147
:1026A0008C2F0E94B91280C101117EC107C0112375
:1026B00019F00023A9F32AC101112EC18C2FE5C006
:1026C0008C2F86958695837019F0813061F06CC1EE
:1026D000112321F08D2F9C2F937002C080E090E099
:1026E0000E943F1061C1112321F08D2F9C2F937008
:1026F00002C080E090E00E94551056C18D2F11233A
:1027000019F00E94F11D02C00E94591E0E94DE1E97
:102710004BC18C2F837009F04CC0111145C12D2F76
:10272000229526952770220F220F6D2F6F70862F0E
:1027300090E0A0E0B0E04C015D01022E04C0880CE6
:10274000991CAA1CBB1C0A94D2F7D4FF12C08FE0BC
:1027500090E0A0E0B0E004C0880F991FAA1FBB1F43
:102760002A95D2F7BC01CD01609570958095909522
:1027700003C060E070E0CB01C695C695C370C2305F
:1027800051F080F4682979298A299B29C13071F098
:102790000E94521909C1682979298A299B290E9416
:1027A0006E1902C10E945219C501B4010E94361966
:1027B000FBC0112319F08C2F817001C086958823EE
:1027C00009F4F2C02D2F229526952770220F220F93
:1027D0006D2F6F70862F90E0A0E0B0E04C015D019E
:1027E000022E04C0880C991CAA1CBB1C0A94D2F7A8
:1027F000D4FF12C08FE090E0A0E0B0E004C0880FEA
:10280000991FAA1FBB1F2A95D2F7BC01CD01609565
:1028100070958095909503C060E070E0CB01C695FF
:10282000C695C370C23051F080F4682979298A298D
:102830009B29C13071F00E942C1AB6C068297929F1
:102840008A299B290E94481AAFC00E942C1AC501F0
:10285000B4010E94101AA8C08D2F90E0FC01E05E28
:10286000F109E531F10508F04DC0E457FF4F0C9434
:10287000FB29DF708C2F8F71112321F00E94A91981
:102880008D2F0FCF0E94CA198D2F0E94C0128CC0AD
:10289000112339F0011188C08C2F8F710E94EF191C
:1028A00083C0023008F080C0F7CF112339F08C2F9D
:1028B0008F710E94A91978C01123C9F38C2F8F71D1
:1028C0000E94CA1971C0112329F08C2F8F710E94A8
:1028D00094196AC00E948A1967C0112349F0CF7108
:1028E0008C2F0E94A91963E08C2F0E94BD1A5CC036
:1028F00081E00E94C61A023008F456C082E00E94AD
:10290000C61A52C0112331F0002389F28D2F0E9484
:1029100097114AC0002391F28D2F0E946A1244C081
:102920004C2F4F706D2FC7010E94FC080E94AE18FB
:102930003BC0D23F89F128F4D03F49F0D13FE1F0CC
:1029400020C0D43FA1F050F0D53F59F01AC0112358
:1029500029F19091D00381E0892706C081E01827F2
:102960001BC011111BC081E08093D00317C011114F
:1029700015C01092D00312C0002371F011110EC0C7
:10298000E8CF002349F08D2F112319F00E949711F1
:1029900005C00E946A1202C01093D0034C2F4F70E2
:1029A0006D2FC7010E94CB0CDD20E1F00E94B91A07
:1029B00080FD18C0F70112820E94B31A0E94A91963
:1029C000C7010E94FE140E94B31ADF91CF911F919C
:1029D0000F91FF90EF90DF90BF90AF909F908F90FE
:1029E0000C94CA19DF91CF911F910F91FF90EF9036
:1029F000DF90BF90AF909F908F9008950F931F939B
:102A0000CF93DF93EC01988189812B813C81232B2B
:102A100031F08F3F31F481E09F3F19F403C081E032
:102A200001C080E080FD13C0CE010E94230A8823EC
:102A300071F0688179818A810E94AF1A8C010E94AD
:102A4000641A0E942B19B801CE010E94C712DF91AF
:102A5000CF911F910F9108950E94811B0E94911B9D
:102A60000E94561B0E94AB1B0E948E1F0E94DE1EFE
:102A700080E090E00E943F1080E090E00C945510C0
:102A80000E94711B0C942C150E94A41AE92FE29548
:102A9000EF704E2F50E0FA013297EE30F105B0F4AE
:102AA000EF55FF4F0C94FB29803F91F018F4803EC6
:102AB00068F40EC0843F51F40BC0803E48F0813F63
:102AC00029F406C093FB882780F9089580E00895D3
:102AD00081E00895CF93DF9300D000D01F92CDB74F
:102AE000DEB70F900F900F900F900F90DF91CF9166
:102AF0000895CF93DF9300D000D000D0CDB7DEB7DC
:102B000026960FB6F894DEBF0FBECDBFDF91CF91F2
:102B100008951F93CF93DF93C091D10316E0809166
:102B2000D203C81799F0D0E01C9FF0011D9FF00D53
:102B30001124ED52FC4F4081518162817381848167
:102B400095810E9479152196C770E9CFDF91CF91C9
:102B50001F9108954091030450910404609105046D
:102B60007091060480910704909108040C947915E3
:102B7000CF938091080482958F7009F05FC0809197
:102B80000504882309F45AC08091D103B091D2037F
:102B900070910304A091040440910604509107042D
:102BA00091E07F3F09F090E0692FC6E08B1709F4B0
:102BB00045C04115510521F0AF3F21F020E003C091
:102BC00021E001C0262F90E020FD35C0C89FF00114
:102BD000C99FF00D1124ED52FC4F21812A132BC007
:102BE0002081271328C02281211125C0238134810F
:102BF0002417350710F421503109241B350B2639D1
:102C00003105C8F4209108042F7020612093080436
:102C100026E0289FF001299FF00D1124E852FC4F77
:102C200080818F708061808383E094E00E94FE1435
:102C3000CF910C94891501968770B8CFCF910895E4
:102C4000AF92BF92CF92DF92EF92FF920F931F93BA
:102C5000CF93DF93CDB7DEB761970FB6F894DEBFA1
:102C60000FBECDBF8C0185E0F801DE011D960190FD
:102C70000D928A95E1F7D8014C9111965C911197CC
:102C80001296EC9030910304609104048091060444
:102C900090910704009731F06F3F31F421E03F3FFE
:102CA00019F403C021E001C020E0B22FB170BB2EA7
:102CB00020FD64C1F801C380D480A0900504AA203F
:102CC00009F4C3C020910804C816D90628F0D6011B
:102CD000A81BB90BCD0104C0809590958C0D9D1D4E
:102CE000FF24F3948639910580F0F12C207F09F0C0
:102CF0009CC07C2DD98AC88A6E2D89890E946A154C
:102D000083E094E00E94FE14B4C0822F807F09F01B
:102D100054C0561314C0431312C0FE2CE1100FC050
:102D20002F702061209308040E94AA1583E094E08C
:102D30000E94FE1480910804F80185834FC1CD28BC
:102D400031F05F3F31F481E04F3F19F403C081E07F
:102D500001C080E080FD03C081E08E2502C080E0DC
:102D600090E0F82FF170FF2E80FF1CC08091D103FE
:102D70002091D20336E0821709F40DC190E0389F0C
:102D8000F001399FF00D1124ED52FC4F6181561373
:102D900006C06081461303C06281E61203C001963B
:102DA0008770E9CFFE2CEE2009F418C18091080449
:102DB000816080930804F12C11C1561309C043139C
:102DC00007C0E11005C080910804F8018583B0C0F8
:102DD0004D875E878D859E850E944415882379F1F5
:102DE000EE2069F120910804822F82958F7090E087
:102DF000029774F0809103049091040498878F8364
:102E00001986DB86CA862C87CE0107960E94FE149F
:102E100086E0F801A3E0B4E001900D928A95E1F715
:102E20000E94B8150E94AA150DC0561761F14D8772
:102E30005E878D859E850E944415811138C0C8012A
:102E40000E94FE14FF24F394C9C0C816D90608F4E2
:102E500046C0F601E81BF90BCF018639910508F44D
:102E600043C0F12C7C2DD98AC88A6E2D89890E9495
:102E70006A15E3E0F4E086E0DF011D928A95E9F748
:102E80000E94AA15ABC04313D2CFE110D0CF8091DE
:102E90000804F8018583C8010E94FE1486E0E3E07F
:102EA000F4E0DF011D928A95E9F7FA2C97C0EE2035
:102EB00031F220910804822F82958F7090E0029762
:102EC0000CF4A6CF80910304909104049A83898323
:102ED0001B82DD82CC822E83CE01019697CF809516
:102EE00090958C0D9D1DB9CFFE2CEE2009F4A7CF37
:102EF000561333C0431331C02091080420FD24C071
:102F0000822F82958F70482F50E041155105E1F0D6
:102F1000D80115962C9315974F30510549F08F5FC6
:102F2000982F9295907F822F8F70892B15968C9376
:102F3000C8010E94FE1486E0F801A3E0B4E001900D
:102F40000D928A95E1F79CCF86E0F801A3E0B4E00A
:102F500001900D928A95E1F741C04D875E878D857E
:102F60009E850E944415811153CF80910804816091
:102F700080930804C8010E94FE1430C0EE2009F4BA
:102F80005ECF4D875E878D859E850E944415882380
:102F900009F455CF3DCF4D875E878D859E850E9474
:102FA000A41A292F22952F70223028F49F7039F00F
:102FB000811105C00BC0243028F49F7049F4805E55
:102FC000883020F0C8010E94FE14BF2CFB2C06C0E4
:102FD000D80115969C91907F91F7F8CF8F2D61962F
:102FE0000FB6F894DEBF0FBECDBFDF91CF911F911A
:102FF0000F91FF90EF90DF90CF90BF90AF9008952A
:103000001F93CF93DF93CDB7DEB72C970FB6F8940D
:10301000DEBF0FBECDBF4F83588769877A878B8706
:103020009C87CE0107960E9420168823D1F09F81AD
:1030300088852A853B85232B31F08F3F31F481E051
:103040009F3F19F403C081E001C080E080FD47C0CC
:103050004F81588569857A858B859C850E94791575
:103060003EC086E0FE013796DE01119601900D927A
:103070008A95E1F7FF81E8856A857B856115710591
:1030800031F0EF3F31F481E0FF3F19F403C081E0FC
:1030900001C080E080FD23C02091D20330E0C9014F
:1030A0000196877099274091D10350E084179507C6
:1030B000F1F1F983EA837D836C8396E0929FD001DE
:1030C000939FB00D1124AD52BC4FFE01319601907B
:1030D0000D929A95E1F78093D2030E94891516E02C
:1030E0008091D1039091D203891771F1189FC0018B
:1030F00011248D529C4F0E942016882329F1E091C3
:10310000D1031E9FF0011124ED52FC4F40815181EB
:1031100062817381848195810E9479158091D103A8
:1031200090E00196877099278093D103D9CF0E94B0
:1031300040151092D2031092D103E3E0F4E086E050
:10314000DF011D928A95E9F72C960FB6F894DEBF41
:103150000FBECDBFDF91CF911F910895EF92FF92E7
:103160000F931F93CF93DF938C01892B09F46CC0CD
:10317000F12CEE24E394E8012196F8018491843740
:1031800040F4843008F051C0813081F0823019F170
:103190005BC0853709F444C0A8F19CE7980F9037CD
:1031A00008F052C08F770E946A1241C00E5F1F4F15
:1031B000FE01849190E2980F983050F48770FE2DB4
:1031C00001C0FF0F8A95EAF78F2F0E94841B14C05D
:1031D0000E9497112DC00E5F1F4FFE01849190E257
:1031E000980F983060F48770FE2D01C0FF0F8A950C
:1031F000EAF78F2F0E948A1B0E94AB1B19C00E9406
:103200006A1216C00E5F1F4FFE01C491CC2381F0DD
:103210008FE99FE00197F1F700C00000C150F6CFA1
:103220000E5F1F4FFE01F49003C00E9497118E01A4
:103230008F2D882309F49FCFEFE9FFE03197F1F755
:1032400000C000008150F5CFDF91CF911F910F9109
:10325000FF90EF900895089560930D0470930E040D
:1032600080930F04909310040C942C150F931F93CC
:1032700000910D0410910E0420910F043091100460
:10328000DC01CB01802B912BA22BB32B80930D045F
:1032900090930E04A0930F04B09310041F910F910C
:1032A0000C942C150F931F9300910D0410910E0494
:1032B00020910F0430911004DC01CB018023912375
:1032C000A223B32380930D0490930E04A0930F04C4
:1032D000B09310041F910F910C942C150F931F9312
:1032E00000910D0410910E0420910F0430911004F0
:1032F000DC01CB0180279127A227B32780930D04FF
:1033000090930E04A0930F04B09310041F910F919B
:103310000C942C151092090410920A0410920B04BC
:1033200010920C040C942C1541E050E060E070E029
:1033300004C0440F551F661F771F8A95D2F740932C
:10334000090450930A0460930B0470930C040C94CA
:103350002C1541E050E060E070E004C0440F551FC0
:10336000661F771F8A95D2F78091090490910A040D
:10337000A0910B04B0910C04482B592B6A2B7B2B8A
:103380004093090450930A0460930B0470930C0457
:103390000C942C1541E050E060E070E004C0440F54
:1033A000551F661F771F8A95D2F7409550956095F7
:1033B00070958091090490910A04A0910B04B0913A
:1033C0000C04482359236A237B2340930904509318
:1033D0000A0460930B0470930C040C942C1541E0C8
:1033E00050E060E070E004C0440F551F661F771F77
:1033F0008A95D2F78091090490910A04A0910B0458
:10340000B0910C04482759276A277B274093090469
:1034100050930A0460930B0470930C040C942C15C5
:103420000F931F930091090410910A0420910B043B
:1034300030910C04DC01CB01802B912BA22BB32B00
:103440008093090490930A04A0930B04B0930C0496
:103450001F910F910C942C150F931F930091090449
:1034600010910A0420910B0430910C04DC01CB0173
:1034700080239123A223B3238093090490930A0409
:10348000A0930B04B0930C041F910F910C942C1576
:103490000F931F930091090410910A0420910B04CB
:1034A00030910C04DC01CB0180279127A227B327A0
:1034B0008093090490930A04A0930B04B0930C0426
:1034C0001F910F910C942C150895CF92DF92EF92DB
:1034D000FF920F931F93CF93DF938C01C090090449
:1034E000D0900A04E0900B04F0900C0480910D043D
:1034F00090910E04A0910F04B0911004C82AD92A0B
:10350000EA2AFB2ACFE1D0E0D701C6010C2E04C085
:10351000B695A795979587950A94D2F780FD04C034
:10352000219790F780E007C0B8018C2F0E943A0BDA
:103530000197B1F38C2FDF91CF911F910F91FF90E5
:10354000EF90DF90CF900895CF93DF93EC010E942E
:10355000651ABE010E943A0BDF91CF910895CB010D
:103560000E94A41A089580911104859585958595EA
:103570000895809111048770089598E0899F9001C3
:103580001124262B209311040C94A91920911104C5
:103590008095822380931104982F977069F430E00E
:1035A000482F082E000C550B2417350729F0859558
:1035B000859585950C94CA1908959091110497707A
:1035C00081E009F480E008959091B5029923F1F02B
:1035D0009091690497FF1AC0982F969596959695A5
:1035E0009F3181F1E091A302F091A402E90FF11D56
:1035F000877021E030E0A90102C0440F551F8A9571
:10360000E2F7CA019181892B818308952091A30259
:103610003091A402F90132969FEF40E05191851755
:1036200089F09F3F19F4511101C0942F4F5F4E3123
:10363000A9F79F3F39F0F901E90FF11D97FDFA95C0
:103640008283089508959091B5029923F9F090919D
:10365000690497FF1BC0982F9695969596959F3174
:1036600021F1E091A302F091A402E90FF11D87700E
:1036700021E030E0A90102C0440F551F8A95E2F70E
:10368000CA0180959181892381830895E091A302E5
:10369000F091A4029F01225E3F4F9281891301C0E5
:1036A00012823196E217F307C1F7089581E090E0A6
:1036B000E091A302F091A402E80FF91F1082019695
:1036C00080329105A9F7089590913504892B809354
:1036D00035040895809590913504892380933504AD
:1036E000089510923504089590913404892B8093A5
:1036F0003404089580959091340489238093340490
:10370000089510923404089590913304892B809386
:103710003304089580959091330489238093330472
:10372000089510923304089580931204089510921E
:10373000120408958091A3029091A402FC01319695
:103740009C01205E3F4F80E0919191118F5FE217C5
:10375000F307D1F70895E091A302F091A4028091BC
:1037600035048083E091A302F091A40290818091BE
:103770003404892B8083E091A302F091A40290810C
:1037800080913304892B808380911204882361F017
:10379000E091A302F091A4029081892B80830E9482
:1037A0009A1B8111109212048091A3029091A4029D
:1037B0000C942910CF92DF92EF92FF926C01EE24CD
:1037C000FF24C114D104E104F10421F0C701B601C2
:1037D00020E101C020E0C72ED82EE92EFF24C1141D
:1037E000D104E104F10419F0285FC701B6016B01AF
:1037F0007C0154E0F694E794D794C7945A95D1F796
:10380000C114D104E104F10419F02C5FC701B60121
:103810006B017C0142E0F694E794D794C7944A95F3
:10382000D1F7C114D104E104F10419F02E5FC701EE
:10383000B601DC01CB01B695A79597958795892BA5
:103840008A2B8B2B09F02F5F822FFF90EF90DF9058
:10385000CF9008956DEE7EEF80E090E00E94352AD3
:1038600060E082E090E00E94232A60E083E090E044
:103870000E94232A60E084E090E00E94232A60E016
:1038800085E090E00C94232A80E090E00E941D2ABD
:1038900021E08D3E9E4F09F020E0822F089582E0C6
:1038A00090E00C94152A83E090E00C94152A84E0B3
:1038B00090E00C94152A682F84E090E00C94232A61
:1038C00080916F04843039F11092370420E488E14C
:1038D00090E00FB6F894A895809360000FBE2093F7
:1038E000600080E00E94380B83B7817F846083BFD3
:1038F00083B7816083BF7894889583B78E7F83BFB9
:103900000FB6F894A895809160008861809360005C
:10391000109260000FBE08950895CF930E94C607CD
:103920000E94D9070E948C1CC0E08C2F0E94D108F5
:10393000811104C0CF5FCE30C1F701C081E0CF91CB
:1039400008950E9440150E941D100C94380B1F9280
:103950000F920FB60F9211248F939F93AF93BF9343
:1039600080913704811113C08091380490913904FB
:10397000A0913A04B0913B044196A11DB11D8093E2
:10398000380490933904A0933A04B0933B04BF9158
:10399000AF919F918F910F900FBE0F901F90189530
:1039A00082E084BD93E095BD9AEF97BD80936E0051
:1039B00008952FB7F8948091380490913904A0911C
:1039C0003A04B0913B042FBF0895CF92DF92EF925B
:1039D000FF920F931F932FB7F894409138045091A2
:1039E000390460913A0470913B042FBF6A017B0156
:1039F000EE24FF248C0120E030E0C016D106E20660
:103A0000F30610F4415051099A01281B390BC901E2
:103A10001F910F91FF90EF90DF90CF9008951F922C
:103A20000F920FB60F9211248F939F93AF93BF9372
:103A30008091380490913904A0913A04B0913B04EC
:103A40000196A11DB11D8093380490933904A09371
:103A50003A04B0933B04BF91AF919F918F910F9027
:103A60000FBE0F901F9018950E94B325F8942FEF6A
:103A700087EA91E6215080409040E1F700C00000C5
:103A800087E090EBDC018093780490937904A09315
:103A90007A04B0937B049CE088E10FB6F894A89573
:103AA000809360000FBE90936000FFCF0E94441C83
:103AB000811102C00E942A1C0E944F1C8093360470
:103AC0000E94571C90E090936A04809369040E94BE
:103AD000531C682F70E080E090E00C942C198091CA
:103AE0003E0480FF0BC06091A80285E0689FB00192
:103AF000112475956795759567952BC081FF09C051
:103B00006091A80285E0689FB001112475956795C2
:103B100020C082FF07C06091A80285E0689FB001C5
:103B2000112417C090913F049923D1F06091A7020E
:103B3000961788F72091A80285E0289F900111240C
:103B4000929FA001939F500D112470E0CA010E9422
:103B5000E7296038710540F46115710519F406C054
:103B600065E070E0862F08958FE7089581E008955D
:103B700080913E0480FF08C06091A60270E07595B8
:103B800067957595679521C081FF06C06091A60273
:103B900070E07595679519C082FF04C06091A60218
:103BA00070E010C090913F04992399F06091A502B4
:103BB0009617A0F78091A602899FC001112470E09A
:103BC0000E94E7296038710540F46115710519F408
:103BD00006C061E070E0862F08958FE7089581E0C8
:103BE0000895803F21F40E946F1D819504C0813F9C
:103BF00029F40E946F1D809342040895823F21F4AE
:103C00000E946F1D819504C0833F29F40E946F1D9F
:103C1000809341040895893F19F40E94B81D05C09E
:103C20008A3F31F40E94B81D819580934304089522
:103C30008B3F21F40E94B81D819504C08C3F29F46C
:103C40000E94B81D809344040895843F21F480911C
:103C50004004816017C0853F21F480914004826058
:103C600011C0863F21F48091400484600BC0873FDF
:103C700021F480914004886005C0883F31F4809130
:103C8000400480618093400408958D3F21F4809129
:103C90003E0481600BC08E3F21F480913E0482601F
:103CA00005C08F3F29F480913E04846080933E04D8
:103CB0000895803F39F48091420487FF6CC01092D0
:103CC000420469C0813F29F4809142041816BCF374
:103CD00062C090914104823F29F497FF5CC010922A
:103CE000410459C0833F19F41916CCF354C0893FDD
:103CF00041F48091430418160CF04DC01092430417
:103D00004AC08A3F29F48091430487FF44C0F6CF1C
:103D10008B3F39F48091440487FF3DC010924404E6
:103D20003AC08C3F29F4809144041816BCF333C088
:103D3000843F21F4809140048E7F17C0853F21F499
:103D4000809140048D7F11C0863F21F48091400412
:103D50008B7F0BC0873F21F480914004877F05C093
:103D6000883F31F4809140048F7E8093400413C0DB
:103D70008D3F21F480913E048E7F0BC08E3F21F455
:103D800080913E048D7F05C08F3F29F480913E04D1
:103D90008B7F80933E048091410481110EC08091FD
:103DA000420481110AC080914304811106C08091B0
:103DB0004404811102C010923F04089580E494E00D
:103DC0000E9434100E94D91C90933D0480933C04BF
:103DD00008951F93CF93DF9380913C0490913D040D
:103DE0000E94E51CAC0190913F04992321F02091A1
:103DF000A90230E006C02091AA028AE0289F900123
:103E000011244217530708F485C080914104C091E2
:103E10004204D091430410914404811107C0C111A0
:103E200075C0D11173C0111171C074C09F3F19F0DA
:103E30009F5F90933F04181624F40E946F1D809397
:103E400041048091410487FF05C00E946F1D819548
:103E5000809341041C1624F40E946F1D8093420439
:103E60008091420487FF05C00E946F1D8195809359
:103E7000420460914104662331F1C0914204CC2395
:103E800011F1062E000C770B880B990B0E94EE287F
:103E900023E333E343E35FE30E9452290E94B62801
:103EA000609341046C2FCC0F770B880B990B0E9409
:103EB000EE2823E333E343E35FE30E9452290E94A9
:103EC000B628609342041D1624F40E94B81D809306
:103ED00043048091430487FF05C00E94B81D81956B
:103EE00080934304111624F40E94B81D8093440467
:103EF0008091440487FF05C00E94B81D819580937E
:103F00004404DF91CF911F910C94DE1E9F3F09F076
:103F10008FCFA0CFDF91CF911F910895E0E4F4E01F
:103F200085E0DF011D928A95E9F710923F04109217
:103F30003E040895833081F128F4813059F08230B5
:103F4000D1F00895853009F449C0B8F1863009F4FC
:103F500056C008958091AA02262F30E0280F311D07
:103F60002F3F310524F4680F6093AA0208958FEF64
:103F70008093AA0208958091A902262F30E0280F8D
:103F8000311D2F3F310524F4680F6093A902089575
:103F90008FEF8093A90208958091A802262F30E028
:103FA000280F311D2F3F310524F4680F6093A802BC
:103FB00008958FEF8093A80208958091A702262F7D
:103FC00030E0280F311D2F3F310524F4680F609336
:103FD000A70208958FEF8093A70208958091A6020B
:103FE000262F30E0280F311D2F3F310524F4680FB4
:103FF0006093A60208958FEF8093A60208958091A2
:10400000A502262F30E0280F311D2F3F310524F463
:10401000680F6093A50208958FEF8093A50208951D
:10402000833011F128F4813049F0823091F0089505
:10403000853081F120F18630C1F108958091AA0286
:10404000681720F4861B8093AA0208951092AA0292
:1040500008958091A902681720F4861B8093A90215
:1040600008951092A90208958091A802681720F47B
:10407000861B8093A80208951092A802089580914B
:10408000A702681720F4861B8093A7020895109258
:10409000A70208958091A602681720F4861B8093DA
:1040A000A60208951092A60208958091A5026817AD
:1040B00020F4861B8093A50208951092A50208950E
:1040C0000F931F9341E050E060E070E08A019B0194
:1040D00004C0000F111F221F331F8A95D2F7C90198
:1040E000B8010E942C191F910F910C944015873232
:1040F00008F04DC08E3108F092C0803109F47CC0C8
:1041000008F5873009F468C068F4863009F08EC07D
:1041100080913604817F8E7F8093360481E0809386
:10412000460408958B3009F47DC08E3009F07EC0BE
:104130008091360482FB222720F991E0922790FBA0
:1041400082F963C0863109F46DC088F4813109F0C9
:104150006DC00E9440158091690487FB222720F9D9
:1041600091E0922790FB87F9809369045BC08931C5
:1041700009F458C08B3109F059C08091360481FB95
:10418000222720F991E0922790FB81F93EC08833E5
:1041900009F448C050F4893209F446C0853309F463
:1041A00043C0873209F440C041C08334E9F120F4B0
:1041B0008A33E0F1895334C08834C1F50E94401538
:1041C0002FEF83ED90E3215080409040E1F700C055
:1041D00000000E94341D26C090913604892F8095DE
:1041E000817080FB90F9909336048823D9F0966013
:1041F00098609093360408958091360483FB2227BB
:1042000020F991E0922790FB83F98093360499235B
:1042100049F08091360481608093360403C08D514B
:104220000E94602081E0089580E0FACF80E0089548
:1042300080E008950C9418218E518A3030F4E82FD4
:10424000F0E0E25AFC4F8081089580E00895CF931A
:10425000C82F80914604813079F018F08230E9F15E
:1042600086C0E091A302F091A4028081813169F0BF
:10427000823209F07EC009C0E091A302F091A4024D
:104280008081813111F0823261F48C2F0E941A21D9
:10429000811104C08C2F0E9477201DC081E090E026
:1042A0001AC08C2F0E941821811114C0C43179F0DA
:1042B00048F4CB3079F0C03109F05FC082E08093E0
:1042C000460408C0C93219F0C83321F056C0109214
:1042D000460453C081E0817052C0C93281F110F5AB
:1042E000C43169F1A8F4C73009F045C08AE0809371
:1042F000AA0294E19093A90293E09093A80280937C
:10430000A70288E08093A60288E28093A50233C0CA
:1043100082EE8C0F863078F58C2F0E941C218093C2
:10432000450429C0CE34E9F020F4CB3421F56AE00D
:1043300013C0C13579F0C235F1F461E00DC0809150
:104340004504882319F01092450415C081E080933C
:10435000460415C061E006C0809145040E949A1F82
:104360000AC06AE0809145040E94102004C01092A7
:10437000460480E004C081E002C080E0ACCFCF9171
:104380000895809167040895CF93DF9300D01F9222
:10439000CDB7DEB79C0180916F04843019F593E0AE
:1043A00099833B832A839093E9008FEF9091E800F3
:1043B000815095FD06C095ED9A95F1F700008111A9
:1043C000F5CF8091E80085FF0DC040E050E063E04C
:1043D00070E0CE0101960E9422248091E8008E7741
:1043E0008093E8000F900F900F90DF91CF91089588
:1043F000CF93DF9300D01F92CDB7DEB720916F042B
:10440000243021F522E029839B838A8383E08093F3
:10441000E9008FEF9091E800815095FD06C095ED81
:104420009A95F1F700008111F5CF8091E80085FFA2
:104430000DC040E050E063E070E0CE0101960E94C4
:1044400022248091E8008E778093E8000F900F90EF
:104450000F90DF91CF91089520916F042430F1F4F3
:1044600022E02093E9002FEF3091E800215035FD44
:1044700006C035ED3A95F1F700002111F5CF2091F6
:10448000E80025FF0BC040E050E065E070E00E94CE
:1044900022248091E8008E778093E8000895CF93DE
:1044A000DF93EC0190916F04943009F046C0809145
:1044B000B5028823D9F08091690487FF17C09093D3
:1044C000E9008FEF9091E800815095FD06C095E1DD
:1044D0009A95F1F700008111F5CF8091E80085FFF2
:1044E0002CC040E050E060E270E017C081E08093B3
:1044F000E9008FEF9091E800815095FD06C095EDA1
:104500009A95F1F700008111F5CF8091E80085FFC1
:1045100014C040E050E068E070E0CE010E94222428
:104520008091E8008E778093E80080E2FE01A7E4A6
:10453000B4E001900D928A95E1F7DF91CF91089553
:1045400080916E04811109C00E94B3250E9410263B
:104550008091E20084608093E200089510926E04DE
:104560000895089508950C94A11C42E061EC81E047
:104570000E942C2542E061EC82E00E942C2542E062
:1045800061EC83E00E942C2542E261EC84E00C9413
:104590002C2580917104833009F455C030F48130AA
:1045A00071F0823009F48EC008958A3009F47AC01F
:1045B0008B3009F460C0893009F09CC020C0809124
:1045C0007004813A09F096C08091E800877F80935B
:1045D000E8008091740490917504892B21F460E2C5
:1045E00087E494E003C060E080E090E070E00E9427
:1045F0006D248091E8008B778093E8000895809186
:104600007004813209F076C0809174049091750431
:10461000009719F0039709F06DC08091E800877F3B
:104620008093E8008091E80082FD05C080916F04CE
:104630008111F8CF5FC08091F10080936704809171
:10464000E8008B7753C080917004813A09F052C022
:104650008091740490917504892B09F04BC080916E
:10466000E800877F8093E8008091E80080FFFCCF1E
:104670008091B50236C0809170048132D9F5809165
:10468000740490917504892BA9F58091E800877FC7
:104690008093E8000E946125809172048093B502A6
:1046A0000C94401580917004813221F58091E800CE
:1046B000877F8093E8000E94612580917304809336
:1046C0006804089580917004813AA1F48091E80013
:1046D000877F8093E8008091E80080FFFCCF809185
:1046E00068048093F1008091E8008E778093E80061
:1046F0000C946125089584B7877F84BF0FB6F89422
:10470000A89580916000886180936000109260009D
:104710000FBE80E880936100109261000E946C10CF
:104720000E94B3250E9410268091E200846080934D
:10473000E20078940E949B280E946E108BEA92E01F
:104740000E94181080916F04853069F40E94601CEB
:1047500080916D048823B1F30E948D1C882391F30E
:104760000E940C24EFCF0E947410ECCF292F332726
:1047700023303105C9F060F42130310581F0223059
:10478000310509F041C08DE690E02EE53CE040C0E7
:1047900021323105E1F02232310531F135C082E1BB
:1047A00090E02BEC3CE034C099278130910549F032
:1047B00028F0029749F5EAE2FCE005C0EAE5FCE0F2
:1047C00002C0E2E4FCE0849190E09F0121C06430EB
:1047D000D8F4E62FF0E0EE0FFF1FEC58FC4F2081DD
:1047E000318189E090E014C0643070F470E0FB0126
:1047F000EE0FFF1FE459FC4F20813181FB01E85986
:10480000FC4F808190E004C080E090E020E030E048
:10481000FA0131832083089580E189BD82E189BD59
:1048200009B400FEFDCF8091D8008F7D8093D80021
:104830008091E00082608093E0008091E00081FD43
:10484000FCCF0895CF92DF92EF92FF920F931F93C8
:10485000CF93DF93EC018B017A010E9480258111B7
:1048600033C0E114F10439F0F70180819181081B14
:10487000190BC80FD91FC12CD12C0115110519F125
:104880008091E80085FD16C08091E8008E778093C6
:10489000E800E114F10449F0F70180819181C80E2C
:1048A000D91ED182C08285E00FC00E948025882356
:1048B00021F30AC089918093F10001501109FFEFA3
:1048C000CF1ADF0ADACF80E0DF91CF911F910F91ED
:1048D000FF90EF90DF90CF90089520917604309173
:1048E00077042617370748F06115710539F42091D0
:1048F000E8002E772093E80001C0B901FC0120E018
:104900006115710579F180916F048823F1F185308B
:10491000F1F18091E80083FD3CC08091E80082FDC8
:104920002EC08091E80080FFEBCF2091F3008091B2
:10493000F20090E0922B6115710551F088309105DD
:1049400038F421912093F100615071090196F3CF61
:1049500021E0089709F020E08091E8008E778093AD
:10496000E800CECF2111CFCF0AC080916F048823F9
:1049700061F0853061F08091E80083FD0AC080918C
:10498000E80082FFF2CF80E0089582E0089583E09E
:10499000089581E0089520917604309177042617D8
:1049A000370748F06115710539F42091E8002E773A
:1049B0002093E80001C0B901FC0120E061157105F8
:1049C00091F180916F04882309F440C0853009F487
:1049D0003FC08091E80083FD3DC08091E80082FDEA
:1049E0002FC08091E80080FFE9CF2091F3008091F3
:1049F000F20090E0922B6115710559F08830910515
:104A000040F424912093F100319661507109019690
:104A1000F2CF21E0089709F020E08091E8008E773E
:104A20008093E800CBCF2111CCCF0AC080916F04D6
:104A3000882361F0853061F08091E80083FD0AC031
:104A40008091E80082FFF2CF80E0089582E008952F
:104A500083E0089581E00895982F973068F590934A
:104A6000E900981739F07091EC002091ED00509119
:104A7000F00003C0242F762F50E021FD02C09F5F7D
:104A8000ECCF3091EB003E7F3093EB003091ED00A6
:104A90003D7F3093ED003091EB0031603093EB00BF
:104AA0007093EC002093ED005093F0002091EE0005
:104AB00027FDE5CF80E008958F708093E90081E0C5
:104AC00008958091700487FF11C08091E80082FDF5
:104AD00005C080916F048111F8CF11C08091E8006A
:104AE0008B770BC080916F04882349F08091E80098
:104AF00080FFF8CF8091E8008E778093E8000895DA
:104B00002091E4003091E50095E64091EC00842F7F
:104B1000817040FF23C08091E80080FD1DC080911E
:104B20006F04882399F0853099F08091EB0085FD22
:104B300011C04091E4005091E5002417350729F396
:104B4000915011F09A01E1CF84E0089582E0089538
:104B500083E0089581E0089580E008954091E800A1
:104B600042FFDDCF08950E9421260E942926E0EE13
:104B7000F0E0808181608083E8EDF0E080818F77D4
:104B8000808319BCA7EDB0E08C918E7F8C938081DF
:104B90008F7E808310926E0408950F931F93CF939E
:104BA000DF930E9421260E942926C8EDD0E088814B
:104BB0008F77888388818068888388818F7D8883C8
:104BC00019BC10926F0410926B0410926D04109235
:104BD0006C0400EE10E0F80180818B7F8083888177
:104BE0008160888342E060E080E00E942C25E1EE55
:104BF000F0E080818E7F8083E2EEF0E08081816052
:104C00008083808188608083F80180818E7F8083AB
:104C1000888180618883DF91CF911F910F910895E2
:104C2000E8EDF0E080818F7E8083E7EDF0E0808129
:104C30008160808384E082BF81E080936E040C9465
:104C4000CD25E8EDF0E080818E7F80831092E20038
:104C500008951092DA001092E10008951F920F92C9
:104C60000FB60F9211242F933F934F935F936F933F
:104C70007F938F939F93AF93BF93EF93FF93809115
:104C8000E10082FF0BC08091E20082FF07C08091AB
:104C9000E1008B7F8093E1000E949A288091DA00E6
:104CA00080FF1FC08091D80080FF1BC08091DA0078
:104CB0008E7F8093DA008091D90080FF0DC080E163
:104CC00089BD82E189BD09B400FEFDCF81E08093FA
:104CD0006F040E94A02205C019BC10926F040E94AC
:104CE000AE228091E10080FF19C08091E20080FF38
:104CF00015C08091E2008E7F8093E2008091E200F7
:104D000080618093E2008091D80080628093D80017
:104D100019BC85E080936F040E94B2228091E1006B
:104D200084FF30C08091E20084FF2CC080E189BD07
:104D300082E189BD09B400FEFDCF8091D8008F7D4E
:104D40008093D8008091E1008F7E8093E100809174
:104D5000E2008F7E8093E2008091E2008160809388
:104D6000E20080916B04882311F084E007C08091F9
:104D7000E30087FD02C081E001C083E080936F04FF
:104D80000E94B3228091E10083FF29C08091E2005C
:104D900083FF25C08091E100877F8093E10082E05E
:104DA00080936F0410926B048091E1008E7F80935A
:104DB000E1008091E2008E7F8093E2008091E2002A
:104DC00080618093E20042E060E080E00E942C2558
:104DD0008091F00088608093F0000E94B122FF91E2
:104DE000EF91BF91AF919F918F917F916F915F9163
:104DF0004F913F912F910F900FBE0F901F901895DC
:104E00001F920F920FB60F9211242F933F934F933F
:104E10005F936F937F938F939F93AF93BF93CF9342
:104E2000DF93EF93FF93C091E900CF708091EC0086
:104E3000D82FD17080FDD0E81092E9008091F00069
:104E4000877F8093F00078940E9444271092E900B5
:104E50008091F00088608093F000CD2BCF70C093DC
:104E6000E900FF91EF91DF91CF91BF91AF919F91B9
:104E70008F917F916F915F914F913F912F910F9003
:104E80000FBE0F901F9018951F93CF93DF93CDB750
:104E9000DEB7AA970FB6F894DEBF0FBECDBFE0E72E
:104EA000F4E08091F100819324E0E837F207C9F73C
:104EB0000E94C9228091E80083FF24C18091700480
:104EC00090917104492F50E04A30510508F01AC101
:104ED000FA01E155FF4F0C94FB29803881F08238AC
:104EE00009F010C1809174048F708093E900809163
:104EF000EB0085FB882780F91092E90006C08091BD
:104F00006C0490916D04911182609091E800977FFC
:104F10009093E8008093F1001092F100C8C0282F10
:104F20002D7F09F0EFC0882319F0823061F0EAC0CC
:104F300080917204813009F0E5C0933009F080E07F
:104F400080936D042BC080917204811127C08091E1
:104F500074048F7009F4D6C08093E9002091EB00AF
:104F600020FF1CC0933021F48091EB00806214C0BC
:104F70009091EB0090619093EB0021E030E0A9016B
:104F800002C0440F551F8A95E2F74093EA00109241
:104F9000EA008091EB0088608093EB001092E900BA
:104FA0008091E800877F86C08111ACC010917204A7
:104FB0001F778091E3008078812B8093E3008091BC
:104FC000E800877F8093E8000E9461258091E800D7
:104FD00080FFFCCF8091E30080688093E300111193
:104FE00002C082E001C083E080936F048BC08058D0
:104FF000823008F087C080917204909173048C3DD8
:1050000053E0950779F583E08A838AE289834FB775
:10501000F894DE01139620E03EE051E2E32FF0E049
:1050200050935700E49120FF03C0E295EF703F5F7B
:10503000EF708E2F90E0EA3010F0C79601C0C09656
:105040008D939D932F5F243149F74FBF8091E800E6
:10505000877F8093E8006AE270E0CE0101960E94AB
:105060006D2414C0AE014F5F5F4F609174040E94C5
:10507000B623BC01892B09F445C09091E800977FC5
:105080009093E80089819A810E94CB248091E80066
:105090008B778093E80036C08038A1F58091E800D6
:1050A000877F8093E80080916B048093F10080916A
:1050B000E8008E778093E8000E94612523C081116B
:1050C00021C0809172049091730499270297D4F4BF
:1050D0008091E800877F8093E8008091720480933C
:1050E0006B040E94612580916B04811106C0809140
:1050F000E30087FD02C081E001C084E080936F047B
:105100000E94B5228091E80083FF0AC08091E800E8
:10511000877F8093E8008091EB0080628093EB00B2
:10512000AA960FB6F894DEBF0FBECDBFDF91CF9128
:105130001F9108950895CF9380916F048823A1F063
:10514000C091E900CF709091EC00892F817090FDA3
:1051500080E8C82B1092E9008091E80083FD0E944E
:105160004427CF70C093E900CF9108950E94BD28D5
:105170006894B1110C944C2908950E94312988F04B
:105180009F5798F0B92F9927B751B0F0E1F0660F0B
:10519000771F881F991F1AF0BA95C9F714C0B1304C
:1051A00091F00E944B29B1E008950C944B29672F90
:1051B000782F8827B85F39F0B93FCCF3869577957B
:1051C0006795B395D9F73EF4909580957095619564
:1051D0007F4F8F4F9F4F0895E89409C097FB3EF48F
:1051E00090958095709561957F4F8F4F9F4F992334
:1051F000A9F0F92F96E9BB279395F69587957795B2
:105200006795B795F111F8CFFAF4BB0F11F460FF71
:105210001BC06F5F7F4F8F4F9F4F16C0882311F0C9
:1052200096E911C0772321F09EE8872F762F05C0DD
:10523000662371F096E8862F70E060E02AF09A9578
:10524000660F771F881FDAF7880F9695879597F96D
:10525000089557FD9058440F551F59F05F3F71F066
:105260004795880F97FB991F61F09F3F79F08795CD
:105270000895121613061406551FF2CF4695F1DF56
:1052800008C0161617061806991FF1CF86957105E6
:10529000610508940895E894BB2766277727CB011A
:1052A00097F908950E9465290C94D6290E94C8296F
:1052B00038F00E94CF2920F0952311F00C94BF29DB
:1052C0000C94C52911240C944C290E94292970F3AF
:1052D000959FC1F3950F50E0551F629FF001729F9B
:1052E000BB27F00DB11D639FAA27F00DB11DAA1FAA
:1052F000649F6627B00DA11D661F829F2227B00DF7
:10530000A11D621F739FB00DA11D621F839FA00D81
:10531000611D221F749F3327A00D611D231F849FD1
:10532000600D211D822F762F6A2F11249F57504028
:105330009AF0F1F088234AF0EE0FFF1FBB1F661FA3
:10534000771F881F91505040A9F79E3F510580F06C
:105350000C94BF290C944C295F3FE4F3983ED4F39E
:10536000869577956795B795F795E7959F5FC1F710
:10537000FE2B880F911D9695879597F9089597F9BB
:105380009F6780E870E060E008959FEF80EC0895EB
:1053900000240A9416161706180609060895002414
:1053A0000A9412161306140605060895092E03948E
:1053B000000C11F4882352F0BB0F40F4BF2B11F402
:1053C00060FF04C06F5F7F4F8F4F9F4F089597FB23
:1053D000072E16F4009407D077FD09D00E94012A09
:1053E00007FC05D03EF4909581959F4F08957095E8
:1053F00061957F4F0895EE0FFF1F0590F491E02D0A
:105400000994AA1BBB1B51E107C0AA1FBB1FA6170B
:10541000B70710F0A61BB70B881F991F5A95A9F75D
:1054200080959095BC01CD010895F999FECF92BD6C
:1054300081BDF89A992780B50895A8E1B0E042E0CF
:1054400050E00C943D2A262FF999FECF92BD81BDE4
:10545000F89A019700B4021639F01FBA20BD0FB6B2
:10546000F894FA9AF99A0FBE08950196272F0E9490
:10547000242A0C94232ADC01CB01FC01F999FECFEC
:1054800006C0F2BDE1BDF89A319600B40D924150CC
:0A5490005040B8F70895F894FFCFDC
:10549A00050000D808E40800000000000000000031
:1054AA00000000050F150F00000000000000009D1D
:1054BA00020000050F150F0000000000000000990F
:1054CA00020000050F150F00000000000000009503
:1054DA00020000050F150F000000000000000091F7
:1054EA00020000050F150F00000000000000008DEB
:1054FA00020000050F150F000000000000000089DF
:10550A00020000050F150F000000000000000085D2
:10551A00020000050F150F000000000000000081C6
:10552A00020000050F150F00000000000000007DBA
:10553A00020000050F150F000000000000000079AE
:10554A00020000050F150F000000000000000075A2
:10555A00020000050F150F00000000000000007196
:10556A00020000050F150F00000000000000006D8A
:10557A00020000050F150F0000000000000000697E
:10558A00020000050F150F00000000000000006572
:10559A00020000050F150F00000000000000006166
:1055AA00020000050F150F00000000000000005D5A
:1055BA00020000050F150F0000000000000000594E
:1055CA00020000050F150F00000000000000005542
:1055DA00020000050F150F00000000000000005136
:1055EA00020F0010300E000F300D000E304D004D2E
:1055FA00024A004A024E004F044B00500434003461
:10560A00022E0245002D00440027004300260042D6
:10561A0000250041002400400023003F0022003EF4
:10562A000021003D0020003C001F003B001E003A04
:10563A000020FF130428080A03140AC1214F222C50
:10564A0022F821C42101000D010D020D030D040DE4
:10565A00050D000C010C020C030C040C050C000BCC
:10566A00010B020B030B040B050B000A010A020AC9
:10567A00030A040A050A00090109020903090409BF
:10568A0005090008010802080308040805080007BC
:10569A0001070207030704070507000601060206B9
:1056AA0003060406050600050105020503050405AF
:1056BA0005050004010402040304040405040003AC
:1056CA0001030203030304030503000201020202A9
:1056DA00030204020502000101010201030104019F
:1056EA000501000001000200030004000500010298
:1056FA000304050607080900404D3639990D4C0D7B
:0C570A00160DDD0C700C890CA20CBB0C01
:00000001FF
