:100000000C946F040C94B6040C94B6040C94B604CF
:100010000C94B6040C94B6040C94B6040C94B60478
:100020000C94B6040C94B6040C9493210C946522A1
:100030000C9402180C94B6040C94B6040C94B604F8
:100040000C94B6040C94B6040C94B6040C94B60448
:100050000C94B6040C946A180C94B6040C94B60470
:100060000C94B6040C94B6040C94B6040C94B60428
:100070000C94B6040C94B6040C94B6040C94B60418
:100080000C94B6040C94B6040C94B6040C94B60408
:100090000C94B6040C94B6040C94B6040C94B604F8
:1000A0000C94B6040C94B6040C94B6045D06620677
:1000B00067066C06710676067B068006140716072F
:1000C000210718071A071C071E0720072307250703
:1000D0002707320729072B072D072F07310734077A
:1000E000680E680EA20EA20ED70EF70E22105E103A
:1000F000020F5E10B20FB20F1A105E105E10591090
:10010000BF0FBF0FBF0FBF0FBF0FBF0FBF0FBF0F7F
:10011000BF0FBF0FBF0FBF0FBF0FBF0FBF0FBF0F6F
:10012000D10FDE0FE50FEC0FF60FD910D910EB1041
:10013000EB10E210EB10EB10EB10D910D910E71018
:10014000EB10EB10E710D222F422E223F422E22398
:1001500039235C23E223B123C42323202D2A2D201D
:10016000636F64696E673A207574662D38202D2A96
:100170002D200A2727270A43726561746564206F62
:100180006E200A0A40617574686F723A20596F7563
:100190006E67204A75204B696D0A272727002320A8
:1001A0002D2A2D20636F64696E673A207574662D61
:1001B00038202D2A2D200A2727270A4372656174CB
:1001C0006564206F6E200A0A40617574686F723A28
:1001D00020596F756E67204A75204B696D0A272775
:1001E000270023202D2A2D20636F64696E673A2033
:1001F0007574662D38202D2A2D200A2727270A43BB
:10020000726561746564206F6E200A0A40617574BE
:10021000686F723A20596F756E67204A75204B6976
:100220006D0A2727270023202D2A2D20636F64695C
:100230006E673A207574662D38202D2A2D200A27E6
:1002400027270A43726561746564206F6E200A0A6D
:1002500040617574686F723A20596F756E67204AF5
:1002600075204B696D0A2727270023202D2A2D2072
:10027000636F64696E673A207574662D38202D2A85
:100280002D200A2727270A43726561746564206F51
:100290006E200A0A40617574686F723A20596F7552
:1002A0006E67204A75204B696D0A2727270027258E
:1002B00059256D25642548254D2553256627003C85
:1002C0002D006572676F646F782F6461776B696E5C
:1002D000792040203664346464342D646972747902
:1002E000000000F0A1F0A229002B003500E100E0A1
:1002F0000000001E00140004001D00E2014D001F5C
:10030000001A0016001B00E3002A00200008000766
:1003100000060065002C002100150009001900E20C
:10032000004A00220017000A000500000050003EAD
:10033000012E000000C10000004F0023000130002A
:100340000028010000500024001C000B00110000D8
:10035000004F00250018000D001000E60052002696
:10036000000C000E003600E4002800270012000FE9
:100370000037002F004C002D0013003300380030F0
:100380000051002E0231003400E500C200000000E0
:1003900030010001000100013000003A00170501A2
:1003A00000010001004D023B0001000100010001BD
:1003B000002A003C00023003300100010028003D0B
:1003C000002F022F00260201004A023E00300230B8
:1003D000002702000050003F003400000001000030
:1003E000004F0040003502000001000000500141B4
:1003F00000240021001E0000004F014200250022C1
:10040000001F0027004B0043002600230020003778
:10041000002C0044002E022502360050004C0045FE
:10042000002D003800520051004E00010001000173
:100430000001004F0000002900010001000100E060
:100440000000003A0001000100010001004E003BE5
:100450000001005000010001002A003C0052005140
:1004600000010001002C003D0001004F00010001CF
:10047000004B003E0001000100010000004A023F65
:100480000001000000010000004D024000010000DA
:1004900000010000005000410001000100010000C7
:1004A000004F004200010001000100010052004322
:1004B00000010001000100010028004400010001CA
:1004C00000010036004C0045000100010001000160
:1004D000005100010001000100010001000000299D
:1004E000002B003500E100E00000001E00140004B5
:1004F000001D00E2014E001F001A0016001B00E361
:10050000004C00200008000700060065002C0021B8
:1005100000150009001900E2004B00220017000A34
:1005200000050000004A0003532E000000015300A4
:10053000004D002300013000003E0100004A00246D
:10054000001C000B00110000004D00250018000DDC
:10055000001000E6004B0026000C000E0036002CB8
:10056000022800270012000F0037002F004C002D3A
:100570000013003300380030004E002E02310034EA
:10058000000157C100000029002B003500E100E008
:100590000000001E00140004001D00E2014E001FB8
:1005A000001A0016001B00E3002A002000080007C4
:1005B00000060065002C002100150009001900E26A
:1005C000004B00220017000A00050000004A00034B
:1005D000532E000000015300004D002300013000A5
:1005E000003E010000500024001C000B0011000020
:1005F000004F00250018000D001000E600520026F4
:10060000000C000E0036002C022800270012000FFC
:100610000037002F004C002D00130033003800304D
:100620000051002E0231003400E500C1000000003E
:10063000000000000000002A2B280000000000003D
:100640000000000000000000000029000000002C55
:100650001E3420212224342627252E362D373827F4
:100660001E1F202122232425263333362E37381F00
:100670000405060708090A0B0C0D0E0F10111213C2
:100680001415161718191A1B1C1D2F3130232D3560
:100690000405060708090A0B0C0D0E0F10111213A2
:1006A0001415161718191A1B1C1D2F3130354C0044
:1006B000000000000000000000000000000000003A
:1006C000000000000000000000000000000000002A
:1006D0000101010101010001010101000000000010
:1006E0000000000000000000000100010001010105
:1006F00001010101010101010101010101010101EA
:1007000001010101010101010101000000010100DD
:1007100000000000000000000000000000000000D9
:1007200000000000000000000000010101010016AF
:10073000034500720067006F0044006F00780020DE
:100740000045005A00000016034500720067006F64
:100750000044006F007800200045005A00000004AB
:1007600003090409026D00040100A0FA0904000055
:1007700001030101000921110100012240000705C8
:10078000810308000A090401000103010200092194
:1007900011010001224D000705820308000A090427
:1007A00002000103000000092111010001223600AE
:1007B0000705830308000A09040300010300000081
:1007C00009211101000122390007058403200001DD
:1007D0001201100100000008EDFE071301000102E4
:1007E000000105010906A101050719E029E7150027
:1007F000250195087501810205081901290595054E
:10080000750191029501750391010507190029F7FA
:100810001500250195F875018102C005010980A127
:1008200001850216810026B7001A81002AB70075DB
:100830001095018100C0050C0901A1018503160175
:1008400000269C021A01002A9C0275109501810065
:10085000C005010902A1010901A100050919012929
:100860000515002501950575018102950175038126
:10087000010501093009311581257F95027508812F
:100880000609381581257F950175088106050C0A32
:1008900038021581257F950175088106C0C00501C4
:1008A0000906A101050719E029E7150025019508AA
:1008B0007501810295017508810105081901290555
:1008C00095057501910295017503910105071900C0
:1008D00029FF150026FF00950675088100C0112428
:1008E0001FBECFEFDAE0DEBFCDBF04B603FE27C0E8
:1008F0008091D6029091D702A091D802B091D902EE
:100900008730904BA740B04BD1F41092D602109292
:10091000D7021092D8021092D90214BE84B7877FF2
:1009200084BF0FB6F894A895809160008861809389
:100930006000109260000FBEE0E0FFE3099511E057
:10094000A0E0B1E0EAE5FBE402C005900D92AC3D09
:10095000B107D9F722E0ACEDB1E001C01D92A63D90
:10096000B207E1F70E94DA1E0C94AB250C9400004C
:100970001092B9008AE08093B800089594EA9093A9
:10098000BC009091BC0097FFFCCF9091B900987F7C
:10099000983021F0903111F081E008958093BB00F0
:1009A00084E88093BC008091BC0087FFFCCF8091DD
:1009B000B900887F883111F0803471F780E00895A4
:1009C00084E98093BC008091BC0084FDFCCF089535
:1009D0008093BB0084E88093BC008091BC0087FFBB
:1009E000FCCF9091B900987F81E0983209F480E0C3
:1009F000089584E88093BC008091BC0087FFFCCF01
:100A00008091BB00089580B38C7080BB81B3836FED
:100A100081BB089580910101811115C080E40E947D
:100A2000BE048093010181110CC082E10E94E804A0
:100A300080930101811105C08FEF0E94E80480932B
:100A400001010E94E00484B1807F84B985B1807F78
:100A500085B98AB1837F8AB98BB1837F8BB93E9880
:100A6000469808950C948A060E94B00A809301016A
:100A70000E940A050E940305ADEDB1E0EBEEF1E046
:100A80008EE08E0F11921D928E13FCCF0C949A0A59
:100A90000E94B00A809301010E940A050E9403058A
:100AA000ADEDB1E0EBEEF1E08EE08E0F11921D9214
:100AB0008E13FCCF0895BF92CF92DF92EF92FF92F8
:100AC0000F931F93CF93DF9380910101882379F0D7
:100AD0008091DC018F5F8093DC01811108C00E944E
:100AE000B00A80930101811102C00E94420A0DEDFB
:100AF00011E0C0E0D0E0EE24E394F12CDD24D394A7
:100B000095E0C92EC730D10500F580910101811112
:100B10003CC080E40E94BE0480930101811112C098
:100B200082E10E94E8048093010181110BC0C7019A
:100B30000C2E01C0880F0A94EAF780950E94E80401
:100B4000809301010E94E00420C0CA30A1F028F483
:100B5000C83059F0C93061F005C0CC3089F070F070
:100B6000CD3089F0209A289810C0219A29980DC07C
:100B7000229A2A980AC0239A2B9807C0529A01C039
:100B8000539A5B9802C03E9A469880EA8A95F1F79C
:100B9000C730D10518F580910101811144C080E46E
:100BA0000E94BE0480930101882311F0B12C12C071
:100BB00083E10E94E804809301018111F7CF81E471
:100BC0000E94BE04809301018111F0CF0E94F904BC
:100BD000B82EB0940E94E0048B2D26C08FB1817096
:100BE0008D25799902C092E001C090E0892B7C9913
:100BF00002C024E001C020E0822B7D9902C028E0E1
:100C000001C020E0822B7E9902C090E101C090E0FB
:100C1000892B9FB19095991F9927991F9295990FAC
:100C2000907E892B01C080E0F8019081981719F01F
:100C30008083C09200010E940A0521960F5F1F4F1A
:100C4000CE30D10509F05ECF809100018823A1F05C
:100C5000815080930001882329F0F5E0FA95F1F79F
:100C600000000AC0ABEEB1E0EDEDF1E0CF01825F34
:100C700091919D938E13FCCF0E94CC0781E0DF9170
:100C8000CF911F910F91FF90EF90DF90CF90BF9089
:100C90000895E82FF0E0E551FE4F80810895089512
:100CA000462F50E04830510588F5DC01FA01EA5A38
:100CB000FF4F12968C910C945B25882339F182ECBE
:100CC00092E022C0882311F18FEB92E01DC08823AF
:100CD000E9F08EEA92E018C08823C1F08AE692E03B
:100CE00013C0882399F086E292E00EC0882371F049
:100CF00082EE91E009C0882349F08EE991E004C0BA
:100D0000882321F08AE591E00E94A10780E090E02D
:100D10000895089560916702709168028091690258
:100D200090916A020E94351756985E9825982D98E2
:100D300026982E9827982F98823089F018F48130C1
:100D400031F00895833031F0843039F00895259AD8
:100D50002D9A0895279A2F9A0895259A2D9A269AC2
:100D60002E9A089581E0089581E008950C94B406C8
:100D70000E94C7102FEF84E39CE0215080409040F8
:100D8000E1F700C000000C948F180F931F93CF93CE
:100D9000DF938C01FC01C081D181CE010E94BA1584
:100DA000BE010E946309EC01B8010E94B6068823C7
:100DB00009F4C1C0B801CE010E94F309882309F4E7
:100DC000BAC0B801CE010E946E0B882309F4B3C0EB
:100DD000C531F0E7DF0708F07CC0C23080E7D807F4
:100DE00008F452C0F8018281882309F459C00E9496
:100DF0009F17811102C00E9485170E94B21790E0D0
:100E00009093C8028093C702FE01E350F047E2319D
:100E1000F10530F4E25AFF4F8091C7020C945B2534
:100E20008091C702816027C0826025C0846023C092
:100E3000806121C080621FC080641DC080681BC0AB
:100E40008460886018C08E7F16C08D7F14C08B7F31
:100E500012C08F7E10C08F7D0EC08F7B0CC08F772D
:100E60000AC08B7F877F07C087FB222720F991E08C
:100E7000922790FB87F98093C7028091C7020E9456
:100E8000B6170E94C71057C0C115E0E7DE0779F01A
:100E9000C130D047A1F081E08093F9018093FA013D
:100EA000C801DF91CF911F910F910C94B206F80108
:100EB0008281882309F43FC00E94B8063CC0F80133
:100EC00082818823C1F18091940281608093940291
:100ED00032C0CC3380E7D807A1F4F801828188239F
:100EE00021F01092F90182E016C08091F901811180
:100EF00006C086E20E94FD0C86E20E94D00D82E0D0
:100F000018C0CD33D04739F6F8018281882331F0FB
:100F10001092FA0180E20E941F0E0DC08091FA012A
:100F2000811106C087E20E94FD0C87E20E94D00D6D
:100F300080E20E94260E80E0DF91CF911F910F91F9
:100F400008950F931F93CF938C01F80124912223CE
:100F5000F9F030E0F901E15DF94FC491F901E15593
:100F6000F94F2491222359F081EE0E94FD0C8C2F21
:100F70000E94FD0C8C2F0E94D00D81EE04C08C2F9E
:100F80000E94FD0C8C2F0E94D00D0F5F1F4FDDCFF4
:100F9000CF911F910F9108950C94320508950C94F0
:100FA000CE070C94CF0726E0729FF001112444E590
:100FB000849FE00DF11D1124E60FF11DEE0FFF1FC0
:100FC000E951FD4F859194910E947509811560E466
:100FD0009607B0F5811570E3970708F0E6C0803EEC
:100FE0009105D8F4803C910508F06CC0883A9105D1
:100FF00078F4853A910508F06BC08130910509F4C9
:1010000060C108F417C18430910508F05AC112C1BB
:101010008D3B910508F467C00DC18F3F910509F024
:1010200048F4803F910508F0B5C0883E910508F46A
:1010300048C100C1811520E2920708F0ADC00895B3
:10104000811543E5940790F4811562E5960708F051
:10105000D0C0811571E5970708F0C6C0811520E55D
:10106000920708F0A5C09F70906A0895811545E524
:101070009407D8F4811564E5960708F0D0C0482F8E
:101080004695469570E2479FA001112483709927E9
:1010900021E030E0B90102C0660F771F8A95E2F7C0
:1010A000CB01842B952B9A680895811576E59707D7
:1010B00008F4BAC09C0130562115304108F0BAC07E
:1010C0009F70B6C0FC01EE0FFF1FEF59FE4F6AC0C4
:1010D000853A910509F4B1C0863A910509F0B0C08E
:1010E00082E890E40895883A910509F4ACC0893A01
:1010F000910509F4ABC08A3A910509F4AAC08B3A6C
:10110000910509F4A9C08C3A910509F4A8C08B3B5C
:10111000910509F4A7C08C3B910509F4A6C08D3A4E
:10112000910509F4A5C0803B910509F4A4C08E3A4D
:10113000910509F4A3C08F3A910509F4A2C0813B3F
:10114000910509F4A1C0823B910509F4A0C0833B3D
:10115000910509F49FC0843B910509F49EC0853B2D
:10116000910509F49DC0863B910509F49CC0873B1D
:10117000910509F49BC0883B910509F49AC0893B0D
:10118000910509F499C08A3B910509F498C080E063
:1011900094E4089590650895FC01FF70EE0FFF1F21
:1011A000EF51FD4F8591949108959927906C089582
:1011B000482F437021E030E002C0220F331F4A95D0
:1011C000E2F73C68AC0164E0569547956A95E1F713
:1011D0004370342B8F708695869560E2869FC001A0
:1011E0001124822B932B0895982F8827816F906A62
:1011F0000895482F4695469570E2479FA001112417
:101200008370992721E030E0B90102C0660F771F93
:101210008A95E2F7CB01842B952B9C680895982F33
:101220008827846F906A08958F719927982F88274F
:101230009062089580E090E0089581E890E4089538
:1012400083E890E4089582EE94E4089589EE94E4AE
:1012500008958AEE94E4089585EB94E4089586EB6E
:1012600094E4089583EB94E4089584EB94E4089562
:1012700087EB94E408958CEC94E408958DEC94E469
:10128000089583E895E408958AE895E4089582E94D
:1012900095E4089584E995E4089581E296E408953B
:1012A00083E296E4089584E296E4089585E296E464
:1012B000089586E296E4089587E296E408958AE226
:1012C00096E40895089596E0799FF001112494E53D
:1012D000899FE00DF11D1124E60FF11DEE0FFF1F98
:1012E000E951FD4F8591949108958238910549F116
:1012F000B0F48133910509F458C048F4893291055E
:1013000009F44EC08A32910509F454C0089585331A
:10131000910509F440C08933910599F00895833E01
:10132000910529F138F4803E910591F0823E9105B6
:10133000A1F00895863E9105F9F0873E910531F1BF
:1013400008952091C70220FD3AC021FD38C00895BC
:101350008091C70280FD35C032C08091C70282FFF4
:1013600032C08091C70284FD30C083EE39C08091C5
:10137000C70282FD28C0F5CF8091C70283FF27C036
:101380008091C70284FD21C087EE2AC08091C702E8
:1013900083FD1DC0F5CF8091C70285FD1AC01BC01B
:1013A0008091C70285FD17C014C08091C70286FDD9
:1013B00014C015C08091C70286FD11C00EC080EE1A
:1013C0000FC089E30DC082EE0BC080E009C086EE3D
:1013D00007C089E205C085E303C08AE201C081E35A
:1013E00090E0089508950F931F93CF93FB012281FE
:1013F000211102C0C1E041C08C01C0910802C1119D
:1014000025C085319047B1F70E94F20981E08093B1
:1014100008020E94341890930702809306021092EB
:10142000FB011092FD011092FC011092FF0110923D
:10143000FE0110920102109200021092030210921B
:101440000202109205021092040217C08091060257
:10145000909107020E944018883C910558F690919F
:10146000FB01E92FF0E0EE0FFF1FE450FE4F118368
:1014700000839F5F9093FB01C0E08C2FCF911F9161
:101480000F91089556985E9825982D9826982E9835
:1014900027982F988FEF90E0909389008093880091
:1014A00090938B0080938A0090938D0080938C00A2
:1014B000259A2D9A2FEF80E792E0215080409040AE
:1014C000E1F700C00000269A2E9A2FEF80E792E005
:1014D000215080409040E1F700C00000279A2F9AE9
:1014E0002FEF80E792E0215080409040E1F700C06C
:1014F000000025982D982FEF80E792E02150804042
:101500009040E1F700C0000026982E982FEF80E76A
:1015100092E0215080409040E1F700C00000279801
:101520002F9856985E9825982D9826982E9827984B
:101530002F98089589EA8093800089E08093810044
:1015400024982C983F988AB18F748AB96E98479ADC
:101550008BB1806B8BB9769A0E94420A0C948906F3
:1015600080E2809301018091090281110EC00E94E6
:10157000B80481E0809309022FEF83ED90E32150BE
:1015800080409040E1F700C0000080E40E94BE046B
:101590008093010181112EC00E94E8048093010113
:1015A000811128C00E94E80480930101811122C0AA
:1015B0008FE30E94E8048093010181111BC00E9407
:1015C000E00480E40E94BE0480930101811112C0F6
:1015D0008CE00E94E8048093010181110BC00E94FD
:1015E000E80480930101811105C08FE30E94E804A3
:1015F000809301010E94E004809101010895282F49
:10160000882339F090E02A3010F44D96089506971B
:10161000089587E290E0089580910A02813079F080
:1016200050F08230F1F482EE0E94FD0C87E50E94BA
:10163000FD0C87E514C082EE0E94FD0C12C080EE06
:101640000E94FD0C81EE0E94FD0C88E10E94FD0CC1
:1016500088E10E94D00D81EE0E94D00D80EE0E94A4
:10166000D00D8FE39CE90197F1F700C000000895C9
:1016700080910A02813029F010F0823041F482EE2C
:1016800004C08CE20E94FD0C8CE20C94D00D0895F5
:10169000EF92FF921F93CF93DF937C01CCE0D0E0D9
:1016A00097010C2E02C0369527950A94E2F7122F67
:1016B0001F70812F0E94FF0A0E94FD0C812F0E9443
:1016C000FF0A0E94D00D2497CC3F8FEFD80741F737
:1016D000DF91CF911F91FF90EF900895CF93DF930B
:1016E000813020E8920768F0FB012281222349F033
:1016F000EC010E940C0BCE019F770E94480B0E94C8
:10170000380B81E0DF91CF91089590931002809380
:101710000F020895E0910F02F0911002309721F02E
:101720000190F081E02D099480E00895E0910F028E
:10173000F0911002309721F00280F381E02D09949E
:101740000895E0910F02F0911002309721F004808B
:10175000F581E02D0994089520910D0230910E023B
:101760008217930771F090930E0280930D02E0911F
:101770000F02F0911002309721F00680F781E02DE2
:101780000994089520910B0230910C02821793075F
:1017900071F090930C0280930B02E0910F02F09194
:1017A0001002309721F00084F185E02D099408950E
:1017B00008950C94D80B0E942B180E9434050C94A9
:1017C000B118CF92DF92EF92FF920F931F93CF93B6
:1017D000DF93CDB7DEB72B970FB6F894DEBF0FBE01
:1017E000CDBF0E945B0582E1C82E82E0D82E00E0CA
:1017F00010E0E02E802F0E944906F60141916F0112
:10180000F42EF826B1F40F5F1F4F0E30110589F743
:101810008FEF89838A831B820E9434188160782F1E
:101820009D838C8349815A816B818D810E94C00C7C
:1018300040C09091940291FF04C08B870E944F0694
:101840008B8520E030E04F2D50E0922FBA01022E20
:1018500002C0759567950A94E2F760FF24C02E8355
:10186000EF8221E030E0690102C0CC0CDD1C9A95CA
:10187000E2F790E08C219D21892B09F420E0288754
:101880000E9434188160782F9A8789874E815F8102
:1018900068858A850E94C00CF801EE5EFD4F80814C
:1018A000C826C08206C02F5F3F4F2630310569F63B
:1018B000AACF0E94441A109111020E948A0B181795
:1018C000A1F00E948A0B809311022B960FB6F89418
:1018D000DEBF0FBECDBFDF91CF911F910F91FF9063
:1018E000EF90DF90CF900C94D1072B960FB6F89421
:1018F000DEBF0FBECDBFDF91CF911F910F91FF9043
:10190000EF90DF90CF900895DC0111962C91119704
:101910008C91682F70E041E050E001C0440F8A953F
:10192000EAF712968C91129730E0882329F0809183
:101930002E028823E9F006C0F901E05EFD4F908198
:101940009423B1F086E0829FF001839FF00D112473
:10195000E60FF71FEE0FFF1FEB5EFE4F80819181B8
:101960008D939C93F901E05EFD4F8081482B06C06A
:10197000F901E05EFD4F4095808148234083089542
:10198000CF93DF93CDB7DEB72B970FB6F894DEBFBA
:101990000FBECDBF942F4F83252F588769877A8735
:1019A0008B874A855B85452B21F02F3F09F59F3FAB
:1019B000F9F4DE01119686E0FD0111928A95E9F7AE
:1019C00085E0FE01379601900D928A95E1F74981F5
:1019D0005A816B817C818D819E810E945F132B9641
:1019E0000FB6F894DEBF0FBECDBFDF91CF91089543
:1019F000CE0107960E94840CDCCFCF93882309F494
:101A0000CDC0C82F823859F40E948A0B81FDC6C010
:101A100089E30E9439160E94061789E30CC08338B7
:101A200079F40E948A0B80FDB9C083E50E943916C3
:101A30000E94061783E50E947B16CF910C9406172F
:101A4000843859F40E948A0B82FDA8C087E40E9462
:101A500039160E94061787E4EECF8CEF8C0F813A7F
:101A600048F48C2F0E94861C811198C08C2F0E94F4
:101A70003916E3CF80E28C0F883048F4C77081E0DC
:101A800001C0880FCA95EAF70E94BF16D6CF8BE532
:101A90008C0F833078F4C53A29F0C63A31F083E8E8
:101AA00090E005C081E890E002C082E890E0CF912C
:101AB0000C94AC0B88E58C0F853108F06FC0C83AE8
:101AC00061F1C93A69F1CA3A71F1CB3A79F1CC3A8C
:101AD00081F1CB3B89F1CC3B91F1CD3A99F1C03BFF
:101AE000A1F1CE3AA9F1CF3AB1F1C13BB9F1C23B74
:101AF000C1F1C33BC9F1C43BD1F1C53BD9F1C63BF0
:101B0000E1F1C73BE9F1C83BF1F1C93BF9F1CA3B4F
:101B100009F43FC080E090E03EC082EE90E03BC020
:101B200089EE90E038C08AEE90E035C085EB90E019
:101B300032C086EB90E02FC083EB90E02CC084EBAA
:101B400090E029C087EB90E026C08CEC90E023C0A9
:101B50008DEC90E020C083E891E01DC08AE891E020
:101B60001AC082E991E017C084E991E014C081E2D3
:101B700092E011C083E292E00EC084E292E00BC0DA
:101B800085E292E008C086E292E005C087E292E03A
:101B900002C08AE292E0CF910C94C20BCF910895DB
:101BA000882309F44BC0823859F40E948A0B81FFC4
:101BB00045C089E30E9439160E94061789E30CC0CC
:101BC000833871F40E948A0B80FF38C083E50E943D
:101BD00039160E94061783E50E947B160C9406179F
:101BE000843859F40E948A0B82FF28C087E40E943F
:101BF00039160E94061787E4EFCF9CEF980F913AB1
:101C000058F390E2980F983050F4877091E001C03B
:101C1000990F8A95EAF7892F0E94C516DFCF9BE5B9
:101C2000980F933020F480E090E00C94AC0B885A2D
:101C3000853120F480E090E00C94C20B0895882355
:101C400021F00E94BF160C9406170895882321F0F6
:101C50000E94C5160C94061708958F929F92AF921A
:101C6000BF92CF92DF92EF92FF920F931F93CF9389
:101C7000DF931F92CDB7DEB77C01C72EFC01058133
:101C800002950F701281112321F069830E94DC16E6
:101C9000698169830E9432166981882381F011234A
:101CA00071F080E2860F883050F082E00E941B16AF
:101CB0000E94321691E0D82ED926698101C0D12C1C
:101CC000EC2DE295EF70F0E0E059FF4F0C945B25AE
:101CD0008C2D807F0C2D0F70882311F00295007FD2
:101CE0001123C1F0002309F49BC180E2860F8830E4
:101CF00010F0611105C0802F69830E94BF1604C0D7
:101D0000802F69830E94CF16698169830E9406171C
:101D1000698186C1862F69830E94D00D6981002365
:101D200009F4CCC180E2860F883010F0611104C044
:101D3000802F0E94C51603C0802F0E94D5160E94D6
:101D40000617BCC19C2D907F8C2D8F70903211F0A6
:101D50008295807F662319F06130B1F01EC0112397
:101D600049F0002309F414C1013009F011C10E94A7
:101D7000EF16A4C1002319F0013009F49FC1898333
:101D80000E94F21689810AC1112321F0023008F065
:101D900095C1FEC0011192C101C1112321F00023A0
:101DA00009F4F6C03DC1002309F4F8C03FC18C2DF1
:101DB00086958695837090E0009719F0019761F001
:101DC0007DC1112321F0862F9C2D937002C080E0ED
:101DD00090E00E94AC0B72C1112321F0862F9C2D44
:101DE000937002C080E090E00E94C20B67C1862F12
:101DF000112319F00E944C1902C00E94B4190E94CC
:101E0000391A5CC18C2D837009F052C0111156C172
:101E1000862F829586958770880F880F962F9F70E2
:101E2000892E912CA12CB12C082E04C0880C991C51
:101E3000AA1CBB1C0A94D2F764FF14C00FE010E088
:101E400020E030E0B901A80104C0440F551F661F0F
:101E5000771F8A95D2F7CB01BA016095709580956E
:101E6000909503C060E070E0CB012C2D269526955F
:101E7000237030E02230310569F02330310589F0DC
:101E8000682979298A299B292130310571F00E941E
:101E9000A71414C1682979298A299B290E94C3148F
:101EA0000DC10E94A714C501B4010E948B1406C184
:101EB000112319F08C2D817001C08695882309F4B7
:101EC000FDC0862F829586958770880F880F962F84
:101ED0009F70892E912CA12CB12C082E04C0880C47
:101EE000991CAA1CBB1C0A94D2F764FF14C00FE013
:101EF00010E020E030E0B901A80104C0440F551FF4
:101F0000661F771F8A95D2F7CB01BA01609570954D
:101F10008095909503C060E070E0CB012C2D269554
:101F200026952370422F50E04230510569F043302E
:101F3000510589F0682979298A299B294130510561
:101F400071F00E948115BAC0682979298A299B29D4
:101F50000E949D15B3C00E948115C501B4010E9465
:101F60006515ACC0862F90E0FC01E05EF109E5311B
:101F7000F10508F051C0E058FF4F0C945B25062F87
:101F80000F708C2D8F71112331F00E94FE14802F61
:101F90000E941F0E93C00E941F15802F0E94260EC4
:101FA0008DC0112339F0011189C08C2D8F710E94D1
:101FB000441584C0023008F081C0F7CF112339F0F6
:101FC0008C2D8F710E94FE1479C01123C9F38C2DC2
:101FD0008F710E941F1572C0112329F08C2D8F71F3
:101FE0000E94E9146BC00E94DF1468C0112351F0F5
:101FF0001C2D1F71812F0E94FE1463E0812F0E940F
:1020000012165CC081E00E941B16023008F456C014
:1020100082E00E941B1652C0112331F0002381F28E
:10202000862F0E94FD0C4AC0002389F2862F0E9451
:10203000D00D44C04C2D4F70C7010E9450060E9425
:1020400003143CC0623F99F128F4603F49F0613FBE
:10205000E1F020C0643FA1F050F0653F59F01AC094
:10206000112339F190912E0281E0892706C081E089
:1020700018271DC011111DC081E080932E0219C0C8
:10208000111117C010922E0214C0002381F01111FB
:1020900010C0E8CF002359F0862F6983112319F06F
:1020A0000E94FD0C02C00E94D00D698102C01093F5
:1020B0002E024C2D4F70C7010E946209DD20F1F005
:1020C0000E940E1680FD1AC0F70112820E940816A7
:1020D0000E94FE14C7010E948C100E9408160F90E7
:1020E000DF91CF911F910F91FF90EF90DF90CF90F4
:1020F000BF90AF909F908F900C941F150F90DF9121
:10210000CF911F910F91FF90EF90DF90CF90BF90F4
:10211000AF909F908F9008950F931F93CF93DF936D
:10212000EC01888199812B813C81232BB9F09F3F61
:1021300011F48F3F99F0CE010E94C506882371F0FB
:10214000688179818A810E9404168C010E94B915E8
:102150000E948014B801CE010E942D0EDF91CF9114
:102160001F910F9108950E94DC160E94EC160E94A8
:10217000B1160E9406170E94E91A0E94391A80E0DF
:1021800090E00E94AC0B80E090E00C94C20B0E94A7
:10219000CC160C94B3100E94F915E92FE295EF705C
:1021A000F0E03297EE30F105B0F4EB56FF4F0C94AF
:1021B0005B25803F91F018F4803E68F40EC0843FA8
:1021C00051F40BC0803E48F0813F29F406C093FBD8
:1021D000882780F9089580E0089581E00895CF93DD
:1021E000DF9300D000D01F92CDB7DEB70F900F90D5
:1021F0000F900F900F90DF91CF910895CF93DF93C1
:1022000000D000D000D0CDB7DEB726960FB6F89438
:10221000DEBF0FBECDBFDF91CF9108951F93CF9347
:10222000DF93C0912F0216E080913002C81799F019
:10223000D0E01C9FF0011D9FF00D1124EF5CFD4FBD
:102240004081518162817381848195810E94FE1059
:102250002196C770E9CFDF91CF911F9108954091EA
:1022600061025091620260916302709164028091F8
:102270006502909166020C94FE1080916602829530
:102280008F7009F054C080916302882309F44FC015
:1022900080912F02A09130026091610270916202E0
:1022A0004091640250916502B6E08A1709F43FC07C
:1022B00090E041155105C1F17F3F11F46F3FA1F14D
:1022C000B89FF001B99FF00D1124EF5CFD4F218103
:1022D00072132AC02081621327C02281211124C0D9
:1022E000238134812417350710F421503109241B30
:1022F000350B283C3105C0F4209166022F70206117
:102300002093660226E0289FF001299FF00D1124FA
:10231000EA5CFD4F80818F708061808381E692E06E
:102320000E948C100C940E1101968770BECF0895F8
:10233000CF92DF92EF92FF920F931F93CF93DF9391
:10234000CDB7DEB762970FB6F894DEBF0FBECDBF34
:102350008C0185E0F801DE011D9601900D928A95B1
:10236000E1F7D8014C9111965C91119712966C91FE
:1023700012971396CD90DC90149730916102709172
:1023800062028091640290916502009709F46BC12A
:102390007F3F19F43F3F09F466C1E0906302EE20ED
:1023A00009F4C0C020916602C816D90628F0F601CB
:1023B000E81BF90BCF0104C0809590958C0D9D1DF5
:1023C000FF24F394883C910578F0F12C207F09F0EC
:1023D000C6C07C2DD98AC88A89890E94EF1081E6FF
:1023E00092E00E948C10B1C0822F807F09F046C01D
:1023F000751314C0341312C0611110C02F70206106
:10240000209366020E942F1181E692E00E948C10B8
:1024100080916602D80115968C932EC0CD2819F1B3
:102420005F3F11F44F3FF9F0F62E61111CC080910F
:102430002F022091300236E0821709F45AC090E052
:10244000389FF001399FF00D1124EF5CFD4F718131
:10245000571306C07081471303C07281711103C006
:1024600001968770E9CFF62E662309F418C1809192
:102470006602816080936602F12C11C1751308C059
:10248000341306C0611104C080916602D801C3C034
:102490004D875E878D859E856A8B0E94CB106A89E9
:1024A0008823E1F16623D1F120916602822F829583
:1024B0008F7090E0029774F08091610290916202B7
:1024C00098878F831986DB86CA862C87CE0107966C
:1024D0000E948C1086E0F801A1E6B2E001900D9216
:1024E0008A95E1F70E943D110E942F11FF24F39479
:1024F000D6C04D875E878D859E850E94F915292F50
:1025000022952F7030E0223031050CF0BCC09F7056
:1025100009F0B6C0805E883008F4C1C0C8010E94CE
:102520008C10E4CFC816D90608F453C0F601E81B96
:10253000F90BCF01883C910508F450C0F12C7C2D9B
:10254000D98AC88A89890E94EF10E1E6F2E086E024
:10255000DF011D928A95E9F70E942F11A0C0751323
:1025600014C0341312C0611110C080916602F801CA
:102570008583C8010E948C1086E0E1E6F2E0DF016D
:102580001D928A95E9F7FE2C8AC04D875E878D855E
:102590009E856A8B0E94CB106A89882309F4BECF7E
:1025A000662309F4BBCF20916602822F82958F703B
:1025B00090E002970CF48ECF8091610290916202BC
:1025C0009A8389831B82DD82CC822E83CE01019681
:1025D0007FCF809590958C0D9D1DACCFF62E6623F8
:1025E00009F49CCF75132EC034132CC020916602C1
:1025F00020FD1FC0822F82958F70D9F0D8011596CB
:102600002C9315978F3049F08F5F982F9295907F7C
:10261000822F8F70892B15968C93C8010E948C1085
:1026200086E0F801A1E6B2E001900D928A95E1F70B
:1026300093CF86E0F801A1E6B2E001900D928A9571
:10264000E1F72DC04D875E878D859E850E94CB105A
:10265000811140CF80916602816080936602C8013B
:102660000E948C101CC0662309F458CF4D875E87EA
:102670008D859E850E94CB10882309F44FCF2ACFE9
:10268000811148CF0CC0243031050CF047CF9F702A
:1026900009F440CFF8019581907F09F03BCF8F2D51
:1026A00062960FB6F894DEBF0FBECDBFDF91CF911B
:1026B0001F910F91FF90EF90DF90CF9008951F939F
:1026C000CF93DF93CDB7DEB72C970FB6F894DEBF6C
:1026D0000FBECDBF4F83588769877A878B879C87CA
:1026E000CE0107960E949811882369F08F81988502
:1026F0002A853B85232BF1F19F3F09F063C08F3F73
:1027000009F060C037C086E0FE013796DE01119601
:1027100001900D928A95E1F76F817885EA85FB85B6
:10272000309741F17F3F11F46F3F21F1209130024A
:1027300030E0C90101968770992740912F0250E03F
:102740008417950709F447C069837A83FD83EC8376
:1027500096E0929FD001939FB00D1124AF5CBD4FC6
:10276000FE01319601900D929A95E1F78093300227
:102770000E940E1116E080912F029091300289176D
:10278000C1F1189FC00111248F5C9D4F0E949811C8
:10279000882379F1E0912F021E9FF0011124EF5C54
:1027A000FD4F4081518162817381848195810E94B6
:1027B000FE1080912F0290E00196877099278093F8
:1027C0002F02D9CF4F81588569857A858B859C8565
:1027D0000E94FE10CFCF0E94C710109230021092BC
:1027E0002F02E1E6F2E086E0DF011D928A95E9F72B
:1027F000C1CF2C960FB6F894DEBF0FBECDBFDF91D0
:10280000CF911F910895EF92FF920F931F93CF9353
:10281000DF938C01892B09F46CC0F12CEE24E39436
:10282000E8012196F8018491843740F4843008F05F
:1028300051C0813081F0823019F15BC0853709F4D5
:1028400044C0A8F19CE7980F903708F052C08F77EA
:102850000E94D00D41C00E5F1F4FFE01C49180E267
:102860008C0F883048F4C7708E2D01C0880FCA9530
:10287000EAF70E94DF1614C08C2F0E94FD0C2DC0B9
:102880000E5F1F4FFE01C49180E28C0F883058F418
:10289000C7708E2D01C0880FCA95EAF70E94E51611
:1028A0000E9406171AC08C2F0E94D00D16C00E5F12
:1028B0001F4FFE01C491CC2381F08FE99FE0019767
:1028C000F1F700C00000C150F6CF0E5F1F4FFE01B0
:1028D000F49003C00E94FD0C8E018F2D882309F413
:1028E0009FCFEFE9FFE03197F1F700C00000815082
:1028F000F5CFDF91CF911F910F91FF90EF90089549
:10290000089560936B0270936C0280936D029093B4
:102910006E020C94B3100F931F9300916B021091F1
:102920006C0220916D0230916E02DC01CB01802B94
:10293000912BA22BB32B80936B0290936C02A093EC
:102940006D02B0936E021F910F910C94B3100F9310
:102950001F9300916B0210916C0220916D023091D7
:102960006E02DC01CB0180239123A223B323809349
:102970006B0290936C02A0936D02B0936E021F9154
:102980000F910C94B3100F931F9300916B02109151
:102990006C0220916D0230916E02DC01CB01802728
:1029A0009127A227B32780936B0290936C02A09388
:1029B0006D02B0936E021F910F910C94B3101092A0
:1029C0006702109268021092690210926A020C94D7
:1029D000B31041E050E060E070E004C0440F551FC8
:1029E000661F771F8A95D2F740936702509368025B
:1029F0006093690270936A020C94B31041E050E056
:102A000060E070E004C0440F551F661F771F8A9571
:102A1000D2F78091670290916802A0916902B0910B
:102A20006A02482B592B6A2B7B2B409367025093E9
:102A300068026093690270936A020C94B31041E0DB
:102A400050E060E070E004C0440F551F661F771F20
:102A50008A95D2F740955095609570958091670260
:102A600090916802A0916902B0916A0248235923AB
:102A70006A237B2340936702509368026093690244
:102A800070936A020C94B31041E050E060E070E093
:102A900004C0440F551F661F771F8A95D2F7809197
:102AA000670290916802A0916902B0916A0248277A
:102AB00059276A277B2740936702509368026093E7
:102AC000690270936A020C94B3100F931F930091E4
:102AD0006702109168022091690230916A02DC015C
:102AE000CB01802B912BA22BB32B80936702909369
:102AF0006802A0936902B0936A021F910F910C942F
:102B0000B3100F931F9300916702109168022091F8
:102B1000690230916A02DC01CB0180239123A22358
:102B2000B3238093670290936802A0936902B093E5
:102B30006A021F910F910C94B3100F931F93009191
:102B40006702109168022091690230916A02DC01EB
:102B5000CB0180279127A227B32780936702909308
:102B60006802A0936902B0936A021F910F910C94BE
:102B7000B3100895CF92DF92EF92FF920F931F93BD
:102B8000CF93DF938C01C0906B02D0906C02E090E9
:102B90006D02F0906E028091670290916802A091A0
:102BA0006902B0916A02C82AD92AEA2AFB2ACFE12F
:102BB000D0E0D701C6010C2E04C0B695A795979515
:102BC00087950A94D2F780FF06C0B8018C2F0E9427
:102BD000D307019721F4219760F780E001C08C2F83
:102BE000DF91CF911F910F91FF90EF90DF90CF90E9
:102BF0000895CF93DF93EC010E94BA15BE010E94A5
:102C0000D307DF91CF910895CB010E94F915089564
:102C100080916F02859585958595089580916F02C5
:102C20008770089598E0899F90011124262B2093A6
:102C30006F020C94FE1420916F0280958223809382
:102C40006F02982F977069F430E0482F082E000C1F
:102C5000550B2417350729F08595859585950C9496
:102C60001F15089590916F02977081E009F480E03C
:102C7000089590911401992321F09091C70297FD36
:102C800009C02091020130910301F90132969FEFB2
:102C900040E01FC0982F9695969596959F3150F5D8
:102CA000E0910201F0910301E90FF11D877021E02D
:102CB00030E0A90102C0440F551F8A95E2F7CA010E
:102CC0009181892B818308959F3F39F04F5F4E3169
:102CD00041F051915813F8CF0DC05111F7CF942FF7
:102CE000F5CF9F3F39F0F901E90FF11D97FDFA95F6
:102CF00082830895089590911401992321F0909171
:102D0000C70297FD09C02091020130910301F9012A
:102D10003296205E3F4F1FC0982F969596959695B8
:102D20009F31F0F4E0910201F0910301E90FF11DF0
:102D3000877021E030E0A90102C0440F551F8A9539
:102D4000E2F7CA01809591818923818308953196A4
:102D5000E217F30729F090819813F9CF1082F7CF8B
:102D6000089581E090E0E0910201F0910301E80F05
:102D7000F91F1082019680329105A9F7089590916C
:102D80009302892B809393020895809590919302EA
:102D9000892380939302089510929302089590914D
:102DA0009202892B809392020895809590919202CD
:102DB000892380939202089510929202089590912F
:102DC0009102892B809391020895809590919102B0
:102DD000892380939102089510929102089580931F
:102DE00070020895109270020895809102019091EE
:102DF0000301FC0131969C01205E3F4F80E09191E0
:102E000091118F5FE217F307D1F70895E091020166
:102E1000F0910301809193028083E0910201F0918F
:102E20000301908180919202892B8083E0910201BD
:102E3000F0910301908180919102892B8083809190
:102E40007002882361F0E0910201F091030190810A
:102E5000892B80830E94F516811110927002809157
:102E60000201909103010C94960BCF92DF92EF92A6
:102E7000FF926C01EE24FF24C114D104E104F1049B
:102E800021F0C701B60120E101C020E0C72ED82EF5
:102E9000E92EFF24C114D104E104F10419F0285FE4
:102EA000C701B6016B017C0154E0F694E794D79416
:102EB000C7945A95D1F7C114D104E104F10419F073
:102EC0002C5FC701B6016B017C0142E0F694E794E8
:102ED000D794C7944A95D1F7C114D104E104F10401
:102EE00019F02E5FC701B601DC01CB01B695A7959D
:102EF00097958795892B8A2B8B2B09F02F5F822F33
:102F0000FF90EF90DF90CF9008956DEE7EEF80E020
:102F100090E00E94952560E082E090E00E94832589
:102F200060E083E090E00E94832560E084E090E030
:102F30000E94832560E085E090E00C94832580E08A
:102F400090E00E947D2521E08D3E9E4F09F020E01B
:102F5000822F089582E090E00C94752583E090E044
:102F60000C94752584E090E00C947525682F84E01E
:102F700090E00C9483258091CD02843039F1109239
:102F8000950220E488E190E00FB6F894A89580932C
:102F900060000FBE2093600080E00E94D10783B7DD
:102FA000817F846083BF83B7816083BF7894889575
:102FB00083B78E7F83BF0FB6F894A8958091600089
:102FC000886180936000109260000FBE089508959C
:102FD000CF930E9448050E945B050E94E717C0E05E
:102FE0008C2F0E944906811104C0CF5FCE30C1F7FB
:102FF00001C081E0CF9108950E94C7100E948A0B02
:103000000C94D1071F920F920FB60F9211248F9339
:103010009F93AF93BF9380919502811113C08091CC
:10302000960290919702A0919802B09199024196D0
:10303000A11DB11D8093960290939702A0939802D0
:10304000B0939902BF91AF919F918F910F900FBE56
:103050000F901F90189582E084BD93E095BD9AEF84
:1030600097BD80936E0008952FB7F89480919602D3
:1030700090919702A0919802B09199022FBF089564
:10308000CF92DF92EF92FF920F931F932FB7F89496
:103090004091960250919702609198027091990226
:1030A0002FBF6A017B01EE24FF248C0120E030E079
:1030B000C016D106E206F30610F4415051099A01F8
:1030C000281B390BC9011F910F91FF90EF90DF90E2
:1030D000CF9008951F920F920FB60F9211248F93E5
:1030E0009F93AF93BF938091960290919702A09186
:1030F0009802B09199020196A11DB11D809396028C
:1031000090939702A0939802B0939902BF91AF91C8
:103110009F918F910F900FBE0F901F9018950E9456
:103120001821F8942FEF87EA91E6215080409040D3
:10313000E1F700C0000087E090EBDC018093D6024D
:103140009093D702A093D802B093D9029CE088E173
:103150000FB6F894A895809360000FBE909360001E
:10316000FFCF0E949F17811102C00E9485170E9405
:10317000AA17809394020E94B21790E09093C8021D
:103180008093C7020E94AE17682F70E080E090E045
:103190000C94811480919C0280FF0BC06091070108
:1031A00085E0689FB00111247595679575956795C1
:1031B0002BC081FF09C06091070185E0689FB001C5
:1031C00011247595679520C082FF07C060910701A3
:1031D00085E0689FB001112417C090919D0299234A
:1031E000D1F060910601961788F72091070185E0DC
:1031F000289F90011124929FA001939F500D1124AC
:1032000070E0CA010E9447256038710540F46115DD
:10321000710539F002C065E070E0862F08958FE7F0
:10322000089581E0089580919C0280FF08C060911C
:10323000050170E0759567957595679521C081FFCB
:1032400006C06091050170E07595679519C082FF11
:1032500004C06091050170E010C090919D02992317
:10326000C1F0609104019617A0F780910501899F34
:10327000C001112470E00E9447256038710528F4D0
:103280006115710521F0862F08958FE7089581E07B
:10329000089561E070E0F4CF803F21F40E94CA18E5
:1032A000819504C0813F29F40E94CA188093A0022E
:1032B0000895823F21F40E94CA18819504C0833F7B
:1032C00029F40E94CA1880939F020895893F19F437
:1032D0000E94131905C08A3F31F40E941319819589
:1032E0008093A10208958B3F21F40E9413198195C8
:1032F00004C08C3F29F40E9413198093A202089500
:10330000843F21F480919E02816017C0853F21F4A3
:1033100080919E02826011C0863F21F480919E02BE
:1033200084600BC0873F21F480919E02886005C0B5
:10333000883F31F480919E02806180939E020895BF
:103340008D3F21F480919C0281600BC08E3F21F45F
:1033500080919C02826005C08F3F29F480919C027D
:10336000846080939C020895803F39F48091A0028C
:1033700087FF6CC01092A00269C0813F29F4809140
:10338000A0021816BCF362C090919F02823F29F4FC
:1033900097FF5CC010929F0259C0833F19F4191621
:1033A000CCF354C0893F41F48091A10218160CF06F
:1033B0004DC01092A1024AC08A3F29F48091A10217
:1033C00087FF44C0F6CF8B3F39F48091A20287FF7C
:1033D0003DC01092A2023AC08C3F29F48091A20213
:1033E0001816BCF333C0843F21F480919E028E7F77
:1033F00017C0853F21F480919E028D7F11C0863FCA
:1034000021F480919E028B7F0BC0873F21F4809135
:103410009E02877F05C0883F31F480919E028F7E97
:1034200080939E0213C08D3F21F480919C028E7F79
:103430000BC08E3F21F480919C028D7F05C08F3F91
:1034400029F480919C028B7F80939C0280919F0243
:1034500081110EC08091A00281110AC08091A10249
:10346000811106C08091A202811102C010929D02BA
:1034700008958EE992E00E94A10B0E943418909367
:103480009B0280939A0208951F93CF93DF938091BC
:103490009A0290919B020E944018AC0190919D026B
:1034A000992321F02091080130E006C02091090104
:1034B0008AE0289F900111244217530708F485C021
:1034C00080919F02C091A002D091A1021091A2020E
:1034D000811107C0C11175C0D11173C0111171C024
:1034E00074C09F3F19F09F5F90939D02181624F4BB
:1034F0000E94CA1880939F0280919F0287FF05C097
:103500000E94CA18819580939F021C1624F40E9481
:10351000CA188093A0028091A00287FF05C00E9474
:10352000CA1881958093A00260919F02662331F1B1
:10353000C091A002CC2311F1062E000C770B880B52
:10354000990B0E944E2423E333E343E35FE30E949D
:10355000B2240E94162460939F026C2FCC0F770B2D
:10356000880B990B0E944E2423E333E343E35FE38C
:103570000E94B2240E9416246093A0021D1624F417
:103580000E9413198093A1028091A10287FF05C0B8
:103590000E94131981958093A102111624F40E94B0
:1035A00013198093A2028091A20287FF05C00E9496
:1035B000131981958093A202DF91CF911F910C94F2
:1035C000391A9F3F09F08FCF97CFDF91CF911F918D
:1035D0000895EEE9F2E085E0DF011D928A95E9F7B2
:1035E00010929D0210929C020895833081F128F47C
:1035F000813059F08230D1F00895853009F449C006
:10360000B8F1863009F456C0089580910901262F3B
:1036100030E0280F311D2F3F310524F4680F6093EF
:10362000090108958FEF80930901089580910801A1
:10363000262F30E0280F311D2F3F310524F4680F6D
:103640006093080108958FEF809308010895809199
:103650000701262F30E0280F311D2F3F310524F4BC
:10366000680F6093070108958FEF80930701089515
:1036700080910601262F30E0280F311D2F3F3105A4
:1036800024F4680F6093060108958FEF809306017C
:10369000089580910501262F30E0280F311D2F3F1E
:1036A000310524F4680F6093050108958FEF80932E
:1036B0000501089580910401262F30E0280F311D67
:1036C0002F3F310524F4680F6093040108958FEFB4
:1036D000809304010895833011F128F4813049F07A
:1036E000823091F00895853081F120F18630C1F16A
:1036F000089580910901681720F4861B80930901C1
:10370000089510920901089580910801681720F426
:10371000861B8093080108951092080108958091F6
:103720000701681720F4861B809307010895109203
:103730000701089580910601681720F4861B809385
:1037400006010895109206010895809105016817F9
:1037500020F4861B809305010895109205010895B9
:1037600080910401681720F4861B8093040108955A
:103770001092040108950F931F93873208F04DC0F3
:103780008E3108F095C0803109F47FC008F587308C
:1037900009F46BC068F4863009F0A5C080919402EA
:1037A000817F8E7F8093940281E08093A4029CC0ED
:1037B0008B3009F491C08E3009F095C0809194024D
:1037C00082FB222720F991E0922790FB82F966C0C4
:1037D000863109F481C088F4813109F084C00E94E7
:1037E000C7108091C70287FB222720F991E092271A
:1037F00090FB87F98093C7026FC0893109F46CC0D0
:103800008B3109F070C08091940281FB222720F94E
:1038100091E0922790FB81F941C0883309F45CC0A4
:1038200050F4893209F45AC0853309F457C08732FD
:1038300009F454C058C0833409F450C028F48A33C2
:1038400008F451C0895335C0883409F04CC00E9437
:10385000C7100FEF13ED20E3015010402040E1F7B7
:1038600000C000000E948F1837C090919402892FE9
:103870008095817080FB90F990939402882361F188
:1038800096609860909394022FC08091940283FB7D
:10389000222720F991E0922790FB83F980939402EC
:1038A0009923D1F08091940281608093940214C096
:1038B0008D5141E050E060E070E08A019B0104C05E
:1038C000000F111F221F331F8A95D2F7C901B801BB
:1038D0000E9481140E94C71081E006C061E070E080
:1038E00080E090E0F5CF80E01F910F91089580E097
:1038F000089580E008958E518A3030F4E82FF0E08A
:10390000E354FE4F8081089580E00895CF93C82F3F
:103910008091A402813079F018F08230E9F186C0FC
:10392000E0910201F09103018081813169F08232DE
:1039300009F07EC009C0E0910201F091030180818D
:10394000813111F0823261F48C2F0E94771C811139
:1039500004C08C2F0E94BB1B1DC081E090E01AC0E8
:103960008C2F0E94791C811114C0C43179F048F465
:10397000CB3079F0C03109F05FC082E08093A402BF
:1039800008C0C93219F0C83321F056C01092A40201
:1039900053C081E0817052C0C93281F110F5C43149
:1039A00069F1A8F4C73009F045C08AE080930901A5
:1039B00094E19093080193E09093070180930601AE
:1039C00088E08093050188E28093040133C082EE91
:1039D0008C0F863078F58C2F0E947B1C8093A3027D
:1039E00029C0CE34E9F020F4CB3421F56AE013C0CD
:1039F000C13579F0C235F1F461E00DC08091A302C8
:103A0000882319F01092A30215C081E08093A402CC
:103A100015C061E006C08091A3020E94F51A0AC099
:103A20006AE08091A3020E946B1B04C01092A40262
:103A300080E004C081E002C080E0ACCFCF91089567
:103A40008091C5020895CF93DF9300D01F92CDB728
:103A5000DEB79C018091CD02843019F593E0998303
:103A60003B832A839093E9008FEF9091E800815087
:103A700095FD06C095ED9A95F1F700008111F5CFFF
:103A80008091E80085FF0DC040E050E063E070E009
:103A9000CE0101960E94831F8091E8008E7780936B
:103AA000E8000F900F900F90DF91CF910895CF9382
:103AB000DF9300D01F92CDB7DEB72091CD02243026
:103AC00021F522E029839B838A8383E08093E900A8
:103AD0008FEF9091E800815095FD06C095ED9A9585
:103AE000F1F700008111F5CF8091E80085FF0DC04E
:103AF00040E050E063E070E0CE0101960E94831F39
:103B00008091E8008E778093E8000F900F900F90DF
:103B1000DF91CF9108952091CD022430F1F422E07D
:103B20002093E9002FEF3091E800215035FD06C0C9
:103B300035ED3A95F1F700002111F5CF2091E8001D
:103B400025FF0BC040E050E065E070E00E94831F5D
:103B50008091E8008E778093E8000895CF93DF93FB
:103B6000EC019091CD02943009F046C0809114018F
:103B70008823D9F08091C70287FF17C09093E9008E
:103B80008FEF9091E800815095FD06C095E19A95E0
:103B9000F1F700008111F5CF8091E80085FF2CC07E
:103BA00040E050E060E270E017C081E08093E900FF
:103BB0008FEF9091E800815095FD06C095ED9A95A4
:103BC000F1F700008111F5CF8091E80085FF14C066
:103BD00040E050E068E070E0CE010E94831F8091D9
:103BE000E8008E778093E80080E2FE01A5EAB2E06B
:103BF00001900D928A95E1F7DF91CF910895809120
:103C0000CC02811109C00E9418210E947521809167
:103C1000E20084608093E20008951092CC0208953F
:103C2000089508950C94FC1742E061EC81E00E9435
:103C3000922042E061EC82E00E94922042E061EC3E
:103C400083E00E94922042E261EC84E00C94922096
:103C50008091CF02833009F455C030F4813071F087
:103C6000823009F48EC008958A3009F47AC08B300E
:103C700009F460C0893009F09CC020C08091CE0258
:103C8000813A09F096C08091E800877F8093E80030
:103C90008091D2029091D302892B21F460E285EACF
:103CA00092E003C060E080E090E070E00E94CE1FF0
:103CB0008091E8008B778093E80008958091CE0290
:103CC000813209F076C08091D2029091D3020097A0
:103CD00019F0039709F06DC08091E800877F809309
:103CE000E8008091E80082FD05C08091CD0281113D
:103CF000F8CF5FC08091F1008093C5028091E80009
:103D00008B7753C08091CE02813A09F052C08091E6
:103D1000D2029091D302892B09F04BC08091E80028
:103D2000877F8093E8008091E80080FFFCCF80913E
:103D3000140136C08091CE028132D9F58091D20231
:103D40009091D302892BA9F58091E800877F809319
:103D5000E8000E94C7208091D002809314010C9447
:103D6000C7108091CE02813221F58091E800877FD3
:103D70008093E8000E94C7208091D1028093C60200
:103D800008958091CE02813AA1F48091E800877F66
:103D90008093E8008091E80080FFFCCF8091C6020C
:103DA0008093F1008091E8008E778093E8000C9476
:103DB000C720089584B7877F84BF0FB6F894A8956D
:103DC00080916000886180936000109260000FBE57
:103DD00080E880936100109261000E94D90B0E94DC
:103DE00018210E9475218091E20084608093E20096
:103DF00078940E94FB230E94DB0B8AE091E00E94F2
:103E0000850B8091CD02853069F40E94BB178091AB
:103E1000CB028823B1F30E94E817882391F30E9414
:103E20006D1FEFCF0E94E10BECCF292F33272330FA
:103E30003105C9F064F42130310581F022303105BB
:103E400009F043C08DE690E023E637E042C021321E
:103E50003105F1F02232310541F137C082E190E0C5
:103E600020ED37E036C099278130910541F082304E
:103E7000910541F0892B49F5EFE5F7E005C0E7E44E
:103E8000F7E002C0EFE2F7E0849190E09F0121C0EB
:103E90006430D8F4E62FF0E0EE0FFF1FED52FE4F36
:103EA0002081318189E090E014C0643070F470E0CA
:103EB000FB01EE0FFF1FE553FE4F20813181FB0117
:103EC000E953FE4F808190E004C080E090E020E064
:103ED00030E0FA0131832083089580E189BD82E1D9
:103EE00089BD09B400FEFDCF8091D8008F7D8093FD
:103EF000D8008091E00082608093E0008091E00033
:103F000081FDFCCF0895CF92DF92EF92FF920F9345
:103F10001F93CF93DF93EC018B016A010E94E6208F
:103F2000811133C0C114D10439F0F601808191812F
:103F3000081B190BC80FD91FE12CF12C0115110515
:103F400019F18091E80085FD16C08091E8008E7718
:103F50008093E800C114D10449F0F6018081918179
:103F6000E80EF91EF182E08285E00FC00E94E62093
:103F7000882321F30AC089918093F100015011092F
:103F8000FFEFEF1AFF0ADACF80E0DF91CF911F91A8
:103F90000F91FF90EF90DF90CF9008952091D40281
:103FA0003091D5022617370748F06115710539F4AD
:103FB0002091E8002E772093E80001C0B90140E08D
:103FC00061157105A9F12091CD02222309F443C0A6
:103FD000253009F442C02091E80023FD40C0209123
:103FE000E80022FD32C02091E80020FFE9CF409197
:103FF000F3002091F20030E0342BFC01CF01611579
:10400000710559F02830310540F481918093F10019
:10401000615071092F5F3F4FF1CF41E028303105EA
:1040200009F040E02091E8002E772093E800C8CF07
:104030004111C9CF0AC08091CD02882361F085303B
:1040400061F08091E80083FD0AC08091E80082FF62
:10405000F2CF80E0089582E0089583E0089581E042
:1040600008952091D4023091D5022617370748F0E1
:104070006115710539F42091E8002E772093E8004E
:1040800001C0B901FC0120E06115710591F1809139
:10409000CD02882309F440C0853009F43FC08091E7
:1040A000E80083FD3DC08091E80082FD2FC0809133
:1040B000E80080FFE9CF2091F3008091F20090E0CA
:1040C000922B6115710559F08830910540F42491C7
:1040D0002093F1003196615071090196F2CF21E0F1
:1040E000089709F020E08091E8008E778093E8003F
:1040F000CBCF2111CCCF0AC08091CD02882361F0B3
:10410000853061F08091E80083FD0AC08091E8006D
:1041100082FFF2CF80E0089582E0089583E0089561
:1041200081E00895982F973058F59093E9009817FB
:1041300039F07091EC002091ED005091F00003C037
:10414000242F762F50E021FF19C03091EB003E7FE5
:104150003093EB003091ED003D7F3093ED003091D6
:10416000EB0031603093EB007093EC002093ED0096
:104170005093F0002091EE0027FF07C09F5FD3CF40
:104180008F708093E90081E0089580E00895809128
:10419000CE0287FF11C08091E80082FD05C08091AA
:1041A000CD028111F8CF11C08091E8008B770BC050
:1041B0008091CD02882349F08091E80080FFF8CFFC
:1041C0008091E8008E778093E80008952091E400C4
:1041D0003091E50095E64091EC00842F817040FF1E
:1041E00022C08091E80080FD1CC08091CD02882310
:1041F00091F0853091F08091EB0085FD10C04091E9
:10420000E4005091E5004217530729F39A019150B9
:1042100011F784E0089582E0089583E0089581E035
:10422000089580E008954091E80042FFDECF0895B0
:104230000E9486210E948E21E0EEF0E08081816064
:104240008083E8EDF0E080818F77808319BCA7ED53
:10425000B0E08C918E7F8C9380818F7E80831092D2
:10426000CC0208950F931F93CF93DF930E94862172
:104270000E948E21C8EDD0E088818F778883888165
:104280008068888388818F7D888319BC1092CD02D5
:104290001092C9021092CB021092CA0200EE10E0F6
:1042A000F80180818B7F808388818160888342E0F0
:1042B00060E080E00E949220E1EEF0E080818E7F5D
:1042C0008083E2EEF0E0808181608083808188607D
:1042D0008083F80180818E7F8083888180618883DC
:1042E000DF91CF911F910F910895E8EDF0E080816B
:1042F0008F7E8083E7EDF0E080818160808384E0C1
:1043000082BF81E08093CC020C943221E8EDF0E092
:1043100080818E7F80831092E20008951092DA00EF
:104320001092E10008951F920F920FB60F92112480
:104330002F933F934F935F936F937F938F939F93AD
:10434000AF93BF93EF93FF938091E10082FF0BC087
:104350008091E20082FF07C08091E1008B7F809313
:10436000E1000E94FA238091DA0080FF1FC0809153
:10437000D80080FF1BC08091DA008E7F8093DA0026
:104380008091D90080FF0DC080E189BD82E189BDA7
:1043900009B400FEFDCF81E08093CD020E94FF1D95
:1043A00005C019BC1092CD020E940D1E8091E10043
:1043B00080FF19C08091E20080FF15C08091E2006B
:1043C0008E7F8093E2008091E20080618093E20022
:1043D0008091D80080628093D80019BC85E08093DA
:1043E000CD020E94111E8091E10084FF30C08091B7
:1043F000E20084FF2CC080E189BD82E189BD09B45F
:1044000000FEFDCF8091D8008F7D8093D8008091F1
:10441000E1008F7E8093E1008091E2008F7E8093A7
:10442000E2008091E20081608093E2008091C90205
:10443000882311F084E007C08091E30087FD02C06B
:1044400081E001C083E08093CD020E94121E809122
:10445000E10083FF29C08091E20083FF25C08091A5
:10446000E100877F8093E10082E08093CD0210928B
:10447000C9028091E1008E7F8093E1008091E2008B
:104480008E7F8093E2008091E20080618093E20061
:1044900042E060E080E00E9492208091F00088601D
:1044A0008093F0000E94101EFF91EF91BF91AF9199
:1044B0009F918F917F916F915F914F913F912F913C
:1044C0000F900FBE0F901F9018951F920F920FB66E
:1044D0000F9211242F933F934F935F936F937F938A
:1044E0008F939F93AF93BF93CF93DF93EF93FF93FC
:1044F000C091E900CF708091EC00D82FD17080FD81
:10450000D0E81092E9008091F000877F8093F0005E
:1045100078940E94A9221092E9008091F0008860AE
:104520008093F000CD2BCF70C093E900FF91EF9105
:10453000DF91CF91BF91AF919F918F917F916F91BB
:104540005F914F913F912F910F900FBE0F901F9051
:1045500018951F93CF93DF93CDB7DEB7AA970FB609
:10456000F894DEBF0FBECDBFEEECF2E088E08E0F18
:104570009091F10091938E13FBCF0E94281E8091A1
:10458000E80083FF1FC18091CE029091CF02492F96
:1045900050E04A30510508F015C1FA01ED55FF4FC2
:1045A0000C945B25803881F0823809F00BC1809132
:1045B000D2028F708093E9008091EB0085FB882701
:1045C00080F91092E90006C08091CA029091CB0256
:1045D000911182609091E800977F9093E80080931A
:1045E000F1001092F100C8C0282F2D7F09F0EAC019
:1045F000882319F0823061F0E5C08091D0028130CB
:1046000009F0E0C0933009F080E08093CB022BC02A
:104610008091D002811127C08091D2028F7009F45D
:10462000D1C08093E9002091EB0020FF1CC09330A3
:1046300021F48091EB00806214C09091EB009061B6
:104640009093EB0021E030E0A90102C0440F551F18
:104650008A95E2F74093EA001092EA008091EB001D
:1046600088608093EB001092E9008091E800877FDA
:1046700086C08111A7C01091D0021F778091E300FE
:104680008078812B8093E3008091E800877F80937E
:10469000E8000E94C7208091E80080FFFCCF809155
:1046A000E30080688093E300111102C082E001C042
:1046B00083E08093CD0286C08058823008F082C0AB
:1046C0008091D0029091D1028C3D53E0950779F50D
:1046D00083E08A838AE289834FB7F894DE011396D8
:1046E00020E03EE051E2E32FF0E050935700E491E8
:1046F00020FF03C0E295EF703F5FEF708E2F90E0D8
:10470000EA3010F0C79601C0C0968D939D932F5F3D
:10471000243149F74FBF8091E800877F8093E800FC
:104720006AE270E0CE0101960E94CE1F14C0AE0175
:104730004F5F5F4F6091D2020E94151FBC01892B11
:1047400009F440C09091E800977F9093E800898138
:104750009A810E9431208091E8008B778093E80055
:1047600031C0803879F58091E800877F8093E80038
:104770008091C9028093F1008091E8008E77809348
:10478000E8000E94C7201EC081111CC09091D00279
:104790009230C0F48091E800877F8093E800909386
:1047A000C9020E94C7208091C902811106C0809170
:1047B000E30087FD02C081E001C084E08093CD0268
:1047C0000E94141E8091E80083FF0AC08091E800D7
:1047D000877F8093E8008091EB0080628093EB00FC
:1047E000AA960FB6F894DEBF0FBECDBFDF91CF9172
:1047F0001F9108950895CF938091CD028823A1F051
:10480000C091E900CF709091EC00892F817090FDEC
:1048100080E8C82B1092E9008091E80083FD0E9497
:10482000A922CF70C093E900CF9108950E941D2462
:104830006894B1110C94AC2408950E94912488F0DE
:104840009F5798F0B92F9927B751B0F0E1F0660F54
:10485000771F881F991F1AF0BA95C9F714C0B13095
:1048600091F00E94AB24B1E008950C94AB24672F23
:10487000782F8827B85F39F0B93FCCF386957795C4
:104880006795B395D9F73EF49095809570956195AD
:104890007F4F8F4F9F4F0895E89409C097FB3EF4D8
:1048A00090958095709561957F4F8F4F9F4F99237D
:1048B000A9F0F92F96E9BB279395F69587957795FB
:1048C0006795B795F111F8CFFAF4BB0F11F460FFBB
:1048D0001BC06F5F7F4F8F4F9F4F16C0882311F013
:1048E00096E911C0772321F09EE8872F762F05C027
:1048F000662371F096E8862F70E060E02AF09A95C2
:10490000660F771F881FDAF7880F9695879597F9B6
:10491000089557FD9058440F551F59F05F3F71F0AF
:104920004795880F97FB991F61F09F3F79F0879516
:104930000895121613061406551FF2CF4695F1DF9F
:1049400008C0161617061806991FF1CF869571052F
:10495000610508940895E894BB2766277727CB0163
:1049600097F908950E94C5240C9436250E942825A5
:1049700038F00E942F2520F0952311F00C941F256C
:104980000C94252511240C94AC240E94892470F3E6
:10499000959FC1F3950F50E0551F629FF001729FE4
:1049A000BB27F00DB11D639FAA27F00DB11DAA1FF3
:1049B000649F6627B00DA11D661F829F2227B00D40
:1049C000A11D621F739FB00DA11D621F839FA00DCB
:1049D000611D221F749F3327A00D611D231F849F1B
:1049E000600D211D822F762F6A2F11249F57504072
:1049F0009AF0F1F088234AF0EE0FFF1FBB1F661FED
:104A0000771F881F91505040A9F79E3F510580F0B5
:104A10000C941F250C94AC245F3FE4F3983ED4F330
:104A2000869577956795B795F795E7959F5FC1F759
:104A3000FE2B880F911D9695879597F9089597F904
:104A40009F6780E870E060E008959FEF80EC089534
:104A500000240A941616170618060906089500245D
:104A60000A9412161306140605060895092E0394D7
:104A7000000C11F4882352F0BB0F40F4BF2B11F44B
:104A800060FF04C06F5F7F4F8F4F9F4F089597FB6C
:104A9000072E16F4009407D077FD09D00E946125F7
:104AA00007FC05D03EF4909581959F4F0895709531
:104AB00061957F4F0895EE0FFF1F0590F491E02D53
:104AC0000994AA1BBB1B51E107C0AA1FBB1FA61755
:104AD000B70710F0A61BB70B881F991F5A95A9F7A7
:104AE00080959095BC01CD010895F999FECF92BDB6
:104AF00081BDF89A992780B50895A8E1B0E042E019
:104B000050E00C949D25262FF999FECF92BD81BDD2
:104B1000F89A019700B4021639F01FBA20BD0FB6FB
:104B2000F894FA9AF99A0FBE08950196272F0E94D9
:104B300084250C948325DC01CB01FC01F999FECF7F
:104B400006C0F2BDE1BDF89A319600B40D92415015
:0A4B50005040B8F70895F894FFCF25
:104B5A000520710228080A03140A201DAE1D8B1DA8
:104B6A00571D231D01000D010D020D030D040D0536
:104B7A000D000C010C020C030C040C050C000B01BB
:104B8A000B020B030B040B050B000A010A020A03B2
:104B9A000A040A050A0009010902090309040905A8
:104BAA0009000801080208030804080508000701AB
:104BBA0007020703070407050700060106020603A2
:104BCA000604060506000501050205030504050598
:104BDA00050004010402040304040405040003019B
:104BEA000302030303040305030002010202020392
:104BFA000204020502000101010201030104010588
:104C0A000100000100020003000400050001020384
:104C1A0004050607080900404D36399E0851081B4D
:0C4C2A0008E20775078E07A707C0070007
:00000001FF
