:100000000C94ED060C9434070C9434070C943407CC
:100010000C9434070C9434070C9434070C94340774
:100020000C9434070C9434070C9426260C94F82670
:100030000C94951C0C9434070C9434070C943407DE
:100040000C9434070C9434070C9434070C94340744
:100050000C9434070C94FD1C0C9434070C94340756
:100060000C9434070C9434070C9434070C94340724
:100070000C9434070C9434070C9434070C94340714
:100080000C9434070C9434070C9434070C94340704
:100090000C9434070C9434070C9434070C943407F4
:1000A0000C9434070C9434070C94340700090609A7
:1000B0000C0912091A09200926092C0932093709E5
:1000C0003C09410946094B09500955095A095F097C
:1000D00064096909770A790A840A7B0A7D0A7F0A1A
:1000E000810A830A860A880A8A0A950A8C0A8E0A75
:1000F000900A920A940A970AFB12FB1235133513E1
:100100006A138A13B514F1149513F11445144514A8
:10011000AD14F114F114EC1452145214521452147C
:10012000521452145214521452145214521452149F
:1001300052145214521452146414711478147F140B
:1001400089146C156C157E157E1575157E157E153A
:100150007E156C156C157A157E157E157A1565273A
:100160008727752887277528CC27EF2775284428E7
:1001700057280138023801E10125022502E1012852
:1001800002280128022801E10125022502E10138A7
:100190000238015202520001E1014D024D02E1001C
:1001A00001E1014A024A02E10001E10126022601C1
:1001B00027022702E1015002500001E1012F022F26
:1001C0000130023002E10150025000012F022F01E4
:1001D000300230015002500001E10134023402E1EA
:1001E000004A756E20323620323031382032313AB2
:1001F00031333A32350032313A31333A3235004A0E
:10020000756E2032362032303138007069702069C6
:100210006E7374616C6C202D2D636572743D633A4E
:100220002F73736C70726F78792E63727420005321
:10023000454C4543540D0A2020202020412E2A0DF4
:100240000A202020202C422E2A0D0A46524F4D0D06
:100250000A20202020612E616120410D0A202020EB
:10026000204C454654204F55544552204A4F494E44
:100270000D0A2020202020202020280D0A202020C8
:10028000202020202053454C4543540D0A20202097
:1002900020202020202020202020432E636F6C0D62
:1002A0000A202020202020202046524F4D0D0A20D9
:1002B0002020202020202020202020632E63632067
:1002C000430D0A2020202020202020574845524559
:1002D0000D0A202020202020202020202020432E16
:1002E000636F6C203D204E554C4C0D0A2020202081
:1002F000202020202920420D0A202020204F4E0DB2
:100300000A2020202020202020422E636F6C203DD8
:1003100020412E636F6C202D2D4E554C4C0D0A2024
:10032000202020414E4420422E636F6C203D20410E
:100330002E636F6C202D2D4E554C4C0D0A574845A1
:1003400052450D0A20202020422E636F6C203D2054
:100350004E554C4C0D0A414E4420412E636F6C208B
:100360003C3E20310D0A414E4420412E636F6C20EB
:100370004245545745454E202730312720414E44B1
:1003800020273032270D0A0053454C4543540D0AAF
:100390002020202020412E2A0D0A202020202C421F
:1003A0002E2A0D0A46524F4D0D0A20202020612E84
:1003B000616120410D0A202020204C454654204FE9
:1003C00055544552204A4F494E20622E62622042C7
:1003D0000D0A202020204F4E0D0A20202020202012
:1003E0002020422E636F6C203D20412E636F6C20D5
:1003F0002D2D4E554C4C0D0A20202020414E4420DE
:10040000422E636F6C203D20412E636F6C202D2D9A
:100410004E554C4C0D0A57484552450D0A20202098
:1004200020422E636F6C203D204E554C4C0D0A41EE
:100430004E4420412E636F6C203C3E20310D0A411A
:100440004E4420412E636F6C204245545745454E23
:10045000202730312720414E4420273032270D0AF3
:100460000053454C4543540D0A2020202020412EA6
:10047000636F6C0D0A202020202C412E2A0D0A4685
:10048000524F4D0D0A20202020612E616120410D28
:100490000A57484552450D0A20202020412E636FFF
:1004A0006C203D204E554C4C0D0A414E4420412EAF
:1004B000636F6C203C3E20310D0A414E4420412E9A
:1004C000636F6C204245545745454E2027303127F5
:1004D00020414E4420273032270D0A0001E101203F
:1004E000022002E1012C022C012C022C012D022DF4
:1004F000012D022D012D022D012D022D0150025042
:10050000015002500150025001500250015002505F
:100510000001E101200220012C022C012202220113
:1005200022022202E100272559256D256425482550
:100530004D25532566270001E10136023602E1010F
:100540002D022D0023202D2A2D20636F64696E67F4
:100550003A207574662D38202D2A2D200A2727274A
:100560000A4372656174656420203A204A756E20E2
:10057000323620323031382032313A31333A323566
:100580000A4D6F646966696564203A204A756E2079
:10059000323620323031382032313A31333A323546
:1005A0000A0A40617574686F723A20596F756E67F8
:1005B000204A75204B696D0A2727270A0065726754
:1005C0006F646F782F707964656D69612040206673
:1005D00034653763652D64697274790029002B00D6
:1005E0003500E100E06100001E00140004001D0061
:1005F000C2004D001F001A0016001B00E3002A0075
:10060000200008000700060065002C0021001500EE
:1006100009001900E2644A00220017000A000500E0
:100620000000C3003E0100710000C100000028016D
:100630002300C2000000C4000000500024001C0081
:100640000B00110000004F00250018000D001000E5
:10065000E600520026000C000E003600E4002800E0
:10066000270012000F0037002F004C002D00130050
:1006700033003800300051002E0231000D71E500CA
:10068000103000003D0401000100010001000000E5
:10069000133006300730083001004D020100010020
:1006A0000100010001002A000100010003300100E7
:1006B00001002C00053026022F002F0201004A0203
:1006C0000430270230003002000001000100023037
:1006D0000000010000002804B2002E0200002D00DE
:1006E000000050010100240021001E0000004F0105
:1006F0000100250022001F0027004B0001002600FA
:10070000230020003700280001002E0225023600B9
:1007100050004C0001002D003800520051004E00E6
:100720004600B300010001004F000000013001004D
:1007300001000100010000000100240021001E0052
:1007400001004E000100250022001F0037002A0092
:10075000010026002300200027002C00010010309B
:100760000E300F3036004B00010001000100010087
:100770000000010001000100000001000000280449
:10078000B2002E0200002D000000500001002400E5
:1007900021001E0000004F000100250022001F0064
:1007A0002700520001002600230020003700280007
:1007B00001002E022502360050004C0001002D00E1
:1007C00038005200510051004600B3000100010002
:1007D0004F00000000300100010001000100000096
:1007E0003A003F004400010001004D003B00400082
:1007F0004500010001002A003C00410068000100A2
:1008000001002C003D0042006900010001004A0087
:100810003E0043006A0001000000010001000100E9
:1008200000000100000001000100010000000100C3
:1008300000005000010001000100010000004F0015
:100840000100010001000100010052004800010008
:100850000100010001002800010001000100010069
:1008600036004C00010001000100010001005100B0
:1008700001000100010001000100000029002B001F
:100880003500E100E06100001E00140004001D00BE
:1008900001004D001F001A0016001B00E3002A0093
:1008A000200008000700060065002C00210015004C
:1008B00009001900E2644A00220017000A0005003E
:1008C0000000C300280200710000C10000002801E0
:1008D00023000100000001000000500024001C0063
:1008E0000B00110000004F00250018000D00100043
:1008F000E600520026000C000E003600E70028003B
:10090000270012000F0037002F004C002D001300AD
:1009100033003800300051002E0231000D71E50027
:100920001030000000712B0035003962E0610000DA
:100930001E00140004001D00C2004D001F001A001C
:1009400016001B00E3002A00200008000700060034
:1009500065002C002100150009001900E2644A001E
:10096000220017000A00050000004B003E01023083
:100970000000C10000004E002300280100003E01DD
:100980000000500024001C000B00110000004F006C
:10099000250018000D001000E600520026000C0093
:1009A0000E003600E4002800270012000F00370078
:1009B0002F004C002D001300330038003000510090
:1009C0002E0231003400E5001030000029002B0019
:1009D0003500E100E00000001E00140004001D00CE
:1009E000E2014E001F001A0016001B00E3004C003D
:1009F000200008000700060065002C0021001500FB
:100A000009001900E2004B00220017000A0005004F
:100A100000004A0006532E000000015300004D0064
:100A20002300023000003E0100004A0024001C00A8
:100A30000B00110000004D00250018000D001000F3
:100A4000E6004B0026000C000E0036002C022800A9
:100A5000270012000F0037002F004C002D0013005C
:100A60003300380030004E002E02310034000157B0
:100A7000C100000029002B003500E100E00000006B
:100A80001E00140004001D00E2014E001F001A00A9
:100A900016001B00E3002A002000080007000600E3
:100AA00065002C002100150009001900E2004B0030
:100AB000220017000A00050000004A0006532E001D
:100AC0000000015300004D002300023000003E01F1
:100AD0000000500024001C000B00110000004F001B
:100AE000250018000D001000E600520026000C0042
:100AF0000E0036002C022800270012000F003700DD
:100B00002F004C002D00130033003800300051003E
:100B10002E0231003400E500C10000000000F0A109
:100B2000F0A2F0A3F0A4F0A5F0A6000000000000E1
:100B300000002A2B28000000000000000000000038
:100B4000000000000029000000002C1E342021229B
:100B500024342627252E362D3738271E1F20212204
:100B6000232425263333362E37381F04050607087D
:100B7000090A0B0C0D0E0F1011121314151617186D
:100B8000191A1B1C1D2F3130232D350405060708AB
:100B9000090A0B0C0D0E0F1011121314151617184D
:100BA000191A1B1C1D2F3130354C000000000000AD
:100BB0000000000000000000000000000000000035
:100BC0000000000000000000000000010101010120
:100BD0000100010101010000000000000000000010
:100BE00000000000010001000101010101010101FB
:100BF00001010101010101010101010101010101E5
:100C000001010101010000000101000000000000DD
:100C100000000000000000000000000000000000D4
:100C200000000000000101010100160345007200F0
:100C300067006F0044006F007800200045005A00F4
:100C4000000016034500720067006F0044006F004B
:100C50007800200045005A0000000403090409023E
:100C60006D00040100A0FA09040000010301010065
:100C70000921110100012240000705810308000A33
:100C800009040100010301020009211101000122F0
:100C90004D000705820308000A0904020001030051
:100CA0000000092111010001223600070583030815
:100CB000000A0904030001030000000921110100DA
:100CC00001223900070584032000011201100100F0
:100CD000000008EDFE0713010001020001050109F3
:100CE00006A101050719E029E715002501950875FA
:100CF00001810205081901290595057501910295E3
:100D000001750391010507190029F71500250195C3
:100D1000F875018102C005010980A10185021681D3
:100D20000026B7001A81002AB700751095018100CE
:100D3000C0050C0901A1018503160100269C021AB9
:100D400001002A9C02751095018100C0050109026D
:100D5000A1010901A10005091901290515002501B5
:100D60009505750181029501750381010501093021
:100D700009311581257F950275088106093815818D
:100D8000257F950175088106050C0A380215812515
:100D90007F950175088106C0C005010906A10105FE
:100DA0000719E029E71500250195087501810295CD
:100DB000017508810105081901290595057501913D
:100DC000029501750391010507190029FF150026F9
:100DD000FF00950675088100C00011241FBECFEFEB
:100DE000DAE0DEBFCDBF04B603FE27C080917804F1
:100DF00090917904A0917A04B0917B048730904B54
:100E0000A740B04BD1F4109278041092790410925C
:100E10007A0410927B0414BE84B7877F84BF0FB618
:100E2000F894A8958091600088618093600010928A
:100E300060000FBEE0E0FFE3099513E0A0E0B1E041
:100E4000E0E8F4E502C005900D92AC37B107D9F7A0
:100E500024E0ACE7B3E001C01D92A837B207E1F788
:100E60000E946D230C943E2A0C9400001092B9004D
:100E70008AE08093B800089594EA9093BC00909122
:100E8000BC0097FFFCCF9091B900987F983021F07B
:100E9000903111F081E008958093BB0084E8809345
:100EA000BC008091BC0087FFFCCF8091B900887F97
:100EB000883111F0803471F780E0089584E98093DF
:100EC000BC008091BC0084FDFCCF08958093BB00E2
:100ED00084E88093BC008091BC0087FFFCCF909198
:100EE000B900987F81E0983209F480E0089584E8A1
:100EF0008093BC008091BC0087FFFCCF8091BB0039
:100F0000089580B38C7080BB81B3836F81BB0895DB
:100F10008091A102811115C080E40E943C0780935A
:100F2000A10281110CC082E10E9466078093A10298
:100F3000811105C08FEF0E9466078093A1020E9475
:100F40005E0784B1807F84B985B1807F85B98AB11D
:100F5000837F8AB98BB1837F8BB93E984698089579
:100F60000C9472090E94150E8093A1020E948807BA
:100F70000E948107ADE7B3E0EBE8F3E08EE08E0F6F
:100F800011921D928E13FCCF0C94FF0D0E94150E32
:100F90008093A1020E9488070E948107ADE7B3E019
:100FA000EBE8F3E08EE08E0F11921D928E13FCCFD2
:100FB0000895BF92CF92DF92EF92FF920F931F930B
:100FC000CF93DF938091A102882379F080917C03F5
:100FD0008F5F80937C03811108C00E94150E80935F
:100FE000A102811102C00E94A70D0DE713E0C0E02D
:100FF000D0E0EE24E394F12CDD24D39495E0C92EC7
:10100000C730D10500F58091A10281113CC080E478
:101010000E943C078093A102811112C082E10E94CC
:1010200066078093A10281110BC0C7010C2E01C07D
:10103000880F0A94EAF780950E9466078093A102C0
:101040000E945E0720C0CA30A1F028F4C83059F0D1
:10105000C93061F005C0CC3089F070F0CD3089F036
:10106000209A289810C0219A29980DC0229A2A986F
:101070000AC0239A2B9807C0529A01C0539A5B98D2
:1010800002C03E9A469880EA8A95F1F7C730D105AA
:1010900018F58091A102811144C080E40E943C07B0
:1010A0008093A102882311F0B12C12C083E10E9429
:1010B00066078093A1028111F7CF81E40E943C076B
:1010C0008093A1028111F0CF0E947707B82EB094CF
:1010D0000E945E078B2D26C08FB181708D25799976
:1010E00002C092E001C090E0892B7C9902C024E00C
:1010F00001C020E0822B7D9902C028E001C020E0E1
:10110000822B7E9902C090E101C090E0892B9FB1B3
:101110009095991F9927991F9295990F907E892BE9
:1011200001C080E0F8019081981719F08083C09287
:1011300000010E94880721960F5F1F4FCE30D10516
:1011400009F05ECF809100018823A1F08150809347
:101150000001882329F0F5E0FA95F1F700000AC0B4
:10116000ABE8B3E0EDE7F3E0CF01825F91919D93AF
:101170008E13FCCF0E942F0B81E0DF91CF911F9146
:101180000F91FF90EF90DF90CF90BF900895E82FE0
:10119000F0E0E557FC4F808108950895FC018081BF
:1011A000813031F48EE20E9490118EE20C94631231
:1011B0000C944615FC018081823091F481EE0E94EE
:1011C000901186E30E94901186E30E94631281EEE3
:1011D0000E9463128DE20E9490118DE20C946312C2
:1011E0000C944615462F50E04431510508F076C066
:1011F000DC01FA01EA5AFF4F12968C910C94EE2909
:10120000882309F46BC08DEB95E011C0882309F4A5
:1012100065C084E495E00BC0882309F45FC087E3D0
:1012200095E00895882309F459C086E295E00E946C
:10123000040B54C0882309F451C081E195E008955E
:10124000882309F44BC08CED94E00895882309F4B9
:1012500045C081E694E0EBCF882309F43FC088E8DD
:1012600093E0E5CF8823D1F18FE292E0E0CF8823AD
:10127000A9F18BE092E0DBCF882381F18FEF91E041
:10128000D6CF882359F186EF91E0D1CF882331F171
:1012900081EE91E0CCCF882309F188ED91E00895AB
:1012A0008823E1F08BEC91E008958823B9F08AEB74
:1012B00091E00895882391F089EA91E008958823C8
:1012C00069F080EA91E00895882341F087E991E090
:1012D0000895882319F082E791E0089580E090E076
:1012E000089508956091090470910A0480910B0497
:1012F00090910C040E94C81B56985E9825982D98D2
:1013000026982E9827982F98823081F018F48130F3
:1013100031F00895833079F08430A1F00895269853
:101320002E9827982F98259A2D9A089525982D98CC
:1013300027982F980BC025982D9826982E98279A95
:101340002F9A089527982F98259A2D9A269A2E9AA3
:1013500008950F931F93CF93DF939C013A95211526
:101360003F41C8F58B01EC0190FF03C080EEFB010B
:101370000995D1FF03C081EEF8010995D2FF03C0A2
:1013800082EEF8010995D3FF03C083EEF8010995B9
:10139000CE0188279171892B19F084EEF801099507
:1013A000CE0188279271892B19F085EEF8010995F5
:1013B000CE0188279471892B19F086EEF8010995E2
:1013C000CC27D871CD2B39F087EEF801DF91CF9182
:1013D0001F910F910994DF91CF911F910F91089563
:1013E000CF93C82F60E971E10E94A9098C2FCF919A
:1013F0000C9490111F93CF93DF931F92CDB7DEB75C
:10140000182F99830E94631263E672E1812F9981FC
:101410000F90DF91CF911F910C94A90981E008955D
:1014200081E008950C94100A0E945A152FEF84E36E
:101430009CE0215080409040E1F700C000000C94F7
:10144000221D0F931F93CF93DF938C01FC01C0816A
:10145000D181CE010E944D1ABE010E94C80CEC0140
:10146000B8010E94120A882309F4C8C0B801CE014D
:101470000E944C0F882309F4C1C0B801CE010E941C
:10148000580D882309F4BAC0B801CE010E94D30ECA
:10149000882309F4B3C0C531F0E7DF0708F07CC04A
:1014A000C23080E7D80708F452C0F801828188234F
:1014B00009F459C00E94321C811102C00E94181CFC
:1014C0000E94451C90E090936A0480936904FE0199
:1014D000E350F047E231F10530F4E659FF4F8091D7
:1014E00069040C94EE2980916904816027C08260B0
:1014F00025C0846023C0806121C080621FC08064D9
:101500001DC080681BC08460886018C08E7F16C0B4
:101510008D7F14C08B7F12C08F7E10C08F7D0EC058
:101520008F7B0CC08F770AC08B7F877F07C087FBBC
:10153000222720F991E0922790FB87F98093690494
:10154000809169040E94491C0E945A1557C0C11518
:10155000E0E7DE0779F0C130D047A1F081E0809369
:10156000990380939A03C801DF91CF911F910F9146
:101570000C940E0AF8018281882309F43FC00E946E
:10158000140A3CC0F80182818823C1F1809136049D
:1015900081608093360432C0CC3380E7D807A1F451
:1015A000F8018281882321F01092990382E016C00D
:1015B00080919903811106C086E20E94901186E213
:1015C0000E94631282E018C0CD33D04739F6F8018B
:1015D0008281882331F010929A0380E20E94B21235
:1015E0000DC080919A03811106C087E20E9490117C
:1015F00087E20E94631280E20E94B91280E0DF91CC
:10160000CF911F910F9108950F931F93CF938C014A
:10161000F80124912223F9F030E0F901E65DF44F5E
:10162000C491F901E655F44F2491222359F081EE3B
:101630000E9490118C2F0E9490118C2F0E94631297
:1016400081EE04C08C2F0E9490118C2F0E94631297
:101650000F5F1F4FDDCFCF911F910F9108950E9413
:10166000EA0F0C94B00708950C94330B0C94340BD0
:1016700026E0729FF001112444E5849FE00DF11DE6
:101680001124E60FF11DEE0FFF1FE452FA4F859172
:1016900094910E94DA0C811560E49607B0F58115EB
:1016A00070E3970708F0E6C0803E9105D8F4803CCF
:1016B000910508F06CC0883A910578F4853A910557
:1016C00008F06BC08130910509F460C108F417C1BE
:1016D0008430910508F05AC112C18D3B910508F480
:1016E00067C00DC18F3F910509F048F4803F910517
:1016F00008F0B5C0883E910508F448C100C18115C5
:1017000020E2920708F0ADC00895811543E59407E3
:1017100090F4811562E5960708F0D0C0811571E557
:10172000970708F0C6C0811520E5920708F0A5C00C
:101730009F70906A0895811545E59407D8F4811546
:1017400064E5960708F0D0C0482F4695469570E2AC
:10175000479FA00111248370992721E030E0B9014F
:1017600002C0660F771F8A95E2F7CB01842B952B79
:101770009A680895811576E5970708F4BAC09C0128
:1017800030562115304108F0BAC09F70B6C0FC0138
:10179000EE0FFF1FE456F64F6AC0853A910509F433
:1017A000B1C0863A910509F0B0C082E890E408958E
:1017B000883A910509F4ACC0893A910509F4ABC0A7
:1017C0008A3A910509F4AAC08B3A910509F4A9C097
:1017D0008C3A910509F4A8C08B3B910509F4A7C088
:1017E0008C3B910509F4A6C08D3A910509F4A5C07A
:1017F000803B910509F4A4C08E3A910509F4A3C079
:101800008F3A910509F4A2C0813B910509F4A1C06A
:10181000823B910509F4A0C0833B910509F49FC068
:10182000843B910509F49EC0853B910509F49DC058
:10183000863B910509F49CC0873B910509F49BC048
:10184000883B910509F49AC0893B910509F499C038
:101850008A3B910509F498C080E094E4089590656E
:101860000895FC01FF70EE0FFF1FE45EF44F8591B9
:10187000949108959927906C0895482F437021E022
:1018800030E002C0220F331F4A95E2F73C68AC01FA
:1018900064E0569547956A95E1F74370342B8F7055
:1018A0008695869560E2869FC0011124822B932B3A
:1018B0000895982F8827816F906A0895482F46953C
:1018C000469570E2479FA00111248370992721E07B
:1018D00030E0B90102C0660F771F8A95E2F7CB01AD
:1018E000842B952B9C680895982F8827846F906A85
:1018F00008958F719927982F88279062089580E026
:1019000090E0089581E890E4089583E890E40895D4
:1019100082EE94E4089589EE94E408958AEE94E4C6
:10192000089585EB94E4089586EB94E4089583EBA1
:1019300094E4089584EB94E4089587EB94E4089587
:101940008CEC94E408958DEC94E4089583E895E498
:1019500008958AE895E4089582E995E4089584E974
:1019600095E4089581E296E4089583E296E408956B
:1019700084E296E4089585E296E4089586E296E48A
:10198000089587E296E408958AE296E4089508951A
:1019900096E0799FF001112494E5899FE00DF11DF7
:1019A0001124E60FF11DEE0FFF1FE452FA4F85914F
:1019B000949108958238910549F1B0F481339105ED
:1019C00009F458C048F48932910509F44EC08A32AE
:1019D000910509F454C008958533910509F440C078
:1019E0008933910599F00895833E910529F138F4E2
:1019F000803E910591F0823E9105A1F00895863ECA
:101A00009105F9F0873E910531F10895209169041F
:101A100020FD3AC021FD38C008958091690480FD01
:101A200035C032C08091690482FF32C08091690460
:101A300084FD30C083EE39C08091690482FD28C0E6
:101A4000F5CF8091690483FF27C08091690484FDEC
:101A500021C087EE2AC08091690483FD1DC0F5CFA7
:101A60008091690485FD1AC01BC08091690485FDC1
:101A700017C014C08091690486FD14C015C0809100
:101A8000690486FD11C00EC080EE0FC089E30DC051
:101A900082EE0BC080E009C086EE07C089E205C077
:101AA00085E303C08AE201C081E390E008950895D0
:101AB0000F931F93CF93FB012281211102C0C1E03C
:101AC00041C08C01C091A803C11125C08531904748
:101AD000B1F70E94570D81E08093A8030E94C71CB4
:101AE0009093A7038093A60310929B0310929D03EB
:101AF00010929C0310929F0310929E031092A103D8
:101B00001092A0031092A3031092A2031092A503B7
:101B10001092A40317C08091A6039091A7030E947E
:101B2000D31C883C910558F690919B03E92FF0E077
:101B3000EE0FFF1FE456FC4F118300839F5F9093CD
:101B40009B03C0E08C2FCF911F910F910895569861
:101B50005E9825982D9826982E9827982F988FEF85
:101B600090E0909389008093880090938B008093FD
:101B70008A0090938D0080938C00259A2D9A2FEFE8
:101B800080E792E0215080409040E1F700C00000E3
:101B9000269A2E9A2FEF80E792E0215080409040C5
:101BA000E1F700C00000279A2F9A2FEF80E792E01C
:101BB000215080409040E1F700C0000025982D980A
:101BC0002FEF80E792E0215080409040E1F700C085
:101BD000000026982E982FEF80E792E02150804059
:101BE0009040E1F700C0000027982F9856985E9823
:101BF00025982D9826982E9827982F98089589EA49
:101C00008093800089E08093810024982C983F98ED
:101C10008AB18F748AB96E98479A8BB1806B8BB9F1
:101C2000769A0E94A70D0C94710980E28093A1021C
:101C30008091A90381110EC00E94360781E0809334
:101C4000A9032FEF83ED90E3215080409040E1F70E
:101C500000C0000080E40E943C078093A102811133
:101C60002EC00E9466078093A102811128C00E94A5
:101C700066078093A102811122C08FE30E9466074C
:101C80008093A10281111BC00E945E0780E40E9424
:101C90003C078093A102811112C08CE00E9466076C
:101CA0008093A10281110BC00E9466078093A1025C
:101CB000811105C08FE30E9466078093A1020E94F4
:101CC0005E078091A1020895282F882339F090E0C3
:101CD0002A3010F44D9608950697089587E290E013
:101CE00008958091AA03813079F050F08230F1F4A8
:101CF00082EE0E94901187E50E94901187E514C042
:101D000082EE0E94901112C080EE0E94901181EE2E
:101D10000E94901188E10E94901188E10E94631254
:101D200081EE0E94631280EE0E9463128FE39CE9B1
:101D30000197F1F700C0000008958091AA03813057
:101D400029F010F0823041F482EE04C08CE20E944F
:101D500090118CE20C9463120895EF92FF921F93FE
:101D6000CF93DF937C01CCE0D0E097010C2E02C032
:101D7000369527950A94E2F7122F1F70812F0E9443
:101D8000640E0E949011812F0E94640E0E946312C3
:101D90002497CC3F8FEFD80741F7DF91CF911F9168
:101DA000FF90EF900895CF93DF93813020E8920762
:101DB00068F0FB012281222349F0EC010E94710EA0
:101DC000CE019F770E94AD0E0E949D0E81E0DF91B3
:101DD000CF910895DC011D968C911D97811111C042
:101DE00081E01D968C931D971296ED91FC911397AF
:101DF0001E966D917C911F97CD010696309709F044
:101E000009940895FC018081813021F4FB018081D7
:101E1000918105C0823029F4FB01828193810C9469
:101E2000F0090895FC018081813021F4FB0180815B
:101E3000918105C0823029F4FB01828193810C9449
:101E4000FA090895CF93DF93FC012681211121C067
:101E5000EC0121813281C901915724E0880F991F3B
:101E60002A95E1F7DC01AF5FBE4F1496ED91FC912E
:101E700015971E966D917C911F97895F9E4F3097A5
:101E800009F0099518821D821F821092AC031092EE
:101E9000AB03DF91CF910895EF92FF920F931F93C1
:101EA000CF93DF938C012091AB033091AC032115CC
:101EB000310569F02817390751F044E0220F331F2C
:101EC0004A95E1F7F901EF5FFE4081E08387C801A1
:101ED0009157FB0142818F3F910511F008F04FC0EF
:101EE0002091A202022E000C330B2817390714F49C
:101EF0008093A2027C0194E0EE0CFF1C9A95E1F71E
:101F0000E701CF5FDE4F4C87FB018281882309F414
:101F100059C018870F838E818F5F8E830E94C71CE4
:101F20009A878987E881F9816E857F85C701895FF6
:101F30009E4F309709F009952091AB033091AC0387
:101F400021153105B9F020173107A1F0E901D1576A
:101F500084E0CC0FDD1F8A95E1F7CE018F5F9E4FA5
:101F600021E0FC0123870E94EA0ECE01895F9E4F8B
:101F70000E94220F1093AC030093AB0323C04423B1
:101F800009F18091A2028F3FE9F0C7E0D1E000E0C3
:101F900010E0FF24F3948091A202082E000C990B0C
:101FA000801791077CF08881882341F0FD82CE0163
:101FB00006970E94EA0ECE010E94220F0F5F1F4F6C
:101FC0006096E9CF81E0DF91CF911F910F91FF9053
:101FD000EF9008950F931F93CF93DF938091A20208
:101FE0008F3F09F1C7E0D1E000E010E08091A2024C
:101FF000082E000C990B80179107ACF0888188237C
:1020000071F08B819C810E94D31C8739910538F037
:10201000CE0106970E94EA0ECE010E94220F0F5FAA
:102020001F4F6096E3CFDF91CF911F910F910895DD
:102030009093B2038093B1030895E091B103F091BE
:10204000B203309721F00190F081E02D099480E0F7
:102050000895E091B103F091B203309721F002802E
:10206000F381E02D09940895E091B103F091B2035A
:10207000309721F00480F581E02D09940895209196
:10208000AF033091B0038217930771F09093B003C0
:102090008093AF03E091B103F091B203309721F048
:1020A0000680F781E02D099408952091AD033091C9
:1020B000AE038217930771F09093AE038093AD0344
:1020C000E091B103F091B203309721F00084F185E3
:1020D000E02D0994089508950C946B100E94BE1C85
:1020E0000E94B2070C94441DCF92DF92EF92FF92B0
:1020F0000F931F93CF93DF93CDB7DEB72B970FB618
:10210000F894DEBF0FBECDBF0E94D90784EBC82E66
:1021100083E0D82E00E010E0E02E802F0E94C70858
:10212000F60141916F01F42EF826B1F40F5F1F4FB5
:102130000E30110589F78FEF89838A831B820E94F5
:10214000C71C8160782F9D838C8349815A816B8164
:102150008D810E94531140C09091360491FF04C0BC
:102160008B870E94CD088B8520E030E04F2D50E01A
:10217000922FBA01022E02C0759567950A94E2F774
:1021800060FF24C02E83EF8221E030E0690102C0AD
:10219000CC0CDD1C9A95E2F790E08C219D21892BD7
:1021A00009F420E028870E94C71C8160782F9A8755
:1021B00089874E815F8168858A850E945311F80165
:1021C000EC54FC4F8081C826C08206C02F5F3F4F71
:1021D0002630310569F6AACF0E94D71E1091B303AD
:1021E0000E941D101817A1F00E941D108093B303C8
:1021F0002B960FB6F894DEBF0FBECDBFDF91CF9107
:102200001F910F91FF90EF90DF90CF900C94360BC1
:102210002B960FB6F894DEBF0FBECDBFDF91CF91E6
:102220001F910F91FF90EF90DF90CF900895DC0108
:1022300011962C9111978C91682F70E041E050E03D
:1022400001C0440F8A95EAF712968C91129730E0FC
:10225000882329F08091D0038823E9F006C0F90192
:10226000EE53FC4F90819423B1F086E0829FF00101
:10227000839FF00D1124E60FF71FEE0FFF1FEA54A6
:10228000FD4F808191818D939C93F901EE53FC4F1A
:102290008081482B06C0F901EE53FC4F40958081A8
:1022A000482340830895CF93DF93CDB7DEB72B97B4
:1022B0000FB6F894DEBF0FBECDBF942F4F83252FEE
:1022C000588769877A878B874A855B85452B21F0FC
:1022D0002F3F09F59F3FF9F4DE01119686E0FD01DD
:1022E00011928A95E9F785E0FE01379601900D92EB
:1022F0008A95E1F749815A816B817C818D819E812C
:102300000E94F2172B960FB6F894DEBF0FBECDBF1A
:10231000DF91CF910895CE0107960E941711DCCF6F
:10232000CF93882309F4CDC0C82F823859F40E9476
:102330001D1081FDC6C089E30E94CC1A0E94991B22
:1023400089E30CC0833879F40E941D1080FDB9C068
:1023500083E50E94CC1A0E94991B83E50E940E1B04
:10236000CF910C94991B843859F40E941D1082FD62
:10237000A8C087E40E94CC1A0E94991B87E4EECF84
:102380008CEF8C0F813A48F48C2F0E941921811117
:1023900098C08C2F0E94CC1AE3CF80E28C0F88303B
:1023A00048F4C77081E001C0880FCA95EAF70E941F
:1023B000521BD6CF8BE58C0F833078F4C53A29F0C9
:1023C000C63A31F083E890E005C081E890E002C0B1
:1023D00082E890E0CF910C943F1088E58C0F853116
:1023E00008F06FC0C83A61F1C93A69F1CA3A71F1AF
:1023F000CB3A79F1CC3A81F1CB3B89F1CC3B91F1ED
:10240000CD3A99F1C03BA1F1CE3AA9F1CF3AB1F161
:10241000C13BB9F1C23BC1F1C33BC9F1C43BD1F1EE
:10242000C53BD9F1C63BE1F1C73BE9F1C83BF1F14E
:10243000C93BF9F1CA3B09F43FC080E090E03EC0DF
:1024400082EE90E03BC089EE90E038C08AEE90E0EA
:1024500035C085EB90E032C086EB90E02FC083EB77
:1024600090E02CC084EB90E029C087EB90E026C080
:102470008CEC90E023C08DEC90E020C083E891E0EC
:102480001DC08AE891E01AC082E991E017C084E992
:1024900091E014C081E292E011C083E292E00EC0AC
:1024A00084E292E00BC085E292E008C086E292E00E
:1024B00005C087E292E002C08AE292E0CF910C94DC
:1024C0005510CF910895882309F44BC0823859F4F0
:1024D0000E941D1081FF45C089E30E94CC1A0E9412
:1024E000991B89E30CC0833871F40E941D1080FF92
:1024F00038C083E50E94CC1A0E94991B83E50E9494
:102500000E1B0C94991B843859F40E941D1082FFF5
:1025100028C087E40E94CC1A0E94991B87E4EFCF61
:102520009CEF980F913A58F390E2980F983050F43E
:10253000877091E001C0990F8A95EAF7892F0E9470
:10254000581BDFCF9BE5980F933020F480E090E09C
:102550000C943F10885A853120F480E090E00C9470
:1025600055100895882321F00E94521B0C94991B4A
:102570000895882321F00E94581B0C94991B0895FC
:102580008F929F92AF92BF92CF92DF92EF92FF9283
:102590000F931F93CF93DF931F92CDB7DEB77C01CC
:1025A000C72EFC01058102950F701281112321F0C5
:1025B00069830E946F1B698169830E94C51A6981C2
:1025C000882381F0112371F080E2860F883050F06B
:1025D00082E00E94AE1A0E94C51A91E0D82ED92638
:1025E000698101C0D12CEC2DE295EF70F0E0E45848
:1025F000FF4F0C94EE298C2D807F0C2D0F708823BB
:1026000011F00295007F1123C1F0002309F49BC152
:1026100080E2860F883010F0611105C0802F698339
:102620000E94521B04C0802F69830E94621B698133
:1026300069830E94991B698186C1862F69830E94E4
:1026400063126981002309F4CCC180E2860F8830CF
:1026500010F0611104C0802F0E94581B03C0802F0E
:102660000E94681B0E94991BBCC19C2D907F8C2DE1
:102670008F70903211F08295807F662319F061305F
:10268000B1F01EC0112349F0002309F414C1013038
:1026900009F011C10E94821BA4C1002319F001306E
:1026A00009F49FC189830E94851B89810AC1112376
:1026B00021F0023008F095C1FEC0011192C101C1A4
:1026C000112321F0002309F4F6C03DC1002309F4D1
:1026D000F8C03FC18C2D86958695837090E0009759
:1026E00019F0019761F07DC1112321F0862F9C2DF7
:1026F000937002C080E090E00E943F1072C11123ED
:1027000021F0862F9C2D937002C080E090E00E9403
:10271000551067C1862F112319F00E94DF1D02C0DA
:102720000E94471E0E94CC1E5CC18C2D837009F054
:1027300052C0111156C1862F829586958770880FD9
:10274000880F962F9F70892E912CA12CB12C082ECA
:1027500004C0880C991CAA1CBB1C0A94D2F764FF05
:1027600014C00FE010E020E030E0B901A80104C07F
:10277000440F551F661F771F8A95D2F7CB01BA0108
:10278000609570958095909503C060E070E0CB01F6
:102790002C2D26952695237030E02230310569F0E6
:1027A0002330310589F0682979298A299B2921302C
:1027B000310571F00E943A1914C1682979298A29D2
:1027C0009B290E9456190DC10E943A19C501B401F6
:1027D0000E941E1906C1112319F08C2D817001C0B1
:1027E0008695882309F4FDC0862F8295869587708B
:1027F000880F880F962F9F70892E912CA12CB12CB9
:10280000082E04C0880C991CAA1CBB1C0A94D2F781
:1028100064FF14C00FE010E020E030E0B901A8012F
:1028200004C0440F551F661F771F8A95D2F7CB014E
:10283000BA01609570958095909503C060E070E056
:10284000CB012C2D269526952370422F50E0423047
:10285000510569F04330510589F0682979298A29A1
:102860009B294130510571F00E94141ABAC06829A1
:1028700079298A299B290E94301AB3C00E94141A10
:10288000C501B4010E94F819ACC0862F90E0FC018C
:10289000E05EF109E531F10508F051C0E457FF4F62
:1028A0000C94EE29062F0F708C2D8F71112331F0AF
:1028B0000E949119802F0E94B21293C00E94B219F7
:1028C000802F0E94B9128DC0112339F0011189C0E7
:1028D0008C2D8F710E94D71984C0023008F081C0FE
:1028E000F7CF112339F08C2D8F710E94911979C087
:1028F0001123C9F38C2D8F710E94B21972C011235C
:1029000029F08C2D8F710E947C196BC00E94721966
:1029100068C0112351F01C2D1F71812F0E94911945
:1029200063E0812F0E94A51A5CC081E00E94AE1A6C
:10293000023008F456C082E00E94AE1A52C0112341
:1029400031F0002381F2862F0E9490114AC00023AB
:1029500089F2862F0E94631244C04C2D4F70C7012C
:102960000E94F2080E9496183CC0623F99F128F438
:10297000603F49F0613FE1F020C0643FA1F050F0BA
:10298000653F59F01AC0112339F19091D00381E0CD
:10299000892706C081E018271DC011111DC081E0E4
:1029A0008093D00319C0111117C01092D00314C026
:1029B000002381F0111110C0E8CF002359F0862FB9
:1029C0006983112319F00E94901102C00E946312C2
:1029D000698102C01093D0034C2D4F70C7010E9433
:1029E000C70CDD20F1F00E94A11A80FD1AC0F7018A
:1029F00012820E949B1A0E949119C7010E941F1502
:102A00000E949B1A0F90DF91CF911F910F91FF9021
:102A1000EF90DF90CF90BF90AF909F908F900C94ED
:102A2000B2190F90DF91CF911F910F91FF90EF900E
:102A3000DF90CF90BF90AF909F908F9008950F93AD
:102A40001F93CF93DF93EC01888199812B813C8187
:102A5000232BB9F09F3F11F48F3F99F0CE010E94D4
:102A6000210A882371F0688179818A810E94971AEE
:102A70008C010E944C1A0E941319B801CE010E94C9
:102A8000C012DF91CF911F910F9108950E946F1B8B
:102A90000E947F1B0E94441B0E94991B0E947C1F66
:102AA0000E94CC1E80E090E00E943F1080E090E009
:102AB0000C9455100E945F1B0C9446150E948C1AB2
:102AC000E92FE295EF70F0E03297EE30F105B0F4C7
:102AD000EF55FF4F0C94EE29803F91F018F4803EA3
:102AE00068F40EC0843F51F40BC0803E48F0813F33
:102AF00029F406C093FB882780F9089580E00895A3
:102B000081E00895CF93DF9300D000D01F92CDB71E
:102B1000DEB70F900F900F900F900F90DF91CF9135
:102B20000895CF93DF9300D000D000D0CDB7DEB7AB
:102B300026960FB6F894DEBF0FBECDBFDF91CF91C2
:102B400008951F93CF93DF93C091D10316E0809136
:102B5000D203C81799F0D0E01C9FF0011D9FF00D23
:102B60001124ED52FC4F4081518162817381848137
:102B700095810E9491152196C770E9CFDF91CF9181
:102B80001F9108954091030450910404609105043D
:102B90007091060480910704909108040C9491159B
:102BA0008091080482958F7009F054C080910504CB
:102BB000882309F44FC08091D103A091D203609182
:102BC0000304709104044091060450910704B6E098
:102BD0008A1709F43FC090E041155105C1F17F3FCC
:102BE00011F46F3FA1F1B89FF001B99FF00D1124CE
:102BF000ED52FC4F218172132AC02081621327C03D
:102C00002281211124C0238134812417350710F437
:102C100021503109241B350B26393105C0F4209190
:102C200008042F7020612093080426E0289FF001FB
:102C3000299FF00D1124E852FC4F80818F70806134
:102C4000808383E094E00E941F150C94A1150196E7
:102C50008770BECF0895CF92DF92EF92FF920F93CD
:102C60001F93CF93DF93CDB7DEB762970FB6F8947B
:102C7000DEBF0FBECDBF8C0185E0F801DE011D96E1
:102C800001900D928A95E1F7D8014C9111965C91D3
:102C9000119712966C9112971396CD90DC90149721
:102CA000309103047091040480910604909107040C
:102CB000009709F46BC17F3F19F43F3F09F466C1E7
:102CC000E0900504EE2009F4C0C020910804C81665
:102CD000D90628F0F601E81BF90BCF0104C0809556
:102CE00090958C0D9D1DFF24F3948639910578F005
:102CF000F12C207F09F0C6C07C2DD98AC88A898929
:102D00000E94821583E094E00E941F15B1C0822FBB
:102D1000807F09F046C0751314C0341312C06111CE
:102D200010C02F702061209308040E94C21583E018
:102D300094E00E941F1580910804D80115968C9389
:102D40002EC0CD2819F15F3F11F44F3FF9F0F62E58
:102D500061111CC08091D1032091D20336E082170B
:102D600009F45AC090E0389FF001399FF00D11240A
:102D7000ED52FC4F7181571306C07081471303C099
:102D80007281711103C001968770E9CFF62E662318
:102D900009F418C180910804816080930804F12C23
:102DA00011C1751308C0341306C0611104C08091AD
:102DB0000804D801C3C04D875E878D859E856A8BC8
:102DC0000E945E156A898823E1F16623D1F1209182
:102DD0000804822F82958F7090E0029774F08091A2
:102DE00003049091040498878F831986DB86CA8632
:102DF0002C87CE0107960E941F1586E0F801A3E0FC
:102E0000B4E001900D928A95E1F70E94D0150E94DE
:102E1000C215FF24F394D6C04D875E878D859E85AD
:102E20000E948C1A292F22952F7030E02230310514
:102E30000CF0BCC09F7009F0B6C0805E883008F40A
:102E4000C1C0C8010E941F15E4CFC816D90608F4F6
:102E500053C0F601E81BF90BCF018639910508F440
:102E600050C0F12C7C2DD98AC88A89890E9482158C
:102E7000E3E0F4E086E0DF011D928A95E9F70E9425
:102E8000C215A0C0751314C0341312C0611110C054
:102E900080910804F8018583C8010E941F1586E00F
:102EA000E3E0F4E0DF011D928A95E9F7FE2C8AC089
:102EB0004D875E878D859E856A8B0E945E156A8927
:102EC000882309F4BECF662309F4BBCF2091080400
:102ED000822F82958F7090E002970CF48ECF8091B4
:102EE0000304909104049A8389831B82DD82CC823F
:102EF0002E83CE0101967FCF809590958C0D9D1DE0
:102F0000ACCFF62E662309F49CCF75132EC0341374
:102F10002CC02091080420FD1FC0822F82958F7045
:102F2000D9F0D80115962C9315978F3049F08F5F03
:102F3000982F9295907F822F8F70892B15968C9366
:102F4000C8010E941F1586E0F801A3E0B4E00190DB
:102F50000D928A95E1F793CF86E0F801A3E0B4E003
:102F600001900D928A95E1F72DC04D875E878D8582
:102F70009E850E945E15811140CF8091080481607A
:102F800080930804C8010E941F151CC0662309F421
:102F900058CF4D875E878D859E850E945E1588235C
:102FA00009F44FCF2ACF811148CF0CC0243031050E
:102FB0000CF047CF9F7009F440CFF8019581907FC6
:102FC00009F03BCF8F2D62960FB6F894DEBF0FBE8F
:102FD000CDBFDF91CF911F910F91FF90EF90DF90C8
:102FE000CF9008951F93CF93DF93CDB7DEB72C9783
:102FF0000FB6F894DEBF0FBECDBF4F8358876987E9
:103000007A878B879C87CE0107960E942B16882390
:1030100069F08F8198852A853B85232BF1F19F3FAD
:1030200009F063C08F3F09F060C037C086E0FE0141
:103030003796DE01119601900D928A95E1F76F8126
:103040007885EA85FB85309741F17F3F11F46F3F2A
:1030500021F12091D20330E0C901019687709927B0
:103060004091D10350E08417950709F447C0698364
:103070007A83FD83EC8396E0929FD001939FB00DFD
:103080001124AD52BC4FFE01319601900D929A95DC
:10309000E1F78093D2030E94A11516E08091D1033D
:1030A0009091D2038917C1F1189FC00111248D524C
:1030B0009C4F0E942B16882379F1E091D1031E9F2B
:1030C000F0011124ED52FC4F4081518162817381E6
:1030D000848195810E9491158091D10390E00196A1
:1030E000877099278093D103D9CF4F8158856985FF
:1030F0007A858B859C850E949115CFCF0E945A15A9
:103100001092D2031092D103E3E0F4E086E0DF01F5
:103110001D928A95E9F7C1CF2C960FB6F894DEBFC1
:103120000FBECDBFDF91CF911F910895EF92FF9217
:103130000F931F93CF93DF938C01892B09F46CC0FD
:10314000F12CEE24E394E8012196F8018491843770
:1031500040F4843008F051C0813081F0823019F1A0
:103160005BC0853709F444C0A8F19CE7980F9037FD
:1031700008F052C08F770E94631241C00E5F1F4F4C
:10318000FE01C49180E28C0F883048F4C7708E2D08
:1031900001C0880FCA95EAF70E94721B14C08C2FD9
:1031A0000E9490112DC00E5F1F4FFE01C49180E25E
:1031B0008C0F883058F4C7708E2D01C0880FCA95C7
:1031C000EAF70E94781B0E94991B1AC08C2F0E945C
:1031D000631216C00E5F1F4FFE01C491CC2381F015
:1031E0008FE99FE00197F1F700C00000C150F6CFD2
:1031F0000E5F1F4FFE01F49003C00E9490118E01DC
:103200008F2D882309F49FCFEFE9FFE03197F1F785
:1032100000C000008150F5CFDF91CF911F910F9139
:10322000FF90EF900895089560930D0470930E043D
:1032300080930F04909310040C9446150F931F93E2
:1032400000910D0410910E0420910F043091100490
:10325000DC01CB01802B912BA22BB32B80930D048F
:1032600090930E04A0930F04B09310041F910F913C
:103270000C9446150F931F9300910D0410910E04AA
:1032800020910F0430911004DC01CB0180239123A5
:10329000A223B32380930D0490930E04A0930F04F4
:1032A000B09310041F910F910C9446150F931F9328
:1032B00000910D0410910E0420910F043091100420
:1032C000DC01CB0180279127A227B32780930D042F
:1032D00090930E04A0930F04B09310041F910F91CC
:1032E0000C9446151092090410920A0410920B04D3
:1032F00010920C040C94461541E050E060E070E040
:1033000004C0440F551F661F771F8A95D2F740935C
:10331000090450930A0460930B0470930C040C94FA
:10332000461541E050E060E070E004C0440F551FD6
:10333000661F771F8A95D2F78091090490910A043D
:10334000A0910B04B0910C04482B592B6A2B7B2BBA
:103350004093090450930A0460930B0470930C0487
:103360000C94461541E050E060E070E004C0440F6A
:10337000551F661F771F8A95D2F740955095609527
:1033800070958091090490910A04A0910B04B0916A
:103390000C04482359236A237B2340930904509348
:1033A0000A0460930B0470930C040C94461541E0DE
:1033B00050E060E070E004C0440F551F661F771FA7
:1033C0008A95D2F78091090490910A04A0910B0488
:1033D000B0910C04482759276A277B27409309049A
:1033E00050930A0460930B0470930C040C944615DC
:1033F0000F931F930091090410910A0420910B046C
:1034000030910C04DC01CB01802B912BA22BB32B30
:103410008093090490930A04A0930B04B0930C04C6
:103420001F910F910C9446150F931F93009109045F
:1034300010910A0420910B0430910C04DC01CB01A3
:1034400080239123A223B3238093090490930A0439
:10345000A0930B04B0930C041F910F910C9446158C
:103460000F931F930091090410910A0420910B04FB
:1034700030910C04DC01CB0180279127A227B327D0
:103480008093090490930A04A0930B04B0930C0456
:103490001F910F910C9446150895CF92DF92EF92F1
:1034A000FF920F931F93CF93DF938C01C0900D0475
:1034B000D0900E04E0900F04F09010048091090465
:1034C00090910A04A0910B04B0910C04C82AD92A47
:1034D000EA2AFB2ACFE1D0E0D701C6010C2E04C0B6
:1034E000B695A795979587950A94D2F780FF06C061
:1034F000B8018C2F0E94380B019721F4219760F7B7
:1035000080E001C08C2FDF91CF911F910F91FF9030
:10351000EF90DF90CF900895CF93DF93EC010E945E
:103520004D1ABE010E94380BDF91CF910895CB0157
:103530000E948C1A08958091110485958595859532
:103540000895809111048770089598E0899F9001F3
:103550001124262B209311040C949119209111040D
:103560008095822380931104982F977069F430E03E
:10357000482F082E000C550B2417350729F0859588
:10358000859585950C94B2190895909111049770C2
:1035900081E009F480E008959091B502992321F02B
:1035A0009091690497FD09C02091A3023091A40273
:1035B000F90132969FEF40E01FC0982F969596959F
:1035C00096959F3150F5E091A302F091A402E90F86
:1035D000F11D877021E030E0A90102C0440F551FA2
:1035E0008A95E2F7CA019181892B818308959F3FD3
:1035F00039F04F5F4E3141F051915813F8CF0DC063
:103600005111F7CF942FF5CF9F3F39F0F901E90F12
:10361000F11D97FDFA958283089508959091B50262
:10362000992321F09091690497FD09C02091A3028C
:103630003091A402F9013296205E3F4F1FC0982FAF
:103640009695969596959F31F0F4E091A302F091AE
:10365000A402E90FF11D877021E030E0A90102C04A
:10366000440F551F8A95E2F7CA01809591818923FD
:10367000818308953196E217F30729F0908198131A
:10368000F9CF1082F7CF089581E090E0E091A30296
:10369000F091A402E80FF91F108201968032910583
:1036A000A9F7089590913504892B809335040895E6
:1036B0008095909135048923809335040895109264
:1036C0003504089590913404892B8093340408952F
:1036D0008095909134048923809334040895109246
:1036E0003404089590913304892B80933304089512
:1036F0008095909133048923809333040895109228
:1037000033040895809312040895109212040895CA
:103710008091A3029091A402FC0131969C01205E4D
:103720003F4F80E0919191118F5FE217F307D1F73E
:103730000895E091A302F091A40280913504808362
:10374000E091A302F091A402908180913404892B2E
:103750008083E091A302F091A402908180913304D0
:10376000892B808380911204882361F0E091A30269
:10377000F091A4029081892B80830E94881B811183
:10378000109212048091A3029091A4020C9429102B
:10379000CF92DF92EF92FF926C01EE24FF24C114CE
:1037A000D104E104F10421F0C701B60120E101C018
:1037B00020E0C72ED82EE92EFF24C114D104E10445
:1037C000F10419F0285FC701B6016B017C0154E0D8
:1037D000F694E794D794C7945A95D1F7C114D104BD
:1037E000E104F10419F02C5FC701B6016B017C0103
:1037F00042E0F694E794D794C7944A95D1F7C11460
:10380000D104E104F10419F02E5FC701B601DC0117
:10381000CB01B695A79597958795892B8A2B8B2BEE
:1038200009F02F5F822FFF90EF90DF90CF900895E7
:103830006DEE7EEF80E090E00E94282A60E082E05A
:1038400090E00E94162A60E083E090E00E94162A31
:1038500060E084E090E00E94162A60E085E090E05D
:103860000C94162A80E090E00E94102A21E08D3E00
:103870009E4F09F020E0822F089582E090E00C94A2
:10388000082A83E090E00C94082A84E090E00C94ED
:10389000082A682F84E090E00C94162A80916F0427
:1038A000843039F11092370420E488E190E00FB6BB
:1038B000F894A895809360000FBE2093600080E08C
:1038C0000E94360B83B7817F846083BF83B781609A
:1038D00083BF7894889583B78E7F83BF0FB6F894A3
:1038E000A8958091600088618093600010926000CC
:1038F0000FBE08950895CF930E94C6070E94D9076E
:103900000E947A1CC0E08C2F0E94C708811104C05D
:10391000CF5FCE30C1F701C081E0CF9108950E9402
:103920005A150E941D100C94360B1F920F920FB661
:103930000F9211248F939F93AF93BF93809137047D
:10394000811113C08091380490913904A0913A04F8
:10395000B0913B044196A11DB11D80933804909312
:103960003904A0933A04B0933B04BF91AF919F9167
:103970008F910F900FBE0F901F90189582E084BD1D
:1039800093E095BD9AEF97BD80936E0008952FB791
:10399000F8948091380490913904A0913A04B09140
:1039A0003B042FBF0895CF92DF92EF92FF920F93C7
:1039B0001F932FB7F89440913804509139046091C7
:1039C0003A0470913B042FBF6A017B01EE24FF246F
:1039D0008C0120E030E0C016D106E206F30610F4B8
:1039E000415051099A01281B390BC9011F910F91B0
:1039F000FF90EF90DF90CF9008951F920F920FB637
:103A00000F9211248F939F93AF93BF9380913804AB
:103A100090913904A0913A04B0913B040196A11D04
:103A2000B11D8093380490933904A0933A04B09365
:103A30003B04BF91AF919F918F910F900FBE0F905C
:103A40001F9018950E94AB25F8942FEF87EA91E616
:103A5000215080409040E1F700C0000087E090EBEB
:103A6000DC018093780490937904A0937A04B09356
:103A70007B049CE088E10FB6F894A89580936000E1
:103A80000FBE90936000FFCF0E94321C811102C0D4
:103A90000E94181C0E943D1C809336040E94451C05
:103AA00090E090936A04809369040E94411C682FFF
:103AB00070E080E090E00C94141980913E0480FF47
:103AC0000BC06091A80285E0689FB0011124759534
:103AD0006795759567952BC081FF09C06091A80215
:103AE00085E0689FB00111247595679520C082FF1D
:103AF00007C06091A80285E0689FB001112417C03B
:103B000090913F049923D1F06091A702961788F70E
:103B10002091A80285E0289F90011124929FA00186
:103B2000939F500D112470E0CA010E94DA29603879
:103B3000710540F46115710539F002C065E070E06F
:103B4000862F08958FE7089581E0089580913E04BF
:103B500080FF08C06091A60270E075956795759525
:103B6000679521C081FF06C06091A60270E075953F
:103B7000679519C082FF04C06091A60270E010C072
:103B800090913F049923C1F06091A5029617A0F788
:103B90008091A602899FC001112470E00E94DA2959
:103BA0006038710528F46115710521F0862F08959C
:103BB0008FE7089581E0089561E070E0F4CF803FE1
:103BC00021F40E945D1D819504C0813F29F40E946B
:103BD0005D1D809342040895823F21F40E945D1D83
:103BE000819504C0833F29F40E945D1D80934104A8
:103BF0000895893F19F40E94A61D05C08A3F31F43B
:103C00000E94A61D81958093430408958B3F21F463
:103C10000E94A61D819504C08C3F29F40E94A61D18
:103C2000809344040895843F21F48091400481608E
:103C300017C0853F21F480914004826011C0863F07
:103C400021F48091400484600BC0873F21F480916F
:103C50004004886005C0883F31F480914004806151
:103C60008093400408958D3F21F480913E0481604B
:103C70000BC08E3F21F480913E04826005C08F3FCF
:103C800029F480913E04846080933E040895803F2F
:103C900039F48091420487FF6CC01092420469C0DD
:103CA000813F29F4809142041816BCF362C09091C0
:103CB0004104823F29F497FF5CC01092410459C02F
:103CC000833F19F41916CCF354C0893F41F4809115
:103CD000430418160CF04DC0109243044AC08A3FAA
:103CE00029F48091430487FF44C0F6CF8B3F39F419
:103CF0008091440487FF3DC0109244043AC08C3F39
:103D000029F4809144041816BCF333C0843F21F495
:103D1000809140048E7F17C0853F21F4809140043C
:103D20008D7F11C0863F21F4809140048B7F0BC0B2
:103D3000873F21F480914004877F05C0883F31F49C
:103D4000809140048F7E8093400413C08D3F21F406
:103D500080913E048E7F0BC08E3F21F480913E0403
:103D60008D7F05C08F3F29F480913E048B7F809327
:103D70003E048091410481110EC080914204811162
:103D80000AC080914304811106C0809144048111CE
:103D900002C010923F04089580E494E00E94341021
:103DA0000E94C71C90933D0480933C0408951F9388
:103DB000CF93DF9380913C0490913D040E94D31CEB
:103DC000AC0190913F04992321F02091A90230E0A9
:103DD00006C02091AA028AE0289F90011124421770
:103DE000530708F485C080914104C0914204D091EA
:103DF000430410914404811107C0C11175C0D11151
:103E000073C0111171C074C09F3F19F09F5F9093F0
:103E10003F04181624F40E945D1D80934104809194
:103E2000410487FF05C00E945D1D81958093410478
:103E30001C1624F40E945D1D80934204809142046C
:103E400087FF05C00E945D1D8195809342046091AB
:103E50004104662331F1C0914204CC2311F1062EB6
:103E6000000C770B880B990B0E94E12823E333E3C6
:103E700043E35FE30E9445290E94A928609341041F
:103E80006C2FCC0F770B880B990B0E94E12823E352
:103E900033E343E35FE30E9445290E94A92860932E
:103EA00042041D1624F40E94A61D809343048091B1
:103EB000430487FF05C00E94A61D8195809343049B
:103EC000111624F40E94A61D80934404809144049A
:103ED00087FF05C00E94A61D819580934404DF9151
:103EE000CF911F910C94CC1E9F3F09F08FCF97CF9D
:103EF000DF91CF911F910895E0E4F4E085E0DF01C8
:103F00001D928A95E9F710923F0410923E0408959D
:103F1000833081F128F4813059F08230D1F0089556
:103F2000853009F449C0B8F1863009F456C00895C7
:103F30008091AA02262F30E0280F311D2F3F310536
:103F400024F4680F6093AA0208958FEF8093AA0269
:103F500008958091A902262F30E0280F311D2F3FB0
:103F6000310524F4680F6093A90208958FEF8093C0
:103F7000A90208958091A802262F30E0280F311D54
:103F80002F3F310524F4680F6093A80208958FEF46
:103F90008093A80208958091A702262F30E0280F71
:103FA000311D2F3F310524F4680F6093A702089557
:103FB0008FEF8093A70208958091A602262F30E00C
:103FC000280F311D2F3F310524F4680F6093A6029E
:103FD00008958FEF8093A60208958091A502262F61
:103FE00030E0280F311D2F3F310524F4680F609316
:103FF000A50208958FEF8093A5020895833011F1F3
:1040000028F4813049F0823091F00895853081F1B3
:1040100020F18630C1F108958091AA02681720F43A
:10402000861B8093AA0208951092AA020895809197
:10403000A902681720F4861B8093A90208951092A4
:10404000A90208958091A802681720F4861B809326
:10405000A80208951092A80208958091A7026817F7
:1040600020F4861B8093A70208951092A70208955A
:104070008091A602681720F4861B8093A6020895FB
:104080001092A60208958091A502681720F4861B5D
:104090008093A50208951092A50208950F931F938F
:1040A000873208F04DC08E3108F095C0803109F498
:1040B0007FC008F5873009F46BC068F4863009F0DA
:1040C000A5C080913604817F8E7F8093360481E085
:1040D000809346049CC08B3009F491C08E3009F067
:1040E00095C08091360482FB222720F991E0922727
:1040F00090FB82F966C0863109F481C088F4813171
:1041000009F084C00E945A158091690487FB222718
:1041100020F991E0922790FB87F9809369046FC0A2
:10412000893109F46CC08B3109F070C0809136047C
:1041300081FB222720F991E0922790FB81F941C071
:10414000883309F45CC050F4893209F45AC08533CD
:1041500009F457C0873209F454C058C0833409F4B5
:1041600050C028F48A3308F451C0895335C08834CC
:1041700009F04CC00E945A150FEF13ED20E30150D7
:1041800010402040E1F700C000000E94221D37C00F
:1041900090913604892F8095817080FB90F99093DF
:1041A0003604882361F196609860909336042FC09E
:1041B0008091360483FB222720F991E0922790FB1F
:1041C00083F9809336049923D1F08091360481607D
:1041D0008093360414C08D5141E050E060E070E0FF
:1041E0008A019B0104C0000F111F221F331F8A95F3
:1041F000D2F7C901B8010E9414190E945A1581E032
:1042000006C061E070E080E090E0F5CF80E01F91B3
:104210000F91089580E0089580E008958E518A30CE
:1042200030F4E82FF0E0E25AFC4F8081089580E0FE
:104230000895CF93C82F80914604813079F018F00B
:104240008230E9F186C0E091A302F091A40280815E
:10425000813169F0823209F07EC009C0E091A30289
:10426000F091A4028081813111F0823261F48C2FAF
:104270000E940A21811104C08C2F0E944E201DC073
:1042800081E090E01AC08C2F0E940C21811114C093
:10429000C43179F048F4CB3079F0C03109F05FC017
:1042A00082E08093460408C0C93219F0C83321F077
:1042B00056C01092460453C081E0817052C0C9328A
:1042C00081F110F5C43169F1A8F4C73009F045C097
:1042D0008AE08093AA0294E19093A90293E09093DC
:1042E000A8028093A70288E08093A60288E28093C8
:1042F000A50233C082EE8C0F863078F58C2F0E9499
:104300000E218093450429C0CE34E9F020F4CB344B
:1043100021F56AE013C0C13579F0C235F1F461E0EE
:104320000DC080914504882319F01092450415C0F2
:1043300081E08093460415C061E006C08091450489
:104340000E94881F0AC06AE0809145040E94FE1FF7
:1043500004C01092460480E004C081E002C080E006
:10436000ACCFCF910895809167040895CF93DF93E8
:1043700000D01F92CDB7DEB79C0180916F048430CE
:1043800019F593E099833B832A839093E9008FEF9B
:104390009091E800815095FD06C095ED9A95F1F752
:1043A00000008111F5CF8091E80085FF0DC040E04D
:1043B00050E063E070E0CE0101960E9416248091E7
:1043C000E8008E778093E8000F900F900F90DF91B8
:1043D000CF910895CF93DF9300D01F92CDB7DEB772
:1043E00020916F04243021F522E029839B838A8366
:1043F00083E08093E9008FEF9091E800815095FD74
:1044000006C095ED9A95F1F700008111F5CF8091E6
:10441000E80085FF0DC040E050E063E070E0CE01B1
:1044200001960E9416248091E8008E778093E80020
:104430000F900F900F90DF91CF91089520916F040E
:104440002430F1F422E02093E9002FEF3091E800CE
:10445000215035FD06C035ED3A95F1F700002111E8
:10446000F5CF2091E80025FF0BC040E050E065E06B
:1044700070E00E9416248091E8008E778093E80017
:104480000895CF93DF93EC0190916F04943009F07D
:1044900046C08091B5028823D9F08091690487FFD6
:1044A00017C09093E9008FEF9091E800815095FD3F
:1044B00006C095E19A95F1F700008111F5CF809142
:1044C000E80085FF2CC040E050E060E270E017C0DB
:1044D00081E08093E9008FEF9091E800815095FD95
:1044E00006C095ED9A95F1F700008111F5CF809106
:1044F000E80085FF14C040E050E068E070E0CE01C5
:104500000E9416248091E8008E778093E80080E274
:10451000FE01A7E4B4E001900D928A95E1F7DF91E6
:10452000CF91089580916E04811109C00E94AB253E
:104530000E9408268091E20084608093E200089542
:1045400010926E040895089508950C948F1C42E013
:1045500061EC81E00E94252542E061EC82E00E944E
:10456000252542E061EC83E00E94252542E261ECD2
:1045700084E00C94252580917104833009F455C0A2
:1045800030F4813071F0823009F48EC008958A30A1
:1045900009F47AC08B3009F460C0893009F09CC0FE
:1045A00020C080917004813A09F096C08091E800A3
:1045B000877F8093E8008091740490917504892B23
:1045C00021F460E287E494E003C060E080E090E0E2
:1045D00070E00E9461248091E8008B778093E8006E
:1045E000089580917004813209F076C0809174043E
:1045F00090917504009719F0039709F06DC08091B0
:10460000E800877F8093E8008091E80082FD05C084
:1046100080916F048111F8CF5FC08091F100809389
:1046200067048091E8008B7753C080917004813AD1
:1046300009F052C08091740490917504892B09F09F
:104640004BC08091E800877F8093E8008091E8006C
:1046500080FFFCCF8091B50236C08091700481321A
:10466000D9F58091740490917504892BA9F58091F6
:10467000E800877F8093E8000E945A2580917204A9
:104680008093B5020C945A1580917004813221F503
:104690008091E800877F8093E8000E945A258091EE
:1046A000730480936804089580917004813AA1F4A2
:1046B0008091E800877F8093E8008091E80080FF88
:1046C000FCCF809168048093F1008091E8008E77A0
:1046D0008093E8000C945A25089584B7877F84BF9F
:1046E0000FB6F894A895809160008861809360006F
:1046F000109260000FBE80E880936100109261000C
:104700000E946C100E94AB250E9408268091E20056
:1047100084608093E20078940E948E280E946E103C
:104720008BEA92E00E94181080916F04853069F442
:104730000E944E1C80916D048823B1F30E947B1C63
:10474000882391F30E940024EFCF0E947410ECCFD5
:10475000292F332723303105C9F064F42130310586
:1047600081F02230310509F043C08DE690E02EE55E
:104770003CE042C021323105F1F02232310541F1F5
:1047800037C082E190E02BEC3CE036C099278130C5
:10479000910541F08230910541F0892B49F5EAE518
:1047A000FCE005C0E2E4FCE002C0EAE2FCE0849147
:1047B00090E09F0121C06430D8F4E62FF0E0EE0FC6
:1047C000FF1FEC58FC4F2081318189E090E014C03C
:1047D000643070F470E0FB01EE0FFF1FE459FC4FF2
:1047E00020813181FB01E859FC4F808190E004C0B9
:1047F00080E090E020E030E0FA01318320830895EA
:1048000080E189BD82E189BD09B400FEFDCF8091C0
:10481000D8008F7D8093D8008091E00082608093E3
:10482000E0008091E00081FDFCCF0895CF92DF92FF
:10483000EF92FF920F931F93CF93DF93EC018B01C5
:104840006A010E947925811133C0C114D10439F065
:10485000F60180819181081B190BC80FD91FE12C2B
:10486000F12C0115110519F18091E80085FD16C0A4
:104870008091E8008E778093E800C114D10449F05C
:10488000F60180819181E80EF91EF182E08285E0D7
:104890000FC00E947925882321F30AC08991809353
:1048A000F10001501109FFEFEF1AFF0ADACF80E0A3
:1048B000DF91CF911F910F91FF90EF90DF90CF90FC
:1048C000089520917604309177042617370748F031
:1048D0006115710539F42091E8002E772093E800E6
:1048E00001C0B90140E061157105A9F120916F0483
:1048F000222309F443C0253009F442C02091E80086
:1049000023FD40C02091E80022FD32C02091E80044
:1049100020FFE9CF4091F3002091F20030E0342BEA
:10492000FC01CF016115710559F02830310540F4C3
:1049300081918093F100615071092F5F3F4FF1CF5A
:1049400041E02830310509F040E02091E8002E7761
:104950002093E800C8CF4111C9CF0AC080916F04ED
:10496000882361F0853061F08091E80083FD0AC002
:104970008091E80082FFF2CF80E0089582E0089500
:1049800083E0089581E008952091760430917704C2
:104990002617370748F06115710539F42091E800B2
:1049A0002E772093E80001C0B901FC0120E06115D9
:1049B000710591F180916F04882309F440C085301E
:1049C00009F43FC08091E80083FD3DC08091E8007C
:1049D00082FD2FC08091E80080FFE9CF2091F30095
:1049E0008091F20090E0922B6115710559F08830AA
:1049F000910540F424912093F100319661507109A2
:104A00000196F2CF21E0089709F020E08091E800BC
:104A10008E778093E800CBCF2111CCCF0AC0809154
:104A20006F04882361F0853061F08091E80083FD98
:104A30000AC08091E80082FFF2CF80E0089582E012
:104A4000089583E0089581E00895982F973058F5F0
:104A50009093E900981739F07091EC002091ED00E7
:104A60005091F00003C0242F762F50E021FF19C091
:104A70003091EB003E7F3093EB003091ED003D7FB5
:104A80003093ED003091EB0031603093EB00709388
:104A9000EC002093ED005093F0002091EE0027FFF2
:104AA00007C09F5FD3CF8F708093E90081E00895A6
:104AB00080E008958091700487FF11C08091E80024
:104AC00082FD05C080916F048111F8CF11C08091E3
:104AD000E8008B770BC080916F04882349F08091A8
:104AE000E80080FFF8CF8091E8008E778093E8009F
:104AF00008952091E4003091E50095E64091EC00A6
:104B0000842F817040FF22C08091E80080FD1CC08E
:104B100080916F04882391F0853091F08091EB00B3
:104B200085FD10C04091E4005091E5004217530705
:104B300029F39A01915011F784E0089582E00895D5
:104B400083E0089581E0089580E008954091E800B1
:104B500042FFDECF08950E9419260E942126E0EE32
:104B6000F0E0808181608083E8EDF0E080818F77E4
:104B7000808319BCA7EDB0E08C918E7F8C938081EF
:104B80008F7E808310926E0408950F931F93CF93AE
:104B9000DF930E9419260E942126C8EDD0E088816B
:104BA0008F77888388818068888388818F7D8883D8
:104BB00019BC10926F0410926B0410926D04109245
:104BC0006C0400EE10E0F80180818B7F8083888187
:104BD0008160888342E060E080E00E942525E1EE6C
:104BE000F0E080818E7F8083E2EEF0E08081816062
:104BF0008083808188608083F80180818E7F8083BC
:104C0000888180618883DF91CF911F910F910895F2
:104C1000E8EDF0E080818F7E8083E7EDF0E0808139
:104C20008160808384E082BF81E080936E040C9475
:104C3000C525E8EDF0E080818E7F80831092E20050
:104C400008951092DA001092E10008951F920F92D9
:104C50000FB60F9211242F933F934F935F936F934F
:104C60007F938F939F93AF93BF93EF93FF93809125
:104C7000E10082FF0BC08091E20082FF07C08091BB
:104C8000E1008B7F8093E1000E948D288091DA0003
:104C900080FF1FC08091D80080FF1BC08091DA0088
:104CA0008E7F8093DA008091D90080FF0DC080E173
:104CB00089BD82E189BD09B400FEFDCF81E080930A
:104CC0006F040E94922205C019BC10926F040E94CA
:104CD000A0228091E10080FF19C08091E20080FF56
:104CE00015C08091E2008E7F8093E2008091E20007
:104CF00080618093E2008091D80080628093D80028
:104D000019BC85E080936F040E94A4228091E10089
:104D100084FF30C08091E20084FF2CC080E189BD17
:104D200082E189BD09B400FEFDCF8091D8008F7D5E
:104D30008093D8008091E1008F7E8093E100809184
:104D4000E2008F7E8093E2008091E2008160809398
:104D5000E20080916B04882311F084E007C0809109
:104D6000E30087FD02C081E001C083E080936F040F
:104D70000E94A5228091E10083FF29C08091E2007A
:104D800083FF25C08091E100877F8093E10082E06E
:104D900080936F0410926B048091E1008E7F80936A
:104DA000E1008091E2008E7F8093E2008091E2003A
:104DB00080618093E20042E060E080E00E9425256F
:104DC0008091F00088608093F0000E94A322FF9100
:104DD000EF91BF91AF919F918F917F916F915F9173
:104DE0004F913F912F910F900FBE0F901F901895EC
:104DF0001F920F920FB60F9211242F933F934F9350
:104E00005F936F937F938F939F93AF93BF93CF9352
:104E1000DF93EF93FF93C091E900CF708091EC0096
:104E2000D82FD17080FDD0E81092E9008091F00079
:104E3000877F8093F00078940E943C271092E900CD
:104E40008091F00088608093F000CD2BCF70C093EC
:104E5000E900FF91EF91DF91CF91BF91AF919F91C9
:104E60008F917F916F915F914F913F912F910F9013
:104E70000FBE0F901F9018951F93CF93DF93CDB760
:104E8000DEB7AA970FB6F894DEBF0FBECDBFE0E73E
:104E9000F4E088E08E0F9091F10091938E13FBCF98
:104EA0000E94BB228091E80083FF1FC180917004A3
:104EB00090917104492F50E04A30510508F015C116
:104EC000FA01E155FF4F0C94EE29803881F08238C9
:104ED00009F00BC1809174048F708093E900809178
:104EE000EB0085FB882780F91092E90006C08091CD
:104EF0006C0490916D04911182609091E800977F0D
:104F00009093E8008093F1001092F100C8C0282F20
:104F10002D7F09F0EAC0882319F0823061F0E5C0E6
:104F200080917204813009F0E0C0933009F080E094
:104F300080936D042BC080917204811127C08091F1
:104F400074048F7009F4D1C08093E9002091EB00C4
:104F500020FF1CC0933021F48091EB00806214C0CC
:104F60009091EB0090619093EB0021E030E0A9017B
:104F700002C0440F551F8A95E2F74093EA00109251
:104F8000EA008091EB0088608093EB001092E900CA
:104F90008091E800877F86C08111A7C010917204BC
:104FA0001F778091E3008078812B8093E3008091CC
:104FB000E800877F8093E8000E945A258091E800EE
:104FC00080FFFCCF8091E30080688093E3001111A3
:104FD00002C082E001C083E080936F0486C08058E5
:104FE000823008F082C080917204909173048C3DED
:104FF00053E0950779F583E08A838AE289834FB786
:10500000F894DE01139620E03EE051E2E32FF0E059
:1050100050935700E49120FF03C0E295EF703F5F8B
:10502000EF708E2F90E0EA3010F0C79601C0C09666
:105030008D939D932F5F243149F74FBF8091E800F6
:10504000877F8093E8006AE270E0CE0101960E94BB
:10505000612414C0AE014F5F5F4F609174040E94E1
:10506000A823BC01892B09F440C09091E800977FE8
:105070009093E80089819A810E94C4248091E8007D
:105080008B778093E80031C0803879F58091E80013
:10509000877F8093E80080916B048093F10080917A
:1050A000E8008E778093E8000E945A251EC0811187
:1050B0001CC0909172049230C0F48091E800877F08
:1050C0008093E80090936B040E945A2580916B04B2
:1050D000811106C08091E30087FD02C081E001C01C
:1050E00084E080936F040E94A7228091E80083FFF0
:1050F0000AC08091E800877F8093E8008091EB00F0
:1051000080628093EB00AA960FB6F894DEBF0FBEC4
:10511000CDBFDF91CF911F9108950895CF938091D6
:105120006F048823A1F0C091E900CF709091EC004A
:10513000892F817090FD80E8C82B1092E900809142
:10514000E80083FD0E943C27CF70C093E900CF9117
:1051500008950E94B0286894B1110C943F290895D5
:105160000E94242988F09F5798F0B92F9927B751AA
:10517000B0F0E1F0660F771F881F991F1AF0BA95FB
:10518000C9F714C0B13091F00E943E29B1E00895F2
:105190000C943E29672F782F8827B85F39F0B93FE4
:1051A000CCF3869577956795B395D9F73EF49095AE
:1051B0008095709561957F4F8F4F9F4F0895E8942C
:1051C00009C097FB3EF490958095709561957F4F4F
:1051D0008F4F9F4F9923A9F0F92F96E9BB279395FD
:1051E000F695879577956795B795F111F8CFFAF40D
:1051F000BB0F11F460FF1BC06F5F7F4F8F4F9F4F3E
:1052000016C0882311F096E911C0772321F09EE89B
:10521000872F762F05C0662371F096E8862F70E001
:1052200060E02AF09A95660F771F881FDAF7880FDB
:105230009695879597F9089557FD9058440F551FF7
:1052400059F05F3F71F04795880F97FB991F61F008
:105250009F3F79F087950895121613061406551F7F
:10526000F2CF4695F1DF08C0161617061806991FEB
:10527000F1CF86957105610508940895E894BB27E0
:1052800066277727CB0197F908950E9458290C9437
:10529000C9290E94BB2938F00E94C22920F0952319
:1052A00011F00C94B2290C94B82911240C943F29C4
:1052B0000E941C2970F3959FC1F3950F50E0551F74
:1052C000629FF001729FBB27F00DB11D639FAA275B
:1052D000F00DB11DAA1F649F6627B00DA11D661FAA
:1052E000829F2227B00DA11D621F739FB00DA11DCB
:1052F000621F839FA00D611D221F749F3327A00D85
:10530000611D231F849F600D211D822F762F6A2F20
:1053100011249F5750409AF0F1F088234AF0EE0F85
:10532000FF1FBB1F661F771F881F91505040A9F7B2
:105330009E3F510580F00C94B2290C943F295F3FA9
:10534000E4F3983ED4F3869577956795B795F795EE
:10535000E7959F5FC1F7FE2B880F911D9695879566
:1053600097F9089597F99F6780E870E060E00895E5
:105370009FEF80EC089500240A941616170618066D
:105380000906089500240A94121613061406050649
:105390000895092E0394000C11F4882352F0BB0FDA
:1053A00040F4BF2B11F460FF04C06F5F7F4F8F4F3D
:1053B0009F4F089597FB072E16F4009407D077FDB2
:1053C00009D00E94F42907FC05D03EF49095819500
:1053D0009F4F0895709561957F4F0895EE0FFF1FC1
:1053E0000590F491E02D0994AA1BBB1B51E107C065
:1053F000AA1FBB1FA617B70710F0A61BB70B881F65
:10540000991F5A95A9F780959095BC01CD010895F3
:10541000F999FECF92BD81BDF89A992780B508957C
:10542000A8E1B0E042E050E00C94302A262FF99930
:10543000FECF92BD81BDF89A019700B4021639F0F3
:105440001FBA20BD0FB6F894FA9AF99A0FBE0895C4
:105450000196272F0E94172A0C94162ADC01CB01F3
:10546000FC01F999FECF06C0F2BDE1BDF89A319674
:1054700000B40D9241505040B8F70895F894FFCF12
:10548000050000CE08DA080000000000000000005F
:10549000000000020F120F00000000000000009D3D
:1054A000020000020F120F0000000000000000992F
:1054B000020000020F120F00000000000000009523
:1054C000020000020F120F00000000000000009117
:1054D000020000020F120F00000000000000008D0B
:1054E000020000020F120F000000000000000089FF
:1054F000020000020F120F000000000000000085F3
:10550000020000020F120F000000000000000081E6
:10551000020000020F120F00000000000000007DDA
:10552000020000020F120F000000000000000079CE
:10553000020000020F120F000000000000000075C2
:10554000020000020F120F000000000000000071B6
:10555000020000020F120F00000000000000006DAA
:10556000020000020F120F0000000000000000699E
:10557000020000020F120F00000000000000006592
:10558000020000020F120F00000000000000006186
:10559000020000020F120F00000000000000005D7A
:1055A000020000020F120F0000000000000000596E
:1055B000020000020F120F00000000000000005562
:1055C000020000020F120F00000000000000005156
:1055D000020F0010300E000F300D000E304D004D48
:1055E000024A004A024E004F044B0050043400347B
:1055F000022E0245002D00440027004300260042F1
:1056000000250041002400400023003F0022003E0E
:105610000021003D0020003C001F003B001E003A1E
:105620000020FF130428080A03140AB32141221E94
:1056300022EA21B62101000D010D020D030D040D1A
:10564000050D000C010C020C030C040C050C000BE6
:10565000010B020B030B040B050B000A010A020AE3
:10566000030A040A050A00090109020903090409D9
:1056700005090008010802080308040805080007D6
:1056800001070207030704070507000601060206D3
:1056900003060406050600050105020503050405C9
:1056A00005050004010402040304040405040003C6
:1056B00001030203030304030503000201020202C3
:1056C00003020402050200010101020103010401B9
:1056D00005010000010002000300040005000102B2
:1056E0000304050607080900404D3639990D4C0D95
:0C56F000160DDD0C700C890CA20CBB0C1C
:00000001FF
