:100000000C94B6030C94FD030C94FD030C94FD03B7
:100010000C94FD030C94FD030C94FD030C94FD0360
:100020000C94FD030C94FD030C94B7200C948921CF
:100030000C9426170C94FD030C94FD030C94FD0303
:100040000C94FD030C94FD030C94FD030C94FD0330
:100050000C94FD030C948E170C94FD030C94FD037B
:100060000C94FD030C94FD030C94FD030C94FD0310
:100070000C94FD030C94FD030C94FD030C94FD0300
:100080000C94FD030C94FD030C94FD030C94FD03F0
:100090000C94FD030C94FD030C94FD030C94FD03E0
:1000A0000C94FD030C94FD030C94FD0338063A06F2
:1000B00045063C063E0640064206440647064906FB
:1000C0004B0656064D064F06510653065506580672
:1000D0008C0D8C0DC60DC60DFB0D1B0E460F820F31
:1000E000260E820FD60ED60E3E0F820F820F7D0F88
:1000F000E30EE30EE30EE30EE30EE30EE30EE30E78
:10010000E30EE30EE30EE30EE30EE30EE30EE30E67
:10011000F50E020F090F100F1A0FFD0FFD0F0F1034
:100120000F1006100F100F100F10FD0FFD0F0B100A
:100130000F100F100B10F621182206231822062389
:100140005D2280220623D522E8226572676F646FE4
:10015000782F6461776B696E7920402032303136B8
:100160002D31312D30312D30313A31313A313000AD
:100170000000F0A129002B003500E100E0000000A4
:100180001E00140004001D00E2014E001F001A00B2
:1001900016001B00E3002A002000080007000600EC
:1001A00076002C002100150009001900E2004B0028
:1001B000220017000A00050000004A002E0002532A
:1001C0000000035300004D002300015300003E01D6
:1001D0000000500024001C000B00110000004F0024
:1001E000250018000D001000E600520026000C004B
:1001F0000E003600E4002800270012000F00370030
:100200002F004C002D001300330038003000510047
:100210002E0231003400E5000453000029000100E3
:1002200001000100013000003A001E022E023602D9
:1002300001004E003B001F022D00370201002A0082
:100240003C00200225022E0001002C003D0021026E
:100250003800220201004B003E002202310224023B
:1002600000004A003F0001000000010000004D00B6
:100270004000010000000100000050004100230286
:100280003602010000004F00420024023702010044
:1002900001005200430025022E0001003700280013
:1002A00044002F0026022F0236004C00450030008B
:1002B000270230022E005100010001000100010060
:1002C00001000000290001000100010001300000D0
:1002D0003A001E022002220201004E003B001F02D3
:1002E0002102230201002A003C002F0226022F00D7
:1002F00001002C003D0030022702300001004B00BD
:100300003E0031023500350200004A003F00010086
:100310000000010000004D0040000100000001004D
:10032000000050004100240021001E0000004F008A
:100330004200250022001F00270052004300260033
:10034000230020003700280044002F00260236003A
:1003500050004C004500300027025200510051006F
:100360002E022D00250238004F00000029002B002E
:100370003500E100E00000001E00140004001D0034
:10038000E2014E001F001A0016001B00E3002A00C5
:10039000200008000700060076002C002100150050
:1003A00009001900E2004B00220017000A000500B6
:1003B00000004A002E0201000000010000004D0074
:1003C0002300015300003E010000500024001C00E7
:1003D0000B00110000004F00250018000D00100058
:1003E0002C02520026000C000E003600E40028000B
:1003F000270012000F0037002F004C002D001300C3
:1004000033003800300051002E0231003400E50086
:100410000100000029002B003500E100E000000091
:100420001E00140004001D00E2014E001F001A000F
:1004300016001B00E3002A00200008000700060049
:1004400076002C002100150009001900E2004B0085
:10045000220017000A00050000004A002300025392
:100460000000035300004D002400015300003E0132
:100470000000500025001C000B00110000004F0080
:10048000260018000D001000E600520027000C00A6
:100490000E003600E40028002D0012000F00370087
:1004A0002F004C002E0213003300380030005100A2
:1004B0002E0031003400E50004530000000000006D
:1004C000000000002A2B28000000000000000000AF
:1004D0000000000000000029000000002C1E342055
:1004E000212224342627252E362D3738271E1F207B
:1004F0002122232425263333362E37381F040506C0
:100500000708090A0B0C0D0E0F1011121314151603
:100510001718191A1B1C1D2F3130232D3504050601
:100520000708090A0B0C0D0E0F10111213141516E3
:100530001718191A1B1C1D2F3130354C00000000F4
:1005400000000000000000000000000000000000AB
:100550000000000000000000000000000001010198
:100560000101010001010101000000000000000084
:100570000000000000000100010001010101010173
:10058000010101010101010101010101010101015B
:100590000101010101010100000001010000000052
:1005A000000000000000000000000000000000004B
:1005B00000000000000000010101010016034500D9
:1005C000720067006F0044006F0078002000450053
:1005D0005A00000016034500720067006F004400D7
:1005E0006F007800200045005A0000000403090451
:1005F00009026D00040100A0FA09040000010301D2
:1006000001000921110100012240000705810308B2
:10061000000A09040100010301020009211101007F
:1006200001224D000705820308000A0904020001A7
:100630000300000009211101000122360007058393
:100640000308000A09040300010300000009211146
:100650000100012239000705840320000112011066
:100660000100000008EDFE07130100010200010572
:10067000010906A101050719E029E71500250195E3
:100680000875018102050819012905950575019173
:10069000029501750391010507190029F715002539
:1006A0000195F875018102C005010980A10185024B
:1006B00016810026B7001A81002AB700751095012F
:1006C0008100C0050C0901A1018503160100269CCB
:1006D000021A01002A9C02751095018100C00501D3
:1006E0000902A1010901A100050919012905150047
:1006F00025019505750181029501750381010501AB
:10070000093009311581257F950275088106093860
:100710001581257F950175088106050C0A3802159B
:1007200081257F950175088106C0C005010906A1D4
:1007300001050719E029E7150025019508750181D4
:1007400002950175088101050819012905950575AE
:100750000191029501750391010507190029FF1503
:100760000026FF00950675088100C00011241FBEF9
:10077000CFEFDAE0DEBFCDBF04B603FE27C0809125
:10078000D6029091D702A091D802B091D9028730B9
:10079000904BA740B04BD1F41092D6021092D702E2
:1007A0001092D8021092D90214BE84B7877F84BFFA
:1007B0000FB6F894A89580916000886180936000DE
:1007C000109260000FBEE0E0FFE3099511E0A0E0A9
:1007D000B1E0E2EAF9E402C005900D92AC3DB10748
:1007E000D9F722E0ACEDB1E001C01D92A63DB20701
:1007F000E1F70E94FE1D0C94CF240C94000010928F
:10080000B9008AE08093B800089594EA9093BC0000
:100810009091BC0097FFFCCF9091B900987F9830E1
:1008200021F0903111F081E008958093BB0084E8BD
:100830008093BC008091BC0087FFFCCF8091B90001
:10084000887F883111F0803471F780E0089584E961
:100850008093BC008091BC0084FDFCCF0895809300
:10086000BB0084E88093BC008091BC0087FFFCCF74
:100870009091B900987F81E0983209F480E0089562
:1008800084E88093BC008091BC0087FFFCCF8091FE
:10089000BB00089580B38C7080BB81B3836F81BB34
:1008A000089580910101811115C080E40E94050422
:1008B0008093010181110CC082E10E942F0480937A
:1008C0000101811105C08FEF0E942F048093010167
:1008D0000E94270484B1807F84B985B1807F85B967
:1008E0008AB1837F8AB98BB1837F8BB93E98469852
:1008F00008950C94AE050E94D409809301010E94D2
:1009000051040E944A04ADEDB1E0EBEEF1E08EE05F
:100910008E0F11921D928E13FCCF0C94BE090E9473
:10092000D409809301010E9451040E944A04ADED54
:10093000B1E0EBEEF1E08EE08E0F11921D928E137E
:10094000FCCF0895BF92CF92DF92EF92FF920F9368
:100950001F93CF93DF9380910101882379F08091D9
:10096000DC018F5F8093DC01811108C00E94D409F3
:1009700080930101811102C00E9466090DED11E012
:10098000C0E0D0E0EE24E394F12CDD24D39495E094
:10099000C92EC730D10500F58091010181113CC0FD
:1009A00080E40E94050480930101811112C082E15C
:1009B0000E942F048093010181110BC0C7010C2EEE
:1009C00001C0880F0A94EAF780950E942F04809353
:1009D00001010E94270420C0CA30A1F028F4C830C9
:1009E00059F0C93061F005C0CC3089F070F0CD30DD
:1009F00089F0209A289810C0219A29980DC0229A2F
:100A00002A980AC0239A2B9807C0529A01C0539A79
:100A10005B9802C03E9A469880EA8A95F1F7C73003
:100A2000D10518F580910101811144C080E40E9434
:100A3000050480930101882311F0B12C12C083E1D9
:100A40000E942F04809301018111F7CF81E40E945D
:100A50000504809301018111F0CF0E944004B82E5B
:100A6000B0940E9427048B2D26C08FB181708D25F4
:100A7000799902C092E001C090E0892B7C9902C074
:100A800024E001C020E0822B7D9902C028E001C053
:100A900020E0822B7E9902C090E101C090E0892B7A
:100AA0009FB19095991F9927991F9295990F907EC4
:100AB000892B01C080E0F8019081981719F080839C
:100AC000C09200010E94510421960F5F1F4FCE304B
:100AD000D10509F05ECF809100018823A1F08150FB
:100AE00080930001882329F0F5E0FA95F1F70000E2
:100AF0000AC0ABEEB1E0EDEDF1E0CF01825F919184
:100B00009D938E13FCCF0E94F00681E0DF91CF9180
:100B10001F910F91FF90EF90DF90CF90BF900895BD
:100B2000E82FF0E0E551FE4F808108950895662397
:100B300019F0613051F00EC0FC018281882351F020
:100B40008AE491E00E94C50605C0FC018281811102
:100B50000E94A91680E090E00895089560916702D0
:100B6000709168028091690290916A020E94591600
:100B700056985E9825982D9826982E9827982F9805
:100B8000823089F018F4813031F00895833031F0EB
:100B9000843039F00895259A2D9A0895279A2F9A2E
:100BA0000895259A2D9A269A2E9A089581E00895FF
:100BB00081E008950C94D8050E94EB0F2FEF84E399
:100BC0009CE0215080409040E1F700C000000C9470
:100BD000B3170F931F93CF93DF938C01FC01C08158
:100BE000D181CE010E94DE14BE010E948708EC0173
:100BF000B8010E94DA05882309F4C1C0B801CE010A
:100C00000E941709882309F4BAC0B801CE010E94D6
:100C1000920A882309F4B3C0C531F0E7DF0708F072
:100C20007CC0C23080E7D80708F452C0F801828146
:100C3000882309F459C00E94C316811102C00E9482
:100C4000A9160E94D61690E09093C8028093C7021E
:100C5000FE01E350F047E231F10530F4EA5AFF4F6C
:100C60008091C7020C947F248091C702816027C0C5
:100C7000826025C0846023C0806121C080621FC063
:100C800080641DC080681BC08460886018C08E7F2F
:100C900016C08D7F14C08B7F12C08F7E10C08F7DD9
:100CA0000EC08F7B0CC08F770AC08B7F877F07C0F9
:100CB00087FB222720F991E0922790FB87F9809308
:100CC000C7028091C7020E94DA160E94EB0F57C03C
:100CD000C115E0E7DE0779F0C130D047A1F081E02F
:100CE0008093F9018093FA01C801DF91CF911F91A0
:100CF0000F910C94D605F8018281882309F43FC036
:100D00000E94DC053CC0F80182818823C1F18091FA
:100D1000940281608093940232C0CC3380E7D8077C
:100D2000A1F4F8018281882321F01092F90182E078
:100D300016C08091F901811106C086E20E94210C43
:100D400086E20E94F40C82E018C0CD33D04739F619
:100D5000F8018281882331F01092FA0180E20E942A
:100D6000430D0DC08091FA01811106C087E20E94F7
:100D7000210C87E20E94F40C80E20E944A0D80E080
:100D8000DF91CF911F910F9108950F931F93CF93F0
:100D90008C01F80124912223F9F030E0F901E454A8
:100DA000FB4FC491F901E45CFA4F2491222359F0DE
:100DB00081EE0E94210C8C2F0E94210C8C2F0E940E
:100DC000F40C81EE04C08C2F0E94210C8C2F0E9409
:100DD000F40C0F5F1F4FDDCFCF911F910F9108953E
:100DE0000C94790408950C94F2060C94F30626E012
:100DF000729FF001112444E5849FE00DF11D112440
:100E0000E60FF11DEE0FFF1FEC58FE4F85919491F8
:100E10000E949908811560E49607B0F5811570E38A
:100E2000970708F0E6C0803E9105D8F4803C910514
:100E300008F06CC0883A910578F4853A910508F07D
:100E40006BC08130910509F460C108F417C184308A
:100E5000910508F05AC112C18D3B910508F467C095
:100E60000DC18F3F910509F048F4803F910508F0CE
:100E7000B5C0883E910508F448C100C1811520E243
:100E8000920708F0ADC00895811543E5940790F4EA
:100E9000811562E5960708F0D0C0811571E59707C6
:100EA00008F0C6C0811520E5920708F0A5C09F7024
:100EB000906A0895811545E59407D8F4811564E595
:100EC000960708F0D0C0482F4695469570E2479F98
:100ED000A00111248370992721E030E0B90102C0FC
:100EE000660F771F8A95E2F7CB01842B952B9A68C2
:100EF0000895811576E5970708F4BAC09C0130562D
:100F00002115304108F0BAC09F70B6C0FC01EE0F49
:100F1000FF1FE051F0406AC0853A910509F4B1C065
:100F2000863A910509F0B0C082E890E40895883AC5
:100F3000910509F4ACC0893A910509F4ABC08A3A2D
:100F4000910509F4AAC08B3A910509F4A9C08C3A1D
:100F5000910509F4A8C08B3B910509F4A7C08C3B0F
:100F6000910509F4A6C08D3A910509F4A5C0803B0E
:100F7000910509F4A4C08E3A910509F4A3C08F3AF3
:100F8000910509F4A2C0813B910509F4A1C0823BFF
:100F9000910509F4A0C0833B910509F49FC0843BEF
:100FA000910509F49EC0853B910509F49DC0863BDF
:100FB000910509F49CC0873B910509F49BC0883BCF
:100FC000910509F49AC0893B910509F499C08A3BBF
:100FD000910509F498C080E094E40895906508951F
:100FE000FC01FF70EE0FFF1FE059FE4F85919491B9
:100FF00008959927906C0895482F437021E030E0C0
:1010000002C0220F331F4A95E2F73C68AC0164E04E
:10101000569547956A95E1F74370342B8F70869506
:10102000869560E2869FC0011124822B932B089540
:10103000982F8827816F906A0895482F4695469586
:1010400070E2479FA00111248370992721E030E0CE
:10105000B90102C0660F771F8A95E2F7CB01842B96
:10106000952B9C680895982F8827846F906A08951F
:101070008F719927982F88279062089580E090E0DB
:10108000089581E890E4089583E890E4089582EE5D
:1010900094E4089589EE94E408958AEE94E4089522
:1010A00085EB94E4089586EB94E4089583EB94E44F
:1010B000089584EB94E4089587EB94E408958CEC10
:1010C00094E408958DEC94E4089583E895E40895FC
:1010D0008AE895E4089582E995E4089584E995E421
:1010E000089581E296E4089583E296E4089584E207
:1010F00096E4089585E296E4089586E296E40895DC
:1011000087E296E408958AE296E40895089596E0C9
:10111000799FF001112494E5899FE00DF11D1124C0
:10112000E60FF11DEE0FFF1FEC58FE4F85919491D5
:1011300008958238910549F1B0F48133910509F49D
:1011400058C048F48932910509F44EC08A3291059D
:1011500009F454C008958533910509F440C08933DA
:10116000910599F00895833E910529F138F4803E68
:10117000910591F0823E9105A1F00895863E91057A
:10118000F9F0873E910531F108952091C70220FDC5
:101190003AC021FD38C008958091C70280FD35C056
:1011A00032C08091C70282FF32C08091C70284FDA5
:1011B00030C083EE39C08091C70282FD28C0F5CFD0
:1011C0008091C70283FF27C08091C70284FD21C0A0
:1011D00087EE2AC08091C70283FD1DC0F5CF8091A4
:1011E000C70285FD1AC01BC08091C70285FD17C0CC
:1011F00014C08091C70286FD14C015C08091C7023B
:1012000086FD11C00EC080EE0FC089E30DC082EED6
:101210000BC080E009C086EE07C089E205C085E307
:1012200003C08AE201C081E390E0089508950F931E
:101230001F93CF93FB012281211102C0C1E041C065
:101240008C01C0910802C11125C085319047B1F7CA
:101250000E94160981E0809308020E94581790931B
:101260000702809306021092FB011092FD0110927A
:10127000FC011092FF011092FE01109201021092E7
:1012800000021092030210920202109205021092C4
:10129000040217C080910602909107020E94641711
:1012A000883C910558F69091FB01E92FF0E0EE0F94
:1012B000FF1FE450FE4F118300839F5F9093FB015B
:1012C000C0E08C2FCF911F910F91089556985E9892
:1012D00025982D9826982E9827982F988FEF90E094
:1012E000909389008093880090938B0080938A006C
:1012F00090938D0080938C00259A2D9A2FEF80E794
:1013000092E0215080409040E1F700C00000269A12
:101310002E9A2FEF80E792E0215080409040E1F735
:1013200000C00000279A2F9A2FEF80E792E021500B
:1013300080409040E1F700C0000025982D982FEFE5
:1013400080E792E0215080409040E1F700C000002B
:1013500026982E982FEF80E792E021508040904011
:10136000E1F700C0000027982F9856985E982598BE
:101370002D9826982E9827982F98089589EA80937B
:10138000800089E08093810024982C983F988AB14E
:101390008F748AB96E98479A8BB1806B8BB9769AA5
:1013A0000E9466090C94AD0580E280930101809152
:1013B000090281110EC00E94FF0381E0809309029F
:1013C0002FEF83ED90E3215080409040E1F700C083
:1013D000000080E40E9405048093010181112EC069
:1013E0000E942F0480930101811128C00E942F04C4
:1013F00080930101811122C08FE30E942F0480930A
:10140000010181111BC00E94270480E40E94050491
:1014100080930101811112C08CE00E942F048093FF
:10142000010181110BC00E942F04809301018111E1
:1014300005C08FE30E942F04809301010E942704BE
:10144000809101010895282F882339F090E02A30F7
:1014500010F44D9608950697089587E290E0089558
:1014600080910A02813079F050F08230F1F482EEFE
:101470000E94210C87E50E94210C87E514C082EEB2
:101480000E94210C12C080EE0E94210C81EE0E946D
:10149000210C88E10E94210C88E10E94F40C81EE6D
:1014A0000E94F40C80EE0E94F40C8FE39CE90197FB
:1014B000F1F700C00000089580910A02813029F000
:1014C00010F0823041F482EE04C08CE20E94210CC4
:1014D0008CE20C94F40C0895EF92FF921F93CF933B
:1014E000DF937C01CCE0D0E097010C2E02C0369552
:1014F00027950A94E2F7122F1F70812F0E94230A6A
:101500000E94210C812F0E94230A0E94F40C249730
:10151000CC3F8FEFD80741F7DF91CF911F91FF901C
:10152000EF900895CF93DF93813020E8920768F021
:10153000FB012281222349F0EC010E94300ACE01F6
:101540009F770E946C0A0E945C0A81E0DF91CF9134
:1015500008959093100280930F020895E0910F0276
:10156000F0911002309721F00190F081E02D099464
:1015700080E00895E0910F02F0911002309721F081
:101580000280F381E02D09940895E0910F02F0911B
:101590001002309721F00480F581E02D0994089520
:1015A00020910D0230910E028217930771F09093F3
:1015B0000E0280930D02E0910F02F091100230971D
:1015C00021F00680F781E02D0994089520910B0207
:1015D00030910C028217930771F090930C02809364
:1015E0000B02E0910F02F0911002309721F000847D
:1015F000F185E02D0994089508950C94FC0A0E9449
:101600004F170E947B040C94D517CF92DF92EF9274
:10161000FF920F931F93CF93DF93CDB7DEB72B9736
:101620000FB6F894DEBF0FBECDBF0E94A20482E1C8
:10163000C82E82E0D82E00E010E0E02E802F0E941D
:101640009005F60141916F01F42EF826B1F40F5F79
:101650001F4F0E30110589F78FEF89838A831B8214
:101660000E9458178160782F9D838C8349815A810D
:101670006B818D810E94E40B40C09091940291FF98
:1016800004C08B870E9496058B8520E030E04F2DAB
:1016900050E0922FBA01022E02C0759567950A9408
:1016A000E2F760FF24C02E83EF8221E030E0690181
:1016B00002C0CC0CDD1C9A95E2F790E08C219D21B4
:1016C000892B09F420E028870E9458178160782F21
:1016D0009A8789874E815F8168858A850E94E40B9D
:1016E000F801EE5EFD4F8081C826C08206C02F5FE4
:1016F0003F4F2630310569F6AACF0E946819109134
:1017000011020E94AE0A1817A1F00E94AE0A80933F
:1017100011022B960FB6F894DEBF0FBECDBFDF913E
:10172000CF911F910F91FF90EF90DF90CF900C948D
:10173000F5062B960FB6F894DEBF0FBECDBFDF9136
:10174000CF911F910F91FF90EF90DF90CF90089570
:10175000DC0111962C9111978C91682F70E041E07B
:1017600050E001C0440F8A95EAF712968C911297C7
:1017700030E0882329F080912E028823E9F006C00A
:10178000F901E05EFD4F90819423B1F086E0829FE5
:10179000F001839FF00D1124E60FF71FEE0FFF1FDE
:1017A000EB5EFE4F808191818D939C93F901E05E09
:1017B000FD4F8081482B06C0F901E05EFD4F40954A
:1017C0008081482340830895CF93DF93CDB7DEB760
:1017D0002B970FB6F894DEBF0FBECDBF942F4F836B
:1017E000252F588769877A878B874A855B85452BA4
:1017F00021F02F3F09F59F3FF9F4DE01119686E0B5
:10180000FD0111928A95E9F785E0FE013796019076
:101810000D928A95E1F749815A816B817C818D8196
:101820009E810E9483122B960FB6F894DEBF0FBEE6
:10183000CDBFDF91CF910895CE0107960E94A80BEE
:10184000DCCFCF93882309F4CDC0C82F823859F458
:101850000E94AE0A81FDC6C089E30E945D150E9408
:101860002A1689E30CC0833879F40E94AE0A80FD01
:10187000B9C083E50E945D150E942A1683E50E9487
:101880009F15CF910C942A16843859F40E94AE0A01
:1018900082FDA8C087E40E945D150E942A1687E495
:1018A000EECF8CEF8C0F813A48F48C2F0E94AA1B4C
:1018B000811198C08C2F0E945D15E3CF80E28C0FC0
:1018C000883048F4C77081E001C0880FCA95EAF7F4
:1018D0000E94E315D6CF8BE58C0F833078F4C53AA0
:1018E00029F0C63A31F083E890E005C081E890E045
:1018F00002C082E890E0CF910C94D00A88E58C0F6A
:10190000853108F06FC0C83A61F1C93A69F1CA3A45
:1019100071F1CB3A79F1CC3A81F1CB3B89F1CC3BF7
:1019200091F1CD3A99F1C03BA1F1CE3AA9F1CF3A6C
:10193000B1F1C13BB9F1C23BC1F1C33BC9F1C43BF9
:10194000D1F1C53BD9F1C63BE1F1C73BE9F1C83B59
:10195000F1F1C93BF9F1CA3B09F43FC080E090E0E6
:101960003EC082EE90E03BC089EE90E038C08AEE47
:1019700090E035C085EB90E032C086EB90E02FC060
:1019800083EB90E02CC084EB90E029C087EB90E0E3
:1019900026C08CEC90E023C08DEC90E020C083E862
:1019A00091E01DC08AE891E01AC082E991E017C079
:1019B00084E991E014C081E292E011C083E292E0F8
:1019C0000EC084E292E00BC085E292E008C086E29D
:1019D00092E005C087E292E002C08AE292E0CF91F5
:1019E0000C94E60ACF910895882309F44BC08238FD
:1019F00059F40E94AE0A81FF45C089E30E945D153B
:101A00000E942A1689E30CC0833871F40E94AE0A42
:101A100080FF38C083E50E945D150E942A1683E589
:101A20000E949F150C942A16843859F40E94AE0A1D
:101A300082FF28C087E40E945D150E942A1687E471
:101A4000EFCF9CEF980F913A58F390E2980F9830AF
:101A500050F4877091E001C0990F8A95EAF7892FB9
:101A60000E94E915DFCF9BE5980F933020F480E0CA
:101A700090E00C94D00A885A853120F480E090E000
:101A80000C94E60A0895882321F00E94E3150C9433
:101A90002A160895882321F00E94E9150C942A162D
:101AA00008958F929F92AF92BF92CF92DF92EF9262
:101AB000FF920F931F93CF93DF931F92CDB7DEB7A3
:101AC0007C01C72EFC01058102950F701281112344
:101AD00021F069830E940016698169830E9456156E
:101AE0006981882381F0112371F080E2860F8830AC
:101AF00050F082E00E943F150E94561591E0D82ECA
:101B0000D926698101C0D12CEC2DE295EF70F0E06F
:101B1000E859FF4F0C947F248C2D807F0C2D0F7083
:101B2000882311F00295007F1123C1F0002309F4EE
:101B30009BC180E2860F883010F0611105C0802FB4
:101B400069830E94E31504C0802F69830E94F31506
:101B5000698169830E942A16698186C1862F6983FB
:101B60000E94F40C6981002309F4CCC180E2860F45
:101B7000883010F0611104C0802F0E94E91503C065
:101B8000802F0E94F9150E942A16BCC19C2D907FBF
:101B90008C2D8F70903211F08295807F662319F022
:101BA0006130B1F01EC0112349F0002309F414C1C3
:101BB000013009F011C10E941316A4C1002319F0CD
:101BC000013009F49FC189830E94161689810AC1D8
:101BD000112321F0023008F095C1FEC0011192C11D
:101BE00001C1112321F0002309F4F6C03DC10023F7
:101BF00009F4F8C03FC18C2D86958695837090E0DE
:101C0000009719F0019761F07DC1112321F0862F13
:101C10009C2D937002C080E090E00E94D00A72C1B7
:101C2000112321F0862F9C2D937002C080E090E05C
:101C30000E94E60A67C1862F112319F00E947018CE
:101C400002C00E94D8180E945D195CC18C2D83705F
:101C500009F052C0111156C1862F82958695877062
:101C6000880F880F962F9F70892E912CA12CB12C54
:101C7000082E04C0880C991CAA1CBB1C0A94D2F71D
:101C800064FF14C00FE010E020E030E0B901A801CB
:101C900004C0440F551F661F771F8A95D2F7CB01EA
:101CA000BA01609570958095909503C060E070E0F2
:101CB000CB012C2D26952695237030E0223031055E
:101CC00069F02330310589F0682979298A299B290F
:101CD0002130310571F00E94CB1314C16829792994
:101CE0008A299B290E94E7130DC10E94CB13C501CD
:101CF000B4010E94AF1306C1112319F08C2D81701D
:101D000001C08695882309F4FDC0862F82958695AB
:101D10008770880F880F962F9F70892E912CA12C89
:101D2000B12C082E04C0880C991CAA1CBB1C0A9458
:101D3000D2F764FF14C00FE010E020E030E0B901FA
:101D4000A80104C0440F551F661F771F8A95D2F75C
:101D5000CB01BA01609570958095909503C060E0C5
:101D600070E0CB012C2D269526952370422F50E054
:101D70004230510569F04330510589F068297929CD
:101D80008A299B294130510571F00E94A514BAC0DF
:101D9000682979298A299B290E94C114B3C00E940D
:101DA000A514C501B4010E948914ACC0862F90E02F
:101DB000FC01E05EF109E531F10508F051C0E85899
:101DC000FF4F0C947F24062F0F708C2D8F711123E1
:101DD00031F00E942214802F0E94430D93C00E9474
:101DE0004314802F0E944A0D8DC0112339F0011138
:101DF00089C08C2D8F710E94681484C0023008F055
:101E000081C0F7CF112339F08C2D8F710E942214DD
:101E100079C01123C9F38C2D8F710E94431472C0B5
:101E2000112329F08C2D8F710E940D146BC00E941C
:101E3000031468C0112351F01C2D1F71812F0E94C3
:101E4000221463E0812F0E9436155CC081E00E945D
:101E50003F15023008F456C082E00E943F1552C080
:101E6000112331F0002381F2862F0E94210C4AC0F9
:101E7000002389F2862F0E94F40C44C04C2D4F7031
:101E8000C7010E9497050E9427133CC0623F99F149
:101E900028F4603F49F0613FE1F020C0643FA1F0C9
:101EA00050F0653F59F01AC0112339F190912E027C
:101EB00081E0892706C081E018271DC011111DC0CF
:101EC00081E080932E0219C0111117C010922E02CA
:101ED00014C0002381F0111110C0E8CF002359F085
:101EE000862F6983112319F00E94210C02C00E94E1
:101EF000F40C698102C010932E024C2D4F70C70163
:101F00000E948608DD20F1F00E94321580FD1AC083
:101F1000F70112820E942C150E942214C7010E9410
:101F2000B00F0E942C150F90DF91CF911F910F9150
:101F3000FF90EF90DF90CF90BF90AF909F908F90E9
:101F40000C9443140F90DF91CF911F910F91FF904C
:101F5000EF90DF90CF90BF90AF909F908F900895BB
:101F60000F931F93CF93DF93EC01888199812B818D
:101F70003C81232BB9F09F3F11F48F3F99F0CE01A4
:101F80000E94E905882371F0688179818A810E9425
:101F900028158C010E94DD140E94A413B801CE0103
:101FA0000E94510DDF91CF911F910F9108950E94D2
:101FB00000160E9410160E94D5150E942A160E9433
:101FC0000D1A0E945D1980E090E00E94D00A80E026
:101FD00090E00C94E60A0E94F0150C94D70F0E9432
:101FE0001D15E92FE295EF70F0E03297EE30F10524
:101FF000B0F4E357FF4F0C947F24803F91F018F426
:10200000803E68F40EC0843F51F40BC0803E48F01F
:10201000813F29F406C093FB882780F9089580E06A
:10202000089581E00895CF93DF9300D000D01F92F0
:10203000CDB7DEB70F900F900F900F900F90DF91FC
:10204000CF910895CF93DF9300D000D000D0CDB7CB
:10205000DEB726960FB6F894DEBF0FBECDBFDF9178
:10206000CF9108951F93CF93DF93C0912F0216E075
:1020700080913002C81799F0D0E01C9FF0011D9F9D
:10208000F00D1124EF5CFD4F40815181628173811D
:10209000848195810E9422102196C770E9CFDF913B
:1020A000CF911F9108954091610250916202609119
:1020B00063027091640280916502909166020C94B3
:1020C00022108091660282958F7009F054C0809131
:1020D0006302882309F44FC080912F02A09130023F
:1020E00060916102709162024091640250916502B8
:1020F000B6E08A1709F43FC090E041155105C1F1DF
:102100007F3F11F46F3FA1F1B89FF001B99FF00D2F
:102110001124EF5CFD4F218172132AC020816213CC
:1021200027C02281211124C023813481241735073F
:1021300010F421503109241B350B283C3105C0F423
:10214000209166022F7020612093660226E0289F6E
:10215000F001299FF00D1124EA5CFD4F80818F7002
:102160008061808381E692E00E94B00F0C9432106F
:1021700001968770BECF0895CF92DF92EF92FF92C3
:102180000F931F93CF93DF93CDB7DEB762970FB650
:10219000F894DEBF0FBECDBF8C0185E0F801DE01F3
:1021A0001D9601900D928A95E1F7D8014C911196F8
:1021B0005C91119712966C9112971396CD90DC90CA
:1021C0001497309161027091620280916402909143
:1021D0006502009709F46BC17F3F19F43F3F09F492
:1021E00066C1E0906302EE2009F4C0C0209166024F
:1021F000C816D90628F0F601E81BF90BCF0104C078
:10220000809590958C0D9D1DFF24F394883C91053D
:1022100078F0F12C207F09F0C6C07C2DD98AC88ABD
:1022200089890E94131081E692E00E94B00FB1C02C
:10223000822F807F09F046C0751314C0341312C07A
:10224000611110C02F702061209366020E9453100C
:1022500081E692E00E94B00F80916602D801159647
:102260008C932EC0CD2819F15F3F11F44F3FF9F048
:10227000F62E61111CC080912F022091300236E0B1
:10228000821709F45AC090E0389FF001399FF00D91
:102290001124EF5CFD4F7181571306C07081471305
:1022A00003C07281711103C001968770E9CFF62EC9
:1022B000662309F418C180916602816080936602EA
:1022C000F12C11C1751308C0341306C0611104C08C
:1022D00080916602D801C3C04D875E878D859E853B
:1022E0006A8B0E94EF0F6A898823E1F16623D1F19E
:1022F00020916602822F82958F7090E0029774F091
:10230000809161029091620298878F831986DB86A3
:10231000CA862C87CE0107960E94B00F86E0F8018E
:10232000A1E6B2E001900D928A95E1F70E9461105A
:102330000E945310FF24F394D6C04D875E878D858D
:102340009E850E941D15292F22952F7030E0223086
:1023500031050CF0BCC09F7009F0B6C0805E8830BB
:1023600008F4C1C0C8010E94B00FE4CFC816D90656
:1023700008F453C0F601E81BF90BCF01883C910526
:1023800008F450C0F12C7C2DD98AC88A89890E9412
:102390001310E1E6F2E086E0DF011D928A95E9F78D
:1023A0000E945310A0C0751314C0341312C06111E1
:1023B00010C080916602F8018583C8010E94B00FA9
:1023C00086E0E1E6F2E0DF011D928A95E9F7FE2C56
:1023D0008AC04D875E878D859E856A8B0E94EF0F30
:1023E0006A89882309F4BECF662309F4BBCF209104
:1023F0006602822F82958F7090E002970CF48ECF48
:1024000080916102909162029A8389831B82DD82AE
:10241000CC822E83CE0101967FCF809590958C0D36
:102420009D1DACCFF62E662309F49CCF75132EC0EC
:1024300034132CC02091660220FD1FC0822F82958C
:102440008F70D9F0D80115962C9315978F3049F0DD
:102450008F5F982F9295907F822F8F70892B159682
:102460008C93C8010E94B00F86E0F801A1E6B2E0AB
:1024700001900D928A95E1F793CF86E0F801A1E6ED
:10248000B2E001900D928A95E1F72DC04D875E87ED
:102490008D859E850E94EF0F811140CF809166024D
:1024A000816080936602C8010E94B00F1CC0662341
:1024B00009F458CF4D875E878D859E850E94EF0F6A
:1024C000882309F44FCF2ACF811148CF0CC0243084
:1024D00031050CF047CF9F7009F440CFF80195818A
:1024E000907F09F03BCF8F2D62960FB6F894DEBF38
:1024F0000FBECDBFDF91CF911F910F91FF90EF9055
:10250000DF90CF9008951F93CF93DF93CDB7DEB7C1
:102510002C970FB6F894DEBF0FBECDBF4F83588700
:1025200069877A878B879C87CE0107960E94BC10AB
:10253000882369F08F8198852A853B85232BF1F1CB
:102540009F3F09F063C08F3F09F060C037C086E04D
:10255000FE013796DE01119601900D928A95E1F702
:102560006F817885EA85FB85309741F17F3F11F4D3
:102570006F3F21F12091300230E0C9010196877050
:10258000992740912F0250E08417950709F447C01E
:1025900069837A83FD83EC8396E0929FD001939FB9
:1025A000B00D1124AF5CBD4FFE01319601900D922C
:1025B0009A95E1F7809330020E94321016E08091E4
:1025C0002F02909130028917C1F1189FC001112488
:1025D0008F5C9D4F0E94BC10882379F1E0912F02FF
:1025E0001E9FF0011124EF5CFD4F408151816281FB
:1025F0007381848195810E94221080912F0290E046
:1026000001968770992780932F02D9CF4F815885E3
:1026100069857A858B859C850E942210CFCF0E9488
:10262000EB0F1092300210922F02E1E6F2E086E00A
:10263000DF011D928A95E9F7C1CF2C960FB6F89469
:10264000DEBF0FBECDBFDF91CF911F910895EF92F6
:10265000FF920F931F93CF93DF938C01892B09F483
:102660006CC0F12CEE24E394E8012196F8018491EA
:10267000843740F4843008F051C0813081F08230DA
:1026800019F15BC0853709F444C0A8F19CE7980FA5
:10269000903708F052C08F770E94F40C41C00E5F53
:1026A0001F4FFE01C49180E28C0F883048F4C77040
:1026B0008E2D01C0880FCA95EAF70E94031614C038
:1026C0008C2F0E94210C2DC00E5F1F4FFE01C49164
:1026D00080E28C0F883058F4C7708E2D01C0880FAF
:1026E000CA95EAF70E9409160E942A161AC08C2F72
:1026F0000E94F40C16C00E5F1F4FFE01C491CC2344
:1027000081F08FE99FE00197F1F700C00000C15010
:10271000F6CF0E5F1F4FFE01F49003C00E94210C04
:102720008E018F2D882309F49FCFEFE9FFE03197C9
:10273000F1F700C000008150F5CFDF91CF911F91DC
:102740000F91FF90EF900895089560936B0270933E
:102750006C0280936D0290936E020C94D70F0F93CE
:102760001F9300916B0210916C0220916D023091C9
:102770006E02DC01CB01802B912BA22BB32B80931B
:102780006B0290936C02A0936D02B0936E021F9146
:102790000F910C94D70F0F931F9300916B02109120
:1027A0006C0220916D0230916E02DC01CB0180231E
:1027B0009123A223B32380936B0290936C02A09386
:1027C0006D02B0936E021F910F910C94D70F0F936F
:1027D0001F9300916B0210916C0220916D02309159
:1027E0006E02DC01CB0180279127A227B3278093BB
:1027F0006B0290936C02A0936D02B0936E021F91D6
:102800000F910C94D70F10926702109268021092E9
:10281000690210926A020C94D70F41E050E060E028
:1028200070E004C0440F551F661F771F8A95D2F7CA
:1028300040936702509368026093690270936A0242
:102840000C94D70F41E050E060E070E004C0440F0A
:10285000551F661F771F8A95D2F780916702909166
:102860006802A0916902B0916A02482B592B6A2B29
:102870007B2B4093670250936802609369027093C8
:102880006A020C94D70F41E050E060E070E004C0B1
:10289000440F551F661F771F8A95D2F740955095B4
:1028A000609570958091670290916802A09169028D
:1028B000B0916A02482359236A237B23409367021D
:1028C000509368026093690270936A020C94D70F68
:1028D00041E050E060E070E004C0440F551F661F07
:1028E000771F8A95D2F78091670290916802A09134
:1028F0006902B0916A02482759276A277B274093CB
:102900006702509368026093690270936A020C94A4
:10291000D70F0F931F9300916702109168022091C7
:10292000690230916A02DC01CB01802B912BA22B32
:10293000B32B8093670290936802A0936902B093CF
:102940006A021F910F910C94D70F0F931F93009160
:102950006702109168022091690230916A02DC01DD
:10296000CB0180239123A223B3238093670290930A
:102970006802A0936902B0936A021F910F910C94B0
:10298000D70F0F931F930091670210916802209157
:10299000690230916A02DC01CB0180279127A227CE
:1029A000B3278093670290936802A0936902B09363
:1029B0006A021F910F910C94D70F0895CF92DF9266
:1029C000EF92FF920F931F93CF93DF938C01C090F0
:1029D0006B02D0906C02E0906D02F0906E028091DC
:1029E000670290916802A0916902B0916A02C82AB8
:1029F000D92AEA2AFB2ACFE1D0E0D701C6010C2E62
:102A000004C0B695A795979587950A94D2F780FF4D
:102A100006C0B8018C2F0E94F706019721F4219778
:102A200060F780E001C08C2FDF91CF911F910F9153
:102A3000FF90EF90DF90CF900895CF93DF93EC015C
:102A40000E94DE14BE010E94F706DF91CF91089527
:102A5000CB010E941D15089580916F028595859583
:102A60008595089580916F028770089598E0899FF9
:102A700090011124262B20936F020C942214209194
:102A80006F028095822380936F02982F977069F46C
:102A900030E0482F082E000C550B2417350729F07D
:102AA0008595859585950C944314089590916F02B2
:102AB000977081E009F480E00895909114019923C2
:102AC00021F09091C70297FD09C020910201309139
:102AD0000301F90132969FEF40E01FC0982F9695B1
:102AE000969596959F3150F5E0910201F091030182
:102AF000E90FF11D877021E030E0A90102C0440F09
:102B0000551F8A95E2F7CA019181892B8183089527
:102B10009F3F39F04F5F4E3141F051915813F8CF3C
:102B20000DC05111F7CF942FF5CF9F3F39F0F90128
:102B3000E90FF11D97FDFA9582830895089590910C
:102B40001401992321F09091C70297FD09C02091AB
:102B5000020130910301F9013296205E3F4F1FC000
:102B6000982F9695969596959F31F0F4E0910201F5
:102B7000F0910301E90FF11D877021E030E0A90118
:102B800002C0440F551F8A95E2F7CA0180959181D2
:102B90008923818308953196E217F30729F0908104
:102BA0009813F9CF1082F7CF089581E090E0E0917B
:102BB0000201F0910301E80FF91F108201968032A3
:102BC0009105A9F7089590919302892B8093930220
:102BD000089580959091930289238093930208959C
:102BE00010929302089590919202892B8093920201
:102BF000089580959091920289238093920208957E
:102C000010929202089590919102892B80939102E3
:102C1000089580959091910289238093910208955F
:102C2000109291020895809370020895109270029C
:102C300008958091020190910301FC0131969C015D
:102C4000205E3F4F80E0919191118F5FE217F30773
:102C5000D1F70895E0910201F09103018091930270
:102C60008083E0910201F0910301908180919202B2
:102C7000892B8083E0910201F09103019081809182
:102C80009102892B808380917002882361F0E0910A
:102C90000201F09103019081892B80830E94191613
:102CA00081111092700280910201909103010C94A5
:102CB000BA0ACF92DF92EF92FF926C01EE24FF24CA
:102CC000C114D104E104F10421F0C701B60120E1EF
:102CD00001C020E0C72ED82EE92EFF24C114D10454
:102CE000E104F10419F0285FC701B6016B017C0112
:102CF00054E0F694E794D794C7945A95D1F7C11449
:102D0000D104E104F10419F02C5FC701B6016B0195
:102D10007C0142E0F694E794D794C7944A95D1F7A2
:102D2000C114D104E104F10419F02E5FC701B6010A
:102D3000DC01CB01B695A79597958795892B8A2BB2
:102D40008B2B09F02F5F822FFF90EF90DF90CF90B9
:102D500008956DEE7EEF80E090E00E94B92460E07F
:102D600082E090E00E94A72460E083E090E00E946F
:102D7000A72460E084E090E00E94A72460E085E062
:102D800090E00C94A72480E090E00E94A12421E030
:102D90008D3E9E4F09F020E0822F089582E090E062
:102DA0000C94992483E090E00C94992484E090E0C2
:102DB0000C949924682F84E090E00C94A7248091CF
:102DC000CD02843039F11092950220E488E190E040
:102DD0000FB6F894A895809360000FBE2093600012
:102DE00080E00E94F50683B7817F846083BF83B74C
:102DF000816083BF7894889583B78E7F83BF0FB639
:102E0000F894A8958091600088618093600010928A
:102E100060000FBE08950895CF930E948F040E9412
:102E2000A2040E940B17C0E08C2F0E949005811114
:102E300004C0CF5FCE30C1F701C081E0CF910895CB
:102E40000E94EB0F0E94AE0A0C94F5061F920F929F
:102E50000FB60F9211248F939F93AF93BF938091DE
:102E60009502811113C08091960290919702A091D2
:102E70009802B09199024196A11DB11D80939602CE
:102E800090939702A0939802B0939902BF91AF914B
:102E90009F918F910F900FBE0F901F90189582E019
:102EA00084BD93E095BD9AEF97BD80936E00089521
:102EB0002FB7F8948091960290919702A091980272
:102EC000B09199022FBF0895CF92DF92EF92FF92B7
:102ED0000F931F932FB7F894409196025091970249
:102EE00060919802709199022FBF6A017B01EE24D4
:102EF000FF248C0120E030E0C016D106E206F30684
:102F000010F4415051099A01281B390BC9011F9136
:102F10000F91FF90EF90DF90CF9008951F920F9246
:102F20000FB60F9211248F939F93AF93BF9380910D
:102F3000960290919702A0919802B0919902019601
:102F4000A11DB11D8093960290939702A0939802C1
:102F5000B0939902BF91AF919F918F910F900FBE47
:102F60000F901F9018950E943C20F8942FEF87EA4D
:102F700091E6215080409040E1F700C0000087E0DA
:102F800090EBDC018093D6029093D702A093D802F5
:102F9000B093D9029CE088E10FB6F894A89580938D
:102FA00060000FBE90936000FFCF0E94C316811196
:102FB00002C00E94A9160E94CE16809394020E941D
:102FC000D61690E09093C8028093C7020E94D21652
:102FD000682F70E080E090E00C94A51380919C0233
:102FE00080FF0BC06091070185E0689FB00111244C
:102FF00075956795759567952BC081FF09C06091A0
:10300000070185E0689FB00111247595679520C080
:1030100082FF07C06091070185E0689FB00111241D
:1030200017C090919D029923D1F0609106019617E7
:1030300088F72091070185E0289F90011124929F35
:10304000A001939F500D112470E0CA010E946B24CF
:103050006038710540F46115710539F002C065E012
:1030600070E0862F08958FE7089581E0089580919C
:103070009C0280FF08C06091050170E0759567951E
:103080007595679521C081FF06C06091050170E0CC
:103090007595679519C082FF04C06091050170E0C5
:1030A00010C090919D029923C1F060910401961780
:1030B000A0F780910501899FC001112470E00E9452
:1030C0006B246038710528F46115710521F0862F95
:1030D00008958FE7089581E0089561E070E0F4CFEE
:1030E000803F21F40E94EE17819504C0813F29F4AE
:1030F0000E94EE178093A0020895823F21F40E945F
:10310000EE17819504C0833F29F40E94EE17809347
:103110009F020895893F19F40E94371805C08A3F1D
:1031200031F40E94371881958093A10208958B3F56
:1031300021F40E943718819504C08C3F29F40E9425
:1031400037188093A2020895843F21F480919E0253
:10315000816017C0853F21F480919E02826011C07A
:10316000863F21F480919E0284600BC0873F21F44A
:1031700080919E02886005C0883F31F480919E0254
:10318000806180939E0208958D3F21F480919C027E
:1031900081600BC08E3F21F480919C02826005C04B
:1031A0008F3F29F480919C02846080939C02089553
:1031B000803F39F48091A00287FF6CC01092A0027A
:1031C00069C0813F29F48091A0021816BCF362C047
:1031D00090919F02823F29F497FF5CC010929F025A
:1031E00059C0833F19F41916CCF354C0893F41F4F8
:1031F0008091A10218160CF04DC01092A1024AC095
:103200008A3F29F48091A10287FF44C0F6CF8B3F0B
:1032100039F48091A20287FF3DC01092A2023AC009
:103220008C3F29F48091A2021816BCF333C0843F6E
:1032300021F480919E028E7F17C0853F21F48091FA
:103240009E028D7F11C0863F21F480919E028B7F6C
:103250000BC0873F21F480919E02877F05C0883F85
:1032600031F480919E028F7E80939E0213C08D3F29
:1032700021F480919C028E7F0BC08E3F21F48091BF
:103280009C028D7F05C08F3F29F480919C028B7F2B
:1032900080939C0280919F0281110EC08091A002B8
:1032A00081110AC08091A102811106C08091A20201
:1032B000811102C010929D0208958EE992E00E9451
:1032C000C50A0E94581790939B0280939A02089512
:1032D0001F93CF93DF9380919A0290919B020E945B
:1032E0006417AC0190919D02992321F0209108016F
:1032F00030E006C0209109018AE0289F9001112446
:103300004217530708F485C080919F02C091A00224
:10331000D091A1021091A202811107C0C11175C004
:10332000D11173C0111171C074C09F3F19F09F5F1C
:1033300090939D02181624F40E94EE1780939F022A
:1033400080919F0287FF05C00E94EE1781958093B0
:103350009F021C1624F40E94EE178093A002809115
:10336000A00287FF05C00E94EE1781958093A002FE
:1033700060919F02662331F1C091A002CC2311F12C
:10338000062E000C770B880B990B0E94722323E307
:1033900033E343E35FE30E94D6230E943A23609322
:1033A0009F026C2FCC0F770B880B990B0E94722316
:1033B00023E333E343E35FE30E94D6230E943A23EF
:1033C0006093A0021D1624F40E9437188093A10276
:1033D0008091A10287FF05C00E94371881958093D4
:1033E000A102111624F40E9437188093A202809142
:1033F000A20287FF05C00E94371881958093A20220
:10340000DF91CF911F910C945D199F3F09F08FCFF1
:1034100097CFDF91CF911F910895EEE9F2E085E01B
:10342000DF011D928A95E9F710929D0210929C028D
:103430000895833081F128F4813059F08230D1F041
:103440000895853009F449C0B8F1863009F456C0B2
:10345000089580910901262F30E0280F311D2F3F5C
:10346000310524F4680F6093090108958FEF80936C
:103470000901089580910801262F30E0280F311DA1
:103480002F3F310524F4680F6093080108958FEFF2
:1034900080930801089580910701262F30E0280FBE
:1034A000311D2F3F310524F4680F60930701089503
:1034B0008FEF80930701089580910601262F30E059
:1034C000280F311D2F3F310524F4680F609306014A
:1034D00008958FEF80930601089580910501262FAE
:1034E00030E0280F311D2F3F310524F4680F609321
:1034F000050108958FEF80930501089580910401DF
:10350000262F30E0280F311D2F3F310524F4680F9E
:103510006093040108958FEF809304010895833030
:1035200011F128F4813049F0823091F0089585300E
:1035300081F120F18630C1F1089580910901681769
:1035400020F4861B809309010895109209010895C3
:1035500080910801681720F4861B80930801089564
:1035600010920801089580910701681720F4861BC6
:103570008093070108951092070108958091060134
:10358000681720F4861B80930601089510920601A7
:10359000089580910501681720F4861B809305012A
:1035A000089510920501089580910401681720F490
:1035B000861B8093040108951092040108950F93CF
:1035C0001F93873208F04DC08E3108F095C08031CE
:1035D00009F47FC008F5873009F46BC068F48630C1
:1035E00009F0A5C080919402817F8E7F8093940220
:1035F00081E08093A4029CC08B3009F491C08E308E
:1036000009F095C08091940282FB222720F991E075
:10361000922790FB82F966C0863109F481C088F454
:10362000813109F084C00E94EB0F8091C70287FBB3
:10363000222720F991E0922790FB87F98093C70217
:103640006FC0893109F46CC08B3109F070C0809172
:10365000940281FB222720F991E0922790FB81F9C7
:1036600041C0883309F45CC050F4893209F45AC06F
:10367000853309F457C0873209F454C058C08334E5
:1036800009F450C028F48A3308F451C0895335C076
:10369000883409F04CC00E94EB0F0FEF13ED20E3CC
:1036A000015010402040E1F700C000000E94B31715
:1036B00037C090919402892F8095817080FB90F99A
:1036C00090939402882361F196609860909394029D
:1036D0002FC08091940283FB222720F991E092274A
:1036E00090FB83F9809394029923D1F08091940206
:1036F00081608093940214C08D5141E050E060E0FD
:1037000070E08A019B0104C0000F111F221F331FAC
:103710008A95D2F7C901B8010E94A5130E94EB0F48
:1037200081E006C061E070E080E090E0F5CF80E0ED
:103730001F910F91089580E0089580E008958E51C3
:103740008A3030F4E82FF0E0E354FE4F8081089592
:1037500080E00895CF93C82F8091A402813079F042
:1037600018F08230E9F186C0E0910201F091030186
:103770008081813169F0823209F07EC009C0E09118
:103780000201F09103018081813111F0823261F4F4
:103790008C2F0E949B1B811104C08C2F0E94DF1A6A
:1037A0001DC081E090E01AC08C2F0E949D1B8111EA
:1037B00014C0C43179F048F4CB3079F0C03109F04D
:1037C0005FC082E08093A40208C0C93219F0C833F8
:1037D00021F056C01092A40253C081E0817052C003
:1037E000C93281F110F5C43169F1A8F4C73009F08C
:1037F00045C08AE08093090194E19093080193E029
:10380000909307018093060188E08093050188E288
:103810008093040133C082EE8C0F863078F58C2FB4
:103820000E949F1B8093A30229C0CE34E9F020F4AC
:10383000CB3421F56AE013C0C13579F0C235F1F41B
:1038400061E00DC08091A302882319F01092A302B9
:1038500015C081E08093A40215C061E006C080918C
:10386000A3020E94191A0AC06AE08091A3020E9472
:103870008F1A04C01092A40280E004C081E002C04C
:1038800080E0ACCFCF9108958091C5020895CF9389
:10389000DF9300D01F92CDB7DEB79C018091CD029F
:1038A000843019F593E099833B832A839093E90050
:1038B0008FEF9091E800815095FD06C095ED9A95A7
:1038C000F1F700008111F5CF8091E80085FF0DC070
:1038D00040E050E063E070E0CE0101960E94A71E38
:1038E0008091E8008E778093E8000F900F900F9002
:1038F000DF91CF910895CF93DF9300D01F92CDB782
:10390000DEB72091CD02243021F522E029839B836C
:103910008A8383E08093E9008FEF9091E8008150E3
:1039200095FD06C095ED9A95F1F700008111F5CF50
:103930008091E80085FF0DC040E050E063E070E05A
:10394000CE0101960E94A71E8091E8008E77809399
:10395000E8000F900F900F90DF91CF910895209184
:10396000CD022430F1F422E02093E9002FEF3091D2
:10397000E800215035FD06C035ED3A95F1F700001D
:103980002111F5CF2091E80025FF0BC040E050E069
:1039900065E070E00E94A71E8091E8008E7780931A
:1039A000E8000895CF93DF93EC019091CD0294301D
:1039B00009F046C0809114018823D9F08091C70294
:1039C00087FF17C09093E9008FEF9091E800815036
:1039D00095FD06C095E19A95F1F700008111F5CFAC
:1039E0008091E80085FF2CC040E050E060E270E08C
:1039F00017C081E08093E9008FEF9091E80081503B
:103A000095FD06C095ED9A95F1F700008111F5CF6F
:103A10008091E80085FF14C040E050E068E070E06D
:103A2000CE010E94A71E8091E8008E778093E80067
:103A300080E2FE01A5EAB2E001900D928A95E1F7DD
:103A4000DF91CF9108958091CC02811109C00E942D
:103A50003C200E9499208091E20084608093E200E3
:103A600008951092CC020895089508950C9420179B
:103A700042E061EC81E00E94B61F42E061EC82E02E
:103A80000E94B61F42E061EC83E00E94B61F42E252
:103A900061EC84E00C94B61F8091CF02833009F46E
:103AA00055C030F4813071F0823009F48EC0089531
:103AB0008A3009F47AC08B3009F460C0893009F08B
:103AC0009CC020C08091CE02813A09F096C08091BE
:103AD000E800877F8093E8008091D2029091D30222
:103AE000892B21F460E285EA92E003C060E080E087
:103AF00090E070E00E94F21E8091E8008B77809346
:103B0000E80008958091CE02813209F076C080915C
:103B1000D2029091D302009719F0039709F06DC07B
:103B20008091E800877F8093E8008091E80082FD23
:103B300005C08091CD028111F8CF5FC08091F10066
:103B40008093C5028091E8008B7753C08091CE02AC
:103B5000813A09F052C08091D2029091D302892B10
:103B600009F04BC08091E800877F8093E800809146
:103B7000E80080FFFCCF8091140136C08091CE0216
:103B80008132D9F58091D2029091D302892BA9F587
:103B90008091E800877F8093E8000E94EB1F80916E
:103BA000D002809314010C94EB0F8091CE028132ED
:103BB00021F58091E800877F8093E8000E94EB1F49
:103BC0008091D1028093C60208958091CE02813AFD
:103BD000A1F48091E800877F8093E8008091E8005D
:103BE00080FFFCCF8091C6028093F1008091E800B5
:103BF0008E778093E8000C94EB1F089584B7877F3D
:103C000084BF0FB6F894A895809160008861809376
:103C10006000109260000FBE80E8809361001092F7
:103C200061000E94FD0A0E943C200E949920809120
:103C3000E20084608093E20078940E941F230E9437
:103C4000FF0A8AE091E00E94A90A8091CD028530A6
:103C500069F40E94DF168091CB028823B1F30E94A1
:103C60000C17882391F30E94911EEFCF0E94050B41
:103C7000ECCF292F332723303105C9F064F42130EC
:103C8000310581F02230310509F043C08DE690E026
:103C900020EF35E042C021323105F1F0223231050A
:103CA00041F137C082E190E02DE536E036C099273A
:103CB0008130910541F08230910541F0892B49F521
:103CC000ECEEF5E005C0E4EDF5E002C0ECEBF5E06C
:103CD000849190E09F0121C06430D8F4E62FF0E099
:103CE000EE0FFF1FED52FE4F2081318189E090E001
:103CF00014C0643070F470E0FB01EE0FFF1FE55359
:103D0000FE4F20813181FB01E953FE4F808190E01D
:103D100004C080E090E020E030E0FA0131832083AD
:103D2000089580E189BD82E189BD09B400FEFDCF1F
:103D30008091D8008F7D8093D8008091E0008260D0
:103D40008093E0008091E00081FDFCCF0895CF9248
:103D5000DF92EF92FF920F931F93CF93DF93EC01CB
:103D60008B016A010E940A20811133C0C114D10461
:103D700039F0F60180819181081B190BC80FD91FFA
:103D8000E12CF12C0115110519F18091E80085FD58
:103D900016C08091E8008E778093E800C114D104AA
:103DA00049F0F60180819181E80EF91EF182E082EE
:103DB00085E00FC00E940A20882321F30AC0899160
:103DC0008093F10001501109FFEFEF1AFF0ADACFDB
:103DD00080E0DF91CF911F910F91FF90EF90DF90E6
:103DE000CF9008952091D4023091D502261737073D
:103DF00048F06115710539F42091E8002E77209381
:103E0000E80001C0B90140E061157105A9F12091F8
:103E1000CD02222309F443C0253009F442C0209189
:103E2000E80023FD40C02091E80022FD32C020912F
:103E3000E80020FFE9CF4091F3002091F20030E04C
:103E4000342BFC01CF016115710559F02830310583
:103E500040F481918093F100615071092F5F3F4FD1
:103E6000F1CF41E02830310509F040E02091E80031
:103E70002E772093E800C8CF4111C9CF0AC08091A6
:103E8000CD02882361F0853061F08091E80083FDE8
:103E90000AC08091E80082FFF2CF80E0089582E0BE
:103EA000089583E0089581E008952091D40230912F
:103EB000D5022617370748F06115710539F42091AE
:103EC000E8002E772093E80001C0B901FC0120E052
:103ED0006115710591F18091CD02882309F440C0EC
:103EE000853009F43FC08091E80083FD3DC080919A
:103EF000E80082FD2FC08091E80080FFE9CF20918B
:103F0000F3008091F20090E0922B6115710559F059
:103F10008830910540F424912093F100319661504E
:103F200071090196F2CF21E0089709F020E0809115
:103F3000E8008E778093E800CBCF2111CCCF0AC068
:103F40008091CD02882361F0853061F08091E80096
:103F500083FD0AC08091E80082FFF2CF80E00895DF
:103F600082E0089583E0089581E00895982F9730C6
:103F700058F59093E900981739F07091EC00209172
:103F8000ED005091F00003C0242F762F50E021FF68
:103F900019C03091EB003E7F3093EB003091ED0083
:103FA0003D7F3093ED003091EB0031603093EB00BA
:103FB0007093EC002093ED005093F0002091EE0000
:103FC00027FF07C09F5FD3CF8F708093E90081E008
:103FD000089580E008958091CE0287FF11C08091FE
:103FE000E80082FD05C08091CD028111F8CF11C09B
:103FF0008091E8008B770BC08091CD02882349F037
:104000008091E80080FFF8CF8091E8008E77809360
:10401000E80008952091E4003091E50095E6409194
:10402000EC00842F817040FF22C08091E80080FD69
:104030001CC08091CD02882391F0853091F0809151
:10404000EB0085FD10C04091E4005091E50042175F
:10405000530729F39A01915011F784E0089582E003
:10406000089583E0089581E0089580E008954091E7
:10407000E80042FFDECF08950E94AA200E94B220ED
:10408000E0EEF0E0808181608083E8EDF0E0808107
:104090008F77808319BCA7EDB0E08C918E7F8C93D5
:1040A00080818F7E80831092CC0208950F931F939E
:1040B000CF93DF930E94AA200E94B220C8EDD0E0E7
:1040C00088818F77888388818068888388818F7DC5
:1040D000888319BC1092CD021092C9021092CB02B3
:1040E0001092CA0200EE10E0F80180818B7F80837D
:1040F00088818160888342E060E080E00E94B61F92
:10410000E1EEF0E080818E7F8083E2EEF0E080815E
:1041100081608083808188608083F80180818E7FC8
:104120008083888180618883DF91CF911F910F9177
:104130000895E8EDF0E080818F7E8083E7EDF0E088
:1041400080818160808384E082BF81E08093CC02A3
:104150000C945620E8EDF0E080818E7F80831092F1
:10416000E20008951092DA001092E10008951F9283
:104170000F920FB60F9211242F933F934F935F939B
:104180006F937F938F939F93AF93BF93EF93FF931F
:104190008091E10082FF0BC08091E20082FF07C0A6
:1041A0008091E1008B7F8093E1000E941E2380912B
:1041B000DA0080FF1FC08091D80080FF1BC0809173
:1041C000DA008E7F8093DA008091D90080FF0DC0E5
:1041D00080E189BD82E189BD09B400FEFDCF81E0A7
:1041E0008093CD020E94231D05C019BC1092CD0200
:1041F0000E94311D8091E10080FF19C08091E20092
:1042000080FF15C08091E2008E7F8093E200809154
:10421000E20080618093E2008091D8008062809308
:10422000D80019BC85E08093CD020E94351D809195
:10423000E10084FF30C08091E20084FF2CC080E167
:1042400089BD82E189BD09B400FEFDCF8091D8000F
:104250008F7D8093D8008091E1008F7E8093E10074
:104260008091E2008F7E8093E2008091E200816085
:104270008093E2008091C902882311F084E007C096
:104280008091E30087FD02C081E001C083E080935C
:10429000CD020E94361D8091E10083FF29C08091EC
:1042A000E20083FF25C08091E100877F8093E100D9
:1042B00082E08093CD021092C9028091E1008E7F4E
:1042C0008093E1008091E2008E7F8093E2008091F4
:1042D000E20080618093E20042E060E080E00E94C2
:1042E000B61F8091F00088608093F0000E94341D1A
:1042F000FF91EF91BF91AF919F918F917F916F91BE
:104300005F914F913F912F910F900FBE0F901F9093
:1043100018951F920F920FB60F9211242F933F936F
:104320004F935F936F937F938F939F93AF93BF93BD
:10433000CF93DF93EF93FF93C091E900CF7080910B
:10434000EC00D82FD17080FDD0E81092E900809168
:10435000F000877F8093F00078940E94CD21109226
:10436000E9008091F00088608093F000CD2BCF7041
:10437000C093E900FF91EF91DF91CF91BF91AF9191
:104380009F918F917F916F915F914F913F912F916D
:104390000F900FBE0F901F9018951F93CF93DF9330
:1043A000CDB7DEB7AA970FB6F894DEBF0FBECDBF6C
:1043B000EEECF2E088E08E0F9091F10091938E1375
:1043C000FBCF0E944C1D8091E80083FF1FC18091AC
:1043D000CE029091CF02492F50E04A30510508F0AB
:1043E00015C1FA01E556FF4F0C947F24803881F007
:1043F000823809F00BC18091D2028F708093E9005E
:104400008091EB0085FB882780F91092E90006C0B7
:104410008091CA029091CB02911182609091E80044
:10442000977F9093E8008093F1001092F100C8C04C
:10443000282F2D7F09F0EAC0882319F0823061F01F
:10444000E5C08091D002813009F0E0C0933009F0DE
:1044500080E08093CB022BC08091D002811127C0D5
:104460008091D2028F7009F4D1C08093E90020912D
:10447000EB0020FF1CC0933021F48091EB008062A0
:1044800014C09091EB0090619093EB0021E030E03C
:10449000A90102C0440F551F8A95E2F74093EA0034
:1044A0001092EA008091EB0088608093EB001092FC
:1044B000E9008091E800877F86C08111A7C0109134
:1044C000D0021F778091E3008078812B8093E300F6
:1044D0008091E800877F8093E8000E94EB1F809125
:1044E000E80080FFFCCF8091E30080688093E300C8
:1044F000111102C082E001C083E08093CD0286C02A
:104500008058823008F082C08091D0029091D10210
:104510008C3D53E0950779F583E08A838AE28983AD
:104520004FB7F894DE01139620E03EE051E2E32F0E
:10453000F0E050935700E49120FF03C0E295EF7044
:104540003F5FEF708E2F90E0EA3010F0C79601C009
:10455000C0968D939D932F5F243149F74FBF809173
:10456000E800877F8093E8006AE270E0CE01019660
:104570000E94F21E14C0AE014F5F5F4F6091D202E5
:104580000E94391EBC01892B09F440C09091E800BB
:10459000977F9093E80089819A810E94551F8091AE
:1045A000E8008B778093E80031C0803879F58091FE
:1045B000E800877F8093E8008091C9028093F10032
:1045C0008091E8008E778093E8000E94EB1F1EC068
:1045D00081111CC09091D0029230C0F48091E8000B
:1045E000877F8093E8009093C9020E94EB1F80911F
:1045F000C902811106C08091E30087FD02C081E0FD
:1046000001C084E08093CD020E94381D8091E800B3
:1046100083FF0AC08091E800877F8093E800809143
:10462000EB0080628093EB00AA960FB6F894DEBF91
:104630000FBECDBFDF91CF911F9108950895CF9305
:104640008091CD028823A1F0C091E900CF709091B4
:10465000EC00892F817090FD80E8C82B1092E90052
:104660008091E80083FD0E94CD21CF70C093E900C6
:10467000CF9108950E9441236894B1110C94D023E6
:1046800008950E94B52388F09F5798F0B92F992775
:10469000B751B0F0E1F0660F771F881F991F1AF02D
:1046A000BA95C9F714C0B13091F00E94CF23B1E0A0
:1046B00008950C94CF23672F782F8827B85F39F09F
:1046C000B93FCCF3869577956795B395D9F73EF4C6
:1046D00090958095709561957F4F8F4F9F4F08956E
:1046E000E89409C097FB3EF490958095709561958C
:1046F0007F4F8F4F9F4F9923A9F0F92F96E9BB2742
:104700009395F695879577956795B795F111F8CFBD
:10471000FAF4BB0F11F460FF1BC06F5F7F4F8F4F28
:104720009F4F16C0882311F096E911C0772321F01E
:104730009EE8872F762F05C0662371F096E8862FB6
:1047400070E060E02AF09A95660F771F881FDAF70D
:10475000880F9695879597F9089557FD9058440FBF
:10476000551F59F05F3F71F04795880F97FB991FD0
:1047700061F09F3F79F0879508951216130614068D
:10478000551FF2CF4695F1DF08C01616170618061A
:10479000991FF1CF86957105610508940895E894F5
:1047A000BB2766277727CB0197F908950E94E92355
:1047B0000C945A240E944C2438F00E94532420F078
:1047C000952311F00C9443240C94492411240C9447
:1047D000D0230E94AD2370F3959FC1F3950F50E055
:1047E000551F629FF001729FBB27F00DB11D639FA3
:1047F000AA27F00DB11DAA1F649F6627B00DA11D49
:10480000661F829F2227B00DA11D621F739FB00DEE
:10481000A11D621F839FA00D611D221F749F33275E
:10482000A00D611D231F849F600D211D822F762FF7
:104830006A2F11249F5750409AF0F1F088234AF0D4
:10484000EE0FFF1FBB1F661F771F881F9150504040
:10485000A9F79E3F510580F00C9443240C94D0237B
:104860005F3FE4F3983ED4F3869577956795B795C7
:10487000F795E7959F5FC1F7FE2B880F911D9695E1
:10488000879597F9089597F99F6780E870E060E051
:1048900008959FEF80EC089500240A9416161706D9
:1048A00018060906089500240A9412161306140621
:1048B00005060895092E0394000C11F4882352F084
:1048C000BB0F40F4BF2B11F460FF04C06F5F7F4F3C
:1048D0008F4F9F4F089597FB072E16F4009407D033
:1048E00077FD09D00E94852407FC05D03EF4909501
:1048F00081959F4F0895709561957F4F0895EE0FB4
:10490000FF1F0590F491E02D0994AA1BBB1B51E1F8
:1049100007C0AA1FBB1FA617B70710F0A61BB70B2F
:10492000881F991F5A95A9F780959095BC01CD01D4
:104930000895F999FECF92BD81BDF89A992780B567
:104940000895A8E1B0E042E050E00C94C124262F85
:10495000F999FECF92BD81BDF89A019700B4021675
:1049600039F01FBA20BD0FB6F894FA9AF99A0FBE23
:1049700008950196272F0E94A8240C94A724DC01F7
:10498000CB01FC01F999FECF06C0F2BDE1BDF89A5A
:10499000319600B40D9241505040B8F70895F89404
:0249A000FFCF47
:1049A2000520710228080A03140A441CD21CAF1CF9
:1049B2007B1C471C01000D010D020D030D040D05AA
:1049C2000D000C010C020C030C040C050C000B0175
:1049D2000B020B030B040B050B000A010A020A036C
:1049E2000A040A050A000901090209030904090562
:1049F2000900080108020803080408050800070165
:104A0200070207030704070507000601060206035B
:104A12000604060506000501050205030504050551
:104A22000500040104020403040404050400030154
:104A3200030203030304030503000201020202034B
:104A42000204020502000101010201030104010541
:104A5200010000010002000300040005000102033E
:104A620004050607080900404D36392B07DE06A863
:0C4A7200066F0602061B0634064D060007
:00000001FF
