:100000000C9418060C945F060C945F060C945F0623
:100010000C945F060C945F060C945F060C945F06CC
:100020000C945F060C945F060C94B4250C94862601
:100030000C94231C0C945F060C945F060C945F06D2
:100040000C945F060C945F060C945F060C945F069C
:100050000C945F060C948B1C0C945F060C945F064A
:100060000C945F060C945F060C945F060C945F067C
:100070000C945F060C945F060C945F060C945F066C
:100080000C945F060C945F060C945F060C945F065C
:100090000C945F060C945F060C945F060C945F064C
:1000A0000C945F060C945F060C945F06A308A908E5
:1000B000AF08B508BD08C308C908CF08D408D908D7
:1000C000DE08E308E808ED08F208F708FC08010973
:1000D0000609050A070A120A090A0B0A0D0A0F0A7D
:1000E000110A140A160A180A230A1A0A1C0A1E0AF6
:1000F000200A220A250A89128912C312C312F81291
:10010000181343147F1423137F14D313D3133B14F6
:100110007F147F147A14E013E013E013E013E0136C
:10012000E013E013E013E013E013E013E013E01337
:10013000E013E013E013F213FF1306140D14171469
:10014000FA14FA140C150C1503150C150C150C15D6
:10015000FA14FA1408150C150C150815F3261527B2
:100160000328152703285A277D270328D227E527A8
:1001700001E1014D024D02E10001E1014A024A02A2
:10018000E10001E1012602260127022702E10150D8
:1001900002500001E1012F022F0130023002E10183
:1001A00050025000012F022F013002300150025046
:1001B0000001E10134023402E1004A756C20323161
:1001C00020323031372030313A30313A3333003059
:1001D000313A30313A3333004A756C2032312032B3
:1001E0003031370070697020696E7374616C6C20F7
:1001F0002D2D636572743D633A2F73736C70726F4B
:1002000078792E637274200053454C4543540D0A8F
:100210002020202020412E2A0D0A202020202C42A0
:100220002E2A0D0A46524F4D0D0A20202020612E05
:10023000616120410D0A202020204C454654204F6A
:1002400055544552204A4F494E0D0A202020202067
:10025000202020280D0A2020202020202020534567
:100260004C4543540D0A202020202020202020200F
:10027000202020432E636F6C0D0A20202020202098
:10028000202046524F4D0D0A2020202020202020E3
:1002900020202020632E636320430D0A202020208D
:1002A0002020202057484552450D0A20202020209C
:1002B00020202020202020432E636F6C203D204EE4
:1002C000554C4C0D0A20202020202020202920429F
:1002D0000D0A202020204F4E0D0A20202020202013
:1002E0002020422E636F6C203D20412E636F6C20D6
:1002F0002D2D4E554C4C0D0A20202020414E4420DF
:10030000422E636F6C203D20412E636F6C202D2D9B
:100310004E554C4C0D0A57484552450D0A20202099
:1003200020422E636F6C203D204E554C4C0D0A41EF
:100330004E4420412E636F6C203C3E20310D0A411B
:100340004E4420412E636F6C204245545745454E24
:10035000202730312720414E4420273032270D0AF4
:100360000053454C4543540D0A2020202020412EA7
:100370002A0D0A202020202C422E2A0D0A46524FF8
:100380004D0D0A20202020612E616120410D0A20A0
:100390002020204C454654204F55544552204A4F6A
:1003A000494E20622E626220420D0A202020204FFA
:1003B0004E0D0A2020202020202020422E636F6C2A
:1003C000203D20412E636F6C202D2D4E554C4C0D41
:1003D0000A20202020414E4420422E636F6C203D95
:1003E00020412E636F6C202D2D4E554C4C0D0A571D
:1003F000484552450D0A20202020422E636F6C2074
:100400003D204E554C4C0D0A414E4420412E636F09
:100410006C203C3E20310D0A414E4420412E636F3A
:100420006C204245545745454E2027303127204106
:100430004E4420273032270D0A0053454C45435483
:100440000D0A2020202020412E636F6C0D0A2020F1
:1004500020202C412E2A0D0A46524F4D0D0A2020F5
:100460002020612E616120410D0A57484552450DFB
:100470000A20202020412E636F6C203D204E554CD9
:100480004C0D0A414E4420412E636F6C203C3E20AF
:10049000310D0A414E4420412E636F6C2042455479
:1004A0005745454E202730312720414E44202730E4
:1004B00032270D0A0001E10120022002E1012C0295
:1004C0002C012C022C012D022D012D022D012D02BB
:1004D0002D012D022D0150025001500250015002F9
:1004E000500150025001500250015002500001E1F1
:1004F00001200220012C022C0122022201220222D0
:1005000002E100272559256D25642548254D2553F1
:100510002566270001E10136023602E1012D022D98
:100520000023202D2A2D20636F64696E673A2075A1
:1005300074662D38202D2A2D200A2727270A0A43E2
:10054000726561746564206F6E200A0A406175747B
:10055000686F723A20596F756E67204A75204B6933
:100560006D0A2727270A006572676F646F782F70FE
:100570007964656D69612040206664656335362D58
:1005800064697274790029002B4235000D71E061B5
:1005900000000171140004001D00C2004D00027132
:1005A0001A0016001B00E7002A000371080007006C
:1005B000060065002C000471150009001900E264B2
:1005C0004A00057111711271137100000F713E0123
:1005D00000710000C10000001071067102300000BF
:1005E00028010000500007711C000B0011000000E2
:1005F0004F000871180016711000E60052000971D2
:100600000C0017713600E40028000A7112001871FE
:1006100037002F004C000B711300330038003000FE
:1006200051000C7131000E71E500103000000030F7
:1006300001000100010001000000010001000100B3
:10064000093001004D0201000C300A300B3001006E
:100650002A00010003300C300100010028000530A1
:1006600026022F002F0201004A0204302702300028
:1006700030020000500001000230000001000000C4
:100680004F00010035020000010000005001010090
:10069000240021001E0000004F010100250022005F
:1006A0001F0027004B000100260023002000370018
:1006B0002C0001002E022502360050004C000100E3
:1006C0002D003800520051004E00010001000100D1
:1006D00001004F0000000130010001000100010095
:1006E0000000010023000A30063001004E00010026
:1006F00024000B30073001002A00010025000C30D7
:10070000083001002C00010026000100010001005A
:100710004B00010027000100010000004A02010017
:1007200001000000010000004D0201000100000076
:100730000100000050000100010001000100000064
:100740004F00010001000100010001005200010002
:10075000010001000100010028000100010001006A
:10076000010036004C000100010001000100010001
:1007700051000100010001000100010000000071B2
:100780002B0035003962E06100001E0014000400F7
:100790001D00C2004D001F001A0016001B00E300E0
:1007A0002A00200008000700060065002C00210038
:1007B000150009001900E2644A00220017000A002F
:1007C000050000004B003E0102300000C1000000A7
:1007D0004E002300280100003E01000050002400CC
:1007E0001C000B00110000004F00250018000D0038
:1007F0001000E600520026000C000E003600E40057
:100800002800270012000F0037002F004C002D0099
:10081000130033003800300051002E023100340044
:10082000E500C300000029002B003500E100E000D6
:1008300000001E00140004001D00E2014E001F0015
:100840001A0016001B00E3004C00200008000700FF
:10085000060065002C002100150009001900E200C7
:100860004B00220017000A00050000004A00045354
:100870002E000000015300004D0023000230000054
:100880003E0100004A0024001C000B001100000083
:100890004D00250018000D001000E6004B0026005A
:1008A0000C000E0036002C022800270012000F005A
:1008B00037002F004C002D001300330038003000AB
:1008C0004E002E02310034000157C1000000290003
:1008D0002B003500E100E00000001E0014000400C1
:1008E0001D00E2014E001F001A0016001B00E3006D
:1008F0002A00200008000700060065002C002100E7
:10090000150009001900E2004B00220017000A0040
:10091000050000004A0004532E00000001530000AF
:100920004D002300023000003E0100005000240072
:100930001C000B00110000004F00250018000D00E6
:100940001000E600520026000C000E0036002C02BB
:100950002800270012000F0037002F004C002D0048
:10096000130033003800300051002E0231003400F3
:10097000E500C10000000000F0A1F0A2F0A3F0A487
:1009800000000000000000002A2B280000000000EA
:10099000000000000000000000000029000000002E
:1009A0002C1E3420212224342627252E362D37389C
:1009B000271E1F202122232425263333362E3738A5
:1009C0001F0405060708090A0B0C0D0E0F10111263
:1009D000131415161718191A1B1C1D2F3130232D2F
:1009E000350405060708090A0B0C0D0E0F1011122D
:1009F000131415161718191A1B1C1D2F3130354CDE
:100A000000000000000000000000000000000000E6
:100A100000000000000000000000000000000000D6
:100A200000010101010101000101010100000000BC
:100A300000000000000000000000010001000101B2
:100A40000101010101010101010101010101010196
:100A50000101010101010101010101000000010189
:100A60000000000000000000000000000000000086
:100A70000000000000000000000000010101010072
:100A800016034500720067006F0044006F00780095
:100A9000200045005A000000160345007200670060
:100AA0006F0044006F007800200045005A000000ED
:100AB0000403090409026D00040100A0FA090400FE
:100AC000000103010100092111010001224000077A
:100AD00005810308000A090401000103010200095D
:100AE0002111010001224D000705820308000A09B7
:100AF0000402000103000000092111010001223657
:100B0000000705830308000A09040300010300002D
:100B1000000921110100012239000705840320008A
:100B2000011201100100000008EDFE071301000191
:100B300002000105010906A101050719E029E715D1
:100B400000250195087501810205081901290595FF
:100B50000575019102950175039101050719002999
:100B6000F71500250195F875018102C0050109807E
:100B7000A101850216810026B7001A81002AB7005C
:100B8000751095018100C0050C0901A101850316AE
:100B90000100269C021A01002A9C02751095018111
:100BA00000C005010902A1010901A10005091901FF
:100BB000290515002501950575018102950175032B
:100BC00081010501093009311581257F95027508DC
:100BD000810609381581257F950175088106050C68
:100BE0000A38021581257F950175088106C0C00568
:100BF000010906A101050719E029E715002501955E
:100C000008750181029501750881010508190129FE
:100C10000595057501910295017503910105071967
:100C20000029FF150026FF00950675088100C00009
:100C300011241FBECFEFDAE0DEBFCDBF04B603FE46
:100C400027C08091BC049091BD04A091BE04B091D6
:100C5000BF048730904BA740B04BD1F41092BC0436
:100C60001092BD041092BE041092BF0414BE84B74B
:100C7000877F84BF0FB6F894A89580916000886143
:100C800080936000109260000FBEE0E0FFE30995E2
:100C900013E0A0E0B1E0ECE9F3E502C005900D92AD
:100CA000A03CB107D9F724E0A0ECB3E001C01D924D
:100CB000AC3BB207E1F70E94FB220C94CC290C94C8
:100CC00000001092B9008AE08093B800089594EA79
:100CD0009093BC009091BC0097FFFCCF9091B9001D
:100CE000987F983021F0903111F081E00895809341
:100CF000BB0084E88093BC008091BC0087FFFCCFE0
:100D00008091B900887F883111F0803471F780E0DC
:100D1000089584E98093BC008091BC0084FDFCCFE1
:100D200008958093BB0084E88093BC008091BC0050
:100D300087FFFCCF9091B900987F81E0983209F449
:100D400080E0089584E88093BC008091BC0087FF18
:100D5000FCCF8091BB00089580B38C7080BB81B3C1
:100D6000836F81BB08958091E502811115C080E4F5
:100D70000E9467068093E50281110CC082E10E9407
:100D800091068093E502811105C08FEF0E949106C4
:100D90008093E5020E94890684B1807F84B985B181
:100DA000807F85B98AB1837F8AB98BB1837F8BB904
:100DB0003E98469808950C940F090E94A30D8093C5
:100DC000E5020E94B3060E94AC06A1ECB3E0EFEC92
:100DD000F3E08EE08E0F11921D928E13FCCF0C94D7
:100DE0008D0D0E94A30D8093E5020E94B3060E9420
:100DF000AC06A1ECB3E0EFECF3E08EE08E0F1192C5
:100E00001D928E13FCCF0895BF92CF92DF92EF9286
:100E1000FF920F931F93CF93DF938091E502882376
:100E200079F08091C0038F5F8093C003811108C067
:100E30000E94A30D8093E502811102C00E94350D2E
:100E400001EC13E0C0E0D0E0EE24E394F12CDD24CB
:100E5000D39495E0C92EC730D10500F58091E50205
:100E600081113CC080E40E9467068093E5028111F5
:100E700012C082E10E9491068093E50281110BC0AD
:100E8000C7010C2E01C0880F0A94EAF780950E94D2
:100E900091068093E5020E94890620C0CA30A1F025
:100EA00028F4C83059F0C93061F005C0CC3089F061
:100EB00070F0CD3089F0209A289810C0219A299896
:100EC0000DC0229A2A980AC0239A2B9807C0529ADA
:100ED00001C0539A5B9802C03E9A469880EA8A9570
:100EE000F1F7C730D10518F58091E502811144C0B2
:100EF00080E40E9467068093E502882311F0B12CFC
:100F000012C083E10E9491068093E5028111F7CF20
:100F100081E40E9467068093E5028111F0CF0E9470
:100F2000A206B82EB0940E9489068B2D26C08FB1E0
:100F300081708D25799902C092E001C090E0892BE3
:100F40007C9902C024E001C020E0822B7D9902C080
:100F500028E001C020E0822B7E9902C090E101C010
:100F600090E0892B9FB19095991F9927991F929591
:100F7000990F907E892B01C080E0F801908198172D
:100F800019F08083C09200010E94B30621960F5F82
:100F90001F4FCE30D10509F05ECF8091000188232C
:100FA000A1F0815080930001882329F0F5E0FA95A3
:100FB000F1F700000AC0AFECB3E0E1ECF3E0CF01E1
:100FC000825F91919D938E13FCCF0E94BD0A81E0B8
:100FD000DF91CF911F910F91FF90EF90DF90CF9015
:100FE000BF900895E82FF0E0E153FC4F8081089511
:100FF0000895FC018081813031F487E10E941E1147
:1010000087E10C94F1110C94D414FC01808182309E
:1010100091F48FE20E941E118FE20E94F11180E391
:101020000E941E1180E30E94F11180E50E941E11B2
:1010300080E50C94F1110C94D414FC018081813072
:1010400031F48AE00E941E118AE00C94F1110C9494
:10105000D414FC0180818230C1F481EE0E941E1103
:101060008FE20E941E118FE20E94F11180E30E9424
:101070001E1180E30E94F11181EE0E94F11180E5C2
:101080000E941E1180E50C94F1110C94D414FC0103
:101090008081813031F485E00E941E1185E00C943E
:1010A000F1110C94D414FC0180818230C1F481EEE2
:1010B0000E941E1186E20E941E1186E20E94F1111A
:1010C00087E20E941E1187E20E94F11181EE0E94C8
:1010D000F11180E50E941E1180E50C94F1110C9431
:1010E000D414FC018081813031F48EE20E941E1103
:1010F0008EE20C94F1110C94D414FC0180818230A6
:1011000091F481EE0E941E1186E30E941E1186E377
:101110000E94F11181EE0E94F1118DE20E941E11D8
:101120008DE20C94F1110C94D414462F50E043310D
:10113000510508F070C0DC01FA01EA5AFF4F12961F
:101140008C910C947C29882309F465C087E695E08E
:1011500011C0882309F45FC081E295E00BC08823A9
:1011600009F459C084E195E00895882309F453C037
:1011700083E095E00E94920A4EC0882309F44BC098
:101180008EEE94E00895882309F445C085EB94E041
:101190000895882309F43FC08AE394E0EBCF8823C5
:1011A000D1F181E693E0E6CF8823A9F188E092E0CF
:1011B000E1CF882381F184EE91E0DCCF882359F1DF
:1011C00088ED91E0D7CF882331F18FEC91E0D2CF39
:1011D000882309F18AEB91E0CDCF8823E1F081EB00
:1011E00091E008958823B9F084EA91E00895882376
:1011F00091F083E991E00895882369F082E891E015
:101200000895882341F089E791E00895882319F033
:1012100080E791E0089580E090E00895089560915E
:101220004D0470914E0480914F04909150040E949F
:10123000561B56985E9825982D9826982E98279894
:101240002F98823089F018F4813031F0089583307E
:1012500031F0843039F00895259A2D9A0895279A0F
:101260002F9A0895259A2D9A269A2E9A08950F93CB
:101270001F93CF93DF939C013A9521153F41C8F509
:101280008B01EC0190FF03C080EEFB010995D1FFBB
:1012900003C081EEF8010995D2FF03C082EEF80188
:1012A0000995D3FF03C083EEF8010995CE01882785
:1012B0009171892B19F084EEF8010995CE018827E8
:1012C0009271892B19F085EEF8010995CE018827D6
:1012D0009471892B19F086EEF8010995CC27D87105
:1012E000CD2B39F087EEF801DF91CF911F910F914F
:1012F0000994DF91CF911F910F910895CF93C82F3B
:101300006EE171E10E9437098C2FCF910C941E1170
:101310001F93CF93DF931F92CDB7DEB7182F99831A
:101320000E94F11161EF71E1812F99810F90DF919E
:10133000CF911F910C94370981E0089581E00895C1
:101340000C949E090E94E8142FEF84E39CE0215046
:1013500080409040E1F700C000000C94B01C0F9357
:101360001F93CF93DF938C01FC01C081D181CE010B
:101370000E94DB19BE010E94560CEC01B8010E94CC
:10138000A009882309F4C8C0B801CE010E94DA0E72
:10139000882309F4C1C0B801CE010E94E60C88235D
:1013A00009F4BAC0B801CE010E94610E882309F485
:1013B000B3C0C531F0E7DF0708F07CC0C23080E77A
:1013C000D80708F452C0F8018281882309F459C073
:1013D0000E94C01B811102C00E94A61B0E94D31B49
:1013E00090E09093AE048093AD04FE01E350F0478B
:1013F000E231F10530F4E759FF4F8091AD040C94D0
:101400007C298091AD04816027C0826025C0846002
:1014100023C0806121C080621FC080641DC08068BD
:101420001BC08460886018C08E7F16C08D7F14C07A
:101430008B7F12C08F7E10C08F7D0EC08F7B0CC043
:101440008F770AC08B7F877F07C087FB222720F911
:1014500091E0922790FB87F98093AD048091AD04D1
:101460000E94D71B0E94E81457C0C115E0E7DE07B1
:1014700079F0C130D047A1F081E08093DD03809303
:10148000DE03C801DF91CF911F910F910C949C094D
:10149000F8018281882309F43FC00E94A2093CC060
:1014A000F80182818823C1F180917A048160809360
:1014B0007A0432C0CC3380E7D807A1F4F8018281E6
:1014C000882321F01092DD0382E016C08091DD03B5
:1014D000811106C086E20E941E1186E20E94F1116F
:1014E00082E018C0CD33D04739F6F80182818823D5
:1014F00031F01092DE0380E20E9440120DC0809114
:10150000DE03811106C087E20E941E1187E20E945D
:10151000F11180E20E94471280E0DF91CF911F918C
:101520000F9108950F931F93CF938C01F80124918D
:101530002223F9F030E0F901E058F64FC491F901A7
:10154000E050F64F2491222359F081EE0E941E11A3
:101550008C2F0E941E118C2F0E94F11181EE04C06D
:101560008C2F0E941E118C2F0E94F1110F5F1F4FB4
:10157000DDCFCF911F910F9108950E94780F0C94A9
:10158000DB0608950C94C10A0C94C20A26E0729FEF
:10159000F001112444E5849FE00DF11D1124E60FB4
:1015A000F11DEE0FFF1FEA57FA4F859194910E94AB
:1015B000680C811560E49607B0F5811570E3970714
:1015C00008F0E6C0803E9105D8F4803C910508F013
:1015D0006CC0883A910578F4853A910508F06BC0A3
:1015E0008130910509F460C108F417C18430910578
:1015F00008F05AC112C18D3B910508F467C00DC1B6
:101600008F3F910509F048F4803F910508F0B5C07F
:10161000883E910508F448C100C1811520E2920777
:1016200008F0ADC00895811543E5940790F4811545
:1016300062E5960708F0D0C0811571E5970708F0BC
:10164000C6C0811520E5920708F0A5C09F70906A7A
:101650000895811545E59407D8F4811564E596074A
:1016600008F0D0C0482F4695469570E2479FA001EC
:1016700011248370992721E030E0B90102C0660F80
:10168000771F8A95E2F7CB01842B952B9A680895F2
:10169000811576E5970708F4BAC09C0130562115EC
:1016A000304108F0BAC09F70B6C0FC01EE0FFF1FBA
:1016B000EA50F84F6AC0853A910509F4B1C0863AFC
:1016C000910509F0B0C082E890E40895883A910548
:1016D00009F4ACC0893A910509F4ABC08A3A910586
:1016E00009F4AAC08B3A910509F4A9C08C3A910576
:1016F00009F4A8C08B3B910509F4A7C08C3B910568
:1017000009F4A6C08D3A910509F4A5C0803B910566
:1017100009F4A4C08E3A910509F4A3C08F3A91054B
:1017200009F4A2C0813B910509F4A1C0823B910557
:1017300009F4A0C0833B910509F49FC0843B910547
:1017400009F49EC0853B910509F49DC0863B910537
:1017500009F49CC0873B910509F49BC0883B910527
:1017600009F49AC0893B910509F499C08A3B910517
:1017700009F498C080E094E4089590650895FC0110
:10178000FF70EE0FFF1FEA58F64F85919491089570
:101790009927906C0895482F437021E030E002C0F3
:1017A000220F331F4A95E2F73C68AC0164E056957E
:1017B00047956A95E1F74370342B8F70869586952F
:1017C00060E2869FC0011124822B932B0895982FED
:1017D0008827816F906A0895482F4695469570E254
:1017E000479FA00111248370992721E030E0B901BF
:1017F00002C0660F771F8A95E2F7CB01842B952BE9
:101800009C680895982F8827846F906A08958F7137
:101810009927982F88279062089580E090E0089596
:1018200081E890E4089583E890E4089582EE94E4DA
:10183000089589EE94E408958AEE94E4089585EB82
:1018400094E4089586EB94E4089583EB94E408957A
:1018500084EB94E4089587EB94E408958CEC94E48D
:1018600008958DEC94E4089583E895E408958AE85A
:1018700095E4089582E995E4089584E995E408954E
:1018800081E296E4089583E296E4089584E296E482
:10189000089585E296E4089586E296E4089587E245
:1018A00096E408958AE296E40895089596E0799F73
:1018B000F001112494E5899FE00DF11D1124E60F3C
:1018C000F11DEE0FFF1FEA57FA4F8591949108958D
:1018D0008238910549F1B0F48133910509F458C07B
:1018E00048F48932910509F44EC08A32910509F411
:1018F00054C008958533910509F440C0893391059A
:1019000099F00895833E910529F138F4803E9105C0
:1019100091F0823E9105A1F00895863E9105F9F07F
:10192000873E910531F108952091AD0420FD3AC024
:1019300021FD38C008958091AD0480FD35C032C0CE
:101940008091AD0482FF32C08091AD0484FD30C02F
:1019500083EE39C08091AD0482FD28C0F5CF80911F
:10196000AD0483FF27C08091AD0484FD21C087EEC4
:101970002AC08091AD0483FD1DC0F5CF8091AD04D8
:1019800085FD1AC01BC08091AD0485FD17C014C031
:101990008091AD0486FD14C015C08091AD0486FD14
:1019A00011C00EC080EE0FC089E30DC082EE0BC0E7
:1019B00080E009C086EE07C089E205C085E303C068
:1019C0008AE201C081E390E0089508950F931F9388
:1019D000CF93FB012281211102C0C1E041C08C01E3
:1019E000C091EC03C11125C085319047B1F70E9429
:1019F000E50C81E08093EC030E94551C9093EB036F
:101A00008093EA031092DF031092E1031092E00347
:101A10001092E3031092E2031092E5031092E403A4
:101A20001092E7031092E6031092E9031092E80384
:101A300017C08091EA039091EB030E94611C883CDF
:101A4000910558F69091DF03E92FF0E0EE0FFF1FAC
:101A5000E052FC4F118300839F5F9093DF03C0E04F
:101A60008C2FCF911F910F91089556985E982598CD
:101A70002D9826982E9827982F988FEF90E0909386
:101A800089008093880090938B0080938A009093C4
:101A90008D0080938C00259A2D9A2FEF80E792E09D
:101AA000215080409040E1F700C00000269A2E9A15
:101AB0002FEF80E792E0215080409040E1F700C096
:101AC0000000279A2F9A2FEF80E792E02150804064
:101AD0009040E1F700C0000025982D982FEF80E797
:101AE00092E0215080409040E1F700C0000026982D
:101AF0002E982FEF80E792E0215080409040E1F750
:101B000000C0000027982F9856985E9825982D9829
:101B100026982E9827982F98089589EA8093800018
:101B200089E08093810024982C983F988AB18F7423
:101B30008AB96E98479A8BB1806B8BB9769A0E945E
:101B4000350D0C940E0980E28093E5028091ED033F
:101B500081110EC00E94610681E08093ED032FEF9A
:101B600083ED90E3215080409040E1F700C00000F9
:101B700080E40E9467068093E50281112EC00E94D6
:101B800091068093E502811128C00E9491068093FE
:101B9000E502811122C08FE30E9491068093E50245
:101BA00081111BC00E94890680E40E946706809311
:101BB000E502811112C08CE00E9491068093E5023B
:101BC00081110BC00E9491068093E502811105C02E
:101BD0008FE30E9491068093E5020E94890680911E
:101BE000E5020895282F882339F090E02A3010F478
:101BF0004D9608950697089587E290E008958091A4
:101C0000EE03813079F050F08230F1F482EE0E94E0
:101C10001E1187E50E941E1187E514C082EE0E9406
:101C20001E1112C080EE0E941E1181EE0E941E1134
:101C300088E10E941E1188E10E94F11181EE0E944C
:101C4000F11180EE0E94F1118FE39CE90197F1F709
:101C500000C0000008958091EE03813029F010F05B
:101C6000823041F482EE04C08CE20E941E118CE2AC
:101C70000C94F1110895EF92FF921F93CF93DF938D
:101C80007C01CCE0D0E097010C2E02C03695279560
:101C90000A94E2F7122F1F70812F0E94F20D0E940A
:101CA0001E11812F0E94F20D0E94F1112497CC3F4A
:101CB0008FEFD80741F7DF91CF911F91FF90EF9001
:101CC0000895CF93DF93813020E8920768F0FB01FD
:101CD0002281222349F0EC010E94FF0DCE019F7763
:101CE0000E943B0E0E942B0E81E0DF91CF91089560
:101CF000DC011D968C911D97811111C081E01D960C
:101D00008C931D971296ED91FC9113971E966D91F1
:101D10007C911F97CD010696309709F0099408959C
:101D2000FC018081813021F4FB018081918105C01B
:101D3000823029F4FB01828193810C947E090895FD
:101D4000FC018081813021F4FB018081918105C0FB
:101D5000823029F4FB01828193810C9488090895D3
:101D6000CF93DF93FC012681211121C0EC01218159
:101D70003281C901915724E0880F991F2A95E1F714
:101D8000DC01AF5FBE4F1496ED91FC9115971E9646
:101D90006D917C911F97895F9E4F309709F009954F
:101DA00018821D821F821092F0031092EF03DF91C0
:101DB000CF910895EF92FF920F931F93CF93DF93EC
:101DC0008C012091EF033091F0032115310569F06A
:101DD0002817390751F044E0220F331F4A95E1F7E5
:101DE000F901EF5FFE4081E08387C8019157FB0155
:101DF00042818F3F910511F008F04FC02091E6021B
:101E0000022E000C330B2817390714F48093E602D6
:101E10007C0194E0EE0CFF1C9A95E1F7E701CF5F9F
:101E2000DE4F4C87FB018281882309F459C0188753
:101E30000F838E818F5F8E830E94551C9A878987BE
:101E4000E881F9816E857F85C701895F9E4F309754
:101E500009F009952091EF033091F0032115310528
:101E6000B9F020173107A1F0E901D15784E0CC0F78
:101E7000DD1F8A95E1F7CE018F5F9E4F21E0FC01C7
:101E800023870E94780ECE01895F9E4F0E94B00E7C
:101E90001093F0030093EF0323C0442309F18091D2
:101EA000E6028F3FE9F0C7E0D1E000E010E0FF2458
:101EB000F3948091E602082E000C990B801791078D
:101EC0007CF08881882341F0FD82CE0106970E9434
:101ED000780ECE010E94B00E0F5F1F4F6096E9CFC3
:101EE00081E0DF91CF911F910F91FF90EF900895C6
:101EF0000F931F93CF93DF938091E6028F3F09F1F9
:101F0000C7E0D1E000E010E08091E602082E000C6E
:101F1000990B80179107ACF08881882371F08B8131
:101F20009C810E94611C8739910538F0CE0106978B
:101F30000E94780ECE010E94B00E0F5F1F4F609678
:101F4000E3CFDF91CF911F910F9108959093F60306
:101F50008093F5030895E091F503F091F60330972F
:101F600021F00190F081E02D099480E00895E09146
:101F7000F503F091F603309721F00280F381E02D14
:101F800009940895E091F503F091F603309721F05C
:101F90000480F581E02D099408952091F303309198
:101FA000F4038217930771F09093F4038093F30383
:101FB000E091F503F091F603309721F00680F78168
:101FC000E02D099408952091F1033091F2038217D6
:101FD000930771F09093F2038093F103E091F5037E
:101FE000F091F603309721F00084F185E02D0994FB
:101FF000089508950C94F90F0E944C1C0E94DD0670
:102000000C94D21CCF92DF92EF92FF920F931F930A
:10201000CF93DF93CDB7DEB72B970FB6F894DEBF23
:102020000FBECDBF0E94040788EFC82E83E0D82ED4
:1020300000E010E0E02E802F0E94F207F6014191AF
:102040006F01F42EF826B1F40F5F1F4F0E3011050B
:1020500089F78FEF89838A831B820E94551C8160D8
:10206000782F9D838C8349815A816B818D810E9459
:10207000E11040C090917A0491FF04C08B870E94C8
:10208000F8078B8520E030E04F2D50E0922FBA0109
:10209000022E02C0759567950A94E2F760FF24C08E
:1020A0002E83EF8221E030E0690102C0CC0CDD1C00
:1020B0009A95E2F790E08C219D21892B09F420E08C
:1020C00028870E94551C8160782F9A8789874E81C6
:1020D0005F8168858A850E94E110F801E850FC4F15
:1020E0008081C826C08206C02F5F3F4F2630310551
:1020F00069F6AACF0E94651E1091F7030E94AB0FEC
:102100001817A1F00E94AB0F8093F7032B960FB620
:10211000F894DEBF0FBECDBFDF91CF911F910F911D
:10212000FF90EF90DF90CF900C94C40A2B960FB6DF
:10213000F894DEBF0FBECDBFDF91CF911F910F91FD
:10214000FF90EF90DF90CF900895DC0111962C91D5
:1021500011978C91682F70E041E050E001C0440F6E
:102160008A95EAF712968C91129730E0882329F02D
:10217000809114048823E9F006C0F901EA5FFB4F5F
:1021800090819423B1F086E0829FF001839FF00D4F
:102190001124E60FF71FEE0FFF1FE650FD4F808161
:1021A00091818D939C93F901EA5FFB4F8081482BCD
:1021B00006C0F901EA5FFB4F4095808148234083C8
:1021C0000895CF93DF93CDB7DEB72B970FB6F89472
:1021D000DEBF0FBECDBF942F4F83252F5887698751
:1021E0007A878B874A855B85452B21F02F3F09F540
:1021F0009F3FF9F4DE01119686E0FD0111928A9568
:10220000E9F785E0FE01379601900D928A95E1F796
:1022100049815A816B817C818D819E810E948017CA
:102220002B960FB6F894DEBF0FBECDBFDF91CF91D6
:102230000895CE0107960E94A510DCCFCF93882386
:1022400009F4CDC0C82F823859F40E94AB0F81FD2C
:10225000C6C089E30E945A1A0E94271B89E30CC05A
:10226000833879F40E94AB0F80FDB9C083E50E94EA
:102270005A1A0E94271B83E50E949C1ACF910C9446
:10228000271B843859F40E94AB0F82FDA8C087E455
:102290000E945A1A0E94271B87E4EECF8CEF8C0F06
:1022A000813A48F48C2F0E94A720811198C08C2F6E
:1022B0000E945A1AE3CF80E28C0F883048F4C7702E
:1022C00081E001C0880FCA95EAF70E94E01AD6CFD4
:1022D0008BE58C0F833078F4C53A29F0C63A31F09B
:1022E00083E890E005C081E890E002C082E890E0D9
:1022F000CF910C94CD0F88E58C0F853108F06FC01D
:10230000C83A61F1C93A69F1CA3A71F1CB3A79F147
:10231000CC3A81F1CB3B89F1CC3B91F1CD3A99F1AB
:10232000C03BA1F1CE3AA9F1CF3AB1F1C13BB9F12D
:10233000C23BC1F1C33BC9F1C43BD1F1C53BD9F1AB
:10234000C63BE1F1C73BE9F1C83BF1F1C93BF9F10B
:10235000CA3B09F43FC080E090E03EC082EE90E0CE
:102360003BC089EE90E038C08AEE90E035C085EB46
:1023700090E032C086EB90E02FC083EB90E02CC061
:1023800084EB90E029C087EB90E026C08CEC90E0D5
:1023900023C08DEC90E020C083E891E01DC08AE866
:1023A00091E01AC082E991E017C084E991E014C07D
:1023B00081E292E011C083E292E00EC084E292E0FA
:1023C0000BC085E292E008C086E292E005C087E299
:1023D00092E002C08AE292E0CF910C94E30FCF9199
:1023E0000895882309F44BC0823859F40E94AB0F3A
:1023F00081FF45C089E30E945A1A0E94271B89E386
:102400000CC0833871F40E94AB0F80FF38C083E5A5
:102410000E945A1A0E94271B83E50E949C1A0C9462
:10242000271B843859F40E94AB0F82FF28C087E431
:102430000E945A1A0E94271B87E4EFCF9CEF980F47
:10244000913A58F390E2980F983050F4877091E0E9
:1024500001C0990F8A95EAF7892F0E94E61ADFCF0B
:102460009BE5980F933020F480E090E00C94CD0F22
:10247000885A853120F480E090E00C94E30F0895B1
:10248000882321F00E94E01A0C94271B08958823CA
:1024900021F00E94E61A0C94271B08958F929F92B8
:1024A000AF92BF92CF92DF92EF92FF920F931F9362
:1024B000CF93DF931F92CDB7DEB77C01C72EFC010F
:1024C000058102950F701281112321F069830E940A
:1024D000FD1A698169830E94531A6981882381F0FA
:1024E000112371F080E2860F883050F082E00E9464
:1024F0003C1A0E94531A91E0D82ED926698101C056
:10250000D12CEC2DE295EF70F0E0E558FF4F0C94E4
:102510007C298C2D807F0C2D0F70882311F0029563
:10252000007F1123C1F0002309F49BC180E2860FD4
:10253000883010F0611105C0802F69830E94E01A75
:1025400004C0802F69830E94F01A698169830E9408
:10255000271B698186C1862F69830E94F1116981D9
:10256000002309F4CCC180E2860F883010F061119D
:1025700004C0802F0E94E61A03C0802F0E94F61A22
:102580000E94271BBCC19C2D907F8C2D8F70903298
:1025900011F08295807F662319F06130B1F01EC082
:1025A000112349F0002309F414C1013009F011C1CD
:1025B0000E94101BA4C1002319F0013009F49FC12F
:1025C00089830E94131B89810AC1112321F00230E3
:1025D00008F095C1FEC0011192C101C1112321F083
:1025E000002309F4F6C03DC1002309F4F8C03FC13F
:1025F0008C2D86958695837090E0009719F0019751
:1026000061F07DC1112321F0862F9C2D937002C0B3
:1026100080E090E00E94CD0F72C1112321F0862F3F
:102620009C2D937002C080E090E00E94E30F67C190
:10263000862F112319F00E946D1D02C00E94D51D26
:102640000E945A1E5CC18C2D837009F052C011117A
:1026500056C1862F829586958770880F880F962F92
:102660009F70892E912CA12CB12C082E04C0880CAF
:10267000991CAA1CBB1C0A94D2F764FF14C00FE07B
:1026800010E020E030E0B901A80104C0440F551F5C
:10269000661F771F8A95D2F7CB01BA0160957095B6
:1026A0008095909503C060E070E0CB012C2D2695BD
:1026B0002695237030E02230310569F02330310552
:1026C00089F0682979298A299B292130310571F0FF
:1026D0000E94C81814C1682979298A299B290E9457
:1026E000E4180DC10E94C818C501B4010E94AC18BD
:1026F00006C1112319F08C2D817001C086958823A5
:1027000009F4FDC0862F829586958770880F880F03
:10271000962F9F70892E912CA12CB12C082E04C0CD
:10272000880C991CAA1CBB1C0A94D2F764FF14C025
:102730000FE010E020E030E0B901A80104C0440F30
:10274000551F661F771F8A95D2F7CB01BA01609596
:1027500070958095909503C060E070E0CB012C2DC2
:10276000269526952370422F50E04230510569F09E
:102770004330510589F0682979298A299B294130FC
:10278000510571F00E94A219BAC0682979298A29D5
:102790009B290E94BE19B3C00E94A219C501B401B1
:1027A0000E948619ACC0862F90E0FC01E05EF10922
:1027B000E531F10508F051C0E557FF4F0C947C2935
:1027C000062F0F708C2D8F71112331F00E941F196D
:1027D000802F0E94401293C00E944019802F0E94B7
:1027E00047128DC0112339F0011189C08C2D8F71D2
:1027F0000E94651984C0023008F081C0F7CF112310
:1028000039F08C2D8F710E941F1979C01123C9F3E3
:102810008C2D8F710E94401972C0112329F08C2DCC
:102820008F710E940A196BC00E94001968C01123A1
:1028300051F01C2D1F71812F0E941F1963E0812F01
:102840000E94331A5CC081E00E943C1A023008F4F6
:1028500056C082E00E943C1A52C0112331F000237E
:1028600081F2862F0E941E114AC0002389F2862F12
:102870000E94F11144C04C2D4F70C7010E94950871
:102880000E9424183CC0623F99F128F4603F49F04F
:10289000613FE1F020C0643FA1F050F0653F59F086
:1028A0001AC0112339F19091140481E0892706C0E0
:1028B00081E018271DC011111DC081E08093140410
:1028C00019C0111117C01092140414C0002381F014
:1028D000111110C0E8CF002359F0862F698311230E
:1028E00019F00E941E1102C00E94F111698102C0FC
:1028F000109314044C2D4F70C7010E94550CDD201D
:10290000F1F00E942F1A80FD1AC0F70112820E9476
:10291000291A0E941F19C7010E94AD140E94291A8A
:102920000F90DF91CF911F910F91FF90EF90DF906B
:10293000CF90BF90AF909F908F900C9440190F90C4
:10294000DF91CF911F910F91FF90EF90DF90CF908B
:10295000BF90AF909F908F9008950F931F93CF9348
:10296000DF93EC01888199812B813C81232BB9F085
:102970009F3F11F48F3F99F0CE010E94AF09882349
:1029800071F0688179818A810E94251A8C010E94E8
:10299000DA190E94A118B801CE010E944E12DF91EF
:1029A000CF911F910F9108950E94FD1A0E940D1B57
:1029B0000E94D21A0E94271B0E940A1F0E945A1EC0
:1029C00080E090E00E94CD0F80E090E00C94E30F57
:1029D0000E94ED1A0C94D4140E941A1AE92FE29561
:1029E000EF70F0E03297EE30F105B0F4E056FF4FB3
:1029F0000C947C29803F91F018F4803E68F40EC05E
:102A0000843F51F40BC0803E48F0813F29F406C05A
:102A100093FB882780F9089580E0089581E0089568
:102A2000CF93DF9300D000D01F92CDB7DEB70F90C9
:102A30000F900F900F900F90DF91CF910895CF934B
:102A4000DF9300D000D000D0CDB7DEB726960FB60A
:102A5000F894DEBF0FBECDBFDF91CF9108951F93D5
:102A6000CF93DF93C091150416E080911604C81728
:102A700099F0D0E01C9FF0011D9FF00D1124E95E3C
:102A8000FB4F4081518162817381848195810E94D5
:102A90001F152196C770E9CFDF91CF911F9108953F
:102AA00040914704509148046091490470914A0450
:102AB00080914B0490914C040C941F1580914C0410
:102AC00082958F7009F054C080914904882309F4DD
:102AD0004FC080911504A091160460914704709135
:102AE000480440914A0450914B04B6E08A1709F417
:102AF0003FC090E041155105C1F17F3F11F46F3F98
:102B0000A1F1B89FF001B99FF00D1124E95EFB4FD0
:102B1000218172132AC02081621327C022812111D2
:102B200024C0238134812417350710F42150310942
:102B3000241B350B26393105C0F420914C042F702D
:102B4000206120934C0426E0289FF001299FF00D7E
:102B50001124E45EFB4F80818F708061808387E465
:102B600094E00E94AD140C942F1501968770BECF8F
:102B70000895CF92DF92EF92FF920F931F93CF931E
:102B8000DF93CDB7DEB762970FB6F894DEBF0FBE06
:102B9000CDBF8C0185E0F801DE011D9601900D92FC
:102BA0008A95E1F7D8014C9111965C911197129694
:102BB0006C9112971396CD90DC9014973091470446
:102BC0007091480480914A0490914B04009709F455
:102BD0006BC17F3F19F43F3F09F466C1E09049049F
:102BE000EE2009F4C0C020914C04C816D90628F084
:102BF000F601E81BF90BCF0104C0809590958C0D70
:102C00009D1DFF24F3948639910578F0F12C207FE7
:102C100009F0C6C07C2DD98AC88A89890E941015FE
:102C200087E494E00E94AD14B1C0822F807F09F048
:102C300046C0751314C0341312C0611110C02F7038
:102C4000206120934C040E94501587E494E00E9478
:102C5000AD1480914C04D80115968C932EC0CD28CC
:102C600019F15F3F11F44F3FF9F0F62E61111CC0CE
:102C7000809115042091160436E0821709F45AC099
:102C800090E0389FF001399FF00D1124E95EFB4F71
:102C90007181571306C07081471303C0728171118F
:102CA00003C001968770E9CFF62E662309F418C198
:102CB00080914C04816080934C04F12C11C17513F8
:102CC00008C0341306C0611104C080914C04D801BF
:102CD000C3C04D875E878D859E856A8B0E94EC14EC
:102CE0006A898823E1F16623D1F120914C04822F77
:102CF00082958F7090E0029774F0809147049091D4
:102D0000480498878F831986DB86CA862C87CE0174
:102D100007960E94AD1486E0F801A7E4B4E00190A4
:102D20000D928A95E1F70E945E150E945015FF24CE
:102D3000F394D6C04D875E878D859E850E941A1AB2
:102D4000292F22952F7030E0223031050CF0BCC0C5
:102D50009F7009F0B6C0805E883008F4C1C0C80119
:102D60000E94AD14E4CFC816D90608F453C0F6018A
:102D7000E81BF90BCF018639910508F450C0F12CFE
:102D80007C2DD98AC88A89890E941015E7E4F4E06D
:102D900086E0DF011D928A95E9F70E945015A0C0D8
:102DA000751314C0341312C0611110C080914C040B
:102DB000F8018583C8010E94AD1486E0E7E4F4E0E1
:102DC000DF011D928A95E9F7FE2C8AC04D875E8748
:102DD0008D859E856A8B0E94EC146A89882309F48C
:102DE000BECF662309F4BBCF20914C04822F82957D
:102DF0008F7090E002970CF48ECF809147049091F1
:102E000048049A8389831B82DD82CC822E83CE0183
:102E100001967FCF809590958C0D9D1DACCFF62EA1
:102E2000662309F49CCF75132EC034132CC0209157
:102E30004C0420FD1FC0822F82958F70D9F0D801DD
:102E400015962C9315978F3049F08F5F982F929598
:102E5000907F822F8F70892B15968C93C8010E94CA
:102E6000AD1486E0F801A7E4B4E001900D928A95D4
:102E7000E1F793CF86E0F801A7E4B4E001900D926A
:102E80008A95E1F72DC04D875E878D859E850E94CE
:102E9000EC14811140CF80914C04816080934C04EC
:102EA000C8010E94AD141CC0662309F458CF4D8799
:102EB0005E878D859E850E94EC14882309F44FCF90
:102EC0002ACF811148CF0CC0243031050CF047CFF8
:102ED0009F7009F440CFF8019581907F09F03BCFB6
:102EE0008F2D62960FB6F894DEBF0FBECDBFDF9177
:102EF000CF911F910F91FF90EF90DF90CF900895A9
:102F00001F93CF93DF93CDB7DEB72C970FB6F8940E
:102F1000DEBF0FBECDBF4F83588769877A878B8707
:102F20009C87CE0107960E94B915882369F08F818E
:102F300098852A853B85232BF1F19F3F09F063C0DB
:102F40008F3F09F060C037C086E0FE013796DE0192
:102F5000119601900D928A95E1F76F817885EA8547
:102F6000FB85309741F17F3F11F46F3F21F12091B4
:102F7000160430E0C9010196877099274091150425
:102F800050E08417950709F447C069837A83FD836D
:102F9000EC8396E0929FD001939FB00D1124A95E1F
:102FA000BB4FFE01319601900D929A95E1F7809307
:102FB00016040E942F1516E08091150490911604B6
:102FC0008917C1F1189FC0011124895E9B4F0E948F
:102FD000B915882379F1E09115041E9FF0011124A1
:102FE000E95EFB4F408151816281738184819581CB
:102FF0000E941F158091150490E001968770992713
:1030000080931504D9CF4F81588569857A858B8542
:103010009C850E941F15CFCF0E94E81410921604C1
:1030200010921504E7E4F4E086E0DF011D928A9532
:10303000E9F7C1CF2C960FB6F894DEBF0FBECDBF17
:10304000DF91CF911F910895EF92FF920F931F93FD
:10305000CF93DF938C01892B09F46CC0F12CEE2403
:10306000E394E8012196F8018491843740F4843098
:1030700008F051C0813081F0823019F15BC0853792
:1030800009F444C0A8F19CE7980F903708F052C0AB
:103090008F770E94F11141C00E5F1F4FFE01C49156
:1030A00080E28C0F883048F4C7708E2D01C0880FE5
:1030B000CA95EAF70E94001B14C08C2F0E941E11B3
:1030C0002DC00E5F1F4FFE01C49180E28C0F88302F
:1030D00058F4C7708E2D01C0880FCA95EAF70E9478
:1030E000061B0E94271B1AC08C2F0E94F11116C0CC
:1030F0000E5F1F4FFE01C491CC2381F08FE99FE04A
:103100000197F1F700C00000C150F6CF0E5F1F4FCE
:10311000FE01F49003C00E941E118E018F2D8823A2
:1031200009F49FCFEFE9FFE03197F1F700C000000D
:103130008150F5CFDF91CF911F910F91FF90EF90CC
:10314000089508956093510470935204809353043A
:10315000909354040C94D4140F931F930091510432
:10316000109152042091530430915404DC01CB019E
:10317000802B912BA22BB32B80935104909352045C
:10318000A0935304B09354041F910F910C94D41442
:103190000F931F93009151041091520420915304F6
:1031A00030915404DC01CB0180239123A223B3236B
:1031B0008093510490935204A0935304B093540409
:1031C0001F910F910C94D4140F931F9300915104ED
:1031D000109152042091530430915404DC01CB012E
:1031E00080279127A227B3278093510490935204FC
:1031F000A0935304B09354041F910F910C94D414D2
:1032000010924D0410924E0410924F0410925004EC
:103210000C94D41441E050E060E070E004C0440F2E
:10322000551F661F771F8A95D2F740934D04509320
:103230004E0460934F04709350040C94D41441E0F6
:1032400050E060E070E004C0440F551F661F771F18
:103250008A95D2F780914D0490914E04A0914F042D
:10326000B0915004482B592B6A2B7B2B40934D0473
:1032700050934E0460934F04709350040C94D414F4
:1032800041E050E060E070E004C0440F551F661F4D
:10329000771F8A95D2F740955095609570958091EB
:1032A0004D0490914E04A0914F04B09150044823D6
:1032B00059236A237B2340934D0450934E0460931B
:1032C0004F04709350040C94D41441E050E060E03B
:1032D00070E004C0440F551F661F771F8A95D2F710
:1032E00080914D0490914E04A0914F04B0915004F0
:1032F000482759276A277B2740934D0450934E0453
:1033000060934F04709350040C94D4140F931F9344
:1033100000914D0410914E0420914F0430915004BF
:10332000DC01CB01802B912BA22BB32B80934D047E
:1033300090934E04A0934F04B09350041F910F91AB
:103340000C94D4140F931F9300914D0410914E04CC
:1033500020914F0430915004DC01CB018023912354
:10336000A223B32380934D0490934E04A0934F0463
:10337000B09350041F910F910C94D4140F931F938A
:1033800000914D0410914E0420914F04309150044F
:10339000DC01CB0180279127A227B32780934D041E
:1033A00090934E04A0934F04B09350041F910F913B
:1033B0000C94D4140895CF92DF92EF92FF920F9362
:1033C0001F93CF93DF938C01C0905104D09052048F
:1033D000E0905304F090540480914D0490914E0479
:1033E000A0914F04B0915004C82AD92AEA2AFB2A96
:1033F000CFE1D0E0D701C6010C2E04C0B695A79549
:10340000979587950A94D2F780FF06C0B8018C2F54
:103410000E94C60A019721F4219760F780E001C05D
:103420008C2FDF91CF911F910F91FF90EF90DF9044
:10343000CF900895CF93DF93EC010E94DB19BE017A
:103440000E94C60ADF91CF910895CB010E941A1AFB
:103450000895809155048595859585950895809169
:1034600055048770089598E0899F90011124262BB8
:10347000209355040C941F192091550480958223A4
:1034800080935504982F977069F430E0482F082EE8
:10349000000C550B2417350729F0859585958595E2
:1034A0000C944019089590915504977081E009F4A7
:1034B00080E008959091F902992321F09091AD0454
:1034C00097FD09C02091E7023091E802F901329698
:1034D0009FEF40E01FC0982F9695969596959F3147
:1034E00050F5E091E702F091E802E90FF11D8770D5
:1034F00021E030E0A90102C0440F551F8A95E2F790
:10350000CA019181892B818308959F3F39F04F5FD4
:103510004E3141F051915813F8CF0DC05111F7CFF2
:10352000942FF5CF9F3F39F0F901E90FF11D97FD79
:10353000FA958283089508959091F902992321F0D4
:103540009091AD0497FD09C02091E7023091E80207
:10355000F9013296205E3F4F1FC0982F96959695A1
:1035600096959F31F0F4E091E702F091E802E90FBF
:10357000F11D877021E030E0A90102C0440F551F02
:103580008A95E2F7CA018095918189238183089504
:103590003196E217F30729F090819813F9CF108242
:1035A000F7CF089581E090E0E091E702F091E80222
:1035B000E80FF91F1082019680329105A9F708954E
:1035C00090917904892B8093790408958095909146
:1035D00079048923809379040895109279040895D9
:1035E00090917804892B8093780408958095909128
:1035F00078048923809378040895109278040895BC
:1036000090917704892B8093770408958095909109
:10361000770489238093770408951092770408959E
:103620008093560408951092560408958091E702FD
:103630009091E802FC0131969C01205E3F4F80E0B2
:10364000919191118F5FE217F307D1F70895E091FF
:10365000E702F091E802809179048083E091E7022B
:10366000F091E802908180917804892B8083E09129
:10367000E702F091E802908180917704892B8083A2
:1036800080915604882361F0E091E702F091E8020E
:103690009081892B80830E94161B81111092560401
:1036A0008091E7029091E8020C94B70FCF92DF92DD
:1036B000EF92FF926C01EE24FF24C114D104E104C7
:1036C000F10421F0C701B60120E101C020E0C72EBE
:1036D000D82EE92EFF24C114D104E104F10419F01D
:1036E000285FC701B6016B017C0154E0F694E794B2
:1036F000D794C7945A95D1F7C114D104E104F104C9
:1037000019F02C5FC701B6016B017C0142E0F69411
:10371000E794D794C7944A95D1F7C114D104E10432
:10372000F10419F02E5FC701B601DC01CB01B6959B
:10373000A79597958795892B8A2B8B2B09F02F5F5F
:10374000822FFF90EF90DF90CF9008956DEE7EEF87
:1037500080E090E00E94B62960E082E090E00E9464
:10376000A42960E083E090E00E94A42960E084E066
:1037700090E00E94A42960E085E090E00C94A429E8
:1037800080E090E00E949E2921E08D3E9E4F09F04E
:1037900020E0822F089582E090E00C94962983E047
:1037A00090E00C94962984E090E00C949629682F80
:1037B00084E090E00C94A4298091B304843039F122
:1037C00010927B0420E488E190E00FB6F894A8956D
:1037D000809360000FBE2093600080E00E94C40AC6
:1037E00083B7817F846083BF83B7816083BF789410
:1037F000889583B78E7F83BF0FB6F894A895809184
:103800006000886180936000109260000FBE089590
:103810000895CF930E94F1060E9404070E94081C9D
:10382000C0E08C2F0E94F207811104C0CF5FCE3020
:10383000C1F701C081E0CF9108950E94E8140E9471
:10384000AB0F0C94C40A1F920F920FB60F92112463
:103850008F939F93AF93BF9380917B04811113C08B
:1038600080917C0490917D04A0917E04B0917F04AE
:103870004196A11DB11D80937C0490937D04A0937B
:103880007E04B0937F04BF91AF919F918F910F9071
:103890000FBE0F901F90189582E084BD93E095BDF8
:1038A0009AEF97BD80936E0008952FB7F89480919A
:1038B0007C0490917D04A0917E04B0917F042FBF81
:1038C0000895CF92DF92EF92FF920F931F932FB73D
:1038D000F89440917C0450917D0460917E04709135
:1038E0007F042FBF6A017B01EE24FF248C0120E0BE
:1038F00030E0C016D106E206F30610F4415051093B
:103900009A01281B390BC9011F910F91FF90EF906D
:10391000DF90CF9008951F920F920FB60F9211244F
:103920008F939F93AF93BF9380917C0490917D047C
:10393000A0917E04B0917F040196A11DB11D8093DA
:103940007C0490937D04A0937E04B0937F04BF9188
:10395000AF919F918F910F900FBE0F901F90189570
:103960000E943925F8942FEF87EA91E62150804094
:103970009040E1F700C0000087E090EBDC0180930D
:10398000BC049093BD04A093BE04B093BF049CE01C
:1039900088E10FB6F894A895809360000FBE9093CD
:1039A0006000FFCF0E94C01B811102C00E94A61BB5
:1039B0000E94CB1B80937A040E94D31B90E09093CB
:1039C000AE048093AD040E94CF1B682F70E080E0AE
:1039D00090E00C94A2188091820480FF0BC060914B
:1039E000EC0285E0689FB001112475956795759587
:1039F00067952BC081FF09C06091EC0285E0689F4C
:103A0000B00111247595679520C082FF07C06091B1
:103A1000EC0285E0689FB001112417C090918304E7
:103A20009923D1F06091EB02961788F72091EC0270
:103A300085E0289F90011124929FA001939F500D33
:103A4000112470E0CA010E9468296038710540F4B1
:103A50006115710539F002C065E070E0862F0895A8
:103A60008FE7089581E008958091820480FF08C067
:103A70006091EA0270E0759567957595679521C02C
:103A800081FF06C06091EA0270E07595679519C0E4
:103A900082FF04C06091EA0270E010C0909183043C
:103AA0009923C1F06091E9029617A0F78091EA028C
:103AB000899FC001112470E00E9468296038710557
:103AC00028F46115710521F0862F08958FE7089578
:103AD00081E0089561E070E0F4CF803F21F40E941E
:103AE000EB1C819504C0813F29F40E94EB1C80935C
:103AF00086040895823F21F40E94EB1C819504C046
:103B0000833F29F40E94EB1C809385040895893F2C
:103B100019F40E94341D05C08A3F31F40E94341DFF
:103B200081958093870408958B3F21F40E94341D72
:103B3000819504C08C3F29F40E94341D8093880431
:103B40000895843F21F480918404816017C0853FEB
:103B500021F480918404826011C0863F21F4809119
:103B6000840484600BC0873F21F4809184048860C2
:103B700005C0883F31F4809184048061809384047F
:103B800008958D3F21F48091820481600BC08E3FA7
:103B900021F480918204826005C08F3F29F48091D6
:103BA00082048460809382040895803F39F4809178
:103BB000860487FF6CC01092860469C0813F29F497
:103BC000809186041816BCF362C090918504823FF0
:103BD00029F497FF5CC01092850459C0833F19F403
:103BE0001916CCF354C0893F41F48091870418160C
:103BF0000CF04DC0109287044AC08A3F29F480918E
:103C0000870487FF44C0F6CF8B3F39F48091880446
:103C100087FF3DC0109288043AC08C3F29F4809100
:103C200088041816BCF333C0843F21F480918404C7
:103C30008E7F17C0853F21F4809184048D7F11C051
:103C4000863F21F4809184048B7F0BC0873F21F451
:103C500080918404877F05C0883F31F4809184047B
:103C60008F7E8093840413C08D3F21F48091820461
:103C70008E7F0BC08E3F21F4809182048D7F05C022
:103C80008F3F29F4809182048B7F809382048091FE
:103C9000850481110EC08091860481110AC0809133
:103CA0008704811106C080918804811102C010929E
:103CB0008304089584E894E00E94C20F0E94551C7A
:103CC000909381048093800408951F93CF93DF9392
:103CD00080918004909181040E94611CAC019091BC
:103CE0008304992321F02091ED0230E006C0209159
:103CF000EE028AE0289F900111244217530708F42E
:103D000085C080918504C0918604D091870410916C
:103D10008804811107C0C11175C0D11173C0111180
:103D200071C074C09F3F19F09F5F90938304181671
:103D300024F40E94EB1C809385048091850487FF06
:103D400005C00E94EB1C8195809385041C1624F409
:103D50000E94EB1C809386048091860487FF05C037
:103D60000E94EB1C819580938604609185046623F4
:103D700031F1C0918604CC2311F1062E000C770B93
:103D8000880B990B0E946F2823E333E343E35FE33F
:103D90000E94D3280E943728609385046C2FCC0F93
:103DA000770B880B990B0E946F2823E333E343E3DF
:103DB0005FE30E94D3280E943728609386041D1673
:103DC00024F40E94341D809387048091870487FF28
:103DD00005C00E94341D819580938704111624F438
:103DE0000E94341D809388048091880487FF05C059
:103DF0000E94341D819580938804DF91CF911F919B
:103E00000C945A1E9F3F09F08FCF97CFDF91CF912F
:103E10001F910895E4E8F4E085E0DF011D928A95A2
:103E2000E9F710928304109282040895833081F19F
:103E300028F4813059F08230D1F00895853009F4AA
:103E400049C0B8F1863009F456C008958091EE0259
:103E5000262F30E0280F311D2F3F310524F4680F45
:103E60006093EE0208958FEF8093EE0208958091A3
:103E7000ED02262F30E0280F311D2F3F310524F4AD
:103E8000680F6093ED0208958FEF8093ED0208951F
:103E90008091EC02262F30E0280F311D2F3F310595
:103EA00024F4680F6093EC0208958FEF8093EC0286
:103EB00008958091EB02262F30E0280F311D2F3F0F
:103EC000310524F4680F6093EB0208958FEF80931F
:103ED000EB0208958091EA02262F30E0280F311D71
:103EE0002F3F310524F4680F6093EA0208958FEFA5
:103EF0008093EA0208958091E902262F30E0280F8E
:103F0000311D2F3F310524F4680F6093E9020895B5
:103F10008FEF8093E9020895833011F128F4813006
:103F200049F0823091F00895853081F120F186309A
:103F3000C1F108958091EE02681720F4861B8093EA
:103F4000EE0208951092EE0208958091ED02681736
:103F500020F4861B8093ED0208951092ED020895DF
:103F60008091EC02681720F4861B8093EC02089580
:103F70001092EC0208958091EB02681720F4861BE2
:103F80008093EB0208951092EB0208958091EA026B
:103F9000681720F4861B8093EA0208951092EA02C3
:103FA00008958091E902681720F4861B8093E90246
:103FB00008951092E90208950F931F93873208F035
:103FC0004DC08E3108F095C0803109F47FC008F5EE
:103FD000873009F46BC068F4863009F0A5C0809181
:103FE0007A04817F8E7F80937A0481E080938A04B3
:103FF0009CC08B3009F491C08E3009F095C080913F
:104000007A0482FB222720F991E0922790FB82F923
:1040100066C0863109F481C088F4813109F084C01A
:104020000E94E8148091AD0487FB222720F991E0DB
:10403000922790FB87F98093AD046FC0893109F412
:104040006CC08B3109F070C080917A0481FB22270B
:1040500020F991E0922790FB81F941C0883309F45F
:104060005CC050F4893209F45AC0853309F457C052
:10407000873209F454C058C0833409F450C028F47E
:104080008A3308F451C0895335C0883409F04CC0D4
:104090000E94E8140FEF13ED20E301501040204080
:1040A000E1F700C000000E94B01C37C090917A0474
:1040B000892F8095817080FB90F990937A048823F2
:1040C00061F19660986090937A042FC080917A0491
:1040D00083FB222720F991E0922790FB83F98093BC
:1040E0007A049923D1F080917A04816080937A04D4
:1040F00014C08D5141E050E060E070E08A019B0106
:1041000004C0000F111F221F331F8A95D2F7C90167
:10411000B8010E94A2180E94E81481E006C061E084
:1041200070E080E090E0F5CF80E01F910F9108955E
:1041300080E0089580E008958E518A3030F4E82FB1
:10414000F0E0EE55FC4F8081089580E00895CF9314
:10415000C82F80918A04813079F018F08230E9F11B
:1041600086C0E091E702F091E8028081813169F038
:10417000823209F07EC009C0E091E702F091E802C6
:104180008081813111F0823261F48C2F0E9498205D
:10419000811104C08C2F0E94DC1F1DC081E090E0C3
:1041A0001AC08C2F0E949A20811114C0C43179F05A
:1041B00048F4CB3079F0C03109F05FC082E08093E1
:1041C0008A0408C0C93219F0C83321F056C01092D1
:1041D0008A0453C081E0817052C0C93281F110F568
:1041E000C43169F1A8F4C73009F045C08AE0809372
:1041F000EE0294E19093ED0293E09093EC028093B1
:10420000EB0288E08093EA0288E28093E90233C0FF
:1042100082EE8C0F863078F58C2F0E949C20809344
:10422000890429C0CE34E9F020F4CB3421F56AE0CA
:1042300013C0C13579F0C235F1F461E00DC0809151
:104240008904882319F01092890415C081E08093B5
:104250008A0415C061E006C0809189040E94161F7F
:104260000AC06AE0809189040E948C1F04C01092E9
:104270008A0480E004C081E002C080E0ACCFCF912E
:1042800008958091AB040895CF93DF9300D01F92DF
:10429000CDB7DEB79C018091B304843019F593E06B
:1042A00099833B832A839093E9008FEF9091E800F4
:1042B000815095FD06C095ED9A95F1F700008111AA
:1042C000F5CF8091E80085FF0DC040E050E063E04D
:1042D00070E0CE0101960E94A4238091E8008E77C1
:1042E0008093E8000F900F900F90DF91CF91089589
:1042F000CF93DF9300D01F92CDB7DEB72091B304E8
:10430000243021F522E029839B838A8383E08093F4
:10431000E9008FEF9091E800815095FD06C095ED82
:104320009A95F1F700008111F5CF8091E80085FFA3
:104330000DC040E050E063E070E0CE0101960E94C5
:10434000A4238091E8008E778093E8000F900F906F
:104350000F90DF91CF9108952091B3042430F1F4B0
:1043600022E02093E9002FEF3091E800215035FD45
:1043700006C035ED3A95F1F700002111F5CF2091F7
:10438000E80025FF0BC040E050E065E070E00E94CF
:10439000A4238091E8008E778093E8000895CF935E
:1043A000DF93EC019091B304943009F046C0809102
:1043B000F9028823D9F08091AD0487FF17C090934C
:1043C000E9008FEF9091E800815095FD06C095E1DE
:1043D0009A95F1F700008111F5CF8091E80085FFF3
:1043E0002CC040E050E060E270E017C081E08093B4
:1043F000E9008FEF9091E800815095FD06C095EDA2
:104400009A95F1F700008111F5CF8091E80085FFC2
:1044100014C040E050E068E070E0CE010E94A423A8
:104420008091E8008E778093E80080E2FE01ABE89F
:10443000B4E001900D928A95E1F7DF91CF91089554
:104440008091B204811109C00E9439250E949625ED
:104450008091E20084608093E20008951092B2049B
:104460000895089508950C941D1C42E061EC81E0CC
:104470000E94B32442E061EC82E00E94B32442E057
:1044800061EC83E00E94B32442E261EC84E00C948E
:10449000B3248091B504833009F455C030F48130E1
:1044A00071F0823009F48EC008958A3009F47AC020
:1044B0008B3009F460C0893009F09CC020C0809125
:1044C000B404813A09F096C08091E800877F809318
:1044D000E8008091B8049091B904892B21F460E23E
:1044E0008BE894E003C060E080E090E070E00E9420
:1044F000EF238091E8008B778093E8000895809106
:10450000B404813209F076C08091B8049091B90466
:10451000009719F0039709F06DC08091E800877F3C
:104520008093E8008091E80082FD05C08091B3048B
:104530008111F8CF5FC08091F1008093AB0480912E
:10454000E8008B7753C08091B404813A09F052C0DF
:104550008091B8049091B904892B09F04BC08091E7
:10456000E800877F8093E8008091E80080FFFCCF1F
:104570008091F90236C08091B4048132D9F58091DE
:10458000B8049091B904892BA9F58091E800877F40
:104590008093E8000E94E8248091B6048093F90299
:1045A0000C94E8148091B404813221F58091E800E4
:1045B000877F8093E8000E94E8248091B70480936D
:1045C000AC0408958091B404813AA1F48091E8008C
:1045D000877F8093E8008091E80080FFFCCF809186
:1045E000AC048093F1008091E8008E778093E8001E
:1045F0000C94E824089584B7877F84BF0FB6F8949D
:10460000A89580916000886180936000109260009E
:104610000FBE80E880936100109261000E94FA0F43
:104620000E9439250E9496258091E2008460809343
:10463000E20078940E941C280E94FC0F8FEE92E00A
:104640000E94A60F8091B304853069F40E94DC1BA0
:104650008091B1048823B1F30E94091C882391F34F
:104660000E948E23EFCF0E940210ECCF292F332718
:1046700023303105C9F064F42130310581F0223056
:10468000310509F043C08DE690E024EB3AE042C0EA
:1046900021323105F1F02232310541F137C082E19A
:1046A00090E021E23BE036C099278130910541F04E
:1046B0008230910541F0892B49F5E0EBFAE005C025
:1046C000E8E9FAE002C0E0E8FAE0849190E09F01B6
:1046D00021C06430D8F4E62FF0E0EE0FFF1FE8545D
:1046E000FC4F2081318189E090E014C0643070F487
:1046F00070E0FB01EE0FFF1FE055FC4F2081318180
:10470000FB01E455FC4F808190E004C080E090E024
:1047100020E030E0FA0131832083089580E189BDF3
:1047200082E189BD09B400FEFDCF8091D8008F7D64
:104730008093D8008091E00082608093E0008091B7
:10474000E00081FDFCCF0895CF92DF92EF92FF92BF
:104750000F931F93CF93DF93EC018B016A010E94AB
:104760000725811133C0C114D10439F0F6018081CD
:104770009181081B190BC80FD91FE12CF12C0115D1
:10478000110519F18091E80085FD16C08091E800BF
:104790008E778093E800C114D10449F0F60180813E
:1047A0009181E80EF91EF182E08285E00FC00E943F
:1047B0000725882321F30AC089918093F1000150D5
:1047C0001109FFEFEF1AFF0ADACF80E0DF91CF91F6
:1047D0001F910F91FF90EF90DF90CF90089520915F
:1047E000BA043091BB042617370748F061157105EC
:1047F00039F42091E8002E772093E80001C0B90138
:1048000040E061157105A9F12091B304222309F458
:1048100043C0253009F442C02091E80023FD40C088
:104820002091E80022FD32C02091E80020FFE9CF6E
:104830004091F3002091F20030E0342BFC01CF01D5
:104840006115710559F02830310540F4819180934C
:10485000F100615071092F5F3F4FF1CF41E02830E7
:10486000310509F040E02091E8002E772093E80020
:10487000C8CF4111C9CF0AC08091B304882361F029
:10488000853061F08091E80083FD0AC08091E800E6
:1048900082FFF2CF80E0089582E0089583E00895DA
:1048A00081E008952091BA043091BB0426173707A0
:1048B00048F06115710539F42091E8002E772093B6
:1048C000E80001C0B901FC0120E06115710591F11A
:1048D0008091B304882309F440C0853009F43FC0B7
:1048E0008091E80083FD3DC08091E80082FD2FC0EB
:1048F0008091E80080FFE9CF2091F3008091F200E1
:1049000090E0922B6115710559F08830910540F4C3
:1049100024912093F1003196615071090196F2CFF4
:1049200021E0089709F020E08091E8008E778093DD
:10493000E800CBCF2111CCCF0AC08091B3048823EB
:1049400061F0853061F08091E80083FD0AC08091BC
:10495000E80082FFF2CF80E0089582E0089583E0CE
:10496000089581E00895982F973058F59093E900C5
:10497000981739F07091EC002091ED005091F00003
:1049800003C0242F762F50E021FF19C03091EB0097
:104990003E7F3093EB003091ED003D7F3093ED0092
:1049A0003091EB0031603093EB007093EC0020937A
:1049B000ED005093F0002091EE0027FF07C09F5FAD
:1049C000D3CF8F708093E90081E0089580E008954F
:1049D0008091B40487FF11C08091E80082FD05C07A
:1049E0008091B3048111F8CF11C08091E8008B77DA
:1049F0000BC08091B304882349F08091E80080FFC8
:104A0000F8CF8091E8008E778093E8000895209198
:104A1000E4003091E50095E64091EC00842F817030
:104A200040FF22C08091E80080FD1CC08091B3044B
:104A3000882391F0853091F08091EB0085FD10C0C6
:104A40004091E4005091E5004217530729F39A0181
:104A5000915011F784E0089582E0089583E008956D
:104A600081E0089580E008954091E80042FFDECFA4
:104A700008950E94A7250E94AF25E0EEF0E0808116
:104A800081608083E8EDF0E080818F77808319BCBE
:104A9000A7EDB0E08C918E7F8C9380818F7E808398
:104AA0001092B20408950F931F93CF93DF930E9447
:104AB000A7250E94AF25C8EDD0E088818F77888335
:104AC00088818068888388818F7D888319BC109253
:104AD000B3041092AF041092B1041092B00400EE2F
:104AE00010E0F80180818B7F8083888181608883DA
:104AF00042E060E080E00E94B324E1EEF0E08081DB
:104B00008E7F8083E2EEF0E080818160808380810F
:104B100088608083F80180818E7F808388818061B6
:104B20008883DF91CF911F910F910895E8EDF0E018
:104B300080818F7E8083E7EDF0E0808181608083DB
:104B400084E082BF81E08093B2040C945325E8EDA9
:104B5000F0E080818E7F80831092E20008951092B1
:104B6000DA001092E10008951F920F920FB60F9293
:104B700011242F933F934F935F936F937F938F9362
:104B80009F93AF93BF93EF93FF938091E10082FFD8
:104B90000BC08091E20082FF07C08091E1008B7F13
:104BA0008093E1000E941B288091DA0080FF1FC0E3
:104BB0008091D80080FF1BC08091DA008E7F8093A7
:104BC000DA008091D90080FF0DC080E189BD82E1CB
:104BD00089BD09B400FEFDCF81E08093B3040E943B
:104BE000202205C019BC1092B3040E942E2280918D
:104BF000E10080FF19C08091E20080FF15C0809124
:104C0000E2008E7F8093E2008091E20080618093D9
:104C1000E2008091D80080628093D80019BC85E0C2
:104C20008093B3040E9432228091E10084FF30C05F
:104C30008091E20084FF2CC080E189BD82E189BDC2
:104C400009B400FEFDCF8091D8008F7D8093D800FD
:104C50008091E1008F7E8093E1008091E2008F7E61
:104C60008093E2008091E20081608093E200809175
:104C7000AF04882311F084E007C08091E30087FD32
:104C800002C081E001C083E08093B3040E9433221C
:104C90008091E10083FF29C08091E20083FF25C05D
:104CA0008091E100877F8093E10082E08093B304EC
:104CB0001092AF048091E1008E7F8093E10080919B
:104CC000E2008E7F8093E2008091E2008061809319
:104CD000E20042E060E080E00E94B3248091F000B6
:104CE00088608093F0000E943122FF91EF91BF9184
:104CF000AF919F918F917F916F915F914F913F9174
:104D00002F910F900FBE0F901F9018951F920F922A
:104D10000FB60F9211242F933F934F935F936F938E
:104D20007F938F939F93AF93BF93CF93DF93EF9333
:104D3000FF93C091E900CF708091EC00D82FD17023
:104D400080FDD0E81092E9008091F000877F809389
:104D5000F00078940E94CA261092E9008091F00039
:104D600088608093F000CD2BCF70C093E900FF9155
:104D7000EF91DF91CF91BF91AF919F918F917F91F3
:104D80006F915F914F913F912F910F900FBE0F90B8
:104D90001F9018951F93CF93DF93CDB7DEB7AA97D7
:104DA0000FB6F894DEBF0FBECDBFE4EBF4E088E0B1
:104DB0008E0F9091F10091938E13FBCF0E944922A8
:104DC0008091E80083FF1FC18091B4049091B504E5
:104DD000492F50E04A30510508F015C1FA01E2555B
:104DE000FF4F0C947C29803881F0823809F00BC188
:104DF0008091B8048F708093E9008091EB0085FB6F
:104E0000882780F91092E90006C08091B004909143
:104E1000B104911182609091E800977F9093E8002F
:104E20008093F1001092F100C8C0282F2D7F09F067
:104E3000EAC0882319F0823061F0E5C08091B604A1
:104E4000813009F0E0C0933009F080E08093B10434
:104E50002BC08091B604811127C08091B8048F7057
:104E600009F4D1C08093E9002091EB0020FF1CC021
:104E7000933021F48091EB00806214C09091EB009C
:104E800090619093EB0021E030E0A90102C0440F53
:104E9000551F8A95E2F74093EA001092EA0080914C
:104EA000EB0088608093EB001092E9008091E800AD
:104EB000877F86C08111A7C01091B6041F778091AB
:104EC000E3008078812B8093E3008091E800877F66
:104ED0008093E8000E94E8248091E80080FFFCCFE6
:104EE0008091E30080688093E300111102C082E0AA
:104EF00001C083E08093B30486C08058823008F0FC
:104F000082C08091B6049091B7048C3D53E0950720
:104F100079F583E08A838AE289834FB7F894DE01CA
:104F2000139620E03EE051E2E32FF0E0509357006B
:104F3000E49120FF03C0E295EF703F5FEF708E2F8A
:104F400090E0EA3010F0C79601C0C0968D939D9313
:104F50002F5F243149F74FBF8091E800877F80930E
:104F6000E8006AE270E0CE0101960E94EF2314C0CF
:104F7000AE014F5F5F4F6091B8040E943623BC01C1
:104F8000892B09F440C09091E800977F9093E80046
:104F900089819A810E9452248091E8008B778093C6
:104FA000E80031C0803879F58091E800877F8093F0
:104FB000E8008091AF048093F1008091E8008E7743
:104FC0008093E8000E94E8241EC081111CC09091CB
:104FD000B6049230C0F48091E800877F8093E800A7
:104FE0009093AF040E94E8248091AF04811106C021
:104FF0008091E30087FD02C081E001C084E08093DE
:10500000B3040E9435228091E80083FF0AC080919A
:10501000E800877F8093E8008091EB0080628093B6
:10502000EB00AA960FB6F894DEBF0FBECDBFDF919E
:10503000CF911F9108950895CF938091B304882351
:10504000A1F0C091E900CF709091EC00892F8170A0
:1050500090FD80E8C82B1092E9008091E80083FD64
:105060000E94CA26CF70C093E900CF9108950E9494
:105070003E286894B1110C94CD2808950E94B2285E
:1050800088F09F5798F0B92F9927B751B0F0E1F009
:10509000660F771F881F991F1AF0BA95C9F714C0B9
:1050A000B13091F00E94CC28B1E008950C94CC2846
:1050B000672F782F8827B85F39F0B93FCCF38695F2
:1050C00077956795B395D9F73EF49095809570954F
:1050D00061957F4F8F4F9F4F0895E89409C097FBCC
:1050E0003EF490958095709561957F4F8F4F9F4FBF
:1050F0009923A9F0F92F96E9BB279395F695879503
:1051000077956795B795F111F8CFFAF4BB0F11F4C5
:1051100060FF1BC06F5F7F4F8F4F9F4F16C088236C
:1051200011F096E911C0772321F09EE8872F762FA2
:1051300005C0662371F096E8862F70E060E02AF0E3
:105140009A95660F771F881FDAF7880F96958795CF
:1051500097F9089557FD9058440F551F59F05F3F38
:1051600071F04795880F97FB991F61F09F3F79F089
:1051700087950895121613061406551FF2CF46950B
:10518000F1DF08C0161617061806991FF1CF86958D
:105190007105610508940895E894BB276627772771
:1051A000CB0197F908950E94E6280C9457290E9494
:1051B000492938F00E94502920F0952311F00C94D1
:1051C00040290C94462911240C94CD280E94AA2829
:1051D00070F3959FC1F3950F50E0551F629FF0014A
:1051E000729FBB27F00DB11D639FAA27F00DB11D63
:1051F000AA1F649F6627B00DA11D661F829F2227EC
:10520000B00DA11D621F739FB00DA11D621F839F72
:10521000A00D611D221F749F3327A00D611D231F48
:10522000849F600D211D822F762F6A2F11249F5796
:1052300050409AF0F1F088234AF0EE0FFF1FBB1F99
:10524000661F771F881F91505040A9F79E3F510558
:1052500080F00C9440290C94CD285F3FE4F3983EF5
:10526000D4F3869577956795B795F795E7959F5F02
:10527000C1F7FE2B880F911D9695879597F9089594
:1052800097F99F6780E870E060E008959FEF80ECF9
:10529000089500240A94161617061806090608959C
:1052A00000240A9412161306140605060895092E02
:1052B0000394000C11F4882352F0BB0F40F4BF2B71
:1052C00011F460FF04C06F5F7F4F8F4F9F4F0895B1
:1052D00097FB072E16F4009407D077FD09D00E94A3
:1052E000822907FC05D03EF4909581959F4F089543
:1052F000709561957F4F0895EE0FFF1F0590F49113
:10530000E02D0994AA1BBB1B51E107C0AA1FBB1FBC
:10531000A617B70710F0A61BB70B881F991F5A9541
:10532000A9F780959095BC01CD010895F999FECF1C
:1053300092BD81BDF89A992780B50895A8E1B0E0A3
:1053400042E050E00C94BE29262FF999FECF92BD81
:1053500081BDF89A019700B4021639F01FBA20BD3A
:105360000FB6F894FA9AF99A0FBE08950196272F6E
:105370000E94A5290C94A429DC01CB01FC01F99918
:10538000FECF06C0F2BDE1BDF89A319600B40D9291
:0C53900041505040B8F70895F894FFCF4A
:10539C0005000071087D08000000000000000000FE
:1053AC00000000900EA00E0000000000000000E1C4
:1053BC00020000900EA00E0000000000000000DDB6
:1053CC00020000900EA00E0000000000000000D9AA
:1053DC00020000900EA00E0000000000000000D59E
:1053EC00020000900EA00E0000000000000000D192
:1053FC00020000900EA00E0000000000000000CD86
:10540C00020000900EA00E0000000000000000C979
:10541C00020000900EA00E0000000000000000C56D
:10542C00020000900EA00E0000000000000000C161
:10543C00020000900EA00E0000000000000000BD55
:10544C00020000900EA00E0000000000000000B949
:10545C00020000900EA00E0000000000000000B53D
:10546C00020000900EA00E0000000000000000B131
:10547C00020000900EA00E0000000000000000AD25
:10548C00020000900EA00E0000000000000000A919
:10549C00020000900EA00E0000000000000000A50D
:1054AC00020000F9070508000000000000000000E1
:1054BC000000001D0829080000000000000000008A
:1054CC000000004708530800000000000000000026
:1054DC00000000900EA00E0000000000000000A1D3
:1054EC00020000900EA00E00000000000000009DC5
:1054FC00020000900EA00E000000000000000099B9
:10550C00020000900EA00E000000000000000095AC
:10551C00020000900EA00E000000000000000091A0
:10552C00020F0010300E000F300D000E304D004DEC
:10553C00024A004A024E004F044B0050043400341F
:10554C0002E10039002E0245002D004400270043E3
:10555C000026004200250041002400400023003FAB
:10556C000022003E0021003D0020003C001F003BBB
:10557C00001E003A0020FF570428080A03140A41B1
:10558C0021CF21AC217821442101000D010D020D08
:10559C00030D040D050D000C010C020C030C040C86
:1055AC00050C000B010B020B030B040B050B000A83
:1055BC00010A020A030A040A050A00090109020980
:1055CC000309040905090008010802080308040876
:1055DC000508000701070207030704070507000673
:1055EC000106020603060406050600050105020570
:1055FC000305040505050004010402040304040466
:10560C000504000301030203030304030503000262
:10561C00010202020302040205020001010102015F
:10562C000301040105010000010002000300040055
:10563C00050001020304050607080900404D363930
:10564C00EF0BA20B6C0B330BC60ADF0AF80A110B1B
:00000001FF
