:100000000C94EE010C940B020C940B020C940B025A
:100010000C940B020C940B020C940B020C940B022C
:100020000C940B020C940B020C94651D0C94381E5E
:100030000C942D180C940B020C940B020C940B02D4
:100040000C940B020C940B020C940B020C940B02FC
:100050000C940B020C9493180C940B020C940B024E
:100060000C940B020C940B020C940B020C940B02DC
:100070000C940B020C940B020C940B020C940B02CC
:100080000C940B020C940B020C940B020C940B02BC
:100090000C940B020C940B020C940B020C940B02AC
:1000A0000C940B020C940B020C940B0200002B001E
:1000B0002961E100350000000000140004421D0029
:1000C0004C00000000001A0016001B004C002961C3
:1000D0000000070008000600E2002A4100000900B5
:1000E000170019002B68000000000E000A00050030
:1000F0000000000000004B0000004E000000000067
:100100000000A9000000AA000000000000000D008F
:100110001C00130000000000000018001100100077
:100120002B680000000015000C00360050002C4128
:1001300000000F0012003700510028620000330059
:100140000B00380052000000000031003400E500D0
:100150004F6D0000000001000100010035020000A9
:1001600000001E02200222022402010000001F02E1
:10017000210223022402010000002F0226022F0088
:1001800001000100000030022702300001000100E0
:1001900000003102310025020000010000000100D2
:1001A000000001000000010000000100000001004B
:1001B0000000010000002E002D002D0200000100B3
:1001C0000000240021001E0027000100000025007F
:1001D00022001F0000000100000026002300200074
:1001E0003700010000002E0234003402010001003B
:1001F000000000000000010001000000005C0100A0
:1002000001000100010000000000000004420000A5
:1002100001000100000000000000000000000100DB
:1002200000000000000000000100010000000000CC
:10023000000000000100010000004B004E004C00D7
:1002400000000100000001000000010000000100AA
:100250000000010000000100000001000000A900F2
:10026000AA00A80000000100000040003D003A0084
:1002700000000100000041003E003B0000000100C2
:10028000000042003F003C000000010000004A0066
:100290004D004900000001000000000000000100C6
:1002A0000000000004033000000016034500720047
:1002B00067006F0044006F007800200045005A007E
:1002C000000016034500720067006F0044006F00D5
:1002D0007800200045005A000000040309040902C8
:1002E0003B00020100A0FA09040000010301010023
:1002F0000921110100012240000705810308000ABD
:10030000090401000103000000092111010001227C
:1003100071000705820320000A120110010000008D
:1003200008EDFE071301000102030105010980A188
:100330000185031601002603001A81002A83007537
:100340001095018100C0050C0901A1018504160169
:1003500000269C021A01002A9C027510950181005A
:10036000C005010906A1018505050719E029E71562
:1003700000250195087501810205081901290595D7
:100380000575019102950175039101050719002971
:10039000EF1500250195F075018102C005010906E0
:1003A000A101050719E029E7150025019508750148
:1003B0008102950175088101050819012905950536
:1003C000750191029501750391010507190029FF37
:1003D000150026FF00950675088100C011241FBE78
:1003E000CFEFDAE0DEBFCDBF11E0A0E0B1E0E4E79F
:1003F000F3E402C005900D92AE3BB107D9F722E0BD
:10040000AEEBB1E001C01D92A13EB207E1F70E9440
:10041000931A0C9469210C94000080B38C7080BBFB
:1004200081B3836F81BB089584B1807F84B985B126
:10043000807F85B98AB1837F8AB98BB1837F8BB97D
:100440003E9846980895CF93C82F873070F58091D5
:10045000060190910701892B89F564E670E080E43C
:100460000E945D039093070180930601892BD1F4CC
:1004700064E670E082E10E94B903909307018093E3
:100480000601892B79F481E090E001C0880FCA95BC
:10049000EAF764E670E080950E94B9039093070143
:1004A00080930601CF910C940C048A30B9F040F48B
:1004B000883071F0893079F0209A2898CF9108958A
:1004C0008C3091F070F08D30B9F73E9A4698F6CFA7
:1004D000219A2998F3CF229A2A98F0CF239A2B9821
:1004E000EDCF529A5A98EACF539A5B98E7CFCF93C1
:1004F000873008F040C08091060190910701C0E06C
:10050000892B71F464E670E080E40E945D039093AF
:10051000070180930601892B31F0C0E00E940C0492
:100520008C2FCF91089564E670E083E10E94B903B7
:100530009093070180930601892B79F764E670E0B8
:1005400081E40E945D039093070180930601892B4B
:1005500021F784E690E00E94E80397FF05C090939E
:10056000070180930601D9CFC82FC09510920701CB
:1005700010920601D3CFCFB18FB1869586958C733B
:10058000C3708C2BC82FC095CBCF0C940C050E9448
:10059000910490E090930701809306010E94140259
:1005A0000E940D02EFEBF1E0ADECB1E011921D9273
:1005B00081E0ED3CF807D1F78EE00E9405090C942C
:1005C0006B050E94910490E09093070180930601CF
:1005D0000E9414020E940D02EFEBF1E0119281E003
:1005E000ED3CF807D9F70895EF92FF920F931F9310
:1005F000CF93DF938091060190910701892B91F0B1
:100600008091BE018F5F8093BE0181110BC00E945B
:10061000910490E09093070180930601892B11F4D7
:100620000E943B040DEC11E0C0E0D0E087E0E82E32
:10063000EC0E8C2F0E9423028E2D0E9423028C2F01
:100640000E947702F80191918F01F12C891721F016
:1006500031978083FF24F3948E2D0E947702F80156
:1006600096818917D9F0868381E08F29D82B0E9443
:100670001402CF5FC730D1F62D2F4EE06FEB71E043
:100680008DEC91E00E9490090E94730581E0DF915A
:10069000CF911F910F91FF90EF90089580E0E5CFEB
:1006A000E82FF0E0E154FE4F808108950895109204
:1006B000B9008CE08093B8000895EF92FF920F93F9
:1006C0001F93CF93DF93182FEB011092BC0084EAA5
:1006D0008093BC000E945D187C018091BC0087FF64
:1006E00027C08091B900887F883029F08091B900B7
:1006F000887F8031D9F51093BB0084E88093BC00DB
:100700000E945D188C018091BC0087FF24C020915D
:10071000B900287F90E080E02831B1F081E090E0DE
:10072000203411F490E080E09195819591090CC0FE
:10073000CF3FDC0791F20E945D188E199F098C173C
:100740009D0758F28EEF9FEFDF91CF911F910F9190
:10075000FF90EF900895CF3FDC07A9F20E945D184B
:10076000801B910B8C179D0770F2ECCF8FEF9FEFE2
:10077000EBCF0F931F93CF93DF93EB018093BB00DD
:1007800084E88093BC000E945D188C018091BC00BD
:1007900087FF11C02091B900287F81E090E02832C6
:1007A00011F490E080E0919581959109DF91CF91CE
:1007B0001F910F910895CF3FDC0741F30E945D1810
:1007C000801B910B8C179D0708F38EEF9FEFEECFE8
:1007D0000F931F93CF93DF93EC0184E88093BC00C9
:1007E0000E945D188C018091BC0087FF08C0809139
:1007F000BB0090E0DF91CF911F910F910895CF3F03
:10080000DC0789F30E945D18801B910B8C179D07F4
:1008100050F38EEF9FEFEECF84E98093BC000895F4
:10082000259A2D9A0895269A2E9A0895279A2F9AF6
:10083000089556985E98089525982D9808952698BD
:100840002E98089527982F9808950E9419040E94C1
:100850001C040E941F040C94220490E090938900D1
:100860008093880090938B0080938A0090938D00F2
:1008700080938C0008950E9425048FEF0E942D0420
:100880000E9410042FEF80E792E0215080409040BA
:10089000E1F700C000000E9413042FEF80E792E010
:1008A000215080409040E1F700C000000E941604F3
:1008B0002FEF80E792E0215080409040E1F700C0A8
:1008C00000000E941C042FEF80E792E0215080403E
:1008D0009040E1F700C000000E941F042FEF80E766
:1008E00092E0215080409040E1F700C000000E945B
:1008F00022040C94250489EA8093800089E0809387
:10090000810024982C983F988AB18F7C8AB96E9880
:10091000479A8BB180638BB9769A0E943B040C9402
:100920000B0580E290E0909307018093060180918F
:10093000DB0181110EC00E94570381E08093DB012F
:100940002FEF83ED90E3215080409040E1F700C00D
:10095000000064E670E080E40E945D03909307016C
:1009600080930601892B09F04EC064E670E080E0B8
:100970000E94B9039093070180930601892B09F027
:1009800042C064E670E080E00E94B90390930701E2
:1009900080930601892BB9F564E670E08FE30E942D
:1009A000B9039093070180930601892B61F50E949A
:1009B0000C0464E670E080E40E945D0390930701FC
:1009C00080930601892BF9F464E670E08CE00E94C4
:1009D000B9039093070180930601892BA1F464E683
:1009E00070E080E00E94B9039093070180930601B4
:1009F000892B49F464E670E08FE30E94B903909379
:100A00000701809306010E940C048091060108955D
:100A100090E080E008950895CF93609178027091FE
:100A2000790280917A0290917B020E948516C82FEC
:100A30000E9419040E941C040E941F040E942204A8
:100A4000C13021F0C23029F0CF910895CF910C949C
:100A50001004CF910C94130481E0089581E008956F
:100A60000C942E051F93CF93DF9300D000D00F92EC
:100A7000CDB7DEB749835A836B8320910602898103
:100A80009A8121111BC06623A9F00E944115182FDD
:100A9000682F89819A810E94EA1469817A81812F65
:100AA0000F900F900F900F900F90DF91CF911F91AB
:100AB0000C9485060E941815182FEFCF0E9441153F
:100AC00069817A81EDCFFC0140815181628173811E
:100AD00084810C9432050E94D216811102C00E94BA
:100AE0004C170C947B040C94C50208950C94750566
:100AF0000C94760508950E942A100E947A052FEF23
:100B000084E39CE0215080409040E1F700C0000069
:100B10000C94B7180F931F93CF93DF938C010E940F
:100B20006305EC01B8010E943005882309F450C028
:100B3000B801CE010E94350A882309F449C0C531A5
:100B40008CE5D807A0F4C230ECE5DE0708F05EC003
:100B5000C115FCE5DF07B9F1C130DC4509F43EC041
:100B6000C801DF91CF911F910F910C942C05CC3DC2
:100B7000ECE5DE0709F43CC0C0F4C631DC4581F782
:100B80000E94D615F8019281992309F4B3C08A7A9C
:100B900091E009F490E09093DC018111A9C089E211
:100BA0000E94B1150E94221613C0CD3DECE5DE0770
:100BB00039F1CE3DDC45A1F6F8018281882341F070
:100BC0000E944C1705C0F801828181110E947B05AB
:100BD00080E0DF91CF911F910F910895F8018281FC
:100BE0008823B1F38091A50281608093A502F0CFA4
:100BF000F8018281882361F380E00E942F1BE8CFF7
:100C0000F8018281882321F382E0F7CFF801828105
:100C1000882309F4A5CF0E94D216811102C00E9438
:100C20004C170E94E51690E09093CF028093CE027D
:100C3000FE01E350FC458091CE028160E231F10576
:100C400038F4E559FE4D0C94F71F8091CE02826076
:100C50008093CE028091CE020E94E9160E942A1053
:100C6000B7CF8091CE028460F3CF8091CE028860AE
:100C7000EFCF8091CE028061EBCF8091CE02806277
:100C8000E7CF8091CE028064E3CF8091CE0280686E
:100C9000DFCF8091CE028C60DBCF8091CE028E7F41
:100CA000D7CF8091CE028D7FD3CF8091CE028B7F24
:100CB000CFCF8091CE02877FCBCF8091CE028F7E27
:100CC000C7CF8091CE028F7DC3CF8091CE028F7B24
:100CD000BFCF8091CE028F77BBCF8091CE02837F32
:100CE000B7CF9091CE02892F97FB87F98058B0CF6C
:100CF00085E356CF8091DC01811104C089E20E9416
:100D0000B81550CF85E3FBCF0895972F70E026E00C
:100D1000929F600D711D1124FB0194E5899FE00DE8
:100D2000F11D1124EE0FFF1FE455FF4F85919491A3
:100D30000895FC01EE0FFF1FEC55FD4F8591949136
:100D40000895CF93DF930E9485060E946708EC0107
:100D5000811520E5920708F042C0811530E4930721
:100D600008F018C1883E910528F5803E910508F0ED
:100D7000A4C0883A910588F4853A910508F093C09B
:100D80008130910509F499C0009709F496C0049741
:100D900008F093C0D0E0C0E090C08F3B910508F40C
:100DA00090C0805C9109C03CD105A0F30E949906D7
:100DB000EC0183C08115904250F4C11581E0D80741
:100DC00008F07BC0C03FD10528F3D06576C0C115BF
:100DD00090E3D90708F0D4C0CE019F70E7CF81150A
:100DE00025E5920758F5811534E5930708F001C110
:100DF000811542E5940750F4C11581E5D80708F440
:100E0000CCC0DC2FCC27C16FD06A57C0982F9695E5
:100E100096959E0123703327C115D34508F0DAC09B
:100E2000C1E0D0E002C0CC0FDD1F2A95E2F720E23E
:100E3000929FC0011124C82BD92BCAC0C1158AE5C5
:100E4000D807A0F4C11599E5D90708F0E2C0C1158B
:100E500026E5D20708F4D2C0C11538E5D30708F457
:100E600099CFDC2FCC27C06FD06A27C0C1154BE5C6
:100E7000D40708F48FCFC1158CE5D80708F4D9C082
:100E8000CE0190568115904208F084CF8D2F8F713E
:100E90000E94E20890E0982F882788279F719C0184
:100EA0002C2BE901B4C0853A910509F4C5C0863AF6
:100EB000910509F0C4C0C2E8D0E4CE01DF91CF9122
:100EC0000895883A910509F4BDC0893A910509F45D
:100ED000BCC08A3A910509F4BBC08B3A910509F46C
:100EE000BAC08C3A910509F4B9C08B3B910509F45D
:100EF000B8C08C3B910509F4B7C08D3A910509F44F
:100F0000B6C0803B910509F4B5C08E3A910509F44D
:100F1000B4C08F3A910509F4B3C0813B910509F43F
:100F2000B2C0823B910509F4B1C0833B910509F43D
:100F3000B0C0843B910509F4AFC0853B910509F42D
:100F4000AEC0863B910509F4ADC0873B910509F41D
:100F5000ACC0883B910509F4ABC0893B910509F40D
:100F6000AAC08D3B910509F4A9C08E3B910509F4F7
:100F7000A8C08A3B910509F4A7C0C0E0D4E49DCF86
:100F8000CE019927D3FF03C0EC01D86C96CFEC01BA
:100F9000D06C93CFDF70D06A90CFCE01E4E096950D
:100FA0008795EA95E1F783702C2F26952695237077
:100FB00040E2249F90011124382B8C2F8370C1E0D4
:100FC000D0E002C0CC0FDD1F8A95E2F7C22BD32BF5
:100FD000DC6873CFC1E0D0E002C0CC0FDD1F2A95E2
:100FE000E2F730E2939FC0011124C82BD92BDA68B5
:100FF00064CFD82FCC27C46FD06A5FCF8C2F0E94CC
:10100000E208C82FD0E0DC2FCC27CC27DF71D062DC
:1010100054CF8C2F8F700E94E20834E0D695C7958C
:101020003A95E1F79C2F9F70C82FCF70C06ED92FD3
:10103000B2CFDD27D06641CFC1E8D0E43ECFC3E8D0
:10104000D0E43BCFC2EED4E438CFC9EED4E435CF00
:10105000CAEED4E432CFC5EBD4E42FCFC6EBD4E450
:101060002CCFC3EBD4E429CFC4EBD4E426CFC7EB19
:10107000D4E423CFCCECD4E420CFCDECD4E41DCF0A
:10108000C3E8D5E41ACFCAE8D5E417CFC2E9D5E45E
:1010900014CFC4E9D5E411CFC1E2D6E40ECFC3E248
:1010A000D6E40BCFC4E2D6E408CFC5E2D6E405CF40
:1010B000C6E2D6E402CFC7E2D6E4FFCECFE6D4E460
:1010C000FCCEC0E7D4E4F9CECAE2D6E4F6CE82384C
:1010D000910549F1B0F48133910509F462C048F4F7
:1010E0008932910509F456C08A32910509F460C02D
:1010F00008958533910509F446C08933910599F027
:101100000895833E910531F138F4803E910591F0C8
:10111000823E9105B1F00895863E910521F1873E0A
:10112000910551F108952091CE022370D9F080EEFF
:1011300090E008952091CE0220FF14C089E390E052
:1011400008952091CE0222FF0DC024FD09C083EE38
:1011500090E008952091CE0222FD31C024FF02C00C
:1011600090E080E008952091CE0223FFFBCF24FD84
:10117000F7CF87EE90E008952091CE0223FFEECFC7
:1011800086EE90E008952091CE0225FFEBCF89E214
:1011900090E008952091CE0225FFE4CF85E390E012
:1011A00008952091CE0226FFDDCF8AE290E00895D7
:1011B0002091CE0226FFD6CF81E390E0089582EE03
:1011C00090E008959091CE0292FF06C0282F2871DA
:1011D000283069F4877F846093FF06C0282F287128
:1011E000283161F4877E846194FD877E0895282FDD
:1011F0002471243089F78B7F8860EECF282F2471EB
:10120000243191F78B7E8861EFCFCF93C82F90E088
:101210000E94FD1F8093DE019093DF01282FFC01C7
:101220009BEF8E2F821B8C1710F0CF910895919316
:10123000F8CFEF92FF920F931F93CF93DF9310920B
:10124000DD015091DE01E52FF091DF0140E0A62F96
:10125000B0E07BEF9AEFE92EF12C9E2F951B9817AB
:1012600048F04093DD01DF91CF911F910F91FF90E6
:10127000EF90089591919B3F81F3292F30E06917FA
:1012800068F08D01021B130B9801253031056CF0BD
:101290009F0121503109E9017883DFCFE701C21BAB
:1012A000D30B9E012A0F3B1FF0CF41E0D6CFAF9268
:1012B000BF92CF92DF92EF92FF920F931F93CF9343
:1012C000DF937C010091DE011091DF019091DD013F
:1012D000F0E0E0E0E41768F09093DD01DF91CF915A
:1012E0001F910F91FF90EF90DF90CF90BF90AF9044
:1012F0000895E801CE0FDF1F88818B3F79F45B01F1
:10130000AE0EBF1E6701CE0EDF1ED6013C91D50189
:101310008C91831719F028833C9391E03196DACFB2
:10132000CF92DF92EF92FF921F93CF93DF937C01D6
:101330006B01D42FC22F0E945D186AEF70E00E94EB
:10134000E31F182F8091DD018823F9F0612F8D2F85
:101350000E941909CC2369F0212F4D2FB601C70136
:10136000DF91CF911F91FF90EF90DF90CF900C9481
:1013700057098091DD01882379F3DF91CF911F9187
:10138000FF90EF90DF90CF900895C111E5CFF5CF9A
:101390000F931F93CF93DF93C62FD42F022FFC01FF
:1013A00082818823C9F06093E2010E945D189093C6
:1013B000E1018093E00180E28C0F883008F050C09A
:1013C000C77081E001C0880FCA95EAF7DF91CF911D
:1013D0001F910F910C94740D1091E201161335C0FA
:1013E0008091E0019091E1010E946918883C91058B
:1013F00060F5C0E2CD0F1D17B9F080E2810F883093
:1014000040F4177081E001C0880F1A95EAF70E9436
:101410007B0DC83048F481E09D2F977001C0880F84
:101420009A95EAF70E94740D802F0E946C0DC830C7
:10143000B8F4D77081E001C0880FDA95EAF7DF9140
:10144000CF911F910F910C947B0D80E28C0F88300F
:1014500038F4C77081E001C0880FCA95EAF7EFCF72
:10146000DF91CF911F910F9108959C01CB01203FF7
:101470004CE5340731F190F4283DFCE53F07E9F0F5
:10148000293D4CE5340769F1273D3C4579F426E2D6
:1014900041EE61EE0E94C80980E00895223FFCE51C
:1014A0003F07B9F090F0233F3C45B9F0FC01828141
:1014B0008823D1F01092E201089527E245EE65EE0F
:1014C000E9CF26E241EE60EEE5CF27E245EE64EE9D
:1014D000E1CF26E241EE62EEDDCF27E245EE66EE99
:1014E000D9CF28E241E0EBCF81E008959093E80165
:1014F0008093E7010895E091E701F091E8013097CA
:1015000021F00190F081E02D099480E00895E091B0
:10151000E701F091E801309799F02091140122231E
:1015200059F02091CE0227FF07C0DC012C911196C3
:101530002C93119725E02C930280F381E02D0994E0
:1015400008952091E5013091E6012817390771F0DF
:101550009093E6018093E501E091E701F091E801C5
:10156000309721F00680F781E02D099408952091AD
:10157000E3013091E4012817390771F09093E401F9
:101580008093E301E091E701F091E801309721F0C9
:101590000084F185E02D0994089585B7806885BFA2
:1015A00085B7806885BF0895089508950C94D40A7E
:1015B00008950C94D80A0E94CD0A0E94D50A0C9472
:1015C000D60A81E008950E9454180E94C7020E9422
:1015D000E918EEECF2E08081806880830C94D90AEF
:1015E000BF92CF92DF92EF92FF920F931F93CF9310
:1015F000DF93CDB7DEB72A970FB6F894DEBF0FBEE4
:10160000CDBF0E94F4020E94E10A882309F46FC052
:101610008AEEC82E81E0D82E10E000E0B02E802F98
:101620000E945003E82EF601F1906F01F81609F4BC
:1016300058C08091A50281FD0E94560390E080E091
:10164000FE242F2D30E0482FB901082E02C07595D9
:1016500067950A94E2F760FF3FC08E83BF8281E006
:1016600090E06C0102C0CC0CDD1C4A95E2F72E2DF7
:1016700030E02C213D21232B09F480E088870E9453
:101680005D188160782F9A8789874E815F81688590
:101690008A850E94D00BF801E651FE4F80818C258F
:1016A00080830E947B0A9091E901891789F10E9449
:1016B0007B0A8093E9012A960FB6F894DEBF0FBE2D
:1016C000CDBFDF91CF911F910F91FF90EF90DF90F1
:1016D000CF90BF900C94780501968630910509F063
:1016E000B2CF0F5F1F4F0E30110509F097CF8FEF6C
:1016F00089838A831B820E945D188160782F9D8375
:101700008C8349815A816B818D810E94D00BC9CF16
:101710002A960FB6F894DEBF0FBECDBFDF91CF91F2
:101720001F910F91FF90EF90DF90CF90BF900895A1
:10173000CF93DF93DC018C91682F70E021E030E0E3
:1017400001C0220F8A95EAF711964C91119750E04B
:10175000EA01C850DE4F988112968C911297882327
:10176000C9F0809108028823C1F086E0849FF001CF
:10177000859FF00D1124E60FF71FEE0FFF1FEB5EA4
:10178000FE4F408151814D935C93292B2883DF913B
:10179000CF910895892F8223E6CF20952923F6CF74
:1017A000CF93DF93CDB7DEB72B970FB6F894DEBF9C
:1017B0000FBECDBF4F83588769877A878B878A850D
:1017C0009B85892B21F0CA0189238F3FE1F41E827A
:1017D0001D8285E0FE013796DE01119601900D9283
:1017E0008A95E1F749815A816B817C818D819E8147
:1017F0000E94CA122B960FB6F894DEBF0FBECDBF63
:10180000DF91CF910895CE0107960E94980BDFCF0C
:10181000FC01808191810E94831592959F70963082
:1018200041F48091080291E0892780930802909307
:1018300007020895882309F4FFC08238B9F40E9492
:101840007B0A81FDF9C089E30E94B1150E9422162E
:101850002FEF81EE94E0215080409040E1F700C0EE
:10186000000089E30E94B8150C9422168338A1F475
:101870000E947B0A80FDE0C083E50E94B1150E94B2
:1018800022162FEF81EE94E0215080409040E1F746
:1018900000C0000083E5E6CF8438A1F40E947B0AF3
:1018A00082FDCAC087E40E94B1150E9422162FEF64
:1018B00081EE94E0215080409040E1F700C00000AC
:1018C00087E4D0CF9CEF980F913A18F40E94B1159D
:1018D000CBCF90E2980F983050F4877091E001C020
:1018E000990F8A95EAF7892F0E94D915BDCF9BE5FC
:1018F000980F933070F4853A31F0863A39F083E8E6
:1019000090E00C94A10A81E890E0FBCF82E890E09F
:10191000F8CF98E5980F973108F08EC0883A09F40F
:1019200046C0893A09F446C08A3A09F446C08B3A5F
:1019300009F446C08C3A09F446C08B3B09F446C012
:101940008C3B09F446C08D3A09F446C0803B09F44B
:1019500046C08E3A09F446C08F3A09F446C0813B2E
:1019600009F446C0823B09F446C0833B09F446C0F3
:10197000843B09F446C0853B09F446C0863B09F424
:1019800046C0873B09F446C0883B09F446C0893B02
:1019900009F446C08D3B09F446C08E3B09F446C0AD
:1019A0008A3B09F446C090E080E00C94B70A82EECE
:1019B00090E0FBCF89EE90E0F8CF8AEE90E0F5CF93
:1019C00085EB90E0F2CF86EB90E0EFCF83EB90E0F9
:1019D000ECCF84EB90E0E9CF87EB90E0E6CF8CECA6
:1019E00090E0E3CF8DEC90E0E0CF83E891E0DDCFB5
:1019F0008AE891E0DACF82E991E0D7CF84E991E0FB
:101A0000D4CF81E292E0D1CF83E292E0CECF84E2E4
:101A100092E0CBCF85E292E0C8CF86E292E0C5CFDC
:101A200087E292E0C2CF8FE690E0BFCF80E790E000
:101A3000BCCF8AE292E0B9CF0895882309F44BC065
:101A4000823871F40E947B0A81FF45C089E30E94BD
:101A5000B1150E94221689E30E94B8150C94221633
:101A6000833859F40E947B0A80FF35C083E50E94C9
:101A7000B1150E94221683E5EFCF843859F40E94F5
:101A80007B0A82FF28C087E40E94B1150E942216BB
:101A900087E4E2CF9CEF980F913AF0F290E2980F32
:101AA000983050F4877091E001C0990F8A95EAF759
:101AB000892F0E94DF15D2CF9BE5980F933020F439
:101AC00090E080E00C94A10A885A873120F490E0DD
:101AD00080E00C94B70A0895CF93C82F0E941A0C87
:101AE0008C2FCF910C941D0D882321F00E94D915C5
:101AF0000C9422160895882321F00E94DF150C947F
:101B0000221608958F929F92AF92BF92CF92DF924A
:101B1000EF92FF920F931F93CF93DF937C01D62F09
:101B2000C72FFC01058102950F70128111110E94CF
:101B3000F6150E94CF15C82E882371F01123B1F03D
:101B400080E28D0F883090F082E00E946D160E9436
:101B5000CF1591E0C82EC926DC2ED2949FE0D92261
:101B6000ED2DF0E0E358FE4D0C94F71FC12CF4CF9F
:101B70000C2F0F70C07F11F00295007F1123A9F088
:101B8000002359F080E28D0F883010F0D11109C088
:101B9000802F0E94D9150E9422168D2F0E941A0CA8
:101BA00014C0802F0E94E915F6CF8D2F0E941D0DC5
:101BB000002359F080E28D0F883010F0D11133C02E
:101BC000802F0E94DF150E942216F8E0DF1639F000
:101BD000DF1648F086EF8D0D8F70823020F40E9462
:101BE0007B0A0E947805CC2009F4EBC10E94CB153A
:101BF00080FDE7C1F70112820E94C5150E944E14B4
:101C0000C7010E94EE0F0E94C515DF91CF911F9171
:101C10000F91FF90EF90DF90CF90BF90AF909F908B
:101C20008F900C946F14802F0E94EF15CCCFFC2F57
:101C3000FF70BF2EC07FC03219F0B29480EFB8227F
:101C4000DD2369F0D13049F1112389F1002351F1ED
:101C5000F701858180FFA1CF8F70858323C0112379
:101C600081F0011106C00E9409168B290E94740D93
:101C7000ACCF0130C1F70E9409168B290E940F16C4
:101C8000A4CF011106C00E9418168B2D0E947B0D57
:101C90009CCF013009F499CFF6CF112329F00230FF
:101CA00008F093CF8B2DE2CF01118FCFEECF002321
:101CB00061F38D2F0E941D0D88CF8C2F8695869500
:101CC000837069F0813009F080CF8D2F9C2F937045
:101CD000111102C090E080E00E94B70A76CF8D2FEC
:101CE0009C2F9370111102C090E080E00E94A10A25
:101CF0006CCF8C2F837009F047C0111166CF2D2F48
:101D0000229526952770220F220F6D2F6F70862E39
:101D1000912CB12CA12C022E04C0880C991CAA1C59
:101D2000BB1C0A94D2F760E070E0CB01D4FF0FC077
:101D30006FE070E080E090E004C0660F771F881FBE
:101D4000991F2A95D2F76095709580959095C695C4
:101D5000C695C370C23051F080F4682979298A2968
:101D60009B29C13071F00E9400142FCF6829792976
:101D70008A299B290E94121428CF0E940014C501B1
:101D8000B4010E94EE1321CF8695112311F08C2F00
:101D90008170882309F419CF2D2F2295269527705D
:101DA000220F220F6D2F6F70862E912CB12CA12C3B
:101DB000022E04C0880C991CAA1CBB1C0A94D2F7E2
:101DC00060E070E0CB01D4FF0FC06FE070E080E016
:101DD00090E004C0660F771F881F991F2A95D2F7DD
:101DE0006095709580959095C695C695C370C230E4
:101DF00051F080F4682979298A299B29C13071F032
:101E00000E94C514E2CE682979298A299B290E945B
:101E1000D714DBCE0E94C514C501B4010E94B314CF
:101E2000D4CEE0E2ED0FE53108F04CC0F0E0E3572E
:101E3000FE4D0C94F71FDF708C2F8F71112321F052
:101E40000E944E148D2F12CF0E946F148D2F1ECF23
:101E5000112339F00111B9CE8C2F8F710E94921489
:101E6000B4CE023008F0B1CEF7CF8C2F8F71112392
:101E700039F00E944E14A9CE8C2F8F711123C9F313
:101E80000E946F14A2CE112329F08C2F8F710E9413
:101E900039149BCE0E94341498CE112349F0CF718F
:101EA0008C2F0E944E1463E08C2F0E9458168DCE0A
:101EB00081E00E946D16023008F487CE82E00E9415
:101EC0006D1683CE112329F0011167CE8C2F8F71EF
:101ED000D0CF002369F0D93309F0EBCEFFEF27EE26
:101EE00083E0F15020408040E1F700C00000E1CEE7
:101EF0008C2F8F71C5CF4C2F4F706D2FC7010E9453
:101F000008050E94641361CED23F71F1C8F4D03F3E
:101F100001F1D13FB9F180910702002309F446C0D5
:101F2000882341F08091080291E08927809308027C
:101F3000109207028D2F112389F10E941A0C16C0EE
:101F4000D43FD9F078F0D53F31F711110FC081E0BF
:101F500006C0112359F08091080291E089278093EF
:101F6000080204C081E01827109308024C2F4F701C
:101F70006D2FC7010E94840628CE1111F7CF109251
:101F80000802F4CF112339F080910702882319F356
:101F900010920702EBCF0023F1F2E8CF0E941D0D53
:101FA00086E0F70111928A95E9F7E0CF8823F1F2F4
:101FB0001111DCCF8091080291E0892780930802FB
:101FC000E7CFDF91CF911F910F91FF90EF90DF90BE
:101FD000CF90BF90AF909F908F9008950F931F93D5
:101FE000CF93DF93EC018B819C81892B29F0888131
:101FF000998189238F3F29F4DF91CF911F910F9110
:102000000895CE010E948A058823B1F36881798101
:102010008A810E948D158C010E94E9140E94EB13A5
:10202000B801CE01DF91CF911F910F910C94820DD9
:102030000E94F6150E9406160E94221690E080E08B
:102040000E94A10A90E080E00C94B70A0E94BF159C
:102050000C9418100E94E6150C942610E92FE295B6
:10206000EF70E250EE3070F4F0E0EE55FE4D0C945F
:10207000F71F803F19F020F4803E20F481E008959E
:10208000843FE1F380E00895803EC0F3813FD1F7C3
:10209000F5CF93FB882780F908950E9483150C944F
:1020A0002E10CF93DF9300D000D00F92CDB7DEB7C4
:1020B0000F900F900F900F900F90DF91CF91089598
:1020C000CF93DF9300D000D000D0CDB7DEB72696F7
:1020D0000FB6F894DEBF0FBECDBFDF91CF9108954C
:1020E0001F93CF93DF93C091090216E080910A02FB
:1020F0008C1304C0DF91CF911F910895D0E01C9FF5
:10210000F0011D9FF00D1124E55FFD4F40815181CD
:1021100062817381848195810E9460102196C770CD
:10212000E5CF40913B0250913C0260913D0270919D
:102130003E0280913F02909140020C9460101F93E8
:10214000CF93DF9380914002807FC1F480913D0264
:102150008823A1F080910902C0910A0260913B029C
:1021600070913C0240913E0250913F02D62FD723FE
:10217000DA01A095B09516E0C81304C0DF91CF91A5
:102180001F91089590E04115510511F0DF3F31F4A2
:1021900001968770F1CF2A0F3B1F17C0189FF001DF
:1021A000199FF00D1124E55FFD4F21812713F0CF1A
:1021B00020812613EDCF22812111EACF23813481A2
:1021C0002417350740F3241B350B283C310500F755
:1021D000209140022F7020612093400226E0289F2A
:1021E000F001299FF00D1124E05FFD4F80818F7079
:1021F000806180838BE392E00E94EE0FDF91CF91AC
:102200001F910C947010BF92CF92DF92EF92FF92C9
:102210000F931F93CF93DF93CDB7DEB761970FB6C0
:10222000F894DEBF0FBECDBF8C0185E0F801DE0162
:102230001D9601900D928A95E1F7D8014C91119667
:102240005C9111971296EC90129780913E029091BA
:102250003F02009709F47FC120913B0230913C027C
:10226000622F63236F3F09F476C11396CD90DC9003
:10227000B0903D02BB2009F411C1C816D906D0F1B7
:10228000F601E81BF90BCF01FF24F394883C91057C
:1022900008F0F12C80914002982F907FFF2009F4E4
:1022A000B8C091117FC0FE2C351329C0241327C05C
:1022B000E11025C08F708061809340020E949110D0
:1022C0008BE392E00E94EE0F80914002D8011596B8
:1022D0008C938F2D61960FB6F894DEBF0FBECDBFE5
:1022E000DF91CF911F910F91FF90EF90DF90CF90F2
:1022F000BF900895809590958C0D9D1DC5CFCD28DC
:1023000029F0852F84238F3F09F041C180E0B82F49
:10231000B170DB2E80FF3CC08091090220910A023F
:1023200036E0821315C04D875E878D859E850E949D
:102330008315292F22952F702230F0F0243018F5C4
:102340009F70F1F0F8019581907FD1F4D12C1EC0DF
:1023500090E0389FF001399FF00D1124E55FFD4FAB
:102360006181651306C06081641303C06281E61257
:102370000FC001968770D5CF9F7011F0882331F37D
:10238000805E883018F3C8010E94EE0FFD2CA1CFAB
:10239000EE2009F49ECF809140028160809340023C
:1023A000F12C97CF351306C0241304C0D801EE20BA
:1023B00009F49AC04D875E878D859E850E944D10D9
:1023C000882319F1EE2009F180914002803270F0EB
:1023D00020913B0230913C0238872F831986DB869F
:1023E000CA868C87CE0107960E94EE0F86E0F80120
:1023F000ABE3B2E001900D928A95E1F70E949F1045
:102400000E949110FF24F39464CFC8010E94EE0F44
:10241000F9CF911113C07C2DD98AC88A6E2D898974
:102420000E9451108BE392E00E94EE0F86E0EBE3F6
:10243000F2E0DF011D928A95E9F763C0351312C0FF
:10244000241310C0E1100EC0F8018583C8010E945A
:10245000EE0FEBE3F2E086E0DF011D928A95E9F7EB
:10246000FB2C37CF4D875E878D859E850E944D1052
:10247000882359F2EE2049F280914002803208F41C
:10248000B5CF20913B0230913C023A8329831B82D5
:10249000DD82CC828E83CE010196A6CFC816D906E6
:1024A00098F1F601E81BF90BCF01F12C883C91055E
:1024B00008F049C0FE2CEE2009F4A7CF351332C036
:1024C000241330C08091400280FD23C0982F907F5C
:1024D00001F1D80115968C931597903F39F0982FFC
:1024E000907F905F8F70892B15968C93C8010E9406
:1024F000EE0F86E0F801ABE3B2E001900D928A9511
:10250000E1F70E949110E5CE809590958C0D9D1D70
:10251000CCCF86E0F801ABE3B2E001900D928A9552
:10252000E1F7D7CE4D875E878D859E850E944D1041
:1025300081115CCF80914002816080934002C8018C
:102540000E94EE0FC6CE7C2DD98AC88A6E2D89894D
:102550000E9451106BCFEE2009F457CF4D875E8754
:102560008D859E850E944D10F82E882309F44DCF4D
:1025700086E0F801ABE3B2E001900D928A95E1F7B5
:102580008BE392E00E94080C0E949F10BACF81E07A
:102590008E25BDCE1F93CF93DF93CDB7DEB72C979B
:1025A0000FB6F894DEBF0FBECDBF4F835887698743
:1025B0007A878B879C87CE0107960E940311882318
:1025C00069F08A859B85892B39F04F815885842F46
:1025D00085238F3F09F071C016E05FC086E0FE01E1
:1025E0003796DE01119601900D928A95E1F78A8562
:1025F0009B85892B89F388859F8189238F3F61F390
:1026000020910A0230E0C901019687709927409114
:1026100009024817190671F40E942A1010920A0242
:102620001092090286E0EBE3F2E0DF011D928A9549
:10263000E9F7D2CF96E0929FD001939FB00D11247D
:10264000A55FBD4FFE01319601900D929A95E1F77D
:1026500080930A020E947010BFCF819FC001112495
:10266000855F9D4F0E9403118823E9F0E0910902E4
:102670001E9FF0011124E55FFD4F40815181628171
:102680007381848195810E9460108091090290E09D
:102690000196877099278093090280910902909191
:1026A0000A028913DACF2C960FB6F894DEBF0FBE5C
:1026B000CDBFDF91CF911F91089569857A858B8574
:1026C0009C850E94601088CFEF92FF920F931F931A
:1026D000CF93DF938C01892B81F0F12CEE24E394CE
:1026E000E8012196F8018491843770F4843008F071
:1026F0005FC08130B1F08230A1F1DF91CF911F91A5
:102700000F91FF90EF900895853709F44CC008F4BD
:102710003DC09CE7980F903780F78F770E941D0D82
:1027200049C00E5F1F4FFE01849190E2980F9830D0
:1027300060F48770FE2D01C0FF0F8A95EAF78F2F96
:102740000E94F9150E94221602C00E941A0C8F2DB9
:10275000815030F2EFE9FFE03197F1F700C000005F
:10276000F7CF0E5F1F4FFE01849190E2980F9830D3
:1027700050F48770FE2D01C0FF0F8A95EAF78F2F66
:102780000E94FF15DFCF0E941D0DE1CF0E5F1F4F8E
:10279000FE01C491C150D8F28FE99FE00197F1F793
:1027A00000C00000F7CF0E5F1F4FFE01F490CFCFA7
:1027B0000E941A0C8E01CBCF08950C94DC130E945A
:1027C000DD1360937C0270937D0280937E02909370
:1027D0007F020C94181008950C94DF130F931F932D
:1027E00000917C0210917D0220917E0230917F0247
:1027F000602B712B822B932B1F910F910C94DF1365
:102800000F931F9300917C0210917D0220917E0214
:1028100030917F0260237123822393231F910F91B4
:102820000C94DF130F931F9300917C0210917D0293
:1028300020917E0230917F026027712782279327A3
:102840001F910F910C94DF130C94DC130C9424143F
:102850000E942614609378027093790280937A0222
:1028600090937B020C94181060E070E0CB010C9404
:1028700028140F931F9341E050E060E070E08A015C
:102880009B0104C0000F111F221F331F8A95D2F72E
:10289000C901B8011F910F910C9428140F931F9335
:1028A00041E050E060E070E004C0440F551F661F37
:1028B000771F8A95D2F78091780290917902A09142
:1028C0007A02B0917B028A019B01082B192B2A2BDB
:1028D0003B2BC901B8011F910F910C9428140F9341
:1028E0001F9341E050E060E070E004C0440F551FCA
:1028F000661F771F8A95D2F7CB01BA016095709554
:1029000080959095009178021091790220917A0239
:1029100030917B0260237123822393231F910F91B7
:102920000C9428140F931F9341E050E060E070E096
:1029300004C0440F551F661F771F8A95D2F78091F8
:10294000780290917902A0917A02B0917B028A017B
:102950009B01082719272A273B27C901B8011F9186
:102960000F910C9428140F931F93009178021091EB
:10297000790220917A0230917B02602B712B822B9D
:10298000932B1F910F910C9428140F931F93009178
:1029900078021091790220917A0230917B026023B3
:1029A0007123822393231F910F910C9428140F936A
:1029B0001F93009178021091790220917A02309150
:1029C0007B0260277127822793271F910F910C9418
:1029D00028140895E92FEE0FE90FEE0F8E0F982FB0
:1029E000977041E001C0440F9A95EAF78695869565
:1029F000869595E0899FF0011124EF5BFD4F30E053
:102A000020E070E05191DF011197CB01022E02C04E
:102A1000969587950A94E2F781708195852784239E
:102A200085278C932F5F3F4F2530310559F7089547
:102A3000E92FEE0FE90FEE0F8E0F982F9770869506
:102A40008695869525E0829FF0011124EF5BFD4F6E
:102A500050E040E080E0219130E0092E02C0369540
:102A600027950A94E2F721703327042E01C0220F24
:102A70000A94EAF7822B4F5F5F4F4530510559F7B3
:102A80000895BF92CF92DF92EF92FF920F931F9320
:102A9000CF93DF938C01C0907802D0907902E090C0
:102AA0007A02F0907B0280917C0290917D02A0914D
:102AB0007E02B0917F02C82AD92AEA2AFB2ACFE1F6
:102AC000D0E0BC2ED701C6010C2E04C0B695A79548
:102AD000979587950A94D2F780FD0EC0219788F7C5
:102AE000B12C8B2DDF91CF911F910F91FF90EF9023
:102AF000DF90CF90BF900895B8018C2F0E94A1065F
:102B0000019761F3EECFCF93DF93EC010E94411563
:102B1000BE01DF91CF910C94A1061F93CF93DF9359
:102B2000EB0190910602992331F0CB01DF91CF9117
:102B30001F910C948315882379F0CB010E944115D5
:102B4000182F682FCE010E94EA14BE01812FDF9159
:102B5000CF911F910C94A106CB010E941815182F3C
:102B6000F4CF682F80910801909109010C94B2175D
:102B7000682F80910801909109010C94BD178091F4
:102B80000801909109010C94C817809180028595E5
:102B9000859585950895809180028770089590911C
:102BA0008002977081E009F480E008958091A4028A
:102BB00008959091A402892B8093A4020895809592
:102BC0009091A40298239093A40208951092A402D5
:102BD00008959091A302892B8093A3020895809574
:102BE0009091A30298239093A30208951092A302B8
:102BF00008959091A202892B8093A2020895809556
:102C00009091A20298239093A20208951092A2029A
:102C1000089580918102089508950C940C16909166
:102C20008102981721F0809381020C940D1608956B
:102C300080918102882329F01092810280E00C9417
:102C40000D160895E0910801F09109018091A40208
:102C50008083E0910801F091090180819091A302A5
:102C6000892B8083E0910801F09109018081909186
:102C7000A202892B808390918102992381F0E091B7
:102C80000801F09109018081892B808380910801DE
:102C9000909109010E944E1781110E94181680918F
:102CA0000801909109010C94870A08950C94551617
:102CB00098E0899F90011124622B609380020E940A
:102CC0004E14809180028595859585950C945616B5
:102CD0001092800280E00C945616909180028095AC
:102CE000892380938002282F277071F4282F082EC3
:102CF000000C330B9217130639F085958595859551
:102D00000E946F140C9468160895CF92DF92EF9290
:102D1000FF926C01EE24FF2420E0C114D104E104F1
:102D2000F10419F0C701B60120E1C72ED82EE92E13
:102D3000FF24C114D104E104F10419F0285FC70194
:102D4000B6016B017C0154E0F694E794D794C794E4
:102D50005A95D1F7C114D104E104F10419F02C5FA4
:102D6000C701B6016B017C0142E0F694E794D79469
:102D7000C7944A95D1F7C114D104E104F10419F0C4
:102D80002E5FC701B6019695879577956795672B56
:102D9000682B692B09F02F5F822FFF90EF90DF9057
:102DA000CF90089590E080E00E942F2121E08D3E99
:102DB0009E4F09F020E0822F089582E090E00C946D
:102DC000272183E090E00C94272184E090E00C948C
:102DD0002721682F84E090E00C943521AB01BC01E1
:102DE0008FE090E00C944721AB01BC0183E190E0BF
:102DF0000C94472160E070E0CB010C94F41660E085
:102E000070E0CB010E94EE160C94FA166DEE7EEF88
:102E100090E080E00E94532160E082E090E00E9418
:102E2000352160E083E090E00E94352110927C0221
:102E300010927D0210927E0210927F0260E084E088
:102E400090E00E94352160E085E090E00E9435210D
:102E500060E086E090E00E9435216FEF87E090E02F
:102E60000E94352140E050E0BA0188E090E00E94E5
:102E7000472160E08DE090E00E94352140E050E085
:102E8000BA0188E190E00E94472160E087E190E08C
:102E90000E9435210C94FF160C940617FC01329603
:102EA00080911401882321F08091CE029EE187FF5A
:102EB00096E080E0915008F4089521912223D1F307
:102EC0008F5FF8CF9C01FC0132969FEF80E041912B
:102ED000461751F09F3F19F4411101C0982F8F5FA1
:102EE0008630A9F79F3F09F40895290F311D97FDFA
:102EF0003A95F90162830895FC0132960896219172
:102F0000261303C0DF0111971C92E817F907B9F7E0
:102F10000895E62FE695E695E695EE3168F4E80F1C
:102F2000F92FF11D677021E030E001C0220F6A9592
:102F3000EAF78281822B82830895E62FE695E69553
:102F4000E695EE3170F4E80FF92FF11D677021E07E
:102F500030E001C0220F6A95EAF72095828128238C
:102F60002283089520911401222329F02091CE027A
:102F700027FD0C9489170C946217209114012223C9
:102F800029F02091CE0227FD0C949D170C947C17FC
:102F9000FC01329680911401882351F08091CE0279
:102FA00087FF06C08EE1DF011D928A95E9F708953B
:102FB00086E0F9CF08950C94DA170E94DB17809110
:102FC000D402843049F11092A60288E190E020E416
:102FD0000FB6F894A895809360000FBE2093600010
:102FE00080E00E9478050E94DB1783B7817F8460B0
:102FF00083BF83B7816083BF7894889583B78E7FC2
:1030000083BF0FB6F894A895809160008861809383
:103010006000109260000FBE08950895CF930E9443
:10302000E1020E94F4020E940D18C0E08C2F0E9461
:103030005003811105C0CF5FCE30C1F7CF91089505
:1030400081E0FCCF08950C9422180E942A100E945F
:103050007B0A0E9478050C9423181F921FB61F92BA
:1030600011248F939F93AF93BF938091A6028111F8
:1030700013C08091CA029091CB02A091CC02B09172
:10308000CD024196A11DB11D8093CA029093CB023F
:10309000A093CC02B093CD02BF91AF919F918F913D
:1030A0001F901FBE1F90189582E084BD93E095BDD0
:1030B0009AEF97BD80936E0008952FB7F894809192
:1030C000CA029091CB02A091CC02B091CD022FBF49
:1030D0000895CF92DF92EF92FF920F931F932FB735
:1030E000F8944091CA025091CB026091CC02709149
:1030F000CD022FBF6A017B01EE24FF248C0130E05A
:1031000020E0C016D106E206F30650F0481B590B2A
:10311000CA011F910F91FF90EF90DF90CF9008951B
:1031200041505109F3CF78941F921FB61F9211247A
:103130008F939F93AF93BF938091CA029091CB02DC
:10314000A091CC02B091CD020196A11DB11D80933A
:10315000CA029093CB02A093CC02B093CD02BF9150
:10316000AF919F918F911F901FBE1F901895F8945B
:1031700081E08093E00080E28093D800E9ECF0E009
:1031800010828FE19EE40197F1F700C000001DBAA4
:10319000109268001CBC10BE1FBA10927A001092E8
:1031A0006E0010926F0010927100109272001082E7
:1031B000ECEBF0E0108214B817B81AB81DB810BACA
:1031C000108215B818B81BB81EB811BA0C94003F7D
:1031D00008950E94D216811102C00E944C170E94CD
:1031E000DD168093A5020E94E51690E09093CF0231
:1031F0008093CE020E94E116682F70E090E080E09C
:103200000C94EC138091C702089508950F931F93B7
:10321000CF93DF9300D00F92CDB7DEB78C010E9421
:103220003F1B823011F0843021F584E089831B83B9
:103230000A8382E08093E9008FEF9091E80081504B
:1032400095FD06C095ED9A95F1F700008111F5CF37
:103250008091E80085FF0DC050E040E063E070E041
:10326000CE0101960E945C1B8091E8008E778093CE
:10327000E8000F900F900F90DF91CF911F910F9169
:103280000895CF93DF9300D00F92CDB7DEB7209192
:10329000D402243031F523E02983805891099B839F
:1032A0008A8382E08093E9008FEF9091E80081505B
:1032B00095FD06C095ED9A95F1F700008111F5CFC7
:1032C0008091E80085FF0DC050E040E063E070E0D1
:1032D000CE0101960E945C1B8091E8008E7780935E
:1032E000E8000F900F900F90DF91CF910895CF934A
:1032F000DF93EC010E943F1B823011F08430B9F55E
:10330000809114018823B1F18091CE0287FF32C0F1
:1033100060E282E08093E9008FEF9091E8008150B5
:1033200095FD06C095ED9A95F1F700008111F5CF56
:103330008091E80085FF1BC08091140170E050E08F
:1033400040E0811104C050E040E068E070E0CE0150
:103350000E945C1B8091E8008E778093E80080E2F9
:10336000FE01A7EAB2E001900D928A95E1F7DF91A4
:10337000CF91089568E081E0CDCF8091D302811193
:1033800009C00E94EA1C0E94471D8091E2008460EF
:103390008093E20008951092D3020895089508954D
:1033A0000C94251842E061EC81E00E94681C42E226
:1033B00061EC82E00C94681C8091D602833009F4A1
:1033C0005FC030F48130C1F1823009F49BC00895B0
:1033D0008A3009F487C08B3009F46DC0893009F058
:1033E0004EC08091D502813209F049C08091D90246
:1033F0009091DA02029708F042C08091E800877F3E
:103400008093E8008091E80082FF35C09091F3003E
:103410008091F200029729F48091F1008B7F813036
:1034200021F48091F1008093C7028091E8008B77AE
:103430008093E8000C949C1C8091D502813AF9F4A9
:103440008091E800877F8093E8008091D902909175
:10345000DA02892B61F460E287EA92E070E00E9470
:10346000AB1B8091E8008B778093E800089560E0C3
:1034700090E080E0F3CF8091D4028111C3CF089512
:103480008091D502813AD9F78091D9029091DA02E0
:10349000892BA9F78091E800877F8093E8008091CD
:1034A000E80080FFFCCF809114018093F1008091AF
:1034B000E8008E77BDCF8091D502813201F78091EF
:1034C000D9029091DA02892BD1F68091E800877FAA
:1034D0008093E8000E949C1C8091D7028093140185
:1034E0000C942A108091D502813249F68091E8002F
:1034F000877F8093E8000E949C1C8091D802809373
:10350000C80208958091D502813A09F0B8CF809120
:10351000E800877F8093E8008091E80080FFFCCF7F
:103520008091C802C2CF84B7877F84BF0FB6F8945A
:10353000A89580916000886180936000109260007F
:103540000FBE80E880936100109261000E94DB0A48
:103550000E94EA1C0E94471D8091E20084608093D3
:10356000E20078940E94C71F0E94E30A8AE091E07B
:103570000E94760A8091D402853019F00E94F00AE8
:10358000F9CF0E94DD178091D202882399F30E941F
:103590000E18882379F30E94461BECCF0C94D01AA6
:1035A000292F33272330310519F168F421303105F3
:1035B00009F44AC02230310509F44BC090E080E0A4
:1035C00030E020E028C02132310579F12232310586
:1035D000A9F780E490E02CE933E061157105D9F09A
:1035E00081E790E02BE233E061307105A1F0E6CF96
:1035F00099278130910599F0009741F0823091052B
:1036000089F00397D9F6E4EAF2E002C0EAEDF2E0CD
:10361000849190E09F01FA01318320830895E2ECC8
:10362000F2E0F6CFEAEAF2E0F3CF89E090E020EFB3
:1036300032E06115710579F389E090E029E033E02B
:103640006130710541F3BACF82E190E029E133E0C6
:10365000E2CF8BE390E02EED32E0DDCF0895CF9303
:10366000C82F0E942E1BC093C902CF91089580914C
:10367000D402843011F482E0089581E008958091AD
:10368000C902811102C00C94371B089580E189BDE5
:1036900082E189BD09B400FEFDCF8091D8008F7D05
:1036A0008093D8008091E00082608093E000809158
:1036B000E00081FDFCCF0895AF92BF92CF92DF92E0
:1036C000FF920F931F93CF93DF936C01EB018A015D
:1036D0000E94BB1CF82E811123C00115110539F081
:1036E000F80180819181C81BD90BC80ED91EB12C5D
:1036F000A12C2097A9F08091E80085FD22C080913F
:10370000E8008E778093E80001151105A1F0F8011B
:1037100080819181A80EB91EB182A08285E0F82E29
:103720008F2DDF91CF911F910F91FF90DF90CF9060
:10373000BF90AF9008950E94BB1C8823D1F2F82E51
:10374000EFCFF60181916F018093F1002197FFEF98
:10375000AF1ABF0ACECFFC018091DB029091DC0250
:1037600086179707A0F06115710529F49091E8007C
:103770009E779093E80090E06115710551F49111E6
:1037800008C08091E80082FF34C080E00895BC0149
:10379000F2CF8091D4028823C1F18530C1F18091AC
:1037A000E80083FD30C08091E80082FDEACF80917F
:1037B000E80080FFE1CF8091F3002091F200382FE4
:1037C0006115710519F02830310558F091E0283065
:1037D000310509F090E02091E8002E772093E80071
:1037E000CBCF81918093F100615071092F5F3F4FE2
:1037F000E7CF8091D402882341F0853041F0809159
:10380000E80083FFBECF81E0089582E0089583E061
:103810000895FC018091DB029091DC0286179707E6
:10382000A0F06115710529F48091E8008E778093EE
:10383000E80090E06115710551F4911108C0809184
:10384000E80082FF35C080E00895BC01F2CF80918E
:10385000D4028823C9F18530C9F18091E80083FD45
:1038600031C08091E80082FDEACF8091E80080FFBE
:10387000E1CF8091F3002091F200382F611571059E
:1038800019F02830310558F091E02830310509F061
:1038900090E08091E8008E778093E800CBCF849110
:1038A0008093F1003196615071092F5F3F4FE6CF51
:1038B0008091D402882341F0853041F08091E80066
:1038C00083FFBDCF81E0089582E0089583E00895ED
:1038D000982F973028F08F708093E90081E0089549
:1038E0009093E900242F762F50E0981731F07091D3
:1038F000EC002091ED005091F00021FD02C09F5F8F
:10390000E8CF3091EB003E7F3093EB003091ED003B
:103910003D7F3093ED003091EB0031603093EB0050
:103920007093EC002093ED005093F0002091EE0096
:1039300027FDE5CF80E008958091D50287FF13C071
:103940008091E80082FF06C08091E8008B77809329
:10395000E80004C08091D4028111F2CF08958091D3
:10396000D4028823D9F38091E80080FFF8CF8091BA
:10397000E8008E77ECCF2091E4003091E50085E6F9
:10398000A9019091EC0090FF06C09091E80090FF93
:1039900006C080E008959091E80092FDFACF9091E2
:1039A000D402992389F0953089F09091EB0095FD30
:1039B0000FC02091E4003091E5004217530709F34E
:1039C0008150F1F684E0089582E0089583E008953F
:1039D00081E008950E94581D0E94601DE0EEF0E015
:1039E000808181608083E8EDF0E080818F77808343
:1039F00019BCA7EDB0E08C918E7F8C9380818F7E77
:103A000080831092D30208950F931F93CF93DF9377
:103A10000E94581D0E94601DC8EDD0E088818F77FC
:103A2000888388818068888388818F7D888319BC9A
:103A30001092D4021092D0021092D2021092D102AF
:103A400000EE10E0F80180818B7F808388818160A7
:103A5000888342E060E080E00E94681CE1EEF0E0D4
:103A600080818E7F8083E2EEF0E0808181608083C0
:103A7000808188608083F80180818E7F8083888147
:103A800080618883DF91CF911F910F910895E8EDB8
:103A9000F0E080818F7E8083E7EDF0E080818160BF
:103AA000808384E082BF81E08093D3020C94041D64
:103AB000E8EDF0E080818E7F80831092E20008952F
:103AC0001092DA001092E10008951F920F920FB643
:103AD0000F9211242F933F934F935F936F937F9394
:103AE0008F939F93AF93BF93EF93FF938091E100E8
:103AF00082FF0BC08091E20082FF07C08091E1004D
:103B00008B7F8093E1000E94C61F8091DA0080FFC6
:103B100019C08091D80080FF15C08091DA008E7F97
:103B20008093DA008091D90080FF94C080E189BD44
:103B300082E189BD09B400FEFDCF81E08093D4020B
:103B40000E94BD198091E10080FF19C08091E200C0
:103B500080FF15C08091E2008E7F8093E20080910B
:103B6000E20080618093E2008091D80080628093BF
:103B7000D80019BC85E08093D4020E94CF198091AF
:103B8000E10084FF29C08091E20084FF25C080E12C
:103B900089BD82E189BD09B400FEFDCF8091D800C6
:103BA0008F7D8093D8008091E1008F7E8093E1002B
:103BB0008091E2008F7E8093E2008091E20081603C
:103BC0008093E2008091D002882309F449C084E008
:103BD0008093D4020E94D0198091E10083FF29C014
:103BE0008091E20083FF25C08091E100877F809370
:103BF000E10082E08093D4021092D0028091E10033
:103C00008E7F8093E1008091E2008E7F8093E200BE
:103C10008091E20080618093E20042E060E080E019
:103C20000E94681C8091F00088608093F0000E94E0
:103C3000CE19FF91EF91BF91AF919F918F917F919D
:103C40006F915F914F913F912F910F900FBE0F9009
:103C50001F90189519BC1092D4020E94CB1972CFF4
:103C60008091E30087FD02C081E0B2CF83E0B0CF56
:103C70001F920F920FB60F9211242F933F934F93E1
:103C80005F936F937F938F939F93AF93BF93CF93E4
:103C9000EF93FF93C091E900CF708091EC001092F8
:103CA000E9008091F000877F8093F00078940E9473
:103CB000741E1092E9008091F00088608093F000FB
:103CC000C093E900FF91EF91CF91BF91AF919F9188
:103CD0008F917F916F915F914F913F912F910F90B5
:103CE0000FBE0F901F9018951F93CF93DF93CDB702
:103CF000DEB7AA970FB6F894DEBF0FBECDBF85ED35
:103D000092E02091F100FC012193CF01F2E08D3D82
:103D10009F07B9F70E94DC198091E80083FF1EC15C
:103D20008091D5029091D6029A3008F017C1E92F00
:103D3000F0E0E055FE4D0C94F71F803899F0823882
:103D400009F00CC18091D9028F70873008F006C14C
:103D50008093E9008091EB0085FB882780F9109221
:103D6000E90006C08091D1029091D2029111826047
:103D70009091E800977F9093E8008093F100109273
:103D8000F1008091E8008E77E5C0882309F4D3C064
:103D9000823009F0E3C08091D7028111D6C08091B2
:103DA000D9028F702FEF280F263008F0D7C08093EC
:103DB000E9002091EB0020FFC8C0933031F48091DE
:103DC000EB0080628093EB00C0C09091EB009061AB
:103DD0009093EB0021E030E001C0220F8A95EAF7D2
:103DE0002093EA001092EA008091EB008860EACF0D
:103DF0008111B4C01091D7021F778091E3008078C1
:103E0000812B8093E3008091E800877F8093E80016
:103E10000E949C1C8091E80080FFFCCF8091E30011
:103E200080688093E30082E0111183E08093D402E4
:103E300095C08058823008F091C08091D70290914F
:103E4000D8028C3D23E09207A1F583E08A838AE2C1
:103E500089834FB7F894DE01139620E03EE051E2EB
:103E6000E32FF0E050935700E49120FF03C0E29568
:103E7000EF703F5FEF708E2F90E0EA30C0F0C79692
:103E80008D939D932F5F243159F74FBF8091E800A8
:103E9000877F8093E8006AE270E0CE0101960E947D
:103EA000AB1B8091E8008B778093E80057C0C096E9
:103EB000E7CF6091D9027091DA02AE014F5F5F4F98
:103EC0000E94CE1ABC01892B09F448C09091E800E9
:103ED000977F9093E80089819A810E94091CE1CF25
:103EE0008038E1F58091E800877F8093E800809139
:103EF000D0028093F10045CF811130C09091D7025C
:103F0000923060F58091E800877F8093E80090937D
:103F1000D0020E949C1C8091D002882311F084E082
:103F200005C08091E30087FDFACF81E08093D40241
:103F30000E94D21913C08091D702813079F481E0B8
:103F4000933009F080E08093D2021092E9008091D2
:103F5000E800877F8093E8000E949C1C8091E80025
:103F600083FF0AC08091E800877F8093E8008091FA
:103F7000EB0080628093EB00AA960FB6F894DEBF48
:103F80000FBECDBFDF91CF911F9108950895CF93BC
:103F90008091D402882399F0C091E900CF7080917C
:103FA000EC0080FD0EC080E0C82B1092E9008091EB
:103FB000E80083FD0E94741ECF70C093E900CF918A
:103FC000089580E8F1CFAA1BBB1B51E107C0AA1FCF
:103FD000BB1FA617B70710F0A61BB70B881F991FAA
:103FE0005A95A9F780959095BC01CD010895EE0FE3
:103FF000FF1F0590F491E02D09940F931F93CF9329
:10400000DF938230910510F482E090E0E091DF02CE
:10401000F091E00230E020E0B0E0A0E0309799F4C9
:104020002115310509F447C0281B390B243031050F
:10403000C0F58A819B816115710571F1FB01938344
:104040008283FE0111C04081518102811381481792
:104050005907F8F04817590799F4109761F012962C
:104060000C93129713961C933296CF01DF91CF9148
:104070001F910F9108950093DF021093E002F4CF97
:104080002115310519F04217530718F49A01BD01A3
:10409000EF01DF01F801C2CF9093E0028093DF02CD
:1040A000D0CFFE01E20FF31F81939193225031098B
:1040B00039832883DACF2091DD023091DE02232B71
:1040C00041F420910201309103013093DE022093EC
:1040D000DD0220910001309101012115310541F4EB
:1040E0002DB73EB74091040150910501241B350BBB
:1040F000E091DD02F091DE02E217F307A0F42E1B3F
:104100003F0B2817390778F0AC014E5F5F4F24173B
:10411000350748F04E0F5F1F5093DE024093DD02DB
:1041200081939193A2CFF0E0E0E09FCFCF93DF9314
:104130000097E9F0FC01329713821282C091DF02EE
:10414000D091E002DE0130E020E02097A1F4208150
:104150003181820F931F2091DD023091DE022817FA
:10416000390709F067C0F093DE02E093DD02DF91CA
:10417000CF910895DA01AE17BF0708F040C012963C
:104180004D915C9113979D014115510599F7D90106
:104190001396FC93EE9312974D915D91A40FB51F6A
:1041A000EA17FB0779F4808191810296840F951FAD
:1041B000D90111969C938E938281938113969C933F
:1041C0008E931297B0E0A0E08A819B810097B9F5A9
:1041D000FE0181919191E80FF91F8091DD0290918C
:1041E000DE028E179F0719F6109761F51092E00214
:1041F0001092DF02D093DE02C093DD02B8CFB3830A
:10420000A28340815181840F951FA817B90771F4CB
:104210004E5F5F4F8D919C911197480F591F5183AD
:10422000408312968D919C91938382832115310551
:1042300009F0ADCFF093E002E093DF0298CFDE010A
:10424000EC01C2CF13961C921E921297D3CFF9990C
:10425000FECF92BD81BDF89A992780B50895A8E157
:10426000B0E042E050E00C945B21262FF999FECF9C
:1042700092BD81BDF89A019700B4021639F01FBAB9
:1042800020BD0FB6F894FA9AF99A0FBE08950396D6
:10429000272F0E9436210E943521252F0E9436218A
:1042A000242F0C9436210196272F0E9436210C943E
:1042B0003521DC01CB01FC01F999FECF06C0F2BD2E
:1042C000E1BDF89A319600B40D9241505040B8F7D4
:1042D0000895F894FFCF25063106350639063D06C8
:1042E0004106450649064D065106550659065D0626
:1042F0006106650669066D067106B80DB80D170EE4
:10430000170E5D0EE50D840FE50D790EE50D110F0D
:10431000110F7B0FE50DE50DB60F1B0F1B0F1B0FCC
:104320001B0F1B0F1B0F1B0F1B0F1B0F1B0F1B0F3D
:104330001B0F1B0F1B0F1B0F1B0F280F350F3C0FE5
:10434000430F4D0F391039104210421044104210E3
:1043500042104210391039104910421042104910D1
:104360009D1EC51EAE1FC51EAE1FF81E191FAE1F17
:04437000701F7C1F1F
:104374000000E102200020008202021977190519C9
:104384004119061901000D010D020D030D040D055F
:104394000D000C010C020C030C040C050C000B01A9
:1043A4000B020B030B040B050B000A010A020A03A0
:1043B4000A040A050A000901090209030904090596
:1043C4000900080108020803080408050800070199
:1043D4000702070307040705070006010602060390
:1043E4000604060506000501050205030504050586
:1043F4000500040104020403040404050400030189
:10440400030203030304030503000201020202037F
:104414000204020502000101010201030104010575
:0E44240001000001000200030004000500007A
:00000001FF
