:100000000C94F0060C940D070C940D070C940D073E
:100010000C940D070C940D070C940D070C940D0710
:100020000C940D070C940D070C9460320C94333330
:100030000C94E42A0C940D070C940D070C940D07F6
:100040000C940D070C940D070C940D070C940D07E0
:100050000C940D070C944A2B0C940D070C940D076F
:100060000C940D070C940D070C940D070C940D07C0
:100070000C940D070C940D070C940D070C940D07B0
:100080000C940D070C940D070C940D070C940D07A0
:100090000C940D070C940D070C940D070C940D0790
:1000A0000C940D070C940D070C940D077374617478
:1000B00069635F636173743C3E007265696E746569
:1000C00072707265745F636173743C3E0064796E34
:1000D000616D69635F636173743C3E00636F6E734F
:1000E000745F636173743C3E0067697420636F6D75
:1000F0006D6974202D2D616D656E640067697420D3
:10010000636F6D6D6974202D6D20272700676974FA
:1001100020737461747573006769742070756C6CFA
:100120000067697420636865636B6F757400676945
:100130007420666574636800676974206C6F67205B
:100140002D2D6F6E656C696E6500676974206C6F2C
:1001500067006769742064696666202D2D73746179
:10016000676564006769742064696666006769741E
:1001700020616464202E00766F6C6174696C650088
:1001800001E0011B021B012D022D02E00001E00134
:100190001B021B012E022E02E0007669727475614B
:1001A0006C0065787465726E006E756C6C7074723C
:1001B000006F70657261746F72003A2D28003A2DDD
:1001C0002900636F6E73740001330233006272653D
:1001D000616B000133023300636F6E74696E756585
:1001E00000747970656E616D650074656D706C6129
:1001F0007465000128022801E1012F022F02E101AC
:1002000028022801E10130023002E101330233010A
:10021000520252012B022B00676F6F64206E6967D8
:1002200068740001E0011B021B02E0014F024F0055
:1002300001E0011B021B02E0015002500001E2013B
:10024000E1012D022D02E102E20001E001E1012DB8
:10025000022D02E102E00001E0011B021B01160277
:100260001602E00001E0011B021B0114021402E06F
:10027000006E616D65737061636500676F6F642008
:100280006D6F726E696E6700676974206C6F6720AE
:100290002D2D6F6E656C696E65202D2D67726170F6
:1002A00068202D2D6465636F726174653D73686F9E
:1002B0007274006F626A64756D70202D4354202D36
:1002C00078202D640001320232010C020C0111026F
:1002D0001101060206010F020F01180218010702A0
:1002E00007010802080072657475726E000116023B
:1002F000160117021701150215011802180106024E
:1003000006011702170128022801E1012F022F021E
:10031000E10128022801E10130023002E10133024B
:1003200033012802280152025201520252015202A4
:100330005201520252014D024D012C022C000106C5
:100340000206010F020F0104020401160216011633
:1003500002160128022801E1012F022F02E10128E3
:100360000228011302130118021801050205010FEA
:10037000020F010C020C0106020601E101330233F7
:1003800002E10128022801280228011302130115A5
:100390000215010C020C01190219010402040117D3
:1003A00002170108020801E10133023302E10128CA
:1003B000022801E10130023002E101330233012859
:1003C00002280152025201520252015202520152BB
:1003D0000252015202520152025201520252014D86
:1003E000024D012C022C00707269766174650070F8
:1003F000726F746563746564007075626C69630024
:1004000001270227011B021B000128022801E1012C
:100410002F022F02E10128022801E10130023002FF
:10042000E101520252012B022B0029002B0039421C
:10043000D85C2F6100001E00140004001D00306411
:100440004D451F001A0016001B0032002A642000D0
:1004500008000700060050002C612100150009006B
:1004600019434F004A00220017000A00054400000B
:10047000025350020151000006510000175C4F0268
:100480000151000006510000175C23001C000B0006
:10049000114400004900240018000D0010435200D0
:1004A0004B0025000C000E00360051002C61260088
:1004B00012000F0037002D002864270013003300BE
:1004C00038002F644E452A004C002842D95C306128
:1004D00000000100010001000100010000003A00DD
:1004E0001E0223026400010001003B001F022402DF
:1004F0006402010001003C002002250235000100D9
:1005000001003D0021022D022D00010001003E00EE
:10051000220232003800000001000100010000004A
:1005200001000000010001000100000001000000C6
:1005300001003F002D002F022F00000001004000AD
:100540002E02300230000100010041002E00330075
:10055000360201000100420034023400370201007B
:100560000100430032023200380201000100440061
:100570004500010001000100000001000100010030
:1005800001002E0000000400250238002D002E027C
:1005900001000500240021001E00270001000600C4
:1005A000250022001F00360001000700260023005E
:1005B0002000370001000800250238002D0000004F
:1005C00001000900013000000100000001000400EA
:1005D0000130000001000000010005002502380084
:1005E0002D00000001000600240021001E0027004D
:1005F00001000700250022001F003600010008004E
:1006000026002300200037000100090025023800E1
:100610002D002E02010001000100010001002E004A
:100620000000000000000000010050000000000079
:100630004A004D0052005100000000000000500030
:1006400000004F0001000000520051005100000066
:100650000100000000004F00010000000000000049
:100660004B004E00000000000000000000000000F1
:10067000000000000000000000000000000000007A
:10068000000000004B004E000000000000000000D1
:100690000000500001000000000000005200510066
:1006A000510000000100000000004F000000500059
:1006B000010000004A004D005200510000000000FF
:1006C0000000000001004F000000000000000000DA
:1006D000F400F2000000000000000000F000F10053
:1006E00000000000F400F200F500F300000000003C
:1006F000F000F100F100000000000000F500F30040
:1007000000000000000000000000000001000000E8
:1007100000000000000000000000000000000000D9
:1007200000000000000000000000000000000000C9
:100730000100000000000000F400F20000000000D2
:1007400000000000F000F100F100000000000000D7
:10075000F500F300F400F2000000000000000000CB
:10076000F000F1000000000000000000F500F300C0
:100770000000000000000000000000000000000079
:100780001B30000000000000010000002630063091
:100790002230083000001E302030093005300000C3
:1007A00000001D30073000002330000000001C3026
:1007B00017300A301A30000000000000000000006E
:1007C0000000000000000000000000000000000029
:1007D00000301F30183000000C30000016300000D0
:1007E000193000000B300000000000000430000051
:1007F0001430000000000000033021300000000031
:1008000000000000023000000000000001000000B5
:1008100000000000000000000000000000000000D8
:1008200000000000000000000E300000000000008A
:100830000000000000000F30000000000000000079
:1008400000000000000000000000000000000000A8
:100850000000000000000000000000000000000098
:100860000000123000000000010000000000133002
:1008700000000000010000000000253010300000E2
:100880000000000000002430113050020000000081
:10089000000000005202510251020000000000005E
:1008A00000004F02000000000000000000000000F7
:1008B0000000000000000000000000000000000038
:1008C000000000000000000000002A2B28000000AB
:1008D00000000000000000000000000000290000EF
:1008E00000002C1E3420212224342627252E362DCC
:1008F0003738271E1F202122232425263333362E66
:1009000037381F0405060708090A0B0C0D0E0F10D7
:100910001112131415161718191A1B1C1D2F31301C
:10092000232D350405060708090A0B0C0D0E0F10C0
:100930001112131415161718191A1B1C1D2F3130FC
:10094000354C000000000000000000000000000026
:100950000000000000000000000000000000000097
:100960000000000000000000000000000000000087
:100970000000000000000000000000000000000077
:100980000000000000000000000000000000000067
:100990000000000000000000000000000000000057
:1009A0000000000000000000000000000000000047
:1009B0000000000000000000000000000000000037
:1009C0000000000000000000000000000000000027
:1009D0000000000000000000000000000000000017
:1009E00000000001010101010100010101010000FD
:1009F00000000000000000000000000001000100F5
:100A000001010101010101010101010101010101D6
:100A100001010101010101010101010101000000C9
:100A200001010000000000000000000000000000C4
:100A300000000000000000000000000000010101B3
:100A4000010000047F3F1F643214643214783C1E9E
:100A50001E140A052223252628292A2C2D2F303260
:100A6000333536383A3B3D3E4042434547494A4C90
:100A70004E5051535557595A5C5E606264666869BE
:100A80006B6D6F71737577797B7D7F8183858789C6
:100A90008A8C8E90929496989A9C9E9FA1A3A5A7CB
:100AA000A8AAACAEAFB1B3B4B6B8B9BBBCBEBFC1F7
:100AB000C2C3C5C6C7C9CACBCCCDCED0D1D2D2D382
:100AC000D4D5D6D7D7D8D9D9DADADBDBDBDCDCDC96
:100AD000DCDCDDDDDDDDDCDCDCDCDCDBDBDBDADA59
:100AE000D9D9D8D7D7D6D5D4D3D2D2D1D0CECDCCD0
:100AF000CBCAC9C7C6C5C3C2C1BFBEBCBBB9B8B6E5
:100B0000B4B3B1AFAEACAAA8A7A5A3A19F9E9C9A6F
:100B100098969492908E8C8A89878583817F7D7B3D
:100B200079777573716F6D6B6968666462605E5C1E
:100B30005A5957555351504E4C4A494745434240E4
:100B40003E3D3B3A3836353332302F2D2C2A29287A
:100B500026252322FFAA7F55400000000000000048
:100B60000000000101010101010101010202020274
:100B70000202020203030303030303040404040444
:100B80000505050505060606060607070707080802
:100B900008080909090A0A0A0B0B0B0C0C0C0D0DAD
:100BA0000D0E0E0E0F0F1010101111121213131440
:100BB00014151516161717181819191A1A1B1C1CB4
:100BC0001D1D1E1F1F20212122232324252526270A
:100BD0002828292A2B2C2C2D2E2F3031313233343A
:100BE00035363738393A3B3C3D3E3F40414243443D
:100BF00045464748494B4C4D4E4F5052535455571C
:100C000058595A5C5D5E606163646567686A6B6CC5
:100C10006E6F7172747677797A7C7D7F818284863B
:100C200087898B8D8E9092949597999B9D9FA1A279
:100C3000A4A6A8AAACAEB0B2B4B6B9BBBDBFC1C37E
:100C4000C5C8CACCCED0D3D5D7DADCDEE1E3E6E83E
:100C5000EAEDEFF2F4F7F9FCFF04033000000016B0
:100C6000034500720067006F0044006F00780020A9
:100C70000045005A00000016034500720067006F2F
:100C80000044006F007800200045005A0000000476
:100C900003090409023B00020100A0FA0904000054
:100CA0000103010100092111010001224000070593
:100CB000810308000A090401000103000000092162
:100CC0001101000122C0000705820320000A120161
:100CD000100100000008EDFE0713010001020301EE
:100CE00005010902A10185020901A10005091901F7
:100CF00029051500250195057501810295017503EA
:100D000081010501093009311581257F950275089A
:100D1000810609381581257F950175088106050C26
:100D20000A38021581257F950175088106C0C00526
:100D3000010980A10185031601002603001A810024
:100D40002A8300751095018100C0050C0901A101DD
:100D50008504160100269C021A01002A9C027510C7
:100D600095018100C005010906A101850505071946
:100D7000E029E7150025019508750181020508198C
:100D800001290595057501910295017503910105EC
:100D900007190029EF1500250195F075018102C0A2
:100DA00005010906A101050719E029E7150025013C
:100DB00095087501810295017508810105081901E1
:100DC00029059505750191029501750391010507A6
:100DD000190029FF150026FF00950675088100C03F
:100DE00011241FBECFEFDAE0DEBFCDBF11E0A0E0DF
:100DF000B1E0E6E0FEE602C005900D92A63FB10725
:100E0000D9F723E0A6EFB1E001C01D92A738B207E1
:100E1000E1F70E948C2F0C948B360C94000080B369
:100E20008C7080BB81B3836F81BB089584B1807F58
:100E300084B985B1807F85B98AB1837F8AB98BB146
:100E4000837F8BB93E9846980895CF93C82F8730FB
:100E500070F58091060190910701892B89F564E670
:100E600070E080E40E94600890930701809306017F
:100E7000892BD1F464E670E082E10E94BC08909373
:100E8000070180930601892B79F481E090E001C08D
:100E9000880FCA95EAF764E670E080950E94BC0866
:100EA0009093070180930601CF910C940F098A302B
:100EB000B9F040F4883071F0893079F0209A2898A0
:100EC000CF9108958C3091F070F08D30B9F73E9A43
:100ED0004698F6CF219A2998F3CF229A2A98F0CFF4
:100EE000239A2B98EDCF529A5A98EACF539A5B984F
:100EF000E7CFCF93873008F040C0809106019091F2
:100F00000701C0E0892B71F464E670E080E40E9480
:100F100060089093070180930601892B31F0C0E0AF
:100F20000E940F098C2FCF91089564E670E083E151
:100F30000E94BC089093070180930601892B79F7E2
:100F400064E670E081E40E9460089093070180935A
:100F50000601892B21F784E690E00E94EB0897FFB9
:100F600005C09093070180930601D9CFC82FC09583
:100F70001092070110920601D3CFCFB18FB18695A1
:100F800086958C73C3708C2BC82FC095CBCF0895DA
:100F90000C94AD0B0E94940990E09093070180930C
:100FA00006010E9416070E940F07E7EFF1E0A5E097
:100FB000B2E011921D9282E0E530F807D1F78EE0A1
:100FC0000E9472140C94A50F0E94940990E09093D3
:100FD0000701809306010E9416070E940F07E7EFA2
:100FE000F1E0119282E0E530F807D9F70895EF9229
:100FF000FF920F931F93CF93DF93809106019091FF
:101000000701892B91F08091F6018F5F8093F601A3
:1010100081110BC00E94940990E090930701809386
:101020000601892B11F40E943E0905E012E0C0E0A0
:10103000D0E087E0E82EEC0E8C2F0E9425078E2D45
:101040000E9425078C2F0E947907F80191918F014A
:10105000F12C891721F031978083FF24F3948E2D92
:101060000E947907F80196818917D9F0868381E07B
:101070008F29D82B0E941607CF5FC730D1F62D2FAE
:101080004EE067EF71E085E092E00E94FD140E945F
:10109000AF0F81E0DF91CF911F910F91FF90EF9003
:1010A000089580E0E5CFE82FF0E0E950FE4F808121
:1010B000089508951092B9008CE08093B8000895C7
:1010C000EF92FF920F931F93CF93DF93182FEB01B3
:1010D0001092BC0084EA8093BC000E94142B7C0117
:1010E0008091BC0087FF27C08091B900887F88303D
:1010F00029F08091B900887F8031D9F51093BB0029
:1011000084E88093BC000E94142B8C018091BC0069
:1011100087FF24C02091B900287F90E080E028312B
:10112000B1F081E090E0203411F490E080E09195FE
:10113000819591090CC0CF3FDC0791F20E94142BDE
:101140008E199F098C179D0758F28EEF9FEFDF9144
:10115000CF911F910F91FF90EF900895CF3FDC0743
:10116000A9F20E94142B801B910B8C179D0770F223
:10117000ECCF8FEF9FEFEBCF0F931F93CF93DF93C6
:10118000EB018093BB0084E88093BC000E94142B89
:101190008C018091BC0087FF11C02091B900287F8D
:1011A00081E090E0283211F490E080E09195819503
:1011B0009109DF91CF911F910F910895CF3FDC07E7
:1011C00041F30E94142B801B910B8C179D0708F391
:1011D0008EEF9FEFEECF0F931F93CF93DF93EC0132
:1011E00084E88093BC000E94142B8C018091BC0089
:1011F00087FF08C08091BB0090E0DF91CF911F91E5
:101200000F910895CF3FDC0789F30E94142B801BB8
:10121000910B8C179D0750F38EEF9FEFEECF84E973
:101220008093BC000895259A2D9A0895269A2E9AA7
:101230000895279A2F9A089556985E9808952598AC
:101240002D98089526982E98089527982F980895F8
:101250000E941C090E941F090E9422090C94250962
:1012600090E0909389008093880090938B00809306
:101270008A0090938D0080938C0008950E94280925
:101280008FEF0E9430090E9413092FEF80E792E050
:10129000215080409040E1F700C000000E941609F4
:1012A0002FEF80E792E0215080409040E1F700C0AE
:1012B00000000E9419092FEF80E792E02150804042
:1012C0009040E1F700C000000E941F092FEF80E767
:1012D00092E0215080409040E1F700C000000E9461
:1012E00022092FEF80E792E0215080409040E1F703
:1012F00000C000000E9425090C94280989EA809307
:10130000800089E08093810024982C983F988AB1CE
:101310008F7C8AB96E98479A8BB180638BB9769A25
:101320000E943E090C94C70780E290E09093070169
:10133000809306018091130281110EC00E945A0809
:1013400081E0809313022FEF83ED90E321508040E2
:101350009040E1F700C0000064E670E080E40E9485
:1013600060089093070180930601892B09F04EC015
:1013700064E670E080E00E94BC08909307018093CF
:101380000601892B09F042C064E670E080E00E940B
:10139000BC089093070180930601892BB9F564E698
:1013A00070E08FE30E94BC089093070180930601D0
:1013B000892B61F50E940F0964E670E080E40E94C9
:1013C00060089093070180930601892BF9F464E685
:1013D00070E08CE00E94BC089093070180930601A6
:1013E000892BA1F464E670E080E00E94BC08909331
:1013F000070180930601892B49F464E670E08FE3CE
:101400000E94BC0890930701809306010E940F0977
:10141000809106010895EF92FF921F93CF93DF937F
:10142000CDB7DEB7FE01389611917F0180E0111132
:1014300006C0DF91CF911F91FF90EF900895143077
:1014400038F08130A9F0882361F0823069F010E033
:10145000F701908197012E5F3F4F7901812F192F5E
:10146000E6CF812F0E94CE1E812F0E94D71FEFCF83
:10147000812F0E94CE1EEBCFDC01673208F00EC137
:10148000E62FF0E0E357F94C0C94063512968C9158
:10149000882309F403C189E094E0089512968C91A1
:1014A000882309F4FBC080E094E0089512968C91A3
:1014B000882309F4F3C089EF93E00E94A20FEEC0E5
:1014C00012968C91882309F4E9C08FEE93E0F5CF52
:1014D00012968C91882309F4E1C087EE93E0EDCF5A
:1014E00012968C91882309F4D9C08EE393E0089575
:1014F00012968C91882309F4D1C08DEE92E0089564
:1015000012968C91882309F4C9C086EE92E0D5CF5B
:1015100012968C91882309F4C1C085EC92E008955D
:1015200012968C91882309F4B9C083EB92E0C5CF61
:1015300012968C91882309F4B1C088E892E0BDCF5F
:1015400012968C91882309F4A9C08BE792E0B5CF5D
:1015500012968C91882309F4A1C081E792E0ADCF67
:1015600012968C91882309F499C084E692E008953C
:1015700012968C91882309F491C087E592E0089532
:1015800012968C91882309F489C08AE492E0089528
:1015900012968C91882309F481C08DE392E008951E
:1015A00012968C91882309F479C080E392E0089523
:1015B00012968C91882309F471C083E292E0089519
:1015C00012968C91882309F469C088E192E075CF66
:1015D00012968C91882309F461C083EF91E00895FD
:1015E00012968C91882309F459C08AEE91E065CF58
:1015F00012968C91882309F451C081EE91E05DCF61
:1016000012968C91882309F449C088ED91E00E94DC
:10161000A20F83ED91E0089512968C918823F1F149
:101620008DEC91E00E94A20F88EC91E00895129653
:101630008C91882399F182EC91E03FCF12968C91A6
:10164000882361F18EEB91E038CF12968C9188233C
:1016500029F18AEB91E031CF12968C918823F1F039
:101660001F921F921F9281EE8F931F9292E09F9381
:101670001F9295E29F931F922DE22F931F929F93AB
:101680001F928F9381E08F930E940B0A8DB79EB7B4
:101690000F960FB6F8949EBF0FBE8DBF90E080E00E
:1016A000089512968C918823C9F31F921F921F925E
:1016B00081EE8F931F9292E09F931F9297E29F93E8
:1016C0001F929DE29F931F9296E29F931F9296E036
:1016D0009F931F928F9381E08F930E940B0A8DB787
:1016E0009EB741960FB6F8949EBF0FBE8DBFD6CF62
:1016F00012968C91882391F281EB91E0DECE1296C6
:101700008C91882359F289EA91E0D7CE12968C9178
:10171000882321F282EA91E0D0CE12968C91882320
:1017200009F4BCCF8AE991E0C8CE12968C91882347
:1017300009F4B4CF8DE891E0089512968C91882336
:1017400009F4ACCF80E891E0089512968C9188233B
:1017500009F4A4CF87E791E0B0CE809132028823CC
:1017600009F495C180913002909131020E94202BA2
:101770008132934008F48BC1109232020E940D1CFA
:1017800080912602909127020A9709F09FC18091CB
:10179000280290912902049709F47AC180912802C5
:1017A00090912902079729F580912A0290912B02A6
:1017B00020912C0230912D02822B932B20912E020E
:1017C00030912F02822B932B892B09F00FC284E6D4
:1017D00091E00E94A20F80912602909127020A9721
:1017E00009F074C18091280290912902079709F4A9
:1017F000FDC180912802909129020F9729F58091CF
:101800002A0290912B0220912C0230912D02822BE2
:10181000932B20912E0230912F02822B932B892B18
:1018200009F004C28AE491E00E94A20F809126028E
:10183000909127020A9709F049C18091280290915E
:1018400029020F9709F4F2C1809128029091290290
:101850000997E9F480912A0290912B0220912C02A1
:1018600030912D02822B932B20912E0230912F024A
:10187000822B932B892B71F58EE291E00E94A20FAF
:1018800080912602909127020A9709F01FC180914A
:101890002802909129024297E9F480912A029091BE
:1018A0002B0220912C0230912D02822B932B209120
:1018B0002E0230912F02822B932B892B71F581E21E
:1018C00091E00E94A20F80912602909127020A9730
:1018D00009F0FCC080912802909129024397E9F415
:1018E00080912A0290912B0220912C0230912D029E
:1018F000822B932B20912E0230912F02822B932B3F
:10190000892B79F588E191E00E94A20F809126024F
:10191000909127020A9709F0D9C0809128029091EE
:1019200029024697F1F480912A0290912B0220918E
:101930002C0230912D02822B932B20912E0230917C
:101940002F02822B932B892B09F03FC08DE091E071
:101950000E94A20F80912602909127020A9709F017
:10196000B5C08091280290912902069771F5809167
:101970002A0290912B0220912C0230912D02822B71
:10198000932B20912E0230912F02822B932B892BA7
:1019900009F06CC18CEF90E00E94A20F1F921F9281
:1019A00080E58F930E940B0A0F900F900F9080910B
:1019B0002602909127020A9709F088C08091280298
:1019C00090912902069709F451C1809126029091C5
:1019D0002702C89709F05BC08091280290912902E4
:1019E00020912A0230912B02822B932B20912C02E2
:1019F00030912D02822B932B20912E0230912F02B9
:101A0000822B932B892B09F042C01F921F921F92A9
:101A10008CE28F931F928DE48F931F9282E58F93B8
:101A20001F9248E34F931F9281EE8F931F9232E0F3
:101A30003F931F9295E29F931F928F931F9221E0F5
:101A40002F931F9258E25F931F928F931F923F93A1
:101A50001F929F931F928F931F922F931F925F93BA
:101A60001F928F931F923F931F929F931F929F935A
:101A70001F928F931F922F934F930E940B0A8DB743
:101A80009EB78F960FB6F8949EBF0FBE8DBF089578
:101A900080912A0290912B0220912C0230912D02EC
:101AA000822B932B20912E0230912F02822B932B8D
:101AB000892B09F09ECE8DE691E00E94A20F8091C5
:101AC0002602909127020A9709F468CE8091260297
:101AD00090912702069709F078CF80912802909183
:101AE0002902069709F4DBC080912802909129020F
:101AF000079739F580912A0290912B0220912C02B0
:101B000030912D02822B932B20912E0230912F02A7
:101B1000822B932B892B09F041C08DEC90E00E9421
:101B2000A20F1F921F9280E58F930E940B0A0F90C5
:101B30000F900F908091260290912702069709F04E
:101B400044CF8091280290912902459739F58091E0
:101B50002A0290912B0220912C0230912D02822B8F
:101B6000932B20912E0230912F02822B932B892BC5
:101B700009F08DCF8AEB90E00E94A20F1F921F9276
:101B800080E58F930E940B0A0F900F900F90809129
:101B9000260290912702069709F017CF809128021C
:101BA00090912902469709F072CF80912A02909174
:101BB0002B0220912C0230912D02822B932B20910D
:101BC0002E0230912F02822B932B892B09F05FCFAD
:101BD0008CEA90E00E94A20F1F921F9280E58F93E3
:101BE0000E940B0A0F900F900F90EFCE80912A0267
:101BF00090912B02469709F027CE80912C0290916C
:101C00002D0220912E0230912F02822B932B892BB3
:101C100009F01ACE82E591E00E94A20F809126027F
:101C2000909127020A9709F4E4CD50CF80912A02BF
:101C300090912B02429709F02ACE80912C0290912C
:101C40002D0220912E0230912F02822B932B892B73
:101C500009F01DCE88E391E00E94A20F8091260238
:101C6000909127020A9709F4EFCD30CF80912A0294
:101C700090912B02049709F0A8CE80912C029091AC
:101C80002D0220912E0230912F02822B932B892B33
:101C900009F09BCE89EE90E00E94A20F17CF8091B1
:101CA0002A0290912B0220912C0230912D02822B3E
:101CB000932B20912E0230912F02822B932B892B74
:101CC00009F03FCF8CED90E00E94A20F1F921F926F
:101CD00080E58F930E940B0A0F900F900F908091D8
:101CE000260290912702069709F4FECE6ECE0F933E
:101CF0001F93CF93DF938C01EB019A9581159F4140
:101D000038F510FF03C080EEFB01099511FF03C0F9
:101D100081EEFE01099512FF03C082EEFE010995D6
:101D200013FF03C083EEFE0109950115104180F0F9
:101D300084EEFE01099585EEFE01099586EEFE0111
:101D4000099587EEFE01DF91CF911F910F910994C4
:101D5000DF91CF911F910F910895877091E001C09D
:101D6000990F8A95EAF7892F0E94ED280C9426296D
:101D70000C94AD0E877091E001C0990F8A95EAF737
:101D8000892F0E94F3280C9426290C94BA0ECF9325
:101D9000DF93EC01805E9109089720F06DEA7EE008
:101DA000209711F468EB7EE0CE010E94770E8C2F15
:101DB000DF91CF910C94CE1ECF93DF93EC010E9464
:101DC000D71FCE01805E9109089720F06AEB7EE074
:101DD000209711F465EC7EE0CE01DF91CF910C9459
:101DE000770ECF93DF93EC010E94C70ECE01DF91F7
:101DF000CF910C94DC0E81E0089581E008950C945D
:101E0000FD0E1F93CF93DF9300D000D00F92CDB77C
:101E1000DEB749835A836B832091590289819A8165
:101E200021111BC06623A9F00E944228182F682F99
:101E300089819A810E94EB2769817A81812F0F9095
:101E40000F900F900F900F90DF91CF911F910C94F6
:101E5000F2110E941928182FEFCF0E9442286981A1
:101E60007A81EDCFFC01408151816281738184814F
:101E70000C94010F1F93CF93DF9390E0FC01EE537E
:101E8000F74F1491FC01EE53F64FD4918E5B964FB1
:101E9000FC01C491DD2319F081EE0E94CE1ECC23FB
:101EA00019F086EE0E94CE1E812F0E942D20CC2399
:101EB00019F086EE0E94D71FDD2331F081EEDF910D
:101EC000CF911F910C94D71FDF91CF911F9108954F
:101ED000FF920F931F93CF93DF938C01F62EF8019F
:101EE0008491882349F1E8012196813049F4FE016B
:101EF0001491812F0E94CE1E812F0E94D71F06C0F1
:101F0000823089F4FE0184910E94CE1E8E010F5F03
:101F10001F4F8F2D815018F3EFE9FFE03197F1F754
:101F200000C00000F7CF833019F4FE018491E5CFA3
:101F30000E943A0FE801EACFDF91CF911F910F91F4
:101F4000FF90089560E00C94680F0E948929811128
:101F500002C00E94032A0E944A150C947E090C9428
:101F6000C807282F2F7041F0822F90E02A3010F4FC
:101F70004D9608950697089587E290E00895089594
:101F80000C94BF0F0C94C00F08950E942B230E9445
:101F9000C40F2FEF84E39CE0215080409040E1F794
:101FA00000C000000C946E2B0F931F93CF93DF9310
:101FB0008C010E94320FEC01B8010E94FF0E8823B1
:101FC00009F4DAC0B801CE010E94C115882309F4D2
:101FD000D3C0B801CE010E94341C882309F4CCC0C0
:101FE000B801CE010E94DC1C882309F4C5C0CB3C9B
:101FF0008CE5D80709F4FEC008F054C0C43CECE5F9
:10200000DE0709F4D0C048F5C5318CE5D807A8F43F
:10201000C2309CE5D90708F052C1C115ECE5DE07D6
:1020200009F4A5C0C130DC4509F4ACC0C801DF919A
:10203000CF911F910F910C94FB0EC6318CE5D80700
:1020400009F4AFC1C33CDC4589F7F80182818823DC
:1020500009F492C00E946A1A8FC0C73CECE5DE0703
:1020600009F4B7C080F4C53C8CE5D80709F4A6C0D4
:10207000C63CDC45D9F6F8018281882309F47CC08E
:102080000E94471879C0F8018281C93CFCE5DF074E
:1020900009F4ABC008F4A4C0882309F46DC00E9401
:1020A00081186AC0C23DECE5DE0709F4D7C070F5BF
:1020B000CE3C8CE5D80709F4ADC088F4CC3CECE507
:1020C000DE0709F49FC0CD3CDC4509F0AFCFF80135
:1020D0008281882309F450C00E94EA164DC0F8019D
:1020E0008281C03DFCE5DF0709F4AAC008F49BC06B
:1020F000882309F441C00E94D116893028F00E943B
:10210000D1168E3008F462C089E08AC0C63DECE585
:10211000DE0709F4C6C0B0F4F8018281C43DFCE5D5
:10212000DF0709F4B9C008F4A9C0882329F10E9487
:10213000D116893128F00E94D116823208F446C0A7
:1021400089E16EC0CE3DECE5DE0709F4B1C0CF3DBC
:10215000FCE5DF0709F1CD3DDC4509F067CFF8016B
:102160008281882349F080E00E942A3005C0F8016E
:10217000828181110E94C50F80E0DF91CF911F9174
:102180000F910895F80182818823B1F38091F802BC
:1021900081608093F802F0CFF8018281882361F397
:1021A0000E94032AE9CFF8018281882329F30E9443
:1021B000D728827259F00E945C1ADECFF801828122
:1021C0008823D1F20E94D7288272A9F30E944F1A65
:1021D000D3CFF8018281882379F20E945418CCCFA2
:1021E000882351F20E946318C7CF882329F20E94E6
:1021F0007218C2CFF8018281882309F4BDCF0E94F2
:102200009018BACFF8018281882309F4B5CF0E94D3
:10221000D916B2CFF8018281882309F4ADCF81E0CD
:102220000E945F1AA9CF882309F4A6CF0E94D11675
:10223000823020F00E94D116853040F282E0F0CF4B
:10224000882309F499CF0E94D116863028F00E9485
:10225000D116883008F4BACF86E0E2CFF801828147
:10226000882309F489CF0E94D1168F3028F00E946C
:10227000D116843108F4AACF8FE0D2CF882309F495
:102280007BCF0E94D116853128F00E94D11687316C
:1022900008F49CCF85E1C4CF882309F46DCF88E191
:1022A000BFCFF8018281882309F466CF83E2B8CFDB
:1022B000F8018281882309F45FCF82E055CFF801CD
:1022C0008281882309F4B2CE0E948929811102C03B
:1022D0000E94032A0E949C2990E0909375038093AA
:1022E0007403FE01E350FC45809174038160E23188
:1022F000F10538F4EC54F94C0C94063580917403D4
:10230000826080937403809174030E94A0290E94CC
:102310002B2332CF809174038460F3CF80917403B8
:102320008860EFCF809174038061EBCF809174035C
:102330008062E7CF809174038064E3CF809174035F
:102340008068DFCF809174038C60DBCF8091740351
:102350008E7FD7CF809174038D7FD3CF809174030C
:102360008B7FCFCF80917403877FCBCF8091740315
:102370008F7EC7CF809174038F7DC3CF809174030C
:102380008F7BBFCF809174038F77BBCF8091740315
:10239000837FB7CF90917403892F97FB87F980587B
:1023A000B0CF0E94D728F8019281992381F08A7AD0
:1023B00091E009F490E090931402811106C089E243
:1023C0000E94B2280E942629D7CE85E3F9CF8091BA
:1023D0001402811104C089E20E94B928F3CF85E379
:1023E000FBCF0895972F70E026E0929F600D711D3E
:1023F0001124FB0194E5899FE00DF11D1124EE0FDE
:10240000FF1FE65DFB4F859194910895FC01EE0F4F
:10241000FF1FEE5BF54F859194910895CF93DF9365
:102420000E94F2110E94D413EC01811520E592075D
:1024300008F042C0811530E4930708F018C1883EC7
:10244000910528F5803E910508F0A4C0883A9105D1
:1024500088F4853A910508F093C08130910509F41C
:1024600099C0009709F496C0049708F093C0D0E093
:10247000C0E090C08F3B910508F490C0805C91094A
:10248000C03CD105A0F30E940612EC0183C0811567
:10249000904250F4C11581E0D80708F07BC0C03FDE
:1024A000D10528F3D06576C0C11590E3D90708F0AF
:1024B000D4C0CE019F70E7CF811525E5920758F56E
:1024C000811534E5930708F001C1811542E59407B1
:1024D00050F4C11581E5D80708F4CCC0DC2FCC2717
:1024E000C16FD06A57C0982F969596959E0123701C
:1024F0003327C115D34508F0DAC0C1E0D0E002C0EF
:10250000CC0FDD1F2A95E2F720E2929FC001112433
:10251000C82BD92BCAC0C1158AE5D807A0F4C115AC
:1025200099E5D90708F0E2C0C11526E5D20708F4FD
:10253000D2C0C11538E5D30708F499CFDC2FCC27DA
:10254000C06FD06A27C0C1154BE5D40708F48FCF00
:10255000C1158CE5D80708F4D9C0CE019056811575
:10256000904208F084CF8D2F8F710E944F1490E01D
:10257000982F882788279F719C012C2BE901B4C0D4
:10258000853A910509F4C5C0863A910509F0C4C0A1
:10259000C2E8D0E4CE01DF91CF910895883A910549
:1025A00009F4BDC0893A910509F4BCC08A3A910585
:1025B00009F4BBC08B3A910509F4BAC08C3A910575
:1025C00009F4B9C08B3B910509F4B8C08C3B910567
:1025D00009F4B7C08D3A910509F4B6C0803B910566
:1025E00009F4B5C08E3A910509F4B4C08F3A91054B
:1025F00009F4B3C0813B910509F4B2C0823B910557
:1026000009F4B1C0833B910509F4B0C0843B910546
:1026100009F4AFC0853B910509F4AEC0863B910536
:1026200009F4ADC0873B910509F4ACC0883B910526
:1026300009F4ABC0893B910509F4AAC08D3B910513
:1026400009F4A9C08E3B910509F4A8C08A3B910505
:1026500009F4A7C0C0E0D4E49DCFCE019927D3FFF1
:1026600003C0EC01D86C96CFEC01D06C93CFDF7037
:10267000D06A90CFCE01E4E096958795EA95E1F790
:1026800083702C2F26952695237040E2249F90017D
:102690001124382B8C2F8370C1E0D0E002C0CC0F06
:1026A000DD1F8A95E2F7C22BD32BDC6873CFC1E024
:1026B000D0E002C0CC0FDD1F2A95E2F730E2939FF5
:1026C000C0011124C82BD92BDA6864CFD82FCC27AE
:1026D000C46FD06A5FCF8C2F0E944F14C82FD0E0F8
:1026E000DC2FCC27CC27DF71D06254CF8C2F8F709A
:1026F0000E944F1434E0D695C7953A95E1F79C2F88
:102700009F70C82FCF70C06ED92FB2CFDD27D06693
:1027100041CFC1E8D0E43ECFC3E8D0E43BCFC2EE26
:10272000D4E438CFC9EED4E435CFCAEED4E432CF06
:10273000C5EBD4E42FCFC6EBD4E42CCFC3EBD4E469
:1027400029CFC4EBD4E426CFC7EBD4E423CFCCEC21
:10275000D4E420CFCDECD4E41DCFC3E8D5E41ACF28
:10276000CAE8D5E417CFC2E9D5E414CFC4E9D5E46B
:1027700011CFC1E2D6E40ECFC3E2D6E40BCFC4E260
:10278000D6E408CFC5E2D6E405CFC6E2D6E402CF50
:10279000C7E2D6E4FFCECFE6D4E4FCCEC0E7D4E473
:1027A000F9CECAE2D6E4F6CE8238910549F1B0F40A
:1027B0008133910509F462C048F48932910509F426
:1027C00056C08A32910509F460C008958533910599
:1027D00009F446C08933910599F00895833E910527
:1027E00031F138F4803E910591F0823E9105B1F0CF
:1027F0000895863E910521F1873E910551F1089596
:10280000209174032370D9F080EE90E00895209118
:10281000740320FF14C089E390E0089520917403AD
:1028200022FF0DC024FD09C083EE90E008952091A1
:10283000740322FD31C024FF02C090E080E00895BF
:102840002091740323FFFBCF24FDF7CF87EE90E0A8
:1028500008952091740323FFEECF86EE90E0089553
:102860002091740325FFEBCF89E290E00895209139
:10287000740325FFE4CF85E390E00895209174036D
:1028800026FFDDCF8AE290E008952091740326FFB1
:10289000D6CF81E390E0089582EE90E00895909184
:1028A000740392FF06C0282F2871283069F4877FAF
:1028B000846093FF06C0282F2871283161F4877E39
:1028C000846194FD877E0895282F2471243089F730
:1028D0008B7F8860EECF282F2471243191F78B7E77
:1028E0008861EFCFCF93C82F90E00E940C35809382
:1028F000160290931702282FFC019BEF8E2F821B4C
:102900008C1710F0CF9108959193F8CFEF92FF922A
:102910000F931F93CF93DF931092150250911602DD
:10292000E52FF091170240E0A62FB0E07BEF9AEF81
:10293000E92EF12C9E2F951B981748F04093150215
:10294000DF91CF911F910F91FF90EF90089591919A
:102950009B3F81F3292F30E0691768F08D01021B3E
:10296000130B9801253031056CF09F01215031097E
:10297000E9017883DFCFE701C21BD30B9E012A0F49
:102980003B1FF0CF41E0D6CFAF92BF92CF92DF9204
:10299000EF92FF920F931F93CF93DF937C010091EF
:1029A00016021091170290911502F0E0E0E0E41792
:1029B00068F090931502DF91CF911F910F91FF90D6
:1029C000EF90DF90CF90BF90AF900895E801CE0FC9
:1029D000DF1F88818B3F79F45B01AE0EBF1E67015C
:1029E000CE0EDF1ED6013C91D5018C91831719F0D4
:1029F00028833C9391E03196DACFCF92DF92EF9229
:102A0000FF921F93CF93DF937C016B01D42FC22FD2
:102A10000E94142B6AEF70E00E94DE34182F809120
:102A200015028823F9F0612F8D2F0E948614CC2384
:102A300069F0212F4D2FB601C701DF91CF911F9172
:102A4000FF90EF90DF90CF900C94C414809115020A
:102A5000882379F3DF91CF911F91FF90EF90DF9062
:102A6000CF900895C111E5CFF5CFCF93DF93EC015F
:102A700097FF0CC0FB018281882341F00E94601502
:102A8000CE019F770E94A4150E948C1581E0DF91F2
:102A9000CF9108958CE090E00E94433690E0B0E042
:102AA000A0E08093280390932903A0932A03B09376
:102AB0002B030895609128038CE090E00C94573626
:102AC0000E94D72880932C030E94EA288091280333
:102AD000813089F0882359F0823091F08430B9F048
:102AE0008FE39CE90197F1F700C00000089582EEA2
:102AF0000E94CE1EF5CF88E193E00E94F10EF0CF48
:102B000082EE0E94CE1E87E50E942D20E9CF86EE40
:102B10000E942D2088E1F8CF80912803813071F048
:102B2000882341F0823031F0843061F080912C03B1
:102B30000C94E72882EE0E94D71FF8CF8CE20E9407
:102B40002D20F4CF88E2FBCF0F931F93CF93DF9319
:102B50008C01CCE0D0E0C8010C2E02C09695879580
:102B60000A94E2F78F700E94B10F0E942D202497E3
:102B7000CC3F8FEFD80779F7DF91CF911F910F915D
:102B800008950F931F93CF93DF93EC018B01FB010B
:102B90008281882371F0C43EFCE5DF0719F188F4D7
:102BA000C23EECE5DE07C9F081E0C33EFCE5DF078D
:102BB00089F0B801CE01DF91CF911F910F910C9454
:102BC0003515C53E8CE5D80779F084E0C63EECE5C6
:102BD000DE0779F78093280302C0109228030E9431
:102BE0005A15E7CF82E0F6CF83E0F4CFCF92DF92A1
:102BF000EF92FF920F931F93CF93DF939B01E82FE8
:102C0000F82F682F782F332309F46FC0E32EF12CAF
:102C1000082F10E046E0249FC0011124CFEFD0E040
:102C2000BE010E94DE34AB01822F90E0880F991F15
:102C300025E5249FB001259F700D1124861B970B5D
:102C4000982F990F980FBE016E197F09609FD001D0
:102C5000619FB00D709FB00D11248B2F939F900139
:102C60001124232F3327BE01621B730B609F900139
:102C7000619F300D709F300D11246E01C91AD1086B
:102C8000CE9CB001CF9C700DDE9C700D1124672F7F
:102C90007727C61BD70BC09F7001C19FF00CD09F38
:102CA000F00C11247F2D4230510541F148F44115BB
:102CB000510569F04130510529F17B2F832F07C061
:102CC0004430510511F128F146305105B1F7F0E0DB
:102CD000E75AF44F6491E72FF0E0E75AF44F74910C
:102CE000E82FF0E0E75AF44F8491DF91CF911F91E4
:102CF0000F91FF90EF90DF90CF900895EB2F8F2DE5
:102D00007F2FE5CF7E2FE32FE2CFEF2D7B2F8F2F6D
:102D1000DECF732FEB2FFBCF0895CF93DF93762F6A
:102D2000E901682F842F0E94F615362F272F39834B
:102D300028838A83DF91CF91089580912D03982F66
:102D40009E7F29F48170826080932D0308958A34D8
:102D5000E8F381708864F8CF88E090E00C944B36FB
:102D6000CF92DF92EF92FF926B017C010E949D1641
:102D7000B701A60188E090E0FF90EF90DF90CF9040
:102D80000C946936EDE2F3E083E0808311828FEFEB
:102D900082838383148260817181828193810C9408
:102DA000B01680912D0380FF02C08695089580E0C3
:102DB000089580913103833018F48F5F809331033D
:102DC00060912D0370912E0380912F039091300319
:102DD0000C94B01680913103882319F081508093B0
:102DE000310360912D0370912E0380912F039091F8
:102DF00030030C94B01680911B0224E0829FC00126
:102E000011248E5C9C4F60910A0170E020912D038B
:102E1000E2E3F3E020FD0C94CC1B118210821282BD
:102E2000349623E0EE36F207C1F7F5CF90912D03EB
:102E300090FF0CC0E2E3F3E0818360834283349629
:102E400093E0EE36F907C1F70C94FB160895CF9383
:102E5000DF9300D000D0CDB7DEB790912D0390FF67
:102E60000AC09E012F5F3F4F0E948D164B816981E2
:102E70008A810E9416170F900F900F900F90DF918C
:102E8000CF910895CF93DF93EC01EC81F0E0EC5A01
:102E9000F54F4491EDE2F3E0628181810E942717B2
:102EA0008C818F5F8C83DF91CF910895CF93DF93D7
:102EB000EC01EDE2F3E0438162818C810E942717EF
:102EC0008C818F5F8C83DF91CF9108950F931F9337
:102ED000CF93DF9300D000D0CDB7DEB78C018091C7
:102EE000180281110AC09E012F5F3F4F4FEF6FEF15
:102EF0000E948D168A8180931802F80184818130A6
:102F000071F0882339F040E0823011F440911802CA
:102F100080E003C08091180240E060E004C060914E
:102F2000180240E080E00E941617F801848190E0CA
:102F3000019663E070E00E94F23484830F900F905A
:102F40000F900F90DF91CF911F910F9108955F9295
:102F50006F927F928F929F92AF92BF92CF92DF92A9
:102F6000EF92FF920F931F93CF93DF9300D000D087
:102F7000CDB7DEB7182F762E042F622E90912D0339
:102F800090FF29C0E92FE695AE2FB0E0A053BE4FC9
:102F90008C91809323029E7F923089F59E012F5F52
:102FA0003F4F812F0E948D164B8169818A810E943B
:102FB000161710932E0370922F0300933003662090
:102FC00051F060912D0370912E0380912F03909109
:102FD00030030E94B0160F900F900F900F90DF916A
:102FE000CF911F910F91FF90EF90DF90CF90BF9006
:102FF000AF909F908F907F906F905F9008958230F8
:1030000019F400913003D5CF863019F410912E03B6
:10301000D0CF8930D9F3893161F6E9518E2F817093
:10302000582EE695F0E0EC5AF44FA590B490BB24EE
:1030300082E3E82E83E0F82ED12CC12C9FE0892E6C
:10304000912CC601B4010E94DE34812F511013C0AF
:10305000860F9701402F672D0E948D16CA0CDB1C2E
:1030600084E0E80EF11C8EE6E81683E0F80649F7E6
:103070000E94FB169ECF861BECCFEDE2F3E0918120
:10308000282F438162818CE0890F0C94A71781E07F
:103090000C943D18EDE2F3E09181282F4381628189
:1030A00084EF890F0C94A71781E00C944A18EDE285
:1030B000F3E062812FEF620F08F46FEF282F438156
:1030C00081810C94A71781E00C945718EDE2F3E08E
:1030D00062812FEF621B08F460E0282F4381818119
:1030E0000C94A71781E00C946618EDE2F3E043819D
:1030F0002CE0420F08F44FEF282F628181810C945D
:10310000A71781E00C947518EDE2F3E043812CE001
:10311000421B08F440E0282F628181810C94A7179C
:1031200081E00C94841820E00C94A717EF92FF9292
:103130001F93CF93DF93EC0182E3E82E83E0F82E18
:1031400010E08C8197014091300360912F03810F33
:103150000E948D161F5E84E0E80EF11C1F3F89F768
:103160000E94FB169A818C8190FF08C08F5F8C8330
:10317000DF91CF911F91FF90EF9008958150F7CF8D
:10318000CF92DF92EF92FF920F931F93CF93DF9333
:10319000FC018281DD24DA9480FD02C0DD24D39419
:1031A00002E313E0D0E0C0E0F80111821082128245
:1031B00094E0E92EF12CC12C80911A028C0D87FD30
:1031C000815F082E000C990B8C179D0791F480915C
:1031D00030038E9DA0018F9D500D1124559547956C
:1031E00055954795980160912F0380912E030E9479
:1031F0008D16CD0CF1E0EF1AF108F1F621960C5F77
:103200001F4FCF30D10581F60E94FB1680911A0224
:1032100091E0D91210C081110CC08EE080931A0287
:10322000DF91CF911F910F91FF90EF90DF90CF90A2
:1032300008958150F3CF90E00196BE010E94F234D0
:10324000EDCF0F931F93CF93DF93C2E3D3E0FE0143
:10325000118210821282349683E0EE36F807C1F7AD
:1032600010E000E080911902082E000C990B08175D
:1032700019078CF180910901082E000C990B801719
:1032800091074CF19E014091300360912F03809192
:103290002E030E948D160F5F1F4F24960F301105CD
:1032A00009F70E94FB168091080190911902980F6E
:1032B0009093190220910901280F209309011216F9
:1032C00014F49E301CF0819580930801DF91CF911A
:1032D0001F910F910895198218821A82DCCFEF9204
:1032E000FF920F931F93CF93DF93EC018C819D810D
:1032F0000196817099279D838C8382E3E82E83E079
:10330000F82E10E005E5812F86952C813D81820FF6
:10331000932F911D817097014091300360912F038D
:10332000809F802D11240E948D161F5F84E0E80E7F
:10333000F11C1F3041F7DF91CF911F910F91FF904A
:10334000EF900C94FB16EF92FF920F931F93CF9385
:10335000DF938C01C2E3D3E0F12CE12CF8019481DE
:1033600060912F0380912E03F7E0EF16F104FCF437
:103370009923F9F09E01409130030E948D162FEFA2
:10338000E21AF20A24968FE0E816F10439F70E9457
:10339000FB16F801848190E001968170992784835F
:1033A000DF91CF911F910F91FF90EF900895992396
:1033B00009F39E0140E0E1CFEDE2F3E080818E7FF2
:1033C000808360817181828193810E94B016109206
:1033D00024022FEF80E792E0215080409040E1F7F7
:1033E00000C000000C94FB1660912D03669570E000
:1033F0004BE050E08BE091E00E943636892B19F4C7
:1034000081E0809324020E94142B90931D028093EC
:103410001C02089590912D0390FF35C09170811189
:1034200028C0926090932D03662351F060912D0384
:1034300070912E0380912F03909130030E94B0165B
:1034400060912D03669570E04BE050E08BE091E0D9
:103450000E943636892BA1F01092240281E08093DD
:103460001F024091300360912F0380912E030C9432
:103470009318853210F09864D5CF880F982BD2CF4F
:103480000E94F419EBCF0895682F90912D03969523
:1034900081E0890F853208F081E00C940A1A81E0FE
:1034A0000C94441A682F90912D0396958FEF890FF5
:1034B00009F484E20C940A1A81E00C94521A61E037
:1034C0000C940A1AEDE2F3E0808181608083869596
:1034D0000C945F1A80912D0380FD0C94DC190C94E0
:1034E000621A60E00C940A1A80912202811133C0A2
:1034F0008091F80281608093F8020E9489298111ED
:1035000004C00E94032A0E94C2160E94AC16609357
:103510002D0370932E0380932F03909330036E7FBF
:1035200061F40E94C2160E94AC1660932D03709342
:103530002E0380932F03909330030E949D161092C8
:10354000240280912D0380FF03C086950E94711A8A
:1035500081E08093220208950F931F93CF93DF930E
:1035600080912402882309F48DC080912302E09188
:103570002D03E695E81BE0931E028230C9F5F0E0CA
:10358000E05BF54FE491CE2FD0E002E417E18091AB
:103590001F02882389F010921F020E94142B9E01A3
:1035A00020953095820F931F90931D0280931C02EB
:1035B000109221021092200280911C0290911D0213
:1035C0000E94202B8C179D0708F45CC0E0911C0220
:1035D000F0911D02CE0FDF1FD0931D02C0931C027D
:1035E0008CE192E0F801DF91CF911F910F91099446
:1035F000863049F4F0E0E35BF54FE491CE2FD0E064
:1036000006E517E1C4CF893051F4E695F0E0E65BBA
:10361000F54FE491CE2FD0E006E918E1B8CF8F3016
:1036200051F4E695F0E0E95BF54FE491CE2FD0E060
:1036300000EC18E1ACCF853149F4F0E0EC5BF54FDC
:10364000E491CE2FD0E001E219E1A1CFC8EED3E0A2
:103650000FE619E1883109F49ACF833239F4E2E4B4
:10366000FAE0C591D49106E617E191CFC4EFD1E01D
:1036700003EA19E1843209F48ACFC0EDD7E00CE8FF
:1036800016E185CFDF91CF911F910F910895882387
:10369000B9F05198599A5098589A95E09A95F1F73F
:1036A0000000509A589895E09A95F1F70000882309
:1036B00011F0519A599885E08A95F1F70000089524
:1036C000519A5998E8CF8BB18C7F8BB95098589A02
:1036D0005198599A85E08A95F1F7000008958AB1CA
:1036E0008C7F8AB985E08A95F1F70000519A599844
:1036F00085E08A95F1F70000509A589885E08A9500
:10370000F1F7000008955098589A85E08A95F1F7EE
:1037100000005198599A85E08A95F1F700000895C4
:10372000CF93DF93D82FC8E08D2F80780E94471B5E
:10373000DD0FC150C9F780E00E94471B85E08A95E4
:10374000F1F7000085E08A95F1F7000080E0DF9155
:10375000CF9108953BB1242F209523233BB1432BD8
:103760003FB7F894680F791F8617970711F43FBF8A
:103770000895FC015191CF01E8E04BB9000000C071
:1037800057FF2BB9550F000000C000C000C02BB977
:1037900000C0EA9591F7E8CFAF92BF92CF92DF9247
:1037A000EF92FF920F931F93CF93DF937C018B01D6
:1037B000CFB6D090BC00F8948091BC008B7F8093F2
:1037C000BC000E94631B0E946F1B84E80E94901B38
:1037D000000F111F000F111F5701A00EB11EE701AE
:1037E000CA15DB05A9F40E94831BCFBED092BC0092
:1037F000579A40E8B801C701DF91CF911F910F910F
:10380000FF90EF90DF90CF90BF90AF900C94AA1BE9
:1038100089910E94901BE4CF08950895809132020F
:10382000811121C00E940C1C81E0809332020E9411
:10383000142B909331028093300210922502109243
:10384000270210922602109229021092280210924A
:103850002B0210922A0210922D0210922C0210922A
:103860002F0210922E0208951F93CF93DF93EC0145
:10387000FB011281111106C011E0812FDF91CF9160
:103880001F91089580913202882319F180913002AE
:10389000909131020E94202B8032934068F7CE0134
:1038A0009056811520E2920720F0905E811590419C
:1038B00008F4DD2780912502E82FF0E0EE0FFF1FCE
:1038C000EA5DFD4FD183C0838F5F8093250210E0B6
:1038D000D4CFC731DC4581F60E940E1CCECF0F93AA
:1038E0001F93CF93DF93C62FD42F022FFC01828129
:1038F0008823C9F0609335020E94142B9093340200
:103900008093330280E28C0F883008F050C0C7707B
:1039100081E001C0880FCA95EAF7DF91CF911F912E
:103920000F910C94352010913502161335C08091FB
:103930003302909134020E94202B883C910560F55F
:10394000C0E2CD0F1D17B9F080E2810F883040F43E
:10395000177081E001C0880F1A95EAF70E943C2099
:10396000C83048F481E09D2F977001C0880F9A9568
:10397000EAF70E943520802F0E942D20C830B8F42D
:10398000D77081E001C0880FDA95EAF7DF91CF9117
:103990001F910F910C943C2080E28C0F883038F4FA
:1039A000C77081E001C0880FCA95EAF7EFCFDF91B9
:1039B000CF911F910F9108959C01CB01213F4CE5C0
:1039C000340731F190F4293DFCE53F07E9F02A3D49
:1039D0004CE5340769F1283D3C4579F426E241EE97
:1039E00061EE0E946F1C80E00895233FFCE53F07D5
:1039F000B9F090F0243F3C45B9F0FC018281882366
:103A0000D1F010923502089527E245EE65EEE9CF38
:103A100026E241EE60EEE5CF27E245EE64EEE1CF2F
:103A200026E241EE62EEDDCF27E245EE66EED9CF2B
:103A300028E241E0EBCF81E0089590933B02809330
:103A40003A020895E0913A02F0913B02309721F05A
:103A50000190F081E02D099480E00895E0913A0210
:103A6000F0913B02309799F020912701222359F0E1
:103A70002091740327FF07C0DC012C9111962C9331
:103A8000119725E02C930280F381E02D099408958D
:103A9000E0913A02F0913B02309739F022E0DC01EC
:103AA0002C930480F581E02D09940895209138022B
:103AB000309139022817390771F0909339028093B9
:103AC0003802E0913A02F0913B02309721F00680F3
:103AD000F781E02D09940895209136023091370244
:103AE0002817390771F09093370280933602E091DE
:103AF0003A02F0913B02309721F00084F185E02DED
:103B00000994089585B7806885BF85B7806885BFAB
:103B10000895089508950C94891D08950C948D1DA1
:103B20000E94821D0E948A1D0C948B1D81E00895C5
:103B30000E940B2B0E94CA070E94A02B0E94741A9D
:103B40000C948E1DBF92CF92DF92EF92FF920F9353
:103B50001F93CF93DF93CDB7DEB72A970FB6F894B4
:103B6000DEBF0FBECDBF0E94F7070E94961D8823BF
:103B700009F471C08DE3C82E82E0D82E10E000E079
:103B8000B02E802F0E945308E82EF601F1906F01AD
:103B9000F81609F45AC08091F80281FD0E94590874
:103BA00090E080E0FE242F2D30E0482FB901082E50
:103BB00002C0759567950A94E2F760FF41C08E8355
:103BC000BF8281E090E06C0102C0CC0CDD1C4A9504
:103BD000E2F72E2D30E02C213D21232B09F480E04B
:103BE00088870E94142B8160782F9A8789874E815D
:103BF0005F8168858A850E94841EF801E35CFD4F21
:103C000080818C2580830E942E2D0E94221D909100
:103C10003C02891789F10E94221D80933C022A965A
:103C20000FB6F894DEBF0FBECDBFDF91CF911F91CD
:103C30000F91FF90EF90DF90CF90BF900C94C20F48
:103C400001968630910509F0B0CF0F5F1F4F0E30FF
:103C5000110509F095CF8FEF89838A831B820E941B
:103C6000142B8160782F9D838C8349815A816B81CD
:103C70008D810E94841EC7CF2A960FB6F894DEBFAE
:103C80000FBECDBFDF91CF911F910F91FF90EF90AD
:103C9000DF90CF90BF900895CF93DF93DC018C919C
:103CA000682F70E021E030E001C0220F8A95EAF72A
:103CB00011964C91119750E0EA01C55BDD4F988158
:103CC00012968C9112978823C9F080915B02882309
:103CD000C1F086E0849FF001859FF00D1124E60F6E
:103CE000F71FEE0FFF1FE85DFE4F408151814D939E
:103CF0005C93292B2883DF91CF910895892F82230C
:103D0000E6CF20952923F6CFCF93DF93CDB7DEB74B
:103D10002B970FB6F894DEBF0FBECDBF4F835887E9
:103D200069877A878B878A859B85892B21F0CA01D1
:103D300089238F3FE1F41E821D8285E0FE013796C4
:103D4000DE01119601900D928A95E1F749815A8121
:103D50006B817C818D819E810E94CB252B960FB635
:103D6000F894DEBF0FBECDBFDF91CF910895CE0195
:103D700007960E944C1EDFCFFC01808191810E943A
:103D8000842892959F70963041F480915B0291E077
:103D9000892780935B0290935A020895882309F43F
:103DA00005C18238B9F40E94221D81FDFFC089E35C
:103DB0000E94B2280E9426292FEF81EE94E0215024
:103DC00080409040E1F700C0000089E30E94B928DC
:103DD0000C9426298338A1F40E94221D80FDE6C0A0
:103DE00083E50E94B2280E9426292FEF81EE94E0FD
:103DF000215080409040E1F700C0000083E5E6CF0D
:103E00008438A1F40E94221D82FDD0C087E40E9464
:103E1000B2280E9426292FEF81EE94E021508040A5
:103E20009040E1F700C0000087E4D0CF9CEF980FEE
:103E3000913A18F40E94B228CBCF90E2980F9830B4
:103E400050F4877091E001C0990F8A95EAF7892FA5
:103E50000E94DA28BDCF9BE5980F933070F4853A25
:103E600031F0863A39F083E890E00C94561D81E8F1
:103E700090E0FBCF82E890E0F8CF98E5980F97317B
:103E800008F08EC0883A09F446C0893A09F446C061
:103E90008A3A09F446C08B3A09F446C08C3A09F4D0
:103EA00046C08B3B09F446C08C3B09F446C08D3AB2
:103EB00009F446C0803B09F446C08E3A09F446C076
:103EC0008F3A09F446C0813B09F446C0823B09F4AD
:103ED00046C0833B09F446C0843B09F446C0853B99
:103EE00009F446C0863B09F446C0873B09F446C046
:103EF000883B09F446C0893B09F446C08D3B09F470
:103F000046C08E3B09F446C08A3B09F446C090E0A7
:103F100080E00C946C1D82EE90E0FBCF89EE90E087
:103F2000F8CF8AEE90E0F5CF85EB90E0F2CF86EB0C
:103F300090E0EFCF83EB90E0ECCF84EB90E0E9CF23
:103F400087EB90E0E6CF8CEC90E0E3CF8DEC90E057
:103F5000E0CF83E891E0DDCF8AE891E0DACF82E933
:103F600091E0D7CF84E991E0D4CF81E292E0D1CF44
:103F700083E292E0CECF84E292E0CBCF85E292E082
:103F8000C8CF86E292E0C5CF87E292E0C2CF8FE64B
:103F900090E0BFCF80E790E0BCCF8AE292E0B9CF5B
:103FA000803F20F00E943C2C0C94232D0895882300
:103FB00009F452C0823871F40E94221D81FF4CC066
:103FC00089E30E94B2280E94262989E30E94B92829
:103FD0000C942629833859F40E94221D80FF3CC08E
:103FE00083E50E94B2280E94262983E5EFCF84381A
:103FF00059F40E94221D82FF2FC087E40E94B2283C
:104000000E94262987E4E2CF9CEF980F913AF0F2C4
:1040100090E2980F983050F4877091E001C0990FAA
:104020008A95EAF7892F0E94E028D2CF9BE5980F66
:10403000933020F490E080E00C94561D98E5980FA2
:10404000973120F490E080E00C946C1D803F20F0CC
:104050000E94A42C0C94232D0895CF93C82F0E9466
:10406000CE1E8C2FCF910C94D71F882321F00E9455
:10407000DA280C9426290895882321F00E94E0284C
:104080000C94262908958F929F92AF92BF92CF925F
:10409000DF92EF92FF920F931F93CF93DF937C01F8
:1040A000D62FC72FFC01058102950F7012811111C7
:1040B0000E94FA280E94D028C82E882371F011236C
:1040C000B1F080E28D0F883090F082E00E9471297B
:1040D0000E94D02891E0C82EC926DC2ED2949FE001
:1040E000D922ED2DF0E0EA53F94C0C940635C12CA1
:1040F000F4CF0C2F0F70C07F11F00295007F1123B9
:10410000A9F0002359F080E28D0F883010F0D11112
:1041100009C0802F0E94DA280E9426298D2F0E9434
:10412000CE1E14C0802F0E94ED28F6CF8D2F0E9446
:10413000D71F002359F080E28D0F883010F0D11185
:1041400033C0802F0E94E0280E942629F8E0DF1665
:1041500039F0DF1648F086EF8D0D8F70823020F435
:104160000E94221D0E94C20FCC2009F427C20E9487
:10417000CC2880FD23C2F70112820E94C6280E942B
:104180004F27C7010E94EB220E94C628DF91CF91E2
:104190001F910F91FF90EF90DF90CF90BF90AF9065
:1041A0009F908F900C947027802F0E94F328CCCF83
:1041B000FC2FFF70BF2EC07FC03219F0B29480EF89
:1041C000B822DD2339F0D13019F1112359F1002340
:1041D00021F1A4CF112381F0011106C00E940D2905
:1041E0008B290E943520B2CF0130C1F70E940D29E2
:1041F0008B290E941329AACF011106C00E941C29F5
:104200008B2D0E943C20A2CF013009F49FCFF6CF26
:10421000112329F0023008F099CF8B2DE2CF011144
:1042200095CFEECF002361F38D2F0E94D71F8ECF45
:104230008C2F86958695837069F0813009F086CF42
:104240008D2F9C2F9370111102C090E080E00E948E
:104250006C1D7CCF8D2F9C2F9370111102C090E0AC
:1042600080E00E94561D72CF112309F1D53F99F0CD
:10427000D63FB9F0D43F49F480916E0390916F031B
:10428000816090936F0380936E038D2F0E943C2C6E
:104290000E94232D5BCF80916E0390916F0382600B
:1042A000F0CF80916E0390916F038460EACFD53F89
:1042B00089F0D63FA9F0D43F49F480916E039091E4
:1042C0006F038E7F90936F0380936E038D2F0E94F8
:1042D000A42CDECF80916E0390916F038D7FF2CF7F
:1042E00080916E0390916F038B7FECCF8C2F837046
:1042F00009F047C011112ACF2D2F2295269527703E
:10430000220F220F6D2F6F70862E912CB12CA12CB5
:10431000022E04C0880C991CAA1CBB1C0A94D2F75C
:1043200060E070E0CB01D4FF0FC06FE070E080E090
:1043300090E004C0660F771F881F991F2A95D2F757
:104340006095709580959095C695C695C370C2305E
:1043500051F080F4682979298A299B29C13071F0AC
:104360000E940127F3CE682979298A299B290E9476
:104370001327ECCE0E940127C501B4010E94EF264D
:10438000E5CE8695112311F08C2F8170882309F4D6
:10439000DDCE2D2F229526952770220F220F6D2F0F
:1043A0006F70862E912CB12CA12C022E04C0880C8B
:1043B000991CAA1CBB1C0A94D2F760E070E0CB01E8
:1043C000D4FF0FC06FE070E080E090E004C0660FA3
:1043D000771F881F991F2A95D2F760957095809551
:1043E0009095C695C695C370C23051F080F4682987
:1043F00079298A299B29C13071F00E94C627A6CE4F
:10440000682979298A299B290E94D8279FCE0E9452
:10441000C627C501B4010E94B42798CEE0E2ED0F93
:10442000E53108F04CC0F0E0EA52F94C0C94063546
:10443000DF708C2F8F71112321F00E944F278D2F59
:10444000D0CE0E9470278D2FDCCE112339F00111C0
:104450007DCE8C2F8F710E94932778CE023008F08A
:1044600075CEF7CF8C2F8F71112339F00E944F2713
:104470006DCE8C2F8F711123C9F30E94702766CEE9
:10448000112329F08C2F8F710E943A275FCE0E9452
:1044900035275CCE112349F0CF718C2F0E944F2716
:1044A00063E08C2F0E945C2951CE81E00E9471292B
:1044B000023008F44BCE82E00E94712947CE1123CE
:1044C00029F001112BCE8C2F8F71D0CF002369F0F2
:1044D000D93309F0A9CE2FEF87EE93E02150804029
:1044E0009040E1F700C000009FCE8C2F8F71C5CFA8
:1044F0004C2F4F706D2FC7010E943C0A0E94652609
:1045000025CED23F71F1C8F4D03F01F1D13FB9F1CE
:1045100080915A02002309F446C0882341F080911B
:104520005B0291E0892780935B0210925A028D2FE3
:10453000112389F10E94CE1E16C0D43FD9F078F025
:10454000D53F31F711110FC081E006C0112359F09A
:1045500080915B0291E0892780935B0204C081E037
:10456000182710935B024C2F4F706D2FC7010E94CC
:10457000F111ECCD1111F7CF10925B02F4CF1123A2
:1045800039F080915A02882319F310925A02EBCF26
:104590000023F1F2E8CF0E94D71F86E0F7011192C5
:1045A0008A95E9F7E0CF8823F1F21111DCCF8091F1
:1045B0005B0291E0892780935B02E7CFDF91CF9187
:1045C0001F910F91FF90EF90DF90CF90BF90AF9031
:1045D0009F908F9008950F931F93CF93DF93EC01DB
:1045E0008B819C81892B29F08881998189238F3F38
:1045F00029F4DF91CF911F910F910895CE010E9470
:10460000D40F8823B1F3688179818A810E948E2832
:104610008C010E94EA270E94EC26B801CE01DF91AE
:10462000CF911F910F910C9443200E94FA280E9471
:104630000A290E9426290E94C52D0E94232D90E060
:1046400080E00E94561D90E080E00C946C1D0E945A
:10465000C0280C9415230E94EA280C942723E92FE4
:10466000E295EF70E250EE3070F4F0E0E551F94C75
:104670000C940635803F19F020F4803E20F481E050
:104680000895843FE1F380E00895803EC0F3813FC8
:10469000D1F7F5CF93FB882780F908950E948428ED
:1046A0000C942F23CF93DF9300D000D00F92CDB77F
:1046B000DEB70F900F900F900F900F90DF91CF917A
:1046C0000895CF93DF9300D000D000D0CDB7DEB7F0
:1046D00026960FB6F894DEBF0FBECDBFDF91CF9107
:1046E00008951F93CF93DF93C0915C0216E08091F1
:1046F0005D028C1304C0DF91CF911F910895D0E02B
:104700001C9FF0011D9FF00D1124E25AFD4F4081C6
:10471000518162817381848195810E9461232196F8
:10472000C770E5CF40918E0250918F026091900248
:104730007091910280919202909193020C94612366
:104740001F93CF93DF9380919302807FC1F4809178
:1047500090028823A1F080915C02C0915D0260917B
:104760008E0270918F024091910250919202D62F49
:10477000D723DA01A095B09516E0C81304C0DF91E5
:10478000CF911F91089590E04115510511F0DF3F41
:1047900031F401968770F1CF2A0F3B1F17C0189F85
:1047A000F001199FF00D1124E25AFD4F21812713CA
:1047B000F0CF20812613EDCF22812111EACF238172
:1047C00034812417350740F3241B350B283C310571
:1047D00000F7209193022F7020612093930226E02E
:1047E000289FF001299FF00D1124ED59FD4F808184
:1047F0008F70806180838EE892E00E94EB22DF91CF
:10480000CF911F910C947123BF92CF92DF92EF92C0
:10481000FF920F931F93CF93DF93CDB7DEB76197CE
:104820000FB6F894DEBF0FBECDBF8C0185E0F80156
:10483000DE011D9601900D928A95E1F7D8014C9109
:1048400011965C9111971296EC90129780919102BB
:1048500090919202009709F47FC120918E023091CD
:104860008F02622F63236F3F09F476C11396CD90B8
:10487000DC90B0909002BB2009F411C1C816D90693
:10488000D0F1F601E81BF90BCF01FF24F394883C2B
:10489000910508F0F12C80919302982F907FFF20D2
:1048A00009F4B8C091117FC0FE2C351329C0241320
:1048B00027C0E11025C08F708061809393020E9411
:1048C00092238EE892E00E94EB2280919302D8011D
:1048D00015968C938F2D61960FB6F894DEBF0FBEA0
:1048E000CDBFDF91CF911F910F91FF90EF90DF909F
:1048F000CF90BF900895809590958C0D9D1DC5CF4C
:10490000CD2829F0852F84238F3F09F041C180E015
:10491000B82FB170DB2E80FF3CC080915C022091EB
:104920005D0236E0821315C04D875E878D859E85BA
:104930000E948428292F22952F702230F0F02430F5
:1049400018F59F70F1F0F8019581907FD1F4D12C8A
:104950001EC090E0389FF001399FF00D1124E25AFB
:10496000FD4F6181651306C06081641303C06281DD
:10497000E6120FC001968770D5CF9F7011F0882383
:1049800031F3805E883018F3C8010E94EB22FD2CC1
:10499000A1CFEE2009F49ECF809193028160809395
:1049A0009302F12C97CF351306C0241304C0D8010D
:1049B000EE2009F49AC04D875E878D859E850E9402
:1049C0004E23882319F1EE2009F180919302803261
:1049D00070F020918E0230918F0238872F831986D4
:1049E000DB86CA868C87CE0107960E94EB2286E082
:1049F000F801AEE8B2E001900D928A95E1F70E94CD
:104A0000A0230E949223FF24F39464CFC8010E9444
:104A1000EB22F9CF911113C07C2DD98AC88A6E2D53
:104A200089890E9452238EE892E00E94EB2286E060
:104A3000EEE8F2E0DF011D928A95E9F763C03513D5
:104A400012C0241310C0E1100EC0F8018583C80104
:104A50000E94EB22EEE8F2E086E0DF011D928A95EB
:104A6000E9F7FB2C37CF4D875E878D859E850E94A9
:104A70004E23882359F2EE2049F28091930280322E
:104A800008F4B5CF20918E0230918F023A832983AA
:104A90001B82DD82CC828E83CE010196A6CFC81602
:104AA000D90698F1F601E81BF90BCF01F12C883CEF
:104AB000910508F049C0FE2CEE2009F4A7CF35136C
:104AC00032C0241330C08091930280FD23C0982F00
:104AD000907F01F1D80115968C931597903F39F08E
:104AE000982F907F905F8F70892B15968C93C801BB
:104AF0000E94EB2286E0F801AEE8B2E001900D9250
:104B00008A95E1F70E949223E5CE809590958C0DD1
:104B10009D1DCCCF86E0F801AEE8B2E001900D9289
:104B20008A95E1F7D7CE4D875E878D859E850E9459
:104B30004E2381115CCF8091930281608093930218
:104B4000C8010E94EB22C6CE7C2DD98AC88A6E2D60
:104B500089890E9452236BCFEE2009F457CF4D87ED
:104B60005E878D859E850E944E23F82E882309F44A
:104B70004DCF86E0F801AEE8B2E001900D928A9543
:104B8000E1F78EE892E00E94BC1E0E94A023BACFFB
:104B900081E08E25BDCE1F93CF93DF93CDB7DEB7D7
:104BA0002C970FB6F894DEBF0FBECDBF4F8358874A
:104BB00069877A878B879C87CE0107960E94042499
:104BC000882369F08A859B85892B39F04F81588528
:104BD000842F85238F3F09F071C016E05FC086E007
:104BE000FE013796DE01119601900D928A95E1F74C
:104BF0008A859B85892B89F388859F8189238F3FAF
:104C000061F320915D0230E0C90101968770992718
:104C100040915C024817190671F40E942B231092F0
:104C20005D0210925C0286E0EEE8F2E0DF011D9288
:104C30008A95E9F7D2CF96E0929FD001939FB00D6D
:104C40001124A25ABD4FFE01319601900D929A9502
:104C5000E1F780935D020E947123BFCF819FC00165
:104C60001124825A9D4F0E9404248823E9F0E09188
:104C70005C021E9FF0011124E25AFD4F40815181D8
:104C800062817381848195810E94612380915C029D
:104C900090E001968770992780935C0280915C0276
:104CA00090915D028913DACF2C960FB6F894DEBF8F
:104CB0000FBECDBFDF91CF911F91089569857A8591
:104CC0008B859C850E94612388CFEF92FF920F9382
:104CD0001F93CF93DF938C01892B81F0F12CEE246D
:104CE000E394E8012196F8018491843770F48430CC
:104CF00008F05FC08130B1F08230A1F1DF91CF9137
:104D00001F910F91FF90EF900895853709F44CC0E3
:104D100008F43DC09CE7980F903780F78F770E948A
:104D2000D71F49C00E5F1F4FFE01849190E2980F7C
:104D3000983060F48770FE2D01C0FF0F8A95EAF766
:104D40008F2F0E94FD280E94262902C00E94CE1E9D
:104D50008F2D815030F2EFE9FFE03197F1F700C07D
:104D60000000F7CF0E5F1F4FFE01849190E2980F75
:104D7000983050F48770FE2D01C0FF0F8A95EAF736
:104D80008F2F0E940329DFCF0E94D71FE1CF0E5F34
:104D90001F4FFE01C491C150D8F28FE99FE00197E7
:104DA000F1F700C00000F7CF0E5F1F4FFE01F49037
:104DB000CFCF0E94CE1E8E01CBCF08950C94DD265E
:104DC0000E94DE266093CF027093D0028093D102BE
:104DD0009093D2020C94152308950C94E0260F931F
:104DE0001F930091CF021091D0022091D1023091F7
:104DF000D202602B712B822B932B1F910F910C945D
:104E0000E0260F931F930091CF021091D0022091C2
:104E1000D1023091D20260237123822393231F9108
:104E20000F910C94E0260F931F930091CF021091E5
:104E3000D0022091D1023091D202602771278227BF
:104E400093271F910F910C94E0260C94DD260C946F
:104E500025270E9427276093CB027093CC02809372
:104E6000CD029093CE020C94152360E070E0CB014C
:104E70000C9429270F931F9341E050E060E070E00D
:104E80008A019B0104C0000F111F221F331F8A9546
:104E9000D2F7C901B8011F910F910C9429270F93E4
:104EA0001F9341E050E060E070E004C0440F551FE4
:104EB000661F771F8A95D2F78091CB029091CC0222
:104EC000A091CD02B091CE028A019B01082B192B33
:104ED0002A2B3B2BC901B8011F910F910C94292754
:104EE0000F931F9341E050E060E070E004C0440F76
:104EF000551F661F771F8A95D2F7CB01BA016095BF
:104F00007095809590950091CB021091CC022091E4
:104F1000CD023091CE0260237123822393231F910F
:104F20000F910C9429270F931F9341E050E060E00C
:104F300070E004C0440F551F661F771F8A95D2F793
:104F40008091CB029091CC02A091CD02B091CE0283
:104F50008A019B01082719272A273B27C901B80185
:104F60001F910F910C9429270F931F930091CB024F
:104F70001091CC022091CD023091CE02602B712B8A
:104F8000822B932B1F910F910C9429270F931F9322
:104F90000091CB021091CC022091CD023091CE0233
:104FA00060237123822393231F910F910C9429274F
:104FB0000F931F930091CB021091CC022091CD0250
:104FC0003091CE0260277127822793271F910F917E
:104FD0000C9429270895E92FEE0FE90FEE0F8E0F9D
:104FE000982F977041E001C0440F9A95EAF7869593
:104FF0008695869595E0899FF0011124EC56FD4F2A
:1050000030E020E070E05191DF011197CB01022EDA
:1050100002C0969587950A94E2F78170819585275D
:10502000842385278C932F5F3F4F2530310559F717
:105030000895E92FEE0FE90FEE0F8E0F982F97705E
:1050400086958695869525E0829FF0011124EC5681
:10505000FD4F50E040E080E0219130E0092E02C099
:10506000369527950A94E2F721703327042E01C064
:10507000220F0A94EAF7822B4F5F5F4F45305105AC
:1050800059F70895BF92CF92DF92EF92FF920F935C
:105090001F93CF93DF938C01C090CB02D090CC02B2
:1050A000E090CD02F090CE028091CF029091D0029C
:1050B000A091D102B091D202C82AD92AEA2AFB2AA9
:1050C000CFE1D0E0BC2ED701C6010C2E04C0B695AE
:1050D000A795979587950A94D2F780FD0EC02197E2
:1050E00088F7B12C8B2DDF91CF911F910F91FF90FD
:1050F000EF90DF90CF90BF900895B8018C2F0E9461
:105100000E12019761F3EECFCF93DF93EC010E9473
:105110004228BE01DF91CF910C940E121F93CF93C2
:10512000DF93EB0190915902992331F0CB01DF918C
:10513000CF911F910C948428882379F0CB010E9491
:105140004228182F682FCE010E94EB27BE01812F25
:10515000DF91CF911F910C940E12CB010E94192860
:10516000182FF4CF682F80911601909117010C949D
:10517000692A682F80911601909117010C94742A66
:1051800080911601909117010C947F2A8091D3028F
:1051900085958595859508958091D30287700895AA
:1051A0009091D302977081E009F480E00895809196
:1051B000F70208959091F702892B8093F7020895E2
:1051C00080959091F70298239093F7020895809329
:1051D000F70208951092F70208959091F602892B34
:1051E0008093F602089580959091F602982390930B
:1051F000F60208951092F60208959091F502892B17
:105200008093F502089580959091F50298239093EC
:10521000F50208951092F50208958091D402089540
:1052200008950C9410299091D402981721F080933E
:10523000D4020C94112908958091D402882329F076
:105240001092D40280E00C9411290895E091160187
:10525000F09117018091F7028083E0911601F0919F
:10526000170180819091F602892B8083E0911601CD
:10527000F091170180819091F502892B80839091A4
:10528000D402992381F0E0911601F09117018081F9
:10529000892B808380911601909117010E94052A25
:1052A00081110E941C2980911601909117010C9484
:1052B0002E1D08950C94592998E0899F900111247E
:1052C000622B6093D3020E944F278091D302859571
:1052D000859585950C945A291092D30280E00C9400
:1052E0005A299091D302809589238093D302282F45
:1052F000277071F4282F082E000C330B9217130619
:1053000039F08595859585950E9470270C946C29B8
:10531000089590E080E00E94513621E08D3E9E4F3E
:1053200009F020E0822F089582E090E00C9443364B
:1053300083E090E00C94433684E090E00C94433694
:10534000682F84E090E00C945736AB01BC018FE0ED
:1053500090E00C946936AB01BC0183E190E00C94C1
:10536000693660E070E0CB010C94AB2960E070E03E
:10537000CB010E94A5290C94B1296DEE7EEF90E03F
:1053800080E00E94753660E082E090E00E9457362F
:1053900060E083E090E00E9457361092CF021092B6
:1053A000D0021092D1021092D20260E084E090E02C
:1053B0000E94573660E085E090E00E94573660E03A
:1053C00086E090E00E9457366FEF87E090E00E9401
:1053D000573640E050E0BA0188E090E00E9469361C
:1053E00060E08DE090E00E94573640E050E0BA0166
:1053F00088E190E00E94693660E087E190E00E94D9
:1054000057360C94B6290C94BD29FC013296809134
:105410002701882321F0809174039EE187FF96E0A5
:1054200080E0915008F4089521912223D1F38F5FF9
:10543000F8CF9C01FC0132969FEF80E04191461726
:1054400051F09F3F19F4411101C0982F8F5F8630B2
:10545000A9F79F3F09F40895290F311D97FD3A954B
:10546000F90162830895FC01329608962191261372
:1054700003C0DF0111971C92E817F907B9F70895E7
:10548000E62FE695E695E695EE3168F4E80FF92FFC
:10549000F11D677021E030E001C0220F6A95EAF744
:1054A0008281822B82830895E62FE695E695E69524
:1054B000EE3170F4E80FF92FF11D677021E030E054
:1054C00001C0220F6A95EAF7209582812823228362
:1054D000089520912701222329F02091740327FDAC
:1054E0000C94402A0C94192A20912701222329F098
:1054F0002091740327FD0C94542A0C94332AFC0148
:10550000329680912701882351F08091740387FFA0
:1055100006C08EE1DF011D928A95E9F7089586E0C5
:10552000F9CF08950C94912A0E94922A80917A03CF
:10553000843049F11092F90288E190E020E40FB63E
:10554000F894A895809360000FBE2093600080E0DF
:105550000E94C20F0E94922A83B7817F846083BF1A
:1055600083B7816083BF7894889583B78E7F83BF2C
:105570000FB6F894A89580916000886180936000D0
:10558000109260000FBE08950895CF930E94E40723
:105590000E94F7070E94C42AC0E08C2F0E94530883
:1055A000811105C0CF5FCE30C1F7CF91089581E062
:1055B000FCCF08950C94D92A0E942B230E94221D0F
:1055C0000E94C20F0C94DA2A1F921FB61F92112458
:1055D0008F939F93AF93BF938091F902811113C072
:1055E0008091700390917103A0917203B091730345
:1055F0004196A11DB11D8093700390937103A093F8
:105600007203B0937303BF91AF919F918F911F90DD
:105610001FBE1F90189582E084BD93E095BD9AEF60
:1056200097BD80936E0008952FB7F8948091700312
:1056300090917103A0917203B09173032FBF0895ED
:10564000CF92DF92EF92FF920F931F932FB7F894B0
:1056500040917003509171036091720370917303D4
:105660002FBF6A017B01EE24FF248C0130E020E093
:10567000C016D106E206F30650F0481B590BCA01CA
:105680001F910F91FF90EF90DF90CF9008954150C0
:105690005109F3CF78941F921FB61F9211248F9354
:1056A0009F93AF93BF938091700390917103A091EA
:1056B0007203B09173030196A11DB11D8093700315
:1056C00090937103A0937203B0937303BF91AF9152
:1056D0009F918F911F901FBE1F901895F89481E0A5
:1056E0008093E00080E28093D800E9ECF0E0108243
:1056F0008FE19EE40197F1F700C000001DBA1092FF
:1057000068001CBC10BE1FBA10927A0010926E0086
:1057100010926F0010927100109272001082ECEBE8
:10572000F0E0108214B817B81AB81DB810BA108279
:1057300015B818B81BB81EB811BA0C94003F0895DC
:105740000E948929811102C00E94032A0E94942983
:105750008093F8020E949C2990E0909375038093B7
:1057600074030E949829682F70E090E080E00C9408
:10577000ED268091FE0280FF12C060911B0185E042
:10578000689FB00111247595679575956795603888
:105790007105A8F561157105A1F1862F089581FFA6
:1057A00009C060911B0185E0689FB00111247595C7
:1057B0006795EDCF60911B0182FD0AC08091FD02CB
:1057C0008823D1F090911A0160911B01891728F06C
:1057D00085E0689FB0011124DACF869FB0011124C3
:1057E00085E0869F9001879F300D1124692F70E01E
:1057F000C9010E94F234CBCF65E070E0CECF8FE7D5
:10580000089581E008958091FE0280FF0CC06091B0
:10581000190170E075956795759567956115710526
:1058200049F1862F089581FF06C06091190170E04B
:1058300075956795F3CF6091190182FD0BC090912A
:10584000FD029923A1F0609118018091190196172A
:1058500038F0682F70E06038710500F38FE7089525
:10586000899FC001112470E00E94F234F4CF61E0FE
:1058700070E0D7CF81E00895803F31F40E94B92BCA
:105880008195809302030895813F19F40E94B92BFA
:10589000F8CF823F31F40E94B92B819580930103A8
:1058A0000895833F19F40E94B92BF8CF893F29F45A
:1058B0000E94032C8093030308958A3F21F40E94E1
:1058C000032C8195F7CF8B3F31F40E94032C8195F7
:1058D0008093040308958C3F19F40E94032CF8CFA1
:1058E000843F31F480910003816080930003089528
:1058F000853F21F4809100038260F7CF863F21F439
:10590000809100038460F1CF873F21F480910003F0
:105910008860EBCF883F21F4809100038061E5CF60
:105920008D3F31F48091FE0281608093FE020895E4
:105930008E3F21F48091FE028260F7CF8F3FB9F74E
:105940008091FE028460F1CF90910103803F41F489
:105950008091020387FD10920203992371F008954C
:10596000813F29F4809102031816ACF3F6CF823FF1
:1059700081F497FFF2CF109201038091020390917E
:105980000303892B90910403892B49F71092FD02A0
:105990000895833F19F4191674F3DFCF893F39F462
:1059A000809103031816CCF610920303D6CF8A3FDA
:1059B00029F48091030387FFD0CFF6CF8B3F39F4D2
:1059C0008091040387FFC9CF10920403C6CF8C3F98
:1059D00029F4809104031816BCF3BFCF843F31F43F
:1059E000809100038E7F80930003B7CF853F21F421
:1059F000809100038D7FF7CF863F21F480910003D3
:105A00008B7FF1CF873F21F480910003877FEBCF1D
:105A1000883F21F4809100038F7EE5CF8D3F31F4E4
:105A20008091FE028E7F8093FE0297CF8E3F21F4FD
:105A30008091FE028D7FF7CF8F3F09F08ECF80914E
:105A4000FE028B7FF0CF8FEF92E00E94481D0E94F4
:105A5000142B9093FC028093FB0208951F93CF9325
:105A6000DF938091FB029091FC020E94202BAC01FD
:105A70009091FD0220911C0130E0911106C020910F
:105A8000FA028AE0289F900111244217530778F008
:105A900020910103C0910203D091030310910403EC
:105AA000211109C08C2F8D2B812B09F06AC0DF9149
:105AB000CF911F9108959F3F19F09F5F9093FD0232
:105AC000121624F40E94B92B8093010380910103E4
:105AD00087FF05C00E94B92B8195809301031C1696
