:100000000C947F030C949C030C949C030C949C0311
:100010000C949C030C949C030C949C030C949C03E4
:100020000C949C030C949C030C94082C0C94DB2CD7
:100030000C94A4220C949C030C949C030C949C039D
:100040000C949C030C949C030C949C030C949C03B4
:100050000C949C030C940A230C949C030C949C0316
:100060000C949C030C949C030C949C030C949C0394
:100070000C949C030C949C030C949C030C949C0384
:100080000C949C030C949C030C949C030C949C0374
:100090000C949C030C949C030C949C030C949C0364
:1000A0000C949C030C949C030C949C0375FF01E23C
:1000B00001590259015D025D015E025E02E2002902
:1000C000002B00E300E100E00000001E001400042B
:1000D000001D6406014E001F001A0016001B0019C7
:1000E000012A002000080007000600500028002117
:1000F000001500090019004F004B00220017000AEC
:100100000005000000035823002F0000004A0000F3
:10011000003E002400300000004D0000003B0025A0
:10012000001C000B00110000000258260018000DF2
:100130000010005100490027000C000E003600524C
:10014000002C002D0012000F003700006F01582E08
:100150000013003300380035004C002A0031003411
:1001600000E500E4000000010001000100010001C1
:100170000000003A001E0220022202033001003B70
:10018000001F0221022302010001003C002F022671
:10019000022F00010001003D003002270230000163
:1001A0000001003E00310235003502000001003F31
:1001B00000010000000100000001004000010000FB
:1001C0000001000000010041005200510024020023
:1001D0000001004200240021001E00010001004334
:1001E00000250022001F00370001004400260023E4
:1001F00000200027000100450025022E0231002EBC
:10020000004C0546000100010001003D0400000013
:100210005C0100010001000100000001000100017B
:100220000001000100010001000100F200010001D5
:100230000001000100F000F1000100F400010001E4
:10024000000100F3000100F50001000100010001C0
:100250000001000000010001000100000001000099
:100260000001000100010000000100000001000188
:100270000001000100010000000100010001000177
:10028000000100AA000100010001000100AC00A96A
:1002900000B600010001000100AB00A80001000150
:1002A000000100010001000100010001000100AE99
:1002B00000010001000000E200E200E200E200E2D2
:1002C0000000005900010004000100E20001005A92
:1002D00000010001000100E200E2005B00080007ED
:1002E0000006000100E2005C0001000900010001BD
:1002F0000001005D00010001000500000001005E3A
:1003000000010000000100000001005F000100008A
:100310000001000000010060000100010001000078
:1003200000010061005F005C005900620001006292
:100330000060005D005A006200E200570061005E4C
:10034000005B006200E2005700570057005700575B
:100350000001000100010001000100010000000097
:10036000047F3F1F643214643214783C1E1E140A4A
:10037000052223252628292A2C2D2F3032333536E5
:10038000383A3B3D3E4042434547494A4C4E505126
:10039000535557595A5C5E6062646668696B6D6F4D
:1003A00071737577797B7D7F81838587898A8C8E50
:1003B00090929496989A9C9E9FA1A3A5A7A8AAAC58
:1003C000AEAFB1B3B4B6B8B9BBBCBEBFC1C2C3C592
:1003D000C6C7C9CACBCCCDCED0D1D2D2D3D4D5D634
:1003E000D7D7D8D9D9DADADBDBDBDCDCDCDCDCDD67
:1003F000DDDDDDDCDCDCDCDCDBDBDBDADAD9D9D84B
:10040000D7D7D6D5D4D3D2D2D1D0CECDCCCBCAC9E2
:10041000C7C6C5C3C2C1BFBEBCBBB9B8B6B4B3B111
:10042000AFAEACAAA8A7A5A3A19F9E9C9A989694AC
:1004300092908E8C8A89878583817F7D7B79777581
:1004400073716F6D6B6968666462605E5C5A595760
:10045000555351504E4C4A4947454342403E3D3B1F
:100460003A3836353332302F2D2C2A2928262523A9
:1004700022FFAA7F5540000000000000000000009D
:100480000101010101010101010202020202020255
:100490000203030303030303040404040405050522
:1004A00005050606060606070707070808080809DF
:1004B00009090A0A0A0B0B0B0C0C0C0D0D0D0E0E84
:1004C0000E0F0F1010101111121213131414151512
:1004D00016161717181819191A1A1B1C1C1D1D1E81
:1004E0001F1F2021212223232425252627282829D0
:1004F0002A2B2C2C2D2E2F303131323334353637F8
:1005000038393A3B3C3D3E3F4041424344454647F3
:1005100048494B4C4D4E4F50525354555758595AC9
:100520005C5D5E606163646567686A6B6C6E6F7169
:1005300072747677797A7C7D7F8182848687898BD5
:100540008D8E9092949597999B9D9FA1A2A4A6A809
:10055000AAACAEB0B2B4B6B9BBBDBFC1C3C5C8CA00
:10056000CCCED0D3D5D7DADCDEE1E3E6E8EAEDEFB6
:10057000F2F4F7F9FCFF0403300000001603450015
:10058000720067006F0044006F0078002000450093
:100590005A00000016034500720067006F00440017
:1005A0006F007800200045005A0000000403090491
:1005B00009023B00020100A0FA0904000001030146
:1005C00001000921110100012240000705810308F3
:1005D000000A0904010001030000000921110100C3
:1005E0000122C0000705820320000A120110010049
:1005F000000008EDFE0713010001020301050109D7
:1006000002A10185020901A10005091901290515A9
:10061000002501950575018102950175038101058C
:1006200001093009311581257F9502750881060978
:10063000381581257F950175088106050C0A380259
:100640001581257F950175088106C0C005010980C7
:10065000A10185031601002603001A81002A8300E8
:10066000751095018100C0050C0901A101850416D2
:100670000100269C021A01002A9C02751095018136
:1006800000C005010906A1018505050719E029E754
:100690001500250195087501810205081901290534
:1006A00095057501910295017503910105071900E2
:1006B00029EF1500250195F075018102C00501099A
:1006C00006A101050719E029E71500250195087520
:1006D0000181029501750881010508190129059517
:1006E000057501910295017503910105071900290E
:1006F000FF150026FF00950675088100C000112433
:100700001FBECFEFDAE0DEBFCDBF12E0A0E0B1E068
:10071000E6E8F1E602C005900D92A030B107D9F7E6
:1007200023E0A0E0B2E001C01D92A538B207E1F7D6
:100730000E9434290C9433300C94000080B38C70E8
:1007400080BB81B3836F81BB089584B1807F84B9FE
:1007500085B1807F85B98AB1837F8AB98BB1837F68
:100760008BB93E9846980895CF93C82F873070F57F
:100770008091060190910701892B89F564E670E06C
:1007800080E40E94EE049093070180930601892B78
:10079000D1F464E670E082E10E944A05909307017B
:1007A00080930601892B79F481E090E001C0880FE5
:1007B000CA95EAF764E670E080950E944A05909336
:1007C000070180930601CF910C949D058A30B9F002
:1007D00040F4883071F0893079F0209A2898CF91D0
:1007E00008958C3091F070F08D30B9F73E9A4698AC
:1007F000F6CF219A2998F3CF229A2A98F0CF239AFC
:100800002B98EDCF529A5A98EACF539A5B98E7CF3C
:10081000CF93873008F040C0809106019091070186
:10082000C0E0892B71F464E670E080E40E94EE047D
:100830009093070180930601892B31F0C0E00E945C
:100840009D058C2FCF91089564E670E083E10E94AE
:100850004A059093070180930601892B79F764E696
:1008600070E081E40E94EE049093070180930601FA
:10087000892B21F784E690E00E94790597FF05C057
:100880009093070180930601D9CFC82FC09510928D
:10089000070110920601D3CFCFB18FB1869586950F
:1008A0008C73C3708C2BC82FC095CBCF0C94B6061D
:1008B0000E94220690E090930701809306010E9417
:1008C000A5030E949E03E1E0F2E0AFE0B2E01192E6
:1008D0001D9282E0EF30F807D1F78EE00E94640CA1
:1008E0000C949E070E94220690E09093070180934B
:1008F00006010E94A5030E949E03E1E0F2E011922E
:1009000082E0EF30F807D9F70895EF92FF920F9346
:100910001F93CF93DF938091060190910701892B5C
:1009200091F0809100028F5F8093000281110BC0D3
:100930000E94220690E09093070180930601892B84
:1009400011F40E94CC050FE012E0C0E0D0E087E097
:10095000E82EEC0E8C2F0E94B4038E2D0E94B4035F
:100960008C2F0E940804F80191918F01F12C8917B6
:1009700021F031978083FF24F3948E2D0E94080488
:10098000F80196818917D9F0868381E08F29D82BC9
:100990000E94A503CF5FC730D1F62D2F4EE061E056
:1009A00072E08FE092E00E94EF0C0E94A80781E0C5
:1009B000DF91CF911F910F91FF90EF90089580E00C
:1009C000E5CFE82FF0E0EF5FFD4F808108950895B7
:1009D0001092B9008CE08093B8000895EF92FF92D6
:1009E0000F931F93CF93DF93182FEB011092BC004E
:1009F00084EA8093BC000E94D4227C018091BC00D8
:100A000087FF27C08091B900887F883029F08091C6
:100A1000B900887F8031D9F51093BB0084E88093BA
:100A2000BC000E94D4228C018091BC0087FF24C0AE
:100A30002091B900287F90E080E02831B1F081E07A
:100A400090E0203411F490E080E091958195910937
:100A50000CC0CF3FDC0791F20E94D4228E199F096F
:100A60008C179D0758F28EEF9FEFDF91CF911F916A
:100A70000F91FF90EF900895CF3FDC07A9F20E94FD
:100A8000D422801B910B8C179D0770F2ECCF8FEF57
:100A90009FEFEBCF0F931F93CF93DF93EB018093E7
:100AA000BB0084E88093BC000E94D4228C0180911A
:100AB000BC0087FF11C02091B900287F81E090E041
:100AC000283211F490E080E0919581959109DF91B1
:100AD000CF911F910F910895CF3FDC0741F30E9402
:100AE000D422801B910B8C179D0708F38EEF9FEF8C
:100AF000EECF0F931F93CF93DF93EC0184E88093A5
:100B0000BC000E94D4228C018091BC0087FF08C0E9
:100B10008091BB0090E0DF91CF911F910F910895DC
:100B2000CF3FDC0789F30E94D422801B910B8C17E6
:100B30009D0750F38EEF9FEFEECF84E98093BC00CA
:100B40000895259A2D9A0895269A2E9A0895279AFF
:100B50002F9A089556985E98089525982D9808958F
:100B600026982E98089527982F9808950E94AA05F0
:100B70000E94AD050E94B0050C94B30590E09093DF
:100B800089008093880090938B0080938A009093D3
:100B90008D0080938C0008950E94B6058FEF0E940F
:100BA000BE050E94A1052FEF80E792E02150804012
:100BB0009040E1F700C000000E94A4052FEF80E7FD
:100BC00092E0215080409040E1F700C000000E9478
:100BD000A7052FEF80E792E0215080409040E1F799
:100BE00000C000000E94AD052FEF80E792E0215089
:100BF00080409040E1F700C000000E94B0052FEF58
:100C000080E792E0215080409040E1F700C0000072
:100C10000E94B3050C94B60589EA8093800089E0B0
:100C20008093810024982C983F988AB18F7C8AB950
:100C30006E98479A8BB180638BB9769A0E94CC05E7
:100C40000C94B50680E290E0909307018093060132
:100C500080911D0281110EC00E94E80481E0809302
:100C60001D022FEF83ED90E3215080409040E1F78B
:100C700000C0000064E670E080E40E94EE049093FF
:100C8000070180930601892B09F04EC064E670E0ED
:100C900080E00E944A059093070180930601892B0A
:100CA00009F042C064E670E080E00E944A0590933B
:100CB000070180930601892BB9F564E670E08FE3A4
:100CC0000E944A059093070180930601892B61F5E4
:100CD0000E949D0564E670E080E40E94EE0490931B
:100CE000070180930601892BF9F464E670E08CE03B
:100CF0000E944A059093070180930601892BA1F475
:100D000064E670E080E00E944A05909307018093BA
:100D10000601892B49F464E670E08FE30E944A05DE
:100D200090930701809306010E949D058091060122
:100D30000895CF93DF93EC01662329F0633049F0E7
:100D400090E080E00BC08A81882359F085EE0E94F4
:100D50005D168A818823A1F38CEA90E0DF91CF9120
:100D6000089585EE0E944A17F4CF0895CF936091BD
:100D7000C7027091C8028091C9029091CA020E9474
:100D8000FC20C82F0E94AA050E94AD050E94B00554
:100D90000E94B305C23039F0C33041F0C13049F48C
:100DA000CF910C94A105CF910C94A405CF910C94F4
:100DB000A705CF9108950F931F93CF93DF938C01D5
:100DC000EB019A9581159F4138F510FF03C080EE25
:100DD000FB01099511FF03C081EEFE01099512FF89
:100DE00003C082EEFE01099513FF03C083EEFE01EE
:100DF00009950115104180F084EEFE01099585EEFC
:100E0000FE01099586EEFE01099587EEFE01DF9150
:100E1000CF911F910F910994DF91CF911F910F9165
:100E20000895877091E001C0990F8A95EAF7892F9C
:100E30000E9460200C9499200C941107877091E017
:100E400001C0990F8A95EAF7892F0E9466200C94B9
:100E500099200C941E07CF93DF93EC01805E9109DB
:100E6000089720F061E177E0209711F46CE177E0DA
:100E7000CE010E94DB068C2FDF91CF910C945D1682
:100E8000CF93DF93EC010E944A17CE01805E910957
:100E9000089720F06EE177E0209711F469E277E09F
:100EA000CE01DF91CF910C94DB06CF93DF93EC0161
:100EB0000E942B07CE01DF91CF910C94400781E077
:100EC000089581E008950C9461071F93CF93DF93F9
:100ED00000D000D00F92CDB7DEB749835A836B8321
:100EE0002091550289819A8121111BC06623A9F0A6
:100EF0000E94B51F182F682F89819A810E945E1F5A
:100F000069817A81812F0F900F900F900F900F9031
:100F1000DF91CF911F910C94E4090E948C1F182F30
:100F2000EFCF0E94B51F69817A81EDCFFC0140812E
:100F300051816281738184810C9465070E944921EB
:100F4000811102C00E94C3210E943C0D0C940C062A
:100F50000C945604282F2F7041F0822F90E02A30F5
:100F600010F44D9608950697089587E290E008954D
:100F700008950C94B8070C94B90708950E949E1A1E
:100F80000E94BD072FEF84E39CE0215080409040F9
:100F9000E1F700C000000C942E230F931F93CF9312
:100FA000DF938C010E949607EC01B8010E94630751
:100FB000882309F4D3C0B801CE010E94B30D882361
:100FC00009F4CCC0B801CE010E946B14882309F447
:100FD000C5C0CA3C8CE5D80709F4FEC008F054C06F
:100FE000C33CECE5DE0709F4D0C048F5C5318CE51B
:100FF000D807A8F4C2309CE5D90708F052C1C11542
:10100000ECE5DE0709F4A5C0C130DC4509F4ACC04D
:10101000C801DF91CF911F910F910C945F07C631EA
:101020008CE5D80709F4AFC1C23CDC4589F7F8016B
:101030008281882309F492C00E945C128FC0C63C52
:10104000ECE5DE0709F4B7C080F4C43C8CE5D807B2
:1010500009F4A6C0C53CDC45D9F6F8018281882395
:1010600009F47CC00E94391079C0F8018281C83C23
:10107000FCE5DF0709F4ABC008F4A4C0882309F439
:101080006DC00E9473106AC0C13DECE5DE0709F433
:10109000D7C070F5CD3C8CE5D80709F4ADC088F415
:1010A000CB3CECE5DE0709F49FC0CC3CDC4509F005
:1010B000AFCFF8018281882309F450C00E94DC0E72
:1010C0004DC0F8018281CF3CFCE5DF0709F4AAC0DE
:1010D00008F49BC0882309F441C00E94C30E8930E4
:1010E00028F00E94C30E8E3008F462C089E08AC0E6
:1010F000C53DECE5DE0709F4C6C0B0F4F801828115
:10110000C33DFCE5DF0709F4B9C008F4A9C0882392
:1011100029F10E94C30E893128F00E94C30E823249
:1011200008F446C089E16EC0CD3DECE5DE0709F468
:10113000B1C0CE3DFCE5DF0709F1CC3DDC4509F04F
:1011400067CFF8018281882349F080E00E94D2298C
:1011500005C0F801828181110E94BE0780E0DF9105
:10116000CF911F910F910895F80182818823B1F3E7
:101170008091F40281608093F402F0CFF8018281C3
:10118000882361F30E94C321E9CFF801828188237B
:1011900029F30E944A20827259F00E944E12DECF3B
:1011A000F80182818823D1F20E944A208272A9F339
:1011B0000E944112D3CFF8018281882379F20E94E4
:1011C0004610CCCF882351F20E945510C7CF8823F8
:1011D00029F20E946410C2CFF8018281882309F4A9
:1011E000BDCF0E948210BACFF8018281882309F412
:1011F000B5CF0E94CB0EB2CFF8018281882309F4CB
:10120000ADCF81E00E945112A9CF882309F4A6CF67
:101210000E94C30E823020F00E94C30E853040F23F
:1012200082E0F0CF882309F499CF0E94C30E863064
:1012300028F00E94C30E883008F4BACF86E0E2CFCF
:10124000F8018281882309F489CF0E94C30E8F3070
:1012500028F00E94C30E843108F4AACF8FE0D2CFC9
:10126000882309F47BCF0E94C30E853128F00E94A9
:10127000C30E873108F49CCF85E1C4CF882309F4DD
:101280006DCF88E1BFCFF8018281882309F466CF52
:1012900083E2B8CFF8018281882309F45FCF82E02E
:1012A00055CFF8018281882309F4B2CE0E944921EA
:1012B000811102C00E94C3210E945C2190E09093A2
:1012C000730380937203FE01E350FC458091720327
:1012D0008160E231F10538F4EB5CFF4C0C94AE2EEA
:1012E00080917203826080937203809172030E94E6
:1012F00060210E949E1A32CF809172038460F3CFE6
:10130000809172038860EFCF809172038061EBCF90
:10131000809172038062E7CF809172038064E3CF93
:10132000809172038068DFCF809172038C60DBCF85
:10133000809172038E7FD7CF809172038D7FD3CF40
:10134000809172038B7FCFCF80917203877FCBCF49
:10135000809172038F7EC7CF809172038F7DC3CF40
:10136000809172038F7BBFCF809172038F77BBCF49
:1013700080917203837FB7CF90917203892F97FB7F
:1013800087F98058B0CF0E944A20F80192819923B2
:1013900081F08A7A91E009F490E090931E02811125
:1013A00006C089E20E9425200E949920D7CE85E3BD
:1013B000F9CF80911E02811104C089E20E942C2085
:1013C000F3CF85E3FBCF0895972F70E026E0929F3F
:1013D000600D711D1124FB0194E5899FE00DF11D45
:1013E0001124EE0FFF1FE154FF4F85919491089552
:1013F000FC01EE0FFF1FE15AFC4F85919491089577
:10140000CF93DF930E94E4090E94C60BEC01811583
:1014100020E5920708F042C0811530E4930708F0F8
:1014200018C1883E910528F5803E910508F0A4C0BA
:10143000883A910588F4853A910508F093C0813087
:10144000910509F499C0009709F496C0049708F033
:1014500093C0D0E0C0E090C08F3B910508F490C0ED
:10146000805C9109C03CD105A0F30E94F809EC0111
:1014700083C08115904250F4C11581E0D80708F06F
:101480007BC0C03FD10528F3D06576C0C11590E37D
:10149000D90708F0D4C0CE019F70E7CF811525E5AC
:1014A000920758F5811534E5930708F001C18115BD
:1014B00042E5940750F4C11581E5D80708F4CCC083
:1014C000DC2FCC27C16FD06A57C0982F9695969580
:1014D0009E0123703327C115D34508F0DAC0C1E05F
:1014E000D0E002C0CC0FDD1F2A95E2F720E2929FE8
:1014F000C0011124C82BD92BCAC0C1158AE5D80751
:10150000A0F4C11599E5D90708F0E2C0C11526E598
:10151000D20708F4D2C0C11538E5D30708F499CF33
:10152000DC2FCC27C06FD06A27C0C1154BE5D4078C
:1015300008F48FCFC1158CE5D80708F4D9C0CE01C7
:1015400090568115904208F084CF8D2F8F710E94A4
:10155000410C90E0982F882788279F719C012C2BA5
:10156000E901B4C0853A910509F4C5C0863A9105F0
:1015700009F0C4C0C2E8D0E4CE01DF91CF91089554
:10158000883A910509F4BDC0893A910509F4BCC0B7
:101590008A3A910509F4BBC08B3A910509F4BAC0A7
:1015A0008C3A910509F4B9C08B3B910509F4B8C098
:1015B0008C3B910509F4B7C08D3A910509F4B6C08A
:1015C000803B910509F4B5C08E3A910509F4B4C089
:1015D0008F3A910509F4B3C0813B910509F4B2C07B
:1015E000823B910509F4B1C0833B910509F4B0C079
:1015F000843B910509F4AFC0853B910509F4AEC069
:10160000863B910509F4ADC0873B910509F4ACC058
:10161000883B910509F4ABC0893B910509F4AAC048
:101620008D3B910509F4A9C08E3B910509F4A8C032
:101630008A3B910509F4A7C0C0E0D4E49DCFCE0158
:101640009927D3FF03C0EC01D86C96CFEC01D06C86
:1016500093CFDF70D06A90CFCE01E4E09695879566
:10166000EA95E1F783702C2F26952695237040E2AA
:10167000249F90011124382B8C2F8370C1E0D0E07F
:1016800002C0CC0FDD1F8A95E2F7C22BD32BDC689A
:1016900073CFC1E0D0E002C0CC0FDD1F2A95E2F786
:1016A00030E2939FC0011124C82BD92BDA6864CF94
:1016B000D82FCC27C46FD06A5FCF8C2F0E94410CEB
:1016C000C82FD0E0DC2FCC27CC27DF71D06254CFDD
:1016D0008C2F8F700E94410C34E0D695C7953A95B7
:1016E000E1F79C2F9F70C82FCF70C06ED92FB2CF5B
:1016F000DD27D06641CFC1E8D0E43ECFC3E8D0E4D7
:101700003BCFC2EED4E438CFC9EED4E435CFCAEE35
:10171000D4E432CFC5EBD4E42FCFC6EBD4E42CCF46
:10172000C3EBD4E429CFC4EBD4E426CFC7EBD4E495
:1017300023CFCCECD4E420CFCDECD4E41DCFC3E850
:10174000D5E41ACFCAE8D5E417CFC2E9D5E414CF5F
:10175000C4E9D5E411CFC1E2D6E40ECFC3E2D6E4AA
:101760000BCFC4E2D6E408CFC5E2D6E405CFC6E28B
:10177000D6E402CFC7E2D6E4FFCECFE6D4E4FCCE77
:10178000C0E7D4E4F9CECAE2D6E4F6CE82389105B9
:1017900049F1B0F48133910509F462C048F489320B
:1017A000910509F456C08A32910509F460C0089584
:1017B0008533910509F446C08933910599F0089560
:1017C000833E910531F138F4803E910591F0823EDF
:1017D0009105B1F00895863E910521F1873E91056E
:1017E00051F10895209172032370D9F080EE90E0BA
:1017F00008952091720320FF14C089E390E00895BA
:101800002091720322FF0DC024FD09C083EE90E0F9
:1018100008952091720322FD31C024FF02C090E0A0
:1018200080E008952091720323FFFBCF24FDF7CFC2
:1018300087EE90E008952091720323FFEECF86EEAD
:1018400090E008952091720325FFEBCF89E290E0AC
:1018500008952091720325FFE4CF85E390E0089579
:101860002091720326FFDDCF8AE290E00895209157
:10187000720326FFD6CF81E390E0089582EE90E0D8
:1018800008959091720392FF06C0282F2871283086
:1018900069F4877F846093FF06C0282F2871283160
:1018A00061F4877E846194FD877E0895282F2471DA
:1018B000243089F78B7F8860EECF282F2471243164
:1018C00091F78B7E8861EFCFCF93C82F90E00E9475
:1018D000B42E8093200290932102282FFC019BEFCD
:1018E0008E2F821B8C1710F0CF9108959193F8CF13
:1018F000EF92FF920F931F93CF93DF9310921F02EB
:1019000050912002E52FF091210240E0A62FB0E097
:101910007BEF9AEFE92EF12C9E2F951B981748F03C
:1019200040931F02DF91CF911F910F91FF90EF9095
:10193000089591919B3F81F3292F30E0691768F05A
:101940008D01021B130B9801253031056CF09F01AE
:1019500021503109E9017883DFCFE701C21BD30BA6
:101960009E012A0F3B1FF0CF41E0D6CFAF92BF922E
:10197000CF92DF92EF92FF920F931F93CF93DF935B
:101980007C01009120021091210290911F02F0E051
:10199000E0E0E41768F090931F02DF91CF911F9170
:1019A0000F91FF90EF90DF90CF90BF90AF90089590
:1019B000E801CE0FDF1F88818B3F79F45B01AE0E0B
:1019C000BF1E6701CE0EDF1ED6013C91D5018C9162
:1019D000831719F028833C9391E03196DACFCF92A8
:1019E000DF92EF92FF921F93CF93DF937C016B0105
:1019F000D42FC22F0E94D4226AEF70E00E94862E5C
:101A0000182F80911F028823F9F0612F8D2F0E94DB
:101A1000780CCC2369F0212F4D2FB601C701DF913F
:101A2000CF911F91FF90EF90DF90CF900C94B60C68
:101A300080911F02882379F3DF91CF911F91FF904E
:101A4000EF90DF90CF900895C111E5CFF5CFCF9300
:101A5000DF93EC0197FF0CC0FB018281882341F0EA
:101A60000E94520DCE019F770E94960D0E947E0D1E
:101A700081E0DF91CF9108958CE090E00E94EB2F00
:101A800090E0B0E0A0E08093260390932703A0931A
:101A90002803B09329030895609126038CE090E019
:101AA0000C94FF2F0E944A2080932A030E945D20FD
:101AB00080912603813089F0882359F0823091F09B
:101AC0008430B9F08FE39CE90197F1F700C0000082
:101AD000089582EE0E945D16F5CF88E193E00E94A2
:101AE0005507F0CF82EE0E945D1687E50E94A01791
:101AF000E9CF86EE0E94A01788E1F8CF80912603F7
:101B0000813071F0882341F0823031F0843061F00F
:101B100080912A030C945A2082EE0E944A17F8CF33
:101B20008CE20E94A017F4CF88E2FBCF0F931F93A3
:101B3000CF93DF938C01CCE0D0E0C8010C2E02C023
:101B4000969587950A94E2F78F700E94AA070E94E3
:101B5000A0172497CC3F8FEFD80779F7DF91CF916B
:101B60001F910F9108950F931F93CF93DF93EC0173
:101B70008B01FB018281882371F0C33EFCE5DF0706
:101B800019F188F4C13EECE5DE07C9F081E0C23E00
:101B9000FCE5DF0789F0B801CE01DF91CF911F91FD
:101BA0000F910C94270DC43E8CE5D80779F084E0A2
:101BB000C53EECE5DE0779F78093260302C010925C
:101BC00026030E944C0DE7CF82E0F6CF83E0F4CFEE
:101BD000CF92DF92EF92FF920F931F93CF93DF93F9
:101BE0009B01E82FF82F682F782F332309F46FC05B
:101BF000E32EF12C082F10E046E0249FC0011124B1
:101C0000CFEFD0E0BE010E94862EAB01822F90E084
:101C1000880F991F25E5249FB001259F700D112481
:101C2000861B970B982F990F980FBE016E197F098D
:101C3000609FD001619FB00D709FB00D11248B2F5C
:101C4000939F90011124232F3327BE01621B730B36
:101C5000609F9001619F300D709F300D11246E01C7
:101C6000C91AD108CE9CB001CF9C700DDE9C700DBE
:101C70001124672F7727C61BD70BC09F7001C19F08
:101C8000F00CD09FF00C11247F2D4230510541F112
:101C900048F44115510569F04130510529F17B2F78
:101CA000832F07C04430510511F128F1463051050A
:101CB000B1F7F0E0EA58FB4F6491E72FF0E0EA5803
:101CC000FB4F7491E82FF0E0EA58FB4F8491DF91CD
:101CD000CF911F910F91FF90EF90DF90CF900895DB
:101CE000EB2F8F2D7F2FE5CF7E2FE32FE2CFEF2D30
:101CF0007B2F8F2FDECF732FEB2FFBCF0895CF934A
:101D0000DF93762FE901682F842F0E94E80D362F8C
:101D1000272F398328838A83DF91CF91089580917B
:101D20002B03982F9E7F29F48170826080932B0370
:101D300008958A34E8F381708864F8CF88E090E0F1
:101D40000C94F32FCF92DF92EF92FF926B017C0104
:101D50000E948F0EB701A60188E090E0FF90EF90FF
:101D6000DF90CF900C941130EBE2F3E083E08083BE
:101D700011828FEF828383831482608171818281DB
:101D800093810C94A20E80912B0380FF02C0869554
:101D9000089580E0089580912F03833018F48F5FB9
:101DA00080932F0360912B0370912C0380912D035E
:101DB00090912E030C94A20E80912F03882319F08A
:101DC000815080932F0360912B0370912C0380919D
:101DD0002D0390912E030C94A20E8091250224E0F5
:101DE000829FC0011124805D9C4F60910A0170E0C8
:101DF00020912B03E0E3F3E020FD0C94BE1311824D
:101E000010821282349623E0EC36F207C1F7F5CF48
:101E100090912B0390FF0CC0E0E3F3E0818360839B
:101E20004283349693E0EC36F907C1F70C94ED0E3B
:101E30000895CF93DF9300D000D0CDB7DEB7909157
:101E40002B0390FF0AC09E012F5F3F4F0E947F0E21
:101E50004B8169818A810E94080F0F900F900F902B
:101E60000F90DF91CF910895CF93DF93EC01EC8138
:101E7000F0E0EF58FC4F4491EBE2F3E062818181A6
:101E80000E94190F8C818F5F8C83DF91CF91089511
:101E9000CF93DF93EC01EBE2F3E0438162818C812D
:101EA0000E94190F8C818F5F8C83DF91CF910895F1
:101EB0000F931F93CF93DF9300D000D0CDB7DEB741
:101EC0008C018091220281110AC09E012F5F3F4F39
:101ED0004FEF6FEF0E947F0E8A8180932202F801FC
:101EE0008481813071F0882339F040E0823011F430
:101EF0004091220280E003C08091220240E060E035
:101F000004C06091220240E080E00E94080FF801C6
:101F1000848190E0019663E070E00E949A2E8483B1
:101F20000F900F900F900F90DF91CF911F910F9115
:101F300008955F926F927F928F929F92AF92BF921D
:101F4000CF92DF92EF92FF920F931F93CF93DF9385
:101F500000D000D0CDB7DEB7182F762E042F622E1A
:101F600090912B0390FF29C0E92FE695AE2FB0E0AA
:101F7000A053BE4F8C9180932D029E7F923089F5A5
:101F80009E012F5F3F4F812F0E947F0E4B81698101
:101F90008A810E94080F10932C0370922D030093E6
:101FA0002E03662051F060912B0370912C038091D9
:101FB0002D0390912E030E94A20E0F900F900F9070
:101FC0000F90DF91CF911F910F91FF90EF90DF90D5
:101FD000CF90BF90AF909F908F907F906F905F90C9
:101FE0000895823019F400912E03D5CF863019F46C
:101FF00010912C03D0CF8930D9F3893161F6E951A2
:102000008E2F8170582EE695F0E0EF58FB4FA5908B
:10201000B490BB2480E3E82E83E0F82ED12CC12CB1
:102020009FE0892E912CC601B4010E94862E812F3B
:10203000511013C0860F9701402F672D0E947F0E0D
:10204000CA0CDB1C84E0E80EF11C8CE6E81683E089
:10205000F80649F70E94ED0E9ECF861BECCFEBE20F
:10206000F3E09181282F438162818CE0890F0C94E9
:10207000990F81E00C942F10EBE2F3E09181282F6F
:102080004381628184EF890F0C94990F81E00C9455
:102090003C10EBE2F3E062812FEF620F08F46FEF88
:1020A000282F438181810C94990F81E00C94491071
:1020B000EBE2F3E062812FEF621B08F460E0282F6F
:1020C000438181810C94990F81E00C945810EBE2CC
:1020D000F3E043812CE0420F08F44FEF282F628198
:1020E00081810C94990F81E00C946710EBE2F3E08E
:1020F00043812CE0421B08F440E0282F628181815B
:102100000C94990F81E00C94761020E00C94990FB8
:10211000EF92FF921F93CF93DF93EC0180E3E82EC1
:1021200083E0F82E10E08C81970140912E0360919E
:102130002D03810F0E947F0E1F5E84E0E80EF11CCC
:102140001F3F89F70E94ED0E9A818C8190FF08C095
:102150008F5F8C83DF91CF911F91FF90EF90089557
:102160008150F7CFCF92DF92EF92FF920F931F93A0
:10217000CF93DF93FC018281DD24DA9480FD02C0DD
:10218000DD24D39400E313E0D0E0C0E0F801118235
:102190001082128294E0E92EF12CC12C809124024D
:1021A0008C0D87FD815F082E000C990B8C179D0705
:1021B00091F480912E038E9DA0018F9D500D1124CE
:1021C0005595479555954795980160912D038091B8
:1021D0002C030E947F0ECD0CF1E0EF1AF108F1F60E
:1021E00021960C5F1F4FCF30D10581F60E94ED0E76
:1021F0008091240291E0D91210C081110CC08EE0B0
:1022000080932402DF91CF911F910F91FF90EF9067
:10221000DF90CF9008958150F3CF90E00196BE01FA
:102220000E949A2EEDCF0F931F93CF93DF93C0E3BD
:10223000D3E0FE01118210821282349683E0EC36E4
:10224000F807C1F710E000E080912302082E000C8F
:10225000990B081719078CF180910901082E000CC1
:10226000990B801791074CF19E0140912E036091CC
:102270002D0380912C030E947F0E0F5F1F4F249629
:102280000F30110509F70E94ED0E80910801909121
:102290002302980F9093230220910901280F209385
:1022A0000901121614F49E301CF0819580930801E8
:1022B000DF91CF911F910F910895198218821A8290
:1022C000DCCFEF92FF920F931F93CF93DF93EC013C
:1022D0008C819D810196817099279D838C8380E3F9
:1022E000E82E83E0F82E10E005E5812F86952C81FD
:1022F0003D81820F932F911D8170970140912E0394
:1023000060912D03809F802D11240E947F0E1F5FFE
:1023100084E0E80EF11C1F3041F7DF91CF911F914F
:102320000F91FF90EF900C94ED0EEF92FF920F93B0
:102330001F93CF93DF938C01C0E3D3E0F12CE12C0A
:10234000F801948160912D0380912C03F7E0EF1642
:10235000F104FCF49923F9F09E0140912E030E94B0
:102360007F0E2FEFE21AF20A24968FE0E816F104AE
:1023700039F70E94ED0EF801848190E0019681709A
:1023800099278483DF91CF911F910F91FF90EF9058
:102390000895992309F39E0140E0E1CFEBE2F3E0D9
:1023A00080818E7F808360817181828193810E9490
:1023B000A20E10922E022FEF80E792E02150804073
:1023C0009040E1F700C000000C94ED0E60912B03EB
:1023D000669570E04BE050E08BE091E00E94DE2FCC
:1023E000892B19F481E080932E020E94D4229093CD
:1023F000270280932602089590912B0390FF35C009
:102400009170811128C0926090932B03662351F044
:1024100060912B0370912C0380912D0390912E03DA
:102420000E94A20E60912B03669570E04BE050E095
:102430008BE091E00E94DE2F892BA1F010922E02FA
:1024400081E08093290240912E0360912D038091B9
:102450002C030C948510853210F09864D5CF880F2A
:10246000982BD2CF0E94E611EBCF0895682F909160
:102470002B03969581E0890F853208F081E00C945A
:10248000FC1181E00C943612682F90912B039695E5
:102490008FEF890F09F484E20C94FC1181E00C9415
:1024A000441261E00C94FC11EBE2F3E08081816066
:1024B000808386950C94511280912B0380FD0C949F
:1024C000CE110C94541260E00C94FC1180912C02FB
:1024D000811133C08091F40281608093F4020E94E4
:1024E0004921811104C00E94C3210E94B40E0E94A0
:1024F0009E0E60932B0370932C0380932D03909377
:102500002E036E7F61F40E94B40E0E949E0E6093B3
:102510002B0370932C0380932D0390932E030E9422
:102520008F0E10922E0280912B0380FF03C08695A0
:102530000E94631281E080932C0208950F931F93F1
:10254000CF93DF9380912E02882309F48DC0809170
:102550002D02E0912B03E695E81BE09328028230E0
:10256000C9F5F0E0E359FC4FE491CE2FD0E004E34D
:102570001FE080912902882389F0109229020E948D
:10258000D4229E0120953095820F931F90932702AD
:102590008093260210922B0210922A02809126022A
:1025A000909127020E94E0228C179D0708F45CC0DE
:1025B000E0912602F0912702CE0FDF1FD093270271
:1025C000C093260286E292E0F801DF91CF911F913D
:1025D0000F910994863049F4F0E0E659FC4FE491FC
:1025E000CE2FD0E008E41FE0C4CF893051F4E69547
:1025F000F0E0E959FC4FE491CE2FD0E008E810E17B
:10260000B8CF8F3051F4E695F0E0EC59FC4FE491EF
:10261000CE2FD0E002EB10E1ACCF853149F4F0E0F1
:10262000EF59FC4FE491CE2FD0E003E111E1A1CFAF
:10263000C8EED3E001E611E1883109F49ACF833284
:1026400039F4EFE5F3E0C591D49108E51FE091CFAF
:10265000C4EFD1E005E911E1843209F48ACFC0ED7D
:10266000D7E00EE71EE085CFDF91CF911F910F914C
:1026700008958823B9F05198599A5098589A95E03E
:102680009A95F1F70000509A589895E09A95F1F7CD
:102690000000882311F0519A599885E08A95F1F746
:1026A00000000895519A5998E8CF8BB18C7F8BB96F
:1026B0005098589A5198599A85E08A95F1F70000F8
:1026C00008958AB18C7F8AB985E08A95F1F7000078
:1026D000519A599885E08A95F1F70000509A5898D8
:1026E00085E08A95F1F7000008955098589A85E0A2
:1026F0008A95F1F700005198599A85E08A95F1F78B
:1027000000000895CF93DF93D82FC8E08D2F8078F5
:102710000E943913DD0FC150C9F780E00E943913C0
:1027200085E08A95F1F7000085E08A95F1F70000D1
:1027300080E0DF91CF9108953BB1242F2095232392
:102740003BB1432B3FB7F894680F791F8617970763
:1027500011F43FBF0895FC015191CF01E8E04BB95E
:10276000000000C057FF2BB9550F000000C000C08B
:1027700000C02BB900C0EA9591F7E8CFAF92BF92A5
:10278000CF92DF92EF92FF920F931F93CF93DF933D
:102790007C018B01CFB6D090BC00F8948091BC0036
:1027A0008B7F8093BC000E9455130E94611384E8C4
:1027B0000E948213000F111F000F111F5701A00E5E
:1027C000B11EE701CA15DB05A9F40E947513CFBE3F
:1027D000D092BC00579A40E8B801C701DF91CF9171
:1027E0001F910F91FF90EF90DF90CF90BF90AF902F
:1027F0000C949C1389910E948213E4CF0F931F9332
:10280000CF93DF93C62FD42F022FFC018281882320
:10281000C9F0609331020E94D422909330028093D9
:102820002F0280E28C0F883008F050C0C77081E022
:1028300001C0880FCA95EAF7DF91CF911F910F91E0
:102840000C94A81710913102161335C080912F02F5
:10285000909130020E94E022883C910560F5C0E230
:10286000CD0F1D17B9F080E2810F883040F417704A
:1028700081E001C0880F1A95EAF70E94AF17C830AF
:1028800048F481E09D2F977001C0880F9A95EAF770
:102890000E94A817802F0E94A017C830B8F4D770E4
:1028A00081E001C0880FDA95EAF7DF91CF911F919F
:1028B0000F910C94AF1780E28C0F883038F4C770FA
:1028C00081E001C0880FCA95EAF7EFCFDF91CF9181
:1028D0001F910F9108959C01CB01203F4CE53407D7
:1028E00031F190F4283DFCE53F07E9F0293D4CE546
:1028F000340769F1273D3C4579F426E241EE61EE6B
:102900000E94FE1380E00895223FFCE53F07B9F0E6
:1029100090F0233F3C45B9F0FC0182818823D1F03F
:1029200010923102089527E245EE65EEE9CF26E2E6
:1029300041EE60EEE5CF27E245EE64EEE1CF26E220
:1029400041EE62EEDDCF27E245EE66EED9CF28E21A
:1029500041E0EBCF81E008959093370280933602F7
:102960000895E0913602F0913702309721F00190FE
:10297000F081E02D099480E00895E0913602F09115
:102980003702309799F020912701222359F02091A6
:10299000720327FF07C0DC012C9111962C9311972D
:1029A00025E02C930280F381E02D09940895E091B5
:1029B0003602F0913702309739F022E0DC012C9397
:1029C0000480F581E02D099408952091340230911E
:1029D00035022817390771F090933502809334023D
:1029E000E0913602F0913702309721F00680F781AE
:1029F000E02D099408952091320230913302281776
:102A0000390771F09093330280933202E0913602DD
:102A1000F0913702309721F00084F185E02D099480
:102A2000089585B7806885BF85B7806885BF08959C
:102A3000089508950C94181508950C941C150E947F
:102A400011150E9419150C941A1581E008950E9421
:102A5000CB220E9458040E9460230E9466120C94AC
:102A60001D15BF92CF92DF92EF92FF920F931F93AB
:102A7000CF93DF93CDB7DEB72A970FB6F894DEBFBA
:102A80000FBECDBF0E9485040E942515882309F43E
:102A900071C089E3C82E82E0D82E10E000E0B02E8D
:102AA000802F0E94E104E82EF601F1906F01F816E4
:102AB00009F45AC08091F40281FD0E94E70490E07D
:102AC00080E0FE242F2D30E0482FB901082E02C0EF
:102AD000759567950A94E2F760FF41C08E83BF82C7
:102AE00081E090E06C0102C0CC0CDD1C4A95E2F75D
:102AF0002E2D30E02C213D21232B09F480E0888706
:102B00000E94D4228160782F9A8789874E815F81C5
:102B100068858A850E941316F801E75CFD4F808165
:102B20008C2580830E94EE240E94B114909138027B
:102B3000891789F10E94B114809338022A960FB642
:102B4000F894DEBF0FBECDBFDF91CF911F910F91E3
:102B5000FF90EF90DF90CF90BF900C94BB07019651
:102B60008630910509F0B0CF0F5F1F4F0E30110571
:102B700009F095CF8FEF89838A831B820E94D4222C
:102B80008160782F9D838C8349815A816B818D81EF
:102B90000E941316C7CF2A960FB6F894DEBF0FBE59
:102BA000CDBFDF91CF911F910F91FF90EF90DF90FC
:102BB000CF90BF900895CF93DF93DC018C91682F65
:102BC00070E021E030E001C0220F8A95EAF711960B
:102BD0004C91119750E0EA01C95BDD4F9881129644
:102BE0008C9112978823C9F0809157028823C1F0F5
:102BF00086E0849FF001859FF00D1124E60FF71FFA
:102C0000EE0FFF1FE85DFE4F408151814D935C93B5
:102C1000292B2883DF91CF910895892F8223E6CF36
:102C200020952923F6CFCF93DF93CDB7DEB72B972F
:102C30000FB6F894DEBF0FBECDBF4F8358876987AC
:102C40007A878B878A859B85892B21F0CA01892306
:102C50008F3FE1F41E821D8285E0FE013796DE0182
:102C6000119601900D928A95E1F749815A816B8105
:102C70007C818D819E810E943E1D2B960FB6F8941B
:102C8000DEBF0FBECDBFDF91CF910895CE01079675
:102C90000E94DB15DFCFFC01808191810E94F71F2C
:102CA00092959F70963041F48091570291E0892768
:102CB00080935702909356020895CF93C82F88238C
:102CC00009F4E6C08238C1F40E94B11481FDE0C06D
:102CD00089E30E9425200E9499202FEF81EE94E045
:102CE000215080409040E1F700C0000089E30E943D
:102CF0002C20CF910C9499208338A1F40E94B11418
:102D000080FDC6C083E50E9425200E9499202FEFF8
:102D100081EE94E0215080409040E1F700C0000037
:102D200083E5E5CF8438A1F40E94B11482FDB0C0E0
:102D300087E40E9425200E9499202FEF81EE94E0E5
:102D4000215080409040E1F700C0000087E4CFCFE1
:102D50008CEF8C0F813A48F48C2F0E94E926811168
:102D600097C08C2F0E942520C4CF80E28C0F883022
:102D700048F4C77081E001C0880FCA95EAF70E9445
:102D80004D20B7CF8BE58C0F833068F481E890E05D
:102D9000C53A31F083E890E0C63A11F482E890E059
:102DA000CF910C94E51488E58C0F873108F068C04A
:102DB00082EE90E0C83A09F460C089EE90E0C93A2A
:102DC00009F45BC08AEE90E0CA3A09F456C085EB7C
:102DD00090E0CB3A09F451C086EB90E0CC3A09F48C
:102DE0004CC083EB90E0CB3B09F447C084EB90E010
:102DF000CC3B09F442C087EB90E0CD3AF1F18CEC8A
:102E000090E0C03BD1F18DEC90E0CE3AB1F183E897
:102E100091E0CF3A91F18AE891E0C13B71F182E90A
:102E200091E0C23B51F184E991E0C33B31F181E291
:102E300092E0C43B11F183E292E0C53BF1F084E201
:102E400092E0C63BD1F085E292E0C73BB1F086E26A
:102E500092E0C83B91F087E292E0C93B71F08FE6C7
:102E600090E0CD3B51F080E790E0CE3B31F090E038
:102E700080E0CA3B11F48AE292E0CF910C94FB14FB
:102E8000C03F30F08C2F0E94FC23CF910C94E324A0
:102E9000CF910895882309F452C0823871F40E94BA
:102EA000B11481FF4CC089E30E9425200E94992023
:102EB00089E30E942C200C949920833859F40E94B5
:102EC000B11480FF3CC083E50E9425200E94992018
:102ED00083E5EFCF843859F40E94B11482FF2FC0EC
:102EE00087E40E9425200E94992087E4E2CF9CEF8E
:102EF000980F913AF0F290E2980F983050F4877062
:102F000091E001C0990F8A95EAF7892F0E9453201A
:102F1000D2CF9BE5980F933020F490E080E00C94A2
:102F2000E51498E5980F973120F490E080E00C9438
:102F3000FB14803F20F00E9464240C94E324089545
:102F4000CF93C82F0E945D168C2FCF910C944A17F7
:102F5000882321F00E944D200C9499200895882305
:102F600021F00E9453200C94992008958F929F92F3
:102F7000AF92BF92CF92DF92EF92FF920F931F9387
:102F8000CF93DF937C01D62FC72FFC0105810295DB
:102F90000F70128111110E946D200E944320C82ED3
:102FA000882371F01123B1F080E28D0F883090F00A
:102FB00082E00E94E4200E94432091E0C82EC926AE
:102FC000DC2ED2949FE0D922ED2DF0E0E95BFF4C9E
:102FD0000C94AE2EC12CF4CF0C2F0F70C07F11F0CB
:102FE0000295007F1123A9F0002359F080E28D0F94
:102FF000883010F0D11109C0802F0E944D200E940E
:1030000099208D2F0E945D1614C0802F0E94602091
:10301000F6CF8D2F0E944A17002359F080E28D0FC2
:10302000883010F0D11133C0802F0E9453200E94AD
:103030009920F8E0DF1639F0DF1648F086EF8D0DA5
:103040008F70823020F40E94B1140E94BB07CC2004
:1030500009F427C20E943F2080FD23C2F70112829B
:103060000E9439200E94C21EC7010E945E1A0E945F
:103070003920DF91CF911F910F91FF90EF90DF905A
:10308000CF90BF90AF909F908F900C94E31E802FB5
:103090000E946620CCCFFC2FFF70BF2EC07FC032B5
:1030A00019F0B29480EFB822DD2339F0D13019F154
:1030B000112359F1002321F1A4CF112381F0011133
:1030C00006C00E9480208B290E94A817B2CF013031
:1030D000C1F70E9480208B290E948620AACF01116F
:1030E00006C00E948F208B2D0E94AF17A2CF013007
:1030F00009F49FCFF6CF112329F0023008F099CFC1
:103100008B2DE2CF011195CFEECF002361F38D2FF0
:103110000E944A178ECF8C2F86958695837069F012
:10312000813009F086CF8D2F9C2F9370111102C032
:1031300090E080E00E94FB147CCF8D2F9C2F937039
:10314000111102C090E080E00E94E51472CF1123BB
:1031500009F1D53F99F0D63FB9F0D43F49F48091B9
:103160006C0390916D03816090936D0380936C0369
:103170008D2F0E94FC230E94E3245BCF80916C037F
:1031800090916D038260F0CF80916C0390916D03FC
:103190008460EACFD53F89F0D63FA9F0D43F49F407
:1031A00080916C0390916D038E7F90936D0380935B
:1031B0006C038D2F0E946424DECF80916C0390916C
:1031C0006D038D7FF2CF80916C0390916D038B7FA7
:1031D000ECCF8C2F837009F047C011112ACF2D2F0F
:1031E000229526952770220F220F6D2F6F70862E45
:1031F000912CB12CA12C022E04C0880C991CAA1C65
:10320000BB1C0A94D2F760E070E0CB01D4FF0FC082
:103210006FE070E080E090E004C0660F771F881FC9
:10322000991F2A95D2F76095709580959095C695CF
:10323000C695C370C23051F080F4682979298A2973
:103240009B29C13071F00E94741EF3CE6829792940
:103250008A299B290E94861EECCE0E94741EC501FD
:10326000B4010E94621EE5CE8695112311F08C2FC9
:103270008170882309F4DDCE2D2F229526952770A5
:10328000220F220F6D2F6F70862E912CB12CA12C46
:10329000022E04C0880C991CAA1CBB1C0A94D2F7ED
:1032A00060E070E0CB01D4FF0FC06FE070E080E021
:1032B00090E004C0660F771F881F991F2A95D2F7E8
:1032C0006095709580959095C695C695C370C230EF
:1032D00051F080F4682979298A299B29C13071F03D
:1032E0000E94391FA6CE682979298A299B290E9424
:1032F0004B1F9FCE0E94391FC501B4010E94271F9A
:1033000098CEE0E2ED0FE53108F04CC0F0E0E95A6C
:10331000FF4C0C94AE2EDF708C2F8F71112321F097
:103320000E94C21E8D2FD0CE0E94E31E8D2FDCCEB8
:10333000112339F001117DCE8C2F8F710E94061F51
:1033400078CE023008F075CEF7CF8C2F8F71112315
:1033500039F00E94C21E6DCE8C2F8F711123C9F3DC
:103360000E94E31E66CE112329F08C2F8F710E94DC
:10337000AD1E5FCE0E94A81E5CCE112349F0CF7116
:103380008C2F0E94C21E63E08C2F0E94CF2051CE52
:1033900081E00E94E420023008F44BCE82E00E94DB
:1033A000E42047CE112329F001112BCE8C2F8F71F1
:1033B000D0CF002369F0D93309F0A9CE2FEF87EEE3
:1033C00093E0215080409040E1F700C000009FCE84
:1033D0008C2F8F71C5CF4C2F4F706D2FC7010E945E
:1033E00099060E94D81D25CED23F71F1C8F4D03F76
:1033F00001F1D13FB9F180915602002309F446C092
:10340000882341F08091570291E0892780935702E9
:10341000109256028D2F112389F10E945D1616C05D
:10342000D43FD9F078F0D53F31F711110FC081E0CA
:1034300006C0112359F08091570291E089278093AB
:10344000570204C081E01827109357024C2F4F7089
:103450006D2FC7010E94E309ECCD1111F7CF109237
:103460005702F4CF112339F080915602882319F3C3
:1034700010925602EBCF0023F1F2E8CF0E944A17D8
:1034800086E0F70111928A95E9F7E0CF8823F1F2FF
:103490001111DCCF8091570291E089278093570268
:1034A000E7CFDF91CF911F910F91FF90EF90DF90C9
:1034B000CF90BF90AF909F908F9008950F931F93E0
:1034C000CF93DF93EC018B819C81892B29F088813C
:1034D000998189238F3F29F4DF91CF911F910F911B
:1034E0000895CE010E94CD078823B1F368817981C8
:1034F0008A810E9401208C010E945D1F0E945F1E34
:10350000B801CE01DF91CF911F910F910C94B617A6
:103510000E946D200E947D200E9499200E94852596
:103520000E94E32490E080E00E94E51490E080E0B7
:103530000C94FB140E9433200C94881A0E945D2086
:103540000C949A1AE92FE295EF70E250EE3070F485
:10355000F0E0E459FF4C0C94AE2E803F19F020F4BB
:10356000803E20F481E00895843FE1F380E00895F7
:10357000803EC0F3813FD1F7F5CF93FB882780F9D8
:1035800008950E94F71F0C94A21ACF93DF9300D0E6
:1035900000D00F92CDB7DEB70F900F900F900F9025
:1035A0000F90DF91CF910895CF93DF9300D000D09B
:1035B00000D0CDB7DEB726960FB6F894DEBF0FBEAB
:1035C000CDBFDF91CF9108951F93CF93DF93C0912B
:1035D000580216E0809159028C1304C0DF91CF91FC
:1035E0001F910895D0E01C9FF0011D9FF00D112444
:1035F000E65AFD4F408151816281738184819581BA
:103600000E94D41A2196C770E5CF40918A0250914A
:103610008B0260918C0270918D0280918E0290914C
:103620008F020C94D41A1F93CF93DF9380918F0253
:10363000807FC1F480918C028823A1F08091580290
:10364000C091590260918A0270918B0240918D0263
:1036500050918E02D62FD723DA01A095B09516E0AF
:10366000C81304C0DF91CF911F91089590E04115D8
:10367000510511F0DF3F31F401968770F1CF2A0F29
:103680003B1F17C0189FF001199FF00D1124E65A37
:10369000FD4F21812713F0CF20812613EDCF22810A
:1036A0002111EACF238134812417350740F3241BED
:1036B000350B283C310500F720918F022F702061D7
:1036C00020938F0226E0289FF001299FF00D1124FE
:1036D000E15AFD4F80818F70806180838AE892E09B
:1036E0000E945E1ADF91CF911F910C94E41ABF9251
:1036F000CF92DF92EF92FF920F931F93CF93DF93BE
:10370000CDB7DEB761970FB6F894DEBF0FBECDBF61
:103710008C0185E0F801DE011D9601900D928A95DD
:10372000E1F7D8014C9111965C9111971296EC90AB
:10373000129780918D0290918E02009709F47FC1BB
:1037400020918A0230918B02622F63236F3F09F42C
:1037500076C11396CD90DC90B0908C02BB2009F41A
:1037600011C1C816D906D0F1F601E81BF90BCF013B
:10377000FF24F394883C910508F0F12C80918F028E
:10378000982F907FFF2009F4B8C091117FC0FE2CC4
:10379000351329C0241327C0E11025C08F70806124
:1037A00080938F020E94051B8AE892E00E945E1AB5
:1037B00080918F02D80115968C938F2D61960FB64C
:1037C000F894DEBF0FBECDBFDF91CF911F910F9157
:1037D000FF90EF90DF90CF90BF90089580959095E7
:1037E0008C0D9D1DC5CFCD2829F0852F84238F3FBB
:1037F00009F041C180E0B82FB170DB2E80FF3CC0E2
:10380000809158022091590236E0821315C04D87ED
:103810005E878D859E850E94F71F292F22952F7028
:103820002230F0F0243018F59F70F1F0F801958106
:10383000907FD1F4D12C1EC090E0389FF001399FC9
:10384000F00D1124E65AFD4F6181651306C06081B9
:10385000641303C06281E6120FC001968770D5CF52
:103860009F7011F0882331F3805E883018F3C8010F
:103870000E945E1AFD2CA1CFEE2009F49ECF80910C
:103880008F02816080938F02F12C97CF351306C091
:10389000241304C0D801EE2009F49AC04D875E8736
:1038A0008D859E850E94C11A882319F1EE2009F1A9
:1038B00080918F02803270F020918A0230918B02C9
:1038C00038872F831986DB86CA868C87CE010796B8
:1038D0000E945E1A86E0F801AAE8B2E001900D921B
:1038E0008A95E1F70E94131B0E94051BFF24F394A5
:1038F00064CFC8010E945E1AF9CF911113C07C2DCC
:10390000D98AC88A6E2D89890E94C51A8AE892E0F0
:103910000E945E1A86E0EAE8F2E0DF011D928A95D5
:10392000E9F763C0351312C0241310C0E1100EC0B4
:10393000F8018583C8010E945E1AEAE8F2E086E099
:10394000DF011D928A95E9F7FB2C37CF4D875E8703
:103950008D859E850E94C11A882359F2EE2049F276
:1039600080918F02803208F4B5CF20918A02309185
:103970008B023A8329831B82DD82CC828E83CE0127
:103980000196A6CFC816D90698F1F601E81BF90BE7
:10399000CF01F12C883C910508F049C0FE2CEE20A7
:1039A00009F4A7CF351332C0241330C080918F02A1
:1039B00080FD23C0982F907F01F1D80115968C933C
:1039C0001597903F39F0982F907F905F8F70892BDB
:1039D00015968C93C8010E945E1A86E0F801AAE849
:1039E000B2E001900D928A95E1F70E94051BE5CEA9
:1039F000809590958C0D9D1DCCCF86E0F801AAE8AE
:103A0000B2E001900D928A95E1F7D7CE4D875E879F
:103A10008D859E850E94C11A81115CCF80918F0295
:103A2000816080938F02C8010E945E1AC6CE7C2DF1
:103A3000D98AC88A6E2D89890E94C51A6BCFEE205B
:103A400009F457CF4D875E878D859E850E94C11AE8
:103A5000F82E882309F44DCF86E0F801AAE8B2E0F9
:103A600001900D928A95E1F78AE892E00E944B1648
:103A70000E94131BBACF81E08E25BDCE1F93CF933A
:103A8000DF93CDB7DEB72C970FB6F894DEBF0FBE2D
:103A9000CDBF4F83588769877A878B879C87CE01F4
:103AA00007960E94771B882369F08A859B85892B5E
:103AB00039F04F815885842F85238F3F09F071C0DD
:103AC00016E05FC086E0FE013796DE011196019098
:103AD0000D928A95E1F78A859B85892B89F38885E4
:103AE0009F8189238F3F61F32091590230E0C90102
:103AF000019687709927409158024817190671F46A
:103B00000E949E1A109259021092580286E0EAE82A
:103B1000F2E0DF011D928A95E9F7D2CF96E0929FFD
:103B2000D001939FB00D1124A65ABD4FFE013196CE
:103B300001900D929A95E1F7809359020E94E41A40
:103B4000BFCF819FC0011124865A9D4F0E94771BD1
:103B50008823E9F0E09158021E9FF0011124E65AF3
:103B6000FD4F4081518162817381848195810E94E2
:103B7000D41A8091580290E001968770992780931B
:103B8000580280915802909159028913DACF2C96ED
:103B90000FB6F894DEBF0FBECDBFDF91CF911F915E
:103BA000089569857A858B859C850E94D41A88CF73
:103BB000EF92FF920F931F93CF93DF938C01892B8A
:103BC00081F0F12CEE24E394E8012196F801849130
:103BD000843770F4843008F05FC08130B1F08230F7
:103BE000A1F1DF91CF911F910F91FF90EF90089578
:103BF000853709F44CC008F43DC09CE7980F903716
:103C000080F78F770E944A1749C00E5F1F4FFE0151
:103C1000849190E2980F983060F48770FE2D01C077
:103C2000FF0F8A95EAF78F2F0E9470200E9499203B
:103C300002C00E945D168F2D815030F2EFE9FFE047
:103C40003197F1F700C00000F7CF0E5F1F4FFE0164
:103C5000849190E2980F983050F48770FE2D01C047
:103C6000FF0F8A95EAF78F2F0E947620DFCF0E9400
:103C70004A17E1CF0E5F1F4FFE01C491C150D8F229
:103C80008FE99FE00197F1F700C00000F7CF0E5FCA
:103C90001F4FFE01F490CFCF0E945D168E01CBCF57
:103CA00008950C94501E0E94511E6093CB02709395
:103CB000CC028093CD029093CE020C94881A089582
:103CC0000C94531E0F931F930091CB021091CC02C2
:103CD0002091CD023091CE02602B712B822B932B41
:103CE0001F910F910C94531E0F931F930091CB02C1
:103CF0001091CC022091CD023091CE02602371232D
:103D0000822393231F910F910C94531E0F931F93A3
:103D10000091CB021091CC022091CD023091CE02C5
:103D200060277127822793271F910F910C94531EB0
:103D30000C94501E0C94981E0E949A1E6093C70209
:103D40007093C8028093C9029093CA020C94881A97
:103D500060E070E0CB010C949C1E0F931F9341E038
:103D600050E060E070E08A019B0104C0000F111F69
:103D7000221F331F8A95D2F7C901B8011F910F91F5
:103D80000C949C1E0F931F9341E050E060E070E0A4
:103D900004C0440F551F661F771F8A95D2F7809184
:103DA000C7029091C802A091C902B091CA028A01CB
:103DB0009B01082B192B2A2B3B2BC901B8011F9102
:103DC0000F910C949C1E0F931F9341E050E060E014
:103DD00070E004C0440F551F661F771F8A95D2F705
:103DE000CB01BA0160957095809590950091C702BE
:103DF0001091C8022091C9023091CA026023712338
:103E0000822393231F910F910C949C1E0F931F9359
:103E100041E050E060E070E004C0440F551F661FB1
:103E2000771F8A95D2F78091C7029091C802A0911E
:103E3000C902B091CA028A019B01082719272A27C3
:103E40003B27C901B8011F910F910C949C1E0F9341
:103E50001F930091C7021091C8022091C9023091AE
:103E6000CA02602B712B822B932B1F910F910C9404
:103E70009C1E0F931F930091C7021091C8022091BE
:103E8000C9023091CA0260237123822393231F91B8
:103E90000F910C949C1E0F931F930091C7021091D9
:103EA000C8022091C9023091CA0260277127822777
:103EB00093271F910F910C949C1E0895E92FEE0FEC
:103EC000E90FEE0F8E0F982F977041E001C0440F5D
:103ED0009A95EAF786958695869595E0899FF001F3
:103EE0001124E057FD4F30E020E070E05191DF01F8
:103EF0001197CB01022E02C0969587950A94E2F79E
:103F0000817081958527842385278C932F5F3F4F70
:103F10002530310559F70895E92FEE0FE90FEE0F1F
:103F20008E0F982F977086958695869525E0829FAF
:103F3000F0011124E057FD4F50E040E080E0219176
:103F400030E0092E02C0369527950A94E2F72170D9
:103F50003327042E01C0220F0A94EAF7822B4F5F09
:103F60005F4F4530510559F70895BF92CF92DF92C8
:103F7000EF92FF920F931F93CF93DF938C01C0902A
:103F8000C702D090C802E090C902F090CA028091A6
:103F9000CB029091CC02A091CD02B091CE02C82A62
:103FA000D92AEA2AFB2ACFE1D0E0BC2ED701C601EC
:103FB0000C2E04C0B695A795979587950A94D2F7CD
:103FC00080FD0EC0219788F7B12C8B2DDF91CF910A
:103FD0001F910F91FF90EF90DF90CF90BF900895C9
:103FE000B8018C2F0E94000A019761F3EECFCF93A6
:103FF000DF93EC010E94B51FBE01DF91CF910C94BD
:10400000000A1F93CF93DF93EB0190915502992300
:1040100031F0CB01DF91CF911F910C94F71F8823D2
:1040200079F0CB010E94B51F182F682FCE010E9496
:104030005E1FBE01812FDF91CF911F910C94000A6A
:10404000CB010E948C1F182FF4CF682F809116018E
:10405000909117010C942922682F8091160190915C
:1040600017010C94342280911601909117010C9441
:104070003F228091CF028595859585950895809101
:10408000CF02877008959091CF02977081E009F474
:1040900080E008958091F30208959091F302892BB6
:1040A0008093F302089580959091F3029823909362
:1040B000F30208958093F30208951092F302089595
:1040C0009091F202892B8093F2020895809590914D
:1040D000F20298239093F20208951092F20208954A
:1040E0009091F102892B8093F1020895809590912F
:1040F000F10298239093F10208951092F10208952D
:104100008091D002089508950C9483209091D0025C
:10411000981721F08093D0020C9484200895809108
:10412000D002882329F01092D00280E00C948420E1
:104130000895E0911601F09117018091F3028083B8
:10414000E0911601F091170180819091F202892B84
:104150008083E0911601F091170180819091F10226
:10416000892B80839091D002992381F0E0911601F0
:10417000F09117018081892B8083809116019091A5
:1041800017010E94C52181110E948F208091160184
:10419000909117010C94BD1408950C94CC2098E0D4
:1041A000899F90011124622B6093CF020E94C21E4E
:1041B0008091CF028595859585950C94CD201092A0
:1041C000CF0280E00C94CD209091CF02809589237E
:1041D0008093CF02282F277071F4282F082E000C0F
:1041E000330B9217130639F08595859585950E94B6
:1041F000E31E0C94DF200895CF92DF92EF92FF929E
:104200006C01EE24FF2420E0C114D104E104F10488
:1042100019F0C701B60120E1C72ED82EE92EFF24E0
:10422000C114D104E104F10419F0285FC701B601FB
:104230006B017C0154E0F694E794D794C7945A95A7
:10424000D1F7C114D104E104F10419F02C5FC701C6
:10425000B6016B017C0142E0F694E794D794C794D1
:104260004A95D1F7C114D104E104F10419F02E5F8D
:10427000C701B6019695879577956795672B682B4B
:10428000692B09F02F5F822FFF90EF90DF90CF9086
:10429000089590E080E00E94F92F21E08D3E9E4F2E
:1042A00009F020E0822F089582E090E00C94EB2F3B
:1042B00083E090E00C94EB2F84E090E00C94EB2FE3
:1042C000682F84E090E00C94FF2FAB01BC018FE0DD
:1042D00090E00C941130AB01BC0183E190E00C94B0
:1042E000113060E070E0CB010C946B2160E070E075
:1042F000CB010E9465210C9471216DEE7EEF90E060
:1043000080E00E941D3060E082E090E00E94FF2F7C
:1043100060E083E090E00E94FF2F1092CB021092A9
:10432000CC021092CD021092CE0260E084E090E0C8
:104330000E94FF2F60E085E090E00E94FF2F60E088
:1043400086E090E00E94FF2F6FEF87E090E00E94F0
:10435000FF2F40E050E0BA0188E090E00E94113069
:1043600060E08DE090E00E94FF2F40E050E0BA0155
:1043700088E190E00E94113060E087E190E00E94C7
:10438000FF2F0C9476210C947D21FC0132968091B4
:104390002701882321F0809172039EE187FF96E038
:1043A00080E0915008F4089521912223D1F38F5F8A
:1043B000F8CF9C01FC0132969FEF80E041914617B7
:1043C00051F09F3F19F4411101C0982F8F5F863043
:1043D000A9F79F3F09F40895290F311D97FD3A95DC
:1043E000F90162830895FC01329608962191261303
:1043F00003C0DF0111971C92E817F907B9F7089578
:10440000E62FE695E695E695EE3168F4E80FF92F8C
:10441000F11D677021E030E001C0220F6A95EAF7D4
:104420008281822B82830895E62FE695E695E695B4
:10443000EE3170F4E80FF92FF11D677021E030E0E4
:1044400001C0220F6A95EAF72095828128232283F2
:10445000089520912701222329F02091720327FD3E
:104460000C9400220C94D92120912701222329F0B9
:104470002091720327FD0C9414220C94F321FC016B
:10448000329680912701882351F08091720387FF33
:1044900006C08EE1DF011D928A95E9F7089586E056
:1044A000F9CF08950C9451220E94522280917803F2
:1044B000843049F11092F50288E190E020E40FB6D3
:1044C000F894A895809360000FBE2093600080E070
:1044D0000E94BB070E94522283B7817F846083BF02
:1044E00083B7816083BF7894889583B78E7F83BFBD
:1044F0000FB6F894A8958091600088618093600061
:10450000109260000FBE08950895CF930E94720428
:104510000E9485040E948422C0E08C2F0E94E10446
:10452000811105C0CF5FCE30C1F7CF91089581E0F2
:10453000FCCF08950C9499220E949E1A0E94B114F7
:104540000E94BB070C949A221F921FB61F9211243F
:104550008F939F93AF93BF938091F502811113C006
:1045600080916E0390916F03A0917003B0917103DD
:104570004196A11DB11D80936E0390936F03A0938C
:104580007003B0937103BF91AF919F918F911F9072
:104590001FBE1F90189582E084BD93E095BD9AEFF1
:1045A00097BD80936E0008952FB7F89480916E03A5
:1045B00090916F03A0917003B09171032FBF089584
:1045C000CF92DF92EF92FF920F931F932FB7F89441
:1045D00040916E0350916F0360917003709171036D
:1045E0002FBF6A017B01EE24FF248C0130E020E024
:1045F000C016D106E206F30650F0481B590BCA015B
:104600001F910F91FF90EF90DF90CF900895415050
:104610005109F3CF78941F921FB61F9211248F93E4
:104620009F93AF93BF9380916E0390916F03A0917E
:104630007003B09171030196A11DB11D80936E03AB
:1046400090936F03A0937003B0937103BF91AF91E8
:104650009F918F911F901FBE1F901895F89481E035
:104660008093E00080E28093D800E9ECF0E01082D3
:104670008FE19EE40197F1F700C000001DBA10928F
:1046800068001CBC10BE1FBA10927A0010926E0017
:1046900010926F0010927100109272001082ECEB79
:1046A000F0E0108214B817B81AB81DB810BA10820A
:1046B00015B818B81BB81EB811BA0C94003F08956D
:1046C0000E944921811102C00E94C3210E945421ED
:1046D0008093F4020E945C2190E090937303809396
:1046E00072030E945821682F70E090E080E00C94E3
:1046F000601E8091FA0280FF12C060911B0185E06C
:10470000689FB00111247595679575956795603818
:104710007105A8F561157105A1F1862F089581FF36
:1047200009C060911B0185E0689FB0011124759557
:104730006795EDCF60911B0182FD0AC08091F9025F
:104740008823D1F090911A0160911B01891728F0FC
:1047500085E0689FB0011124DACF869FB001112453
:1047600085E0869F9001879F300D1124692F70E0AE
:10477000C9010E949A2ECBCF65E070E0CECF8FE7C3
:10478000089581E008958091FA0280FF0CC0609145
:10479000190170E0759567957595679561157105B7
:1047A00049F1862F089581FF06C06091190170E0DC
:1047B00075956795F3CF6091190182FD0BC09091BB
:1047C000F9029923A1F060911801809119019617BF
:1047D00038F0682F70E06038710500F38FE70895B6
:1047E000899FC001112470E00E949A2EF4CF61E0ED
:1047F00070E0D7CF81E00895803F31F40E947923A3
:1048000081958093FE020895813F19F40E947923D7
:10481000F8CF823F31F40E94792381958093FD0285
:104820000895833F19F40E947923F8CF893F29F432
:104830000E94C3238093FF0208958A3F21F40E94BF
:10484000C3238195F7CF8B3F31F40E94C323819519
:104850008093000308958C3F19F40E94C323F8CF7E
:10486000843F31F48091FC0281608093FC020895C2
:10487000853F21F48091FC028260F7CF863F21F4CE
:104880008091FC028460F1CF873F21F48091FC028B
:104890008860EBCF883F21F48091FC028061E5CFF6
:1048A0008D3F31F48091FA0281608093FA0208957D
:1048B0008E3F21F48091FA028260F7CF8F3FB9F7E3
:1048C0008091FA028460F1CF9091FD02803F41F423
:1048D0008091FE0287FD1092FE02992371F00895E7
:1048E000813F29F48091FE021816ACF3F6CF823F87
:1048F00081F497FFF2CF1092FD028091FE02909119
:10490000FF02892B90910003892B49F71092F9023D
:104910000895833F19F4191674F3DFCF893F39F4F2
:104920008091FF021816CCF61092FF02D6CF8A3F74
:1049300029F48091FF0287FFD0CFF6CF8B3F39F467
:104940008091000387FFC9CF10920003C6CF8C3F30
:1049500029F4809100031816BCF3BFCF843F31F4D3
:104960008091FC028E7F8093FC02B7CF853F21F4BB
:104970008091FC028D7FF7CF863F21F48091FC026D
:104980008B7FF1CF873F21F48091FC02877FEBCFB3
:10499000883F21F48091FC028F7EE5CF8D3F31F47A
:1049A0008091FA028E7F8093FA0297CF8E3F21F496
:1049B0008091FA028D7FF7CF8F3F09F08ECF8091E3
:1049C000FA028B7FF0CF8BEF92E00E94D7140E9407
:1049D000D4229093F8028093F70208951F93CF9307
:1049E000DF938091F7029091F8020E94E022AC01DF
:1049F0009091F90220911C0130E0911106C02091A4
:104A0000F6028AE0289F900111244217530778F09C
:104A10002091FD02C091FE02D091FF02109100038F
:104A2000211109C08C2F8D2B812B09F06AC0DF91D9
:104A3000CF911F9108959F3F19F09F5F9093F902C6
:104A4000121624F40E9479238093FD028091FD02C6
:104A500087FF05C00E94792381958093FD021C1673
:104A600024F40E9479238093FE028091FE0287FF46
:104A700005C00E94792381958093FE023091FD024A
:104A80003323A1F02091FE02222381F045EB340371
:104A9000C0011124992369F19093FD0245EB240391
:104AA00090011124332349F13093FE021D1624F4A2
:104AB0000E94C3238093FF028091FF0287FF05C0FD
:104AC0000E94C32381958093FF02111624F40E9453
:104AD000C323809300038091000387FF05C00E94D9
:104AE000C323819580930003DF91CF911F910C9494
:104AF000E32481E08093FD02D1CF81E08093FE0228
:104B0000D5CF9F3F09F099CFAACF86E0EBEFF2E037
:104B1000DF011D928A95E9F71092F9021092FA02CC
:104B20000895833081F128F4813059F08230D1F03A
:104B30000895853009F449C0B8F1863009F456C0AB
:104B400008958091F602482F460F5527551F4F3F75
:104B5000510524F4680F6093F60208958FEF809357
:104B6000F602089580911C01482F460F5527551FC6
:104B70004F3F510524F4680F60931C0108958FEF97
:104B800080931C01089580911B01482F460F5527E3
:104B9000551F4F3F510524F4680F60931B01089582
:104BA0008FEF80931B01089580911A01482F460FC3
:104BB0005527551F4F3F510524F4680F60931A0184
:104BC00008958FEF80931A01089580911901482F5D
:104BD000460F5527551F4F3F510524F4680F60932A
:104BE000190108958FEF809319010895809118019C
:104BF000482F460F5527551F4F3F510524F4680F86
:104C00006093180108958FEF809318010895833001
:104C100011F128F4813049F0823091F00895853007
:104C200081F120F18630C1F108958091F602681774
:104C300020F4861B8093F60208951092F6020895E0
:104C400080911C01681720F4861B80931C01089535
:104C500010921C01089580911B01681720F4861B97
:104C600080931B01089510921B01089580911A01F1
:104C7000681720F4861B80931A01089510921A0178
:104C8000089580911901681720F4861B80931901FB
:104C9000089510921901089580911801681720F461
:104CA000861B8093180108951092180108950F93A0
:104CB0001F9341E050E060E070E08A019B0104C076
:104CC000000F111F221F331F8A95D2F7C901B801A7
:104CD0000E94601E1F910F910C949E1AEBEFE80F3B
:104CE000EF3308F065C0F0E0E658FF4C0C94AE2EB0
:104CF0000E94C32181E008958091F402807F809317
:104D0000F40281E08093020308950E949E1A2FEF1F
:104D100083ED90E3215080409040E1F700C0000017
:104D20000E942E23E7CF9091F402892F8E7F90FF6F
:104D300081608093F40280FDDDCF817F8093F40257
:104D4000D9CF9091F402892F8D7F91FF826080935B
:104D5000F40281FFCFCF8091F4028160EFCF909178
:104D6000F402892F8B7F92FF84608093F40282FD8E
:104D7000F2CFC0CF9091F402892F877F93FF886094
:104D80008093F40283FDE7CFB5CF0E949E1A9091E5
:104D90007203892F97FB87F9805880937203AACFFB
:104DA00080E00E945726A6CF8953FBCF8D51F9CFC3
:104DB00080E0089580E008950C94DA268E518A30C0
:104DC00030F4E82FF0E0EB50FE4F8081089580E052
:104DD0000895CF93C82F809102038130E1F088239A
:104DE00029F08230E9F11092020313C00E944A2098
:104DF000813159F48C2F0E94DA26811125C08C2F25
:104E00000E946E268170CF9108950E944A208232BE
:104E100089F380E0F8CF0E944A20813159F30E9443
:104E20004A20823239F38C2F0E94DC2681110AC07D
:104E3000C43199F060F4CB3029F0C03119F782E029
:104E40008093020381E0DECF81E090E0DBCFC932C6
:104E500021F0C833B9F380E0D5CF10920203FBCF25
:104E6000C93219F188F4C43101F120F4C73081F15D
:104E700081E0C9CF82EE8C0F8630D0F78C2F0E9454
:104E8000DE2680930103F4CFCE3401F140F46AE0D2
:104E9000CB3471F7809101030E949125E9CFC13590
:104EA00079F061E0C235B1F3E3CF8091010388234B
:104EB00019F010920103DCCF81E080930203A3CFAD
:104EC00061E0809101030E940726D2CF6AE0F9CF0A
:104ED0001092F60284E180931C01C0931B018CE3C5
:104EE00080931A0188E08093190188E28093180169
:104EF000BFCF8091230308950F931F93CF93DF9328
:104F000000D00F92CDB7DEB78C010E94E22982302B
:104F100011F0843021F584E089831B830A8382E0C9
:104F20008093E9008FEF9091E800815095FD06C0D5
:104F300095ED9A95F1F700008111F5CF8091E80089
:104F400085FF0DC050E040E063E070E0CE010196C7
:104F50000E94FF298091E8008E778093E8000F90EF
:104F60000F900F90DF91CF911F910F910895CF93E4
:104F7000DF9300D00F92CDB7DEB7209178032430B5
:104F800031F523E02983805891099B838A8382E04D
:104F90008093E9008FEF9091E800815095FD06C065
:104FA00095ED9A95F1F700008111F5CF8091E80019
:104FB00085FF0DC050E040E063E070E0CE01019657
:104FC0000E94FF298091E8008E778093E8000F907F
:104FD0000F900F90DF91CF910895CF93DF93EC0165
:104FE0000E94E229823011F08430F9F482E080934B
:104FF000E9008FEF9091E800815095FD06C095ED96
:105000009A95F1F700008111F5CF8091E80085FFB6
:105010000CC050E040E066E070E0CE010E94FF2945
:105020008091E8008E778093E800DF91CF9108951A
:10503000CF93DF93EC010E94E229823011F084309B
:10504000B9F5809127018823B1F18091720387FF20
:1050500032C060E282E08093E9008FEF9091E80037
:10506000815095FD06C095ED9A95F1F700008111EC
:10507000F5CF8091E80085FF1BC08091270170E08B
:1050800050E040E0811104C050E040E068E070E092
:10509000CE010E94FF298091E8008E778093E8007E
:1050A00080E2FE01A3E0B3E001900D928A95E1F762
:1050B000DF91CF91089568E081E0CDCF80917703B3
:1050C000811109C00E948D2B0E94EA2B8091E20081
:1050D00084608093E2000895109277030895089504
:1050E00008950C949C2242E061EC81E00E940B2B1D
:1050F00042E261EC82E00C940B2B80917A038330C6
:1051000009F45FC030F48130C1F1823009F49BC0F2
:1051100008958A3009F487C08B3009F46DC0893056
:1051200009F04EC080917903813209F049C0809125
:105130007D0390917E03029708F042C08091E800C1
:10514000877F8093E8008091E80082FF35C09091CE
:10515000F3008091F200029729F48091F1008B7F97
:10516000813021F48091F100809323038091E80045
:105170008B778093E8000C943F2B80917903813AE0
:10518000F9F48091E800877F8093E80080917D03A7
:1051900090917E03892B61F460E283E093E070E0FC
:1051A0000E944E2A8091E8008B778093E800089552
:1051B00060E090E080E0F3CF809178038111C3CF6D
:1051C000089580917903813AD9F780917D03909178
:1051D0007E03892BA9F78091E800877F8093E80000
:1051E0008091E80080FFFCCF809127018093F1003F
:1051F0008091E8008E77BDCF80917903813201F7ED
:1052000080917D0390917E03892BD1F68091E800F7
:10521000877F8093E8000E943F2B80917B038093DF
:1052200027010C949E1A80917903813249F680916E
:10523000E800877F8093E8000E943F2B80917C03E9
:1052400080932403089580917903813A09F0B8CFBF
:105250008091E800877F8093E8008091E80080FFDC
:10526000FCCF80912403C2CF84B7877F84BF0FB661
:10527000F894A895809160008861809360001092F6
:1052800060000FBE80E880936100109261000E9470
:105290001F150E948D2B0E94EA2B8091E2008460F2
:1052A0008093E20078940E946A2E0E9427158DE177
:1052B00091E00E94AC1480917803853029F00E941F
:1052C00031150E949E12F7CF0E94542280917603DE
:1052D000882389F30E948522882369F30E94E929A3
:1052E000EACF0C947329292F33272330310519F184
:1052F00068F42130310509F44AC02230310509F43F
:105300004BC090E080E030E020E028C02132310541
:1053100079F122323105A9F780E490E02DEB36E0F7
:1053200061157105D9F080EC90E02DEF35E061302A
:105330007105A1F0E6CF99278130910599F000978A
:1053400041F08230910589F00397D9F6E6E7F5E060
:1053500002C0ECEAF5E0849190E09F01FA0131830C
:1053600020830895E4E9F5E0F6CFECE7F5E0F3CF2C
:1053700089E090E022EC35E06115710579F389E070
:1053800090E02BED35E06130710541F3BACF82E159
:1053900090E02BEE35E0E2CF8BE390E020EB35E0C0
:1053A000DDCF0895CF93C82F0E94D129C093250344
:1053B000CF91089580917803843011F482E00895AC
:1053C00081E0089580912503811102C00C94DA29AF
:1053D000089580E189BD82E189BD09B400FEFDCF59
:1053E0008091D8008F7D8093D8008091E00082600A
:1053F0008093E0008091E00081FDFCCF0895AF92A2
:10540000BF92CF92DF92FF920F931F93CF93DF93C0
:105410006C01EB018A010E945E2BF82E811123C0E2
:105420000115110539F0F80180819181C81BD90B54
:10543000C80ED91EB12CA12C2097A9F08091E800AC
:1054400085FD22C08091E8008E778093E8000115E9
:105450001105A1F0F80180819181A80EB91EB182D9
:10546000A08285E0F82E8F2DDF91CF911F910F91B3
:10547000FF90DF90CF90BF90AF9008950E945E2B79
:105480008823D1F2F82EEFCFF60181916F0180933E
:10549000F1002197FFEFAF1ABF0ACECFFC01809138
:1054A0007F039091800386179707A0F0611571051F
:1054B00029F49091E8009E779093E80090E06115C0
:1054C000710551F4911108C08091E80082FF34C049
:1054D00080E00895BC01F2CF809178038823C1F168
:1054E0008530C1F18091E80083FD30C08091E800F3
:1054F00082FDEACF8091E80080FFE1CF8091F30048
:105500002091F200382F6115710519F0283031050E
:1055100058F091E02830310509F090E02091E80042
:105520002E772093E800CBCF81918093F1006150DA
:1055300071092F5F3F4FE7CF80917803882341F0B7
:10554000853041F08091E80083FFBECF81E008956F
:1055500082E0089583E00895FC0180917F0390919B
:10556000800386179707A0F06115710529F48091D3
:10557000E8008E778093E80090E06115710551F4A2
:10558000911108C08091E80082FF35C080E0089545
:10559000BC01F2CF809178038823C9F18530C9F12D
:1055A0008091E80083FD31C08091E80082FDEACF60
:1055B0008091E80080FFE1CF8091F3002091F2001C
:1055C000382F6115710519F02830310558F091E038
:1055D0002830310509F090E08091E8008E778093C3
:1055E000E800CBCF84918093F1003196615071092E
:1055F0002F5F3F4FE6CF80917803882341F08530BD
:1056000041F08091E80083FFBDCF81E0089582E002
:10561000089583E00895982F973028F08F70809335
:10562000E90081E008959093E900242F762F50E05F
:10563000981731F07091EC002091ED005091F0003E
:1056400021FD02C09F5FE8CF3091EB003E7F309399
:10565000EB003091ED003D7F3093ED003091EB0099
:1056600031603093EB007093EC002093ED00509389
:10567000F0002091EE0027FDE5CF80E008958091B5
:10568000790387FF13C08091E80082FF06C08091F4
:10569000E8008B778093E80004C080917803811143
:1056A000F2CF0895809178038823D9F38091E800A0
:1056B00080FFF8CF8091E8008E77ECCF2091E40056
:1056C0003091E50085E6A9019091EC0090FF06C0BD
:1056D0009091E80090FF06C080E008959091E80066
:1056E00092FDFACF90917803992389F0953089F053
:1056F0009091EB0095FD0FC02091E4003091E50002
:105700004217530709F38150F1F684E0089582E0CF
:10571000089583E0089581E008950E94FB2B0E9484
:10572000032CE0EEF0E0808181608083E8EDF0E022
:1057300080818F77808319BCA7EDB0E08C918E7F3C
:105740008C9380818F7E80831092770308950F93CE
:105750001F93CF93DF930E94FB2B0E94032CC8ED75
:10576000D0E088818F77888388818068888388816A
:105770008F7D888319BC1092780310927403109265
:1057800076031092750300EE10E0F80180818B7FA4
:10579000808388818160888342E060E080E00E94AD
:1057A0000B2BE1EEF0E080818E7F8083E2EEF0E073
:1057B000808181608083808188608083F80180811E
:1057C0008E7F8083888180618883DF91CF911F9154
:1057D0000F910895E8EDF0E080818F7E8083E7ED02
:1057E000F0E080818160808384E082BF81E08093EB
:1057F00077030C94A72BE8EDF0E080818E7F808307
:105800001092E20008951092DA001092E1000895DB
:105810001F920F920FB60F9211242F933F934F9325
:105820005F936F937F938F939F93AF93BF93EF9308
:10583000FF938091E10082FF0BC08091E20082FF24
:1058400007C08091E1008B7F8093E1000E94692E68
:105850008091DA0080FF19C08091D80080FF15C0C8
:105860008091DA008E7F8093DA008091D90080FFEA
:1058700094C080E189BD82E189BD09B400FEFDCFFD
:1058800081E0809378030E945E288091E10080FF90
:1058900019C08091E20080FF15C08091E2008E7FE8
:1058A0008093E2008091E20080618093E200809129
:1058B000D80080628093D80019BC85E0809378037B
:1058C0000E9470288091E10084FF29C08091E2004D
:1058D00084FF25C080E189BD82E189BD09B400FE55
:1058E000FDCF8091D8008F7D8093D8008091E1001A
:1058F0008F7E8093E1008091E2008F7E8093E200B2
:105900008091E20081608093E2008091740388239B
:1059100009F449C084E0809378030E947128809143
:10592000E10083FF29C08091E20083FF25C08091C0
:10593000E100877F8093E10082E0809378031092FA
:1059400074038091E1008E7F8093E1008091E200FA
:105950008E7F8093E2008091E20080618093E2007C
:1059600042E060E080E00E940B2B8091F0008860B4
:105970008093F0000E946F28FF91EF91BF91AF914B
:105980009F918F917F916F915F914F913F912F9157
:105990000F900FBE0F901F90189519BC10927803AE
:1059A0000E946C2872CF8091E30087FD02C081E0E5
:1059B000B2CF83E0B0CF1F920F920FB60F92112497
:1059C0002F933F934F935F936F937F938F939F9307
:1059D000AF93BF93CF93EF93FF93C091E900CF7044
:1059E0008091EC001092E9008091F000877F809315
:1059F000F00078940E94172D1092E9008091F00039
:105A000088608093F000C093E900FF91EF91CF91FF
:105A1000BF91AF919F918F917F916F915F914F91C6
:105A20003F912F910F900FBE0F901F9018951F93CD
:105A3000CF93DF93CDB7DEB7AA970FB6F894DEBF4A
:105A40000FBECDBF89E793E02091F100FC012193C7
:105A5000CF01F3E081389F07B9F70E947D2880913C
:105A6000E80083FF1EC18091790390917A039A30F8
:105A700008F017C1E92FF0E0E754FF4C0C94AE2E6C
:105A8000803899F0823809F00CC180917D038F70C5
:105A9000873008F006C18093E9008091EB0085FB18
:105AA000882780F91092E90006C0809175039091D3
:105AB0007603911182609091E800977F9093E800BF
:105AC0008093F1001092F1008091E8008E77E5C09C
:105AD000882309F4D3C0823009F0E3C080917B03AE
