:100000000C94FF020C941C030C941C030C941C0312
:100010000C941C030C941C030C941C030C941C03E4
:100020000C941C030C941C030C94B7290C948A2A7E
:100030000C943B220C941C030C941C030C941C0386
:100040000C941C030C941C030C941C030C941C03B4
:100050000C941C030C94A1220C941C030C941C0300
:100060000C941C030C941C030C941C030C941C0394
:100070000C941C030C941C030C941C030C941C0384
:100080000C941C030C941C030C941C030C941C0374
:100090000C941C030C941C030C941C030C941C0364
:1000A0000C941C030C941C030C941C03010F020FF2
:1000B00001160216012C022C012D022D010F020F38
:1000C00001280228000108020801100210010402A0
:1000D000040106020601160216012C022C00011E64
:1000E000021E011F021F01200220012D022D011EF0
:1000F000021E011F021F01200220012D022D011EE0
:10010000021E011F021F01200220012102210035D1
:10011000002B003961E100E00000001E0014000423
:10012000001D0029002F001F001A0016001B00E30D
:10013000004C002000080007000600E2002C00210F
:1001400000150009001900E2002602220017000A2B
:10015000000500000019012300B60000004E000059
:10016000002F022400B70000004B000000300225E1
:10017000001C000B00110000001901260018000DE2
:100180000010005000270227000C000E003600511E
:10019000002A002D0012000F003700520028002E08
:1001A000001300330038004F0030002A00310028CF
:1001B000003400015300002900010001000100018A
:1001C0000000003A00010001000100010001003BB5
:1001D000000100F200F400270101003C00F000F1F2
:1001E00000F6002D01005C3D000100F300F5002E3B
:1001F0000301003E00010001000100000001003F7A
:1002000000010000000100000001004000010000AA
:100210000001000000010041000100010001300068
:1002200000010042000100010001002D0301004314
:1002300000010001000230AA000100440001000199
:10024000000330A90001004500010001000100A8E1
:100250000001002A000100AE0001000100000000C2
:10026000047F3F1F643214643214783C1E1E140A4B
:10027000052223252628292A2C2D2F3032333536E6
:10028000383A3B3D3E4042434547494A4C4E505127
:10029000535557595A5C5E6062646668696B6D6F4E
:1002A00071737577797B7D7F81838587898A8C8E51
:1002B00090929496989A9C9E9FA1A3A5A7A8AAAC59
:1002C000AEAFB1B3B4B6B8B9BBBCBEBFC1C2C3C593
:1002D000C6C7C9CACBCCCDCED0D1D2D2D3D4D5D635
:1002E000D7D7D8D9D9DADADBDBDBDCDCDCDCDCDD68
:1002F000DDDDDDDCDCDCDCDCDBDBDBDADAD9D9D84C
:10030000D7D7D6D5D4D3D2D2D1D0CECDCCCBCAC9E3
:10031000C7C6C5C3C2C1BFBEBCBBB9B8B6B4B3B112
:10032000AFAEACAAA8A7A5A3A19F9E9C9A989694AD
:1003300092908E8C8A89878583817F7D7B79777582
:1003400073716F6D6B6968666462605E5C5A595761
:10035000555351504E4C4A4947454342403E3D3B20
:100360003A3836353332302F2D2C2A2928262523AA
:1003700022FFAA7F5540000000000000000000009E
:100380000101010101010101010202020202020256
:100390000203030303030303040404040405050523
:1003A00005050606060606070707070808080809E0
:1003B00009090A0A0A0B0B0B0C0C0C0D0D0D0E0E85
:1003C0000E0F0F1010101111121213131414151513
:1003D00016161717181819191A1A1B1C1C1D1D1E82
:1003E0001F1F2021212223232425252627282829D1
:1003F0002A2B2C2C2D2E2F303131323334353637F9
:1004000038393A3B3C3D3E3F4041424344454647F4
:1004100048494B4C4D4E4F50525354555758595ACA
:100420005C5D5E606163646567686A6B6C6E6F716A
:1004300072747677797A7C7D7F8182848687898BD6
:100440008D8E9092949597999B9D9FA1A2A4A6A80A
:10045000AAACAEB0B2B4B6B9BBBDBFC1C3C5C8CA01
:10046000CCCED0D3D5D7DADCDEE1E3E6E8EAEDEFB7
:10047000F2F4F7F9FCFF0403300000001603450016
:10048000720067006F0044006F0078002000450094
:100490005A00000016034500720067006F00440018
:1004A0006F007800200045005A0000000403090492
:1004B00009023B00020100A0FA0904000001030147
:1004C00001000921110100012240000705810308F4
:1004D000000A0904010001030000000921110100C4
:1004E0000122C0000705820320000A12011001004A
:1004F000000008EDFE0713010001020301050109D8
:1005000002A10185020901A10005091901290515AA
:10051000002501950575018102950175038101058D
:1005200001093009311581257F9502750881060979
:10053000381581257F950175088106050C0A38025A
:100540001581257F950175088106C0C005010980C8
:10055000A10185031601002603001A81002A8300E9
:10056000751095018100C0050C0901A101850416D3
:100570000100269C021A01002A9C02751095018137
:1005800000C005010906A1018505050719E029E755
:100590001500250195087501810205081901290535
:1005A00095057501910295017503910105071900E3
:1005B00029EF1500250195F075018102C00501099B
:1005C00006A101050719E029E71500250195087521
:1005D0000181029501750881010508190129059518
:1005E000057501910295017503910105071900290F
:1005F000FF150026FF00950675088100C000112434
:100600001FBECFEFDAE0DEBFCDBF11E0A0E0B1E06A
:10061000E6E6FCE502C005900D92A63FB107D9F7CA
:1006200023E0A6EFB1E001C01D92A937B207E1F7C0
:100630000E94E3260C94E22D0C94000080B38C7091
:1006400080BB81B3836F81BB089584B1807F84B9FF
:1006500085B1807F85B98AB1837F8AB98BB1837F69
:100660008BB93E9846980895CF93C82F873070F580
:100670008091060190910701892B89F564E670E06D
:1006800080E40E946E049093070180930601892BF9
:10069000D1F464E670E082E10E94CA0490930701FD
:1006A00080930601892B79F481E090E001C0880FE6
:1006B000CA95EAF764E670E080950E94CA049093B8
:1006C000070180930601CF910C941D058A30B9F083
:1006D00040F4883071F0893079F0209A2898CF91D1
:1006E00008958C3091F070F08D30B9F73E9A4698AD
:1006F000F6CF219A2998F3CF229A2A98F0CF239AFD
:100700002B98EDCF529A5A98EACF539A5B98E7CF3D
:10071000CF93873008F040C0809106019091070187
:10072000C0E0892B71F464E670E080E40E946E04FE
:100730009093070180930601892B31F0C0E00E945D
:100740001D058C2FCF91089564E670E083E10E942F
:10075000CA049093070180930601892B79F764E618
:1007600070E081E40E946E0490930701809306017B
:10077000892B21F784E690E00E94F90497FF05C0D9
:100780009093070180930601D9CFC82FC09510928E
:10079000070110920601D3CFCFB18FB18695869510
:1007A0008C73C3708C2BC82FC095CBCF0C9436069E
:1007B0000E94A20590E090930701809306010E9499
:1007C00025030E941E03E7EFF1E0A5E0B2E01192DD
:1007D0001D9282E0E530F807D1F78EE00E94DF0B32
:1007E0000C9419070E94A20590E090930701809352
:1007F00006010E9425030E941E03E7EFF1E011921B
:1008000082E0E530F807D9F70895EF92FF920F9351
:100810001F93CF93DF938091060190910701892B5D
:1008200091F08091F6018F5F8093F60181110BC0EA
:100830000E94A20590E09093070180930601892B06
:1008400011F40E944C0505E012E0C0E0D0E087E022
:10085000E82EEC0E8C2F0E9434038E2D0E94340360
:100860008C2F0E948803F80191918F01F12C891738
:1008700021F031978083FF24F3948E2D0E9488030A
:10088000F80196818917D9F0868381E08F29D82BCA
:100890000E942503CF5FC730D1F62D2F4EE067EFC2
:1008A00071E085E092E00E946A0C0E94230781E0DB
:1008B000DF91CF911F910F91FF90EF90089580E00D
:1008C000E5CFE82FF0E0E950FE4F808108950895CC
:1008D0001092B9008CE08093B8000895EF92FF92D7
:1008E0000F931F93CF93DF93182FEB011092BC004F
:1008F00084EA8093BC000E946B227C018091BC0042
:1009000087FF27C08091B900887F883029F08091C7
:10091000B900887F8031D9F51093BB0084E88093BB
:10092000BC000E946B228C018091BC0087FF24C018
:100930002091B900287F90E080E02831B1F081E07B
:1009400090E0203411F490E080E091958195910938
:100950000CC0CF3FDC0791F20E946B228E199F09D9
:100960008C179D0758F28EEF9FEFDF91CF911F916B
:100970000F91FF90EF900895CF3FDC07A9F20E94FE
:100980006B22801B910B8C179D0770F2ECCF8FEFC1
:100990009FEFEBCF0F931F93CF93DF93EB018093E8
:1009A000BB0084E88093BC000E946B228C01809184
:1009B000BC0087FF11C02091B900287F81E090E042
:1009C000283211F490E080E0919581959109DF91B2
:1009D000CF911F910F910895CF3FDC0741F30E9403
:1009E0006B22801B910B8C179D0708F38EEF9FEFF6
:1009F000EECF0F931F93CF93DF93EC0184E88093A6
:100A0000BC000E946B228C018091BC0087FF08C053
:100A10008091BB0090E0DF91CF911F910F910895DD
:100A2000CF3FDC0789F30E946B22801B910B8C1750
:100A30009D0750F38EEF9FEFEECF84E98093BC00CB
:100A40000895259A2D9A0895269A2E9A0895279A00
:100A50002F9A089556985E98089525982D98089590
:100A600026982E98089527982F9808950E942A0571
:100A70000E942D050E9430050C94330590E0909360
:100A800089008093880090938B0080938A009093D4
:100A90008D0080938C0008950E9436058FEF0E9490
:100AA0003E050E9421052FEF80E792E02150804013
:100AB0009040E1F700C000000E9424052FEF80E77E
:100AC00092E0215080409040E1F700C000000E9479
:100AD00027052FEF80E792E0215080409040E1F71A
:100AE00000C000000E942D052FEF80E792E021500A
:100AF00080409040E1F700C000000E9430052FEFD9
:100B000080E792E0215080409040E1F700C0000073
:100B10000E9433050C94360589EA8093800089E0B1
:100B20008093810024982C983F988AB18F7C8AB951
:100B30006E98479A8BB180638BB9769A0E944C0568
:100B40000C94350680E290E09093070180930601B3
:100B50008091130281110EC00E94680481E080938D
:100B600013022FEF83ED90E3215080409040E1F796
:100B700000C0000064E670E080E40E946E04909380
:100B8000070180930601892B09F04EC064E670E0EE
:100B900080E00E94CA049093070180930601892B8C
:100BA00009F042C064E670E080E00E94CA049093BD
:100BB000070180930601892BB9F564E670E08FE3A5
:100BC0000E94CA049093070180930601892B61F566
:100BD0000E941D0564E670E080E40E946E0490931C
:100BE000070180930601892BF9F464E670E08CE03C
:100BF0000E94CA049093070180930601892BA1F4F7
:100C000064E670E080E00E94CA049093070180933C
:100C10000601892B49F464E670E08FE30E94CA0460
:100C200090930701809306010E941D0580910601A3
:100C30000895FC01623051F0633071F0613091F43D
:100C40008281882379F08EED90E008958281882357
:100C500049F085EC90E008958281882319F08CEAB0
:100C600090E0089590E080E008950895CF9360911A
:100C7000BD027091BE028091BF029091C0020E949D
:100C80009320C82F0E942A050E942D050E9430053E
:100C90000E943305C13021F0C23029F0CF91089570
:100CA000CF910C942105CF910C9424050F931F93A1
:100CB000CF93DF938C01EB019A9581159F4138F515
:100CC00010FF03C080EEFB01099511FF03C081EE08
:100CD000FE01099512FF03C082EEFE01099513FF84
:100CE00003C083EEFE0109950115104180F084EEEA
:100CF000FE01099585EEFE01099586EEFE01099536
:100D000087EEFE01DF91CF911F910F910994DF9142
:100D1000CF911F910F910895877091E001C0990FB5
:100D20008A95EAF7892F0E94F71F0C9430200C94C3
:100D30008C06877091E001C0990F8A95EAF7892F98
:100D40000E94FD1F0C9430200C949906CF93DF93E2
:100D5000EC01805E9109089720F06CE876E020971E
:100D600011F467E976E0CE010E9456068C2FDF91E0
:100D7000CF910C94D815CF93DF93EC010E94E1162C
:100D8000CE01805E9109089720F069E976E020970E
:100D900011F464EA76E0CE01DF91CF910C9456060F
:100DA000CF93DF93EC010E94A606CE01DF91CF9195
:100DB0000C94BB0681E0089581E008950C94DC0654
:100DC0001F93CF93DF9300D000D00F92CDB7DEB743
:100DD00049835A836B8320914B0289819A81211127
:100DE0001BC06623A9F00E944C1F182F682F898111
:100DF0009A810E94F51E69817A81812F0F900F9050
:100E00000F900F900F90DF91CF911F910C945F097D
:100E10000E94231F182FEFCF0E944C1F69817A81F7
:100E2000EDCFFC01408151816281738184810C94FA
:100E3000E0060E94E020811102C00E945A210E9417
:100E4000B70C0C948C050C94D603282F2F7041F00E
:100E5000822F90E02A3010F44D9608950697089559
:100E600087E290E0089508950C9433070C943407BA
:100E700008950E94351A0E9438072FEF84E39CE002
:100E8000215080409040E1F700C000000C94C52242
:100E90000F931F93CF93DF938C010E941107EC01F6
:100EA000B8010E94DE06882309F4D3C0B801CE0140
:100EB0000E942E0D882309F4CCC0B801CE010E94F7
:100EC000E613882309F4C5C0CA3C8CE5D80709F4A9
:100ED000FEC008F054C0C33CECE5DE0709F4D0C006
:100EE00048F5C5318CE5D807A8F4C2309CE5D90790
:100EF00008F052C1C115ECE5DE0709F4A5C0C13008
:100F0000DC4509F4ACC0C801DF91CF911F910F916E
:100F10000C94DA06C6318CE5D80709F4AFC1C23C9F
:100F2000DC4589F7F8018281882309F492C00E9488
:100F3000D7118FC0C63CECE5DE0709F4B7C080F4DA
:100F4000C43C8CE5D80709F4A6C0C53CDC45D9F6FD
:100F5000F8018281882309F47CC00E94B40F79C013
:100F6000F8018281C83CFCE5DF0709F4ABC008F456
:100F7000A4C0882309F46DC00E94EE0F6AC0C13D71
:100F8000ECE5DE0709F4D7C070F5CD3C8CE5D80759
:100F900009F4ADC088F4CB3CECE5DE0709F49FC052
:100FA000CC3CDC4509F0AFCFF8018281882309F4FD
:100FB00050C00E94570E4DC0F8018281CF3CFCE525
:100FC000DF0709F4AAC008F49BC0882309F441C0D4
:100FD0000E943E0E893028F00E943E0E8E3008F4AA
:100FE00062C089E08AC0C53DECE5DE0709F4C6C0F1
:100FF000B0F4F8018281C33DFCE5DF0709F4B9C014
:1010000008F4A9C0882329F10E943E0E893128F0F6
:101010000E943E0E823208F446C089E16EC0CD3D8A
:10102000ECE5DE0709F4B1C0CE3DFCE5DF0709F1D0
:10103000CC3DDC4509F067CFF8018281882349F077
:1010400080E00E94812705C0F801828181110E9401
:10105000390780E0DF91CF911F910F910895F8013A
:1010600082818823B1F38091EA0281608093EA0251
:10107000F0CFF8018281882361F30E945A21E9CFE1
:10108000F8018281882329F30E94E11F827259F0BE
:101090000E94C911DECFF80182818823D1F20E941B
:1010A000E11F8272A9F30E94BC11D3CFF8018281A3
:1010B000882379F20E94C10FCCCF882351F20E947D
:1010C000D00FC7CF882329F20E94DF0FC2CFF801CB
:1010D0008281882309F4BDCF0E94FD0FBACFF801A9
:1010E0008281882309F4B5CF0E94460EB2CFF80161
:1010F0008281882309F4ADCF81E00E94CC11A9CF71
:10110000882309F4A6CF0E943E0E823020F00E9470
:101110003E0E853040F282E0F0CF882309F499CF6B
:101120000E943E0E863028F00E943E0E883008F461
:10113000BACF86E0E2CFF8018281882309F489CF13
:101140000E943E0E8F3028F00E943E0E843108F43B
:10115000AACF8FE0D2CF882309F47BCF0E943E0E26
:10116000853128F00E943E0E873108F49CCF85E13E
:10117000C4CF882309F46DCF88E1BFCFF801828105
:10118000882309F466CF83E2B8CFF80182818823EF
:1011900009F45FCF82E055CFF8018281882309F4FA
:1011A000B2CE0E94E020811102C00E945A210E940A
:1011B000F32090E09093670380936603FE01E35071
:1011C000FC45809166038160E231F10538F4EC5111
:1011D000F24D0C945D2C80916603826080936603CF
:1011E000809166030E94F7200E94351A32CF8091C9
:1011F00066038460F3CF809166038860EFCF8091AF
:1012000066038061EBCF809166038062E7CF8091B7
:1012100066038064E3CF809166038068DFCF8091AE
:1012200066038C60DBCF809166038E7FD7CF809181
:1012300066038D7FD3CF809166038B7FCFCF809164
:101240006603877FCBCF809166038F7EC7CF809167
:1012500066038F7DC3CF809166038F7BBFCF809164
:1012600066038F77BBCF80916603837FB7CF909162
:101270006603892F97FB87F98058B0CF0E94E11F42
:10128000F8019281992381F08A7A91E009F490E043
:1012900090931402811106C089E20E94BC1F0E9433
:1012A0003020D7CE85E3F9CF80911402811104C09C
:1012B00089E20E94C31FF3CF85E3FBCF0895972FE8
:1012C00070E026E0929F600D711D1124FB0194E5F2
:1012D000899FE00DF11D1124EE0FFF1FE15FFE4F0E
:1012E000859194910895FC01EE0FFF1FE15AFD4F87
:1012F000859194910895CF93DF930E945F090E9496
:10130000410BEC01811520E5920708F042C08115E0
:1013100030E4930708F018C1883E910528F5803E17
:10132000910508F0A4C0883A910588F4853A9105A2
:1013300008F093C08130910509F499C0009709F431
:1013400096C0049708F093C0D0E0C0E090C08F3BF7
:10135000910508F490C0805C9109C03CD105A0F3D0
:101360000E947309EC0183C08115904250F4C115AD
:1013700081E0D80708F07BC0C03FD10528F3D065D5
:1013800076C0C11590E3D90708F0D4C0CE019F7094
:10139000E7CF811525E5920758F5811534E59307C8
:1013A00008F001C1811542E5940750F4C11581E5AB
:1013B000D80708F4CCC0DC2FCC27C16FD06A57C047
:1013C000982F969596959E0123703327C115D34586
:1013D00008F0DAC0C1E0D0E002C0CC0FDD1F2A95D2
:1013E000E2F720E2929FC0011124C82BD92BCAC07A
:1013F000C1158AE5D807A0F4C11599E5D90708F009
:10140000E2C0C11526E5D20708F4D2C0C11538E5FF
:10141000D30708F499CFDC2FCC27C06FD06A27C040
:10142000C1154BE5D40708F48FCFC1158CE5D8075B
:1014300008F4D9C0CE0190568115904208F084CFAF
:101440008D2F8F710E94BC0B90E0982F88278827E2
:101450009F719C012C2BE901B4C0853A910509F4D8
:10146000C5C0863A910509F0C4C0C2E8D0E4CE01F7
:10147000DF91CF910895883A910509F4BDC0893A6A
:10148000910509F4BCC08A3A910509F4BBC08B3AB6
:10149000910509F4BAC08C3A910509F4B9C08B3BA7
:1014A000910509F4B8C08C3B910509F4B7C08D3A99
:1014B000910509F4B6C0803B910509F4B5C08E3A98
:1014C000910509F4B4C08F3A910509F4B3C0813B8A
:1014D000910509F4B2C0823B910509F4B1C0833B88
:1014E000910509F4B0C0843B910509F4AFC0853B78
:1014F000910509F4AEC0863B910509F4ADC0873B68
:10150000910509F4ACC0883B910509F4ABC0893B57
:10151000910509F4AAC08D3B910509F4A9C08E3B41
:10152000910509F4A8C08A3B910509F4A7C0C0E061
:10153000D4E49DCFCE019927D3FF03C0EC01D86C32
:1015400096CFEC01D06C93CFDF70D06A90CFCE01F4
:10155000E4E096958795EA95E1F783702C2F269520
:101560002695237040E2249F90011124382B8C2F64
:101570008370C1E0D0E002C0CC0FDD1F8A95E2F796
:10158000C22BD32BDC6873CFC1E0D0E002C0CC0FFC
:10159000DD1F2A95E2F730E2939FC0011124C82B8A
:1015A000D92BDA6864CFD82FCC27C46FD06A5FCF2D
:1015B0008C2F0E94BC0BC82FD0E0DC2FCC27CC276F
:1015C000DF71D06254CF8C2F8F700E94BC0B34E03F
:1015D000D695C7953A95E1F79C2F9F70C82FCF708D
:1015E000C06ED92FB2CFDD27D06641CFC1E8D0E49D
:1015F0003ECFC3E8D0E43BCFC2EED4E438CFC9EE4F
:10160000D4E435CFCAEED4E432CFC5EBD4E42FCF47
:10161000C6EBD4E42CCFC3EBD4E429CFC4EBD4E4A1
:1016200026CFC7EBD4E423CFCCECD4E420CFCDEC51
:10163000D4E41DCFC3E8D5E41ACFCAE8D5E417CF68
:10164000C2E9D5E414CFC4E9D5E411CFC1E2D6E4B0
:101650000ECFC3E2D6E40BCFC4E2D6E408CFC5E296
:10166000D6E405CFC6E2D6E402CFC7E2D6E4FFCE89
:10167000CFE6D4E4FCCEC0E7D4E4F9CECAE2D6E4A7
:10168000F6CE8238910549F1B0F48133910509F421
:1016900062C048F48932910509F456C08A32910536
:1016A00009F460C008958533910509F446C0893373
:1016B000910599F00895833E910531F138F4803E0B
:1016C000910591F0823E9105B1F00895863E910515
:1016D00021F1873E910551F1089520916603237011
:1016E000D9F080EE90E008952091660320FF14C0A9
:1016F00089E390E008952091660322FF0DC024FD48
:1017000009C083EE90E008952091660322FD31C068
:1017100024FF02C090E080E008952091660323FF3B
:10172000FBCF24FDF7CF87EE90E00895209166036C
:1017300023FFEECF86EE90E008952091660325FF0B
:10174000EBCF89E290E008952091660325FFE4CF76
:1017500085E390E008952091660326FFDDCF8AE2BD
:1017600090E008952091660326FFD6CF81E390E0B4
:10177000089582EE90E008959091660392FF06C06E
:10178000282F2871283069F4877F846093FF06C072
:10179000282F2871283161F4877E846194FD877E2B
:1017A0000895282F2471243089F78B7F8860EECF2D
:1017B000282F2471243191F78B7E8861EFCFCF934E
:1017C000C82F90E00E94632C80931602909317021A
:1017D000282FFC019BEF8E2F821B8C1710F0CF91CE
:1017E00008959193F8CFEF92FF920F931F93CF93A9
:1017F000DF931092150250911602E52FF091170217
:1018000040E0A62FB0E07BEF9AEFE92EF12C9E2F5F
:10181000951B981748F040931502DF91CF911F91C7
:101820000F91FF90EF90089591919B3F81F3292FA5
:1018300030E0691768F08D01021B130B9801253009
:1018400031056CF09F0121503109E9017883DFCF28
:10185000E701C21BD30B9E012A0F3B1FF0CF41E0D3
:10186000D6CFAF92BF92CF92DF92EF92FF920F93BB
:101870001F93CF93DF937C01009116021091170202
:1018800090911502F0E0E0E0E41768F09093150203
:10189000DF91CF911F910F91FF90EF90DF90CF904C
:1018A000BF90AF900895E801CE0FDF1F88818B3F76
:1018B00079F45B01AE0EBF1E6701CE0EDF1ED601AE
:1018C0003C91D5018C91831719F028833C9391E0CA
:1018D0003196DACFCF92DF92EF92FF921F93CF93A0
:1018E000DF937C016B01D42FC22F0E946B226AEF21
:1018F00070E00E94352C182F809115028823F9F092
:10190000612F8D2F0E94F30BCC2369F0212F4D2FD7
:10191000B601C701DF91CF911F91FF90EF90DF904B
:10192000CF900C94310C80911502882379F3DF91CC
:10193000CF911F91FF90EF90DF90CF900895C1114C
:10194000E5CFF5CFCF93DF93EC0197FF0CC0FB0100
:101950008281882341F00E94CD0CCE019F770E94A6
:10196000110D0E94F90C81E0DF91CF9108958CE078
:1019700090E00E949A2D90E0B0E0A0E080931A03DE
:1019800090931B03A0931C03B0931D0308956091D3
:101990001A038CE090E00C94AE2D0E94E11F80931E
:1019A0001E030E94F41F80911A03813089F088235E
:1019B00059F0823091F08430B9F08FE39CE90197BF
:1019C000F1F700C00000089582EE0E94D815F5CF0F
:1019D00088E193E00E94D006F0CF82EE0E94D815F5
:1019E00087E50E943717E9CF86EE0E94371788E116
:1019F000F8CF80911A03813071F0882341F0823052
:101A000031F0843061F080911E030C94F11F82EE5E
:101A10000E94E116F8CF8CE20E943717F4CF88E2DB
:101A2000FBCF0F931F93CF93DF938C01CCE0D0E0DB
:101A3000C8010C2E02C0969587950A94E2F78F7024
:101A40000E9425070E9437172497CC3F8FEFD807B5
:101A500079F7DF91CF911F910F9108950F931F9305
:101A6000CF93DF93EC018B01FB018281882371F01E
:101A7000C33EFCE5DF0719F188F4C13EECE5DE0763
:101A8000C9F081E0C23EFCE5DF0789F0B801CE0174
:101A9000DF91CF911F910F910C94A20CC43E8CE565
:101AA000D80779F084E0C53EECE5DE0779F780934E
:101AB0001A0302C010921A030E94C70CE7CF82E0FB
:101AC000F6CF83E0F4CFCF92DF92EF92FF920F93A5
:101AD0001F93CF93DF939B01E82FF82F682F782F68
:101AE000332309F46FC0E32EF12C082F10E046E0F9
:101AF000249FC0011124CFEFD0E0BE010E94352CFD
:101B0000AB01822F90E0880F991F25E5249FB0013B
:101B1000259F700D1124861B970B982F990F980FF6
:101B2000BE016E197F09609FD001619FB00D709F4B
:101B3000B00D11248B2F939F90011124232F332755
:101B4000BE01621B730B609F9001619F300D709FFF
:101B5000300D11246E01C91AD108CE9CB001CF9C62
:101B6000700DDE9C700D1124672F7727C61BD70BD5
:101B7000C09F7001C19FF00CD09FF00C11247F2DED
:101B80004230510541F148F44115510569F04130A9
:101B9000510529F17B2F832F07C04430510511F1E6
:101BA00028F146305105B1F7F0E0EA58FC4F649156
:101BB000E72FF0E0EA58FC4F7491E82FF0E0EA5884
:101BC000FC4F8491DF91CF911F910F91FF90EF9087
:101BD000DF90CF900895EB2F8F2D7F2FE5CF7E2FB5
:101BE000E32FE2CFEF2D7B2F8F2FDECF732FEB2F45
:101BF000FBCF0895CF93DF93762FE901682F842FD1
:101C00000E94630D362F272F398328838A83DF9123
:101C1000CF91089580911F03982F9E7F29F48170A2
:101C2000826080931F0308958A34E8F3817088648A
:101C3000F8CF88E090E00C94A22DCF92DF92EF9243
:101C4000FF926B017C010E940A0EB701A60188E099
:101C500090E0FF90EF90DF90CF900C94C02DEFE1DB
:101C6000F3E083E0808311828FEF82838383148289
:101C700060817181828193810C941D0E80911F037C
:101C800080FF02C08695089580E008958091230327
:101C9000833018F48F5F8093230360911F0370914A
:101CA000200380912103909122030C941D0E8091BA
:101CB0002303882319F081508093230360911F032D
:101CC0007091200380912103909122030C941D0EAA
:101CD00080911B0224E0829FC00111248C5D9C4FE7
:101CE00060910A0170E020911F03E4E2F3E020FD1F
:101CF0000C943913118210821282349623E0E0365C
:101D0000F207C1F7F5CF90911F0390FF0CC0E4E2FA
:101D1000F3E0818360834283349693E0E036F907F1
:101D2000C1F70C94680E0895CF93DF9300D000D0D4
:101D3000CDB7DEB790911F0390FF0AC09E012F5FC1
:101D40003F4F0E94FA0D4B8169818A810E94830E68
:101D50000F900F900F900F90DF91CF910895CF9338
:101D6000DF93EC01EC81F0E0EF58FD4F4491EFE19F
:101D7000F3E0628181810E94940E8C818F5F8C835D
:101D8000DF91CF910895CF93DF93EC01EFE1F3E082
:101D9000438162818C810E94940E8C818F5F8C8341
:101DA000DF91CF9108950F931F93CF93DF9300D0CE
:101DB00000D0CDB7DEB78C018091180281110AC026
:101DC0009E012F5F3F4F4FEF6FEF0E94FA0D8A8108
:101DD00080931802F8018481813071F0882339F0F2
:101DE00040E0823011F44091180280E003C08091FD
:101DF000180240E060E004C06091180240E080E01A
:101E00000E94830EF801848190E0019663E070E007
:101E10000E94492C84830F900F900F900F90DF91B8
:101E2000CF911F910F9108955F926F927F928F9241
:101E30009F92AF92BF92CF92DF92EF92FF920F9359
:101E40001F93CF93DF9300D000D0CDB7DEB7182F0C
:101E5000762E042F622E90911F0390FF29C0E92F48
:101E6000E695AE2FB0E0A053BE4F8C918093230235
:101E70009E7F923089F59E012F5F3F4F812F0E94F8
:101E8000FA0D4B8169818A810E94830E1093200391
:101E90007092210300932203662051F060911F038A
:101EA0007091200380912103909122030E941D0EC6
:101EB0000F900F900F900F90DF91CF911F910F9186
:101EC000FF90EF90DF90CF90BF90AF909F908F905A
:101ED0007F906F905F900895823019F400912203F3
:101EE000D5CF863019F410912003D0CF8930D9F3A3
:101EF000893161F6E9518E2F8170582EE695F0E018
:101F0000EF58FC4FA590B490BB2484E2E82E83E008
:101F1000F82ED12CC12C9FE0892E912CC601B40142
:101F20000E94352C812F511013C0860F9701402F2E
:101F3000672D0E94FA0DCA0CDB1C84E0E80EF11C30
:101F400080E6E81683E0F80649F70E94680E9ECF07
:101F5000861BECCFEFE1F3E09181282F4381628172
:101F60008CE0890F0C94140F81E00C94AA0FEFE120
:101F7000F3E09181282F4381628184EF890F0C94D3
:101F8000140F81E00C94B70FEFE1F3E062812FEFC3
:101F9000620F08F46FEF282F438181810C94140F96
:101FA00081E00C94C40FEFE1F3E062812FEF621B3C
:101FB00008F460E0282F438181810C94140F81E0A4
:101FC0000C94D30FEFE1F3E043812CE0420F08F4CF
:101FD0004FEF282F628181810C94140F81E00C94C3
:101FE000E20FEFE1F3E043812CE0421B08F440E014
:101FF000282F628181810C94140F81E00C94F10FE1
:1020000020E00C94140FEF92FF921F93CF93DF9375
:10201000EC0184E2E82E83E0F82E10E08C81970139
:102020004091220360912103810F0E94FA0D1F5EEF
:1020300084E0E80EF11C1F3F89F70E94680E9A8128
:102040008C8190FF08C08F5F8C83DF91CF911F91AF
:10205000FF90EF9008958150F7CFCF92DF92EF92EB
:10206000FF920F931F93CF93DF93FC018281DD24B6
:10207000DA9480FD02C0DD24D39404E213E0D0E0C2
:10208000C0E0F80111821082128294E0E92EF12C56
:10209000C12C80911A028C0D87FD815F082E000CE7
:1020A000990B8C179D0791F4809122038E9DA001BE
:1020B0008F9D500D1124559547955595479598013D
:1020C00060912103809120030E94FA0DCD0CF1E074
:1020D000EF1AF108F1F621960C5F1F4FCF30D105B2
:1020E00081F60E94680E80911A0291E0D91210C008
:1020F00081110CC08EE080931A02DF91CF911F9165
:102100000F91FF90EF90DF90CF9008958150F3CF23
:1021100090E00196BE010E94492CEDCF0F931F93D2
:10212000CF93DF93C4E2D3E0FE01118210821282CA
:10213000349683E0E036F807C1F710E000E08091C4
:102140001902082E000C990B081719078CF18091C1
:102150000901082E000C990B801791074CF19E0184
:102160004091220360912103809120030E94FA0D87
:102170000F5F1F4F24960F30110509F70E94680E5C
:102180008091080190911902980F90931902209163
:102190000901280F20930901121614F49E301CF037
:1021A000819580930801DF91CF911F910F91089540
:1021B000198218821A82DCCFEF92FF920F931F933D
:1021C000CF93DF93EC018C819D81019681709927DB
:1021D0009D838C8384E2E82E83E0F82E10E005E5F1
:1021E000812F86952C813D81820F932F911D8170C7
:1021F00097014091220360912103809F802D11243B
:102200000E94FA0D1F5F84E0E80EF11C1F3041F7B9
:10221000DF91CF911F910F91FF90EF900C94680E7A
:10222000EF92FF920F931F93CF93DF938C01C4E241
:10223000D3E0F12CE12CF80194816091210380918D
:102240002003F7E0EF16F104FCF49923F9F09E0166
:10225000409122030E94FA0D2FEFE21AF20A24960F
:102260008FE0E816F10439F70E94680EF8018481C6
:1022700090E00196817099278483DF91CF911F911F
:102280000F91FF90EF900895992309F39E0140E08C
:10229000E1CFEFE1F3E080818E7F80836081718107
:1022A000828193810E941D0E109224022FEF80E7FD
:1022B00092E0215080409040E1F700C000000C9473
:1022C000680E60911F03669570E04BE050E08BE074
:1022D00091E00E948D2D892B19F481E080932402D6
:1022E0000E946B2290931D0280931C02089590918E
:1022F0001F0390FF35C09170811128C092609093A8
:102300001F03662351F060911F0370912003809199
:102310002103909122030E941D0E60911F03669578
:1023200070E04BE050E08BE091E00E948D2D892B16
:10233000A1F01092240281E080931F0240912203B9
:1023400060912103809120030C940010853210F0DD
:102350009864D5CF880F982BD2CF0E946111EBCF14
:102360000895682F90911F03969581E0890F85321B
:1023700008F081E00C94771181E00C94B111682F82
:1023800090911F0396958FEF890F09F484E20C94C6
:10239000771181E00C94BF1161E00C947711EFE1AB
:1023A000F3E080818160808386950C94CC118091CC
:1023B0001F0380FD0C9449110C94CF1160E00C9424
:1023C000771180912202811133C08091EA028160ED
:1023D0008093EA020E94E020811104C00E945A21E9
:1023E0000E942F0E0E94190E60931F03709320030A
:1023F00080932103909322036E7F61F40E942F0E3D
:102400000E94190E60931F03709320038093210391
:10241000909322030E940A0E1092240280911F03BF
:1024200080FF03C086950E94DE1181E08093220226
:1024300008950F931F93CF93DF93809124028823F5
:1024400009F48DC080912302E0911F03E695E81BFB
:10245000E0931E028230C9F5F0E0E359FD4FE491AC
:10246000CE2FD0E00FEA1EE080911F02882389F072
:1024700010921F020E946B229E0120953095820FC0
:10248000931F90931D0280931C02109221021092C0
:10249000200280911C0290911D020E9477228C17CD
:1024A0009D0708F45CC0E0911C02F0911D02CE0F64
:1024B000DF1FD0931D02C0931C028CE192E0F80153
:1024C000DF91CF911F910F910994863049F4F0E08C
:1024D000E659FD4FE491CE2FD0E003EC1EE0C4CFCF
:1024E000893051F4E695F0E0E959FD4FE491CE2FA3
:1024F000D0E003E010E1B8CF8F3051F4E695F0E082
:10250000EC59FD4FE491CE2FD0E00DE210E1ACCFBD
:10251000853149F4F0E0EF59FD4FE491CE2FD0E042
:102520000EE810E1A1CFC8EED3E00CED10E1883148
:1025300009F49ACF833239F4EFE5F2E0C591D491F2
:1025400003ED1EE091CFC4EFD1E000E111E1843250
:1025500009F48ACFC0EDD7E009EF1DE085CFDF9108
:10256000CF911F910F9108958823B9F05198599AEE
:102570005098589A95E09A95F1F70000509A58981B
:1025800095E09A95F1F70000882311F0519A599837
:1025900085E08A95F1F700000895519A5998E8CF9F
:1025A0008BB18C7F8BB95098589A5198599A85E085
:1025B0008A95F1F7000008958AB18C7F8AB985E089
:1025C0008A95F1F70000519A599885E08A95F1F7BC
:1025D0000000509A589885E08A95F1F70000089518
:1025E0005098589A85E08A95F1F700005198599AC9
:1025F00085E08A95F1F700000895CF93DF93D82FF7
:10260000C8E08D2F80780E94B412DD0FC150C9F749
:1026100080E00E94B41285E08A95F1F7000085E021
:102620008A95F1F7000080E0DF91CF9108953BB1EA
:10263000242F209523233BB1432B3FB7F894680FF9
:10264000791F8617970711F43FBF0895FC01519138
:10265000CF01E8E04BB9000000C057FF2BB9550F80
:10266000000000C000C000C02BB900C0EA9591F77F
:10267000E8CFAF92BF92CF92DF92EF92FF920F938B
:102680001F93CF93DF937C018B01CFB6D090BC001A
:10269000F8948091BC008B7F8093BC000E94D01284
:1026A0000E94DC1284E80E94FD12000F111F000F2F
:1026B000111F5701A00EB11EE701CA15DB05A9F4D1
:1026C0000E94F012CFBED092BC00579A40E8B801E9
:1026D000C701DF91CF911F910F91FF90EF90DF9095
:1026E000CF90BF90AF900C94171389910E94FD1268
:1026F000E4CF0F931F93CF93DF93C62FD42F022FD6
:10270000FC0182818823C9F0609327020E946B221A
:10271000909326028093250280E28C0F883008F087
:1027200050C0C77081E001C0880FCA95EAF7DF91F9
:10273000CF911F910F910C943F1710912702161300
:1027400035C080912502909126020E947722883C14
:10275000910560F5C0E2CD0F1D17B9F080E2810F41
:10276000883040F4177081E001C0880F1A95EAF7AD
:102770000E944617C83048F481E09D2F977001C031
:10278000880F9A95EAF70E943F17802F0E9437170B
:10279000C830B8F4D77081E001C0880FDA95EAF745
:1027A000DF91CF911F910F910C94461780E28C0F0F
:1027B000883038F4C77081E001C0880FCA95EAF705
:1027C000EFCFDF91CF911F910F9108959C01CB0125
:1027D000203F4CE5340731F190F4283DFCE53F07FC
:1027E000E9F0293D4CE5340769F1273D3C4579F492
:1027F00026E241EE61EE0E94791380E00895223FC7
:10280000FCE53F07B9F090F0233F3C45B9F0FC01EF
:1028100082818823D1F010922702089527E245EEA5
:1028200065EEE9CF26E241EE60EEE5CF27E245EE28
:1028300064EEE1CF26E241EE62EEDDCF27E245EE27
:1028400066EED9CF28E241E0EBCF81E00895909386
:102850002D0280932C020895E0912C02F0912D021C
:10286000309721F00190F081E02D099480E00895E7
:10287000E0912C02F0912D02309799F020912701E0
:10288000222359F02091660327FF07C0DC012C9119
:1028900011962C93119725E02C930280F381E02D63
:1028A00009940895E0912C02F0912D02309739F0AF
:1028B00022E0DC012C930480F581E02D0994089539
:1028C00020912A0230912B022817390771F090933A
:1028D0002B0280932A02E0912C02F0912D02309776
:1028E00021F00680F781E02D0994089520912802B7
:1028F000309129022817390771F0909329028093AB
:102900002802E0912C02F0912D02309721F00084F2
:10291000F185E02D0994089585B7806885BF85B756
:10292000806885BF0895089508950C9493140895C0
:102930000C9497140E948C140E9494140C94951477
:1029400081E008950E9462220E94D8030E94F7222B
:102950000E94E1110C949814BF92CF92DF92EF92F3
:10296000FF920F931F93CF93DF93CDB7DEB72A97D4
:102970000FB6F894DEBF0FBECDBF0E9405040E94C3
:10298000A014882309F471C08FE2C82E82E0D82EEB
:1029900010E000E0B02E802F0E946104E82EF601C6
:1029A000F1906F01F81609F45AC08091EA0281FD96
:1029B0000E94670490E080E0FE242F2D30E0482F35
:1029C000B901082E02C0759567950A94E2F760FF79
:1029D00041C08E83BF8281E090E06C0102C0CC0CCC
:1029E000DD1C4A95E2F72E2D30E02C213D21232BD2
:1029F00009F480E088870E946B228160782F9A8793
:102A000089874E815F8168858A850E948E15F801CD
:102A1000E15DFD4F80818C2580830E9485240E948A
:102A20002C1490912E02891789F10E942C14809306
:102A30002E022A960FB6F894DEBF0FBECDBFDF91EF
:102A4000CF911F910F91FF90EF90DF90CF90BF90AB
:102A50000C94360701968630910509F0B0CF0F5FD0
:102A60001F4F0E30110509F095CF8FEF89838A83B0
:102A70001B820E946B228160782F9D838C83498109
:102A80005A816B818D810E948E15C7CF2A960FB611
:102A9000F894DEBF0FBECDBFDF91CF911F910F9194
:102AA000FF90EF90DF90CF90BF900895CF93DF938A
:102AB000DC018C91682F70E021E030E001C0220F32
:102AC0008A95EAF711964C91119750E0EA01C35CA0
:102AD000DD4F988112968C9112978823C9F08091CE
:102AE0004D028823C1F086E0849FF001859FF00DA0
:102AF0001124E60FF71FEE0FFF1FE85DFE4F408128
:102B000051814D935C93292B2883DF91CF910895B8
:102B1000892F8223E6CF20952923F6CFCF93DF9309
:102B2000CDB7DEB72B970FB6F894DEBF0FBECDBF83
:102B30004F83588769877A878B878A859B85892BFE
:102B400021F0CA0189238F3FE1F41E821D8285E0B6
:102B5000FE013796DE01119601900D928A95E1F7FC
:102B600049815A816B817C818D819E810E94D51C17
:102B70002B960FB6F894DEBF0FBECDBFDF91CF917D
:102B80000895CE0107960E945615DFCFFC01808183
:102B900091810E948E1F92959F70963041F4809192
:102BA0004D0291E0892780934D0290934C02089545
:102BB000882309F405C18238B9F40E942C1481FDE0
:102BC000FFC089E30E94BC1F0E9430202FEF81EEDE
:102BD00094E0215080409040E1F700C0000089E37C
:102BE0000E94C31F0C9430208338A1F40E942C143F
:102BF00080FDE6C083E50E94BC1F0E9430202FEFBD
:102C000081EE94E0215080409040E1F700C0000048
:102C100083E5E6CF8438A1F40E942C1482FDD0C055
:102C200087E40E94BC1F0E9430202FEF81EE94E0C9
:102C3000215080409040E1F700C0000087E4D0CFF1
:102C40009CEF980F913A18F40E94BC1FCBCF90E2F2
:102C5000980F983050F4877091E001C0990F8A95D1
:102C6000EAF7892F0E94E41FBDCF9BE5980F9330B0
:102C700070F4853A31F0863A39F083E890E00C94AC
:102C8000601481E890E0FBCF82E890E0F8CF98E50F
:102C9000980F973108F08EC0883A09F446C0893AF7
:102CA00009F446C08A3A09F446C08B3A09F446C092
:102CB0008C3A09F446C08B3B09F446C08C3B09F4BE
:102CC00046C08D3A09F446C0803B09F446C08E3AAE
:102CD00009F446C08F3A09F446C0813B09F446C066
:102CE000823B09F446C0833B09F446C0843B09F4A7
:102CF00046C0853B09F446C0863B09F446C0873B85
:102D000009F446C0883B09F446C0893B09F446C033
:102D10008D3B09F446C08E3B09F446C08A3B09F45A
:102D200046C090E080E00C94761482EE90E0FBCFF9
:102D300089EE90E0F8CF8AEE90E0F5CF85EB90E059
:102D4000F2CF86EB90E0EFCF83EB90E0ECCF84EB1B
:102D500090E0E9CF87EB90E0E6CF8CEC90E0E3CF1A
:102D60008DEC90E0E0CF83E891E0DDCF8AE891E060
:102D7000DACF82E991E0D7CF84E991E0D4CF81E244
:102D800092E0D1CF83E292E0CECF84E292E0CBCF4B
:102D900085E292E0C8CF86E292E0C5CF87E292E07A
:102DA000C2CF8FE690E0BFCF80E790E0BCCF8AE251
:102DB00092E0B9CF803F20F00E9493230C947A24B4
:102DC0000895882309F452C0823871F40E942C14AB
:102DD00081FF4CC089E30E94BC1F0E94302089E320
:102DE0000E94C31F0C943020833859F40E942C1485
:102DF00080FF3CC083E50E94BC1F0E94302083E519
:102E0000EFCF843859F40E942C1482FF2FC087E43E
:102E10000E94BC1F0E94302087E4E2CF9CEF980FF5
:102E2000913AF0F290E2980F983050F4877091E068
:102E300001C0990F8A95EAF7892F0E94EA1FD2CF25
:102E40009BE5980F933020F490E080E00C946014A0
:102E500098E5980F973120F490E080E00C94761478
:102E6000803F20F00E94FB230C947A240895CF9396
:102E7000C82F0E94D8158C2FCF910C94E11688236F
:102E800021F00E94E41F0C9430200895882321F043
:102E90000E94EA1F0C94302008958F929F92AF9267
:102EA000BF92CF92DF92EF92FF920F931F93CF9337
:102EB000DF937C01D62FC72FFC01058102950F708F
:102EC000128111110E9404200E94DA1FC82E88234B
:102ED00071F01123B1F080E28D0F883090F082E024
:102EE0000E947B200E94DA1F91E0C82EC926DC2EAA
:102EF000D2949FE0D922ED2DF0E0EA50F24D0C94EF
:102F00005D2CC12CF4CF0C2F0F70C07F11F00295F7
:102F1000007F1123A9F0002359F080E28D0F883043
:102F200010F0D11109C0802F0E94E41F0E943020B0
:102F30008D2F0E94D81514C0802F0E94F71FF6CF46
:102F40008D2F0E94E116002359F080E28D0F88300A
:102F500010F0D11133C0802F0E94EA1F0E94302050
:102F6000F8E0DF1639F0DF1648F086EF8D0D8F7030
:102F7000823020F40E942C140E943607CC2009F4E1
:102F800027C20E94D61F80FD23C2F70112820E9431
:102F9000D01F0E94591EC7010E94F5190E94D01F20
:102FA000DF91CF911F910F91FF90EF90DF90CF9025
:102FB000BF90AF909F908F900C947A1E802F0E94AC
:102FC000FD1FCCCFFC2FFF70BF2EC07FC03219F089
:102FD000B29480EFB822DD2339F0D13019F11123FA
:102FE00059F1002321F1A4CF112381F0011106C072
:102FF0000E9417208B290E943F17B2CF0130C1F7E2
:103000000E9417208B290E941D20AACF011106C003
:103010000E9426208B2D0E944617A2CF013009F472
:103020009FCFF6CF112329F0023008F099CF8B2DD6
:10303000E2CF011195CFEECF002361F38D2F0E94D7
:10304000E1168ECF8C2F86958695837069F081303E
:1030500009F086CF8D2F9C2F9370111102C090E044
:1030600080E00E9476147CCF8D2F9C2F93701111DD
:1030700002C090E080E00E94601472CF112309F139
:10308000D53F99F0D63FB9F0D43F49F48091600321
:1030900090916103816090936103809360038D2F11
:1030A0000E9493230E947A245BCF809160039091C9
:1030B00061038260F0CF809160039091610384602E
:1030C000EACFD53F89F0D63FA9F0D43F49F48091AB
:1030D0006003909161038E7F9093610380936003FE
:1030E0008D2F0E94FB23DECF8091600390916103BE
:1030F0008D7FF2CF80916003909161038B7FECCF45
:103100008C2F837009F047C011112ACF2D2F2295E3
:1031100026952770220F220F6D2F6F70862E912C0F
:10312000B12CA12C022E04C0880C991CAA1CBB1C1B
:103130000A94D2F760E070E0CB01D4FF0FC06FE0DB
:1031400070E080E090E004C0660F771F881F991F31
:103150002A95D2F76095709580959095C695C695FD
:10316000C370C23051F080F4682979298A299B29DB
:10317000C13071F00E940B1EF3CE682979298A298B
:103180009B290E941D1EECCE0E940B1EC501B4019E
:103190000E94F91DE5CE8695112311F08C2F8170C8
:1031A000882309F4DDCE2D2F229526952770220F36
:1031B000220F6D2F6F70862E912CB12CA12C022E18
:1031C00004C0880C991CAA1CBB1C0A94D2F760E0AE
:1031D00070E0CB01D4FF0FC06FE070E080E090E0C2
:1031E00004C0660F771F881F991F2A95D2F7609534
:1031F000709580959095C695C695C370C23051F074
:1032000080F4682979298A299B29C13071F00E94AC
:10321000D01EA6CE682979298A299B290E94E21E00
:103220009FCE0E94D01EC501B4010E94BE1E98CE42
:10323000E0E2ED0FE53108F04CC0F0E0EA5FF14D5F
:103240000C945D2CDF708C2F8F71112321F00E9464
:10325000591E8D2FD0CE0E947A1E8D2FDCCE1123C9
:1032600039F001117DCE8C2F8F710E949D1E78CE7A
:10327000023008F075CEF7CF8C2F8F71112339F003
:103280000E94591E6DCE8C2F8F711123C9F30E949D
:103290007A1E66CE112329F08C2F8F710E94441E56
:1032A0005FCE0E943F1E5CCE112349F0CF718C2F60
:1032B0000E94591E63E08C2F0E94662051CE81E04F
:1032C0000E947B20023008F44BCE82E00E947B20DB
:1032D00047CE112329F001112BCE8C2F8F71D0CF27
:1032E000002369F0D93309F0A9CE2FEF87EE93E0E0
:1032F000215080409040E1F700C000009FCE8C2F0D
:103300008F71C5CF4C2F4F706D2FC7010E941906CA
:103310000E946F1D25CED23F71F1C8F4D03F01F15C
:10332000D13FB9F180914C02002309F446C08823B3
:1033300041F080914D0291E0892780934D021092D7
:103340004C028D2F112389F10E94D81516C0D43F4D
:10335000D9F078F0D53F31F711110FC081E006C0E8
:10336000112359F080914D0291E0892780934D02FD
:1033700004C081E0182710934D024C2F4F706D2F21
:10338000C7010E945E09ECCD1111F7CF10924D02DA
:10339000F4CF112339F080914C02882319F3109255
:1033A0004C02EBCF0023F1F2E8CF0E94E11686E059
:1033B000F70111928A95E9F7E0CF8823F1F2111114
:1033C000DCCF80914D0291E0892780934D02E7CFB9
:1033D000DF91CF911F910F91FF90EF90DF90CF90F1
:1033E000BF90AF909F908F9008950F931F93CF93AE
:1033F000DF93EC018B819C81892B29F08881998155
:1034000089238F3F29F4DF91CF911F910F91089568
:10341000CE010E9448078823B1F3688179818A81AF
:103420000E94981F8C010E94F41E0E94F61DB80194
:10343000CE01DF91CF911F910F910C944D170E94F7
:1034400004200E9414200E9430200E941C250E940B
:103450007A2490E080E00E94601490E080E00C9478
:1034600076140E94CA1F0C941F1A0E94F41F0C9419
:10347000311AE92FE295EF70E250EE3070F4F0E08F
:10348000E55EF14D0C945D2C803F19F020F4803EF8
:1034900020F481E00895843FE1F380E00895803EC8
:1034A000C0F3813FD1F7F5CF93FB882780F90895CA
:1034B0000E948E1F0C94391ACF93DF9300D000D056
:1034C0000F92CDB7DEB70F900F900F900F900F9027
:1034D000DF91CF910895CF93DF9300D000D000D03B
:1034E000CDB7DEB726960FB6F894DEBF0FBECDBFC0
:1034F000DF91CF9108951F93CF93DF93C0914E0238
:1035000016E080914F028C1304C0DF91CF911F9180
:103510000895D0E01C9FF0011D9FF00D1124E05B89
:10352000FD4F4081518162817381848195810E9428
:103530006B1A2196C770E5CF4091800250918102AD
:103540006091820270918302809184029091850241
:103550000C946B1A1F93CF93DF9380918502807F29
:10356000C1F4809182028823A1F080914E02C09123
:103570004F026091800270918102409183025091CC
:103580008402D62FD723DA01A095B09516E0C81390
:1035900004C0DF91CF911F91089590E0411551052E
:1035A00011F0DF3F31F401968770F1CF2A0F3B1FF6
:1035B00017C0189FF001199FF00D1124E05BFD4F1B
:1035C00021812713F0CF20812613EDCF22812111F5
:1035D000EACF238134812417350740F3241B350BB0
:1035E000283C310500F7209185022F70206120933F
:1035F000850226E0289FF001299FF00D1124EB5A47
:10360000FD4F80818F708061808380E892E00E940E
:10361000F519DF91CF911F910C947B1ABF92CF9235
:10362000DF92EF92FF920F931F93CF93DF93CDB76B
:10363000DEB761970FB6F894DEBF0FBECDBF8C0129
:1036400085E0F801DE011D9601900D928A95E1F763
:10365000D8014C9111965C9111971296EC901297AB
:103660008091830290918402009709F47FC1209198
:10367000800230918102622F63236F3F09F476C18B
:103680001396CD90DC90B0908202BB2009F411C15A
:10369000C816D906D0F1F601E81BF90BCF01FF24BB
:1036A000F394883C910508F0F12C80918502982FC5
:1036B000907FFF2009F4B8C091117FC0FE2C351314
:1036C00029C0241327C0E11025C08F70806180932A
:1036D00085020E949C1A80E892E00E94F519809170
:1036E0008502D80115968C938F2D61960FB6F894AC
:1036F000DEBF0FBECDBFDF91CF911F910F91FF9025
:10370000EF90DF90CF90BF900895809590958C0DAD
:103710009D1DC5CFCD2829F0852F84238F3F09F02B
:1037200041C180E0B82FB170DB2E80FF3CC080919A
:103730004E0220914F0236E0821315C04D875E87FE
:103740008D859E850E948E1F292F22952F702230F5
:10375000F0F0243018F59F70F1F0F8019581907F1A
:10376000D1F4D12C1EC090E0389FF001399FF00DAC
:103770001124E05BFD4F6181651306C06081641315
:1037800003C06281E6120FC001968770D5CF9F708B
:1037900011F0882331F3805E883018F3C8010E944D
:1037A000F519FD2CA1CFEE2009F49ECF8091850262
:1037B000816080938502F12C97CF351306C02413C6
:1037C00004C0D801EE2009F49AC04D875E878D852C
:1037D0009E850E94581A882319F1EE2009F18091E4
:1037E0008502803270F0209180023091810238870A
:1037F0002F831986DB86CA868C87CE0107960E94A6
:10380000F51986E0F801A0E8B2E001900D928A95E2
:10381000E1F70E94AA1A0E949C1AFF24F39464CF35
:10382000C8010E94F519F9CF911113C07C2DD98AD6
:10383000C88A6E2D89890E945C1A80E892E00E94F5
:10384000F51986E0E0E8F2E0DF011D928A95E9F7DC
:1038500063C0351312C0241310C0E1100EC0F8016C
:103860008583C8010E94F519E0E8F2E086E0DF01F7
:103870001D928A95E9F7FB2C37CF4D875E878D85A2
:103880009E850E94581A882359F2EE2049F28091B1
:103890008502803208F4B5CF2091800230918102F8
:1038A0003A8329831B82DD82CC828E83CE010196EE
:1038B000A6CFC816D90698F1F601E81BF90BCF017F
:1038C000F12C883C910508F049C0FE2CEE2009F44B
:1038D000A7CF351332C0241330C08091850280FDFC
:1038E00023C0982F907F01F1D80115968C931597DE
:1038F000903F39F0982F907F905F8F70892B1596AD
:103900008C93C8010E94F51986E0F801A0E8B2E0A6
:1039100001900D928A95E1F70E949C1AE5CE809560
:1039200090958C0D9D1DCCCF86E0F801A0E8B2E00B
:1039300001900D928A95E1F7D7CE4D875E878D85F0
:103940009E850E94581A81115CCF8091850281600A
:1039500080938502C8010E94F519C6CE7C2DD98AB4
:10396000C88A6E2D89890E945C1A6BCFEE2009F4FB
:1039700057CF4D875E878D859E850E94581AF82EF9
:10398000882309F44DCF86E0F801A0E8B2E0019069
:103990000D928A95E1F780E892E00E94C6150E9498
:1039A000AA1ABACF81E08E25BDCE1F93CF93DF93A5
:1039B000CDB7DEB72C970FB6F894DEBF0FBECDBFE4
:1039C0004F83588769877A878B879C87CE010796B4
:1039D0000E940E1B882369F08A859B85892B39F00C
:1039E0004F815885842F85238F3F09F071C016E0E1
:1039F0005FC086E0FE013796DE01119601900D92C0
:103A00008A95E1F78A859B85892B89F388859F8133
:103A100089238F3F61F320914F0230E0C901019665
:103A20008770992740914E024817190671F40E9439
:103A3000351A10924F0210924E0286E0E0E8F2E052
:103A4000DF011D928A95E9F7D2CF96E0929FD001CF
:103A5000939FB00D1124A05BBD4FFE0131960190E4
:103A60000D929A95E1F780934F020E947B1ABFCF87
:103A7000819FC0011124805B9D4F0E940E1B8823F3
:103A8000E9F0E0914E021E9FF0011124E05BFD4F32
:103A90004081518162817381848195810E946B1A7A
:103AA00080914E0290E001968770992780934E0294
:103AB00080914E0290914F028913DACF2C960FB667
:103AC000F894DEBF0FBECDBFDF91CF911F91089557
:103AD00069857A858B859C850E946B1A88CFEF92C9
:103AE000FF920F931F93CF93DF938C01892B81F06B
:103AF000F12CEE24E394E8012196F80184918437B7
:103B000070F4843008F05FC08130B1F08230A1F1F0
:103B1000DF91CF911F910F91FF90EF90089585371E
:103B200009F44CC008F43DC09CE7980F903780F72B
:103B30008F770E94E11649C00E5F1F4FFE018491EE
:103B400090E2980F983060F48770FE2D01C0FF0F4F
:103B50008A95EAF78F2F0E9407200E94302002C02A
:103B60000E94D8158F2D815030F2EFE9FFE0319798
:103B7000F1F700C00000F7CF0E5F1F4FFE018491E8
:103B800090E2980F983050F48770FE2D01C0FF0F1F
:103B90008A95EAF78F2F0E940D20DFCF0E94E11651
:103BA000E1CF0E5F1F4FFE01C491C150D8F28FE9E3
:103BB0009FE00197F1F700C00000F7CF0E5F1F4FA5
:103BC000FE01F490CFCF0E94D8158E01CBCF08957F
:103BD0000C94E71D0E94E81D6093C1027093C2021D
:103BE0008093C3029093C4020C941F1A08950C94FE
:103BF000EA1D0F931F930091C1021091C202209100
:103C0000C3023091C402602B712B822B932B1F9126
:103C10000F910C94EA1D0F931F930091C102109114
:103C2000C2022091C3023091C40260237123822317
:103C300093231F910F910C94EA1D0F931F930091F2
:103C4000C1021091C2022091C3023091C4026027C8
:103C50007127822793271F910F910C94EA1D0C94D2
:103C6000E71D0C942F1E0E94311E6093BD027093BD
:103C7000BE028093BF029093C0020C941F1A60E0B2
:103C800070E0CB010C94331E0F931F9341E050E082
:103C900060E070E08A019B0104C0000F111F221F29
:103CA000331F8A95D2F7C901B8011F910F910C9467
:103CB000331E0F931F9341E050E060E070E004C0BA
:103CC000440F551F661F771F8A95D2F78091BD025A
:103CD0009091BE02A091BF02B091C0028A019B01E7
:103CE000082B192B2A2B3B2BC901B8011F910F91CF
:103CF0000C94331E0F931F9341E050E060E070E09E
:103D000004C0440F551F661F771F8A95D2F7CB0159
:103D1000BA0160957095809590950091BD021091C3
:103D2000BE022091BF023091C00260237123822322
:103D300093231F910F910C94331E0F931F9341E017
:103D400050E060E070E004C0440F551F661F771F0D
:103D50008A95D2F78091BD029091BE02A091BF02D8
:103D6000B091C0028A019B01082719272A273B2707
:103D7000C901B8011F910F910C94331E0F931F932B
:103D80000091BD021091BE022091BF023091C0028D
:103D9000602B712B822B932B1F910F910C94331E50
:103DA0000F931F930091BD021091BE022091BF029C
:103DB0003091C00260237123822393231F910F91BE
:103DC0000C94331E0F931F930091BD021091BE02FD
:103DD0002091BF023091C00260277127822793276C
:103DE0001F910F910C94331E0895E92FEE0FE90FE8
:103DF000EE0F8E0F982F977041E001C0440F9A95F7
:103E0000EAF786958695869595E0899FF0011124BD
:103E1000EA57FD4F30E020E070E05191DF0111974B
:103E2000CB01022E02C0969587950A94E2F7817025
:103E300081958527842385278C932F5F3F4F2530DD
:103E4000310559F70895E92FEE0FE90FEE0F8E0FA8
:103E5000982F977086958695869525E0829FF0012C
:103E60001124EA57FD4F50E040E080E0219130E01E
:103E7000092E02C0369527950A94E2F72170332760
:103E8000042E01C0220F0A94EAF7822B4F5F5F4F86
:103E90004530510559F70895BF92CF92DF92EF92C6
:103EA000FF920F931F93CF93DF938C01C090BD02BD
:103EB000D090BE02E090BF02F090C0028091C1029B
:103EC0009091C202A091C302B091C402C82AD92A1B
:103ED000EA2AFB2ACFE1D0E0BC2ED701C6010C2E86
:103EE00004C0B695A795979587950A94D2F780FD5B
:103EF0000EC0219788F7B12C8B2DDF91CF911F91A8
:103F00000F91FF90EF90DF90CF90BF900895B80190
:103F10008C2F0E947B09019761F3EECFCF93DF9343
:103F2000EC010E944C1FBE01DF91CF910C947B09E4
:103F30001F93CF93DF93EB0190914B02992331F0C4
:103F4000CB01DF91CF911F910C948E1F882379F0C4
:103F5000CB010E944C1F182F682FCE010E94F51E26
:103F6000BE01812FDF91CF911F910C947B09CB0172
:103F70000E94231F182FF4CF682F80911601909173
:103F800017010C94C021682F8091160190911701A0
:103F90000C94CB2180911601909117010C94D6219D
:103FA0008091C50285958595859508958091C50276
:103FB000877008959091C502977081E009F480E0C0
:103FC00008958091E90208959091E902892B8093E8
:103FD000E902089580959091E90298239093E9026F
:103FE00008958093E90208951092E902089590914E
:103FF000E802892B8093E802089580959091E80269
:1040000098239093E80208951092E8020895909101
:10401000E702892B8093E702089580959091E7024B
:1040200098239093E70208951092E70208958091F3
:10403000C602089508950C941A209091C60298170C
:1040400021F08093C6020C941B2008958091C60233
:10405000882329F01092C60280E00C941B2008955A
:10406000E0911601F09117018091E9028083E091BF
:104070001601F091170180819091E802892B8083CD
:10408000E0911601F091170180819091E702892B50
:1040900080839091C602992381F0E0911601F091FE
:1040A00017018081892B80838091160190911701DF
:1040B0000E945C2181110E9426208091160190911E
:1040C00017010C94381408950C94632098E0899F8C
:1040D00090011124622B6093C5020E94591E8091A9
:1040E000C5028595859585950C9464201092C5022E
:1040F00080E00C9464209091C50280958923809380
:10410000C502282F277071F4282F082E000C330BBE
:104110009217130639F08595859585950E947A1E2C
:104120000C9476200895CF92DF92EF92FF926C016B
:10413000EE24FF2420E0C114D104E104F10419F0BD
:10414000C701B60120E1C72ED82EE92EFF24C114E5
:10415000D104E104F10419F0285FC701B6016B0135
:104160007C0154E0F694E794D794C7945A95D1F71C
:10417000C114D104E104F10419F02C5FC701B601A8
:104180006B017C0142E0F694E794D794C7944A957A
:10419000D1F7C114D104E104F10419F02E5FC70175
:1041A000B6019695879577956795672B682B692B50
:1041B00009F02F5F822FFF90EF90DF90CF9008954E
:1041C00090E080E00E94A82D21E08D3E9E4F09F0F6
:1041D00020E0822F089582E090E00C949A2D83E0F5
:1041E00090E00C949A2D84E090E00C949A2D682F26
:1041F00084E090E00C94AE2DAB01BC018FE090E028
:104200000C94C02DAB01BC0183E190E00C94C02D57
:1042100060E070E0CB010C94022160E070E0CB0123
:104220000E94FC200C9408216DEE7EEF90E080E06F
:104230000E94CC2D60E082E090E00E94AE2D60E014
:1042400083E090E00E94AE2D1092C1021092C20253
:104250001092C3021092C40260E084E090E00E94D9
:10426000AE2D60E085E090E00E94AE2D60E086E03B
:1042700090E00E94AE2D6FEF87E090E00E94AE2D9F
:1042800040E050E0BA0188E090E00E94C02D60E07C
:104290008DE090E00E94AE2D40E050E0BA0188E150
:1042A00090E00E94C02D60E087E190E00E94AE2D7A
:1042B0000C940D210C941421FC013296809127015D
:1042C000882321F0809166039EE187FF96E080E0DD
:1042D000915008F4089521912223D1F38F5FF8CFF4
:1042E0009C01FC0132969FEF80E04191461751F00E
:1042F0009F3F19F4411101C0982F8F5F8630A9F7B5
:104300009F3F09F40895290F311D97FD3A95F90152
:1043100062830895FC01329608962191261303C00A
:10432000DF0111971C92E817F907B9F70895E62FF6
:10433000E695E695E695EE3168F4E80FF92FF11D64
:10434000677021E030E001C0220F6A95EAF78281B0
:10435000822B82830895E62FE695E695E695EE3169
:1043600070F4E80FF92FF11D677021E030E001C013
:10437000220F6A95EAF720958281282322830895E7
:1043800020912701222329F02091660327FD0C9418
:1043900097210C94702120912701222329F020914C
:1043A000660327FD0C94AB210C948A21FC01329604
:1043B00080912701882351F08091660387FF06C012
:1043C0008EE1DF011D928A95E9F7089586E0F9CF25
:1043D00008950C94E8210E94E92180916C038430B7
:1043E00049F11092EB0288E190E020E40FB6F894D6
:1043F000A895809360000FBE2093600080E00E942B
:1044000036070E94E92183B7817F846083BF83B729
:10441000816083BF7894889583B78E7F83BF0FB602
:10442000F894A89580916000886180936000109254
:1044300060000FBE08950895CF930E94F2030E947A
:1044400005040E941B22C0E08C2F0E946104811190
:1044500005C0CF5FCE30C1F7CF91089581E0FCCF8A
:1044600008950C9430220E94351A0E942C140E9448
:1044700036070C9431221F921FB61F9211248F937E
:104480009F93AF93BF938091EB02811113C08091F2
:10449000620390916303A0916403B0916503419618
:1044A000A11DB11D8093620390936303A0936403E5
:1044B000B0936503BF91AF919F918F911F901FBEE5
:1044C0001F90189582E084BD93E095BD9AEF97BD4B
:1044D00080936E0008952FB7F894809162039091B5
:1044E0006303A0916403B09165032FBF0895CF9239
:1044F000DF92EF92FF920F931F932FB7F8944091A2
:1045000062035091630360916403709165032FBF50
:104510006A017B01EE24FF248C0130E020E0C0160C
:10452000D106E206F30650F0481B590BCA011F9151
:104530000F91FF90EF90DF90CF9008954150510977
:10454000F3CF78941F921FB61F9211248F939F93DD
:10455000AF93BF938091620390916303A091640332
:10456000B09165030196A11DB11D809362039093E4
:104570006303A0936403B0936503BF91AF919F91D0
:104580008F911F901FBE1F901895F89481E0809323
:10459000E00080E28093D800E9ECF0E010828FE147
:1045A0009EE40197F1F700C000001DBA1092680068
:1045B0001CBC10BE1FBA10927A0010926E001092AE
:1045C0006F0010927100109272001082ECEBF0E01C
:1045D000108214B817B81AB81DB810BA108215B8DE
:1045E00018B81BB81EB811BA0C94003F08950E9469
:1045F000E020811102C00E945A210E94EB2080938A
:10460000EA020E94F32090E0909367038093660390
:104610000E94EF20682F70E090E080E00C94F71D7E
:104620008091F00280FF12C060911B0185E0689FBD
:10463000B00111247595679575956795603871057A
:10464000A8F561157105A1F1862F089581FF09C0B4
:1046500060911B0185E0689FB001112475956795F5
:10466000EDCF60911B0182FD0AC08091EF0288238B
:10467000D1F090911A0160911B01891728F085E013
:10468000689FB0011124DACF869FB001112485E024
:10469000869F9001879F300D1124692F70E0C9011A
:1046A0000E94492CCBCF65E070E0CECF8FE7089514
:1046B00081E008958091F00280FF0CC060911901A3
:1046C00070E075956795759567956115710549F168
:1046D000862F089581FF06C06091190170E07595DD
:1046E0006795F3CF6091190182FD0BC09091EF02A5
:1046F0009923A1F06091180180911901961738F063
:10470000682F70E06038710500F38FE70895899F86
:10471000C001112470E00E94492CF4CF61E070E0E8
:10472000D7CF81E00895803F31F40E941023819516
:104730008093F4020895813F19F40E941023F8CF6A
:10474000823F31F40E94102381958093F3020895F3
:10475000833F19F40E941023F8CF893F29F40E9467
:104760005A238093F50208958A3F21F40E945A2328
:104770008195F7CF8B3F31F40E945A238195809326
:10478000F60208958C3F19F40E945A23F8CF843F13
:1047900031F48091F20281608093F2020895853FA6
:1047A00021F48091F2028260F7CF863F21F480915C
:1047B000F2028460F1CF873F21F48091F202886099
:1047C000EBCF883F21F48091F2028061E5CF8D3FED
:1047D00031F48091F00281608093F00208958E3F61
:1047E00021F48091F0028260F7CF8F3FB9F780917A
:1047F000F0028460F1CF9091F302803F41F4809108
:10480000F40287FD1092F402992371F00895813F1C
:1048100029F48091F4021816ACF3F6CF823F81F4AC
:1048200097FFF2CF1092F3028091F4029091F5027B
:10483000892B9091F602892B49F71092EF02089587
:10484000833F19F4191674F3DFCF893F39F480914F
:10485000F5021816CCF61092F502D6CF8A3F29F44D
:104860008091F50287FFD0CFF6CF8B3F39F480914E
:10487000F60287FFC9CF1092F602C6CF8C3F29F40B
:104880008091F6021816BCF3BFCF843F31F48091BB
:10489000F2028E7F8093F202B7CF853F21F48091A0
:1048A000F2028D7FF7CF863F21F48091F2028B7F59
:1048B000F1CF873F21F48091F202877FEBCF883FD1
:1048C00021F48091F2028F7EE5CF8D3F31F480910B
:1048D000F0028E7F8093F00297CF8E3F21F480917B
:1048E000F0028D7FF7CF8F3F09F08ECF8091F002DD
:1048F0008B7FF0CF81EF92E00E9452140E946B22D6
:104900009093EE028093ED0208951F93CF93DF936F
:104910008091ED029091EE020E947722AC0190917D
:10492000EF0220911C0130E0911106C02091EC02B1
:104930008AE0289F900111244217530778F02091B4
:10494000F302C091F402D091F5021091F602211108
:1049500009C08C2F8D2B812B09F06AC0DF91CF917C
:104960001F9108959F3F19F09F5F9093EF021216D9
:1049700024F40E9410238093F3028091F30287FFB6
:1049800005C00E94102381958093F3021C1624F425
:104990000E9410238093F4028091F40287FF05C0E7
:1049A0000E94102381958093F4023091F302332307
:1049B000A1F02091F402222381F045EB3403C001E1
:1049C0001124992369F19093F30245EB240390019C
:1049D0001124332349F13093F4021D1624F40E946C
:1049E0005A238093F5028091F50287FF05C00E944B
:1049F0005A2381958093F502111624F40E945A23BC
:104A00008093F6028091F60287FF05C00E945A2328
:104A100081958093F602DF91CF911F910C947A24B7
:104A200081E08093F302D1CF81E08093F402D5CF6F
:104A30009F3F09F099CFAACF86E0E1EFF2E0DF01D6
:104A40001D928A95E9F71092EF021092F0020895F4
:104A50008091170308950F931F93CF93DF9300D096
:104A60000F92CDB7DEB78C010E949127823011F0F2
:104A7000843021F584E089831B830A8382E080935C
:104A8000E9008FEF9091E800815095FD06C095ED0B
:104A90009A95F1F700008111F5CF8091E80085FF2C
:104AA0000DC050E040E063E070E0CE0101960E944E
:104AB000AE278091E8008E778093E8000F900F90EA
:104AC0000F90DF91CF911F910F910895CF93DF93B6
:104AD00000D00F92CDB7DEB720916C03243031F5B2
:104AE00023E02983805891099B838A8382E0809305
:104AF000E9008FEF9091E800815095FD06C095ED9B
:104B00009A95F1F700008111F5CF8091E80085FFBB
:104B10000DC050E040E063E070E0CE0101960E94DD
:104B2000AE278091E8008E778093E8000F900F9079
:104B30000F90DF91CF910895CF93DF93EC010E9406
:104B40009127823011F08430F9F482E08093E900FB
:104B50008FEF9091E800815095FD06C095ED9A95F4
:104B6000F1F700008111F5CF8091E80085FF0CC0BE
:104B700050E040E066E070E0CE010E94AE278091F8
:104B8000E8008E778093E800DF91CF910895CF936E
:104B9000DF93EC010E949127823011F08430B9F547
:104BA000809127018823B1F18091660387FF32C08D
:104BB00060E282E08093E9008FEF9091E8008150FD
:104BC00095FD06C095ED9A95F1F700008111F5CF9E
:104BD0008091E80085FF1BC08091270170E050E0C4
:104BE00040E0811104C050E040E068E070E0CE0198
:104BF0000E94AE278091E8008E778093E80080E2E3
:104C0000FE01A7EFB2E001900D928A95E1F7DF91E6
:104C1000CF91089568E081E0CDCF80916B03811141
:104C200009C00E943C290E9499298091E200846079
:104C30008093E200089510926B03089508950895FB
:104C40000C94332242E061EC81E00E94BA2842E2F7
:104C500061EC82E00C94BA2880916E03833009F4F1
:104C60005FC030F48130C1F1823009F49BC00895F7
:104C70008A3009F487C08B3009F46DC0893009F09F
:104C80004EC080916D03813209F049C0809171035B
:104C900090917203029708F042C08091E800877FEC
:104CA0008093E8008091E80082FF35C09091F30086
:104CB0008091F200029729F48091F1008B7F81307E
:104CC00021F48091F100809317038091E8008B77A5
:104CD0008093E8000C94EE2880916D03813AF9F4FA
:104CE0008091E800877F8093E80080917103909124
:104CF0007203892B61F460E287EF92E070E00E941A
:104D0000FD278091E8008B778093E800089560E0AC
:104D100090E080E0F3CF80916C038111C3CF0895C0
:104D200080916D03813AD9F780917103909172035C
:104D3000892BA9F78091E800877F8093E800809114
:104D4000E80080FFFCCF809127018093F1008091E3
:104D5000E8008E77BDCF80916D03813201F780919D
:104D6000710390917203892BD1F68091E800877FBF
:104D70008093E8000E94EE2880916F0380932701C2
:104D80000C94351A80916D03813249F68091E800C8
:104D9000877F8093E8000E94EE28809170038093C3
:104DA0001803089580916D03813A09F0B8CF80917E
:104DB000E800877F8093E8008091E80080FFFCCFC7
:104DC00080911803C2CF84B7877F84BF0FB6F89451
:104DD000A8958091600088618093600010926000C7
:104DE0000FBE80E880936100109261000E949A14C7
:104DF0000E943C290E9499298091E200846080935E
:104E0000E20078940E94192C0E94A2148DE191E096
:104E10000E94271480916C03853029F00E94AC1405
:104E20000E941912F7CF0E94EB2180916A03882318
:104E300089F30E941C22882369F30E949827EACFF5
:104E40000C942227292F33272330310519F168F4D8
:104E50002130310509F44AC02230310509F44BC034
:104E600090E080E030E020E028C02132310579F187
:104E700022323105A9F780E490E02DEB35E0611591
:104E80007105D9F080EC90E02DEF34E061307105D0
:104E9000A1F0E6CF99278130910599F0009741F074
:104EA0008230910589F00397D9F6E6E7F4E002C075
:104EB000ECEAF4E0849190E09F01FA0131832083D1
:104EC0000895E4E9F4E0F6CFECE7F4E0F3CF89E00D
:104ED00090E022EC34E06115710579F389E090E00F
:104EE0002BED34E06130710541F3BACF82E190E0FF
:104EF0002BEE34E0E2CF8BE390E020EB34E0DDCF2B
:104F00000895CF93C82F0E948027C0931903CF9193
:104F1000089580916C03843011F482E0089581E05B
:104F2000089580911903811102C00C948927089576
:104F300080E189BD82E189BD09B400FEFDCF809189
:104F4000D8008F7D8093D8008091E00082608093AC
:104F5000E0008091E00081FDFCCF0895AF92BF9208
:104F6000CF92DF92FF920F931F93CF93DF936C0149
:104F7000EB018A010E940D29F82E811123C0011531
:104F8000110539F0F80180819181C81BD90BC80E39
:104F9000D91EB12CA12C2097A9F08091E80085FDA5
:104FA00022C08091E8008E778093E80001151105FA
:104FB000A1F0F80180819181A80EB91EB182A08272
:104FC00085E0F82E8F2DDF91CF911F910F91FF90EB
:104FD000DF90CF90BF90AF9008950E940D29882355
:104FE000D1F2F82EEFCFF60181916F018093F1009D
:104FF0002197FFEFAF1ABF0ACECFFC018091730358
:105000009091740386179707A0F06115710529F434
:105010009091E8009E779093E80090E0611571050B
:1050200051F4911108C08091E80082FF34C080E003
:105030000895BC01F2CF80916C038823C1F18530C3
:10504000C1F18091E80083FD30C08091E80082FDCD
:10505000EACF8091E80080FFE1CF8091F3002091BA
:10506000F200382F6115710519F02830310558F01C
:1050700091E02830310509F090E02091E8002E778A
:105080002093E800CBCF81918093F10061507109AA
:105090002F5F3F4FE7CF80916C03882341F085302D
:1050A00041F08091E80083FFBECF81E0089582E067
:1050B000089583E00895FC01809173039091740337
:1050C00086179707A0F06115710529F48091E80013
:1050D0008E778093E80090E06115710551F491118D
:1050E00008C08091E80082FF35C080E00895BC01CF
:1050F000F2CF80916C038823C9F18530C9F180918A
:10510000E80083FD31C08091E80082FDEACF809104
:10511000E80080FFE1CF8091F3002091F200382F6A
:105120006115710519F02830310558F091E02830EB
:10513000310509F090E08091E8008E778093E800D7
:10514000CBCF84918093F1003196615071092F5F2C
:105150003F4FE6CF80916C03882341F0853041F0CA
:105160008091E80083FFBDCF81E0089582E008953B
:1051700083E00895982F973028F08F708093E9008E
:1051800081E008959093E900242F762F50E098173E
:1051900031F07091EC002091ED005091F00021FD74
:1051A00002C09F5FE8CF3091EB003E7F3093EB0071
:1051B0003091ED003D7F3093ED003091EB00316098
:1051C0003093EB007093EC002093ED005093F000CF
:1051D0002091EE0027FDE5CF80E0089580916D03DA
:1051E00087FF13C08091E80082FF06C08091E8002D
:1051F0008B778093E80004C080916C038111F2CF1B
:10520000089580916C038823D9F38091E80080FF92
:10521000F8CF8091E8008E77ECCF2091E4003091B8
:10522000E50085E6A9019091EC0090FF06C0909101
:10523000E80090FF06C080E008959091E80092FD9C
:10524000FACF90916C03992389F0953089F0909171
:10525000EB0095FD0FC02091E4003091E50042176E
:10526000530709F38150F1F684E0089582E0089530
:1052700083E0089581E008950E94AA290E94B2293E
:10528000E0EEF0E0808181608083E8EDF0E08081F5
:105290008F77808319BCA7EDB0E08C918E7F8C93C3
:1052A00080818F7E808310926B0308950F931F93EC
:1052B000CF93DF930E94AA290E94B229C8EDD0E0C3
:1052C00088818F77888388818068888388818F7DB3
:1052D000888319BC10926C031092680310926A03C1
:1052E0001092690300EE10E0F80180818B7F8083CB
:1052F00088818160888342E060E080E00E94BA2873
:10530000E1EEF0E080818E7F8083E2EEF0E080814C
:1053100081608083808188608083F80180818E7FB6
:105320008083888180618883DF91CF911F910F9165
:105330000895E8EDF0E080818F7E8083E7EDF0E076
:1053400080818160808384E082BF81E080936B03F1
:105350000C945629E8EDF0E080818E7F80831092D6
:10536000E20008951092DA001092E10008951F9271
:105370000F920FB60F9211242F933F934F935F9389
:105380006F937F938F939F93AF93BF93EF93FF930D
:105390008091E10082FF0BC08091E20082FF07C094
:1053A0008091E1008B7F8093E1000E94182C809116
:1053B000DA0080FF19C08091D80080FF15C080916D
:1053C000DA008E7F8093DA008091D90080FF94C04C
:1053D00080E189BD82E189BD09B400FEFDCF81E095
:1053E00080936C030E940D268091E10080FF19C01C
:1053F0008091E20080FF15C08091E2008E7F809353
:10540000E2008091E20080618093E2008091D80008
:1054100080628093D80019BC85E080936C030E9461
:105420001F268091E10084FF29C08091E20084FF63
:1054300025C080E189BD82E189BD09B400FEFDCFB0
:105440008091D8008F7D8093D8008091E1008F7E7D
:105450008093E1008091E2008F7E8093E200809152
:10546000E20081608093E20080916803882309F460
:1054700049C084E080936C030E9420268091E10063
:1054800083FF29C08091E20083FF25C08091E10065
:10549000877F8093E10082E080936C031092680321
:1054A0008091E1008E7F8093E1008091E2008E7F09
:1054B0008093E2008091E20080618093E20042E00C
:1054C00060E080E00E94BA288091F00088608093BC
:1054D000F0000E941E26FF91EF91BF91AF919F9126
:1054E0008F917F916F915F914F913F912F910F908D
:1054F0000FBE0F901F90189519BC10926C030E945C
:105500001B2672CF8091E30087FD02C081E0B2CFFD
:1055100083E0B0CF1F920F920FB60F9211242F93FA
:105520003F934F935F936F937F938F939F93AF932B
:10553000BF93CF93EF93FF93C091E900CF70809119
:10554000EC001092E9008091F000877F8093F000DA
:1055500078940E94C62A1092E9008091F000886039
:105560008093F000C093E900FF91EF91CF91BF913C
:10557000AF919F918F917F916F915F914F913F91EB
:105580002F910F900FBE0F901F9018951F93CF93E0
:10559000DF93CDB7DEB7AA970FB6F894DEBF0FBE84
:1055A000CDBF8DE693E02091F100FC012193CF0166
:1055B000F3E085379F07B9F70E942C268091E80019
:1055C00083FF1EC180916D0390916E039A3008F0A5
:1055D00017C1E92FF0E0E75DF14D0C945D2C8038A8
:1055E00099F0823809F00CC1809171038F70873077
:1055F00008F006C18093E9008091EB0085FB8827C5
:1056000080F91092E90006C08091690390916A03C5
:10561000911182609091E800977F9093E8008093C9
:10562000F1001092F1008091E8008E77E5C08823A8
:1056300009F4D3C0823009F0E3C080916F03811177
:10564000D6C0809171038F702FEF280F263008F09D
:10565000D7C08093E9002091EB0020FFC8C09330B1
:1056600031F48091EB0080628093EB00C0C0909198
:10567000EB0090619093EB0021E030E001C0220F3D
:105680008A95EAF72093EA001092EA008091EB00F5
:105690008860EACF8111B4C010916F031F778091A9
:1056A000E3008078812B8093E3008091E800877F7E
:1056B0008093E8000E94EE288091E80080FFFCCFF4
:1056C0008091E30080688093E30082E0111183E021
:1056D00080936C0395C08058823008F091C080910F
:1056E0006F03909170038C3D23E09207A1F583E056
:1056F0008A838AE289834FB7F894DE01139620E00B
:105700003EE051E2E32FF0E050935700E49120FF98
:1057100003C0E295EF703F5FEF708E2F90E0EA30AC
:10572000C0F0C7968D939D932F5F243159F74FBFDB
:105730008091E800877F8093E8006AE270E0CE0104
:1057400001960E94FD278091E8008B778093E80006
:1057500057C0C096E7CF6091710370917203AE019C
:105760004F5F5F4F0E942027BC01892B09F448C07E
:105770009091E800977F9093E80089819A810E9438
:105780005B28E1CF8038E1F58091E800877F809346
:10579000E800809168038093F10045CF811130C00B
:1057A00090916F03923060F58091E800877F80933D
:1057B000E800909368030E94EE2880916803882394
:1057C00011F084E005C08091E30087FDFACF81E00D
:1057D00080936C030E94222613C080916F03813056
:1057E00079F481E0933009F080E080936A031092AD
:1057F000E9008091E800877F8093E8000E94EE280E
:105800008091E80083FF0AC08091E800877F809341
:10581000E8008091EB0080628093EB00AA960FB6BF
:10582000F894DEBF0FBECDBFDF91CF911F910895D9
:105830000895CF9380916C03882399F0C091E9007B
:10584000CF708091EC0080FD0EC080E0C82B1092DC
:10585000E9008091E80083FD0E94C62ACF70C093C2
:10586000E900CF91089580E8F1CFAA1BBB1B51E15D
:1058700007C0AA1FBB1FA617B70710F0A61BB70BC0
:10588000881F991F5A95A9F780959095BC01CD0165
:10589000089597FB072E16F4009407D077FD09D0E2
:1058A0000E94352C07FC05D03EF4909581959F4FC2
:1058B0000895709561957F4F0895EE0FFF1F059035
:1058C000F491E02D09940F931F93CF93DF938230CF
:1058D000910510F482E090E0E0917703F091780375
:1058E00030E020E0B0E0A0E0309799F421153105D8
:1058F00009F447C0281B390B24303105C0F58A81D3
:105900009B816115710571F1FB0193838283FE0117
:1059100011C0408151810281138148175907F8F065
:105920004817590799F4109761F012960C93129743
:1059300013961C933296CF01DF91CF911F910F9157
:1059400008950093770310937803F4CF2115310560
:1059500019F04217530718F49A01BD01EF01DF0156
:10596000F801C2CF9093780380937703D0CFFE01E4
:10597000E20FF31F819391932250310939832883D9
:10598000DACF2091750330917603232B41F42091D7
:105990000201309103013093760320937503209127
:1059A0000001309101012115310541F42DB73EB7B9
:1059B0004091040150910501241B350BE0917503C2
:1059C000F0917603E217F307A0F42E1B3F0B281784
:1059D000390778F0AC014E5F5F4F2417350748F068
:1059E0004E0F5F1F509376034093750381939193FD
:1059F000A2CFF0E0E0E09FCFCF93DF930097E9F0F4
:105A0000FC01329713821282C0917703D091780300
:105A1000DE0130E020E02097A1F420813181820F67
:105A2000931F20917503309176032817390709F0E9
:105A300067C0F0937603E0937503DF91CF910895EB
:105A4000DA01AE17BF0708F040C012964D915C9185
:105A500013979D014115510599F7D9011396FC93B0
:105A6000EE9312974D915D91A40FB51FEA17FB07B6
:105A700079F4808191810296840F951FD901119646
:105A80009C938E938281938113969C938E9312970D
:105A9000B0E0A0E08A819B810097B9F5FE01819179
:105AA0009191E80FF91F80917503909176038E17FD
:105AB0009F0719F6109761F51092780310927703FB
:105AC000D0937603C0937503B8CFB383A28340818C
:105AD0005181840F951FA817B90771F44E5F5F4F6E
