:100000000C9421030C943E030C943E030C943E0389
:100010000C943E030C943E030C943E030C943E035C
:100020000C943E030C943E030C94992B0C946C2C72
:100030000C9435220C943E030C943E030C943E0326
:100040000C943E030C943E030C943E030C943E032C
:100050000C943E030C949B220C943E030C943E03A0
:100060000C943E030C943E030C943E030C943E030C
:100070000C943E030C943E030C943E030C943E03FC
:100080000C943E030C943E030C943E030C943E03EC
:100090000C943E030C943E030C943E030C943E03DC
:1000A0000C943E030C943E030C943E032E004C0033
:1000B0002A00E100354100001E000E000B001B610C
:1000C00034004D001F00370004001400E104280034
:1000D000200012000800340050002C0021003600DF
:1000E0000C002F004F004A0022001D0018003300B2
:1000F00000006564500001530000006F0000E30041
:100100004F000153000000670000E20023001900C7
:10011000070005000000296124000A0017001300F1
:1001200052004B002500060015001A005100E500A2
:1001300026000F00110010002F002B0027002D00BB
:1001400016420D6130004E002D001C000968E500CC
:100150000158000001000100010001000100000041
:100160003A001E0220022202010001003B001F0291
:1001700021022302010001003C002F0226022F0071
:10018000010001003D0030022702300001000100A3
:100190003E0031023500350200000100010001007F
:1001A000000001000000010001000100000001004A
:1001B000000001003F005200510024020000010035
:1001C0004000240021001E00010001004100250024
:1001D00022001F00370001004200260023002000FB
:1001E00027000100430025022E0231002E000100ED
:1001F0004400450001000100010000000100010071
:1002000001000100010000000100010001000100E7
:100210000100010001000100F200010001000100E5
:100220000100F000F1000100F400010001000100F4
:10023000F3000100F50001000100010001000100D0
:1002400000000100010001000000010000000100A9
:100250000100010000000100000001000100010098
:100260000100010000000100010001000100010087
:10027000A9000100010001000100AC00AA00B600C5
:10028000010001000100AB00A80001000100010015
:10029000010001000100010001000100AE000100A9
:1002A0000100000000047F3F1F64321464321478A0
:1002B0003C1E1E140A052223252628292A2C2D2F10
:1002C0003032333536383A3B3D3E4042434547496C
:1002D0004A4C4E5051535557595A5C5E60626466A1
:1002E00068696B6D6F71737577797B7D7F818385AD
:1002F00087898A8C8E90929496989A9C9E9FA1A3AF
:10030000A5A7A8AAACAEAFB1B3B4B6B8B9BBBCBED2
:10031000BFC1C2C3C5C6C7C9CACBCCCDCED0D1D24E
:10032000D2D3D4D5D6D7D7D8D9D9DADADBDBDBDC50
:10033000DCDCDCDCDDDDDDDDDCDCDCDCDCDBDBDBFC
:10034000DADAD9D9D8D7D7D6D5D4D3D2D2D1D0CE5C
:10035000CDCCCBCAC9C7C6C5C3C2C1BFBEBCBBB961
:10036000B8B6B4B3B1AFAEACAAA8A7A5A3A19F9EDF
:100370009C9A98969492908E8C8A89878583817FA7
:100380007D7B79777573716F6D6B69686664626088
:100390005E5C5A5957555351504E4C4A4947454354
:1003A00042403E3D3B3A3836353332302F2D2C2AF1
:1003B000292826252322FFAA7F554000000000009F
:1003C0000000000000010101010101010101020220
:1003D00002020202020203030303030303040404F0
:1003E00004040505050505060606060607070707B2
:1003F000080808080909090A0A0A0B0B0B0C0C0C5F
:100400000D0D0D0E0E0E0F0F1010101111121213F4
:10041000131414151516161717181819191A1A1B6C
:100420001C1C1D1D1E1F1F202121222323242525C6
:1004300026272828292A2B2C2C2D2E2F30313132FB
:10044000333435363738393A3B3C3D3E3F40414204
:10045000434445464748494B4C4D4E4F50525354E8
:10046000555758595A5C5D5E606163646567686A98
:100470006B6C6E6F7172747677797A7C7D7F818216
:10048000848687898B8D8E9092949597999B9D9F5A
:10049000A1A2A4A6A8AAACAEB0B2B4B6B9BBBDBF67
:1004A000C1C3C5C8CACCCED0D3D5D7DADCDEE1E330
:1004B000E6E8EAEDEFF2F4F7F9FCFF0403300000A0
:1004C0000016034500720067006F0044006F00785B
:1004D00000200045005A0000001603450072006726
:1004E000006F0044006F007800200045005A0000B3
:1004F000000403090409023B00020100A0FA0904F8
:100500000000010301010009211101000122400046
:100510000705810308000A09040100010300000027
:1005200009211101000122C0000705820320000AF1
:100530001201100100000008EDFE07130100010286
:10054000030105010902A10185020901A1000509B4
:1005500019012905150025019505750181029501EF
:10056000750381010501093009311581257F950247
:100570007508810609381581257F95017508810662
:10058000050C0A38021581257F950175088106C082
:10059000C005010980A10185031601002603001A88
:1005A00081002A8300751095018100C0050C0901A6
:1005B000A1018504160100269C021A01002A9C0252
:1005C000751095018100C005010906A10185050589
:1005D0000719E029E7150025019508750181020535
:1005E0000819012905950575019102950175039179
:1005F000010507190029EF1500250195F075018106
:1006000002C005010906A101050719E029E7150047
:10061000250195087501810295017508810105087C
:10062000190129059505750191029501750391013F
:100630000507190029FF150026FF0095067508819A
:1006400000C011241FBECFEFDAE0DEBFCDBF12E045
:10065000A0E0B1E0E8EAF0E602C005900D92A0301B
:10066000B107D9F723E0A0E0B2E001C01D92A538A0
:10067000B207E1F70E94C5280C94C42F0C94000027
:1006800080B38C7080BB81B3836F81BB089584B1CC
:10069000807F84B985B1807F85B98AB1837F8AB92B
:1006A0008BB1837F8BB93E9846980895CF93C82F1E
:1006B000873070F58091060190910701892B89F5AB
:1006C00064E670E080E40E949004909307018093B8
:1006D0000601892BD1F464E670E082E10E94EC040B
:1006E0009093070180930601892B79F481E090E0D3
:1006F00001C0880FCA95EAF764E670E080950E9411
:10070000EC049093070180930601CF910C943F0570
:100710008A30B9F040F4883071F0893079F0209A4D
:100720002898CF9108958C3091F070F08D30B9F702
:100730003E9A4698F6CF219A2998F3CF229A2A9882
:10074000F0CF239A2B98EDCF529A5A98EACF539A2A
:100750005B98E7CFCF93873008F040C080910601C7
:1007600090910701C0E0892B71F464E670E080E4A9
:100770000E9490049093070180930601892B31F029
:10078000C0E00E943F058C2FCF91089564E670E091
:1007900083E10E94EC049093070180930601892B6A
:1007A00079F764E670E081E40E9490049093070179
:1007B00080930601892B21F784E690E00E941B05B7
:1007C00097FF05C09093070180930601D9CFC82FEA
:1007D000C0951092070110920601D3CFCFB18FB10F
:1007E000869586958C73C3708C2BC82FC095CBCF04
:1007F0000C944C060E94C40590E0909307018093EE
:1008000006010E9447030E944003E1E0F2E0AFE0EE
:10081000B2E011921D9282E0EF30F807D1F78EE03E
:100820000E94F50B0C942F070E94C40590E0909352
:100830000701809306010E9447030E944003E1E004
:10084000F2E0119282E0EF30F807D9F70895EF92C5
:10085000FF920F931F93CF93DF93809106019091A6
:100860000701892B91F0809100028F5F8093000235
:1008700081110BC00E94C40590E090930701809302
:100880000601892B11F40E946E050FE012E0C0E012
:10089000D0E087E0E82EEC0E8C2F0E9456038E2DC0
:1008A0000E9456038C2F0E94AA03F80191918F0198
:1008B000F12C891721F031978083FF24F3948E2D3A
:1008C0000E94AA03F80196818917D9F0868381E0F6
:1008D0008F29D82B0E944703CF5FC730D1F62D2F29
:1008E0004EE061E072E08FE092E00E94800C0E9496
:1008F000390781E0DF91CF911F910F91FF90EF9029
:10090000089580E0E5CFE82FF0E0EF5FFD4F8081B4
:10091000089508951092B9008CE08093B80008956E
:10092000EF92FF920F931F93CF93DF93182FEB015A
:100930001092BC0084EA8093BC000E9465227C0176
:100940008091BC0087FF27C08091B900887F8830E4
:1009500029F08091B900887F8031D9F51093BB00D0
:1009600084E88093BC000E9465228C018091BC00C9
:1009700087FF24C02091B900287F90E080E02831D3
:10098000B1F081E090E0203411F490E080E09195A6
:10099000819591090CC0CF3FDC0791F20E9465223E
:1009A0008E199F098C179D0758F28EEF9FEFDF91EC
:1009B000CF911F910F91FF90EF900895CF3FDC07EB
:1009C000A9F20E946522801B910B8C179D0770F283
:1009D000ECCF8FEF9FEFEBCF0F931F93CF93DF936E
:1009E000EB018093BB0084E88093BC000E946522E9
:1009F0008C018091BC0087FF11C02091B900287F35
:100A000081E090E0283211F490E080E091958195AA
:100A10009109DF91CF911F910F910895CF3FDC078E
:100A200041F30E946522801B910B8C179D0708F3F0
:100A30008EEF9FEFEECF0F931F93CF93DF93EC01D9
:100A400084E88093BC000E9465228C018091BC00E8
:100A500087FF08C08091BB0090E0DF91CF911F918C
:100A60000F910895CF3FDC0789F30E946522801B18
:100A7000910B8C179D0750F38EEF9FEFEECF84E91B
:100A80008093BC000895259A2D9A0895269A2E9A4F
:100A90000895279A2F9A089556985E980895259854
:100AA0002D98089526982E98089527982F980895A0
:100AB0000E944C050E944F050E9452050C9455055A
:100AC00090E0909389008093880090938B008093AE
:100AD0008A0090938D0080938C0008950E945805A1
:100AE0008FEF0E9460050E9443052FEF80E792E0A0
:100AF000215080409040E1F700C000000E94460570
:100B00002FEF80E792E0215080409040E1F700C055
:100B100000000E9449052FEF80E792E021508040BD
:100B20009040E1F700C000000E944F052FEF80E7E2
:100B300092E0215080409040E1F700C000000E9408
:100B400052052FEF80E792E0215080409040E1F77E
:100B500000C000000E9455050C94580589EA809356
:100B6000800089E08093810024982C983F988AB176
:100B70008F7C8AB96E98479A8BB180638BB9769ACD
:100B80000E946E050C944B0680E290E09093070162
:100B90008093060180911D0281110EC00E948A047B
:100BA00081E080931D022FEF83ED90E32150804080
:100BB0009040E1F700C0000064E670E080E40E942D
:100BC00090049093070180930601892B09F04EC091
:100BD00064E670E080E00E94EC049093070180934B
:100BE0000601892B09F042C064E670E080E00E94B3
:100BF000EC049093070180930601892BB9F564E614
:100C000070E08FE30E94EC0490930701809306014B
:100C1000892B61F50E943F0564E670E080E40E9444
:100C200090049093070180930601892BF9F464E600
:100C300070E08CE00E94EC04909307018093060121
:100C4000892BA1F464E670E080E00E94EC049093AC
:100C5000070180930601892B49F464E670E08FE375
:100C60000E94EC0490930701809306010E943F05C7
:100C7000809106010895611107C0FC0182818823DB
:100C800031F085EE0E94EE1590E080E0089585EE4B
:100C90000E94DB16F9CF0895CF936091C70270913F
:100CA000C8028091C9029091CA020E948D20C82F6B
:100CB0000E944C050E944F050E9452050E94550556
:100CC000C13021F0C23029F0CF910895CF910C941A
:100CD0004305CF910C9446050F931F93CF93DF9359
:100CE0008C01EB019A9581159F4138F510FF03C0E7
:100CF00080EEFB01099511FF03C081EEFE0109950D
:100D000012FF03C082EEFE01099513FF03C083EEBC
:100D1000FE0109950115104180F084EEFE01099550
:100D200085EEFE01099586EEFE01099587EEFE012E
:100D3000DF91CF911F910F910994DF91CF911F9176
:100D40000F910895877091E001C0990F8A95EAF795
:100D5000892F0E94F11F0C942A200C94A206877000
:100D600091E001C0990F8A95EAF7892F0E94F71F39
:100D70000C942A200C94AF06CF93DF93EC01805E95
:100D80009109089720F062EA76E0209711F46DEA65
:100D900076E0CE010E946C068C2FDF91CF910C94EF
:100DA000EE15CF93DF93EC010E94DB16CE01805E3F
:100DB0009109089720F06FEA76E0209711F46AEB2A
:100DC00076E0CE01DF91CF910C946C06CF93DF9348
:100DD000EC010E94BC06CE01DF91CF910C94D106AC
:100DE00081E0089581E008950C94F2061F93CF935B
:100DF000DF9300D000D00F92CDB7DEB749835A837E
:100E00006B832091550289819A8121111BC0662331
:100E1000A9F00E94461F182F682F89819A810E948D
:100E2000EF1E69817A81812F0F900F900F900F90A4
:100E30000F90DF91CF911F910C9475090E941D1F97
:100E4000182FEFCF0E94461F69817A81EDCFFC01F8
:100E5000408151816281738184810C94F6060E94E5
:100E6000DA20811102C00E9454210E94CD0C0C9402
:100E7000AE050C94F803282F2F7041F0822F90E0DC
:100E80002A3010F44D9608950697089587E290E071
:100E9000089508950C9449070C944A0708950E94F8
:100EA0002F1A0E944E072FEF84E39CE021508040D0
:100EB0009040E1F700C000000C94BF220F931F93F5
:100EC000CF93DF938C010E942707EC01B8010E94A9
:100ED000F406882309F4D3C0B801CE010E94440D62
:100EE000882309F4CCC0B801CE010E94FC138823EA
:100EF00009F4C5C0CA3C8CE5D80709F4FEC008F067
:100F000054C0C33CECE5DE0709F4D0C048F5C53158
:100F10008CE5D807A8F4C2309CE5D90708F052C187
:100F2000C115ECE5DE0709F4A5C0C130DC4509F4C4
:100F3000ACC0C801DF91CF911F910F910C94F006C6
:100F4000C6318CE5D80709F4AFC1C23CDC4589F74E
:100F5000F8018281882309F492C00E94ED118FC0AC
:100F6000C63CECE5DE0709F4B7C080F4C43C8CE570
:100F7000D80709F4A6C0C53CDC45D9F6F801828142
:100F8000882309F47CC00E94CA0F79C0F8018281CD
:100F9000C83CFCE5DF0709F4ABC008F4A4C0882313
:100FA00009F46DC00E9404106AC0C13DECE5DE0783
:100FB00009F4D7C070F5CD3C8CE5D80709F4ADC075
:100FC00088F4CB3CECE5DE0709F49FC0CC3CDC4563
:100FD00009F0AFCFF8018281882309F450C00E9444
:100FE0006D0E4DC0F8018281CF3CFCE5DF0709F4AE
:100FF000AAC008F49BC0882309F441C00E94540E83
:10100000893028F00E94540E8E3008F462C089E0C6
:101010008AC0C53DECE5DE0709F4C6C0B0F4F801AE
:101020008281C33DFCE5DF0709F4B9C008F4A9C01B
:10103000882329F10E94540E893128F00E94540E11
:10104000823208F446C089E16EC0CD3DECE5DE0792
:1010500009F4B1C0CE3DFCE5DF0709F1CC3DDC452C
:1010600009F067CFF8018281882349F080E00E946F
:10107000632905C0F801828181110E944F0780E039
:10108000DF91CF911F910F910895F80182818823FC
:10109000B1F38091F40281608093F402F0CFF80103
:1010A0008281882361F30E945421E9CFF801828173
:1010B000882329F30E94DB1F827259F00E94DF11FE
:1010C000DECFF80182818823D1F20E94DB1F827279
:1010D000A9F30E94D211D3CFF8018281882379F23B
:1010E0000E94D70FCCCF882351F20E94E60FC7CFC2
:1010F000882329F20E94F50FC2CFF801828188234C
:1011000009F4BDCF0E941310BACFF8018281882361
:1011100009F4B5CF0E945C0EB2CFF801828188231A
:1011200009F4ADCF81E00E94E211A9CF882309F430
:10113000A6CF0E94540E823020F00E94540E8530BB
:1011400040F282E0F0CF882309F499CF0E94540E38
:10115000863028F00E94540E883008F4BACF86E01A
:10116000E2CFF8018281882309F489CF0E94540ECE
:101170008F3028F00E94540E843108F4AACF8FE0FB
:10118000D2CF882309F47BCF0E94540E853128F0FA
:101190000E94540E873108F49CCF85E1C4CF882388
:1011A00009F46DCF88E1BFCFF8018281882309F46B
:1011B00066CF83E2B8CFF8018281882309F45FCF3C
:1011C00082E055CFF8018281882309F4B2CE0E94D3
:1011D000DA20811102C00E9454210E94ED2090E08B
:1011E0009093730380937203FE01E350FC4580915A
:1011F00072038160E231F10538F4EA53F04D0C944A
:101200003F2E8091720382608093720380917203FB
:101210000E94F1200E942F1A32CF809172038460C5
:10122000F3CF809172038860EFCF80917203806169
:10123000EBCF809172038062E7CF8091720380646C
:10124000E3CF809172038068DFCF809172038C605E
:10125000DBCF809172038E7FD7CF809172038D7F19
:10126000D3CF809172038B7FCFCF80917203877F22
:10127000CBCF809172038F7EC7CF809172038F7D19
:10128000C3CF809172038F7BBFCF809172038F7722
:10129000BBCF80917203837FB7CF90917203892F68
:1012A00097FB87F98058B0CF0E94DB1FF80192812D
:1012B000992381F08A7A91E009F490E090931E02DC
:1012C000811106C089E20E94B61F0E942A20D7CE53
:1012D00085E3F9CF80911E02811104C089E20E944A
:1012E000BD1FF3CF85E3FBCF0895972F70E026E075
:1012F000929F600D711D1124FB0194E5899FE00D03
:10130000F11D1124EE0FFF1FE455FF4F85919491BD
:101310000895FC01EE0FFF1FEC55FD4F8591949150
:101320000895CF93DF930E9475090E94570BEC013B
:10133000811520E5920708F042C0811530E493073B
:1013400008F018C1883E910528F5803E910508F007
:10135000A4C0883A910588F4853A910508F093C0B5
:101360008130910509F499C0009709F496C004975B
:1013700008F093C0D0E0C0E090C08F3B910508F426
:1013800090C0805C9109C03CD105A0F30E948909FE
:10139000EC0183C08115904250F4C11581E0D8075B
:1013A00008F07BC0C03FD10528F3D06576C0C115D9
:1013B00090E3D90708F0D4C0CE019F70E7CF811524
:1013C00025E5920758F5811534E5930708F001C12A
:1013D000811542E5940750F4C11581E5D80708F45A
:1013E000CCC0DC2FCC27C16FD06A57C0982F969500
:1013F00096959E0123703327C115D34508F0DAC0B6
:10140000C1E0D0E002C0CC0FDD1F2A95E2F720E258
:10141000929FC0011124C82BD92BCAC0C1158AE5DF
:10142000D807A0F4C11599E5D90708F0E2C0C115A5
:1014300026E5D20708F4D2C0C11538E5D30708F471
:1014400099CFDC2FCC27C06FD06A27C0C1154BE5E0
:10145000D40708F48FCFC1158CE5D80708F4D9C09C
:10146000CE0190568115904208F084CF8D2F8F7158
:101470000E94D20B90E0982F882788279F719C01AB
:101480002C2BE901B4C0853A910509F4C5C0863A10
:10149000910509F0C4C0C2E8D0E4CE01DF91CF913C
:1014A0000895883A910509F4BDC0893A910509F477
:1014B000BCC08A3A910509F4BBC08B3A910509F486
:1014C000BAC08C3A910509F4B9C08B3B910509F477
:1014D000B8C08C3B910509F4B7C08D3A910509F469
:1014E000B6C0803B910509F4B5C08E3A910509F468
:1014F000B4C08F3A910509F4B3C0813B910509F45A
:10150000B2C0823B910509F4B1C0833B910509F457
:10151000B0C0843B910509F4AFC0853B910509F447
:10152000AEC0863B910509F4ADC0873B910509F437
:10153000ACC0883B910509F4ABC0893B910509F427
:10154000AAC08D3B910509F4A9C08E3B910509F411
:10155000A8C08A3B910509F4A7C0C0E0D4E49DCFA0
:10156000CE019927D3FF03C0EC01D86C96CFEC01D4
:10157000D06C93CFDF70D06A90CFCE01E4E0969527
:101580008795EA95E1F783702C2F26952695237091
:1015900040E2249F90011124382B8C2F8370C1E0EE
:1015A000D0E002C0CC0FDD1F8A95E2F7C22BD32B0F
:1015B000DC6873CFC1E0D0E002C0CC0FDD1F2A95FC
:1015C000E2F730E2939FC0011124C82BD92BDA68CF
:1015D00064CFD82FCC27C46FD06A5FCF8C2F0E94E6
:1015E000D20BC82FD0E0DC2FCC27CC27DF71D06204
:1015F00054CF8C2F8F700E94D20B34E0D695C795B4
:101600003A95E1F79C2F9F70C82FCF70C06ED92FED
:10161000B2CFDD27D06641CFC1E8D0E43ECFC3E8EA
:10162000D0E43BCFC2EED4E438CFC9EED4E435CF1A
:10163000CAEED4E432CFC5EBD4E42FCFC6EBD4E46A
:101640002CCFC3EBD4E429CFC4EBD4E426CFC7EB33
:10165000D4E423CFCCECD4E420CFCDECD4E41DCF24
:10166000C3E8D5E41ACFCAE8D5E417CFC2E9D5E478
:1016700014CFC4E9D5E411CFC1E2D6E40ECFC3E262
:10168000D6E40BCFC4E2D6E408CFC5E2D6E405CF5A
:10169000C6E2D6E402CFC7E2D6E4FFCECFE6D4E47A
:1016A000FCCEC0E7D4E4F9CECAE2D6E4F6CE823866
:1016B000910549F1B0F48133910509F462C048F411
:1016C0008932910509F456C08A32910509F460C047
:1016D00008958533910509F446C08933910599F041
:1016E0000895833E910531F138F4803E910591F0E3
:1016F000823E9105B1F00895863E910521F1873E25
:10170000910551F10895209172032370D9F080EE74
:1017100090E008952091720320FF14C089E390E0C7
:1017200008952091720322FF0DC024FD09C083EEAD
:1017300090E008952091720322FD31C024FF02C081
:1017400090E080E008952091720323FFFBCF24FDF9
:10175000F7CF87EE90E008952091720323FFEECF3C
:1017600086EE90E008952091720325FFEBCF89E289
:1017700090E008952091720325FFE4CF85E390E087
:1017800008952091720326FFDDCF8AE290E008954C
:101790002091720326FFD6CF81E390E0089582EE78
:1017A00090E008959091720392FF06C0282F28714F
:1017B000283069F4877F846093FF06C0282F287142
:1017C000283161F4877E846194FD877E0895282FF7
:1017D0002471243089F78B7F8860EECF282F247105
:1017E000243191F78B7E8861EFCFCF93C82F90E0A3
:1017F0000E94452E8093200290932102282FFC0105
:101800009BEF8E2F821B8C1710F0CF910895919330
:10181000F8CFEF92FF920F931F93CF93DF93109225
:101820001F0250912002E52FF091210240E0A62FE7
:10183000B0E07BEF9AEFE92EF12C9E2F951B9817C5
:1018400048F040931F02DF91CF911F910F91FF90BD
:10185000EF90089591919B3F81F3292F30E0691714
:1018600068F08D01021B130B9801253031056CF0D7
:101870009F0121503109E9017883DFCFE701C21BC5
:10188000D30B9E012A0F3B1FF0CF41E0D6CFAF9282
:10189000BF92CF92DF92EF92FF920F931F93CF935D
:1018A000DF937C01009120021091210290911F0290
:1018B000F0E0E0E0E41768F090931F02DF91CF9131
:1018C0001F910F91FF90EF90DF90CF90BF90AF905E
:1018D0000895E801CE0FDF1F88818B3F79F45B010B
:1018E000AE0EBF1E6701CE0EDF1ED6013C91D501A4
:1018F0008C91831719F028833C9391E03196DACFCD
:10190000CF92DF92EF92FF921F93CF93DF937C01F0
:101910006B01D42FC22F0E9465226AEF70E00E94F3
:10192000172E182F80911F028823F9F0612F8D2F19
:101930000E94090CCC2369F0212F4D2FB601C7015D
:10194000DF91CF911F91FF90EF90DF90CF900C949B
:10195000470C80911F02882379F3DF91CF911F916B
:10196000FF90EF90DF90CF900895C111E5CFF5CFB4
:10197000CF93DF93EC0197FF0CC0FB01828188239A
:1019800041F00E94E30CCE019F770E94270D0E9438
:101990000F0D81E0DF91CF9108958CE090E00E94DF
:1019A0007C2F90E0B0E0A0E0809326039093270383
:1019B000A0932803B09329030895609126038CE037
:1019C00090E00C94902F0E94DB1F80932A030E94CA
:1019D000EE1F80912603813089F0882359F08230F0
:1019E00091F08430B9F08FE39CE90197F1F700C0E2
:1019F0000000089582EE0E94EE15F5CF88E193E095
:101A00000E94E606F0CF82EE0E94EE1587E50E9466
:101A10003117E9CF86EE0E94311788E1F8CF809127
:101A20002603813071F0882341F0823031F0843018
:101A300061F080912A030C94EB1F82EE0E94DB166A
:101A4000F8CF8CE20E943117F4CF88E2FBCF0F93DE
:101A50001F93CF93DF938C01CCE0D0E0C8010C2E14
:101A600002C0969587950A94E2F78F700E943B0713
:101A70000E9431172497CC3F8FEFD80779F7DF9179
:101A8000CF911F910F9108950F931F93CF93DF93E1
:101A9000EC018B01FB018281882371F0C33EFCE5E0
:101AA000DF0719F188F4C13EECE5DE07C9F081E0FB
:101AB000C23EFCE5DF0789F0B801CE01DF91CF918E
:101AC0001F910F910C94B80CC43E8CE5D80779F0A7
:101AD00084E0C53EECE5DE0779F78093260302C07B
:101AE000109226030E94DD0CE7CF82E0F6CF83E060
:101AF000F4CFCF92DF92EF92FF920F931F93CF9389
:101B0000DF939B01E82FF82F682F782F332309F4F8
:101B10006FC0E32EF12C082F10E046E0249FC00197
:101B20001124CFEFD0E0BE010E94172EAB01822F0F
:101B300090E0880F991F25E5249FB001259F700D27
:101B40001124861B970B982F990F980FBE016E19C1
:101B50007F09609FD001619FB00D709FB00D11246F
:101B60008B2F939F90011124232F3327BE01621BDB
:101B7000730B609F9001619F300D709F300D112499
:101B80006E01C91AD108CE9CB001CF9C700DDE9CAD
:101B9000700D1124672F7727C61BD70BC09F7001CC
:101BA000C19FF00CD09FF00C11247F2D42305105C5
:101BB00041F148F44115510569F04130510529F1D1
:101BC0007B2F832F07C04430510511F128F1463097
:101BD0005105B1F7F0E0E554FC4F6491E72FF0E0D8
:101BE000E554FC4F7491E82FF0E0E554FC4F8491EC
:101BF000DF91CF911F910F91FF90EF90DF90CF90E9
:101C00000895EB2F8F2D7F2FE5CF7E2FE32FE2CF8F
:101C1000EF2D7B2F8F2FDECF732FEB2FFBCF089570
:101C2000CF93DF93762FE901682F842F0E94790DDF
:101C3000362F272F398328838A83DF91CF91089508
:101C400080912B03982F9E7F29F48170826080936E
:101C50002B0308958A34E8F381708864F8CF88E014
:101C600090E00C94842FCF92DF92EF92FF926B0161
:101C70007C010E94200EB701A60188E090E0FF9051
:101C8000EF90DF90CF900C94A22FEBE2F3E083E093
:101C9000808311828FEF82838383148260817181BC
:101CA000828193810C94330E80912B0380FF02C0BC
:101CB0008695089580E0089580912F03833018F46D
:101CC0008F5F80932F0360912B0370912C03809181
:101CD0002D0390912E030C94330E80912F038823B3
:101CE00019F0815080932F0360912B0370912C0386
:101CF00080912D0390912E030C94330E8091250238
:101D000024E0829FC0011124805D9C4F60910A01F4
:101D100070E020912B03E0E3F3E020FD0C944F13DF
:101D2000118210821282349623E0EC36F207C1F75A
:101D3000F5CF90912B0390FF0CC0E0E3F3E081839B
:101D400060834283349693E0EC36F907C1F70C9434
:101D50007E0E0895CF93DF9300D000D0CDB7DEB7CD
:101D600090912B0390FF0AC09E012F5F3F4F0E946E
:101D7000100E4B8169818A810E94990E0F900F90FD
:101D80000F900F90DF91CF910895CF93DF93EC01E7
:101D9000EC81F0E0EA54FD4F4491EBE2F3E0628124
:101DA00081810E94AA0E8C818F5F8C83DF91CF91FD
:101DB0000895CF93DF93EC01EBE2F3E0438162817E
:101DC0008C810E94AA0E8C818F5F8C83DF91CF91D2
:101DD00008950F931F93CF93DF9300D000D0CDB71A
:101DE000DEB78C018091220281110AC09E012F5F13
:101DF0003F4F4FEF6FEF0E94100E8A8180932202B7
:101E0000F8018481813071F0882339F040E082301C
:101E100011F44091220280E003C08091220240E050
:101E200060E004C06091220240E080E00E94990ED0
:101E3000F801848190E0019663E070E00E942B2E0F
:101E400084830F900F900F900F90DF91CF911F918F
:101E50000F9108955F926F927F928F929F92AF92AF
:101E6000BF92CF92DF92EF92FF920F931F93CF9387
:101E7000DF9300D000D0CDB7DEB7182F762E042F19
:101E8000622E90912B0390FF29C0E92FE695AE2F8B
:101E9000B0E0A053BE4F8C9180932D029E7F923074
:101EA00089F59E012F5F3F4F812F0E94100E4B81BD
:101EB00069818A810E94990E10932C0370922D03E0
:101EC00000932E03662051F060912B0370912C0338
:101ED00080912D0390912E030E94330E0F900F904E
:101EE0000F900F90DF91CF911F910F91FF90EF9086
:101EF000DF90CF90BF90AF909F908F907F906F902A
:101F00005F900895823019F400912E03D5CF86306A
:101F100019F410912C03D0CF8930D9F3893161F6AF
:101F2000E9518E2F8170582EE695F0E0EA54FC4F6F
:101F3000A590B490BB2480E3E82E83E0F82ED12C4A
:101F4000C12C9FE0892E912CC601B4010E94172E4E
:101F5000812F511013C0860F9701402F672D0E94CB
:101F6000100ECA0CDB1C84E0E80EF11C8CE6E816AF
:101F700083E0F80649F70E947E0E9ECF861BECCFC9
:101F8000EBE2F3E09181282F438162818CE0890F9D
:101F90000C942A0F81E00C94C00FEBE2F3E09181E6
:101FA000282F4381628184EF890F0C942A0F81E0EE
:101FB0000C94CD0FEBE2F3E062812FEF620F08F497
:101FC0006FEF282F438181810C942A0F81E00C94BC
:101FD000DA0FEBE2F3E062812FEF621B08F460E0BE
:101FE000282F438181810C942A0F81E00C94E90F02
:101FF000EBE2F3E043812CE0420F08F44FEF282F8F
:10200000628181810C942A0F81E00C94F80FEBE23D
:10201000F3E043812CE0421B08F440E0282F62816A
:1020200081810C942A0F81E00C94071020E00C941D
:102030002A0FEF92FF921F93CF93DF93EC0180E37F
:10204000E82E83E0F82E10E08C81970140912E035A
:1020500060912D03810F0E94100E1F5E84E0E80E38
:10206000F11C1F3F89F70E947E0E9A818C8190FFA0
:1020700008C08F5F8C83DF91CF911F91FF90EF900D
:1020800008958150F7CFCF92DF92EF92FF920F9396
:102090001F93CF93DF93FC018281DD24DA9480FDCE
:1020A00002C0DD24D39400E313E0D0E0C0E0F801E7
:1020B00011821082128294E0E92EF12CC12C8091C1
:1020C00024028C0D87FD815F082E000C990B8C1764
:1020D0009D0791F480912E038E9DA0018F9D500D40
:1020E00011245595479555954795980160912D0375
:1020F00080912C030E94100ECD0CF1E0EF1AF10834
:10210000F1F621960C5F1F4FCF30D10581F60E946A
:102110007E0E8091240291E0D91210C081110CC072
:102120008EE080932402DF91CF911F910F91FF9059
:10213000EF90DF90CF9008958150F3CF90E001961B
:10214000BE010E942B2EEDCF0F931F93CF93DF93F1
:10215000C0E3D3E0FE01118210821282349683E044
:10216000EC36F807C1F710E000E080912302082E5A
:10217000000C990B081719078CF180910901082EA2
:10218000000C990B801791074CF19E0140912E0392
:1021900060912D0380912C030E94100E0F5F1F4F42
:1021A00024960F30110509F70E947E0E80910801D8
:1021B00090912302980F9093230220910901280FF8
:1021C00020930901121614F49E301CF0819580931F
:1021D0000801DF91CF911F910F9108951982188204
:1021E0001A82DCCFEF92FF920F931F93CF93DF936E
:1021F000EC018C819D810196817099279D838C8350
:1022000080E3E82E83E0F82E10E005E5812F869527
:102210002C813D81820F932F911D817097014091F8
:102220002E0360912D03809F802D11240E94100E9B
:102230001F5F84E0E80EF11C1F3041F7DF91CF9162
:102240001F910F91FF90EF900C947E0EEF92FF92F2
:102250000F931F93CF93DF938C01C0E3D3E0F12C56
:10226000E12CF801948160912D0380912C03F7E01B
:10227000EF16F104FCF49923F9F09E0140912E032E
:102280000E94100E2FEFE21AF20A24968FE0E81651
:10229000F10439F70E947E0EF801848190E00196E6
:1022A000817099278483DF91CF911F910F91FF90C7
:1022B000EF900895992309F39E0140E0E1CFEBE20E
:1022C000F3E080818E7F8083608171818281938140
:1022D0000E94330E10922E022FEF80E792E02150E1
:1022E00080409040E1F700C000000C947E0E6091A9
:1022F0002B03669570E04BE050E08BE091E00E948C
:102300006F2F892B19F481E080932E020E946522A1
:102310009093270280932602089590912B0390FFBB
:1023200035C09170811128C0926090932B03662371
:1023300051F060912B0370912C0380912D039091AB
:102340002E030E94330E60912B03669570E04BE0E4
:1023500050E08BE091E00E946F2F892BA1F010924A
:102360002E0281E08093290240912E0360912D037B
:1023700080912C030C941610853210F09864D5CF00
:10238000880F982BD2CF0E947711EBCF0895682F3A
:1023900090912B03969581E0890F853208F081E0BA
:1023A0000C948D1181E00C94C711682F90912B0330
:1023B00096958FEF890F09F484E20C948D1181E0DA
:1023C0000C94D51161E00C948D11EBE2F3E0808167
:1023D0008160808386950C94E21180912B0380FDAF
:1023E0000C945F110C94E51160E00C948D118091B8
:1023F0002C02811133C08091F40281608093F40239
:102400000E94DA20811104C00E9454210E94450ECE
:102410000E942F0E60932B0370932C0380932D0347
:1024200090932E036E7F61F40E94450E0E942F0E42
:1024300060932B0370932C0380932D0390932E03B2
:102440000E94200E10922E0280912B0380FF03C069
:1024500086950E94F41181E080932C0208950F93D9
:102460001F93CF93DF9380912E02882309F48DC0B0
:1024700080912D02E0912B03E695E81BE093280262
:102480008230C9F5F0E0EE54FD4FE491CE2FD0E05C
:1024900005EC1EE080912902882389F01092290220
:1024A0000E9465229E0120953095820F931F909384
:1024B00027028093260210922B0210922A0280910A
:1024C0002602909127020E9471228C179D0708F422
:1024D0005CC0E0912602F0912702CE0FDF1FD0935F
:1024E0002702C093260286E292E0F801DF91CF91A5
:1024F0001F910F910994863049F4F0E0E155FD4FAA
:10250000E491CE2FD0E009ED1EE0C4CF893051F424
:10251000E695F0E0E455FD4FE491CE2FD0E009E1DF
:1025200010E1B8CF8F3051F4E695F0E0E755FD4F5C
:10253000E491CE2FD0E003E410E1ACCF853149F433
:10254000F0E0EA55FD4FE491CE2FD0E004EA10E12F
:10255000A1CFC8EED3E002EF10E1883109F49ACFA1
:10256000833239F4E4EAF2E0C591D49109EE1EE039
:1025700091CFC4EFD1E006E211E1843209F48ACFB1
:10258000C0EDD7E00FE01EE085CFDF91CF911F9126
:102590000F9108958823B9F05198599A5098589AF4
:1025A00095E09A95F1F70000509A589895E09A9521
:1025B000F1F70000882311F0519A599885E08A9527
:1025C000F1F700000895519A5998E8CF8BB18C7FAC
:1025D0008BB95098589A5198599A85E08A95F1F795
:1025E000000008958AB18C7F8AB985E08A95F1F759
:1025F0000000519A599885E08A95F1F70000509AA9
:10260000589885E08A95F1F7000008955098589AF7
:1026100085E08A95F1F700005198599A85E08A95EE
:10262000F1F700000895CF93DF93D82FC8E08D2FE6
:1026300080780E94CA12DD0FC150C9F780E00E9465
:10264000CA1285E08A95F1F7000085E08A95F1F7D6
:10265000000080E0DF91CF9108953BB1242F2095B9
:1026600023233BB1432B3FB7F894680F791F86179C
:10267000970711F43FBF0895FC015191CF01E8E0A5
:102680004BB9000000C057FF2BB9550F000000C028
:1026900000C000C02BB900C0EA9591F7E8CFAF9217
:1026A000BF92CF92DF92EF92FF920F931F93CF933F
:1026B000DF937C018B01CFB6D090BC00F894809161
:1026C000BC008B7F8093BC000E94E6120E94F21235
:1026D00084E80E941313000F111F000F111F5701F0
:1026E000A00EB11EE701CA15DB05A9F40E9406136E
:1026F000CFBED092BC00579A40E8B801C701DF9125
:10270000CF911F910F91FF90EF90DF90CF90BF90EE
:10271000AF900C942D1389910E941313E4CF0F9363
:102720001F93CF93DF93C62FD42F022FFC018281FA
:102730008823C9F0609331020E9465229093300291
:1027400080932F0280E28C0F883008F050C0C77051
:1027500081E001C0880FCA95EAF7DF91CF911F9100
:102760000F910C94391710913102161335C08091D6
:102770002F02909130020E947122883C910560F5F1
:10278000C0E2CD0F1D17B9F080E2810F883040F410
:10279000177081E001C0880F1A95EAF70E94401770
:1027A000C83048F481E09D2F977001C0880F9A953A
:1027B000EAF70E943917802F0E943117C830B8F409
:1027C000D77081E001C0880FDA95EAF7DF91CF91E9
:1027D0001F910F910C94401780E28C0F883038F4D1
:1027E000C77081E001C0880FCA95EAF7EFCFDF918B
:1027F000CF911F910F9108959C01CB01203F4CE593
:10280000340731F190F4283DFCE53F07E9F0293D1C
:102810004CE5340769F1273D3C4579F426E241EE69
:1028200061EE0E948F1380E00895223FFCE53F0790
:10283000B9F090F0233F3C45B9F0FC018281882338
:10284000D1F010923102089527E245EE65EEE9CF0E
:1028500026E241EE60EEE5CF27E245EE64EEE1CF01
:1028600026E241EE62EEDDCF27E245EE66EED9CFFD
:1028700028E241E0EBCF81E0089590933702809306
:1028800036020895E0913602F0913702309721F038
:102890000190F081E02D099480E00895E0913602E6
:1028A000F0913702309799F020912701222359F0B7
:1028B0002091720327FF07C0DC012C9111962C9305
:1028C000119725E02C930280F381E02D099408955F
:1028D000E0913602F0913702309739F022E0DC01C6
:1028E0002C930480F581E02D099408952091340201
:1028F000309135022817390771F090933502809393
:102900003402E0913602F0913702309721F00680D0
:10291000F781E02D0994089520913202309133021D
:102920002817390771F09093330280933202E091B7
:102930003602F0913702309721F00084F185E02DC6
:102940000994089585B7806885BF85B7806885BF7D
:102950000895089508950C94A91408950C94AD1445
:102960000E94A2140E94AA140C94AB1481E0089552
:102970000E945C220E94FA030E94F1220E94F71139
:102980000C94AE14BF92CF92DF92EF92FF920F930E
:102990001F93CF93DF93CDB7DEB72A970FB6F89486
:1029A000DEBF0FBECDBF0E9427040E94B61488234D
:1029B00009F471C089E3C82E82E0D82E10E000E04F
:1029C000B02E802F0E948304E82EF601F1906F0153
:1029D000F81609F45AC08091F40281FD0E9489041E
:1029E00090E080E0FE242F2D30E0482FB901082E22
:1029F00002C0759567950A94E2F760FF41C08E8327
:102A0000BF8281E090E06C0102C0CC0CDD1C4A95D5
:102A1000E2F72E2D30E02C213D21232B09F480E01C
:102A200088870E9465228160782F9A8789874E81E6
:102A30005F8168858A850E94A415F801E75CFD4FD7
:102A400080818C2580830E947F240E944214909173
:102A50003802891789F10E944214809338022A961D
:102A60000FB6F894DEBF0FBECDBFDF91CF911F919F
:102A70000F91FF90EF90DF90CF90BF900C944C0798
:102A800001968630910509F0B0CF0F5F1F4F0E30D1
:102A9000110509F095CF8FEF89838A831B820E94ED
:102AA00065228160782F9D838C8349815A816B8157
:102AB0008D810E94A415C7CF2A960FB6F894DEBF69
:102AC0000FBECDBFDF91CF911F910F91FF90EF907F
:102AD000DF90CF90BF900895CF93DF93DC018C916E
:102AE000682F70E021E030E001C0220F8A95EAF7FC
:102AF00011964C91119750E0EA01C95BDD4F988126
:102B000012968C9112978823C9F0809157028823DE
:102B1000C1F086E0849FF001859FF00D1124E60F3F
:102B2000F71FEE0FFF1FE85DFE4F408151814D936F
:102B30005C93292B2883DF91CF910895892F8223DD
:102B4000E6CF20952923F6CFCF93DF93CDB7DEB71D
:102B50002B970FB6F894DEBF0FBECDBF4F835887BB
:102B600069877A878B878A859B85892B21F0CA01A3
:102B700089238F3FE1F41E821D8285E0FE01379696
:102B8000DE01119601900D928A95E1F749815A81F3
:102B90006B817C818D819E810E94CF1C2B960FB60C
:102BA000F894DEBF0FBECDBFDF91CF910895CE0167
:102BB00007960E946C15DFCFFC01808191810E94F5
:102BC000881F92959F70963041F48091570291E052
:102BD000892780935702909356020895CF93C82F68
:102BE000882309F4E6C08238C1F40E94421481FDB2
:102BF000E0C089E30E94B61F0E942A202FEF81EED9
:102C000094E0215080409040E1F700C0000089E34B
:102C10000E94BD1FCF910C942A208338A1F40E94FA
:102C2000421480FDC6C083E50E94B61F0E942A2080
:102C30002FEF81EE94E0215080409040E1F700C0FA
:102C4000000083E5E5CF8438A1F40E94421482FDA0
:102C5000B0C087E40E94B61F0E942A202FEF81EEA9
:102C600094E0215080409040E1F700C0000087E4EC
:102C7000CFCF8CEF8C0F813A48F48C2F0E947A26AC
:102C8000811197C08C2F0E94B61FC4CF80E28C0F99
:102C9000883048F4C77081E001C0880FCA95EAF710
:102CA0000E94DE1FB7CF8BE58C0F833068F481E87C
:102CB00090E0C53A31F083E890E0C63A11F482E83A
:102CC00090E0CF910C94761488E58C0F873108F052
:102CD00068C082EE90E0C83A09F460C089EE90E0E6
:102CE000C93A09F45BC08AEE90E0CA3A09F456C0CA
:102CF00085EB90E0CB3A09F451C086EB90E0CC3AFA
:102D000009F44CC083EB90E0CB3B09F447C084EB63
:102D100090E0CC3B09F442C087EB90E0CD3AF1F172
:102D20008CEC90E0C03BD1F18DEC90E0CE3AB1F16B
:102D300083E891E0CF3A91F18AE891E0C13B71F1EB
:102D400082E991E0C23B51F184E991E0C33B31F16A
:102D500081E292E0C43B11F183E292E0C53BF1F0E5
:102D600084E292E0C63BD1F085E292E0C73BB1F04D
:102D700086E292E0C83B91F087E292E0C93B71F0B5
:102D80008FE690E0CD3B51F080E790E0CE3B31F014
:102D900090E080E0CA3B11F48AE292E0CF910C947B
:102DA0008C14C03F30F08C2F0E948D23CF910C9457
:102DB0007424CF910895882309F452C0823871F4A5
:102DC0000E94421481FF4CC089E30E94B61F0E94FA
:102DD0002A2089E30E94BD1F0C942A20833859F4CD
:102DE0000E94421480FF3CC083E50E94B61F0E94EF
:102DF0002A2083E5EFCF843859F40E94421482FFE1
:102E00002FC087E40E94B61F0E942A2087E4E2CFE9
:102E10009CEF980F913AF0F290E2980F983050F4AE
:102E2000877091E001C0990F8A95EAF7892F0E9477
:102E3000E41FD2CF9BE5980F933020F490E080E020
:102E40000C94761498E5980F973120F490E080E088
:102E50000C948C14803F20F00E94F5230C94742471
:102E60000895CF93C82F0E94EE158C2FCF910C940C
:102E7000DB16882321F00E94DE1F0C942A2008957F
:102E8000882321F00E94E41F0C942A2008958F9239
:102E90009F92AF92BF92CF92DF92EF92FF920F93E9
:102EA0001F93CF93DF937C01D62FC72FFC010581A1
:102EB00002950F70128111110E94FE1F0E94D41FF3
:102EC000C82E882371F01123B1F080E28D0F883075
:102ED00090F082E00E9475200E94D41F91E0C82EDD
:102EE000C926DC2ED2949FE0D922ED2DF0E0E852E5
:102EF000F04D0C943F2EC12CF4CF0C2F0F70C07FDF
:102F000011F00295007F1123A9F0002359F080E20F
:102F10008D0F883010F0D11109C0802F0E94DE1F64
:102F20000E942A208D2F0E94EE1514C0802F0E942F
:102F3000F11FF6CF8D2F0E94DB16002359F080E29F
:102F40008D0F883010F0D11133C0802F0E94E41F04
:102F50000E942A20F8E0DF1639F0DF1648F086EFED
:102F60008D0D8F70823020F40E9442140E944C0715
:102F7000CC2009F427C20E94D01F80FD23C2F70194
:102F800012820E94CA1F0E94531EC7010E94EF199D
:102F90000E94CA1FDF91CF911F910F91FF90EF9078
:102FA000DF90CF90BF90AF909F908F900C94741E45
:102FB000802F0E94F71FCCCFFC2FFF70BF2EC07F49
:102FC000C03219F0B29480EFB822DD2339F0D1304D
:102FD00019F1112359F1002321F1A4CF112381F01C
:102FE000011106C00E9411208B290E943917B2CF0F
:102FF0000130C1F70E9411208B290E941720AACF0F
:10300000011106C00E9420208B2D0E944017A2CFE4
:10301000013009F49FCFF6CF112329F0023008F0D8
:1030200099CF8B2DE2CF011195CFEECF002361F325
:103030008D2F0E94DB168ECF8C2F86958695837000
:1030400069F0813009F086CF8D2F9C2F937011117C
:1030500002C090E080E00E948C147CCF8D2F9C2FCA
:103060009370111102C090E080E00E94761472CF3C
:10307000112309F1D53F99F0D63FB9F0D43F49F477
:1030800080916C0390916D03816090936D038093A8
:103090006C038D2F0E948D230E9474245BCF80913E
:1030A0006C0390916D038260F0CF80916C039091DE
:1030B0006D038460EACFD53F89F0D63FA9F0D43FB5
:1030C00049F480916C0390916D038E7F90936D0312
:1030D00080936C038D2F0E94F523DECF80916C03CB
:1030E00090916D038D7FF2CF80916C0390916D0371
:1030F0008B7FECCF8C2F837009F047C011112ACF42
:103100002D2F229526952770220F220F6D2F6F707D
:10311000862E912CB12CA12C022E04C0880C991C57
:10312000AA1CBB1C0A94D2F760E070E0CB01D4FF6C
:103130000FC06FE070E080E090E004C0660F771F82
:10314000881F991F2A95D2F7609570958095909564
:10315000C695C695C370C23051F080F468297929AC
:103160008A299B29C13071F00E94051EF3CE68297F
:1031700079298A299B290E94171EECCE0E94051EE0
:10318000C501B4010E94F31DE5CE8695112311F00F
:103190008C2F8170882309F4DDCE2D2F2295269562
:1031A0002770220F220F6D2F6F70862E912CB12C5D
:1031B000A12C022E04C0880C991CAA1CBB1C0A94CA
:1031C000D2F760E070E0CB01D4FF0FC06FE070E099
:1031D00080E090E004C0660F771F881F991F2A9532
:1031E000D2F76095709580959095C695C695C370F9
:1031F000C23051F080F4682979298A299B29C1308D
:1032000071F00E94CA1EA6CE682979298A299B29B5
:103210000E94DC1E9FCE0E94CA1EC501B4010E94FE
:10322000B81E98CEE0E2ED0FE53108F04CC0F0E0BA
:10323000E851F04D0C943F2EDF708C2F8F711123CD
:1032400021F00E94531E8D2FD0CE0E94741E8D2F10
:10325000DCCE112339F001117DCE8C2F8F710E94AD
:10326000971E78CE023008F075CEF7CF8C2F8F7175
:10327000112339F00E94531E6DCE8C2F8F711123B4
:10328000C9F30E94741E66CE112329F08C2F8F7112
:103290000E943E1E5FCE0E94391E5CCE112349F073
:1032A000CF718C2F0E94531E63E08C2F0E946020F0
:1032B00051CE81E00E947520023008F44BCE82E0AE
:1032C0000E94752047CE112329F001112BCE8C2F9F
:1032D0008F71D0CF002369F0D93309F0A9CE2FEF39
:1032E00087EE93E0215080409040E1F700C000005D
:1032F0009FCE8C2F8F71C5CF4C2F4F706D2FC70174
:103300000E943B060E94691D25CED23F71F1C8F490
:10331000D03F01F1D13FB9F180915602002309F469
:1033200046C0882341F08091570291E0892780931D
:103330005702109256028D2F112389F10E94EE152B
:1033400016C0D43FD9F078F0D53F31F711110FC036
:1033500081E006C0112359F08091570291E089273E
:103360008093570204C081E01827109357024C2F16
:103370004F706D2FC7010E947409ECCD1111F7CF6A
:1033800010925702F4CF112339F08091560288230E
:1033900019F310925602EBCF0023F1F2E8CF0E940E
:1033A000DB1686E0F70111928A95E9F7E0CF8823D2
:1033B000F1F21111DCCF8091570291E089278093BF
:1033C0005702E7CFDF91CF911F910F91FF90EF90C0
:1033D000DF90CF90BF90AF909F908F9008950F9304
:1033E0001F93CF93DF93EC018B819C81892B29F074
:1033F0008881998189238F3F29F4DF91CF911F9193
:103400000F910895CE010E945E078823B1F3688171
:1034100079818A810E94921F8C010E94EE1E0E9477
:10342000F01DB801CE01DF91CF911F910F910C9447
:1034300047170E94FE1F0E940E200E942A200E9411
:1034400016250E94742490E080E00E94761490E09B
:1034500080E00C948C140E94C41F0C94191A0E94D2
:10346000EE1F0C942B1AE92FE295EF70E250EE302C
:1034700070F4F0E0E350F04D0C943F2E803F19F0D3
:1034800020F4803E20F481E00895843FE1F380E061
:103490000895803EC0F3813FD1F7F5CF93FB882795
:1034A00080F908950E94881F0C94331ACF93DF93FC
:1034B00000D000D00F92CDB7DEB70F900F900F90D5
:1034C0000F900F90DF91CF910895CF93DF9300D0AD
:1034D00000D000D0CDB7DEB726960FB6F894DEBF89
:1034E0000FBECDBFDF91CF9108951F93CF93DF9390
:1034F000C091580216E0809159028C1304C0DF91EC
:10350000CF911F910895D0E01C9FF0011D9FF00DF9
:103510001124E65AFD4F408151816281738184817B
:1035200095810E94651A2196C770E5CF40918A0265
:1035300050918B0260918C0270918D0280918E026D
:1035400090918F020C94651A1F93CF93DF93809113
:103550008F02807FC1F480918C028823A1F080913A
:103560005802C091590260918A0270918B02409179
:103570008D0250918E02D62FD723DA01A095B095F7
:1035800016E0C81304C0DF91CF911F91089590E019
:103590004115510511F0DF3F31F401968770F1CFED
:1035A0002A0F3B1F17C0189FF001199FF00D11241F
:1035B000E65AFD4F21812713F0CF20812613EDCF4E
:1035C00022812111EACF238134812417350740F36A
:1035D000241B350B283C310500F720918F022F70FA
:1035E000206120938F0226E0289FF001299FF00D93
:1035F0001124E15AFD4F80818F70806180838AE8B9
:1036000092E00E94EF19DF91CF911F910C94751AEF
:10361000BF92CF92DF92EF92FF920F931F93CF93BF
:10362000DF93CDB7DEB761970FB6F894DEBF0FBE5C
:10363000CDBF8C0185E0F801DE011D9601900D9251
:103640008A95E1F7D8014C9111965C9111971296E9
:10365000EC90129780918D0290918E02009709F460
:103660007FC120918A0230918B02622F63236F3FCA
:1036700009F476C11396CD90DC90B0908C02BB20FB
:1036800009F411C1C816D906D0F1F601E81BF90BEF
:10369000CF01FF24F394883C910508F0F12C809130
:1036A0008F02982F907FFF2009F4B8C091117FC03E
:1036B000FE2C351329C0241327C0E11025C08F70BC
:1036C000806180938F020E94961A8AE892E00E949D
:1036D000EF1980918F02D80115968C938F2D6196EA
:1036E0000FB6F894DEBF0FBECDBFDF91CF911F9113
:1036F0000F91FF90EF90DF90CF90BF90089580954D
:1037000090958C0D9D1DC5CFCD2829F0852F842344
:103710008F3F09F041C180E0B82FB170DB2E80FFF0
:103720003CC0809158022091590236E0821315C0A6
:103730004D875E878D859E850E94881F292F229543
:103740002F702230F0F0243018F59F70F1F0F8015E
:103750009581907FD1F4D12C1EC090E0389FF0016C
:10376000399FF00D1124E65AFD4F6181651306C0A3
:103770006081641303C06281E6120FC001968770F6
:10378000D5CF9F7011F0882331F3805E883018F315
:10379000C8010E94EF19FD2CA1CFEE2009F49ECFA5
:1037A00080918F02816080938F02F12C97CF351327
:1037B00006C0241304C0D801EE2009F49AC04D8736
:1037C0005E878D859E850E94521A882319F1EE200E
:1037D00009F180918F02803270F020918A0230913D
:1037E0008B0238872F831986DB86CA868C87CE01A9
:1037F00007960E94EF1986E0F801AAE8B2E001906E
:103800000D928A95E1F70E94A41A0E94961AFF244D
:10381000F39464CFC8010E94EF19F9CF911113C03E
:103820007C2DD98AC88A6E2D89890E94561A8AE809
:1038300092E00E94EF1986E0EAE8F2E0DF011D92D3
:103840008A95E9F763C0351312C0241310C0E11044
:103850000EC0F8018583C8010E94EF19EAE8F2E082
:1038600086E0DF011D928A95E9F7FB2C37CF4D8763
:103870005E878D859E850E94521A882359F2EE201C
:1038800049F280918F02803208F4B5CF20918A02EC
:1038900030918B023A8329831B82DD82CC828E8316
:1038A000CE010196A6CFC816D90698F1F601E81BFD
:1038B000F90BCF01F12C883C910508F049C0FE2C92
:1038C000EE2009F4A7CF351332C0241330C0809105
:1038D0008F0280FD23C0982F907F01F1D8011596AB
:1038E0008C931597903F39F0982F907F905F8F7051
:1038F000892B15968C93C8010E94EF1986E0F80178
:10390000AAE8B2E001900D928A95E1F70E94961A1A
:10391000E5CE809590958C0D9D1DCCCF86E0F8016D
:10392000AAE8B2E001900D928A95E1F7D7CE4D87D3
:103930005E878D859E850E94521A81115CCF809191
:103940008F02816080938F02C8010E94EF19C6CE5A
:103950007C2DD98AC88A6E2D89890E94561A6BCF10
:10396000EE2009F457CF4D875E878D859E850E9496
:10397000521AF82E882309F44DCF86E0F801AAE800
:10398000B2E001900D928A95E1F78AE892E00E94F8
:10399000DC150E94A41ABACF81E08E25BDCE1F93FC
:1039A000CF93DF93CDB7DEB72C970FB6F894DEBF79
:1039B0000FBECDBF4F83588769877A878B879C87D7
:1039C000CE0107960E94081B882369F08A859B8593
:1039D000892B39F04F815885842F85238F3F09F03B
:1039E00071C016E05FC086E0FE013796DE011196D9
:1039F00001900D928A95E1F78A859B85892B89F341
:103A000088859F8189238F3F61F32091590230E09F
:103A1000C9010196877099274091580248171906E5
:103A200071F40E942F1A109259021092580286E0E7
:103A3000EAE8F2E0DF011D928A95E9F7D2CF96E03D
:103A4000929FD001939FB00D1124A65ABD4FFE0145
:103A5000319601900D929A95E1F7809359020E9458
:103A6000751ABFCF819FC0011124865A9D4F0E94B5
:103A7000081B8823E9F0E09158021E9FF0011124F1
:103A8000E65AFD4F40815181628173818481958125
:103A90000E94651A8091580290E0019687709927DC
:103AA0008093580280915802909159028913DACF7D
:103AB0002C960FB6F894DEBF0FBECDBFDF91CF912D
:103AC0001F91089569857A858B859C850E94651A6A
:103AD00088CFEF92FF920F931F93CF93DF938C01C8
:103AE000892B81F0F12CEE24E394E8012196F80172
:103AF0008491843770F4843008F05FC08130B1F075
:103B00008230A1F1DF91CF911F910F91FF90EF9043
:103B10000895853709F44CC008F43DC09CE7980F20
:103B2000903780F78F770E94DB1649C00E5F1F4FDA
:103B3000FE01849190E2980F983060F48770FE2D1A
:103B400001C0FF0F8A95EAF78F2F0E9401200E9483
:103B50002A2002C00E94EE158F2D815030F2EFE92D
:103B6000FFE03197F1F700C00000F7CF0E5F1F4F65
:103B7000FE01849190E2980F983050F48770FE2DEA
:103B800001C0FF0F8A95EAF78F2F0E940720DFCF31
:103B90000E94DB16E1CF0E5F1F4FFE01C491C150A2
:103BA000D8F28FE99FE00197F1F700C00000F7CF4E
:103BB0000E5F1F4FFE01F490CFCF0E94EE158E01D5
:103BC000CBCF08950C94E11D0E94E21D6093CB02BF
:103BD0007093CC028093CD029093CE020C94191A6C
:103BE00008950C94E41D0F931F930091CB02109144
:103BF000CC022091CD023091CE02602B712B822B12
:103C0000932B1F910F910C94E41D0F931F93009120
:103C1000CB021091CC022091CD023091CE026023D4
:103C20007123822393231F910F910C94E41D0F9312
:103C30001F930091CB021091CC022091CD023091C4
:103C4000CE0260277127822793271F910F910C9432
:103C5000E41D0C94E11D0C94291E0E942B1E609300
:103C6000C7027093C8028093C9029093CA020C9451
:103C7000191A60E070E0CB010C942D1E0F931F9376
:103C800041E050E060E070E08A019B0104C0000F59
:103C9000111F221F331F8A95D2F7C901B8011F9146
:103CA0000F910C942D1E0F931F9341E050E060E0A4
:103CB00070E004C0440F551F661F771F8A95D2F726
:103CC0008091C7029091C802A091C902B091CA0226
:103CD0008A019B01082B192B2A2B3B2BC901B80108
:103CE0001F910F910C942D1E0F931F9341E050E0F4
:103CF00060E070E004C0440F551F661F771F8A956F
:103D0000D2F7CB01BA01609570958095909500919E
:103D1000C7021091C8022091C9023091CA026023E3
:103D20007123822393231F910F910C942D1E0F93C7
:103D30001F9341E050E060E070E004C0440F551F65
:103D4000661F771F8A95D2F78091C7029091C802AB
:103D5000A091C902B091CA028A019B0108271927C4
:103D60002A273B27C901B8011F910F910C942D1EE2
:103D70000F931F930091C7021091C8022091C902AE
:103D80003091CA02602B712B822B932B1F910F91C4
:103D90000C942D1E0F931F930091C7021091C8021F
:103DA0002091C9023091CA02602371238223932398
:103DB0001F910F910C942D1E0F931F930091C7021A
:103DC0001091C8022091C9023091CA026027712760
:103DD000822793271F910F910C942D1E0895E92F90
:103DE000EE0FE90FEE0F8E0F982F977041E001C094
:103DF000440F9A95EAF786958695869595E0899F72
:103E0000F0011124E057FD4F30E020E070E05191C7
:103E1000DF011197CB01022E02C0969587950A9477
:103E2000E2F7817081958527842385278C932F5F06
:103E30003F4F2530310559F70895E92FEE0FE90F6F
:103E4000EE0F8E0F982F977086958695869525E0B4
:103E5000829FF0011124E057FD4F50E040E080E0E8
:103E6000219130E0092E02C0369527950A94E2F799
:103E700021703327042E01C0220F0A94EAF7822B07
:103E80004F5F5F4F4530510559F70895BF92CF926C
:103E9000DF92EF92FF920F931F93CF93DF938C01EA
:103EA000C090C702D090C802E090C902F090CA0248
:103EB0008091CB029091CC02A091CD02B091CE0224
:103EC000C82AD92AEA2AFB2ACFE1D0E0BC2ED701A2
:103ED000C6010C2E04C0B695A795979587950A94B0
:103EE000D2F780FD0EC0219788F7B12C8B2DDF9182
:103EF000CF911F910F91FF90EF90DF90CF90BF90E7
:103F00000895B8018C2F0E949109019761F3EECFBB
:103F1000CF93DF93EC010E94461FBE01DF91CF914A
:103F20000C9491091F93CF93DF93EB01909155026D
:103F3000992331F0CB01DF91CF911F910C94881F11
:103F4000882379F0CB010E94461F182F682FCE01DD
:103F50000E94EF1EBE01812FDF91CF911F910C9423
:103F60009109CB010E941D1F182FF4CF682F80915B
:103F70001601909117010C94BA21682F80911601B7
:103F8000909117010C94C521809116019091170111
:103F90000C94D0218091CF028595859585950895C3
:103FA0008091CF02877008959091CF02977081E041
:103FB00009F480E008958091F30208959091F3024E
:103FC000892B8093F302089580959091F3029823B2
:103FD0009093F30208958093F30208951092F302F0
:103FE00008959091F202892B8093F20208958095B2
:103FF0009091F20298239093F20208951092F202A7
:1040000008959091F102892B8093F1020895809593
:104010009091F10298239093F10208951092F10289
:1040200008958091D002089508950C9414209091E1
:10403000D002981721F08093D0020C941520089597
:104040008091D002882329F01092D00280E00C9455
:1040500015200895E0911601F09117018091F30267
:104060008083E0911601F091170180819091F20216
:10407000892B8083E0911601F09117018081909146
:10408000F102892B80839091D002992381F0E091F5
:104090001601F09117018081892B80838091160190
:1040A000909117010E94562181110E942020809139
:1040B0001601909117010C944E1408950C945D20F4
:1040C00098E0899F90011124622B6093CF020E9497
:1040D000531E8091CF028595859585950C945E2021
:1040E0001092CF0280E00C945E209091CF028095D8
:1040F00089238093CF02282F277071F4282F082E50
:10410000000C330B9217130639F08595859585952C
:104110000E94741E0C9470200895CF92DF92EF924B
:10412000FF926C01EE24FF2420E0C114D104E104CD
:10413000F10419F0C701B60120E1C72ED82EE92EEF
:10414000FF24C114D104E104F10419F0285FC70170
:10415000B6016B017C0154E0F694E794D794C794C0
:104160005A95D1F7C114D104E104F10419F02C5F80
:10417000C701B6016B017C0142E0F694E794D79445
:10418000C7944A95D1F7C114D104E104F10419F0A0
:104190002E5FC701B6019695879577956795672B32
:1041A000682B692B09F02F5F822FFF90EF90DF9033
:1041B000CF90089590E080E00E948A2F21E08D3E0C
:1041C0009E4F09F020E0822F089582E090E00C9449
:1041D0007C2F83E090E00C947C2F84E090E00C94A2
:1041E0007C2F682F84E090E00C94902FAB01BC01F1
:1041F0008FE090E00C94A22FAB01BC0183E190E032
:104200000C94A22F60E070E0CB010C94FC2060E0E5
:1042100070E0CB010E94F6200C9402216DEE7EEF3F
:1042200090E080E00E94AE2F60E082E090E00E948B
:10423000902F60E083E090E00E94902F1092CB02DC
:104240001092CC021092CD021092CE0260E084E077
:1042500090E00E94902F60E085E090E00E94902F17
:1042600060E086E090E00E94902F6FEF87E090E0A2
:104270000E94902F40E050E0BA0188E090E00E9458
:10428000A22F60E08DE090E00E94902F40E050E08F
:10429000BA0188E190E00E94A22F60E087E190E0FF
:1042A0000E94902F0C9407210C940E21FC01329651
:1042B00080912701882321F0809172039EE187FF7E
:1042C00096E080E0915008F4089521912223D1F3E3
:1042D0008F5FF8CF9C01FC0132969FEF80E0419107
:1042E000461751F09F3F19F4411101C0982F8F5F7D
:1042F0008630A9F79F3F09F40895290F311D97FDD6
:104300003A95F90162830895FC013296089621914D
:10431000261303C0DF0111971C92E817F907B9F7BC
:104320000895E62FE695E695E695EE3168F4E80FF8
:10433000F92FF11D677021E030E001C0220F6A956E
:10434000EAF78281822B82830895E62FE695E6952F
:10435000E695EE3170F4E80FF92FF11D677021E05A
:1043600030E001C0220F6A95EAF720958281282368
:104370002283089520912701222329F0209172039E
:1043800027FD0C9491210C946A212091270122236E
:1043900029F02091720327FD0C94A5210C9484210F
:1043A000FC01329680912701882351F0809172039D
:1043B00087FF06C08EE1DF011D928A95E9F7089517
:1043C00086E0F9CF08950C94E2210E94E3218091C8
:1043D0007803843049F11092F50288E190E020E4FE
:1043E0000FB6F894A895809360000FBE20936000EC
:1043F00080E00E944C070E94E32183B7817F8460A4
:1044000083BF83B7816083BF7894889583B78E7F9D
:1044100083BF0FB6F894A89580916000886180935F
:104420006000109260000FBE08950895CF930E941F
:1044300014040E9427040E941522C0E08C2F0E94C1
:104440008304811105C0CF5FCE30C1F7CF910895AD
:1044500081E0FCCF08950C942A220E942F1A0E941A
:1044600042140E944C070C942B221F921FB61F92DD
:1044700011248F939F93AF93BF938091F502811185
:1044800013C080916E0390916F03A0917003B0915F
:1044900071034196A11DB11D80936E0390936F032C
:1044A000A0937003B0937103BF91AF919F918F91CF
:1044B0001F901FBE1F90189582E084BD93E095BDAC
:1044C0009AEF97BD80936E0008952FB7F89480916E
:1044D0006E0390916F03A0917003B09171032FBF91
:1044E0000895CF92DF92EF92FF920F931F932FB711
:1044F000F89440916E0350916F0360917003709136
:1045000071032FBF6A017B01EE24FF248C0130E090
:1045100020E0C016D106E206F30650F0481B590B06
:10452000CA011F910F91FF90EF90DF90CF900895F7
:1045300041505109F3CF78941F921FB61F92112456
:104540008F939F93AF93BF9380916E0390916F036E
:10455000A0917003B09171030196A11DB11D8093CC
:104560006E0390936F03A0937003B0937103BF9198
:10457000AF919F918F911F901FBE1F901895F89437
:1045800081E08093E00080E28093D800E9ECF0E0E5
:1045900010828FE19EE40197F1F700C000001DBA80
:1045A000109268001CBC10BE1FBA10927A001092C4
:1045B0006E0010926F0010927100109272001082C3
:1045C000ECEBF0E0108214B817B81AB81DB810BAA6
:1045D000108215B818B81BB81EB811BA0C94003F59
:1045E00008950E94DA20811102C00E9454210E9485
:1045F000E5208093F4020E94ED2090E090937303F5
:10460000809372030E94E920682F70E090E080E0C0
:104610000C94F11D8091FA0280FF12C060911B0181
:1046200085E0689FB001112475956795759567952C
:1046300060387105A8F561157105A1F1862F0895FF
:1046400081FF09C060911B0185E0689FB0011124C2
:1046500075956795EDCF60911B0182FD0AC0809131
:10466000F9028823D1F090911A0160911B018917FA
:1046700028F085E0689FB0011124DACF869FB00151
:10468000112485E0869F9001879F300D1124692FAA
:1046900070E0C9010E942B2ECBCF65E070E0CECF39
:1046A0008FE7089581E008958091FA0280FF0CC0A1
:1046B0006091190170E0759567957595679561151D
:1046C000710549F1862F089581FF06C06091190197
:1046D00070E075956795F3CF6091190182FD0BC06D
:1046E0009091F9029923A1F060911801809119012C
:1046F000961738F0682F70E06038710500F38FE787
:104700000895899FC001112470E00E942B2EF4CFE0
:1047100061E070E0D7CF81E00895803F31F40E94DE
:104720000A2381958093FE020895813F19F40E9427
:104730000A23F8CF823F31F40E940A2381958093A7
:10474000FD020895833F19F40E940A23F8CF893FA0
:1047500029F40E9454238093FF0208958A3F21F494
:104760000E9454238195F7CF8B3F31F40E9454234C
:1047700081958093000308958C3F19F40E9454237F
:10478000F8CF843F31F48091FC0281608093FC0279
:104790000895853F21F48091FC028260F7CF863F27
:1047A00021F48091FC028460F1CF873F21F4809155
:1047B000FC028860EBCF883F21F48091FC0280618D
:1047C000E5CF8D3F31F48091FA0281608093FA0247
:1047D00008958E3F21F48091FA028260F7CF8F3FD7
:1047E000B9F78091FA028460F1CF9091FD02803F89
:1047F00041F48091FE0287FD1092FE02992371F030
:104800000895813F29F48091FE021816ACF3F6CF8B
:10481000823F81F497FFF2CF1092FD028091FE0259
:104820009091FF02892B90910003892B49F71092F8
:10483000F9020895833F19F4191674F3DFCF893F05
:1048400039F48091FF021816CCF61092FF02D6CFF1
:104850008A3F29F48091FF0287FFD0CFF6CF8B3FAC
:1048600039F48091000387FFC9CF10920003C6CFAF
:104870008C3F29F4809100031816BCF3BFCF843F0E
:1048800031F48091FC028E7F8093FC02B7CF853F8C
:1048900021F48091FC028D7FF7CF863F21F4809137
:1048A000FC028B7FF1CF873F21F48091FC02877F50
:1048B000EBCF883F21F48091FC028F7EE5CF8D3FC6
:1048C00031F48091FA028E7F8093FA0297CF8E3F67
:1048D00021F48091FA028D7FF7CF8F3F09F08ECFC0
:1048E0008091FA028B7FF0CF8BEF92E00E946814E8
:1048F0000E9465229093F8028093F70208951F9317
:10490000CF93DF938091F7029091F8020E94712279
:10491000AC019091F90220911C0130E0911106C088
:104920002091F6028AE0289F900111244217530734
:1049300078F02091FD02C091FE02D091FF0210910B
:104940000003211109C08C2F8D2B812B09F06AC027
:10495000DF91CF911F9108959F3F19F09F5F909332
:10496000F902121624F40E940A238093FD0280911A
:10497000FD0287FF05C00E940A2381958093FD02F6
:104980001C1624F40E940A238093FE028091FE02EA
:1049900087FF05C00E940A2381958093FE02309113
:1049A000FD023323A1F02091FE02222381F045EB8A
:1049B0003403C0011124992369F19093FD0245EB62
:1049C000240390011124332349F13093FE021D1674
:1049D00024F40E9454238093FF028091FF0287FFFA
:1049E00005C00E94542381958093FF02111624F480
:1049F0000E945423809300038091000387FF05C029
:104A00000E945423819580930003DF91CF911F91E1
:104A10000C94742481E08093FD02D1CF81E08093D7
:104A2000FE02D5CF9F3F09F099CFAACF86E0EBEFEA
:104A3000F2E0DF011D928A95E9F71092F9021092D7
:104A4000FA020895833081F128F4813059F08230E0
:104A5000D1F00895853009F449C0B8F1863009F4E1
:104A600056C008958091F602482F460F5527551FCE
:104A70004F3F510524F4680F6093F60208958FEFBD
:104A80008093F602089580911C01482F460F552708
:104A9000551F4F3F510524F4680F60931C01089582
:104AA0008FEF80931C01089580911B01482F460FC2
:104AB0005527551F4F3F510524F4680F60931B0184
:104AC00008958FEF80931B01089580911A01482F5C
:104AD000460F5527551F4F3F510524F4680F60932B
:104AE0001A0108958FEF80931A010895809119019A
:104AF000482F460F5527551F4F3F510524F4680F87
:104B00006093190108958FEF8093190108958091A2
:104B10001801482F460F5527551F4F3F510524F4C4
:104B2000680F6093180108958FEF8093180108951E
:104B3000833011F128F4813049F0823091F00895EA
:104B4000853081F120F18630C1F108958091F6021F
:104B5000681720F4861B8093F60208951092F602DF
:104B6000089580911C01681720F4861B80931C0116
:104B7000089510921C01089580911B01681720F47C
:104B8000861B80931B01089510921B01089580914C
:104B90001A01681720F4861B80931A010895109259
:104BA0001A01089580911901681720F4861B8093DB
:104BB000190108951092190108958091180168173C
:104BC00020F4861B8093180108951092180108950F
:104BD0000F931F9341E050E060E070E08A019B0179
:104BE00004C0000F111F221F331F8A95D2F7C9017D
:104BF000B8010E94F11D1F910F910C942F1AEBEF39
:104C0000E80FEF3308F065C0F0E0E55FFF4C0C946F
:104C10003F2E0E94542181E008958091F402807F0C
:104C20008093F40281E08093020308950E942F1A7A
:104C30002FEF83ED90E3215080409040E1F700C0DA
:104C400000000E94BF22E7CF9091F402892F8E7F4F
:104C500090FF81608093F40280FDDDCF817F80939F
:104C6000F402D9CF9091F402892F8D7F91FF826059
:104C70008093F40281FFCFCF8091F4028160EFCF67
:104C80009091F402892F8B7F92FF84608093F402CD
:104C900082FDF2CFC0CF9091F402892F877F93FFDE
:104CA00088608093F40283FDE7CFB5CF0E942F1A6E
:104CB00090917203892F97FB87F980588093720334
:104CC000AACF80E00E94E825A6CF8953FBCF8D5163
:104CD000F9CF80E0089580E008950C946B268E5102
:104CE0008A3030F4E82FF0E0EB50FE4F80810895D9
:104CF00080E00895CF93C82F809102038130E1F0C6
:104D0000882329F08230E9F11092020313C00E9437
:104D1000DB1F813159F48C2F0E946B26811125C035
:104D20008C2F0E94FF258170CF9108950E94DB1F78
:104D3000823289F380E0F8CF0E94DB1F813159F382
:104D40000E94DB1F823239F38C2F0E946D26811165
:104D50000AC0C43199F060F4CB3029F0C03119F7A2
:104D600082E08093020381E0DECF81E090E0DBCF40
:104D7000C93221F0C833B9F380E0D5CF10920203D5
:104D8000FBCFC93219F188F4C43101F120F4C730E6
:104D900081F181E0C9CF82EE8C0F8630D0F78C2F65
:104DA0000E946F2680930103F4CFCE3401F140F4CA
:104DB0006AE0CB3471F7809101030E942225E9CF8C
:104DC000C13579F061E0C235B1F3E3CF80910103E1
:104DD000882319F010920103DCCF81E08093020355
:104DE000A3CF61E0809101030E949825D2CF6AE0B1
:104DF000F9CF1092F60284E180931C01C0931B014D
:104E00008CE380931A0188E08093190188E28093F3
:104E10001801BFCF8091230308950F931F93CF9361
:104E2000DF9300D00F92CDB7DEB78C010E947329BB
:104E3000823011F0843021F584E089831B830A835A
:104E400082E08093E9008FEF9091E800815095FD1A
:104E500006C095ED9A95F1F700008111F5CF80918C
:104E6000E80085FF0DC050E040E063E070E0CE0157
:104E700001960E9490298091E8008E778093E80047
:104E80000F900F900F90DF91CF911F910F91089588
:104E9000CF93DF9300D00F92CDB7DEB72091780388
:104EA000243031F523E02983805891099B838A833C
:104EB00082E08093E9008FEF9091E800815095FDAA
:104EC00006C095ED9A95F1F700008111F5CF80911C
:104ED000E80085FF0DC050E040E063E070E0CE01E7
:104EE00001960E9490298091E8008E778093E800D7
:104EF0000F900F900F90DF91CF910895CF93DF9394
:104F0000EC010E947329823011F08430F9F482E0C0
:104F10008093E9008FEF9091E800815095FD06C0E5
:104F200095ED9A95F1F700008111F5CF8091E80099
:104F300085FF0CC050E040E066E070E0CE010E94CA
:104F400090298091E8008E778093E800DF91CF91DF
:104F50000895CF93DF93EC010E947329823011F002
:104F60008430B9F5809127018823B1F180917203D3
:104F700087FF32C060E282E08093E9008FEF90917A
:104F8000E800815095FD06C095ED9A95F1F7000077
:104F90008111F5CF8091E80085FF1BC0809127012A
:104FA00070E050E040E0811104C050E040E068E073
:104FB00070E0CE010E9490298091E8008E77809366
:104FC000E80080E2FE01A3E0B3E001900D928A9533
:104FD000E1F7DF91CF91089568E081E0CDCF809136
:104FE0007703811109C00E941E2B0E947B2B8091A8
:104FF000E20084608093E2000895109277030895A0
:10500000089508950C942D2242E061EC81E00E9405
:105010009C2A42E261EC82E00C949C2A80917A0303
:10502000833009F45FC030F48130C1F1823009F47B
:105030009BC008958A3009F487C08B3009F46DC095
:10504000893009F04EC080917903813209F049C05E
:1050500080917D0390917E03029708F042C0809179
:10506000E800877F8093E8008091E80082FF35C0E8
:105070009091F3008091F200029729F48091F10061
:105080008B7F813021F48091F10080932303809104
:10509000E8008B778093E8000C94D02A8091790304
:1050A000813AF9F48091E800877F8093E80080914D
:1050B0007D0390917E03892B61F460E283E093E0AD
:1050C00070E00E94DF298091E8008B778093E800F0
:1050D000089560E090E080E0F3CF80917803811143
:1050E000C3CF089580917903813AD9F780917D03E8
:1050F00090917E03892BA9F78091E800877F8093A8
:10510000E8008091E80080FFFCCF80912701809328
:10511000F1008091E8008E77BDCF809179038132D4
:1051200001F780917D0390917E03892BD1F68091C8
:10513000E800877F8093E8000E94D02A80917B035B
:10514000809327010C942F1A80917903813249F6BC
:105150008091E800877F8093E8000E94D02A8091A8
:105160007C0380932403089580917903813A09F0A8
:10517000B8CF8091E800877F8093E8008091E800B5
:1051800080FFFCCF80912403C2CF84B7877F84BF88
:105190000FB6F894A89580916000886180936000B4
:1051A000109260000FBE80E8809361001092610051
:1051B0000E94B0140E941E2B0E947B2B8091E20063
:1051C00084608093E20078940E94FB2D0E94B814C2
:1051D0008DE191E00E943D1480917803853029F0A3
:1051E0000E94C2140E942F12F7CF0E94E5218091E5
:1051F0007603882389F30E941622882369F30E948C
:105200007A29EACF0C940429292F3327233031053A
:1052100019F168F42130310509F44AC02230310512
:1052200009F44BC090E080E030E020E028C021325B
:10523000310579F122323105A9F780E490E022E0CE
:1052400036E061157105D9F080EC90E022E435E09C
:1052500061307105A1F0E6CF99278130910599F071
:10526000009741F08230910589F00397D9F6EBEB76
:10527000F4E002C0E1EFF4E0849190E09F01FA01D4
:10528000318320830895E9EDF4E0F6CFE1ECF4E01A
:10529000F3CF89E090E027E035E06115710579F3FF
:1052A00089E090E020E235E06130710541F3BACF4A
:1052B00082E190E020E335E0E2CF8BE390E025EF60
:1052C00034E0DDCF0895CF93C82F0E946229C093A8
:1052D0002503CF91089580917803843011F482E002
:1052E000089581E0089580912503811102C00C94F6
:1052F0006B29089580E189BD82E189BD09B400FE72
:10530000FDCF8091D8008F7D8093D8008091E00000
:1053100082608093E0008091E00081FDFCCF0895E1
:10532000AF92BF92CF92DF92FF920F931F93CF93D2
:10533000DF936C01EB018A010E94EF2AF82E8111A4
:1053400023C00115110539F0F80180819181C81B36
:10535000D90BC80ED91EB12CA12C2097A9F0809191
:10536000E80085FD22C08091E8008E778093E800F8
:1053700001151105A1F0F80180819181A80EB91ED7
:10538000B182A08285E0F82E8F2DDF91CF911F9101
:105390000F91FF90DF90CF90BF90AF9008950E9443
:1053A000EF2A8823D1F2F82EEFCFF60181916F0119
:1053B0008093F1002197FFEFAF1ABF0ACECFFC0117
:1053C00080917F039091800386179707A0F0611565
:1053D000710529F49091E8009E779093E80090E0A1
:1053E0006115710551F4911108C08091E80082FFA8
:1053F00034C080E00895BC01F2CF80917803882307
:10540000C1F18530C1F18091E80083FD30C0809109
:10541000E80082FDEACF8091E80080FFE1CF809133
:10542000F3002091F200382F6115710519F0283032
:10543000310558F091E02830310509F090E02091D5
:10544000E8002E772093E800CBCF81918093F10084
:10545000615071092F5F3F4FE7CF80917803882318
:1054600041F0853041F08091E80083FFBECF81E0BC
:10547000089582E0089583E00895FC0180917F0300
:105480009091800386179707A0F06115710529F4A4
:105490008091E8008E778093E80090E061157105B7
:1054A00051F4911108C08091E80082FF35C080E07E
:1054B0000895BC01F2CF809178038823C9F185302B
:1054C000C9F18091E80083FD31C08091E80082FD40
:1054D000EACF8091E80080FFE1CF8091F300209136
:1054E000F200382F6115710519F02830310558F098
:1054F00091E02830310509F090E08091E8008E7746
:105500008093E800CBCF84918093F1003196615075
:1055100071092F5F3F4FE6CF80917803882341F0D8
:10552000853041F08091E80083FFBDCF81E0089590
:1055300082E0089583E00895982F973028F08F70C7
:105540008093E90081E008959093E900242F762F5D
:1055500050E0981731F07091EC002091ED005091DF
:10556000F00021FD02C09F5FE8CF3091EB003E7F4D
:105570003093EB003091ED003D7F3093ED003091A2
:10558000EB0031603093EB007093EC002093ED0062
:105590005093F0002091EE0027FDE5CF80E00895C4
:1055A0008091790387FF13C08091E80082FF06C0D5
:1055B0008091E8008B778093E80004C080917803A5
:1055C0008111F2CF0895809178038823D9F38091D7
:1055D000E80080FFF8CF8091E8008E77ECCF209133
:1055E000E4003091E50085E6A9019091EC0090FF80
:1055F00006C09091E80090FF06C080E00895909169
:10560000E80092FDFACF90917803992389F09530C4
:1056100089F09091EB0095FD0FC02091E40030914E
:10562000E5004217530709F38150F1F684E008952D
:1056300082E0089583E0089581E008950E948C2B14
:105640000E94942BE0EEF0E0808181608083E8EDA1
:10565000F0E080818F77808319BCA7EDB0E08C915A
:105660008E7F8C9380818F7E808310927703089544
:105670000F931F93CF93DF930E948C2B0E94942B48
:10568000C8EDD0E088818F7788838881806888839F
:1056900088818F7D888319BC1092780310927403DF
:1056A000109276031092750300EE10E0F8018081ED
:1056B0008B7F808388818160888342E060E080E026
:1056C0000E949C2AE1EEF0E080818E7F8083E2EEF2
:1056D000F0E0808181608083808188608083F80130
:1056E00080818E7F8083888180618883DF91CF91E4
:1056F0001F910F910895E8EDF0E080818F7E808307
:10570000E7EDF0E080818160808384E082BF81E00A
:10571000809377030C94382BE8EDF0E080818E7F46
:1057200080831092E20008951092DA001092E10056
:1057300008951F920F920FB60F9211242F933F934B
:105740004F935F936F937F938F939F93AF93BF9389
:10575000EF93FF938091E10082FF0BC08091E20004
:1057600082FF07C08091E1008B7F8093E1000E945F
:10577000FA2D8091DA0080FF19C08091D80080FF57
:1057800015C08091DA008E7F8093DA008091D90075
:1057900080FF94C080E189BD82E189BD09B400FE2B
:1057A000FDCF81E0809378030E94EF278091E10094
:1057B00080FF19C08091E20080FF15C08091E20057
:1057C0008E7F8093E2008091E20080618093E2000E
:1057D0008091D80080628093D80019BC85E08093C6
:1057E00078030E9401288091E10084FF29C0809104
:1057F000E20084FF25C080E189BD82E189BD09B452
:1058000000FEFDCF8091D8008F7D8093D8008091DD
:10581000E1008F7E8093E1008091E2008F7E809393
:10582000E2008091E20081608093E2008091740345
:10583000882309F449C084E0809378030E940228F9
:105840008091E10083FF29C08091E20083FF25C0A1
:105850008091E100877F8093E10082E0809378036C
:10586000109274038091E1008E7F8093E10080911B
:10587000E2008E7F8093E2008091E200806180935D
:10588000E20042E060E080E00E949C2A8091F0000B
:1058900088608093F0000E940028FF91EF91BF91F3
:1058A000AF919F918F917F916F915F914F913F91B8
:1058B0002F910F900FBE0F901F90189519BC10924A
:1058C00078030E94FD2772CF8091E30087FD02C01C
:1058D00081E0B2CF83E0B0CF1F920F920FB60F924C
:1058E00011242F933F934F935F936F937F938F93E5
:1058F0009F93AF93BF93CF93EF93FF93C091E90032
:10590000CF708091EC001092E9008091F000877FC9
:105910008093F00078940E94A82C1092E900809166
:10592000F00088608093F000C093E900FF91EF9150
:10593000CF91BF91AF919F918F917F916F915F9127
:105940004F913F912F910F900FBE0F901F90189580
:105950001F93CF93DF93CDB7DEB7AA970FB6F89416
:10596000DEBF0FBECDBF89E793E02091F100FC01BF
:105970002193CF01F3E081389F07B9F70E940E28E9
:105980008091E80083FF1EC18091790390917A0392
:105990009A3008F017C1E92FF0E0E65BFF4C0C9459
:1059A0003F2E803899F0823809F00CC180917D0338
:1059B0008F70873008F006C18093E9008091EB007A
:1059C00085FB882780F91092E90006C08091750355
:1059D00090917603911182609091E800977F909367
:1059E000E8008093F1001092F1008091E8008E773A
:1059F000E5C0882309F4D3C0823009F0E3C0809168
:105A00007B038111D6C080917D038F702FEF280F0B
:105A1000263008F0D7C08093E9002091EB0020FFEA
:105A2000C8C0933031F48091EB0080628093EB002A
:105A3000C0C09091EB0090619093EB0021E030E0CA
:105A400001C0220F8A95EAF72093EA001092EA003B
:105A50008091EB008860EACF8111B4C010917B0384
:105A60001F778091E3008078812B8093E300809101
:105A7000E800877F8093E8000E94D02A8091E800A8
:105A800080FFFCCF8091E30080688093E30082E098
:105A9000111183E08093780395C08058823008F01C
:105AA00091C080917B0390917C038C3D23E0920711
:105AB000A1F583E08A838AE289834FB7F894DE01F7
:105AC000139620E03EE051E2E32FF0E050935700C0
:105AD000E49120FF03C0E295EF703F5FEF708E2FDF
