:100000000C9452040C946F040C946F040C946F04C1
:100010000C946F040C946F040C946F040C946F0494
:100020000C946F040C946F040C94222D0C94F52DF9
:100030000C94BE230C946F040C946F040C946F0406
:100040000C946F040C946F040C946F040C946F0464
:100050000C946F040C9424240C946F040C946F047F
:100060000C946F040C946F040C946F040C946F0444
:100070000C946F040C946F040C946F040C946F0434
:100080000C946F040C946F040C946F040C946F0424
:100090000C946F040C946F040C946F040C946F0414
:1000A0000C946F040C946F040C946F046572676F6A
:1000B000646F785F657A2F6164616D2040206130E4
:1000C000323538632D646972747900000009A10D1E
:1000D000A20000000000000000000000000000007E
:1000E0000009A30DA2296801000100010001000020
:1000F000001E00140004621D00010001001F001A10
:100100000016641B000100010020000800076106C2
:100110000001002C00210015000120190001000140
:1001200000220017000A680500000001002D002BC6
:100130000000002A00000001002E002B0000004CEF
:10014000000000010023001C000B681100000001EA
:100150000024001800022010000100010025000CFE
:10016000000E61360001002800260012000F6437DF
:100170000001000100270013003362340001000178
:10018000000100010001000100010000000000006A
:100190000000000000000000003A002F002F0200C5
:1001A00000000000003B0000000000000000000014
:1001B000003C00000000000000000029003D00009D
:1001C0000001000000000000003E000000000013DD
:1001D000500000000044000000000000000000008B
:1001E000004500000000000000000000003F00008B
:1001F00000500000000000000040004A0051004D87
:10020000000000000041004B0052004E00000000C2
:1002100000420000004F00380200000000430030A0
:100220000030023800000000000000000000000064
:1002300000000000000000000000000000000000BE
:10024000003A002F002F023100000000003B003573
:100250000000003102000000003C003502000000F8
:1002600000000029003D0000000000000000000028
:10027000003E000000000013500000000044000099
:100280000000000000000000004500000000000029
:1002900000000000003F000000000000000000001F
:1002A00000400000000100000000000000410000CC
:1002B00000000000000000000042000000000000FC
:1002C0000000000000430030003002000000000089
:1002D00000000000000000000000000000105001BD
:1002E0000001000100010000000100140204021DD1
:1002F000020100010001001A0216021B02010001A6
:10030000000100080207020602010010500100155A
:10031000020902190201000100010017020A020588
:1003200002000001000100010000000100000001C6
:100330000001000100000001000000010001001C9C
:10034000020B02110200000100010018020D021050
:10035000020100010001000C020E02360201001031
:1003600050010012020F02370201000100010013C8
:10037000023302340201000100010001000100010A
:10038000000100000000000000000000002A2B28EF
:10039000000000000000000000000000000000005D
:1003A00029000000002C1E34202122243426272579
:1003B0002E362D3738271E1F2021222324252633B1
:1003C00033362E37381F0405060708090A0B0C0DB3
:1003D0000E0F101112131415161718191A1B1C1DC5
:1003E0002F3130232D350405060708090A0B0C0DA3
:1003F0000E0F101112131415161718191A1B1C1DA5
:100400002F3130354C0000000000000000000000DB
:1004100000000000000000000000000000000000DC
:1004200000000000000000000000000000000000CC
:1004300000000000000000000000000000000000BC
:1004400000000000000000000000000000000000AC
:10045000000000000000000000000000000000009C
:10046000000000000000000000000000000000008C
:10047000000000000000000000000000000000007C
:10048000000000000000000000000000000000006C
:10049000000000000000000000000000000000005C
:1004A0000000000000000101010101010001010143
:1004B000010000000000000000000000000000013A
:1004C000000100010101010101010101010101011E
:1004D000010101010101010101010101010101010C
:1004E000000000010100000000000000000000000A
:1004F00000000000000000000000000000000000FC
:10050000010101010000047F3F1F643214643214B2
:10051000783C1E1E140A052223252628292A2C2D64
:100520002F3032333536383A3B3D3E404243454723
:10053000494A4C4E5051535557595A5C5E6062645B
:100540006668696B6D6F71737577797B7D7F818369
:100550008587898A8C8E90929496989A9C9E9FA16A
:10056000A3A5A7A8AAACAEAFB1B3B4B6B8B9BBBC8B
:10057000BEBFC1C2C3C5C6C7C9CACBCCCDCED0D100
:10058000D2D2D3D4D5D6D7D7D8D9D9DADADBDBDBF8
:10059000DCDCDCDCDCDDDDDDDDDCDCDCDCDCDBDB99
:1005A000DBDADAD9D9D8D7D7D6D5D4D3D2D2D1D0ED
:1005B000CECDCCCBCAC9C7C6C5C3C2C1BFBEBCBBEA
:1005C000B9B8B6B4B3B1AFAEACAAA8A7A5A3A19F62
:1005D0009E9C9A98969492908E8C8A898785838126
:1005E0007F7D7B79777573716F6D6B696866646207
:1005F000605E5C5A5957555351504E4C4A494745D5
:100600004342403E3D3B3A3836353332302F2D2C75
:100610002A292826252322FFAA7F55400000000012
:1006200000000000000001010101010101010102BF
:10063000020202020202020303030303030304048F
:100640000404040505050505060606060607070752
:1006500007080808080909090A0A0A0B0B0B0C0C01
:100660000C0D0D0D0E0E0E0F0F1010101111121299
:1006700013131414151516161717181819191A1A12
:100680001B1C1C1D1D1E1F1F20212122232324256E
:100690002526272828292A2B2C2C2D2E2F303131A6
:1006A00032333435363738393A3B3C3D3E3F4041B2
:1006B00042434445464748494B4C4D4E4F50525398
:1006C00054555758595A5C5D5E606163646567684C
:1006D0006A6B6C6E6F7172747677797A7C7D7F81CC
:1006E00082848687898B8D8E9092949597999B9D15
:1006F0009FA1A2A4A6A8AAACAEB0B2B4B6B9BBBD25
:10070000BFC1C3C5C8CACCCED0D3D5D7DADCDEE1F1
:10071000E3E6E8EAEDEFF2F4F7F9FCFF040330005A
:10072000000016034500720067006F0044006F0070
:100730007800200045005A000000160345007200B2
:1007400067006F0044006F007800200045005A00E9
:1007500000000403090409023B00020100A0FA0999
:1007600004000001030101000921110100012240E0
:10077000000705810308000A0904010001030000C5
:100780000009211101000122C00007058203200099
:100790000A1201100100000008EDFE07130100011C
:1007A00002030105010902A10185020901A1000559
:1007B0000919012905150025019505750181029585
:1007C00001750381010501093009311581257F95E6
:1007D000027508810609381581257F950175088104
:1007E00006050C0A38021581257F950175088106DA
:1007F000C0C005010980A101850316010026030080
:100800001A81002A8300751095018100C0050C092A
:1008100001A1018504160100269C021A01002A9CF0
:1008200002751095018100C005010906A101850529
:10083000050719E029E715002501950875018102D2
:1008400005081901290595057501910295017503A2
:1008500091010507190029EF1500250195F0750193
:100860008102C005010906A101050719E029E71564
:100870000025019508750181029501750881010522
:1008800008190129059505750191029501750391D6
:10089000010507190029FF150026FF0095067508B8
:1008A0008100C00011241FBECFEFDAE0DEBFCDBF54
:1008B00012E0A0E0B1E0EAEBF3E602C005900D9291
:1008C000A030B107D9F723E0A0E0B2E001C01D924B
:1008D000A538B207E1F70E944E2A0C944D310C94D2
:1008E000000080B38C7080BB81B3836F81BB08959F
:1008F00084B1807F84B985B1807F85B98AB1837FD7
:100900008AB98BB1837F8BB93E9846980895CF936F
:10091000C82F873070F58091060190910701892BCF
:1009200089F564E670E080E40E94C10590930701B8
:1009300080930601892BD1F464E670E082E10E9485
:100940001D069093070180930601892B79F481E0BD
:1009500090E001C0880FCA95EAF764E670E08095E0
:100960000E941D069093070180930601CF910C947D
:1009700070068A30B9F040F4883071F0893079F02F
:10098000209A2898CF9108958C3091F070F08D3096
:10099000B9F73E9A4698F6CF219A2998F3CF229A32
:1009A0002A98F0CF239A2B98EDCF529A5A98EACFF3
:1009B000539A5B98E7CFCF93873008F040C080917F
:1009C000060190910701C0E0892B71F464E670E0A4
:1009D00080E40E94C1059093070180930601892B52
:1009E00031F0C0E00E9470068C2FCF91089564E62C
:1009F00070E083E10E941D06909307018093060139
:100A0000892B79F764E670E081E40E94C105909338
:100A1000070180930601892B21F784E690E00E946C
:100A20004C0697FF05C09093070180930601D9CF2C
:100A3000C82FC0951092070110920601D3CFCFB1F5
:100A40008FB1869586958C73C3708C2BC82FC095FB
:100A5000CBCF0C947A070E94F50690E090930701A3
:100A6000809306010E9478040E947104E1E0F2E0A4
:100A7000AFE0B2E011921D9282E0EF30F807D1F7BB
:100A80008EE00E94780D0C94B2080E94F50690E06A
:100A900090930701809306010E9478040E947104DC
:100AA000E1E0F2E0119282E0EF30F807D9F7089523
:100AB000EF92FF920F931F93CF93DF9380910601E4
:100AC00090910701892B91F0809100028F5F8093B4
:100AD000000281110BC00E94F50690E0909307017F
:100AE00080930601892B11F40E949F060FE012E00B
:100AF000C0E0D0E087E0E82EEC0E8C2F0E94870447
:100B00008E2D0E9487048C2F0E94DB04F8019191A6
:100B10008F01F12C891721F031978083FF24F39402
:100B20008E2D0E94DB04F80196818917D9F0868307
:100B300081E08F29D82B0E947804CF5FC730D1F68F
:100B40002D2F4EE061E072E08FE092E00E94030EF4
:100B50000E94BC0881E0DF91CF911F910F91FF901F
:100B6000EF90089580E0E5CFE82FF0E0EF5FFD4FD4
:100B70008081089508951092B9008CE08093B800A8
:100B80000895EF92FF920F931F93CF93DF93182F47
:100B9000EB011092BC0084EA8093BC000E94EE231B
:100BA0007C018091BC0087FF27C08091B900887FBD
:100BB000883029F08091B900887F8031D9F5109371
:100BC000BB0084E88093BC000E94EE238C018091DE
:100BD000BC0087FF24C02091B900287F90E080E00E
:100BE0002831B1F081E090E0203411F490E080E011
:100BF0009195819591090CC0CF3FDC0791F20E943D
:100C0000EE238E199F098C179D0758F28EEF9FEFE8
:100C1000DF91CF911F910F91FF90EF900895CF3FFB
:100C2000DC07A9F20E94EE23801B910B8C179D0715
:100C300070F2ECCF8FEF9FEFEBCF0F931F93CF931B
:100C4000DF93EB018093BB0084E88093BC000E949B
:100C5000EE238C018091BC0087FF11C02091B90068
:100C6000287F81E090E0283211F490E080E09195B7
:100C700081959109DF91CF911F910F910895CF3FF9
:100C8000DC0741F30E94EE23801B910B8C179D071C
:100C900008F38EEF9FEFEECF0F931F93CF93DF9369
:100CA000EC0184E88093BC000E94EE238C018091CB
:100CB000BC0087FF08C08091BB0090E0DF91CF911E
:100CC0001F910F910895CF3FDC0789F30E94EE2317
:100CD000801B910B8C179D0750F38EEF9FEFEECF8B
:100CE00084E98093BC000895259A2D9A0895269A48
:100CF0002E9A0895279A2F9A089556985E980895E7
:100D000025982D98089526982E98089527982F981D
:100D100008950E947D060E9480060E9483060C941E
:100D2000860690E0909389008093880090938B00D2
:100D300080938A0090938D0080938C0008950E9488
:100D400089068FEF0E9491060E9474062FEF80E7BC
:100D500092E0215080409040E1F700C000000E94E6
:100D600077062FEF80E792E0215080409040E1F736
:100D700000C000000E947A062FEF80E792E0215029
:100D800080409040E1F700C000000E9480062FEFF5
:100D900080E792E0215080409040E1F700C00000E1
:100DA0000E9483062FEF80E792E021508040904020
:100DB000E1F700C000000E9486060C94890689EACB
:100DC0008093800089E08093810024982C983F983C
:100DD0008AB18F7C8AB96E98479A8BB180638BB940
:100DE000769A0E949F060C94790780E290E0909397
:100DF00007018093060180911D0281110EC00E949F
:100E0000BB0581E080931D022FEF83ED90E321501D
:100E100080409040E1F700C0000064E670E080E4AC
:100E20000E94C1059093070180930601892B09F068
:100E30004EC064E670E080E00E941D0690930701BA
:100E400080930601892B09F042C064E670E080E0DF
:100E50000E941D069093070180930601892BB9F526
:100E600064E670E08FE30E941D0690930701809373
:100E70000601892B61F50E94700664E670E080E44B
:100E80000E94C1059093070180930601892BF9F414
:100E900064E670E08CE00E941D0690930701809349
:100EA0000601892BA1F464E670E080E00E941D0633
:100EB0009093070180930601892B49F464E670E062
:100EC0008FE30E941D0690930701809306010E9404
:100ED0007006809106010895611108C0FC018281AD
:100EE000882321F08CEA90E00E94AF0890E080E037
:100EF000089508956091C7027091C8028091C90257
:100F00009091CA020C9416220F931F93CF93DF93F4
:100F10008C01EB019A9581159F4138F510FF03C0B4
:100F200080EEFB01099511FF03C081EEFE010995DA
:100F300012FF03C082EEFE01099513FF03C083EE8A
:100F4000FE0109950115104180F084EEFE0109951E
:100F500085EEFE01099586EEFE01099587EEFE01FC
:100F6000DF91CF911F910F910994DF91CF911F9144
:100F70000F910895877091E001C0990F8A95EAF763
:100F8000892F0E947A210C94B3210C94BA078770A0
:100F900091E001C0990F8A95EAF7892F0E9480217C
:100FA0000C94B3210C94C707CF93DF93EC01805EC0
:100FB0009109089720F06AEB77E0209711F465EC2F
:100FC00077E0CE010E9484078C2FDF91CF910C94A3
:100FD0007117CF93DF93EC010E945E18CE01805E03
:100FE0009109089720F067EC77E0209711F462ED03
:100FF00077E0CE01DF91CF910C948407CF93DF93FC
:10100000EC010E94D407CE01DF91CF910C94E90747
:1010100081E0089581E008950C940A081F93CF930E
:10102000DF9300D000D00F92CDB7DEB749835A834B
:101030006B832091550289819A8121111BC06623FF
:10104000A9F00E94CF20182F682F89819A810E94D1
:10105000782069817A81812F0F900F900F900F90E7
:101060000F90DF91CF911F910C94F80A0E94A62057
:10107000182FEFCF0E94CF2069817A81EDCFFC013C
:10108000408151816281738184810C940E081F9389
:10109000CF93DF9390E0FC01EB57FC4F1491FC01E0
:1010A000EB57FB4FD4918B5F9B4FFC01C491DD2329
:1010B00019F081EE0E947117CC2319F086EE0E9480
:1010C0007117812F0E94B418CC2319F086EE0E946C
:1010D0005E18DD2331F081EEDF91CF911F910C94EA
:1010E0005E18DF91CF911F910895FF920F931F9388
:1010F000CF93DF938C01F62EF8018491882349F178
:10110000E8012196813049F4FE011491812F0E945B
:101110007117812F0E945E1806C0823089F4FE018B
:1011200084910E9471178E010F5F1F4F8F2D815088
:1011300018F3EFE9FFE03197F1F700C00000F7CFB7
:10114000833019F4FE018491E5CF0E944708E8013D
:10115000EACFDF91CF911F910F91FF90089560E04A
:101160000C9475080E946322811102C00E94DD2246
:101170000E94500E0C94DF060C942905282F2F7026
:1011800041F0822F90E02A3010F44D960895069792
:10119000089587E290E0089508950C94CC080C948B
:1011A000CD0808950E94B21B0E94D1082FEF84E35E
:1011B0009CE0215080409040E1F700C000000C947A
:1011C00048240F931F93CF93DF938C010E943F0815
:1011D000EC01B8010E940C08882309F4D3C0B801BF
:1011E000CE010E94C70E882309F4CCC0B801CE01FD
:1011F0000E947F15882309F4C5C0CA3C8CE5D80736
:1012000009F4FEC008F054C0C33CECE5DE0709F465
:10121000D0C048F5C5318CE5D807A8F4C2309CE5AC
:10122000D90708F052C1C115ECE5DE0709F4A5C0E5
:10123000C130DC4509F4ACC0C801DF91CF911F91EA
:101240000F910C940808C6318CE5D80709F4AFC19A
:10125000C23CDC4589F7F8018281882309F492C0F9
:101260000E9470138FC0C63CECE5DE0709F4B7C0DE
:1012700080F4C43C8CE5D80709F4A6C0C53CDC4525
:10128000D9F6F8018281882309F47CC00E944D11AF
:1012900079C0F8018281C83CFCE5DF0709F4ABC0E6
:1012A00008F4A4C0882309F46DC00E9487116AC0A5
:1012B000C13DECE5DE0709F4D7C070F5CD3C8CE507
:1012C000D80709F4ADC088F4CB3CECE5DE0709F49F
:1012D0009FC0CC3CDC4509F0AFCFF8018281882368
:1012E00009F450C00E94F00F4DC0F8018281CF3C3C
:1012F000FCE5DF0709F4AAC008F49BC0882309F4C1
:1013000041C00E94D70F893028F00E94D70F8E303D
:1013100008F462C089E08AC0C53DECE5DE0709F447
:10132000C6C0B0F4F8018281C33DFCE5DF0709F4D3
:10133000B9C008F4A9C0882329F10E94D70F8931C8
:1013400028F00E94D70F823208F446C089E16EC0AF
:10135000CD3DECE5DE0709F4B1C0CE3DFCE5DF078D
:1013600009F1CC3DDC4509F067CFF8018281882383
:1013700049F080E00E94EC2A05C0F80182818111C9
:101380000E94D20880E0DF91CF911F910F910895C4
:10139000F80182818823B1F38091F4028160809307
:1013A000F402F0CFF8018281882361F30E94DD22EC
:1013B000E9CFF8018281882329F30E946421827297
:1013C00059F00E946213DECFF80182818823D1F2A6
:1013D0000E9464218272A9F30E945513D3CFF801B1
:1013E0008281882379F20E945A11CCCF882351F24E
:1013F0000E946911C7CF882329F20E947811C2CFB9
:10140000F8018281882309F4BDCF0E949611BACFDA
:10141000F8018281882309F4B5CF0E94DF0FB2CF93
:10142000F8018281882309F4ADCF81E00E94651321
:10143000A9CF882309F4A6CF0E94D70F823020F0CD
:101440000E94D70F853040F282E0F0CF882309F464
:1014500099CF0E94D70F863028F00E94D70F88308E
:1014600008F4BACF86E0E2CFF8018281882309F43C
:1014700089CF0E94D70F8F3028F00E94D70F843178
:1014800008F4AACF8FE0D2CF882309F47BCF0E9443
:10149000D70F853128F00E94D70F873108F49CCFF1
:1014A00085E1C4CF882309F46DCF88E1BFCFF8016F
:1014B0008281882309F466CF83E2B8CFF801828164
:1014C000882309F45FCF82E055CFF8018281882319
:1014D00009F4B2CE0E946322811102C00E94DD2273
:1014E0000E94762290E09093730380937203FE0132
:1014F000E350FC45809172038160E231F10538F4DC
:10150000E15BFE4C0C94C82F809172038260809343
:101510007203809172030E947A220E94B21B32CF22
:10152000809172038460F3CF809172038860EFCF63
:10153000809172038061EBCF809172038062E7CF6C
:10154000809172038064E3CF809172038068DFCF63
:10155000809172038C60DBCF809172038E7FD7CF36
:10156000809172038D7FD3CF809172038B7FCFCF19
:1015700080917203877FCBCF809172038F7EC7CF1C
:10158000809172038F7DC3CF809172038F7BBFCF19
:10159000809172038F77BBCF80917203837FB7CF27
:1015A00090917203892F97FB87F98058B0CF0E94E2
:1015B0006421F8019281992381F08A7A91E009F4FB
:1015C00090E090931E02811106C089E20E943F21A3
:1015D0000E94B321D7CE85E3F9CF80911E028111FD
:1015E00004C089E20E944621F3CF85E3FBCF089532
:1015F000972F70E026E0929F600D711D1124FB0172
:1016000094E5899FE00DF11D1124EE0FFF1FEB51B2
:10161000FF4F859194910895FC01EE0FFF1FE55354
:10162000FF4F859194910895CF93DF930E94F80A1C
:101630000E94DA0CEC01811520E5920708F042C007
:10164000811530E4930708F018C1883E910528F50C
:10165000803E910508F0A4C0883A910588F4853A47
:10166000910508F093C08130910509F499C0009765
:1016700009F496C0049708F093C0D0E0C0E090C091
:101680008F3B910508F490C0805C9109C03CD10566
:10169000A0F30E940C0BEC0183C08115904250F422
:1016A000C11581E0D80708F07BC0C03FD10528F301
:1016B000D06576C0C11590E3D90708F0D4C0CE013B
:1016C0009F70E7CF811525E5920758F5811534E520
:1016D000930708F001C1811542E5940750F4C11544
:1016E00081E5D80708F4CCC0DC2FCC27C16FD06AC5
:1016F00057C0982F969596959E0123703327C11554
:10170000D34508F0DAC0C1E0D0E002C0CC0FDD1F45
:101710002A95E2F720E2929FC0011124C82BD92B11
:10172000CAC0C1158AE5D807A0F4C11599E5D90743
:1017300008F0E2C0C11526E5D20708F4D2C0C115F1
:1017400038E5D30708F499CFDC2FCC27C06FD06AD7
:1017500027C0C1154BE5D40708F48FCFC1158CE520
:10176000D80708F4D9C0CE0190568115904208F0F0
:1017700084CF8D2F8F710E94550D90E0982F882770
:1017800088279F719C012C2BE901B4C0853A9105F3
:1017900009F4C5C0863A910509F0C4C0C2E8D0E496
:1017A000CE01DF91CF910895883A910509F4BDC02B
:1017B000893A910509F4BCC08A3A910509F4BBC085
:1017C0008B3A910509F4BAC08C3A910509F4B9C075
:1017D0008B3B910509F4B8C08C3B910509F4B7C067
:1017E0008D3A910509F4B6C0803B910509F4B5C066
:1017F0008E3A910509F4B4C08F3A910509F4B3C04B
:10180000813B910509F4B2C0823B910509F4B1C056
:10181000833B910509F4B0C0843B910509F4AFC046
:10182000853B910509F4AEC0863B910509F4ADC036
:10183000873B910509F4ACC0883B910509F4ABC026
:10184000893B910509F4AAC08D3B910509F4A9C013
:101850008E3B910509F4A8C08A3B910509F4A7C005
:10186000C0E0D4E49DCFCE019927D3FF03C0EC01A3
:10187000D86C96CFEC01D06C93CFDF70D06A90CF4C
:10188000CE01E4E096958795EA95E1F783702C2FD9
:1018900026952695237040E2249F90011124382B31
:1018A0008C2F8370C1E0D0E002C0CC0FDD1F8A9581
:1018B000E2F7C22BD32BDC6873CFC1E0D0E002C0CB
:1018C000CC0FDD1F2A95E2F730E2939FC00111246F
:1018D000C82BD92BDA6864CFD82FCC27C46FD06A35
:1018E0005FCF8C2F0E94550DC82FD0E0DC2FCC2766
:1018F000CC27DF71D06254CF8C2F8F700E94550D92
:1019000034E0D695C7953A95E1F79C2F9F70C82F84
:10191000CF70C06ED92FB2CFDD27D06641CFC1E8DE
:10192000D0E43ECFC3E8D0E43BCFC2EED4E438CF1E
:10193000C9EED4E435CFCAEED4E432CFC5EBD4E45B
:101940002FCFC6EBD4E42CCFC3EBD4E429CFC4EB28
:10195000D4E426CFC7EBD4E423CFCCECD4E420CF1F
:10196000CDECD4E41DCFC3E8D5E41ACFCAE8D5E462
:1019700017CFC2E9D5E414CFC4E9D5E411CFC1E251
:10198000D6E40ECFC3E2D6E40BCFC4E2D6E408CF50
:10199000C5E2D6E405CFC6E2D6E402CFC7E2D6E47C
:1019A000FFCECFE6D4E4FCCEC0E7D4E4F9CECAE261
:1019B000D6E4F6CE8238910549F1B0F48133910531
:1019C00009F462C048F48932910509F456C08A329C
:1019D000910509F460C008958533910509F446C066
:1019E0008933910599F00895833E910531F138F4DA
:1019F000803E910591F0823E9105B1F00895863EBA
:101A0000910521F1873E910551F1089520917203CE
:101A10002370D9F080EE90E008952091720320FFAA
:101A200014C089E390E008952091720322FF0DC055
:101A300024FD09C083EE90E008952091720322FDF9
:101A400031C024FF02C090E080E00895209172032D
:101A500023FFFBCF24FDF7CF87EE90E00895209180
:101A6000720323FFEECF86EE90E00895209172037B
:101A700025FFEBCF89E290E008952091720325FFC6
:101A8000E4CF85E390E008952091720326FFDDCF37
:101A90008AE290E008952091720326FFD6CF81E379
:101AA00090E0089582EE90E008959091720392FF85
:101AB00006C0282F2871283069F4877F846093FF3F
:101AC00006C0282F2871283161F4877E846194FD37
:101AD000877E0895282F2471243089F78B7F8860B2
:101AE000EECF282F2471243191F78B7E8861EFCFC0
:101AF000CF93C82F90E00E94CE2F80932002909326
:101B00002102282FFC019BEF8E2F821B8C1710F0D7
:101B1000CF9108959193F8CFEF92FF920F931F9377
:101B2000CF93DF9310921F0250912002E52FF09186
:101B3000210240E0A62FB0E07BEF9AEFE92EF12CD6
:101B40009E2F951B981748F040931F02DF91CF916D
:101B50001F910F91FF90EF90089591919B3F81F31A
:101B6000292F30E0691768F08D01021B130B9801D3
:101B7000253031056CF09F0121503109E90178834E
:101B8000DFCFE701C21BD30B9E012A0F3B1FF0CF13
:101B900041E0D6CFAF92BF92CF92DF92EF92FF9209
:101BA0000F931F93CF93DF937C010091200210913C
:101BB000210290911F02F0E0E0E0E41768F09093BA
:101BC0001F02DF91CF911F910F91FF90EF90DF9057
:101BD000CF90BF90AF900895E801CE0FDF1F8881AE
:101BE0008B3F79F45B01AE0EBF1E6701CE0EDF1E88
:101BF000D6013C91D5018C91831719F028833C9331
:101C000091E03196DACFCF92DF92EF92FF921F935D
:101C1000CF93DF937C016B01D42FC22F0E94EE2360
:101C20006AEF70E00E94A02F182F80911F02882376
:101C3000F9F0612F8D2F0E948C0DCC2369F0212F9C
:101C40004D2FB601C701DF91CF911F91FF90EF900B
:101C5000DF90CF900C94CA0D80911F02882379F3F6
:101C6000DF91CF911F91FF90EF90DF90CF9008957B
:101C7000C111E5CFF5CFCF93DF93EC0197FF0CC0F7
:101C8000FB018281882341F00E94660ECE019F777E
:101C90000E94AA0E0E94920E81E0DF91CF910895DA
:101CA0008CE090E00E94053190E0B0E0A0E08093ED
:101CB000260390932703A0932803B0932903089544
:101CC000609126038CE090E00C9419310E9464210D
:101CD00080932A030E94772180912603813089F026
:101CE000882359F0823091F08430B9F08FE39CE979
:101CF0000197F1F700C00000089582EE0E9471176D
:101D0000F5CF88E193E00E94FE07F0CF82EE0E94BB
:101D1000711787E50E94B418E9CF86EE0E94B418C7
:101D200088E1F8CF80912603813071F0882341F05B
:101D3000823031F0843061F080912A030C94742158
:101D400082EE0E945E18F8CF8CE20E94B418F4CFA5
:101D500088E2FBCF0F931F93CF93DF938C01CCE0EE
:101D6000D0E0C8010C2E02C0969587950A94E2F740
:101D70008F700E94BE080E94B4182497CC3F8FEF4A
:101D8000D80779F7DF91CF911F910F9108950F93A5
:101D90001F93CF93DF93EC018B01FB01828188239A
:101DA00071F0C33EFCE5DF0719F188F4C13EECE5B4
:101DB000DE07C9F081E0C23EFCE5DF0789F0B8012B
:101DC000CE01DF91CF911F910F910C943B0EC43E39
:101DD0008CE5D80779F084E0C53EECE5DE0779F7BD
:101DE0008093260302C0109226030E94600EE7CF64
:101DF00082E0F6CF83E0F4CFCF92DF92EF92FF92B2
:101E00000F931F93CF93DF939B01E82FF82F682F39
:101E1000782F332309F46FC0E32EF12C082F10E044
:101E200046E0249FC0011124CFEFD0E0BE010E9404
:101E3000A02FAB01822F90E0880F991F25E5249FEA
:101E4000B001259F700D1124861B970B982F990FB9
:101E5000980FBE016E197F09609FD001619FB00D80
:101E6000709FB00D11248B2F939F90011124232F6D
:101E70003327BE01621B730B609F9001619F300D81
:101E8000709F300D11246E01C91AD108CE9CB0018B
:101E9000CF9C700DDE9C700D1124672F7727C61B19
:101EA000D70BC09F7001C19FF00CD09FF00C112484
:101EB0007F2D4230510541F148F44115510569F03B
:101EC0004130510529F17B2F832F07C04430510544
:101ED00011F128F146305105B1F7F0E0E45EF94F19
:101EE0006491E72FF0E0E45EF94F7491E82FF0E0A1
:101EF000E45EF94F8491DF91CF911F910F91FF9094
:101F0000EF90DF90CF900895EB2F8F2D7F2FE5CFAF
:101F10007E2FE32FE2CFEF2D7B2F8F2FDECF732F7E
:101F2000EB2FFBCF0895CF93DF93762FE901682F36
:101F3000842F0E94FC0E362F272F398328838A8313
:101F4000DF91CF91089580912B03982F9E7F29F4E4
:101F50008170826080932B0308958A34E8F3817046
:101F60008864F8CF88E090E00C940D31CF92DF9236
:101F7000EF92FF926B017C010E94A30FB701A601B3
:101F800088E090E0FF90EF90DF90CF900C942B31A1
:101F9000EBE2F3E083E0808311828FEF828383831F
:101FA000148260817181828193810C94B60F80913B
:101FB0002B0380FF02C08695089580E008958091EC
:101FC0002F03833018F48F5F80932F0360912B03CE
:101FD00070912C0380912D0390912E030C94B60FD9
:101FE00080912F03882319F0815080932F036091F3
:101FF0002B0370912C0380912D0390912E030C9450
:10200000B60F8091250224E0829FC0011124805DDB
:102010009C4F60910A0170E020912B03E0E3F3E014
:1020200020FD0C94D214118210821282349623E087
:10203000EC36F207C1F7F5CF90912B0390FF0CC05F
:10204000E0E3F3E0818360834283349693E0EC36EF
:10205000F907C1F70C9401100895CF93DF9300D0D6
:1020600000D0CDB7DEB790912B0390FF0AC09E0140
:102070002F5F3F4F0E94930F4B8169818A810E949D
:102080001C100F900F900F900F90DF91CF9108953B
:10209000CF93DF93EC01EC81F0E0E95EFA4F4491DD
:1020A000EBE2F3E0628181810E942D108C818F5FD1
:1020B0008C83DF91CF910895CF93DF93EC01EBE216
:1020C000F3E0438162818C810E942D108C818F5FAF
:1020D0008C83DF91CF9108950F931F93CF93DF935C
:1020E00000D000D0CDB7DEB78C01809122028111E3
:1020F0000AC09E012F5F3F4F4FEF6FEF0E94930F7B
:102100008A8180932202F8018481813071F08823D2
:1021100039F040E0823011F44091220280E003C0A7
:102120008091220240E060E004C06091220240E021
:1021300080E00E941C10F801848190E0019663E029
:1021400070E00E94B42F84830F900F900F900F9037
:10215000DF91CF911F910F9108955F926F927F92BF
:102160008F929F92AF92BF92CF92DF92EF92FF92A7
:102170000F931F93CF93DF9300D000D0CDB7DEB77E
:10218000182F762E042F622E90912B0390FF29C0DA
:10219000E92FE695AE2FB0E0A053BE4F8C9180930F
:1021A0002D029E7F923089F59E012F5F3F4F812F38
:1021B0000E94930F4B8169818A810E941C101093A9
:1021C0002C0370922D0300932E03662051F0609132
:1021D0002B0370912C0380912D0390912E030E946C
:1021E000B60F0F900F900F900F90DF91CF911F912E
:1021F0000F91FF90EF90DF90CF90BF90AF909F90A6
:102200008F907F906F905F900895823019F40091C5
:102210002E03D5CF863019F410912C03D0CF8930FE
:10222000D9F3893161F6E9518E2F8170582EE695E8
:10223000F0E0E95EF94FA590B490BB2480E3E82E6E
:1022400083E0F82ED12CC12C9FE0892E912CC60161
:10225000B4010E94A02F812F511013C0860F970147
:10226000402F672D0E94930FCA0CDB1C84E0E80E00
:10227000F11C8CE6E81683E0F80649F70E9401108D
:102280009ECF861BECCFEBE2F3E09181282F4381B8
:1022900062818CE0890F0C94AD1081E00C944311A5
:1022A000EBE2F3E09181282F4381628184EF890F73
:1022B0000C94AD1081E00C945011EBE2F3E06281DC
:1022C0002FEF620F08F46FEF282F438181810C9468
:1022D000AD1081E00C945D11EBE2F3E062812FEF31
:1022E000621B08F460E0282F438181810C94AD10BB
:1022F00081E00C946C11EBE2F3E043812CE0420F9F
:1023000008F44FEF282F628181810C94AD1081E099
:102310000C947B11EBE2F3E043812CE0421B08F4C8
:1023200040E0282F628181810C94AD1081E00C94F3
:102330008A1120E00C94AD10EF92FF921F93CF937F
:10234000DF93EC0180E3E82E83E0F82E10E08C812F
:10235000970140912E0360912D03810F0E94930FEE
:102360001F5E84E0E80EF11C1F3F89F70E940110F8
:102370009A818C8190FF08C08F5F8C83DF91CF9111
:102380001F91FF90EF9008958150F7CFCF92DF9289
:10239000EF92FF920F931F93CF93DF93FC01828103
:1023A000DD24DA9480FD02C0DD24D39400E313E041
:1023B000D0E0C0E0F80111821082128294E0E92E90
:1023C000F12CC12C809124028C0D87FD815F082E99
:1023D000000C990B8C179D0791F480912E038E9D14
:1023E000A0018F9D500D1124559547955595479502
:1023F000980160912D0380912C030E94930FCD0CC6
:10240000F1E0EF1AF108F1F621960C5F1F4FCF3083
:10241000D10581F60E9401108091240291E0D91229
:1024200010C081110CC08EE080932402DF91CF9107
:102430001F910F91FF90EF90DF90CF900895815002
:10244000F3CF90E00196BE010E94B42FEDCF0F9321
:102450001F93CF93DF93C0E3D3E0FE01118210827C
:102460001282349683E0EC36F807C1F710E000E002
:1024700080912302082E000C990B081719078CF184
:1024800080910901082E000C990B801791074CF1DF
:102490009E0140912E0360912D0380912C030E9498
:1024A000930F0F5F1F4F24960F30110509F70E94FD
:1024B00001108091080190912302980F90932302BC
:1024C00020910901280F20930901121614F49E305F
:1024D0001CF0819580930801DF91CF911F910F919E
:1024E0000895198218821A82DCCFEF92FF920F931F
:1024F0001F93CF93DF93EC018C819D8101968170B6
:1025000099279D838C8380E3E82E83E0F82E10E0EA
:1025100005E5812F86952C813D81820F932F911D9A
:102520008170970140912E0360912D03809F802D33
:1025300011240E94930F1F5F84E0E80EF11C1F30EE
:1025400041F7DF91CF911F910F91FF90EF900C9485
:102550000110EF92FF920F931F93CF93DF938C01A3
:10256000C0E3D3E0F12CE12CF801948160912D03BC
:1025700080912C03F7E0EF16F104FCF49923F9F0B5
:102580009E0140912E030E94930F2FEFE21AF20A50
:1025900024968FE0E816F10439F70E940110F80143
:1025A000848190E00196817099278483DF91CF9197
:1025B0001F910F91FF90EF900895992309F39E01C9
:1025C00040E0E1CFEBE2F3E080818E7F80836081A9
:1025D0007181828193810E94B60F10922E022FEF9B
:1025E00080E792E0215080409040E1F700C0000079
:1025F0000C94011060912B03669570E04BE050E065
:102600008BE091E00E94F830892B19F481E08093EF
:102610002E020E94EE2390932702809326020895B3
:1026200090912B0390FF35C09170811128C092606A
:1026300090932B03662351F060912B0370912C0330
:1026400080912D0390912E030E94B60F60912B0371
:10265000669570E04BE050E08BE091E00E94F8302E
:10266000892BA1F010922E0281E0809329024091E3
:102670002E0360912D0380912C030C9499118532C7
:1026800010F09864D5CF880F982BD2CF0E94FA1201
:10269000EBCF0895682F90912B03969581E0890FD9
:1026A000853208F081E00C94101381E00C944A13F9
:1026B000682F90912B0396958FEF890F09F484E290
:1026C0000C94101381E00C94581361E00C941013D7
:1026D000EBE2F3E080818160808386950C94651342
:1026E00080912B0380FD0C94E2120C94681360E03F
:1026F0000C94101380912C02811133C08091F4024C
:1027000081608093F4020E946322811104C00E94C0
:10271000DD220E94C80F0E94B20F60932B037093BA
:102720002C0380932D0390932E036E7F61F40E94FF
:10273000C80F0E94B20F60932B0370932C038093F9
:102740002D0390932E030E94A30F10922E028091CE
:102750002B0380FF03C086950E94771381E080934E
:102760002C0208950F931F93CF93DF9380912E0235
:10277000882309F48DC080912D02E0912B03E6950A
:10278000E81BE09328028230C9F5F0E0ED5EFA4FD5
:10279000E491CE2FD0E008E410E180912902882353
:1027A00089F0109229020E94EE239E012095309517
:1027B000820F931F909327028093260210922B0280
:1027C00010922A0280912602909127020E94FA23F9
:1027D0008C179D0708F45CC0E0912602F091270257
:1027E000CE0FDF1FD0932702C093260286E292E02D
:1027F000F801DF91CF911F910F910994863049F430
:10280000F0E0E05FFA4FE491CE2FD0E00CE510E16C
:10281000C4CF893051F4E695F0E0E35FFA4FE491DC
:10282000CE2FD0E00CE911E1B8CF8F3051F4E6950E
:10283000F0E0E65FFA4FE491CE2FD0E006EC11E134
:10284000ACCF853149F4F0E0E95FFA4FE491CE2F47
:10285000D0E007E212E1A1CFC8EED3E005E712E134
:10286000883109F49ACF833239F4E5E0F5E0C59177
:10287000D4910CE610E191CFC4EFD1E009EA12E166
:10288000843209F48ACFC0EDD7E002E91FE085CF9A
:10289000DF91CF911F910F9108958823B9F051983E
:1028A000599A5098589A95E09A95F1F70000509AE5
:1028B000589895E09A95F1F70000882311F0519A05
:1028C000599885E08A95F1F700000895519A599832
:1028D000E8CF8BB18C7F8BB95098589A5198599A00
:1028E00085E08A95F1F7000008958AB18C7F8AB956
:1028F00085E08A95F1F70000519A599885E08A950C
:10290000F1F70000509A589885E08A95F1F7000099
:1029100008955098589A85E08A95F1F700005198EB
:10292000599A85E08A95F1F700000895CF93DF93D7
:10293000D82FC8E08D2F80780E944D14DD0FC15034
:10294000C9F780E00E944D1485E08A95F1F70000F8
:1029500085E08A95F1F7000080E0DF91CF9108953E
:102960003BB1242F209523233BB1432B3FB7F89451
:10297000680F791F8617970711F43FBF0895FC0170
:102980005191CF01E8E04BB9000000C057FF2BB9CF
:10299000550F000000C000C000C02BB900C0EA9570
:1029A00091F7E8CFAF92BF92CF92DF92EF92FF9272
:1029B0000F931F93CF93DF937C018B01CFB6D09001
:1029C000BC00F8948091BC008B7F8093BC000E9477
:1029D00069140E94751484E80E949614000F111F58
:1029E000000F111F5701A00EB11EE701CA15DB052C
:1029F000A9F40E948914CFBED092BC00579A40E837
:102A0000B801C701DF91CF911F910F91FF90EF9017
:102A1000DF90CF90BF90AF900C94B01489910E943A
:102A20009614E4CF0F931F93CF93DF93C62FD42F29
:102A3000022FFC0182818823C9F0609331020E9439
:102A4000EE239093300280932F0280E28C0F883027
:102A500008F050C0C77081E001C0880FCA95EAF73E
:102A6000DF91CF911F910F910C94BC1810913102FE
:102A7000161335C080912F02909130020E94FA23E4
:102A80008C32914060F5C0E2CD0F1D17B9F080E2A5
:102A9000810F883040F4177081E001C0880F1A95CB
:102AA000EAF70E94C318C83048F481E09D2F977060
:102AB00001C0880F9A95EAF70E94BC18802F0E94E7
:102AC000B418C830B8F4D77081E001C0880FDA9527
:102AD000EAF7DF91CF911F910F910C94C31880E218
:102AE0008C0F883038F4C77081E001C0880FCA9518
:102AF000EAF7EFCFDF91CF911F910F9108959C01DD
:102B0000CB01203F4CE5340731F190F4283DFCE542
:102B10003F07E9F0293D4CE5340769F1273D3C4585
:102B200079F426E241EE61EE0E94121580E00895EC
:102B3000223FFCE53F07B9F090F0233F3C45B9F058
:102B4000FC0182818823D1F010923102089527E29E
:102B500045EE65EEE9CF26E241EE60EEE5CF27E2F5
:102B600045EE64EEE1CF26E241EE62EEDDCF27E2F4
:102B700045EE66EED9CF28E241E0EBCF81E0089543
:102B800090933702809336020895E0913602F091D7
:102B90003702309721F00190F081E02D099480E018
:102BA0000895E0913602F0913702309799F0209124
:102BB0002701222359F02091720327FF07C0DC016F
:102BC0002C9111962C93119725E02C930280F38180
:102BD000E02D09940895E0913602F0913702309784
:102BE00039F022E0DC012C930480F581E02D09947A
:102BF000089520913402309135022817390771F079
:102C00009093350280933402E0913602F0913702BE
:102C1000309721F00680F781E02D099408952091E6
:102C20003202309133022817390771F09093330242
:102C300080933202E0913602F0913702309721F012
:102C40000084F185E02D0994089585B7806885BFDB
:102C500085B7806885BF0895089508950C942C1653
:102C600008950C9430160E9425160E942D160C947F
:102C70002E1681E008950E94E5230E942B050E94F4
:102C80007A240E947A130C943116BF92CF92DF926D
:102C9000EF92FF920F931F93CF93DF93CDB7DEB7E1
:102CA0002A970FB6F894DEBF0FBECDBF0E9458051D
:102CB0000E943916882309F471C089E3C82E82E086
:102CC000D82E10E000E0B02E802F0E94B405E82E30
:102CD000F601F1906F01F81609F45AC08091F402E0
:102CE00081FD0E94BA0590E080E0FE242F2D30E0A7
:102CF000482FB901082E02C0759567950A94E2F72E
:102D000060FF41C08E83BF8281E090E06C0102C011
:102D1000CC0CDD1C4A95E2F72E2D30E02C213D2114
:102D2000232B09F480E088870E94EE238160782FAE
:102D30009A8789874E815F8168858A850E942717D7
:102D4000F801E75CFD4F80818C2580830E94082676
:102D50000E94C51590913802891789F10E94C51506
:102D6000809338022A960FB6F894DEBF0FBECDBF0F
:102D7000DF91CF911F910F91FF90EF90DF90CF9057
:102D8000BF900C94CF0801968630910509F0B0CF22
:102D90000F5F1F4F0E30110509F095CF8FEF89831C
:102DA0008A831B820E94EE238160782F9D838C830F
:102DB00049815A816B818D810E942717C7CF2A963E
:102DC0000FB6F894DEBF0FBECDBFDF91CF911F913C
:102DD0000F91FF90EF90DF90CF90BF900895CF9329
:102DE000DF93DC018C91682F70E021E030E001C0BE
:102DF000220F8A95EAF711964C91119750E0EA015B
:102E0000C95BDD4F988112968C9112978823C9F087
:102E1000809157028823C1F086E0849FF001859F4E
:102E2000F00D1124E60FF71FEE0FFF1FE85DFE4FB8
:102E3000408151814D935C93292B2883DF91CF9161
:102E40000895892F8223E6CF20952923F6CFCF93AB
:102E5000DF93CDB7DEB72B970FB6F894DEBF0FBE6A
:102E6000CDBF4F83588769877A878B878A859B85F3
:102E7000892B21F0CA0189238F3FE1F41E821D8234
:102E800085E0FE013796DE01119601900D928A953C
:102E9000E1F749815A816B817C818D819E810E94FD
:102EA000581E2B960FB6F894DEBF0FBECDBFDF9134
:102EB000CF910895CE0107960E94EF16DFCFFC0157
:102EC000808191810E94112192959F70963041F4EA
:102ED0008091570291E08927809357029093560280
:102EE0000895CF93C82F882309F4E6C08238C1F42F
:102EF0000E94C51581FDE0C089E30E943F210E9428
:102F0000B3212FEF81EE94E0215080409040E1F713
:102F100000C0000089E30E944621CF910C94B321A8
:102F20008338A1F40E94C51580FDC6C083E50E94C8
:102F30003F210E94B3212FEF81EE94E02150804089
:102F40009040E1F700C0000083E5E5CF8438A1F4AC
:102F50000E94C51582FDB0C087E40E943F210E94F7
:102F6000B3212FEF81EE94E0215080409040E1F7B3
:102F700000C0000087E4CFCF8CEF8C0F813A48F47B
:102F80008C2F0E940328811197C08C2F0E943F2113
:102F9000C4CF80E28C0F883048F4C77081E001C054
:102FA000880FCA95EAF70E946721B7CF8BE58C0F8F
:102FB000833068F481E890E0C53A31F083E890E02E
:102FC000C63A11F482E890E0CF910C94F91588E5A7
:102FD0008C0F873108F068C082EE90E0C83A09F49F
:102FE00060C089EE90E0C93A09F45BC08AEE90E0D7
:102FF000CA3A09F456C085EB90E0CB3A09F451C0C7
:1030000086EB90E0CC3A09F44CC083EB90E0CB3BEC
:1030100009F447C084EB90E0CC3B09F442C087EB55
:1030200090E0CD3AF1F18CEC90E0C03BD1F18DEC29
:1030300090E0CE3AB1F183E891E0CF3A91F18AE89D
:1030400091E0C13B71F182E991E0C23B51F184E929
:1030500091E0C33B31F181E292E0C43B11F183E2A4
:1030600092E0C53BF1F084E292E0C63BD1F085E20C
:1030700092E0C73BB1F086E292E0C83B91F087E274
:1030800092E0C93B71F08FE690E0CD3B51F080E7D4
:1030900090E0CE3B31F090E080E0CA3B11F48AE250
:1030A00092E0CF910C940F16C03F30F08C2F0E940D
:1030B0001625CF910C94FD25CF910895882309F40E
:1030C00052C0823871F40E94C51581FF4CC089E35B
:1030D0000E943F210E94B32189E30E9446210C9463
:1030E000B321833859F40E94C51580FF3CC083E5A5
:1030F0000E943F210E94B32183E5EFCF843859F429
:103100000E94C51582FF2FC087E40E943F210E94C4
:10311000B32187E4E2CF9CEF980F913AF0F290E26E
:10312000980F983050F4877091E001C0990F8A95FC
:10313000EAF7892F0E946D21D2CF9BE5980F93303B
:1031400020F490E080E00C94F91598E5980F973101
:1031500020F490E080E00C940F16803F20F00E9455
:103160007E250C94FD250895CF93C82F0E947117DA
:103170008C2FCF910C945E18882321F00E94672138
:103180000C94B3210895882321F00E946D210C94A2
:10319000B32108958F929F92AF92BF92CF92DF9208
:1031A000EF92FF920F931F93CF93DF937C01D62F63
:1031B000C72FFC01058102950F70128111110E9429
:1031C00087210E945D21C82E882371F01123B1F060
:1031D00080E28D0F883090F082E00E94FE210E94F4
:1031E0005D2191E0C82EC926DC2ED2949FE0D92221
:1031F000ED2DF0E0EF59FE4C0C94C82FC12CF4CF0C
:103200000C2F0F70C07F11F00295007F1123A9F0E1
:10321000002359F080E28D0F883010F0D11109C0E1
:10322000802F0E9467210E94B3218D2F0E94711769
:1032300014C0802F0E947A21F6CF8D2F0E945E1835
:10324000002359F080E28D0F883010F0D11133C087
:10325000802F0E946D210E94B321F8E0DF1639F023
:10326000DF1648F086EF8D0D8F70823020F40E94BB
:10327000C5150E94CF08CC2009F427C20E9459210D
:1032800080FD23C2F70112820E9453210E94DC1F9D
:10329000C7010E94721B0E945321DF91CF911F91A1
:1032A0000F91FF90EF90DF90CF90BF90AF909F90E5
:1032B0008F900C94FD1F802F0E948021CCCFFC2F7B
:1032C000FF70BF2EC07FC03219F0B29480EFB822D9
:1032D000DD2339F0D13019F1112359F1002321F107
:1032E000A4CF112381F0011106C00E949A218B29DD
:1032F0000E94BC18B2CF0130C1F70E949A218B29DD
:103300000E94A021AACF011106C00E94A9218B2DE5
:103310000E94C318A2CF013009F49FCFF6CF11232A
:1033200029F0023008F099CF8B2DE2CF011195CF13
:10333000EECF002361F38D2F0E945E188ECF8C2F6D
:1033400086958695837069F0813009F086CF8D2F40
:103350009C2F9370111102C090E080E00E940F1624
:103360007CCF8D2F9C2F9370111102C090E080E0D4
:103370000E94F91572CF112309F1D53F99F0D63F7C
:10338000B9F0D43F49F480916C0390916D03816052
:1033900090936D0380936C038D2F0E9416250E94DD
:1033A000FD255BCF80916C0390916D038260F0CF1F
:1033B00080916C0390916D038460EACFD53F89F0D2
:1033C000D63FA9F0D43F49F480916C0390916D03EE
:1033D0008E7F90936D0380936C038D2F0E947E25CA
:1033E000DECF80916C0390916D038D7FF2CF809141
:1033F0006C0390916D038B7FECCF8C2F837009F061
:1034000047C011112ACF2D2F229526952770220F04
:10341000220F6D2F6F70862E912CB12CA12C022EB5
:1034200004C0880C991CAA1CBB1C0A94D2F760E04B
:1034300070E0CB01D4FF0FC06FE070E080E090E05F
:1034400004C0660F771F881F991F2A95D2F76095D1
:10345000709580959095C695C695C370C23051F011
:1034600080F4682979298A299B29C13071F00E944A
:103470008E1FF3CE682979298A299B290E94A01FD3
:10348000ECCE0E948E1FC501B4010E947C1FE5CEC8
:103490008695112311F08C2F8170882309F4DDCEDD
:1034A0002D2F229526952770220F220F6D2F6F70DA
:1034B000862E912CB12CA12C022E04C0880C991CB4
:1034C000AA1CBB1C0A94D2F760E070E0CB01D4FFC9
:1034D0000FC06FE070E080E090E004C0660F771FDF
:1034E000881F991F2A95D2F76095709580959095C1
:1034F000C695C695C370C23051F080F46829792909
:103500008A299B29C13071F00E945320A6CE6829D8
:1035100079298A299B290E9465209FCE0E945320E9
:10352000C501B4010E94412098CEE0E2ED0FE531E3
:1035300008F04CC0F0E0EF58FE4C0C94C82FDF7040
:103540008C2F8F71112321F00E94DC1F8D2FD0CE84
:103550000E94FD1F8D2FDCCE112339F001117DCE8D
:103560008C2F8F710E94202078CE023008F075CE0B
:10357000F7CF8C2F8F71112339F00E94DC1F6DCE95
:103580008C2F8F711123C9F30E94FD1F66CE11236A
:1035900029F08C2F8F710E94C71F5FCE0E94C21F1F
:1035A0005CCE112349F0CF718C2F0E94DC1F63E0A9
:1035B0008C2F0E94E92151CE81E00E94FE21023031
:1035C00008F44BCE82E00E94FE2147CE112329F061
:1035D00001112BCE8C2F8F71D0CF002369F0D933FE
:1035E00009F0A9CE2FEF87EE93E021508040904064
:1035F000E1F700C000009FCE8C2F8F71C5CF4C2FFC
:103600004F706D2FC7010E946C070E94F21E25CEDD
:10361000D23F71F1C8F4D03F01F1D13FB9F18091AF
:103620005602002309F446C0882341F080915702D6
:1036300091E0892780935702109256028D2F112313
:1036400089F10E94711716C0D43FD9F078F0D53FA8
:1036500031F711110FC081E006C0112359F080919C
:10366000570291E089278093570204C081E0182710
:10367000109357024C2F4F706D2FC7010E94F70A0D
:10368000ECCD1111F7CF10925702F4CF112339F07E
:1036900080915602882319F310925602EBCF002333
:1036A000F1F2E8CF0E945E1886E0F70111928A9548
:1036B000E9F7E0CF8823F1F21111DCCF80915702B6
:1036C00091E0892780935702E7CFDF91CF911F9137
:1036D0000F91FF90EF90DF90CF90BF90AF909F90B1
:1036E0008F9008950F931F93CF93DF93EC018B81FD
:1036F0009C81892B29F08881998189238F3F29F426
:10370000DF91CF911F910F910895CE010E94E108A2
:103710008823B1F3688179818A810E941B218C0101
:103720000E9477200E94791FB801CE01DF91CF91CE
:103730001F910F910C94CA180E9487210E94972113
:103740000E94B3210E949F260E94FD2590E080E008
:103750000E94F91590E080E00C940F160E944D2114
:103760000C949C1B0E9477210C94AE1BE92FE295D0
:10377000EF70E250EE3070F4F0E0EA57FE4C0C943B
:10378000C82F803F19F020F4803E20F481E0089596
:10379000843FE1F380E00895803EC0F3813FD1F79C
:1037A000F5CF93FB882780F908950E9411210C948E
:1037B000B61BCF93DF9300D000D00F92CDB7DEB70A
:1037C0000F900F900F900F900F90DF91CF91089571
:1037D000CF93DF9300D000D000D0CDB7DEB72696D0
:1037E0000FB6F894DEBF0FBECDBFDF91CF91089525
:1037F0001F93CF93DF93C091580216E08091590236
:103800008C1304C0DF91CF911F910895D0E01C9FCD
:10381000F0011D9FF00D1124E65AFD4F40815181AA
:1038200062817381848195810E94E81B2196C77013
:10383000E5CF40918A0250918B0260918C02709189
:103840008D0280918E0290918F020C94E81B1F9341
:10385000CF93DF9380918F02807FC1F480918C029F
:103860008823A1F080915802C091590260918A0288
:1038700070918B0240918D0250918E02D62FD723EA
:10388000DA01A095B09516E0C81304C0DF91CF917E
:103890001F91089590E04115510511F0DF3F31F47B
:1038A00001968770F1CF2A0F3B1F17C0189FF001B8
:1038B000199FF00D1124E65AFD4F21812713F0CFF7
:1038C00020812613EDCF22812111EACF238134817B
:1038D0002417350740F3241B350B2C32314000F7F9
:1038E00020918F022F70206120938F0226E0289F65
:1038F000F001299FF00D1124E15AFD4F80818F7056
:10390000806180838AE892E00E94721BDF91CF91F0
:103910001F910C94F81BBF92CF92DF92EF92FF920F
:103920000F931F93CF93DF93CDB7DEB761970FB699
:10393000F894DEBF0FBECDBF8C0185E0F801DE013B
:103940001D9601900D928A95E1F7D8014C91119640
:103950005C9111971296EC90129780918D02909144
:103960008E02009709F485C120918A0230918B0262
:10397000622F63236F3F09F47CC11396CD90DC90D6
:10398000B0908C02BB2009F416C1C816D90658F0B5
:10399000F601E81BF90BCF01FF24F3948C32914020
:1039A00058F0F12C09C0809590958C0D9D1DFF2439
:1039B000F3948C329140A8F780918F02982F907FDA
:1039C000FF2009F4B3C091117AC0FE2C351324C036
:1039D000241322C0E11020C08F70806180938F0279
:1039E0000E94191C8AE892E00E94721B80918F024B
:1039F000D80115968C938F2D61960FB6F894DEBF83
:103A00000FBECDBFDF91CF911F910F91FF90EF902F
:103A1000DF90CF90BF900895CD2829F0852F842383
:103A20008F3F09F042C180E0B82FB170DB2E80FFDC
:103A30003CC0809158022091590236E0821315C093
:103A40004D875E878D859E850E941121292F2295A5
:103A50002F702230F0F0243018F59F70F1F0F8014B
:103A60009581907FD1F4D12C1EC090E0389FF00159
:103A7000399FF00D1124E65AFD4F6181651306C090
:103A80006081641303C06281E6120FC001968770E3
:103A9000D5CF9F7011F0882331F3805E883018F302
:103AA000C8010E94721BFD2CA6CFEE2009F4A3CF03
:103AB00080918F02816080938F02F12C9CCF35130F
:103AC00006C0241304C0D801EE2009F4A8C04D8715
:103AD0005E878D859E850E94D51B882319F1EE2077
:103AE00009F180918F02803270F020918A0230912A
:103AF0008B0238872F831986DB86CA868C87CE0196
:103B000007960E94721B86E0F801AAE8B2E00190D5
:103B10000D928A95E1F70E94271C0E94191CFF2430
:103B2000F39469CFC8010E94721BF9CF911113C0A1
:103B30007C2DD98AC88A6E2D89890E94D91B8AE872
:103B400092E00E94721B86E0EAE8F2E0DF011D923B
:103B50008A95E9F771C0351312C0241310C0E11023
:103B60000EC0F8018583C8010E94721BEAE8F2E0EA
:103B700086E0DF011D928A95E9F7FB2C3CCF4D874B
:103B80005E878D859E850E94D51B882359F2EE2085
:103B900049F280918F02803208F4B5CF20918A02D9
:103BA00030918B023A8329831B82DD82CC828E8303
:103BB000CE010196A6CFC816D90680F0F601E81B03
:103BC000F90BCF018C32914080F0F12C7C2DD98AF9
:103BD000C88A6E2D89890E94D91BB5CF8095909592
:103BE0008C0D9D1D8C32914080F7FE2CEE2009F447
:103BF00099CF35132DC024132BC080918F0280FDE7
:103C00001EC0982F907FD9F0D80115968C931597E8
:103C1000903F39F0982F907F905F8F70892B159689
:103C20008C93C8010E94721B86E0F801AAE8B2E0FA
:103C300001900D928A95E1F70E94191CDCCE86E076
:103C4000F801AAE8B2E001900D928A95E1F7D3CE8F
:103C50004D875E878D859E850E94D51B811153CF30
:103C600080918F02816080938F02C8010E94721B35
:103C7000C2CEEE2009F456CF4D875E878D859E8596
:103C80000E94D51BF82E882309F44CCF86E0F8015A
:103C9000AAE8B2E001900D928A95E1F78AE892E0F5
:103CA0000E945F170E94271CC7CF81E08E25BCCEE3
:103CB0001F93CF93DF93CDB7DEB72C970FB6F89451
:103CC000DEBF0FBECDBF4F83588769877A878B874A
:103CD0009C87CE0107960E948B1C882369F08A85F9
:103CE0009B85892B39F04F815885842F85238F3F01
:103CF00009F071C016E05FC086E0FE013796DE0174
:103D0000119601900D928A95E1F78A859B85892B02
:103D100089F388859F8189238F3F61F32091590220
:103D200030E0C901019687709927409158024817E1
:103D3000190671F40E94B21B109259021092580297
:103D400086E0EAE8F2E0DF011D928A95E9F7D2CF3A
:103D500096E0929FD001939FB00D1124A65ABD4FBB
:103D6000FE01319601900D929A95E1F780935902E8
:103D70000E94F81BBFCF819FC0011124865A9D4F1E
:103D80000E948B1C8823E9F0E09158021E9FF001ED
:103D90001124E65AFD4F40815181628173818481F3
:103DA00095810E94E81B8091580290E001968770EF
:103DB0009927809358028091580290915902891353
:103DC000DACF2C960FB6F894DEBF0FBECDBFDF91D1
:103DD000CF911F91089569857A858B859C850E9476
:103DE000E81B88CFEF92FF920F931F93CF93DF933F
:103DF0008C01892B81F0F12CEE24E394E8012196CB
:103E0000F8018491843770F4843008F05FC0813009
:103E1000B1F08230A1F1DF91CF911F910F91FF900E
:103E2000EF900895853709F44CC008F43DC09CE735
:103E3000980F903780F78F770E945E1849C00E5F09
:103E40001F4FFE01849190E2980F983060F48770C4
:103E5000FE2D01C0FF0F8A95EAF78F2F0E948A215D
:103E60000E94B32102C00E9471178F2D815030F241
:103E7000EFE9FFE03197F1F700C00000F7CF0E5FE8
:103E80001F4FFE01849190E2980F983050F4877094
:103E9000FE2D01C0FF0F8A95EAF78F2F0E94902117
:103EA000DFCF0E945E18E1CF0E5F1F4FFE01C4916D
:103EB000C150D8F28FE99FE00197F1F700C00000F0
:103EC000F7CF0E5F1F4FFE01F490CFCF0E94711706
:103ED0008E01CBCF08950C946A1F0E946B1F6093D4
:103EE000CB027093CC028093CD029093CE020C94BF
:103EF0009C1B08950C946D1F0F931F930091CB0290
:103F00001091CC022091CD023091CE02602B712B0A
:103F1000822B932B1F910F910C946D1F0F931F9366
:103F20000091CB021091CC022091CD023091CE02B3
:103F300060237123822393231F910F910C946D1F93
:103F40000F931F930091CB021091CC022091CD02D0
:103F50003091CE0260277127822793271F910F91FE
:103F60000C946D1F0C946A1F0C94B21F0E94B41F16
:103F70006093C7027093C8028093C9029093CA02EB
:103F80000C949C1B60E070E0CB010C94B61F0F9367
:103F90001F9341E050E060E070E08A019B0104C0A3
:103FA000000F111F221F331F8A95D2F7C901B801D4
:103FB0001F910F910C94B61F0F931F9341E050E097
:103FC00060E070E004C0440F551F661F771F8A959C
:103FD000D2F78091C7029091C802A091C902B09116
:103FE000CA028A019B01082B192B2A2B3B2BC901E2
:103FF000B8011F910F910C94B61F0F931F9341E0CE
:1040000050E060E070E004C0440F551F661F771F4A
:104010008A95D2F7CB01BA016095709580959095FD
:104020000091C7021091C8022091C9023091CA02C2
:1040300060237123822393231F910F910C94B61F49
:104040000F931F9341E050E060E070E004C0440F24
:10405000551F661F771F8A95D2F78091C7029091EE
:10406000C802A091C902B091CA028A019B01082727
:1040700019272A273B27C901B8011F910F910C94DA
:10408000B61F0F931F930091C7021091C802209191
:10409000C9023091CA02602B712B822B932B1F9186
:1040A0000F910C94B61F0F931F930091C7021091AC
:1040B000C8022091C9023091CA0260237123822371
:1040C00093231F910F910C94B61F0F931F93009190
:1040D000C7021091C8022091C9023091CA0260271C
:1040E0007127822793271F910F910C94B61F089573
:1040F000E92FEE0FE90FEE0F8E0F982F977041E02A
:1041000001C0440F9A95EAF786958695869595E0C5
:10411000899FF0011124E057FD4F30E020E070E06E
:104120005191DF011197CB01022E02C09695879520
:104130000A94E2F7817081958527842385278C93E3
:104140002F5F3F4F2530310559F70895E92FEE0FC6
:10415000E90FEE0F8E0F982F9770869586958695AE
:1041600025E0829FF0011124E057FD4F50E040E030
:1041700080E0219130E0092E02C0369527950A94FF
:10418000E2F721703327042E01C0220F0A94EAF7C8
:10419000822B4F5F5F4F4530510559F70895BF920D
:1041A000CF92DF92EF92FF920F931F93CF93DF9303
:1041B0008C01C090C702D090C802E090C902F09074
:1041C000CA028091CB029091CC02A091CD02B09115
:1041D000CE02C82AD92AEA2AFB2ACFE1D0E0BC2E97
:1041E000D701C6010C2E04C0B695A7959795879563
:1041F0000A94D2F780FD0EC0219788F7B12C8B2D41
:10420000DF91CF911F910F91FF90EF90DF90CF90B2
:10421000BF900895B8018C2F0E94140B019761F391
:10422000EECFCF93DF93EC010E94CF20BE01DF9150
:10423000CF910C94140B1F93CF93DF93EB019091CC
:104240005502992331F0CB01DF91CF911F910C944E
:104250001121882379F0CB010E94CF20182F682FDD
:10426000CE010E947820BE01812FDF91CF911F9156
:104270000C94140BCB010E94A620182FF4CF682FAA
:1042800080911601909117010C944323682F80911F
:104290001601909117010C944E2380911601909174
:1042A00017010C9459238091CF02859585958595AA
:1042B00008958091CF02877008959091CF029770F2
:1042C00081E009F480E008958091F30208959091CF
:1042D000F302892B8093F302089580959091F30265
:1042E00098239093F30208958093F3020895109217
:1042F000F30208959091F202892B8093F2020895BF
:1043000080959091F20298239093F2020895109272
:10431000F20208959091F102892B8093F1020895A1
:1043200080959091F10298239093F1020895109254
:10433000F10208958091D002089508950C949D2172
:104340009091D002981721F08093D0020C949E2176
:1043500008958091D002882329F01092D00280E045
:104360000C949E210895E0911601F091170180911F
:10437000F3028083E0911601F09117018081909102
:10438000F202892B8083E0911601F0911701808160
:104390009091F102892B80839091D002992381F032
:1043A000E0911601F09117018081892B8083809123
:1043B0001601909117010E94DF2281110E94A9210C
:1043C00080911601909117010C94D11508950C94C9
:1043D000E62198E0899F90011124622B6093CF021F
:1043E0000E94DC1F8091CF028595859585950C9460
:1043F000E7211092CF0280E00C94E7219091CF0248
:10440000809589238093CF02282F277071F4282F5D
:10441000082E000C330B9217130639F085958595FD
:1044200085950E94FD1F0C94F9210895CF92DF928B
:10443000EF92FF926C01EE24FF2420E0C114D1041E
:10444000E104F10419F0C701B60120E1C72ED82E0E
:10445000E92EFF24C114D104E104F10419F0285F0E
:10446000C701B6016B017C0154E0F694E794D79440
:10447000C7945A95D1F7C114D104E104F10419F09D
:104480002C5FC701B6016B017C0142E0F694E79412
:10449000D794C7944A95D1F7C114D104E104F1042B
:1044A00019F02E5FC701B6019695879577956795A8
:1044B000672B682B692B09F02F5F822FFF90EF90FD
:1044C000DF90CF90089590E080E00E94133121E0CA
:1044D0008D3E9E4F09F020E0822F089582E090E00B
:1044E0000C94053183E090E00C94053184E090E079
:1044F0000C940531682F84E090E00C941931AB01E5
:10450000BC018FE090E00C942B31AB01BC0183E146
:1045100090E00C942B3160E070E0CB010C9485228C
:1045200060E070E0CB010E947F220C948B226DEE44
:104530007EEF90E080E00E94373160E082E090E022
:104540000E94193160E083E090E00E9419311092DE
:10455000CB021092CC021092CD021092CE0260E0FB
:1045600084E090E00E94193160E085E090E00E94D4
:10457000193160E086E090E00E9419316FEF87E02A
:1045800090E00E94193140E050E0BA0188E090E0EC
:104590000E942B3160E08DE090E00E94193140E0F4
:1045A00050E0BA0188E190E00E942B3160E087E1A1
:1045B00090E00E9419310C9490220C949722FC01F7
:1045C000329680912701882321F0809172039EE129
:1045D00087FF96E080E0915008F40895219122230E
:1045E000D1F38F5FF8CF9C01FC0132969FEF80E002
:1045F0004191461751F09F3F19F4411101C0982F86
:104600008F5F8630A9F79F3F09F40895290F311D68
:1046100097FD3A95F90162830895FC013296089658
:104620002191261303C0DF0111971C92E817F907A7
:10463000B9F70895E62FE695E695E695EE3168F42C
:10464000E80FF92FF11D677021E030E001C0220F63
:104650006A95EAF78281822B82830895E62FE69598
:10466000E695E695EE3170F4E80FF92FF11D6770CD
:1046700021E030E001C0220F6A95EAF7209582819F
:1046800028232283089520912701222329F02091B5
:10469000720327FD0C941A230C94F3222091270116
:1046A000222329F02091720327FD0C942E230C94D1
:1046B0000D23FC01329680912701882351F08091CF
:1046C000720387FF06C08EE1DF011D928A95E9F72C
:1046D000089586E0F9CF08950C946B230E946C2313
:1046E00080917803843049F11092F50288E190E0DE
:1046F00020E40FB6F894A895809360000FBE209335
:10470000600080E00E94CF080E946C2383B7817F05
:10471000846083BF83B7816083BF7894889583B7B3
:104720008E7F83BF0FB6F894A89580916000886152
:1047300080936000109260000FBE08950895CF939B
:104740000E9445050E9458050E949E23C0E08C2FC0
:104750000E94B405811105C0CF5FCE30C1F7CF9163
:10476000089581E0FCCF08950C94B3230E94B21BFE
:104770000E94C5150E94CF080C94B4231F921FB647
:104780001F9211248F939F93AF93BF938091F50253
:10479000811113C080916E0390916F03A0917003FB
:1047A000B09171034196A11DB11D80936E0390934A
:1047B0006F03A0937003B0937103BF91AF919F916A
:1047C0008F911F901FBE1F90189582E084BD93E0CB
:1047D00095BD9AEF97BD80936E0008952FB7F8941A
:1047E00080916E0390916F03A0917003B09171035B
:1047F0002FBF0895CF92DF92EF92FF920F931F93F6
:104800002FB7F89440916E0350916F03609170033D
:10481000709171032FBF6A017B01EE24FF248C018C
:1048200030E020E0C016D106E206F30650F0481B47
:10483000590BCA011F910F91FF90EF90DF90CF901D
:10484000089541505109F3CF78941F921FB61F92DB
:1048500011248F939F93AF93BF9380916E03909198
:104860006F03A0917003B09171030196A11DB11D5A
:1048700080936E0390936F03A0937003B0937103C2
:10488000BF91AF919F918F911F901FBE1F90189560
:10489000F89481E08093E00080E28093D800E9EC16
:1048A000F0E010828FE19EE40197F1F700C0000074
:1048B0001DBA109268001CBC10BE1FBA10927A007C
:1048C00010926E0010926F001092710010927200A0
:1048D0001082ECEBF0E0108214B817B81AB81DB8CB
:1048E00010BA108215B818B81BB81EB811BA0C94BB
:1048F000003F08950E946322811102C00E94DD22C0
:104900000E946E228093F4020E94762290E090939F
:104910007303809372030E947222682F70E090E00C
:1049200080E00C947A1F8091FA0280FF12C060919F
:104930001B0185E0689FB0011124759567957595F9
:10494000679560387105A8F561157105A1F1862F8D
:10495000089581FF09C060911B0185E0689FB00147
:10496000112475956795EDCF60911B0182FD0AC0FA
:104970008091F9028823D1F090911A0160911B0176
:10498000891728F085E0689FB0011124DACF869F4F
:10499000B001112485E0869F9001879F300D11247E
:1049A000692F70E0C9010E94B42FCBCF65E070E0A1
:1049B000CECF8FE7089581E008958091FA0280FFBD
:1049C0000CC06091190170E07595679575956795B4
:1049D0006115710549F1862F089581FF06C0609128
:1049E000190170E075956795F3CF6091190182FD0B
:1049F0000BC09091F9029923A1F060911801809168
:104A00001901961738F0682F70E06038710500F3CF
:104A10008FE70895899FC001112470E00E94B42F90
:104A2000F4CF61E070E0D7CF81E00895803F31F4AA
:104A30000E94932481958093FE020895813F19F48A
:104A40000E949324F8CF823F31F40E9493248195F1
:104A50008093FD020895833F19F40E949324F8CFB8
:104A6000893F29F40E94DD248093FF0208958A3F44
:104A700021F40E94DD248195F7CF8B3F31F40E9411
:104A8000DD2481958093000308958C3F19F40E94E2
:104A9000DD24F8CF843F31F48091FC028160809363
:104AA000FC020895853F21F48091FC028260F7CFDB
:104AB000863F21F48091FC028460F1CF873F21F48E
:104AC0008091FC028860EBCF883F21F48091FC024A
:104AD0008061E5CF8D3F31F48091FA02816080934F
:104AE000FA0208958E3F21F48091FA028260F7CF96
:104AF0008F3FB9F78091FA028460F1CF9091FD0267
:104B0000803F41F48091FE0287FD1092FE029923BE
:104B100071F00895813F29F48091FE021816ACF3DC
:104B2000F6CF823F81F497FFF2CF1092FD02809181
:104B3000FE029091FF02892B90910003892B49F787
:104B40001092F9020895833F19F4191674F3DFCF18
:104B5000893F39F48091FF021816CCF61092FF02BB
:104B6000D6CF8A3F29F48091FF0287FFD0CFF6CFBE
:104B70008B3F39F48091000387FFC9CF1092000367
:104B8000C6CF8C3F29F4809100031816BCF3BFCF29
:104B9000843F31F48091FC028E7F8093FC02B7CF7A
:104BA000853F21F48091FC028D7FF7CF863F21F471
:104BB0008091FC028B7FF1CF873F21F48091FC0232
:104BC000877FEBCF883F21F48091FC028F7EE5CF79
:104BD0008D3F31F48091FA028E7F8093FA0297CF55
:104BE0008E3F21F48091FA028D7FF7CF8F3F09F03D
:104BF0008ECF8091FA028B7FF0CF8BEF92E00E94F4
:104C0000EB150E94EE239093F8028093F70208952B
:104C10001F93CF93DF938091F7029091F8020E9447
:104C2000FA23AC019091F90220911C0130E091111E
:104C300006C02091F6028AE0289F900111244217B5
:104C4000530778F02091FD02C091FE02D091FF023F
:104C500010910003211109C08C2F8D2B812B09F09D
:104C60006AC0DF91CF911F9108959F3F19F09F5F18
:104C70009093F902121624F40E9493248093FD026B
:104C80008091FD0287FF05C00E9493248195809347
:104C9000FD021C1624F40E9493248093FE0280914E
:104CA000FE0287FF05C00E94932481958093FE0237
:104CB0003091FD023323A1F02091FE02222381F0E6
:104CC00045EB3403C0011124992369F19093FD024F
:104CD00045EB240390011124332349F13093FE0264
:104CE0001D1624F40E94DD248093FF028091FF02B0
:104CF00087FF05C00E94DD2481958093FF02111675
:104D000024F40E94DD24809300038091000387FF38
:104D100005C00E94DD24819580930003DF91CF912F
:104D20001F910C94FD2581E08093FD02D1CF81E09D
:104D30008093FE02D5CF9F3F09F099CFAACF86E09E
:104D4000EBEFF2E0DF011D928A95E9F71092F9028C
:104D50001092FA020895833081F128F4813059F0DD
:104D60008230D1F00895853009F449C0B8F1863019
:104D700009F456C008958091F602482F460F552732
:104D8000551F4F3F510524F4680F6093F6020895B4
:104D90008FEF8093F602089580911C01482F460FF3
:104DA0005527551F4F3F510524F4680F60931C0190
:104DB00008958FEF80931C01089580911B01482F67
:104DC000460F5527551F4F3F510524F4680F609338
:104DD0001B0108958FEF80931B01089580911A01A4
:104DE000482F460F5527551F4F3F510524F4680F94
:104DF00060931A0108958FEF80931A0108958091AE
:104E00001901482F460F5527551F4F3F510524F4D0
:104E1000680F6093190108958FEF80931901089529
:104E200080911801482F460F5527551F4F3F5105B8
:104E300024F4680F6093180108958FEF8093180190
:104E40000895833011F128F4813049F0823091F0D7
:104E50000895853081F120F18630C1F10895809167
:104E6000F602681720F4861B8093F60208951092CC
:104E7000F602089580911C01681720F4861B809328
:104E80001C01089510921C01089580911B01681760
:104E900020F4861B80931B01089510921B01089536
:104EA00080911A01681720F4861B80931A010895D7
:104EB00010921A01089580911901681720F4861B39
:104EC0008093190108951092190108958091180195
:104ED000681720F4861B809318010895109218011A
:104EE00008950F931F9341E050E060E070E08A0165
:104EF0009B0104C0000F111F221F331F8A95D2F798
:104F0000C901B8010E947A1F1F910F910C94B21B26
:104F1000EBEFE80FEF3308F065C0F0E0EC56FE4C25
:104F20000C94C82F0E94DD2281E008958091F40244
:104F3000807F8093F40281E08093020308950E94B1
:104F4000B21B2FEF83ED90E3215080409040E1F7BA
:104F500000C000000E944824E7CF9091F402892FFE
:104F60008E7F90FF81608093F40280FDDDCF817F92
:104F70008093F402D9CF9091F402892F8D7F91FF15
:104F800082608093F40281FFCFCF8091F402816030
:104F9000EFCF9091F402892F8B7F92FF84608093F2
:104FA000F40282FDF2CFC0CF9091F402892F877F67
:104FB00093FF88608093F40283FDE7CFB5CF0E9412
:104FC000B21B90917203892F97FB87F980588093C9
:104FD0007203AACF80E00E947127A6CF8953FBCF2E
:104FE0008D51F9CF80E0089580E008950C94F42766
:104FF0008E518A3030F4E82FF0E0EB50FE4F808184
:10500000089580E00895CF93C82F809102038130E6
:10501000E1F0882329F08230E9F11092020313C0F5
:105020000E946421813159F48C2F0E94F427811150
:1050300025C08C2F0E9488278170CF9108950E94EF
:105040006421823289F380E0F8CF0E9464218131AB
:1050500059F30E946421823239F38C2F0E94F62783
:1050600081110AC0C43199F060F4CB3029F0C0310D
:1050700019F782E08093020381E0DECF81E090E0C7
:10508000DBCFC93221F0C833B9F380E0D5CF10921D
:105090000203FBCFC93219F188F4C43101F120F4C5
:1050A000C73081F181E0C9CF82EE8C0F8630D0F716
:1050B0008C2F0E94F82780930103F4CFCE3401F1A6
:1050C00040F46AE0CB3471F7809101030E94AB2673
:1050D000E9CFC13579F061E0C235B1F3E3CF80911A
:1050E0000103882319F010920103DCCF81E0809343
:1050F0000203A3CF61E0809101030E942127D2CF58
:105100006AE0F9CF1092F60284E180931C01C0930B
:105110001B018CE380931A0188E08093190188E2D7
:1051200080931801BFCF8091230308950F931F939D
:10513000CF93DF9300D00F92CDB7DEB78C010E94E2
:10514000FC2A823011F0843021F584E089831B83AE
:105150000A8382E08093E9008FEF9091E80081500C
:1051600095FD06C095ED9A95F1F700008111F5CFF8
:105170008091E80085FF0DC050E040E063E070E002
:10518000CE0101960E94192B8091E8008E778093C2
:10519000E8000F900F900F90DF91CF911F910F912A
:1051A0000895CF93DF9300D00F92CDB7DEB7209153
:1051B0007803243031F523E02983805891099B83BB
:1051C0008A8382E08093E9008FEF9091E80081501C
:1051D00095FD06C095ED9A95F1F700008111F5CF88
:1051E0008091E80085FF0DC050E040E063E070E092
:1051F000CE0101960E94192B8091E8008E77809352
:10520000E8000F900F900F90DF91CF910895CF930A
:10521000DF93EC010E94FC2A823011F08430F9F413
:1052200082E08093E9008FEF9091E800815095FD36
:1052300006C095ED9A95F1F700008111F5CF8091A8
:10524000E80085FF0CC050E040E066E070E0CE0171
:105250000E94192B8091E8008E778093E800DF91FF
:10526000CF910895CF93DF93EC010E94FC2A823006
:1052700011F08430B9F5809127018823B1F1809134
:10528000720387FF32C060E282E08093E9008FEF13
:105290009091E800815095FD06C095ED9A95F1F743
:1052A00000008111F5CF8091E80085FF1BC080913F
:1052B000270170E050E040E0811104C050E040E080
:1052C00068E070E0CE010E94192B8091E8008E7793
:1052D0008093E80080E2FE01A3E0B3E001900D922C
:1052E0008A95E1F7DF91CF91089568E081E0CDCF15
:1052F00080917703811109C00E94A72C0E94042D80
:105300008091E20084608093E20008951092770318
:105310000895089508950C94B62342E061EC81E06D
:105320000E94252C42E261EC82E00C94252C8091B5
:105330007A03833009F45FC030F48130C1F18230E8
:1053400009F49BC008958A3009F487C08B3009F4B2
:105350006DC0893009F04EC080917903813209F027
:1053600049C080917D0390917E03029708F042C06E
:105370008091E800877F8093E8008091E80082FFB9
:1053800035C09091F3008091F200029729F480914A
:10539000F1008B7F813021F48091F1008093230311
:1053A0008091E8008B778093E8000C94592C8091D1
:1053B0007903813AF9F48091E800877F8093E800CF
:1053C00080917D0390917E03892B61F460E283E0FC
:1053D00093E070E00E94682B8091E8008B778093C7
:1053E000E800089560E090E080E0F3CF80917803DA
:1053F0008111C3CF089580917903813AD9F78091C3
:105400007D0390917E03892BA9F78091E800877F27
:105410008093E8008091E80080FFFCCF8091270115
:105420008093F1008091E8008E77BDCF8091790361
:10543000813201F780917D0390917E03892BD1F613
:105440008091E800877F8093E8000E94592C80912A
:105450007B03809327010C94B21B809179038132E6
:1054600049F68091E800877F8093E8000E94592CDC
:1054700080917C0380932403089580917903813A7D
:1054800009F0B8CF8091E800877F8093E800809191
:10549000E80080FFFCCF80912403C2CF84B7877FD0
:1054A00084BF0FB6F894A8958091600088618093BE
:1054B0006000109260000FBE80E88093610010923F
:1054C00061000E9433160E94A72C0E94042D809137
:1054D000E20084608093E20078940E94842F0E940E
:1054E0003B168DE191E00E94C015809178038530D4
:1054F00029F00E9445160E94B213F7CF0E946E2336
:1055000080917603882389F30E949F23882369F37F
:105510000E94032BEACF0C948D2A292F33272330A6
:10552000310519F168F42130310509F44AC02230FF
:10553000310509F44BC090E080E030E020E028C065
:105540002132310579F122323105A9F780E490E06A
:1055500023E638E061157105D9F080EC90E023EA8C
:1055600037E061307105A1F0E6CF992781309105D0
:1055700099F0009741F08230910589F00397D9F6B0
:10558000ECE1F7E002C0E2E5F7E0849190E09F01F2
:10559000FA01318320830895EAE3F7E0F6CFE2E2EF
:1055A000F7E0F3CF89E090E028E637E06115710578
:1055B00079F389E090E021E837E06130710541F34B
:1055C000BACF82E190E021E937E0E2CF8BE390E0CF
:1055D00026E537E0DDCF0895CF93C82F0E94EB2A50
:1055E000C0932503CF91089580917803843011F4FE
:1055F00082E0089581E0089580912503811102C021
:105600000C94F42A089580E189BD82E189BD09B432
:1056100000FEFDCF8091D8008F7D8093D8008091CF
:10562000E00082608093E0008091E00081FDFCCF8B
:105630000895AF92BF92CF92DF92FF920F931F9384
:10564000CF93DF936C01EB018A010E94782CF82E36
:10565000811123C00115110539F0F8018081918174
:10566000C81BD90BC80ED91EB12CA12C2097A9F0AC
:105670008091E80085FD22C08091E8008E778093BC
:10568000E80001151105A1F0F80180819181A80EB3
:10569000B91EB182A08285E0F82E8F2DDF91CF91C7
:1056A0001F910F91FF90DF90CF90BF90AF90089522
:1056B0000E94782C8823D1F2F82EEFCFF601819149
:1056C0006F018093F1002197FFEFAF1ABF0ACECF91
:1056D000FC0180917F039091800386179707A0F0CB
:1056E0006115710529F49091E8009E779093E80088
:1056F00090E06115710551F4911108C08091E800A6
:1057000082FF34C080E00895BC01F2CF809178031D
:105710008823C1F18530C1F18091E80083FD30C05C
:105720008091E80082FDEACF8091E80080FFE1CF20
:105730008091F3002091F200382F6115710519F066
:105740002830310558F091E02830310509F090E01B
:105750002091E8002E772093E800CBCF81918093B1
:10576000F100615071092F5F3F4FE7CF80917803BF
:10577000882341F0853041F08091E80083FFBECF5F
:1057800081E0089582E0089583E00895FC0180910E
:105790007F039091800386179707A0F0611571052C
:1057A00029F48091E8008E778093E80090E06115FD
:1057B000710551F4911108C08091E80082FF35C055
:1057C00080E00895BC01F2CF809178038823C9F16D
:1057D0008530C9F18091E80083FD31C08091E800F7
:1057E00082FDEACF8091E80080FFE1CF8091F30055
:1057F0002091F200382F6115710519F0283031051C
:1058000058F091E02830310509F090E08091E800EF
:105810008E778093E800CBCF84918093F10031960E
:10582000615071092F5F3F4FE6CF80917803882345
:1058300041F0853041F08091E80083FFBDCF81E0E9
:10584000089582E0089583E00895982F973028F016
:105850008F708093E90081E008959093E900242FF0
:10586000762F50E0981731F07091EC002091ED0008
:105870005091F00021FD02C09F5FE8CF3091EB0016
:105880003E7F3093EB003091ED003D7F3093ED0093
:105890003091EB0031603093EB007093EC0020937B
:1058A000ED005093F0002091EE0027FDE5CF80E061
:1058B00008958091790387FF13C08091E80082FFEB
:1058C00006C08091E8008B778093E80004C0809147
:1058D00078038111F2CF0895809178038823D9F35A
:1058E0008091E80080FFF8CF8091E8008E77ECCFC0
:1058F0002091E4003091E50085E6A9019091EC004B
:1059000090FF06C09091E80090FF06C080E00895E7
:105910009091E80092FDFACF90917803992389F055
:10592000953089F09091EB0095FD0FC02091E40037
:105930003091E5004217530709F38150F1F684E0F6
:10594000089582E0089583E0089581E008950E941B
:10595000152D0E941D2DE0EEF0E080818160808396
:10596000E8EDF0E080818F77808319BCA7EDB0E08F
:105970008C918E7F8C9380818F7E808310927703B1
:1059800008950F931F93CF93DF930E94152D0E94CC
:105990001D2DC8EDD0E088818F778883888180684D
:1059A000888388818F7D888319BC10927803109238
:1059B0007403109276031092750300EE10E0F80164
:1059C00080818B7F808388818160888342E060E072
:1059D00080E00E94252CE1EEF0E080818E7F8083C4
:1059E000E2EEF0E080818160808380818860808346
:1059F000F80180818E7F8083888180618883DF9138
:105A0000CF911F910F910895E8EDF0E080818F7E96
:105A10008083E7EDF0E080818160808384E082BF55
:105A200081E0809377030C94C12CE8EDF0E0808155
:105A30008E7F80831092E20008951092DA00109217
:105A4000E10008951F920F920FB60F9211242F9329
:105A50003F934F935F936F937F938F939F93AF93F6
:105A6000BF93EF93FF938091E10082FF0BC0809181
:105A7000E20082FF07C08091E1008B7F8093E1000C
:105A80000E94832F8091DA0080FF19C08091D80096
:105A900080FF15C08091DA008E7F8093DA008091BC
:105AA000D90080FF94C080E189BD82E189BD09B43D
:105AB00000FEFDCF81E0809378030E9478298091D9
:105AC000E10080FF19C08091E20080FF15C0809145
:105AD000E2008E7F8093E2008091E20080618093FB
